:100000000C94CE120C9412130C9412130C94121321
:100010000C9412130C9412130C9412130C941213CC
:100020000C9412130C9412130C9478320C944A33DF
:100030000C94452D0C9412130C9412130C9412135F
:100040000C9412130C9412130C9412130C9412139C
:100050000C9412130C94AC2D0C9412130C941213D8
:100060000C9412130C9412130C9412130C9412137C
:100070000C9412130C9412130C9412130C9412136C
:100080000C9412130C9412130C9412130C9412135C
:100090000C9412130C9412130C9412130C9412134C
:1000A0000C9412130C9412130C9412138B1B911BAF
:1000B000951B981B9C1BA01BA41BA81BAD1BB11B55
:1000C000B51BB91BBC1BC01BC41BC81BCC1BD11B45
:1000D000BA23BA23F423F4232B24A2256525A225D1
:1000E0004D24A225F424F4245E25A225A2259E25D4
:1000F00001250125012501250125012501250125D0
:1001000001250125012501250125012501250125BF
:100110001325212528252F2539251E261E26312683
:10012000312627263126312631261E261E262D264B
:10013000312631262D26AF33D133BC34D133BC34F4
:1001400013343634BC348B349E340000000000007D
:100150000800000000001C0000000000081C000057
:1001600000001600000000000816000000001C1629
:1001700000000000081C1600000000000000000045
:100180001500000000001100000000001511000023
:1001900000000F0000000000150F00000000160016
:1001A000000000000F0F000000000A000000000027
:1001B000150A00000000110A000000000A110000EA
:1001C00000000F0A000000000A15000000000700F0
:1001D00000000000070F0000000006000000000003
:1001E00015060000000011060000000011061500B1
:1001F000000013000000000015130000000016139B
:1002000000000000130F00000000050000000000C7
:100210001505000000000A0A00000000050815008E
:100220000000050F0000000015050F000000000091
:10023000000000000F05000000000B00000000009F
:100240001A00000000001900000000001A11000050
:1002500000001D00000000001A0F00000000160B37
:10026000000000000F19000000000A0B0000000051
:10027000150A0B000000100000000000151000001F
:1002800000001B000000000000000000000016102D
:10029000000000000F1000000000060B000000002E
:1002A00015060B00000011060B00000015190000D8
:1002B0000000130B00000000000000000000160FFB
:1002C000000000000F060B00000009000000000005
:1002D00015090000000010050000000010050815B9
:1002E00000000F0900000000090F000000001013BB
:1002F00000000000131000000000170000000000C4
:10030000151700000000111700000000151117005C
:1003100000000F1700000000170F00000000161764
:10032000000000001516170000000E00000000007D
:10033000150E00000000110E000000001117151C22
:1003400000000E0F00000000000000000000160E6C
:10035000000000000F0E0000000006170000000063
:10036000061500000000170C12110000060F000017
:10037000000013170000000000000000000011162C
:10038000170000000F1300000000060E0000000020
:100390000000000000000517000000000508151708
:1003A0000000060E0F000000060E0F1C00000000EB
:1003B00000000000000000000000170B000000001B
:1003C00015170B00000011170B0000001A170B0087
:1003D00000000F170B0000000000000000001119C2
:1003E00000000000161A081500000A0B1700000094
:1003F0001A0E00000000110A170B00001008111758
:1004000000001B170000000000000000000007179C
:100410000B00000011100811170017060B00000058
:10042000000000000000110F1C0000000000000090
:10043000000013170B000000000000000000160F62
:100440001C00000000000000000009170000000070
:100450000917081500000917081100000000000026
:100460000000000000000000000000000000101369
:1004700017000000131008111700160000000000FC
:1004800015160000000011160000000015111600DE
:1004900000000F1600000000150F160000001616D1
:1004A000000000000F0F160000000A1600000000F8
:1004B000150A16000000110A160000000A111600A5
:1004C000000000000000000000000000000007160F
:1004D0000000000000000000000006160000000000
:1004E00015061600000011060816000000000000A6
:1004F000000013160000000015131600000016136C
:1005000016000000130F081600000516000000007A
:100510001505160000000A0A160000000508151649
:100520000000050F08160000000000000000000099
:10053000000000000F05160000000B160000000070
:100540001A16000000001908160000001A11160003
:1005500000001D08160000001A0F16000000160B00
:10056000081600000F19081600000A0B16000000FC
:10057000000000000000101600000000151016001A
:1005800000001B081600000000000000000016100C
:10059000160000000F101600000007000000000009
:1005A0001507000000001107000000001A070000F6
:1005B0000000130B16000000150F070000001607BF
:1005C000000000000F0700000000070A0000000004
:1005D00000000000000010051600000010050815BE
:1005E00016000000000000000000000000001013D2
:1005F00016000000000000000000171600000000B8
:10060000151716000000111716000000000000006A
:1006100000000F1716000000170F1C00000016172F
:10062000160000001516171600000E160000000038
:10063000150E16000000110E160000001117150C03
:100640000816000000000000000000000000160E68
:10065000160000000F0E160000000617160000001E
:10066000000000000000170C12111600000000002E
:10067000000000000000000000000000000000007A
:10068000000000000F1316000000060E1600000008
:1006900000000000000005171600000005081517EF
:1006A0001600060E0F0816000000000000000000F3
:1006B00000000000000000000000170B1600000002
:1006C00015170B16000011170B1600001A170B1642
:1006D000000000000000000000000000000000001A
:1006E000000000000000000000000A0B17160000C8
:1006F0001A0E16000000110A170B16001008111729
:1007000016000000000000000000000000000717B5
:100710000B16000011100811171607160000000034
:100720001507160000001107160000001A07160032
:10073000000013170B160000150F0716000000002D
:10074000000000000F07160000000000000000007D
:100750000000000000000000000000000000000099
:100760000000000000000000000000000000101366
:1007700017160000131008111716000000000000E3
:10078000080800000000121200000000120800001B
:10079000000004040000000004080000000004122F
:1007A00000000000041C00000000181800000000F9
:1007B00018080000000018120000000008181200BD
:1007C00000001804000000000818040000001218BF
:1007D00004000000181C000000000C0C00000000C9
:1007E0000C08000000000C1200000000080C1200B1
:1007F00000000C0400000000080C04000000120CB3
:10080000040000000C1C000000000C180000000098
:10081000080C180000000C121800000008120C1838
:100820000000040C180000001C08000000001C124E
:10083000000000000812040C180000000000000076
:100840000800000000001200000000000812000074
:100850000000040000000000080400000000120472
:10086000000000001C040000000018000000000050
:1008700008180000000012180000000008121800FC
:100880000000041800000000080418000000120412
:10089000180000001C18000000000C000000000000
:1008A000080C00000000120C0000000008120C00F0
:1008B0000000040C0000000008040C0000001204FA
:1008C0000C0000001C0C00000000180C00000000D0
:1008D00008180C00000012180C0000001C0000009A
:1008E000000004180C000000081C00000000121C8E
:1008F000000000001C0000000000000000000000DC
:100900001100000000001500000000000F000000B2
:1009100000001A00000000001000000000001A157E
:10092000000000001015000000000B000000000097
:100930001C0000000000150B000000000F1C000050
:1009400000001A0B00000000101C000000001A0B31
:100950000815000000000000000006000000000074
:100960001D0000000000061500000000060F00003A
:100970000000130000000000131100000000131518
:1009800000000000130F00000000060B0000000034
:10099000061C00000000060B1500000006151C00D8
:1009A0000000130B00000000131C00000000130BDC
:1009B00015000000130B0F000000170000000000DE
:1009C00019000000000017150000000014000000CE
:1009D0000000171A000000000D00000000000000D9
:1009E000000000000D0815000000170B00000000BB
:1009F000171C00000000170B1500000017151C0045
:100A000000000E00000000000E11000000000E1596
:100A1000000000000E0F00000000070000000000B2
:100A200007081900000007150000000007080F0064
:100A30000000071A00000000070810000000070867
:100A40001500000000000000000009000000000088
:100A5000071C00000000091500000000090F00003D
:100A60000000050000000000051C00000000051546
:100A700000000000050F000000000400000000005E
:100A8000041100000000041500000000040F000025
:100A90000000041A00000000041000000000000024
:100AA00000000000040F0F000000040B0000000015
:100AB000041C0000000004151000000000000000ED
:100AC0000000041A0B0000000411070000000000E1
:100AD00000000000040F10000000040600000000E9
:100AE000041D0000000004061500000004060F00AD
:100AF00000000413000000000410100000000413A4
:100B00001500000004130F00000004060B00000095
:100B10000406060000000406061500000406060F81
:100B2000000004130B00000000000000000004138C
:100B30000B1500000000000000000417000000007A
:100B40000419000000000417150000000414000040
:100B50000000041717000000040D00000000041737
:100B600017150000040F1A00000004170B00000006
:100B700004111700000004170B0F000004111715D3
:100B80000000040E0000000004060E11000000002A
:100B9000000000000000000000000407000000004A
:100BA00004071900000004071500000004061400E3
:100BB00000000407070000000407100000000407FD
:100BC000071500000407070F0000040900000000DB
:100BD00004090900000004091500000004090F00C1
:100BE000000004050000000004051C0000000405CE
:100BF0001500000004050F000000160000000000B2
:100C0000161100000000160815000000160F000065
:100C10000000161A0000000016100000000000007E
:100C200000000000000000000000160B00000000A3
:100C3000161C00000000160B15000000160F1C000B
:100C400000000000000000000000000000000000A4
:100C50000000000000000000000016060000000078
:100C60001616000000001606150000000000000027
:100C70000000161300000000000000000000161322
:100C80001500000016130F00000016060B000000F0
:100C90000000000000000000000000000000000054
:100CA000000016130B00000016131C0000000000CB
:100CB0000000000000000000000016170000000007
:100CC0001619000000001617150000001614000089
:100CD00000001B00000000000000000000001B15C9
:100CE00000000000160815190000000000000000B8
:100CF00016171C0000000000000000001617151C4D
:100D00000000160E000000001B1C00000000000088
:100D1000000000000000000000000A0000000000C9
:100D20000A11000000000A15000000000A0F000070
:100D300000000A1A0000000000000000000000008F
:100D4000000000000000000000000A0B000000008E
:100D50000A1C00000000000000000000000000006D
:100D60000000000000000000000000000000000083
:100D70000000000000000000000004160000000059
:100D800004111100000004151500000004160F00E6
:100D90000000000000000000041610000000000029
:100DA0000000000000000000000004160B0000001E
:100DB00004161C00000000000000000000000000FD
:100DC0000000000000000000000000000000000023
:100DD00000000000000000000000041606000000F3
:100DE000041616000000041606150000040F160075
:100DF0000000041613000000041313000000041385
:100E0000131500000413130F000000000000000081
:100E100000000000000000000000000000000000D2
:100E200000000416130B00000416130B1C00000036
:100E30000000000000000000000004161700000081
:100E40000411190000000415170000000416140016
:100E50000000041B00000000000000000000000073
:100E6000000000000000000000000416170B000046
:100E7000000000000000000000000000041117083E
:100E8000150004160E000000000000000000000025
:100E900000000000000000000000040A0000000044
:100EA000040A11000000040A15000000040A0F00E3
:100EB0000000040A0A00000004070D000000040AF4
:100EC0000A150000040A0A0F0000040A0B000000C3
:100ED0000409170000000409091500000409090F9E
:100EE00000000405050000000000000000000405EB
:100EF00005150000000000000000000012001800AE
:100F000018000C0018001800180000000000000075
:100F10002B0000000000280000000000000000007E
:100F2000000000000000000000003400000000008D
:100F300000003700000000000000340050000000F6
:100F40000000300200000000000034020000000039
:100F50000000300250000000000034025000000089
:100F6000000027020000000000003702000000001F
:100F7000000027025000000000003702500000006F
:100F80000000300000000000000000000000000031
:100F9000000030005000000000002C005000000055
:100FA000000037000000000000003400370000009F
:100FB0000000330200000000000034003700DA5C5B
:100FC000000030023700000000003402370000004B
:100FD000000030023700DA5C000034023700DA5CCF
:100FE0000000270237000000000025023800000042
:100FF000000027023700DA5C000025023800DA5CC6
:101000000000300037000000000000000000000079
:10101000000030003700DA5C000000000000000033
:101020000000360000000000000034003600000020
:1010300000002E0000000000000034003600DA5CE2
:1010400000003002360000000000340236000000CC
:10105000000030023600DA5C000034023600DA5C50
:1010600000002702360000000000370236000000B2
:10107000000027023600DA5C000037023600DA5C36
:1010800000003000360000000000000000000000FA
:10109000000030003600DA5C0000000000000000B4
:1010A00000003300000000000000340033000000A6
:1010B0000000330233020000000034003300DA5C29
:1010C0000000300233000000000034023300000052
:1010D000000030023300DA5C000034023300DA5CD6
:1010E00000002702330000000000000000000000A4
:1010F000000027023300DA5C00000000000000005E
:10110000000030003300000000000000000000007C
:10111000000030003300DA5C000000000000000036
:10112000000028000000000000003400280000003B
:101130000000370028000000000000000000000050
:1011400000003002280000000000340228000000E7
:10115000000028003002DB5C0000000000000000FE
:1011600000002702280000000000370228000000CD
:10117000000028002702DB5C0000000000000000E7
:101180000000300028000000000000000000000007
:10119000000028003000DB5C0000000000000000C0
:1011A000000037002800000000003400370028004D
:1011B00000003302280000000000000000000000D2
:1011C00000003002370028000000340237002800F9
:1011D000000000000000000000000000000000000F
:1011E00000002702370028000000250238002800F0
:1011F00000000000000000000000000000000000EF
:10120000000030003700280000000000000000004F
:1012100000000000000000000000000000000000CE
:1012200000003600280000000000340036002800CE
:1012300000002E0028000000000000000000000058
:10124000000030023600280000003402360028007A
:10125000000000000000000000000000000000008E
:101260000000270236002800000037023600280060
:1012700000004D00280000000000000000000000F9
:1012800000003000360028000000000000000000D0
:10129000000000000000000000000000000000004E
:1012A0000000330028000000000034003300280054
:1012B000000033023302280000000000000000009C
:1012C0000000300233002800000034023300280000
:1012D000000000000000000000000000000000000E
:1012E000000027023300280000000000000000007A
:1012F00000000000000000000000000000000000EE
:101300000000300033002800000000000000000052
:1013100000000000000000000000000000000000CD
:101320000000270000000000000000000000000096
:1013300000001E000000000000000000000000008F
:10134000000000000000000000000000000000009D
:10135000000000000000000000000000000000008D
:1013600000001F000000000000000000000000005E
:10137000000020000000000000000000000000004D
:10138000000000000000000000000000000000005D
:10139000000000000000000000000000000000004D
:1013A000000000000000000000000000000000003D
:1013B000000000000000000000000000000000002D
:1013C000000000000000000000000000000000001D
:1013D000000000000000000000000000000000000D
:1013E00000000000000000000000000000000000FD
:1013F00000000000000000000000000000000000ED
:1014000000000000000000000000000000000000DC
:1014100000000000000000000000000000000000CC
:10142000000021000000000000000000000000009B
:10143000000022000000000000000000000000008A
:10144000000000000000000000000000000000009C
:10145000000000000000000000000000000000008C
:101460000000230000000000000000000000000059
:101470000000240000000000000000000000000048
:10148000000000000000000000000000000000005C
:10149000000000000000000000000000000000004C
:1014A000000000000000000000000000000000003C
:1014B000000000000000000000000000000000002C
:1014C000000000000000000000000000000000001C
:1014D000000000000000000000000000000000000C
:1014E00000000000000000000000000000000000FC
:1014F00000000000000000000000000000000000EC
:1015000000000000000000000000000000000000DB
:1015100000000000000000000000000000000000CB
:101520000000250000000000000000000000000096
:101530000000260000000000000000000000000085
:10154000000000000000000000000000000000009B
:10155000000000000000000000000000000000008B
:1015600000001E0027000000000000000000000036
:1015700000001E001E00000000000000000000002F
:10158000000000000000000000000000000000005B
:10159000000000000000000000000000000000004B
:1015A000000000000000000000000000000000003B
:1015B000000000000000000000000000000000002B
:1015C000000000000000000000000000000000001B
:1015D000000000000000000000000000000000000B
:1015E00000000000000000000000000000000000FB
:1015F00000000000000000000000000000000000EB
:1016000000000000000000000000000000000000DA
:1016100000000000000000000000000000000000CA
:1016200000001E001F00000000000000000000007D
:1016300000001E002000000000000000000000006C
:10164000000000000000000000000000000000009A
:10165000000000000000000000000000000000008A
:1016600000001E002100000000000000000000003B
:1016700000001E002200000000000000000000002A
:10168000000000000000000000000000000000005A
:10169000000000000000000000000000000000004A
:1016A000000000000000000000000000000000003A
:1016B000000000000000000000000000000000002A
:1016C000000000000000000000000000000000001A
:1016D000000000000000000000000000000000000A
:1016E00000000000000000000000000000000000FA
:1016F00000000000000000000000000000000000EA
:1017000000000000000000000000000000000000D9
:1017100000000000000000000000000000000000C9
:101720000000000000000000000034000000000085
:1017300000002C000000000000002B000000000052
:1017400000002F0200000000000034020000000032
:1017500000003702000000000000370237020000DE
:101760000000260200000000000036020000000019
:1017700000002D0037020000000036023602000093
:1017800000002F000000000000000000000000002A
:1017900000003802000000000000200200000000ED
:1017A00000002E02000000000000350000000000D4
:1017B00000003502000000000000370000000000BB
:1017C00000002E022E0200000000000000000000B9
:1017D0000000240200000000000024022402000097
:1017E00000003100000000000000000000000000C8
:1017F000000031003100000000001F020000000066
:1018000000000000000000000000000000000000D8
:1018100000000000000000000000000000000000C8
:1018200000002D000000000000000000000000008B
:1018300000002E0000000000000021020000000057
:1018400000003800000000000000380038000000F0
:1018500000002614000000000000380038003800A6
:1018600000002D002D00000000000000000000001E
:1018700000002D02000000000000210226020000EE
:1018800000003800250200000000000000000000F9
:10189000000038002502250200003800380038001A
:1018A00036022502000000000000000000000000D9
:1018B00000001E02000000000000370025020000AA
:1018C00000002502380000000000000000000000B9
:1018D0000000000000000000000021022F020000B4
:1018E00000002502260200000000000000000000A9
:1018F0000000310200000000000025023700250230
:1019000000002202000000000000000000000000B3
:101910000000310231020000000000000000000061
:101920000000D95C00000000000000000000000082
:1019300000004D024C00000000000000000000000C
:101940000000000000000000000000000000000097
:101950000000000000000000000000000000000087
:101960000000000000000000000000000000000077
:101970000000000000000000000000000000000067
:101980000000000000000000000000000000000057
:101990000000000000000000000000000000000047
:1019A0000000000000000000000000000000000037
:1019B0000000000000000000000000000000000027
:1019C0000000000000000000000000000000000017
:1019D0000000000000000000000000000000000007
:1019E00000000000000000000000000000000000F7
:1019F00000000000000000000000000000000000E7
:101A000000000000000000000000000000000000D6
:101A100000000000000000000000000000000000C6
:101A20000000D95CD95C000000000000000000004C
:101A300000000000000000000000000000000000A6
:101A40000000000000000000000000000000000096
:101A50000000000000000000000000000000000086
:101A600000004A024C0000000000000000000000DE
:101A700000004A004D024C00000000000000000081
:101A80000000000000000000000000000000000056
:101A90000000000000000000000000000000000046
:101AA00000002502250200000000000000000000E8
:101AB0000000000000000000000000000000000026
:101AC0000000000000000000000000000000000016
:101AD0000000000000000000000000000000000006
:101AE00000000000000000000000000000000000F6
:101AF00000000000000000000000000000000000E6
:101B000000000000000000000000000000000000D5
:101B100000000000000000000000000000000000C5
:101B2000000027000000000000000000000000008E
:101B300000001E000000000000002900000000005E
:101B400000002F022700000000000000000000003D
:101B50000000000000000000000000000000000085
:101B600000001F0000000000000000000000000056
:101B70000000200000000000000000000000000045
:101B800000002F00270000000000000000000000FF
:101B90000000000000000000000000000000000045
:101BA0000000000000000000000000000000000035
:101BB0000000000000000000000000000000000025
:101BC0000000000000000000000000000000000015
:101BD0000000000000000000000000000000000005
:101BE00000002602270000000000000000000000A6
:101BF00000000000000000000000000000000000E5
:101C000000000000000000000000000000000000D4
:101C100000000000000000000000000000000000C4
:101C20000000210000000000000000000000000093
:101C30000000220000000000000000000000000082
:101C40000000000000000000000000000000000094
:101C50000000000000000000000000000000000084
:101C60000000230000000000000000000000000051
:101C70000000240000000000000000000000000040
:101C80000000000000000000000000000000000054
:101C90000000000000000000000000000000000044
:101CA0000000000000000000000000000000000034
:101CB0000000000000000000000000000000000024
:101CC0000000000000000000000000000000000014
:101CD0000000000000000000000000000000000004
:101CE00000000000000000000000000000000000F4
:101CF00000000000000000000000000000000000E4
:101D000000000000000000000000000000000000D3
:101D100000000000000000000000000000000000C3
:101D2000000025000000000000000000000000008E
:101D3000000026000000000000000000000000007D
:101D40000000000000000000000000000000000093
:101D50000000000000000000000000000000000083
:101D600000001E002700000000000000000000002E
:101D700000001E001E000000000000000000000027
:101D80000000000000000000000000000000000053
:101D90000000000000000000000000000000000043
:101DA0000000000000000000000000000000000033
:101DB0000000000000000000000000000000000023
:101DC0000000000000000000000000000000000013
:101DD0000000000000000000000000000000000003
:101DE00000000000000000000000000000000000F3
:101DF00000000000000000000000000000000000E3
:101E000000000000000000000000000000000000D2
:101E100000000000000000000000000000000000C2
:101E200000001E001F000000000000000000000075
:101E300000001E0020000000000000000000000064
:101E40000000000000000000000000000000000092
:101E50000000000000000000000000000000000082
:101E600000001E0021000000000000000000000033
:101E700000001E0022000000000000000000000022
:101E80000000000000000000000000000000000052
:101E90000000000000000000000000000000000042
:101EA0000000000000000000000000000000000032
:101EB0000000000000000000000000000000000022
:101EC0000000000000000000000000000000000012
:101ED0000000000000000000000000000000000002
:101EE00000000000000000000000000000000000F2
:101EF00000000000000000000000000000000000E2
:101F000000000000000000000000000000000000D1
:101F100000000000000000000000000000000000C1
:101F2000000000000000000008001500000008008C
:101F3000150000000C0011000A0008001500000048
:101F40000C0011000A000C0011000A0034001000FF
:101F500000003400160000003400070000003400C8
:101F60001900080034001500080034000F000F00AD
:101F70000000000000001100340017000000000005
:101F8000000007000000000000000000000000004A
:101F90000000000000000000000000000000000041
:101FA00000000000000011003400170000000000D5
:101FB000000007000000000000000000000000001A
:101FC0000000000000000000000000000000000011
:101FD0000000000000000000000000000000000001
:101FE00000000000CE5CCE5CD05CCE5CD05CD05CEF
:101FF000D15CCE5CCD5CCF5C0000D15C0000000009
:102000000000D45C000000000000000000000000A0
:102010000000D05C00000000000000000000000094
:1020200000000000000000000000000000000000B0
:1020300000000000000000000000000000000000A0
:102040000000D55C0000000000000000000000005F
:102050000000000000000000000000000000000080
:102060000000240221022B00D65CE00000002F00BB
:10207000140004001D00240200002F021A001500A5
:102080001B00E2002A003002090016000600520080
:1020900028002602130017001900510046002E00E8
:1020A0000A000700050000000351E300490000009A
:1020B00029000000035301532A00000028000000FB
:1020C000035325020D000B000E00000003512702F0
:1020D0000F0011001000500000002E021800080030
:1020E00036004F002C0030001C000C00370031007F
:1020F0004C001E023300120034001F0200002002B8
:1021000038002D00D65CE40000003A00E200E00058
:10211000CC5CCC5C00003B002B00CC5CCC5CCC5C91
:10212000CC5C3C002900CC5CCC5CCC5CCC5C3D0045
:10213000CC5CCC5CCC5C0100CC5C3E00CC5CCC5C70
:10214000CC5C0100CC5C3F00CC5CCC5CCC5C000087
:10215000CC5CE300CC5C0000CC5C0000CC5C0100FB
:10216000CC5C0000CC5C0000CC5C4000CC5CCC5C67
:10217000CC5C0000CC5C4100CC5CCC5CCC5C010055
:10218000CC5C4200CC5CCC5CCC5C0100CC5C430001
:102190002A00CC5CCC5CCC5CCC5C44004C00CC5CBD
:1021A000CC5CCC5CCC5C4500E600E400CC5CCC5C58
:1021B0000000010035000100010001000000D75CB3
:1021C00001000100010022000100D75C01000100B4
:1021D000010001000100D75C0100010001000100C5
:1021E0000100D75C01000100010001000100D75C83
:1021F00001000100010000000100220001000000B8
:1022000001000000010001000100000001000000C9
:102210000100D75C01000100010000000100D75C53
:1022200001000100010001000100D75C0100010074
:10223000010001000100D75C010001000100010064
:102240000100D75C010001000100D75C0100D75CF0
:10225000010001000100010000003A00010001003E
:10226000E100010000003B0001000100010001004D
:1022700001003C00010001000100010001003D00DF
:102280000100010001004B0001003E0001000100BF
:1022900001004E0001003F000100010001000000AC
:1022A0000100005C010000000100000001000000CE
:1022B00001000000010000000100400001000100D9
:1022C00001000000010041000100010001004A007E
:1022D000010042000100010001004D000100430027
:1022E00001000100010001000100440001000100A3
:1022F000010001000100450001000100E5000100AE
:1023000000000000000000000000000000001500B8
:1023100000801400008000000000000000000000A9
:102320000000210000802200008013000080420095
:102330000080000000000000000020000080360047
:102340000080370000804000008000000000120084
:102350000080340000803500008000000000010093
:102360000080000000001100008032000080330077
:10237000008000000000410000800000000010000C
:10238000008030000080310000800000000000006C
:1023900000800000000081000080000000000000BC
:1023A000008000000000000000800000000003002A
:1023B000008000000000030000800000000000001A
:1023C000008000000000700000805000008051007C
:1023D000008000000000000000800000000071008C
:1023E0000080520000805300008000000000420086
:1023F0000080000000007200008054000080550042
:1024000000800000000002000080000000000000CA
:1024100000007300008056000080570000804400D8
:1024200000800000000000000000740000806000D8
:102430000080610000804300008000000000000078
:1024400000000000000062000080620000800000C8
:10245000000016034500720067006F0044006F0023
:102460007800200045005A00000016034500720065
:1024700067006F0044006F007800200045005A009C
:1024800000000403090409025400030100A0FA0932
:102490000400000103010100092111010001224093
:1024A000000705810308000A090401000103000078
:1024B00000092111010001223600070582030800EE
:1024C0000A090402000103000000092111010001B2
:1024D00022390007058303200001120110010000CA
:1024E0000008EDFE071301000102000105010906C5
:1024F000A101050719E029E71500250195087501D7
:1025000081020508190129059505750191029501BA
:10251000750391010507190029F71500250195F8A4
:1025200075018102C005010980A101850216010023
:102530002603001A81002A8300751095018100C0CE
:10254000050C0901A1018503160100269C021A0150
:10255000002A9C02751095018100C005010906A1A1
:1025600001050719E029E715002501950875018186
:102570000295017508810105081901290595057560
:102580000191029501750391010507190029FF15B5
:102590000026FF00950675088100C00011241FBEAB
:1025A000CFEFDAE0DEBFCDBF04B603FE24C08091DA
:1025B000E4099091E509A091E609B091E709873017
:1025C000904BA740B04BB9F41092E4091092E50982
:1025D0001092E6091092E70914BE84B7877F84BF82
:1025E00088E10FB6F89480936000109260000FBEEF
:1025F000E0E0FFE3099512E0A0E0B1E0E8E8FAE6E8
:1026000002C005900D92A832B107D9F719E0A8E2EF
:10261000B2E001C01D92A43EB107E1F70E94AC2FC9
:102620000C9442350C9400001092B9008AE080931B
:10263000B800089594EA9093BC009091BC0097FF75
:10264000FCCF9091B900987F983021F0903111F033
:1026500081E008958093BB0084E88093BC00809162
:10266000BC0087FFFCCF8091B900887F883111F0D2
:10267000803471F780E0089584E98093BC008091F4
:10268000BC0084FDFCCF08958093BB0084E8809358
:10269000BC008091BC0087FFFCCF9091B900987F6F
:1026A00081E0983209F480E0089584E88093BC00CA
:1026B0008091BC0087FFFCCF8091BB00089580B360
:1026C0008C7080BB81B3836F81BB08958091290199
:1026D000811115C080E40E941A1380932901811191
:1026E0000CC082E10E94441380932901811105C02E
:1026F0008FEF0E944413809329010E943C1384B100
:10270000807F84B985B1807F85B98AB1837F8AB99A
:102710008BB1837F8BB93E984698089508950C94A9
:102720000D1B0E94831F809329010E9466130E9443
:102730005F13E7E3F2E0A9E2B2E011921D9282E0BA
:10274000E534F807D1F70C948C1C0E94831F80930A
:1027500029010E9466130E945F13E7E3F2E0A9E2F9
:10276000B2E011921D9282E0E534F807D1F70895A6
:102770008F929F92BF92CF92DF92EF92FF920F9330
:102780001F93CF93DF931F92CDB7DEB780912901BE
:10279000882379F0809128028F5F8093280281112D
:1027A00008C00E94831F80932901811102C00E94EA
:1027B000151F09E212E0812C912CEE24E394F12CF8
:1027C000DD24D39495E0C92E282D273030F5809153
:1027D0002901811142C080E489820E941A138093EA
:1027E00029012981811114C082E10E944413809340
:1027F0002901298181110CC0C701082C01C0880F53
:102800000A94EAF780950E94441380932901298154
:1028100029830E943C13298120C02A30A1F028F48A
:10282000283059F0293061F005C02C3089F070F063
:102830002D3089F0209A289810C0219A29980DC02F
:10284000229A2A980AC0239A2B9807C0529A01C04C
:10285000539A5B9802C03E9A469830EA3A95F1F74F
:10286000273018F580912901811144C080E40E942D
:102870001A1380932901882311F0B12C12C083E12F
:102880000E944413809329018111F7CF81E40E94B3
:102890001A13809329018111F0CF0E945513B82E8D
:1028A000B0940E943C138B2D26C08FB181708D2572
:1028B000799B02C090E001C092E0892B7C9B02C012
:1028C00090E001C094E0892B7D9B02C090E001C0A4
:1028D00098E0892B7E9B02C090E001C090E1892B9B
:1028E0009FB19095991F9927991F9295990F907E66
:1028F000892B01C080E0F8019081981719F080833E
:10290000C09200010E946613FFEF8F1A9F0A0F5FAB
:102910001F4F3EE08316910409F056CF80910001CD
:102920008823A1F0815080930001882329F085E05D
:102930008A95F1F700000AC0A7E3B2E0E9E2F2E00D
:1029400081918D9332E0E733F307D1F70E948E1C1B
:1029500081E00F90DF91CF911F910F91FF90EF9049
:10296000DF90CF90BF909F908F900895E82FF0E078
:10297000E95CFD4F808108950895FC0193819F706B
:1029800081E009F480E00895262F30E0FC01708199
:10299000A72FA770EA2FF0E0E630F1059CF566233B
:1029A00089F1EE0FFF1F3396E80FF91F40814F703A
:1029B000E1F46F709081907F962B292F22952F70D4
:1029C0003181832F83708295807F822B8F5F282FA8
:1029D0002F738295807F9F70982B908322952F7004
:1029E000832F8C7F822B8183089550E042175307F9
:1029F00001F351E05A0F5770472F487F452BFC01D8
:102A00004083C4CF0895CF936D3481F018F46832B9
:102A100039F004C0603531F0623531F0C1E007C0F3
:102A2000C4E005C0C2E003C0C3E001C0C0E06C2F39
:102A30000E94C4148C2FCF91089520E030E050E024
:102A4000F901EE0FFF1FE80FF91FDF0113967381E5
:102A5000472F4F7046130AC072957F7011964C91A4
:102A600043704295407F472B540F02C0442329F006
:102A70002F5F3F4F2630310519F7852F089580913C
:102A8000370890913808A0913908B0913A08892BFD
:102A90008A2B8B2B69F481E04091330850913408E4
:102AA0006091350870913608452B462B472B09F06D
:102AB00080E0817008950F931F93CF93DF931F924F
:102AC000CDB7DEB7182F69830E94F92B082F812F0D
:102AD0000E94092C6981862F0E945522802F0F9019
:102AE000DF91CF911F910F910C94092C10923B080C
:102AF000ECE3F8E0108212821182339688E0EC3F1A
:102B0000F807C1F7089590913B08292F30E0F901AB
:102B1000EE0FFF1FE20FF31FE45CF74F8083728319
:102B200061839F5F90933B0808952F923F924F924D
:102B30005F926F927F928F929F92AF92BF92CF924D
:102B4000DF92EF92FF920F931F93CF93DF93CDB756
:102B5000DEB764970FB6F894DEBF0FBECDBF0E94FC
:102B600076150E94F92B888B82E10E94022C8091BD
:102B7000C109887F8093C1091092C3091092C209CC
:102B800080E090E0FC01EE0FFF1FEC53F64F108247
:102B900021812C7F218301968630910599F78091C0
:102BA0002808282F21702B8782FB222720F981FB00
:102BB000332730F981FF04C0211104C091E006C021
:102BC000222319F091E0932701C090E09170998B36
:102BD00083FB882780F98C8770902C0840912A0805
:102BE000332311F0822F01C080E0382F3170B32ED3
:102BF00071100BC02B85222341F090912B0891116D
:102C000003C090912D08911181E0382F3170A32ECF
:102C100080FF0AC080912F0890912908892B877026
:102C20008093290810922F08BB20B9F080912908C1
:102C3000882319F08860809329081092220882E284
:102C400097E190932408809323081092250882E24C
:102C50009FE09093270880932608809131089091F7
:102C60003208009761F09093C3098093C209909352
:102C7000140180931301109232081092310842FF20
:102C800007C08091290883FF03C0877F80932908AC
:102C900047E1242E41E0342E28E238E03F872E879A
:102CA00000E010E031E03D87812C912CAE85BF859E
:102CB0008D91BF87AE87882309F42EC121E02D872F
:102CC0000115110509F01D86D101ED91FC91D80186
:102CD000A95CBE4F9C910430110531F42B85222351
:102CE00069F1EAE7F7E02AC003301105E1F4AA2010
:102CF00059F0BB2031F08093220894E0E0E0F0E04E
:102D000003C094E0E2E2F7E132E18316910421F09E
:102D100048E18416910491F4282F2074220F8F77B4
:102D2000822B80640BC00530110541F4AA2031F0DC
:102D3000BB2009F47EC380932508EEC0309709F4C8
:102D4000EBC0923009F486C018F4913041F0E4C031
:102D5000933009F4C5C0943009F46DC3DDC0E80FA9
:102D6000F11DE80FF11D85919491009709F4D4C0ED
:102D70000130110509F051C0209113013091140167
:102D8000843D6CE5960789F0853DACE59A07F1F442
:102D9000A3EDBCE5B0931601A0931501EFECFCE5A3
:102DA000F0931401E093130126C0E2EDFCE5F093EB
:102DB0001601E09315018DEC9CE59093140180932E
:102DC0001301109222081092250815C0AC014D5C29
:102DD0005C454530510528F490931401809313010C
:102DE0000AC0AC01425D5C454230510520F490932D
:102DF000160180931501AA2009F48EC0B1108CC071
:102E000080911301909114019093320880933108BE
:102E100030931401209313017FC00230110509F093
:102E20007BC08C30910549F480912B08806480939D
:102E30002B083CE0832E912C6FC08231910521F04C
:102E40008831910509F067C020912B0820682093F4
:102E50002B0861C02F0126E0829F400C511C1124D9
:102E6000C12CD12C9401215031093B8B2A8B682C29
:102E7000F201EC0DFD1D9491992309F44DC003302E
:102E8000110541F4943031F42A893B892B3C3C45AF
:102E900008F4962DE92EF12CB70182E09C8B0E945C
:102EA00083159C89943139F4772029F068E170E02A
:102EB00082E00E9483159989992351F0053011050C
:102EC00039F4C114D10421F4B70182E00E948315C2
:102ED000AFEFCA1ADA0AB6E0CB16D10449F61CC025
:102EE0006F0126E0829FC00CD11C1124E12CF12C33
:102EF000F601EE0DFF1D659174916115710561F08C
:102F000083E00E94831532E0E30EF11C46E0E416F4
:102F1000F10471F701C04C010F5F1F4F92E0290EC1
:102F2000311C0930110509F0C1CE40913B08411117
:102F300012C02C8521110CC08091130190911401B5
:102F40008E3C9C4508F445C082E00E94FC2B41C0A9
:102F50002B852111F1CF8091150190911601823DB1
:102F60003CE5930751F0833D9C4519F000E010E0EB
:102F700006C0AC8400E010E003C00CE210E0A12C1D
:102F80004423D1F020913D0830913E08283331058B
:102F900068F426333105D0F42832310568F02A323E
:102FA0003105A0F02333310539F410C02A3431053E
:102FB00069F02D34310551F00115110539F02C85DA
:102FC000222309F4E9C1442309F4E3C1AA2009F446
:102FD000B3CF212C312CCE0101967C01A0E5CA2E65
:102FE000D12C5E019BE0A90EB11CBAE28B2E912C74
:102FF0001DEC612E1CE5712E80913B08281608F00F
:10300000AFC0822D90E08C01000F111F080F191F17
:10301000045C174FD8018C91833099F0843079F19A
:10302000823009F085C011968C910E945522F801DA
:1030300081810E941D2361E081EC99E00E94C4140B
:103040001CC0D80111965C90119712968C919CEF40
:10305000950D9A3120F4852D0E94552203C0652DCF
:103060000E945B15852D0E941D23652D81EC99E042
:103070000E940315813009F05BC0339459C0F701F9
:103080002AE011922A95E9F7D80111960D911C9129
:1030900012970A3DBCE51B0781F00B3DECE51E07CE
:1030A00089F0093DFCE51F07D1F420E533E03A83C0
:1030B00029839C828B82270134C0DA82C982DC8218
:1030C000CB82F9CF82E590E09A838983ADE4B0E0CA
:1030D000BC83AB83E8E2F0E0FE83ED83ECCF602FAE
:1030E000812F0E945B15802F0E941D23602F81EC91
:1030F00099E00E9403158130F1F63394DCCF602F04
:10310000812F0E945B15802F0E941D23602F81EC70
:1031100099E00E940315813009F433944A145B044A
:1031200039F0D2010D911D912D010115110539F7CD
:10313000B1E03B1213C080911301909114018E3CB9
:10314000ECE59E0721F08F3C9C4529F007C070926A
:1031500014016092130182E00E94022C23944CCF50
:10316000332081F08091130190911401803D9C45A2
:1031700049F48DEC9CE5909314018093130182E057
:103180000E94022C81EC99E00E94BD148823C9F0B2
:1031900080914502843611F4109245023091450227
:1031A00081E0830F809345022FE03203D001112488
:1031B000AA5BBD4FE1ECF9E001900D922A95E1F791
:1031C000DDC03B85332309F4D9C0509045025A94A1
:1031D00057FE02C0E3E65E2E452D6FE04602300149
:1031E0001124C3018A5B9D4F3C010E94BD142C85B4
:1031F000882309F4BBC0222309F441C08AE20E945B
:1032000055228AE20E941D23D3012C91277080E071
:1032100090E030E0F901E81BF90BEE0FFF1FE60D1F
:10322000F71DDF0113964381542F5F705130C9F4AD
:1032300042954F7011962C911197822F8370829531
:10324000807F842B815C982F9F738295807F816023
:103250008C9392959F70822F8C7F892B11968C93E3
:1032600007C00196A901481B590B4F3F5F4F91F6CC
:1032700061E0C3010E941D15811180C074C02D85BD
:10328000222309F47BC0D3018C918770A82EB12C26
:103290008501000F111F060D171DE12CF12C0D5F8C
:1032A0001F4FC701880F991F4801881A990AC12C1E
:1032B000D12CF4018081982F92959F7021812370E9
:1032C0002295207F292B30E0C216D306C4F58F70DB
:1032D00090E08230910521F13CF4019761F58AE29A
:1032E0000E9455228AE225C083309105F1F00497AF
:1032F00011F581EE0E94552282E50E94552282E559
:103300000E941D238DE40E9455228DE40E941D23FE
:1033100081EE0E941D238CE40E9455228CE409C09A
:103320008FE40E9455228FE404C081E50E9455225B
:1033300081E50E941D23BFEFCB1ADB0ABACFFFEF56
:10334000EF1AFF0AC5018E199F09019609F0A9CF4E
:10335000D30111968D919C911297009721F0909333
:103360003208809331085092450208C0222331F080
:103370008AE20E9455228AE20E941D2388890E94C7
:10338000092CE8E2F8E0119238E0E133F307D9F7CD
:103390006EC03B8531111ACE80912208811110C078
:1033A0008091250881110CC0602F0E945B15802F31
:1033B0000E941D2361E081EC99E00E94C41406CEB6
:1033C000B11004CE02E218E0D8018C91811107C03F
:1033D0000D5F1F4FB8E008321B07B1F7F7CDC12CC6
:1033E000D12CF80180810180F281E02D28E0829FBC
:1033F000E00DF11D1124C601880F991FE80FF91F78
:10340000E590F490E114F10419F36E2D8F2D0E94D4
:103410005B158E2D0E941D236E2D81EC99E00E947C
:1034200003153FEFC31AD30A44E0C416D104C9F60A
:10343000CFCFE2E2FFE06F0148E0849FC00CD11CD7
:103440001124E12CF12CF601EE0DFF1D6591749114
:103450006115710509F460CD84E00E94831562E076
:10346000E60EF11C88E0E816F10469F755CD649684
:103470000FB6F894DEBF0FBECDBFDF91CF911F9185
:103480000F91FF90EF90DF90CF90BF90AF909F9003
:103490008F907F906F905F904F903F902F90089506
:1034A000CF92DF92EF92FF920F931F93CF93DF9310
:1034B000EB01863D2CE5920709F474C0873D2CE5AD
:1034C000920709F485C08C3C9C4509F09BC088811B
:1034D000E98196E0E99FF0011124E80FF11DEE0F5C
:1034E000FF1FEE0FFF1FEE5FFC4D85919591A5919B
:1034F000B491B7FF65C09C012F70332741E050E0C5
:1035000060E070E004C0440F551F661F771F2A95C6
:10351000D2F724E0B695A795979587952A95D1F788
:103520008F7090E0DC01A05CBE4FFC01EE0FFF1F2E
:10353000EF5FFE4F0190F081E02DCA816A017B01AF
:103540000C9004C0CC0CDD1CEE1CFF1C0A94D2F7BE
:103550000081118122813381CC2379F00C291D292E
:103560002E293F290083118322833383FC01E85DE8
:10357000F74F8081842B808323C0B701A60140953B
:1035800050956095709540235123622373234083A7
:103590005183628373830E943F15882389F00E94C0
:1035A000951531C08981811102C081EE01C085EE7F
:1035B000CA81CC2339F00E94552282E00E946C2AF5
:1035C000C0E021C00E941D2382E00E94872A1BC008
:1035D0006881798180E00E94A61C64E170E00E940D
:1035E000F234FC01EE0FFF1FE75BFE4F608181812B
:1035F000CA81CC2319F00E945B15E2CF862F0E946E
:103600001D2301C0C1E08C2FDF91CF911F910F913D
:10361000FF90EF90DF90CF90089560916F097091C7
:10362000700980917109909172090E94772C2598F8
:103630002D9826982E9827982F98813029F083303E
:1036400029F4269A2E9A02C0259A2D9A0E943F1597
:10365000811102C0279A2F9A089581E008950C9451
:10366000501A0E940C262FEF84E39CE021508040EA
:103670009040E1F700C000000C94D22D0F931F93EF
:10368000CF93DF938C01FC01C081D181CE010E94D8
:10369000F82ABE010E94A61CEC01B8010E942F1B53
:1036A000882309F433C1B801CE010E94C91E8823C2
:1036B00009F42CC1B801CE010E94D21F882309F45D
:1036C00025C1C531FCE5DF0708F0A3C0C2308CE599
:1036D000D80708F478C0F8018281882309F47FC0F4
:1036E0000E94E42C811102C00E94CA2C0E94F72C77
:1036F00090E09093D6098093D509FE01E350FC45F4
:10370000E231F10520F4EA5AFF4F0C94063580911E
:10371000D509816003C08091D50982608093D50965
:103720004BC08091D5098460F9CF8091D50913C031
:103730008091D5098061F2CF8091D5098062EECF6A
:103740008091D5098064EACF8091D5098068E6CF61
:103750008091D50984608860E1CF8091D5098E7F02
:10376000DDCF8091D5098D7FD9CF8091D5098B7F11
:10377000D5CF8091D50913C08091D5098F7ECECF4A
:103780008091D5098F7DCACF8091D5098F7BC6CF17
:103790008091D5098F77C2CF8091D5098B7F877FA4
:1037A000BDCF9091D50997FB882780F921E082272A
:1037B00080FB97F99093D5098091D5090E94FB2C45
:1037C0000E940C26A3C0C115ECE5DE0779F0C130DC
:1037D000DC45A1F081E08093000980930109C801D4
:1037E000DF91CF911F910F910C942D1BF8018281D5
:1037F000882309F48BC00E94311B88C0F8018281A4
:10380000882309F483C080919C09816080939C097E
:103810007DC0C73C8CE5D80781F5F80182818823FB
:1038200061F0109201090E94772D9093FF08809318
:10383000FE0880E20E946C2369C00E94F92B81FF80
:1038400005C081E0809300098093010980910109FE
:1038500081110FC08091FE089091FF080E94832D76
:10386000883C910530F487E20E94552287E20E944D
:103870001D2380E20E94732349C0C83CECE5DE07AB
:1038800080F5C63CDC4509F0A5CFF801828188238C
:1038900051F0109200090E94772D9093FD088093BB
:1038A000FC0882E0C7CF0E94F92B85FF05C081E0AC
:1038B00080930009809301098091000981110FC054
:1038C0008091FC089091FD080E94832D883C910511
:1038D00030F486E20E94552286E20E941D2382E097
:1038E000C9CFCA3C8CE5D80731F4F801828188231E
:1038F00069F080E009C0CB3CDC4509F06BCFF801F2
:103900008281882319F082E00E943E3080E0DF91BE
:10391000CF911F910F9108950C946D1F0C948F13EC
:10392000282F882339F090E02A3010F44D9608951E
:103930000697089587E290E0089508950C949D1CE1
:103940000C949E1C80E090E00895089596E0799F85
:10395000F001112494E5899FE00DF11D1124E60F7B
:10396000F11DEE0FFF1FEE59FF4D859194910895C3
:10397000880F991F8E599F4DFC0185919491089550
:103980000E94A61C0E944C1E811520E49207B0F5EF
:10399000811540E3940708F0DBC0803E9105D8F420
:1039A000803C910508F069C0883A910578F4853A21
:1039B000910508F065C08130910509F46CC108F4E7
:1039C00023C18430910508F066C11EC18D3B91056D
:1039D00008F461C019C18F3F910509F048F4803F98
:1039E000910508F0AFC0883E910508F454C10CC1A0
:1039F000811520E2920708F0A7C00895811544E5DB
:103A00009407D8F4811523E5920708F0DCC08115EE
:103A100041E5940740F4811520E5920708F0A2C023
:103A20009F70906A0895811542E5940708F0B6C02A
:103A3000982F8827816F906A0895811526E592074F
:103A400050F4811545E5940708F0D2C0982F8827D7
:103A5000846F906A0895811528E5920708F4D4C010
:103A6000811549E5940708F4C8C09C01305621151A
:103A7000304208F0C9C09F71C5C0805C910965C023
:103A8000853A910509F4C3C0863A910509F4C2C08C
:103A900083E890E40895883A910509F4BEC0893A14
:103AA000910509F4BDC08A3A910509F4BCC08B3A6E
:103AB000910509F4BBC08C3A910509F4BAC08B3B5F
:103AC000910509F4B9C08C3B910509F4B8C08D3A51
:103AD000910509F4B7C0803B910509F4B6C08E3A50
:103AE000910509F4B5C08F3A910509F4B4C0813B42
:103AF000910509F4B3C0823B910509F4B2C0833B40
:103B0000910509F4B1C0843B910509F4B0C0853B2F
:103B1000910509F4AFC0863B910509F4AEC0873B1F
:103B2000910509F4ADC0883B910509F4ACC0893B0F
:103B3000910509F4ABC08A3B910509F0AAC08AE25D
:103B400096E40895906508959F700E94B81C0895AA
:103B50009C01332793FF03C0C901986C0895C901E4
:103B6000906C0895482F437021E030E002C0220F8E
:103B7000331F4A95E2F73C68AC0174E056954795CF
:103B80007A95E1F74370342B8F708695869540E2E5
:103B9000849FC0011124822B932B0895282F2695F2
:103BA000269540E2249F90011124AC0143705527D3
:103BB00081E090E002C0880F991F4A95E2F7822BBE
:103BC000932B9C680895282F2695269540E2249FE4
:103BD00090011124AC014370552781E090E002C0B0
:103BE000880F991F4A95E2F7822B932B9A680895C4
:103BF0008F719927982F882705C0982F8827806F65
:103C0000906A08959062089580E090E0089581E8B8
:103C100090E4089582E890E4089582EE94E4089593
:103C200089EE94E408958AEE94E4089585EB94E493
:103C3000089586EB94E4089583EB94E4089584EB6F
:103C400094E4089587EB94E408958CEC94E408954B
:103C50008DEC94E4089583E895E408958AE895E46A
:103C6000089582E995E4089584E995E4089581E250
:103C700096E4089583E296E4089584E296E4089534
:103C800085E296E4089586E296E4089587E296E454
:103C9000089580E094E408958238910549F1B0F4E4
:103CA0008133910509F459C048F48932910509F42A
:103CB0004FC08A32910509F455C0089585339105A6
:103CC00009F441C08933910599F00895833E910527
:103CD00031F138F4803E910591F0823E9105A9F0D2
:103CE0000895863E910501F1873E910539F10895C9
:103CF0002091D50920FD3BC021FD39C00895809158
:103D0000D50980FF34C089E341C08091D50982FF85
:103D100032C08091D50984FF2CC080E037C08091EB
:103D2000D50982FD28C0F5CF8091D50983FF25C034
:103D30008091D50984FDF1CF87EE28C08091D50907
:103D400083FD1BC0F5CF8091D50985FF18C019C030
:103D50008091D50985FF15C012C08091D50986FFD5
:103D600012C013C08091D50986FF0FC00CC080EE31
:103D70000DC083EE0BC082EE09C086EE07C085E35E
:103D800005C089E203C081E301C08AE290E00895A2
:103D90000895CF93DF93EC01FB018281811102C072
:103DA00081E040C080910F09811125C0C531DC45FB
:103DB000B9F70E94C81E81E080930F090E94772DF9
:103DC00090930E0980930D09109202091092040934
:103DD0001092030910920609109205091092080921
:103DE0001092070910920A091092090910920C0901
:103DF00010920B0916C080910D0990910E090E9436
:103E0000832D883C910560F680910209E82FF0E04F
:103E1000EE0FFF1FED5FF64FD183C0838F5F80935E
:103E2000020980E0DF91CF91089556985E98259819
:103E30002D9826982E9827982F988FEF90E09093A2
:103E400089008093880090938B0080938A009093E0
:103E50008D0080938C00259A2D9A2FEF80E792E0B9
:103E6000215080409040E1F700C00000269A2E9A31
:103E70002FEF80E792E0215080409040E1F700C0B2
:103E80000000279A2F9A2FEF80E792E02150804080
:103E90009040E1F700C0000025982D982FEF80E7B3
:103EA00092E0215080409040E1F700C00000269849
:103EB0002E982FEF80E792E0215080409040E1F76C
:103EC00000C0000027982F9856985E9825982D9846
:103ED00026982E9827982F98089589EA8093800035
:103EE00089E08093810024982C983F988AB18F7C38
:103EF0008AB96E98479A8BB180638BB9769A0E9483
:103F0000151F0C948E1380E2809329018091100973
:103F100081110EC00E94141381E0809310092FEFCD
:103F200083ED90E3215080409040E1F700C0000015
:103F300080E40E941A138093290181112EC00E94EF
:103F4000441380932901811128C00E944413809357
:103F50002901811122C08FE30E944413809329011B
:103F600081111BC00E943C1380E40E941A138093AD
:103F70002901811112C08CE00E9444138093290111
:103F800081110BC00E94441380932901811105C047
:103F90008FE30E944413809329010E943C13809177
:103FA00029010895CF93DF93EC01C13080E8D80751
:103FB000C8F0FB0182818823A9F080911109811149
:103FC00009C08CE090E00E940C350E94F61F81E051
:103FD000809311090E94FD1FCE019F770E94BB2094
:103FE0000E94732081E0DF91CF91089580931209A0
:103FF000682F8CE090E00C941A35E0912A01F09142
:104000002B0180818093D00981FF03C081EE0E9443
:104010001D238091D00985FF03C085EE0E941D23DA
:104020008091D00980FF03C080EE0E941D23809103
:10403000D00984FF03C084EE0E941D238091D00923
:1040400082FF03C082EE0E941D238091D00986FF6B
:1040500003C086EE0E941D238091D00983FF03C018
:1040600083EE0E941D238091D00987FF03C087EE55
:104070000E941D23809112098130A1F078F08230D6
:1040800011F1843049F586EE0E94552286EE0E9499
:104090001D2388E10E94552288E11CC082EE0E9407
:1040A00055221AC080EE0E94552281EE0E945522B0
:1040B00088E10E94552288E10E941D2381EE0E9422
:1040C0001D2380EE07C082EE0E94552287E50E94E4
:1040D000552287E50E941D238FE39CE90197F1F7A4
:1040E00000C00000089580911209813029F010F07D
:1040F000823041F482EE04C08CE20E9455228CE2B0
:104100000E941D238091D00981FF03C081EE0E948F
:1041100055228091D00985FF03C085EE0E9455226B
:104120008091D00980FF03C080EE0E9455228091CB
:10413000D00984FF03C084EE0E9455228091D009EB
:1041400082FF03C082EE0E9455228091D00986FF33
:1041500003C086EE0E9455228091D00983FF03C0E0
:1041600083EE0E9455228091D00987FF03C087EE1D
:104170000C9455220895FF920F931F93CF93DF93D2
:104180008C01CCE0D0E0C8010C2E02C0969587953A
:104190000A94E2F7282F2F70F22E822F0E94901C93
:1041A0000E9455228F2D0E94901C0E941D2324974F
:1041B000CC3F8FEFD80739F7DF91CF911F910F9147
:1041C000FF90089590931809809317090895E0913E
:1041D0001709F0911809309721F00190F081E02D36
:1041E000099480E00895E0911709F091180930973B
:1041F00021F00280F381E02D0994089520911509A2
:10420000309116098217930771F0909316098093E5
:104210001509E0911709F0911809309721F00680EF
:10422000F781E02D09940895209113093091140924
:104230008217930771F09093140980931309E0910A
:104240001709F0911809309721F00084F185E02DCD
:104250000994089508950C942A210E946E2D0E94BD
:1042600091130E94F52DE5EDF9E08081806880834F
:104270000895CF92DF92EF92FF920F931F93CF9307
:10428000DF93CDB7DEB72B970FB6F894DEBF0FBE26
:10429000CDBF0E94B8133AE1E32E39E0F32E00E0DF
:1042A00010E0C02E802F0E94B614F701D1907F013C
:1042B000D826B1F40F5F1F4F0E30110591F78FEF25
:1042C00089838A831B820E94772D8160782F9D834A
:1042D0008C8349815A816B818D810E94162241C055
:1042E00090919C0991FF04C08B870E94BC148B8520
:1042F00020E030E04D2D50E0922FBA01022E02C096
:10430000759567950A94E2F760FF25C02E83CF82EA
:10431000EE24E394F12C02C0EE0CFF1C9A95E2F718
:1043200090E08E219F2121E0892B09F420E028874D
:104330000E94772D8160782F9A8789874E815F81CF
:1043400068858A850E941622F801E65EF64F808114
:104350008E25808306C02F5F3F4F2630310561F6E2
:10436000A9CF109119090E94E7201817A1F00E9407
:10437000E720809319092B960FB6F894DEBF0FBE85
:10438000CDBFDF91CF911F910F91FF90EF90DF9004
:10439000CF900C94A01C2B960FB6F894DEBF0FBEE6
:1043A000CDBFDF91CF911F910F91FF90EF90DF90E4
:1043B000CF900895DC0111964C9111975C91852F57
:1043C00090E021E030E001C0220F5A95EAF7129602
:1043D0006C91129750E0662319F06091360905C080
:1043E000FA01E85DF64F608162236623B9F036E09A
:1043F000349FF001359FF00D1124E80FF91FEE0FE7
:10440000FF1FEF58FE4F808191818D939C93FA019D
:10441000E85DF64F8081822B80830895FA01E85D84
:10442000F64F20958081282320830895CF93DF9332
:10443000CDB7DEB72B970FB6F894DEBF0FBECDBF5A
:104440004F83588769877A878B878A859B85892BD5
:1044500031F05F3F11F080E003C04F3FE1F781E0B2
:10446000811104C0CE0107960E94DA21DE01119667
:1044700086E0FD0111928A95E9F785E0FE01379605
:1044800001900D928A95E1F749815A816B817C8177
:104490008D819E810E94D6282B960FB6F894DEBFA0
:1044A0000FBECDBFDF91CF910895882309F4C4C01A
:1044B000823859F40E94E72081FDBEC089E30E9442
:1044C000782B0E94482C89E30CC0833871F40E9439
:1044D000E72080FDB1C083E50E94782B0E94482C24
:1044E00083E50E94B82B0C94482C843859F40E9420
:1044F000E72082FDA1C087E40E94782B0E94482C0F
:1045000087E4EFCF9CEF980F913A18F40E94782B34
:10451000EACF90E2980F983050F4877091E001C094
:10452000990F8A95EAF7892F0E94FC2BDCCF9BE537
:10453000980F933070F4853A29F0863A31F482E886
:1045400090E005C081E890E002C083E890E00C9420
:10455000FE2098E5980F953108F06EC0883A61F119
:10456000893A69F18A3A71F18B3A79F18C3A81F1A1
:104570008B3B89F18C3B91F18D3A99F1803BA1F114
:104580008E3AA9F18F3AB1F1813BB9F1823BC1F189
:10459000833BC9F1843BD1F1853BD9F1863BE1F105
:1045A000873BE9F1883BF1F1893BF9F18A3B09F05E
:1045B0003FC08AE292E03EC082EE90E03BC089EECE
:1045C00090E038C08AEE90E035C085EB90E032C0D4
:1045D00086EB90E02FC083EB90E02CC084EB90E062
:1045E00029C087EB90E026C08CEC90E023C08DECD6
:1045F00090E020C083E891E01DC08AE891E01AC0F5
:1046000082E991E017C084E991E014C081E292E070
:1046100011C083E292E00EC084E292E00BC085E21A
:1046200092E008C086E292E005C087E292E002C014
:1046300080E090E00C9414210895882309F44BC085
:10464000823859F40E94E72081FF45C089E30E9427
:10465000782B0E94482C89E30CC0833871F40E94A7
:10466000E72080FF38C083E50E94782B0E94482C09
:1046700083E50E94B82B0C94482C843859F40E948E
:10468000E72082FF28C087E40E94782B0E94482CF4
:1046900087E4EFCF9CEF980F913A58F390E2980F90
:1046A000983050F4877091E001C0990F8A95EAF72D
:1046B000892F0E94022CDFCF9BE5980F933020F4C6
:1046C00080E090E00C94FE20885A853120F480E050
:1046D00090E00C9414210895882321F00E94FC2B73
:1046E0000C94482C0895882321F00E94022C0C94ED
:1046F000482C08958F929F92BF92CF92DF92EF92B3
:10470000FF920F931F93CF93DF9300D0CDB7DEB707
:104710004C01472FFC01E580E2949FE0E922F28002
:10472000FF2031F079836A830E941C2C6A814981C1
:1047300049836A830E94712B49816A81882389F0A9
:10474000FF2079F080E2860F883058F082E00E94E6
:104750005A2B0E94712BBB24B394B82649816A81DD
:1047600001C0B12CE42FE295EF70F0E0E859FF4F63
:104770000C940635842F807F142F1F70882311F02E
:104780001295107FFF20C1F0112309F48DC180E242
:10479000860F883010F0611105C0812F6A830E9456
:1047A000FC2B04C0812F6A830E940F2C6A816A83CC
:1047B0000E94482C6A8178C1862F6A830E941D233B
:1047C0006A81112309F4BEC180E2860F883010F09F
:1047D000611104C0812F0E94022C03C0812F0E940E
:1047E000152C0E94482CAEC1242F207F842F8F705F
:1047F000203211F08295807F662319F06130B9F084
:1048000020C0FF2049F0EE2009F404C1F1E0EF12CE
:1048100001C10E942F2C96C1EE2021F091E0E916F3
:1048200009F490C189830E94322C8981F9C0FF204C
:1048300029F0E1E0EE1508F485C1ECC0E11082C179
:10484000EFC0FF2021F0EE2009F4E4C02DC1EE20DE
:1048500009F4E6C02FC1242F26952695237030E059
:104860002115310521F02130310561F06BC1FF20A8
:1048700021F0862F942F937002C080E090E00E9478
:10488000FE2060C1FF2021F0862F942F937002C07C
:1048900080E090E00E94142155C1842F837009F0BC
:1048A0004EC0F1104FC1262F229526952770220F5A
:1048B000220F862F8F70C82ED12CE12CF12C022EC6
:1048C00004C0CC0CDD1CEE1CFF1C0A94D2F764FF64
:1048D00010C06FE070E080E090E004C0660F771FCA
:1048E000881F991F2A95D2F76095709580959095AD
:1048F00003C060E070E0CB01242F2695269523703D
:1049000030E02230310569F02330310589F06C291F
:104910007D298E299F292130310571F00E94272A97
:1049200011C16C297D298E299F290E94392A0AC12B
:104930000E94272AC701B6010E94152A03C1FF2041
:1049400019F0842F817001C08695882309F4FAC07C
:10495000262F229526952770220F220F862F8F70E3
:10496000C82ED12CE12CF12C022E04C0CC0CDD1C65
:10497000EE1CFF1C0A94D2F764FF10C06FE070E0D9
:1049800080E090E004C0660F771F881F991F2A956A
:10499000D2F7609570958095909503C060E070E0C7
:1049A000CB01242F26952695237030E02230310547
:1049B00069F02330310589F06C297D298E299F29E2
:1049C0002130310571F00E94D32ABCC06C297D29A9
:1049D0008E299F290E94E52AB5C00E94D32AC701CB
:1049E000B6010E94C12AAEC0062F10E0F801E05EB9
:1049F000F109E531F10508F053C0E858FF4F0C9478
:104A00000635162F1F70842F8F71FF2031F00E9402
:104A10006C2A812F0E946C2395C00E94872A812FC7
:104A20000E9473238FC0FF2039F0E1108BC0842FC8
:104A30008F710E94A62A86C0F1E0FE1508F482C09C
:104A4000F6CFFF2039F0842F8F710E946C2A7AC034
:104A5000FF20C9F3842F8F710E94872A73C0FF2023
:104A600029F0842F8F710E945D2A6CC00E94582A01
:104A700069C0FF2051F0142F1F71812F0E946C2AF2
:104A800063E0812F0E94512B5DC081E00E945A2B70
:104A900081E08E1508F056C082E00E945A2B52C069
:104AA000FF2031F0EE2079F2862F0E9455224AC075
:104AB000EE2081F2862F0E941D2344C04F70C40156
:104AC0000E94A21C0E9483293DC0623FA9F128F4E4
:104AD000603F49F0613FE1F020C0643FA1F050F039
:104AE000653F69F01AC0FF2049F18091360921E045
:104AF000822702C081E08F25809336091FC0F11004
:104B00001DC081E0F9CFF11019C01092360916C00E
:104B1000EE2091F0F11012C0E8CFEE2069F0862F60
:104B200049836A83FF2019F00E94552202C00E9427
:104B30001D2349816A8102C0F09236094F70C40179
:104B40000E94A51CBB20F1F00E944D2B80FD1AC0D5
:104B5000F40112820E94472B0E946C2AC4010E9419
:104B6000D0250E94472B0F900F90DF91CF911F917E
:104B70000F91FF90EF90DF90CF90BF909F908F901C
:104B80000C94872A0F900F90DF91CF911F910F9176
:104B9000FF90EF90DF90CF90BF909F908F900895FF
:104BA0000F931F93CF93DF93EC01288139818B8181
:104BB0009C81892B31F03F3F11F080E003C02F3FF3
:104BC000E1F781E0811113C0CE010E943E1B8823D2
:104BD00071F0688179818A810E94432B8C010E9447
:104BE000F72A0E94122AB801CE010E947A23DF918F
:104BF000CF911F910F9108950E941C2C0E942C2C84
:104C00000E94EB2B0E94482C80E090E00E94FE2046
:104C100080E090E00C9414210E940C2C0C94FC2554
:104C20000E94382BE92FE295EF70F0E03297EE30DA
:104C3000F105B8F4E357FF4F0C940635803F59F067
:104C400018F4803E70F407C0843F59F404C0803EDD
:104C500010F0813F31F481E0089593FB882780F9BB
:104C6000089580E00895CF93DF9300D000D01F9285
:104C7000CDB7DEB70F900F900F900F900F90DF9190
:104C8000CF910895CF93DF9300D000D000D0CDB75F
:104C9000DEB726960FB6F894DEBF0FBECDBFDF910C
:104CA000CF9108951F93CF93DF93C091370916E0FA
:104CB00080913809C81799F0D0E01C9FF0011D9F22
:104CC000F00D1124E75CF64F4081518162817381C0
:104CD000848195810E9442262196C770E9CFDF9199
:104CE000CF911F9108954091690950916A0960918F
:104CF0006B0970916C0980916D0990916E090C940B
:104D00004226CF9380916E0982958F7009F05FC023
:104D100080916B09882309F45AC020913709A0912A
:104D200038096091690970916A0980916C099091C4
:104D30006D0931E06F3F09F030E0B32FC6E02A176C
:104D400009F445C0009721F07F3F21F44B2F03C0A9
:104D500041E001C040E030E040FD35C0C29FF001BD
:104D6000C39FF00D1124E75CF64F418174132BC0F3
:104D70004081641328C04281411125C04381548180
:104D80004817590710F441505109481B590B483C2A
:104D90005105C8F480916E098F70806180936E090F
:104DA00086E0829FF001839FF00D1124E25CF64FB4
:104DB00080818F708061808389E699E00E94D02590
:104DC000CF910C9452262F5F3F4F2770B8CFCF91D1
:104DD0000895CF92DF92EF92FF920F931F93CF939C
:104DE000DF93CDB7DEB762970FB6F894DEBF0FBE84
:104DF000CDBF8C0185E0F801DE011D9601900D927A
:104E00008A95E1F7D8014C9111965C911197129611
:104E10006C9112971396ED90FC901497709169091C
:104E2000E0916A0920916C0930916D0921153105D5
:104E300031F0EF3F31F481E07F3F19F403C081E0AE
:104E400001C080E0B82FB170CB2E80FD6CC1D09036
:104E50006B09DD2009F4F5C0F0916E09E216F30646
:104E600038F0C701821B930B883C910548F09BC02A
:104E7000209530952E0D3F1D283C310508F093C03C
:104E80008F2F807F09F052C0E51314C0741312C035
:104E9000D62E61110FC0FF70F061F0936E090E9471
:104EA000732689E699E00E94D02580916E09F80169
:104EB00085836CC1EF2831F05F3F31F481E04F3FD3
:104EC00019F403C081E001C080E080FD03C081E0EF
:104ED000862701C080E0F82FF170FF2E80FF1CC0F4
:104EE000809137092091380936E0821709F428C1EA
:104EF00090E0389FF001399FF00D1124E75CF64FE8
:104F00007181571306C07081471303C07281671304
:104F100003C001968770E9CFD62E662309F436C107
:104F200080916E09816080936E0953C0E51308C0BB
:104F3000741306C0611104C0D8011596FC93AEC06D
:104F40004D875E878D859E856A8B0E9410266A89B3
:104F5000882329F1D62E662311F120916E09822F24
:104F600082958F7090E002970CF460C0809169097F
:104F700090916A0998878F831986FB86EA862C8729
:104F8000CE01079651C0E51731F14D875E878D85BB
:104F90009E856A8B0E9410266A8981112EC0C801E5
:104FA0000E94D025A4C08F2F807F69F77E2DF98ABB
:104FB000E88A89890E94332689E699E00E94D025F3
:104FC000E9E6F9E086E0DF011D928A95E9F70E94A3
:104FD0007326D12CDBC07413D8CF6111D6CFD80182
:104FE0001596FC93C8010E94D025E9E6F9E086E019
:104FF000DF011D928A95E9F7C9C0D62E662379F2A2
:1050000020916E09822F82958F7090E0029774F044
:105010008091690990916A099A8389831B82FD8234
:10502000EC822E83CE0101960E94D02586E0F80105
:10503000A9E6B9E001900D928A95E1F70E948126D8
:105040006FC0E216F30628F0C701821B930B9C0188
:1050500004C0209530952E0D3F1D283C310508F0E9
:1050600052C0D62E662309F49ACFE5132CC07413D0
:105070002AC080916E0980FD1DC0982F92959F7067
:10508000C9F0D80115968C9315979F3039F09F5F22
:105090009295907F8F70892B15968C93C8010E94F2
:1050A000D02586E0F801A9E6B9E001900D928A9535
:1050B000E1F736C086E0F801A9E6B9E001900D926B
:1050C0008A95E1F763C04D875E878D859E850E9436
:1050D0001026882379F086E0F801A9E6B9E001906E
:1050E0000D928A95E1F70E9481260E947326DD24A5
:1050F000D3944CC080916E09816080936E09C80181
:105100000E94D02543C07E2DF98AE88A89890E94B1
:105110003326E9E6F9E086E0DF011D928A95E9F79A
:105120000E94732633C0662309F439CF4D875E870A
:105130008D859E850E941026882309F430CFCBCF21
:105140004D875E878D859E850E94382B292F22955D
:105150002F7030E0223031052CF49F7041F0811126
:1051600006C00CC0243031052CF49F7049F4805ED9
:10517000883020F0C8010E94D025CF2CDC2C06C03E
:10518000D80115969C91907F91F7F8CF8D2D62965E
:105190000FB6F894DEBF0FBECDBFDF91CF911F9148
:1051A0000F91FF90EF90DF90CF9008951F93CF93D2
:1051B000DF93CDB7DEB72C970FB6F894DEBF0FBEE6
:1051C000CDBF4F83588769877A878B879C87CE01AD
:1051D00007960E94E9268823C1F02F8138858A85A9
:1051E0009B85892B31F03F3F11F080E003C02F3FBA
:1051F000E1F781E0811147C04F81588569857A8543
:105200008B859C850E9442263EC086E0FE01379633
:10521000DE01119601900D928A95E1F7FF81E885F4
:105220004A855B854115510531F0EF3F31F481E04E
:10523000FF3F19F403C081E001C080E080FD23C07E
:105240002091380930E0C901019687709927609153
:10525000370970E086179707F1F1F983EA835D83D8
:105260004C8396E0929FD001939FB00D1124A75CD0
:10527000B64FFE01319601900D929A95E1F7809319
:1052800038090E94522616E080913709909138091A
:10529000891779F1189FC0011124875C964F0E94ED
:1052A000E926882331F1E09137091E9FF00111248E
:1052B000E75CF64F408151816281738184819581E1
:1052C0000E9442268091370990E0019687709927C5
:1052D00080933709D9CF0E940C261092380910927A
:1052E0003709E9E6F9E086E0DF011D928A95E9F7E2
:1052F000CACF2C960FB6F894DEBF0FBECDBFDF919C
:10530000CF911F910895EF92FF920F931F93CF9328
:10531000DF939C01009709F471C0F12CEE24E39413
:10532000E9012196F9018491843740F4843008F032
:1053300056C0813081F0823021F160C0853709F498
:1053400049C0C0F19CE7980F903708F057C08F779D
:105350000E941D2346C089010E5F1F4FFE018491EC
:1053600090E2980F983050F48770FE2D01C0FF0F27
:105370008A95EAF78F2F0E941F2C15C00E94552294
:1053800014C089010E5F1F4FFE01849190E2980FB7
:10539000983068F48770FE2D01C0FF0F8A95EAF7F8
:1053A0008F2F0E94252C0E94482CE8011AC00E94D1
:1053B0001D23FBCF2E5F3F4FFE01C491CC2341F054
:1053C0008FE99FE00197F1F700C00000C150F6CFD0
:1053D000E90107C0FE01F490E901229602C00E9493
:1053E00055228F2D882341F0EFE9FFE03197F1F747
:1053F00000C000008150F6CF9E0192CFDF91CF9187
:105400001F910F91FF90EF90089508950E94052A33
:10541000609373097093740980937509909376096A
:105420000C94FC2508950C94062A0F931F93009169
:105430007309109174092091750930917609602BD8
:10544000712B822B932B1F910F910C94062A0F9393
:105450001F9300917309109174092091750930917F
:10546000760960237123822393231F910F910C945B
:10547000062A0F931F9300917309109174092091CC
:1054800075093091760960277127822793271F912C
:105490000F910C94062A08950E944B2A60936F097D
:1054A0007093700980937109909372090C94FC2594
:1054B00060E070E0CB010C944C2A41E050E060E0E9
:1054C00070E004C0440F551F661F771F8A95D2F7FE
:1054D000CB01BA010C944C2A41E050E060E070E04E
:1054E00004C0440F551F661F771F8A95D2F780911D
:1054F0006F0990917009A0917109B0917209482BC0
:10550000592B6A2B7B2BCB01BA010C944C2A41E01E
:1055100050E060E070E004C0440F551F661F771F25
:105520008A95D2F7409550956095709580916F0956
:1055300090917009A0917109B09172094823592383
:105540006A237B23CB01BA010C944C2A41E050E042
:1055500060E070E004C0440F551F661F771F8A95F6
:10556000D2F780916F0990917009A0917109B09163
:105570007209482759276A277B27CB01BA010C9467
:105580004C2A0F931F9300916F091091700920917D
:10559000710930917209602B712B822B932B1F9113
:1055A0000F910C944C2A0F931F9300916F09109147
:1055B000700920917109309172096023712382234F
:1055C00093231F910F910C944C2A0F931F930091DA
:1055D0006F0910917009209171093091720960274B
:1055E0007127822793271F910F910C944C2A0895BD
:1055F000CF92DF92EF92FF920F931F93CF93DF939F
:10560000EC01C0907309D0907409E0907509F09096
:10561000760980916F0990917009A0917109B091FC
:105620007209C82AD92AEA2AFB2A0FE110E0B70139
:10563000A601002E04C076956795579547950A9464
:10564000D2F740FD05C00150110988F780E007C07E
:10565000BE01802F0E94C01C0197A9F3802FDF910B
:10566000CF911F910F91FF90EF90DF90CF90089511
:10567000CF93DF93EC010E94F82ABE010E94C01C68
:10568000DF91CF910895CB010E94382B089580912E
:105690007709859585958595089580917709877017
:1056A000089598E0899F90011124622B60937709F7
:1056B0000C946C2A40917709809584238093770914
:1056C000982F977069F450E0282F332727FD3095E5
:1056D0004217530729F08595859585950C94872A5F
:1056E000089590917709977081E009F480E008951A
:1056F000909136019923D9F09091D50997FF17C061
:10570000982F9695969596959F3188F5E0912A0168
:10571000F0912B01E90FF11D877021E030E001C00D
:10572000220F8A95EAF78181822B81830895409127
:105730002A0150912B0120E030E09FEFFA01E20FA7
:10574000F31F6281681799F09F3F19F4611101C03E
:10575000922F2F5F3F4F2E31310581F79F3F39F058
:10576000FA01E90FF11D97FDFA95828308950895D6
:10577000909136019923E1F09091D50997FF18C0D7
:10578000982F9695969596959F3120F5E0912A0150
:10579000F0912B01E90FF11D877021E030E001C08D
:1057A000220F8A95EAF72095818128232183089585
:1057B00040912A0150912B0120E030E0FA01E20FE4
:1057C000F31F9281981301C012822F5F3F4F2E3139
:1057D0003105A1F7089581E090E0E0912A01F09170
:1057E0002B01E80FF91F1082019680329105A9F76D
:1057F000089580919B09089590919B09982B90930F
:105800009B090895809590919B09982390939B09FB
:10581000089580939B09089510929B090895909193
:105820009A09982B90939A090895809590919A09D6
:10583000982390939A09089510929A090895909147
:105840009909982B909399090895809590919909B9
:105850009823909399090895109299090895809337
:105860007809089510927809089540912A0150917D
:105870002B0120E030E080E0FA01E20FF31F91817C
:1058800091118F5F2F5F3F4F2F313105A9F7089599
:10589000E0912A01F0912B0180919B098083E09196
:1058A0002A01F0912B01808190919A09892B8083A4
:1058B000E0912A01F0912B01808190919909892B27
:1058C000808390917809992361F0E0912A01F09109
:1058D0002B018081892B80830E94352C81111092AD
:1058E000780980912A0190912B010C94F320CF929A
:1058F000DF92EF92FF920F931F936C01EE24FF242F
:10590000C114D104E104F10421F46B017C0180E0B5
:1059100001C080E133272F2D1E2D0D2D01151105FE
:105920002105310519F0885F680179019701860129
:10593000A4E03695279517950795AA95D1F70115F7
:1059400011052105310519F08C5F68017901970176
:105950008601F2E03695279517950795FA95D1F7C8
:10596000011511052105310519F08E5F68017901D6
:10597000B701A6017695679557954795452B462B18
:10598000472B09F08F5F1F910F91FF90EF90DF90F1
:10599000CF9008956DEE7EEF80E090E00E942C3570
:1059A00060E082E090E00E941A3560E083E090E0E1
:1059B0000E941A3560E084E090E00E941A3560E0B1
:1059C00085E090E00C941A3580E090E00E94143558
:1059D00021E08D3E9E4F09F020E0822F089582E065
:1059E00090E00C940C3583E090E00C940C3584E04E
:1059F00090E00C940C35682F84E090E00C941A35FC
:105A00008091DB09843021F110929D0920E488E126
:105A100090E00FB6F894A895809360000FBE209395
:105A2000600080E00E94A01C83B7817F846083BFF8
:105A300083B7816083BF7894889583B78E7F83BF57
:105A400088E10FB6F89480936000109260000FBE5A
:105A500008950895CF930E94A5130E94B8130E9441
:105A6000292DC0E08C2F0E94B614811105C0CF5F94
:105A7000CE30C1F780E001C081E0CF9108950E944F
:105A80000C260E94E7200C94A01C1F920F920FB6C8
:105A90000F9211248F939F93AF93BF9380919D0991
:105AA000811113C08091D1099091D209A091D3099D
:105AB000B091D4094196A11DB11D8093D109909355
:105AC000D209A093D309B093D409BF91AF919F910C
:105AD0008F910F900FBE0F901F90189582E084BD9C
