:100000000C948C120C94D3120C94D3120C94D31223
:100010000C94D3120C94D3120C94D3120C94D312CC
:100020000C94D3120C94D3120C9485310C94573247
:100030000C945A2C0C94D3120C94D3120C94D3120B
:100040000C94D3120C94D3120C94D3120C94D3129C
:100050000C94D3120C94C22C0C94D3120C94D31283
:100060000C94D3120C94D3120C94D3120C94D3127C
:100070000C94D3120C94D3120C94D3120C94D3126C
:100080000C94D3120C94D3120C94D3120C94D3125C
:100090000C94D3120C94D3120C94D3120C94D3124C
:1000A0000C94D3120C94D3120C94D312D41BD61BE1
:1000B000E11BD81BDA1BDC1BDE1BE01BE31BE51B73
:1000C000E71BF21BE91BEB1BED1BEF1BF11BF41BEA
:1000D000B022B022E222E22236243624362436240C
:1000E00015233624B823B8232624362436242F2477
:1000F000C523C523C523C523C523C523C523C523C0
:10010000C523C523C523C523C523C523C523C523AF
:10011000D423E123E823EF23F923BB24BB24CD24FC
:10012000CD24C424CD24CD24CD24BB24BB24C92478
:10013000CD24CD24C924C432E632D933E632D933B2
:100140002B334E33D933A333B63300000000000005
:100150000800000000001C0000000000081C000057
:100160000000000000000000150000000000110069
:10017000000000001511000000000F00000000004A
:10018000150F000000001600000000000F0F000017
:1001900000000A0000000000150A00000000110A1B
:1001A000000000000A11000000000F0A000000001B
:1001B0000A1500000000070000000000070F000003
:1001C00000000600000000001506000000001106F7
:1001D00000000000110615000000130000000000E0
:1001E000151300000000161300000000130F00009C
:1001F00000000500000000001505000000000A0ACC
:1002000000000000050815000000050F00000000B8
:1002100015050F0000000000000000000F050000A1
:1002200000000B00000000001A0000000000190090
:10023000000000001A11000000001D000000000076
:100240001A0F00000000160B000000000F1900003C
:1002500000000A0B00000000150A0B00000010004F
:10026000000000001510000000001B00000000004E
:100270000000000000001610000000000F10000039
:100280000000060B0000000015060B000000110620
:100290000B000000151900000000130B0000000007
:1002A000000000000000160F000000000F060B0009
:1002B0000000090000000000150900000000100502
:1002C000000000001005081500000F0900000000E4
:1002D000090F0000000010130000000013100000C0
:1002E00000001700000000001517000000001117A3
:1002F000000000001511170000000F17000000009B
:10030000170F000000001617000000001516170058
:1003100000000E0000000000150E00000000110E8D
:10032000000000001117151C00000E0F0000000057
:10033000000000000000160E000000000F0E00007C
:100340000000061700000000061500000000170C52
:1003500012110000060F000000001317000000003B
:100360000000000000001116170000000F1300002D
:100370000000060E0000000000000000000005174D
:1003800000000000050815170000060E0F00000011
:10039000060E0F1C0000000000000000000000001E
:1003A0000000170B0000000015170B0000001117CC
:1003B0000B0000001A170B0000000F170B000000C5
:1003C000000000000000111900000000161A0815B6
:1003D00000000A0B170000001A0E00000000110AAE
:1003E000170B00001008111700001B170000000079
:1003F00000000000000007170B000000111008119A
:10040000170017060B000000000000000000110F8D
:100410001C00000000000000000013170B0000008B
:10042000000000000000160F1C000000000000008B
:10043000000009170000000009170815000009173F
:100440000811000000000000000000000000000093
:100450000000000000001013170000001310081126
:10046000170016000000000015160000000011160D
:10047000000000001511160000000F16000000001B
:10048000150F160000001616000000000F0F1600D2
:1004900000000A1600000000150A16000000110AEC
:1004A000160000000A111600000000000000000005
:1004B000000000000000071600000000000000001F
:1004C00000000616000000001506160000001106C8
:1004D00008160000000000000000131600000000D5
:1004E000151316000000161316000000130F08164F
:1004F00000000516000000001505160000000A0A9D
:1005000016000000050815160000050F081600006B
:100510000000000000000000000000000F051600B1
:1005200000000B16000000001A1600000000190859
:10053000160000001A11160000001D081600000029
:100540001A0F16000000160B081600000F190816E7
:1005500000000A0B1600000000000000000010164A
:10056000000000001510160000001B081600000017
:100570000000000000001610160000000F1016000A
:100580000000070000000000150700000000110730
:10059000000000001A0700000000130B1600000006
:1005A000150F070000001607000000000F070000ED
:1005B0000000070A00000000000000000000100515
:1005C00016000000100508151600000000000000CD
:1005D00000000000000010131600000000000000E2
:1005E0000000171600000000151716000000111774
:1005F000160000000000000000000F1716000000A9
:10060000170F1C000000161716000000151617160D
:1006100000000E1600000000150E16000000110E5E
:10062000160000001117150C08160000000000004D
:10063000000000000000160E160000000F0E16004D
:100640000000061716000000000000000000170C54
:100650001211160000000000000000000000000061
:100660000000000000000000000000000F13160052
:100670000000060E16000000000000000000051734
:1006800016000000050815171600060E0F081600C4
:10069000000000000000000000000000000000005A
:1006A0000000170B1600000015170B16000011179D
:1006B0000B1600001A170B160000000000000000C7
:1006C000000000000000000000000000000000002A
:1006D00000000A0B171600001A0E16000000110A7F
:1006E000170B16001008111716000000000000007C
:1006F00000000000000007170B1600001110081181
:100700001716071600000000150716000000110755
:10071000160000001A071600000013170B16000041
:10072000150F071600000000000000000F0716005C
:1007300000000000000000000000000000000000B9
:1007400000000000000000000000000000000000A9
:10075000000000000000101317160000131008110D
:100760001716000000080800121200120800040406
:10077000000408000412000000001C1C001C0800FB
:100780001C1200081C121C0400081C04121C04008B
:100790000000181800180800181200081812180491
:1007A00000081804121804000000181C0008181C87
:1007B00012181C00000004181C00000000000000BB
:1007C00000000C0C000C08000C1200080C120C04A9
:1007D00000080C04120C040000000C1C00080C1C87
:1007E000120C1C000000040C1C00000000000000A3
:1007F00000000C1800080C180C1218000000181249
:10080000180000000000000000001C0C1800000090
:1008100000000000000000000000000000000000D8
:100820000000000000080000120000081200040090
:10083000000804001204001208001C0000081C003C
:10084000121C0008121C041C0008041C12041C00CA
:1008500000001800000818001218000812180418E8
:10086000000804181204180000001C1800081C18C6
:10087000121C18000000041C1800000000000000FA
:1008800000000C0000080C00120C0008120C040CF4
:100890000008040C12040C0000001C0C00081C0CC6
:1008A000121C0C000000041C0C00000000000000E2
:1008B0000000180C0008180C12180C000000041896
:1008C0000C0000000000000000001C180C000000DC
:1008D0000000000000000000000000000000000018
:1008E00000000000000000001100000000001500E2
:1008F000000000000F00000000001A0000000000CF
:100900001000000000001A15000000001015000083
:1009100000000B00000000001C0000000000150B90
:10092000000000000F1C000000001A0B0000000077
:10093000101C000000001A0B081500000000000049
:1009400000000600000000001D0000000000061569
:1009500000000000060F000000001300000000006F
:10096000131100000000131500000000130F000019
:100970000000060B00000000061C00000000060B33
:100980001500000006151C000000130B00000000FD
:10099000131C00000000130B15000000130B0F00C8
:1009A00000001700000000001900000000001715EB
:1009B00000000000140000000000171A00000000F2
:1009C0000D00000000000000000000000D081500F0
:1009D0000000170B00000000171C00000000170BA0
:1009E0001500000017151C0000000E00000000009C
:1009F0000E11000000000E15000000000E0F000098
:100A0000000007000000000007081900000007159B
:100A10000000000007080F000000071A0000000097
:100A20000708100000000708150000000000000083
:100A30000000090000000000071C0000000009156C
:100A400000000000090F0000000005000000000089
:100A5000051C00000000051500000000050F000047
:100A60000000040000000000041100000000041554
:100A700000000000040F00000000041A0000000045
:100A8000041000000000000000000000040F0F0030
:100A90000000040B00000000041C0000000004150E
:100AA00010000000040F1C000000041A0B000000DE
:100AB000041107000000000000000000040F1000F7
:100AC0000000040600000000041D000000000406F1
:100AD0001500000004060F000000041300000000D1
:100AE00004101000000004131500000004130F0090
:100AF000000004060B0000000406060000000406C7
:100B0000061500000406060F000004130B00000089
:100B100000000000000004130B150000000000009E
:100B20000000041700000000041900000000041772
:100B30001500000004140000000004171700000056
:100B4000040D00000000041717150000040F1A0020
:100B5000000004170B000000041117000000041728
:100B60000B0F0000041117150000040E0000000018
:100B700004060E110000000000000000000000004C
:100B8000000004070000000004071900000004072B
:100B90001500000004061400000004070700000010
:100BA0000407100000000407071500000407070FE2
:100BB0000000040900000000040909000000040905
:100BC0001500000004090F000000040500000000EB
:100BD00004051C00000004051500000004050F00BA
:100BE00000001600000000001611000000001608AA
:100BF00015000000160F00000000161A000000008B
:100C000016100000000000000000000000000000BE
:100C10000000160B00000000161C00000000160B60
:100C200015000000160F1C0000000000000000006E
:100C300000000000000000000000000000000000B4
:100C40000000160600000000161600000000160640
:100C50001500000000000000000016130000000056
:100C600000000000000016131500000016130F000E
:100C7000000016060B00000000000000000000004D
:100C80000000000000000000000016130B00000030
:100C900016131C000000000000000000000000000F
:100CA00000001617000000001619000000001617BB
:100CB000150000001614000000001B0000000000DA
:100CC0000000000000001B150000000016081519A8
:100CD000000000000000000016171C0000000000CB
:100CE000000000001617151C0000160E0000000082
:100CF0001B1C0000000000000000000000000000BD
:100D000000000A00000000000A11000000000A159F
:100D1000000000000A0F000000000A1A0000000096
:100D200000000000000000000000000000000000C3
:100D300000000A0B000000000A1C00000000000078
:100D400000000000000000000000000000000000A3
:100D50000000000000000000000000000000000093
:100D6000000004160000000004111100000004152A
:100D70001500000004160F00000000000000000035
:100D8000041610000000000000000000040F160010
:100D9000000004160B00000004161C0000000000F8
:100DA0000000000000000000000000000000000043
:100DB0000000000000000000000000000000000033
:100DC00000000416060000000416160000000416B9
:100DD00006150000000000000000041613000000CB
:100DE0000413130000000413131500000413130F61
:100DF00000000000000000000000000000000000F3
:100E0000000000000000000000000416130B0000AA
:100E10000416130B1C00000000000000000000007E
:100E2000000004161700000004111900000004154A
:100E300017000000041614000000041B000000004E
:100E400000000000000000000000000000000000A2
:100E500000000416170B0000000000000000000056
:100E60000000000004111708150004160E00000011
:100E70000000000000000000000000000000000072
:100E80000000040A00000000040A11000000040A27
:100E900015000000040A0F000000040A0A00000008
:100EA00004070D000000040A0A150000040A0A0FD6
:100EB0000000040A0B0000000409170000000409E8
:100EC000091500000409090F0000040505000000D1
:100ED00000000000000004050515000000000000EF
:100EE00000000000000000002800000000000000DA
:100EF00000000000000034000000000000002C0092
:100F0000000000000000340050000000000030022B
:100F10000000000000003402000000000000300269
:100F200050000000000034025000000000002702C2
:100F3000000000000000370200000000000027024F
:100F40005000000000003702500000000000300098
:100F50000000000000000000000000000000300061
:100F60005000000000002C0050000000000037007E
:100F700000000000000034003700000000003302D1
:100F800000000000000034003700DB5C000030028D
:100F9000370000000000340237000000000030027B
:100FA0003700DB5C000034023700DB5C0000270206
:100FB0003700000000002502380000000000270272
:100FC0003700DB5C000025023800DB5C00003000ED
:100FD00037000000000000000000000000003000AA
:100FE0003700DB5C0000000000000000000036005D
:100FF00000000000000034003600000000002E0059
:1010000000000000000034003600DB5C000030020D
:1010100036000000000034023600000000003002FC
:101020003600DB5C000034023600DB5C0000270287
:1010300036000000000037023600000000002702E2
:101040003600DB5C000037023600DB5C000030005D
:10105000360000000000000000000000000030002A
:101060003600DB5C000000000000000000003300E0
:1010700000000000000034003300000000003302D4
:1010800033020000000034003300DB5C000030025B
:101090003300000000003402330000000000300282
:1010A0003300DB5C000034023300DB5C000027020D
:1010B00033000000000000000000000000002702D4
:1010C0003300DB5C00000000000000000000300086
:1010D00033000000000000000000000000003000AD
:1010E0003300DB5C0000000000000000000028006E
:1010F00000000000000034002800000000002B0069
:1011000000000000000000000000000000003002AD
:101110002800000000003402280000000000280021
:101120003002DC5C0000000000000000000027022C
:1011300028000000000037022800000000002800FE
:101140002702DC5C0000000000000000000030000E
:10115000280000000000000000000000000028003F
:101160003000DC5C000000000000000000003700E0
:10117000280000000000340037002800000033027F
:101180002800000000000000000000000000300205
:10119000370028000000340237002800000000005B
:1011A0000000000000000000000000000000270216
:1011B0003700280000002502380028000000000049
:1011C00000000000000000000000000000003000EF
:1011D00037002800000000000000000000000000B0
:1011E00000000000000000000000000000003600C9
:1011F00028000000000034003600280000002E0007
:101200002800000000000000000000000000300284
:1012100036002800000034023600280000000000DC
:101220000000000000000000000000000000270295
:1012300036002800000037023600280000004D006C
:101240002800000000000000000000000000300046
:101250003600280000000000000000000000000030
:10126000000000000000000000000000000033004B
:101270002800000000003400330028000000330282
:1012800033022800000000000000000000003002CF
:101290003300280000003402330028000000000062
:1012A0000000000000000000000000000000270215
:1012B00033002800000000000000000000000000D3
:1012C00000000000000000000000000000003000EE
:1012D00033002800000000000000000000000000B3
:1012E00000000000000000000000000000002700D7
:1012F00000000000000000000000000000001E00D0
:1013000000000000000000000000000000000000DD
:1013100000000000000000000000000000000000CD
:1013200000000000000000000000000000001F009E
:10133000000000000000000000000000000020008D
:10134000000000000000000000000000000000009D
:10135000000000000000000000000000000000008D
:10136000000000000000000000000000000000007D
:10137000000000000000000000000000000000006D
:10138000000000000000000000000000000000005D
:10139000000000000000000000000000000000004D
:1013A000000000000000000000000000000000003D
:1013B000000000000000000000000000000000002D
:1013C000000000000000000000000000000000001D
:1013D000000000000000000000000000000000000D
:1013E00000000000000000000000000000002100DC
:1013F00000000000000000000000000000002200CB
:1014000000000000000000000000000000000000DC
:1014100000000000000000000000000000000000CC
:101420000000000000000000000000000000230099
:101430000000000000000000000000000000240088
:10144000000000000000000000000000000000009C
:10145000000000000000000000000000000000008C
:10146000000000000000000000000000000000007C
:10147000000000000000000000000000000000006C
:10148000000000000000000000000000000000005C
:10149000000000000000000000000000000000004C
:1014A000000000000000000000000000000000003C
:1014B000000000000000000000000000000000002C
:1014C000000000000000000000000000000000001C
:1014D000000000000000000000000000000000000C
:1014E00000000000000000000000000000002500D7
:1014F00000000000000000000000000000002600C6
:1015000000000000000000000000000000000000DB
:1015100000000000000000000000000000000000CB
:1015200000000000000000000000000000001E009D
:1015300027000000000000000000000000001E0066
:101540001E0000000000000000000000000000007D
:10155000000000000000000000000000000000008B
:10156000000000000000000000000000000000007B
:10157000000000000000000000000000000000006B
:10158000000000000000000000000000000000005B
:10159000000000000000000000000000000000004B
:1015A000000000000000000000000000000000003B
:1015B000000000000000000000000000000000002B
:1015C000000000000000000000000000000000001B
:1015D000000000000000000000000000000000000B
:1015E00000000000000000000000000000001E00DD
:1015F0001F000000000000000000000000001E00AE
:1016000020000000000000000000000000000000BA
:1016100000000000000000000000000000000000CA
:1016200000000000000000000000000000001E009C
:1016300021000000000000000000000000001E006B
:101640002200000000000000000000000000000078
:10165000000000000000000000000000000000008A
:10166000000000000000000000000000000000007A
:10167000000000000000000000000000000000006A
:10168000000000000000000000000000000000005A
:10169000000000000000000000000000000000004A
:1016A000000000000000000000000000000000003A
:1016B000000000000000000000000000000000002A
:1016C000000000000000000000000000000000001A
:1016D000000000000000000000000000000000000A
:1016E00000000000000000000000000000000000FA
:1016F000000000000000340000000000000037007F
:101700000000000000001E020000000000002F0288
:10171000000000000000340200000000000037025A
:101720000000000000003802000000000000260257
:1017300000000000000036020000000000002D0044
:1017400037020000000036023602000000002F00C1
:101750000000000000000000000000000000370250
:1017600037020000000020020000000000002E02EE
:1017700000000000000035000000000000003502FD
:1017800000000000000000000000000000002E0229
:101790002E020000000000000000000000002402F3
:1017A00000000000000024022402000000003100BC
:1017B00000000000000000000000000000003100F8
:1017C0003100000000001F020000000000000000C7
:1017D0000000000000000000000000000000000009
:1017E00000000000000000000000000000002D00CC
:1017F00000000000000000000000000000002E00BB
:10180000000000000000210200000000000038007D
:10181000000000000000380038000000000026141E
:1018200000000000000038003800380000002D00E3
:101830002D000000000000000000000000002D024C
:101840000000000000002102260200000000380015
:101850002502000000000000000000000000380029
:101860002502250200003800380038003602250223
:101870000000000000000000000000000000310235
:1018800000000000000037002502000000002502D3
:101890003800000000000000000000000000000010
:1018A00000000000000021022F02000000002502BD
:1018B00026020000000000000000000000003102CD
:1018C000310200000000250237002502000022023C
:1018D0000000000000000000000000000000000008
:1018E0000000000000000000000000000000DA5CC2
:1018F00000000000000000000000000000004D0299
:101900004C0000000000000000000000000000008B
:1019100000000000000000000000000000000000C7
:1019200000000000000000000000000000000000B7
:1019300000000000000000000000000000000000A7
:101940000000000000000000000000000000000097
:101950000000000000000000000000000000000087
:101960000000000000000000000000000000000077
:101970000000000000000000000000000000000067
:101980000000000000000000000000000000000057
:101990000000000000000000000000000000000047
:1019A0000000000000000000000000000000000037
:1019B0000000000000000000000000000000000027
:1019C0000000000000000000000000000000000017
:1019D0000000000000000000000000000000000007
:1019E0000000000000000000000000000000DA5CC1
:1019F000DA5C0000000000000000000000000000B1
:101A000000000000000000000000000000000000D6
:101A100000000000000000000000000000000000C6
:101A200000000000000000000000000000004A026A
:101A30004C000000000000000000000000004A0010
:101A40004D024C00000000000000000000000000FB
:101A50000000000000000000000000000000000086
:101A6000000000000000000000000000000025024F
:101A7000250200000000000000000000000000003F
:101A80000000000000000000000000000000000056
:101A90000000000000000000000000000000000046
:101AA0000000000000000000000000000000000036
:101AB0000000000000000000000000000000000026
:101AC0000000000000000000000000000000000016
:101AD0000000000000000000000000000000000006
:101AE00000000000000000000000000000002700CF
:101AF00000000000000000000000000000001E00C8
:101B000000000000000029000000000000002F027B
:101B1000270000000000000000000000000000009E
:101B200000000000000000000000000000001F0096
:101B30000000000000000000000000000000200085
:101B400000000000000000000000000000002F0066
:101B5000270000000000000000000000000000005E
:101B60000000000000000000000000000000000075
:101B70000000000000000000000000000000000065
:101B80000000000000000000000000000000000055
:101B90000000000000000000000000000000000045
:101BA000000000000000000000000000000026020D
:101BB00027000000000000000000000000000000FE
:101BC0000000000000000000000000000000000015
:101BD0000000000000000000000000000000000005
:101BE00000000000000000000000000000002100D4
:101BF00000000000000000000000000000002200C3
:101C000000000000000000000000000000000000D4
:101C100000000000000000000000000000000000C4
:101C20000000000000000000000000000000230091
:101C30000000000000000000000000000000240080
:101C40000000000000000000000000000000000094
:101C50000000000000000000000000000000000084
:101C60000000000000000000000000000000000074
:101C70000000000000000000000000000000000064
:101C80000000000000000000000000000000000054
:101C90000000000000000000000000000000000044
:101CA0000000000000000000000000000000000034
:101CB0000000000000000000000000000000000024
:101CC0000000000000000000000000000000000014
:101CD0000000000000000000000000000000000004
:101CE00000000000000000000000000000002500CF
:101CF00000000000000000000000000000002600BE
:101D000000000000000000000000000000000000D3
:101D100000000000000000000000000000000000C3
:101D200000000000000000000000000000001E0095
:101D300027000000000000000000000000001E005E
:101D40001E00000000000000000000000000000075
:101D50000000000000000000000000000000000083
:101D60000000000000000000000000000000000073
:101D70000000000000000000000000000000000063
:101D80000000000000000000000000000000000053
:101D90000000000000000000000000000000000043
:101DA0000000000000000000000000000000000033
:101DB0000000000000000000000000000000000023
:101DC0000000000000000000000000000000000013
:101DD0000000000000000000000000000000000003
:101DE00000000000000000000000000000001E00D5
:101DF0001F000000000000000000000000001E00A6
:101E000020000000000000000000000000000000B2
:101E100000000000000000000000000000000000C2
:101E200000000000000000000000000000001E0094
:101E300021000000000000000000000000001E0063
:101E40002200000000000000000000000000000070
:101E50000000000000000000000000000000000082
:101E60000000000000000000000000000000000072
:101E70000000000000000000000000000000000062
:101E80000000000000000000000000000000000052
:101E90000000000000000000000000000000000042
:101EA0000000000000000000000000000000000032
:101EB0000000000000000000000000000000000022
:101EC0000000000000000000000000000000000012
:101ED0000000000000000000000000000000000002
:101EE00000000000000000000000000000000000F2
:101EF00000000000080015000000080015000000A8
:101F00000C0011000A000800150000000C00110070
:101F10000A000C0011000A00340010000000340018
:101F2000160000003400070000003400190008000B
:101F300034001500080034000F000F0000000000FE
:101F4000000011003400170000000000000007002E
:101F50000000000000000000000000000000000081
:101F60000000000000000000000000000000000071
:101F700000001100340017000000000000000700FE
:101F80000000000000000000000000000000000051
:101F90000000000000000000000000000000000041
:101FA0000000000000000000000000000000000031
:101FB000CF5CCF5CD15CCF5CD15CD15CD25CD55CBA
:101FC000CE5CD05C0000D25C000000000000CF5C62
:101FD0000000000000000000000000000000D65CCF
:101FE0000000000000000000000000000000CF5CC6
:101FF00000000000000000000000000000000000E1
:102000000000000000000000000000000000CF5CA5
:1020100000000000000000000000000000000000C0
:10202000000000000000000000000000000024028A
:1020300021022B00D75CE00000002F0014000400F8
:102040001D00240200002F021A0015001B00E200F0
:102050002A0030020900160006005200280026025D
:10206000130017001900510046002E000A00070057
:10207000050000000351E3004900000029000000B2
:10208000035301532A0000002800000003532502D7
:102090000D000B000E000000035127020F0011007D
:1020A0001000500000002E021800080036004F00FB
:1020B0002C0030001C000C00370031004C001E02C8
:1020C0003300120034001F020000200238002D00EF
:1020D000D75CE40000003A002B00E200E100E000E1
:1020E00000003B0000002900CD5CCD5CCD5C3C00D5
:1020F0000000CD5CCD5CCD5CCD5C3D00CD5CCD5CAD
:10210000CD5C0100CD5C3E00CD5CCD5CCD5C0100C2
:10211000CD5C3F00CD5CCD5CCD5C0000CD5CE300D0
:10212000CD5C0000CD5C0000CD5C0100CD5C00000A
:10213000CD5C0000CD5C4000CD5CCD5CCD5C000092
:10214000CD5C4100CD5CCD5CCD5C0100CD5C42003E
:10215000CD5CCD5CCD5C0100CD5C43000000CD5C6E
:10216000CD5CCD5CCD5C44004C00CD5CCD5CCD5CE9
:10217000CD5C45002A00E600E500E4000000010017
:1021800035000100010001000000D85C01000100E1
:10219000010022000100D85C0100010001000100E3
:1021A0000100D85C01000100010001000100D85CC1
:1021B00001000100010001000100D85C01000100E4
:1021C00001000000010022000100000001000000E9
:1021D0000100010001000000010000000100D85CC6
:1021E00001000100010000000100D85C01000100B5
:1021F000010001000100D85C0100010001000100A4
:102200000100D85C01000100010001000100D85C60
:10221000010001000100D85C0100D85C0100010050
:102220000100010000003A0001000100E10001008E
:1022300000003B00010001000100010001003C0022
:10224000010001000100010001003D00010001004A
:1022500001004B0001003E000100010001004E00A2
:1022600001003F0001000100010000000100005CCE
:10227000010000000100000001000000010000005A
:102280000100000001004000010001000100000009
:10229000010041000100010001004A00010042006C
:1022A0000100010001004D00010043000100010098
:1022B00001000100010044000100010001000100D3
:1022C0000100450001000100E500010000000000E0
:1022D00000000000000000000000000000000000FE
:1022E00000000000000000000000000000000000EE
:1022F0000000140000801500008032000080000003
:10230000000000000000130000802600008027006D
:1023100000803000008000000000120000802400D7
:102320000080250000800000000001000080000007
:1023300000001100008022000080230000800000C7
:10234000000031000080000000001000008020002C
:1023500000802100008000000000000000800000DC
:1023600000007000008000000000000000800000FD
:10237000000000000080000000000300008000005A
:10238000000003000080000000000000008000004A
:1023900000006000008040000080410000800000DC
:1023A000000000000080000000006100008042008A
:1023B0000080430000800000000033000080000027
:1023C00000006200008044000080450000800000A2
:1023D0000000020000800000000000000000630018
:1023E000008046000080470000803500008000002B
:1023F00000000000000064000080500000805100D8
:102400000080340000800000000000000000000098
:1024100000000000000000000000000000001603A3
:102420004500720067006F0044006F0078002000D4
:1024300045005A00000016034500720067006F0057
:1024400044006F007800200045005A00000004039B
:10245000090409023B00020100A0FA09040000017E
:10246000030101000921110100012240000705813B
:102470000308000A090401000103000000092111FA
:10248000010001223900070582032000011201101A
:102490000100000008EDFE07130100010200010524
:1024A000010906A101050719E029E7150025019595
:1024B0000875018102050819012905950575019125
:1024C000029501750391010507190029F7150025EB
:1024D0000195F875018102C005010906A1010507F2
:1024E00019E029E71500250195087501810295017C
:1024F00075088101050819012905950575019102E5
:102500009501750391010507190029FF150026FFA4
:1025100000950675088100C011241FBECFEFDAE0D8
:10252000DEBFCDBF04B603FE27C080913209909173
:102530003309A0913409B09135098730904BA740F9
:10254000B04BD1F410923209109233091092340931
:102550001092350914BE84B7877F84BF0FB6F894F4
:10256000A89580916000886180936000109260005F
:102570000FBEE0E0FFE3099511E0A0E0B1E0EEEB73
:10258000F8E602C005900D92A237B107D9F729E00D
:10259000A2E7B1E001C01D92A233B207E1F70E94A9
:1025A000BB2E0C945D340C9400001092B9008AE0AC
:1025B0008093B800089594EA9093BC009091BC0079
:1025C00097FFFCCF9091B900987F983021F090311F
:1025D00011F081E008958093BB0084E88093BC00F3
:1025E0008091BC0087FFFCCF8091B900887F883143
:1025F00011F0803471F780E0089584E98093BC0085
:102600008091BC0084FDFCCF08958093BB0084E8DA
:102610008093BC008091BC0087FFFCCF9091B900F3
:10262000987F81E0983209F480E0089584E88093EF
:10263000BC008091BC0087FFFCCF8091BB00089557
:1026400080B38C7080BB81B3836F81BB0895809110
:102650003401811115C080E40E94DB1280933401A3
:1026600081110CC082E10E94051380933401811115
:1026700005C08FEF0E940513809334010E94FD1264
:1026800084B1807F84B985B1807F85B98AB1837F29
:102690008AB98BB1837F8BB93E9846980895089587
:1026A0000C944F130C94101B0E94BC1F8093340198
:1026B0000E9427130E942013E7ECF1E083E791E0EA
:1026C0001192DC0126E01D922150E9F7069621E0E7
:1026D000873C9207A9F70C94941C0E94BC1F80931E
:1026E00034010E9427130E942013E7ECF1E01192BD
:1026F00081E0E53DF807D9F7089526E0829FC00103
:102700001124FC01ED58FE4F20E030E080E041E074
:1027100050E09081992319F09150908307C0BA013D
:10272000022E01C0660F0A94EAF7862B2F5F3F4FF7
:1027300031962630310569F7089596E0699FB0011A
:10274000112420E030E090E04FE0FC01022E02C0B6
:10275000F595E7950A94E2F7E0FF06C0FB01E20F6A
:10276000F31FED58FE4F40832F5F3F4F263031055A
:1027700061F708959F92AF92CF92DF92EF92FF920E
:102780000F931F93CF93DF9380913401882379F0C7
:10279000809172018F5F80937201811108C00E9445
:1027A000BC1F80933401811102C00E944E1F87EC30
:1027B000E82E81E0F82E00E010E0CC24C394D12C68
:1027C000AA24A394D02F073000F580913401811101
:1027D0003CC080E40E94DB1280933401811112C05E
:1027E00082E10E9405138093340181110BC0C60160
:1027F000002E01C0880F0A94EAF780950E94051305
:10280000809334010E94FD1220C00A30A1F028F408
:10281000083059F0093061F005C00C3089F070F0D3
:102820000D3089F0209A289810C0219A29980DC05F
:10283000229A2A980AC0239A2B9807C0529A01C05C
:10284000539A5B9802C03E9A469880EA8A95F1F7BF
:102850008D2F0E947D13982ED73018F5809134016A
:10286000811144C080E40E94DB12809334018823EC
:1028700011F0C0E012C083E10E940513809334017F
:102880008111F7CF81E40E94DB1280933401811122
:10289000F0CF0E941613C82FC0950E94FD129C2FE6
:1028A00026C08FB181708A25799902C092E001C05B
:1028B00090E0982B7C9902C044E001C040E0942B4A
:1028C0007D9902C038E001C030E0932B7E9902C0B0
:1028D00020E101C020E0922B8FB18095881F8827CE
:1028E000881F8295880F807E982B01C090E0F701A9
:1028F0008081C92DC095C8239921C92B6D2F8C27A4
:102900000E949D13F701C1937F010E9427130F5F5F
:102910001F4F0E30110509F055CF0E94961C81E023
:10292000DF91CF911F910F91FF90EF90DF90CF90AB
:10293000AF909F900895E82FF0E0E953FE4F80811B
:1029400008950895FC0192819F7081E009F480E070
:102950000895CF93DF93FC01A62FB0E08081982FDC
:102960009770292F30E026303105C4F56623B1F188
:102970002F5F3F4FE901CC0FDD1FCE0FDF1F4881D6
:102980004F7001F5220F331FE20FF31F6F7080812C
:10299000807F682B962F92959F702181822F837064
:1029A0008295807F892B8F5F982F9F738295807F80
:1029B0006F70862B808392959F70822F8C7F892BDE
:1029C00081830CC050E04A175B07E1F29F5F292F1B
:1029D0002770982F987F922B9083C0CFDF91CF9153
:1029E0000895CF936D3459F020F4683261F4C4E057
:1029F0000BC0603531F0623531F4C3E005C0C0E092
:102A000003C0C2E001C0C1E06C2F0E94A9148C2F4A
:102A1000CF910895DC0120E030E080E02F5F3F4F50
:102A2000F901EE0FFF1FEA0FFB1F9081492F4F7036
:102A3000461309C092959F70418143704295407F33
:102A4000942B890F02C0442319F02630310531F749
:102A500008958091600790916107A0916207B091FD
:102A60006307892B8A2B8B2B69F481E040915C07EB
:102A700050915D0760915E0770915F07452B462B73
:102A8000472B09F080E0817008951F93CF93DF9367
:102A9000C82F162F0E94D62AD82F8C2FC4FF02C011
:102AA0008295807F0E94E62A812F0E9432218D2FFD
:102AB000DF91CF911F910C94E62A10926407E5E60E
:102AC000F7E0108212821182339688E0E532F8072F
:102AD000C1F7089590916407E92FF0E09F01220F5C
:102AE000331FE20FF31FEB59F84F8083728361832A
:102AF0009F5F9093640708952F923F924F925F9249
:102B00006F927F928F929F92AF92BF92CF92DF92FD
:102B1000EF92FF920F931F93CF93DF93CDB7DEB762
:102B20006B970FB6F894DEBF0FBECDBF0E945D1548
:102B30000E94D62A8E8B82E10E94DF2A80911001AA
:102B40008D5C8770880F880F880F809311098091A2
:102B500012098E7F8093120980E090E00196FC01BB
:102B6000EE0FFF1FEF5EF64F108221812C7F218335
:102B70008630910599F78091D50181508B8787FF29
:102B800002C023E62B873B85232E330F3308809129
:102B90005407982F9170592EA82FA4709A2E282F81
:102BA000227081FF03C0AA2339F002C0AA2331F0AA
:102BB00091E0222321F002C091E001C090E09170E9
:102BC0009F8BB82FB8704B2EE0915707ED8B867016
:102BD000863011F4852D02C080E090E0F82FF1706E
:102BE0008F2E2D8921110CC0552051F020915607B0
:102BF000211104C020915807222311F081E090E0B8
:102C0000182F117051F09091550780915A07892B18
:102C100087708093550710925A078820B9F08091E9
:102C20005507882319F088608093550710924E0746
:102C30008EEE96E19093500780934F0710925107C4
:102C40008EEE9EE090935307809352078EE0829D14
:102C5000F001839DF00D1124EA52FE4F8081982FE0
:102C6000929596959695937081818170880F880FC3
:102C7000892B39F090E08353934A9093110180930C
:102C8000100184E597E0988B8F87A4E1B1E0BD87C0
:102C9000AC879C8B8B8B1A8A198AA12CB12CF1E002
:102CA000FE87AB89BC89ED90BC8BAB8BE989FA8937
:102CB0003196FA8BE98BEE2009F42AC1AC85BD85EB
:102CC0006D907C90119713960C91139712968C919E
:102CD000B1E0BE87A114B10409F01E86E3E0AE1690
:102CE000B104A1F45110ACC3992009F4ADC3909183
:102CF00056079111A9C3909158079111A5C32FECC4
:102D00003CE530931101209310019EC332E0A316DD
:102D1000B10489F4112309F497C3882009F464C02D
:102D2000E0924E072FEFA21AB20A8C859D85049679
:102D30009D878C87B6CF94E0A916B10449F411237E
:102D400009F482C3882009F48FC3E0925107EACFC7
:102D50006114710409F4DCC0023049F020F4013040
:102D600009F44CC0D5C0053008F0D2C047C0A82F28
:102D7000B0E0B98FA88FE89EF0011124FB8FEA8F95
:102D8000C12CD12CA88DB98DCA16DB060CF0C0C0A1
:102D9000EA8DFB8DEC0DFD1DE60DF71D0491002362
:102DA00009F4B6C0E02EF12CB70182E00E946A154A
:102DB000043141F4FD89FF2329F068E170E082E0ED
:102DC0000E946A152F89222359F034E0A316B1041A
:102DD00039F4C114D10421F4B70182E00E946A15CC
:102DE0008FEFC81AD80ACECF2EEE622E26E1722EB1
:102DF0006114710409F496CF84E004E0C82ED12C4C
:102E0000F12CEE0CFF1CEC9CC001ED9C900DFC9C89
:102E1000900D1124680E791EE12CF12CEC14FD04A8
:102E20000CF076C0F301659174916115710509F498
:102E30006FC0013009F062C0B1E0AB16B10409F017
:102E400060C02091100130911101653DECE57E07D5
:102E500089F0663DFCE57F07F1F4E4EDFCE5F093D5
:102E60001301E093120180ED9CE590931101809392
:102E7000100124C083ED9CE590931301809312010F
:102E8000AEECBCE5B0931101A093100110924E0777
:102E90001092510713C0CB018E5C9C45059728F416
:102EA000709311016093100109C0CB01835D9C45B3
:102EB000029720F47093130160931201112309F11A
:102EC00081101FC0809110018D5C482F4295440FE6
:102ED000440F407C909111099F73942B909311099A
:102EE00082FB992790F9809112098E7F892B80931C
:102EF0001209309311012093100103C0802F0E940A
:102F00006A159FEFE91AF90AA2E06A0E711C86CFD2
:102F1000E989FA89389709F005CF209164072111D2
:102F200010C041100CC080911001909111018F3C94
:102F30009C4508F44BC082E00E94D92A47C051103A
:102F4000F2CF8091120190911301833D3CE59307EC
:102F500049F0843D9C4509F47CC2222321F3E12CF5
:102F6000F12C06C0222309F412C20CE2E02EF12C4F
:102F7000912C80916607909167078833910560F4E2
:102F80008633910500F58832910560F08A3291050B
:102F9000D0F0C39739F417C08A349105A1F08D346D
:102FA000910589F0112331F080915507882311F0A4
:102FB000882049F0E114F10431F0442009F4EFC114
:102FC000222309F4EAC1992009F4ADCFE12CF12CB8
:102FD0009E012F5F3F4F3901E0E58E2E912C5E015F
:102FE0003BE0A30EB11C80916407E81608F0B3C063
:102FF0000E2D10E0C801880F991F080F191F0B59DB
:10300000184FD8018C91833099F0843079F1823057
:1030100009F087C011968C910E943221F8018181BC
:103020000E940E2261E081E199E00E94A9141CC077
:10303000D8011196DC90119712968C919CEF9D0D02
:103040009A3120F48D2D0E94322103C06D2D0E94F3
:1030500045158D2D0E940E226D2D81E199E00E9473
:10306000F114813009F05DC0F3945BC0F3012AE0F4
:1030700011922A95E9F7D80111960D911C9112979A
:103080000B3DBCE51B0791F00C3DECE51E0799F0EC
:103090000A3DFCE51F07E1F420E533E03A8329838C
:1030A0008AE290E09C838B83630134C09A82898298
:1030B0009C828B82F9CFA2E5B0E0BA83A983EDE4CC
:1030C000F0E0FC83EB8328E230E03E832D83ECCFFD
:1030D000602F812F0E944515802F0E940E22602FA5
:1030E00081E199E00E94F1148130F1F6F394DCCF94
:1030F000602F812F0E944515802F0E940E22602F85
:1031000081E199E00E94F114813009F4F394AC1448
:10311000BD0439F0D6010D911D916D010115110508
:1031200039F7B1E0FB1215C08091100190911101A7
:103130008F3CECE59E0721F0803D9C4539F009C0AD
:103140002EEC3CE5309311012093100182E00E94A7
:10315000DF2AE39448CFFF2081F080911001909105
:103160001101813D9C4549F48EEC9CE59093110141
:103170008093100182E00E94DF2A81E199E00E94A1
:10318000A2148823C9F08091D501843611F41092DD
:10319000D5012091D50181E0820F8093D5013EE0D9
:1031A0002303D0011124AA52BE4FE1E1F9E00190BE
:1031B0000D923A95E1F7DFC0552009F4DCC08EE0AE
:1031C000829D8001839D100D11240A521E4FC8015B
:1031D0000E94A214882309F4C6C0442009F43FC009
:1031E0008AE20E9432218AE20E940E22D8012C91AA
:1031F000277030E087E0829DA001839D500D11244F
:10320000FA01E20FF31FEE0FFF1FE852FE4F80811D
:10321000982F9F709130B1F482958F702181922FF9
:1032200093709295907F892B815C982F9F738295E4
:10323000807F8160808392959F70822F8C7F892B05
:10324000818303C021503109D8F661E0C8010E9492
:103250000A15811190C0EB85E093D5018CC0FE85E5
:10326000FF2309F488C0D8010C91077010E087E0B3
:10327000829D5001839DB00C1124C12CD12C75016D
:10328000E00EF11EC701880F991F9C0128523E4F86
:103290007901F7018081982F92959F702181237089
:1032A0002295207F292B30E0C216D306ACF58F7013
:1032B000823019F138F4813059F58AE20E943221C6
:1032C0008AE224C08330F1F0843011F581EE0E944F
:1032D000322182E50E94322182E50E940E228DE495
:1032E0000E9432218DE40E940E2281EE0E940E2265
:1032F0008CE40E9432218CE409C08FE40E943221C8
:103300008FE404C081E50E94322181E50E940E22F3
:10331000BFEFCB1ADB0ABDCF0150110908F0ADCFCA
:103320008EE0829DF001839DF00D1124EA52FE4F44
:103330008081282F22952695269523709181917062
:10334000990F990F922B59F08695869586958770DF
:1033500090E08353934A90931101809310013B8531
:103360003093D50108C0442031F08AE20E94322116
:103370008AE20E940E228E890E94E62AAF85B889D1
:103380001D92B88BAF87AC55B740C1F772C0912C76
:103390008CE2E82EF12C442011F0511014CE8091D3
:1033A0004E07811110C08091510781110CC06E2D04
:1033B0000E9445158E2D0E940E2261E081E199E068
:1033C0000E94A91400CE8110FECD0EE417E0B4E5F2
:1033D000AB2EB7E0BB2EF8018081811106C00D5FD6
:1033E0001F4FA016B106B9F7EECDC12CD12CD801D4
:1033F0008C911196ED91FC911297B8E08B9FE00DA6
:10340000F11D1124C601880F991FE80FF91FE590DF
:10341000F490E114F10419F36E2D8F2D0E944515DF
:103420008E2D0E940E226E2D81E199E00E94F114F2
:10343000EFEFCE1ADE0AF4E0CF16D104C1F6CFCFFB
:1034400032E6632E37E0732E6114710409F084CCE8
:1034500069CC99249394411001C0912C222309F442
:10346000B2CDE12CF12C85CD9EEE692E9EE0792E19
:10347000BFCC6B960FB6F894DEBF0FBECDBFDF9109
:10348000CF911F910F91FF90EF90DF90CF90BF9061
:10349000AF909F908F907F906F905F904F903F90F4
:1034A0002F900895CF92DF92EF92FF920F931F9388
:1034B000CF93DF93EB01873D0CE5900709F475C0CE
:1034C000883D1CE5910709F486C08D3C9C4509F0B8
:1034D0009CC08981E881F0E096E0899FE00DF11DB4
:1034E0001124EE0FFF1FEE0FFF1FE253FD4D8591DC
:1034F0009591A591B491B7FF66C09C012F703327B9
:1035000041E050E060E070E004C0440F551F661FCA
:10351000771F2A95D2F724E0B695A79597958795BA
:103520002A95D1F78F70282F30E0D901AE5BBE4FBE
:10353000F901EE0FFF1FE050FF4F0190F081E02DE9
:10354000CA817A018B010C9004C0EE0CFF1C001F95
:10355000111F0A94D2F7D801C701C080D180E28040
:10356000F380CC2379F08C299D29AE29BF29808353
:103570009183A283B383F901EC5AF84F8081482BE1
:10358000408321C080959095A095B0958C219D2178
:10359000AE21BF2180839183A283B3830E9429152A
:1035A000882389F00E947C1531C08981882311F01D
:1035B00085EE01C081EECA81CC2339F00E94322110
:1035C00082E00E940029C0E021C00E940E2282E019
:1035D0000E9421291BC06881798180E00E94A11C82
:1035E00064E170E00E940D34FC01EE0FFF1FE65B0A
:1035F000FE4F60818181CA81CC2319F00E9445155C
:10360000E2CF862F0E940E2201C0C1E08C2FDF91F5
:10361000CF911F910F91FF90EF90DF90CF90089581
:103620006091BF087091C0088091C1089091C20854
:103630000E94122B25982D9826982E9827982F981F
:10364000813029F0833029F4269A2E9A02C0259AD7
:103650002D9A0E942915811102C0279A2F9A089548
:1036600081E008950C94521A0E94A7242FEF84E35E
:103670009CE0215080409040E1F700C000000C9495
:10368000E82CFF920F931F93CF93DF938C01FC01E3
:10369000C081D18180914F08811113C0828188231C
:1036A00049F0CE010E94F729F82E682FCE010E9422
:1036B0009E2904C0CE010E94CA29F82EBE018F2D7A
:1036C00004C0CE010E94F729BE010E94A11CEC019A
:1036D000B8010E94321B882309F41FC1B801CE0132
:1036E0000E94FF1E882309F418C1C531FCE5DF07DD
:1036F00009F5F8018281811103C0CBE6DAE202C04C
:10370000C4E6DAE20E94D62A8A7A11F489E201C07C
:1037100085E3FE0109950E94A32A81E08093290890
:1037200080932A08C801DF91CF911F910F91FF90DC
:103730000C94301BC6318CE5D80708F071C0C1303D
:10374000ECE5DE0759F4F8018281882309F4E5C02D
:103750008091EC0881608093EC08DFC0C230FCE50A
:10376000DF0708F451C0F80182818823D9F20E9452
:103770007C2B811102C00E94622B0E948F2B90E053
:103780009093240980932309FE01E350FC45E23124
:10379000F10530F4EA5AFF4F809123090C9421344B
:1037A00080912309816027C0826025C0846023C086
:1037B000806121C080621FC080641DC080681BC002
:1037C0008460886018C08E7F16C08D7F14C08B7F88
:1037D00012C08F7E10C08F7D0EC08F7B0CC08F7784
:1037E0000AC08B7F877F07C087FB222720F991E0E3
:1037F000922790FB87F980932309809123090E94E7
:10380000932B0E94A72489C0C115DC4509F085CF00
:10381000F8018281882309F480C00E94341B7DC096
:10382000C83CECE5DE0781F5F8018281882361F070
:1038300010922A080E948C2C9093280880932708C5
:1038400080E20E946D2269C00E94D62A81FF05C0D5
:1038500081E08093290880932A0880912A088111A9
:103860000FC080912708909128080E94982C883CCE
:10387000910530F487E20E94322187E20E940E22F5
:1038800080E20E94742249C0C93CFCE5DF0780F554
:10389000C73CDC4509F041CFF8018281882351F013
:1038A000109229080E948C2C90932608809325085A
:1038B00082E0C7CF0E94D62A85FF05C081E08093B1
:1038C000290880932A088091290881110FC08091CE
:1038D0002508909126080E94982C883C910530F488
:1038E00086E20E94322186E20E940E2282E0C9CF47
:1038F000CB3CECE5DE0731F4F8018281882369F0E6
:1039000080E009C0CC3CDC4509F007CFF80182819A
:10391000882319F082E00E944C2F80E0DF91CF9144
:103920001F910F91FF9008950C94A61F0C945213B1
:1039300008950C94981C0C94991C80E090E00895D4
:10394000089524E5829FC0011124FC0126E0729FA6
:10395000E00DF11D1124E60FF11DEE0FFF1FE25DDA
:10396000FF4D859194910895880F991FFC01E25DA8
:10397000FF4D859194910895CF93DF930E94A11CF0
:103980000E94561EEC01811520E49207B8F58115BE
:1039900040E3940708F0E3C0803E9105D0F4803CFA
:1039A000910508F071C0883A910570F4853A910547
:1039B00008F06DC08130910509F474C108F42BC181
:1039C000049708F06FC127C18D3B910508F46AC0C8
:1039D00022C18F3F910509F048F4803F910508F01E
:1039E000B8C0883E910508F45DC115C1C11580E2DB
:1039F000D80708F457C1CE019F70ADC0811524E5EA
:103A00009207D8F4811543E5940708F0E4C0C11586
:103A100081E5D80740F4C11520E5D20708F0A8C019
:103A2000DF70D06A3FC1C11542E5D40708F0BDC0C0
:103A3000DC2FCC27C16FD06A35C1C11586E5D80708
:103A400050F4C11525E5D20708F0DAC0DC2FCC27E9
:103A5000C46FD06A27C1C11548E5D40708F4DBC09C
:103A6000C11589E5D80708F4D1C0CE01905681155B
:103A7000904208F0D0C08D2F8F710E94D21EDD279A
:103A8000D0628F71D82B0EC1805C910964C0853AD9
:103A9000910509F4C3C0863A910509F0C2C0C2E895
:103AA000D0E400C1883A910509F4BEC0893A910575
:103AB00009F4BDC08A3A910509F4BCC08B3A91055E
:103AC00009F4BBC08C3A910509F4BAC08B3B91054F
:103AD00009F4B9C08C3B910509F4B8C08D3A910541
:103AE00009F4B7C0803B910509F4B6C08E3A910540
:103AF00009F4B5C08F3A910509F4B4C0813B910532
:103B000009F4B3C0823B910509F4B2C0833B91052F
:103B100009F4B1C0843B910509F4B0C0853B91051F
:103B200009F4AFC0863B910509F4AEC0873B91050F
:103B300009F4ADC0883B910509F4ACC0893B9105FF
:103B400009F4ABC08A3B910509F4AAC0C0E0D4E4F3
:103B5000A9C0D065A7C00E94B41CEC01A3C09927DE
:103B6000D3FF03C0EC01D86C9DC0EC01D06C9AC0AF
:103B7000CE0144E0969587954A95E1F7282F23706A
:103B80003C2F337081E090E002C0880F991F3A9576
:103B9000E2F79C68922BCF70C695C69540E2C49F11
:103BA000E0011124C82BD92B7DC0CE018370992749
:103BB00021E030E002C0220F331F8A95E2F78C2FFC
:103BC0008695869540E2849FC0011124E901C82BA7
:103BD000D92BDC6867C08370992721E030E002C0F0
:103BE000220F331F8A95E2F78C2F8695869540E247
:103BF000849FC0011124E901C82BD92BDA6852C077
:103C0000CF71DD27DC2FCC27D0624CC0DC2FCC2736
:103C1000C06FD06A47C0C0E0D0E044C0C1E8D0E483
:103C200041C0C3E8D0E43EC0C2EED4E43BC0C9EE1C
:103C3000D4E438C0CAEED4E435C0C5EBD4E432C015
:103C4000C6EBD4E42FC0C3EBD4E42CC0C4EBD4E463
:103C500029C0C7EBD4E426C0CCECD4E423C0CDEC1F
:103C6000D4E420C0C3E8D5E41DC0CAE8D5E41AC036
:103C7000C2E9D5E417C0C4E9D5E414C0C1E2D6E472
:103C800011C0C3E2D6E40EC0C4E2D6E40BC0C5E264
:103C9000D6E408C0C6E2D6E405C0C7E2D6E402C056
:103CA000CAE2D6E4CE01DF91CF9108958238910522
:103CB00049F1B0F48133910509F459C048F48932CF
:103CC000910509F44FC08A32910509F455C0089551
:103CD0008533910509F441C08933910599F0089520
:103CE000833E910531F138F4803E910591F0823E9A
:103CF0009105A9F00895863E910501F1873E910551
:103D000039F108952091230920FD3BC021FD39C0E0
:103D100008958091230980FF34C089E341C08091D8
:103D2000230982FF30C08091230984FD2EC083EED9
:103D300037C08091230982FD26C0F5CF80912309E9
:103D400083FF25C08091230984FD1FC087EE28C012
:103D50008091230983FD1BC0F5CF8091230985FD48
:103D600018C019C08091230985FD15C012C080912B
:103D7000230986FD12C013C08091230986FD0FC060
:103D80000CC080EE0DC082EE0BC080E009C086EE54
:103D900007C089E205C085E303C08AE201C081E370
:103DA00090E00895CF93C82F0E948F2B90E09093BE
:103DB00024098093230982FF0DC09C2F98719830AD
:103DC00019F4C77FC46006C09C2F9471943011F41D
:103DD000CB7FC86083FF0DC09C2F9871983119F478
:103DE000C77EC46106C09C2F9471943111F4CB7EC0
:103DF000C86184FDC77E8C2FCF91089508950F93DD
:103E00001F93CF93FB012281211102C0C1E041C069
:103E10008C01C0913808C11125C086319C45B1F78D
:103E20000E94FE1E81E0809338080E948C2C9093A3
:103E300037088093360810922B0810922D081092A4
:103E40002C0810922F0810922E0810923108109210
:103E500030081092330810923208109235081092F0
:103E6000340817C080913608909137080E94982C2A
:103E7000883C910558F690912B08E92FF0E0EE0F61
:103E8000FF1FE45DF74F118300839F5F90932B0822
:103E9000C0E08C2FCF911F910F91089556985E9896
:103EA00025982D9826982E9827982F988FEF90E098
:103EB000909389008093880090938B0080938A0070
:103EC00090938D0080938C00259A2D9A2FEF80E798
:103ED00092E0215080409040E1F700C00000269A17
:103EE0002E9A2FEF80E792E0215080409040E1F73A
:103EF00000C00000279A2F9A2FEF80E792E0215010
:103F000080409040E1F700C0000025982D982FEFE9
:103F100080E792E0215080409040E1F700C000002F
:103F200026982E982FEF80E792E021508040904015
:103F3000E1F700C0000027982F9856985E982598C2
:103F40002D9826982E9827982F98089589EA80937F
:103F5000800089E08093810024982C983F988AB152
:103F60008F7C8AB96E98479A8BB180638BB9769AA9
:103F70000E944E1F0C94501380E280933401809174
:103F8000390881110EC00E94D51281E08093390852
:103F90002FEF83ED90E3215080409040E1F700C087
:103FA000000080E40E94DB128093340181112EC056
:103FB0000E94051380933401811128C00E940513CB
:103FC00080933401811122C08FE30E9405138093F6
:103FD000340181111BC00E94FD1280E40E94DB129B
:103FE00080933401811112C08CE00E9405138093EC
:103FF000340181110BC00E9405138093340181119B
:1040000005C08FE30E940513809334010E94FD12C6
:1040100080913401089590933F0880933E0808955D
:10402000E0913E08F0913F08309721F00190F08137
:10403000E02D099480E00895E0913E08F0913F085A
:10404000309721F00280F381E02D099408952091AA
:104050003C0830913D082817390771F090933D08CE
:1040600080933C08E0913E08F0913F08309721F0A2
:104070000680F781E02D0994089520913A08309147
:104080003B082817390771F090933B0880933A0852
:10409000E0913E08F0913F08309721F00084F185CF
:1040A000E02D0994089508950C9453200E94832CC8
:1040B0000E9454130E940A2DE3E2F9E08081806897
:1040C00080830895BF92CF92DF92EF92FF920F9379
:1040D0001F93CF93DF93CDB7DEB72A970FB6F8942F
:1040E000DEBF0FBECDBF0E94BA1381E4C82E88E0A8
:1040F000D82E00E010E0B02E802F0E949B14E82EF6
:10410000F60121916F01F82EF226B1F40F5F1F4FD7
:104110000E30110581F78FEF89838A831B820E94FD
:104120008C2C8160782F9D838C8349815A816B818F
:104130008D810E9404213DC08091EC0881FD0E9488
:10414000A11480E090E02F2D30E0482FB901082E17
:1041500002C0759567950A94E2F760FF25C08E83CB
:10416000BF8281E090E06C0102C0CC0CDD1C4A955E
:10417000E2F72E2D30E02C213D21232B09F480E0A5
:1041800088870E948C2C8160782F9A8789874E813E
:104190005F8168858A850E940421F801EF5BF74FF3
:1041A00080818C25808305C001968630910569F653
:1041B000ADCF0E941020909140088917A9F00E946D
:1041C0001020809340082A960FB6F894DEBF0FBEE9
:1041D000CDBFDF91CF911F910F91FF90EF90DF90B6
:1041E000CF90BF900C949B1C2A960FB6F894DEBF1C
:1041F0000FBECDBFDF91CF911F910F91FF90EF9038
:10420000DF90CF90BF900895CF93DF93CDB7DEB707
:104210002B970FB6F894DEBF0FBECDBF4F835887E4
:1042200069877A878B87DE01119686E0FD011192FE
:104230008A95E9F785E0FE01379601900D928A95FF
:10424000E1F749815A816B817C818D819E810E9439
:1042500067272B960FB6F894DEBF0FBECDBFDF9158
:10426000CF910895882309F4D8C0682F823879F453
:104270000E94102081FDD1C069E3809135019091A9
:1042800036010E94F52B0E94A32A69E310C08338EF
:10429000B1F40E94102080FDC0C063E5809135011B
:1042A000909136010E94F52B0E94A32A63E580912C
:1042B0003501909136010E94002C0C94A32A843879
:1042C00079F40E94102082FDA8C067E48091350136
:1042D000909136010E94F52B0E94A32A67E4E7CF54
:1042E0008CEF860F813A38F4809135019091360138
:1042F0000E94F52BE2CF80E2860F883048F4677089
:1043000081E001C0880F6A95EAF70E94D92AD5CFCB
:104310008BE5860F833070F4653A29F0663A31F008
:1043200083E890E005C081E890E002C082E890E078
:104330000C94272088E5860F853108F06EC0683A16
:1043400061F1693A69F16A3A71F16B3A79F16C3A63
:1043500081F16B3B89F16C3B91F16D3A99F1603BD6
:10436000A1F16E3AA9F16F3AB1F1613BB9F1623B4B
:10437000C1F1633BC9F1643BD1F1653BD9F1663BC7
:10438000E1F1673BE9F1683BF1F1693BF9F16A3B27
:1043900009F43FC080E090E03EC082EE90E03BC078
:1043A00089EE90E038C08AEE90E035C085EB90E071
:1043B00032C086EB90E02FC083EB90E02CC084EB02
:1043C00090E029C087EB90E026C08CEC90E023C001
:1043D0008DEC90E020C083E891E01DC08AE891E078
:1043E0001AC082E991E017C084E991E014C081E22B
:1043F00092E011C083E292E00EC084E292E00BC032
:1044000085E292E008C086E292E005C087E292E091
:1044100002C08AE292E00C943D200895882309F4BA
:104420005BC0682F823879F40E94102081FF54C04D
:1044300069E380913501909136010E94F52B0E942D
:10444000A32A69E310C08338B1F40E94102080FFD2
:1044500043C063E580913501909136010E94F52BB0
:104460000E94A32A63E580913501909136010E9454
:10447000002C0C94A32A843879F40E94102082FF27
:104480002BC067E480913501909136010E94F52B95
:104490000E94A32A67E4E7CF8CEF860F813A18F3D6
:1044A00080E2860F883048F4677081E001C0880F91
:1044B0006A95EAF70E94DF2ADCCF8BE5860F83300E
:1044C00020F480E090E00C942720685A653120F4B5
:1044D00080E090E00C943D200895882321F00E9414
:1044E000D92A0C94A32A0895882321F00E94DF2A58
:1044F0000C94A32A08958F929F92AF92BF92DF925D
:10450000EF92FF920F931F93CF93DF937C01D62FEF
:10451000C72FFC01158112951F70028101110E94A5
:10452000F92A0E949C2A882379F0002369F080E20E
:104530008D0F883048F082E00E94852A0E949C2AD4
:1045400091E0D82ED92601C0D12CBC2EB2948FE098
:10455000B8228B2D90E0FC01E859FF4F0C942134D8
:104560008C2F807FCF70882311F0C295C07F0023ED
:1045700099F0CC2309F455C180E28D0F883010F0FA
:10458000D11104C08C2F0E94D92A03C08C2F0E9405
:10459000EC2A0E94A32A45C18D2F0E940E22CC2313
:1045A00009F464C180E28D0F883010F0D11104C08D
:1045B0008C2F0E94DF2A03C08C2F0E94F22A0E94B7
:1045C000A32A54C18C2F807FCF70803211F0C29506
:1045D000C07FDD2319F0D13099F01EC0002341F0D7
:1045E000112399F08C2F113089F40E940C2B3EC1BD
:1045F000112319F0113009F439C10E940F2B13C097
:10460000002339F0123008F031C18C2F0E946D2246
:104610002DC111112BC107C0002319F01123A9F3DB
:1046200000C111110FC18C2FBCC08C2F837009F0F9
:104630004CC0011124C12D2F229526952770220FE1
:10464000220F6D2F6F70862F90E0A0E0B0E04C013C
:104650005D01022E04C0880C991CAA1CBB1C0A9484
:10466000D2F7D4FF12C08FE090E0A0E0B0E004C029
:10467000880F991FAA1FBB1F2A95D2F7BC01CD0135
:10468000609570958095909503C060E070E0CB01D7
:10469000C695C695C370C23051F080F46829792957
:1046A0008A299B29C13071F00E94B628E8C0682988
:1046B00079298A299B290E94C828E1C00E94B6282E
:1046C000C501B4010E94A428DAC0002319F08C2F80
:1046D000817001C08695882309F4D1C02D2F2295C1
:1046E00026952770220F220F6D2F6F70862F90E076
:1046F000A0E0B0E04C015D01022E04C0880C991CC2
:10470000AA1CBB1C0A94D2F7D4FF12C08FE090E021
:10471000A0E0B0E004C0880F991FAA1FBB1F2A9514
:10472000D2F7BC01CD01609570958095909503C03E
:1047300060E070E0CB01C695C695C370C23051F001
:1047400080F4682979298A299B29C13071F00E9457
:10475000792995C0682979298A299B290E948B2962
:104760008EC00E947929C501B4010E94672987C0C3
:104770008D2F90E0FC01E05EF109E531F10508F0D4
:104780004CC0E858FF4F0C942134DF708C2F8F7190
:10479000002321F00E9400298D2F38CF0E9421296B
:1047A0008D2F0E94742262C0002339F011115EC067
:1047B0008C2F8F710E94462959C0123008F056C0C4
:1047C000F7CF002339F08C2F8F710E9400294EC043
:1047D0000023C9F38C2F8F710E94212947C0002329
:1047E00029F08C2F8F710E94EB2840C00E94E62890
:1047F0003DC0002349F0CF718C2F0E94002963E057
:104800008C2F0E947C2A32C081E00E94852A1230BF
:1048100068F182E00E94852A29C0002331F011232B
:1048200091F28D2F0E94322121C0112399F2D933A8
:1048300049F4FFEF27EE83E0F15020408040E1F79C
:1048400000C000008D2F0E940E2210C04C2F4F7010
:104850006D2FC7010E949D1C0E94152814C04C2F6B
:104860004F706D2FC7010E94A01C0DC098E0B916B3
:1048700031F0B91640F086EF8B0D823020F40E94A3
:1048800010200E949B1CDD20E1F00E94782A80FD10
:1048900018C0F70112820E94722A0E940029C701E3
:1048A0000E946D240E94722ADF91CF911F910F9177
:1048B000FF90EF90DF90BF90AF909F908F900C94FF
:1048C0002129DF91CF911F910F91FF90EF90DF9001
:1048D000BF90AF909F908F9008950F931F93CF93A9
:1048E000DF93EC01988189812B813C81232B31F06E
:1048F0008F3F31F481E09F3F19F403C081E001C094
:1049000080E080FD13C0CE010E94411B882371F01E
:10491000688179818A810E94412A8C010E949D29A7
:104920000E949228B801CE010E947B22DF91CF9194
:104930001F910F9108950E94F92A0E94092B8091DE
:104940003501909136010E940B2C0C94A32A0E94F1
:10495000E92A0C949B240E94362AE92FE295EF70F5
:104960004E2F50E0FA013297EE30F105B0F4E357E4
:10497000FF4F0C942134803F91F018F4803E68F48E
:104980000EC0843F51F40BC0803E48F0813F29F4B3
:1049900006C093FB882780F9089580E0089581E0A0
:1049A0000895CF93DF9300D000D01F92CDB7DEB72C
:1049B0000F900F900F900F900F90DF91CF9108956F
:1049C000CF93DF9300D000D000D0CDB7DEB72696CE
:1049D0000FB6F894DEBF0FBECDBFDF91CF91089523
:1049E0001F93CF93DF93C091500816E08091510838
:1049F000C81799F0D0E01C9FF0011D9FF00D112405
:104A0000EE5AF74F40815181628173818481958193
:104A10000E94E0242196C770E9CFDF91CF911F91CA
:104A200008954091820850918308609184087091A4
:104A3000850880918608909187080C94E024CF9394
:104A40008091870882958F7009F05FC080918408FB
:104A5000882309F45AC080915008B0915108709190
:104A60008208A0918308409185085091860891E0C2
:104A70007F3F09F090E0692FC6E08B1709F445C02D
:104A80004115510521F0AF3F21F020E003C021E0A6
:104A900001C0262F90E020FD35C0C89FF001C99FBE
:104AA000F00D1124EE5AF74F21812A132BC02081DB
:104AB000271328C02281211125C023813481241786
:104AC000350710F421503109241B350B283C3105E2
:104AD000C8F4209187082F7020612093870826E072
:104AE000289FF001299FF00D1124E95AF74F80818A
:104AF0008F708061808382E898E00E946D24CF915E
:104B00000C94F02401968770B8CFCF910895AF929E
:104B1000BF92CF92DF92EF92FF920F931F93CF93AA
:104B2000DF93CDB7DEB761970FB6F894DEBF0FBE47
:104B3000CDBF8C0185E0F801DE011D9601900D923C
:104B40008A95E1F7D8014C9111965C9111971296D4
:104B5000EC90309182086091830880918508909153
:104B60008608009731F06F3F31F421E03F3F19F4A0
:104B700003C021E001C020E0B22FB170BB2E20FDA8
:104B800064C1F801C380D480A0908408AA2009F4ED
:104B9000C3C020918708C816D90628F0D601A81BE3
:104BA000B90BCD0104C0809590958C0D9D1DFF24FF
:104BB000F394883C910580F0F12C207F09F09CC093
:104BC0007C2DD98AC88A6E2D89890E94D12482E8D9
:104BD00098E00E946D24B4C0822F807F09F054C0F9
:104BE000561314C0431312C0FE2CE1100FC02F70D7
:104BF0002061209387080E94112582E898E00E9496
:104C00006D2480918708F80185834FC1CD2831F04C
:104C10005F3F31F481E04F3F19F403C081E001C0F0
:104C200080E080FD03C081E08E2502C080E090E03E
:104C3000F82FF170FF2E80FF1CC08091500820914A
:104C4000510836E0821709F40DC190E0389FF00159
:104C5000399FF00D1124EE5AF74F6181561306C0AB
:104C60006081461303C06281E61203C0019687701B
:104C7000E9CFFE2CEE2009F418C1809187088160ED
:104C800080938708F12C11C1561309C0431307C044
:104C9000E11005C080918708F8018583B0C04D8779
:104CA0005E878D859E850E94AB24882379F1EE2056
:104CB00069F120918708822F82958F7090E002978A
:104CC00074F0809182089091830898878F83198669
:104CD000DB86CA862C87CE0107960E946D2486E06B
:104CE000F801A2E8B8E001900D928A95E1F70E94E0
:104CF0001F250E9411250DC0561761F14D875E8753
:104D00008D859E850E94AB24811138C0C8010E9408
:104D10006D24FF24F394C9C0C816D90608F446C010
:104D2000F601E81BF90BCF01883C910508F443C05C
:104D3000F12C7C2DD98AC88A6E2D89890E94D124B4
:104D4000E2E8F8E086E0DF011D928A95E9F70E942B
:104D50001125ABC04313D2CFE110D0CF809187088B
:104D6000F8018583C8010E946D2486E0E2E8F8E03E
:104D7000DF011D928A95E9F7FA2C97C0EE2031F2F7
:104D800020918708822F82958F7090E002970CF413
:104D9000A6CF80918208909183089A8389831B8291
:104DA000DD82CC822E83CE01019697CF809590959F
:104DB0008C0D9D1DB9CFFE2CEE2009F4A7CF561304
:104DC00033C0431331C02091870820FD24C0822FB7
:104DD00082958F70482F50E041155105E1F0D801C0
:104DE00015962C9315974F30510549F08F5F982FEA
:104DF0009295907F822F8F70892B15968C93C80186
:104E00000E946D2486E0F801A2E8B8E001900D92BE
:104E10008A95E1F79CCF86E0F801A2E8B8E001901E
:104E20000D928A95E1F741C04D875E878D859E85FD
:104E30000E94AB24811153CF8091870881608093B9
:104E40008708C8010E946D2430C0EE2009F45ECFAF
:104E50004D875E878D859E850E94AB24882309F44B
:104E600055CF3DCF4D875E878D859E850E94362A22
:104E7000292F22952F70223028F49F7039F081114C
:104E800005C00BC0243028F49F7049F4805E883040
:104E900020F0C8010E946D24BF2CFB2C06C0D80155
:104EA00015969C91907F91F7F8CF8F2D61960FB654
:104EB000F894DEBF0FBECDBFDF91CF911F910F9150
:104EC000FF90EF90DF90CF90BF90AF9008951F9329
:104ED000CF93DF93CDB7DEB72C970FB6F894DEBF34
:104EE0000FBECDBF4F83588769877A878B879C8792
:104EF000CE0107960E9487258823D1F09F8188855F
:104F00002A853B85232B31F08F3F31F481E09F3F91
:104F100019F403C081E001C080E080FD47C04F81EB
:104F2000588569857A858B859C850E94E0243EC0E2
:104F300086E0FE013796DE01119601900D928A956A
:104F4000E1F7FF81E8856A857B856115710531F0A0
:104F5000EF3F31F481E0FF3F19F403C081E001C06D
:104F600080E080FD23C02091510830E0C901019606
:104F7000877099274091500850E084179507F1F108
:104F8000F983EA837D836C8396E0929FD001939F9F
:104F9000B00D1124AE5AB74FFE01319601900D921B
:104FA0009A95E1F7809351080E94F02416E08091D1
:104FB000500890915108891771F1189FC001112470
:104FC0008E5A974F0E948725882329F1E091500837
:104FD0001E9FF0011124EE5AF74F408151816281EA
:104FE0007381848195810E94E0248091500890E033
:104FF00001968770992780935008D9CF0E94A724E3
:105000001092510810925008E2E8F8E086E0DF01C3
:105010001D928A95E9F72C960FB6F894DEBF0FBE65
:10502000CDBFDF91CF911F910895EF92FF920F9323
:105030001F93CF93DF938C01892B09F46CC0F12C63
:10504000EE24E394E8012196F8018491843740F43A
:10505000843008F051C0813081F0823019F15BC09A
:10506000853709F444C0A8F19CE7980F903708F001
:1050700052C08F770E940E2241C00E5F1F4FFE016B
:10508000849190E2980F983050F48770FE2D01C003
:10509000FF0F8A95EAF78F2F0E94FC2A14C00E9406
:1050A00032212DC00E5F1F4FFE01849190E2980FB8
:1050B000983060F48770FE2D01C0FF0F8A95EAF7E3
:1050C0008F2F0E94022B0E94A32A19C00E940E2239
:1050D00016C00E5F1F4FFE01C491CC2381F08FE9F3
:1050E0009FE00197F1F700C00000C150F6CF0E5FBE
:1050F0001F4FFE01F49003C00E9432218E018F2DBC
:10510000882309F49FCFEFE9FFE03197F1F700C062
:1051100000008150F5CFDF91CF911F910F91FF904B
:10512000EF900895089508950C9493280E94942870
:105130006093C3087093C4088093C5089093C60811
:105140000C949B240C9496280F931F930091C308F2
:105150001091C4082091C5083091C608602B712BAE
:10516000822B932B1F910F910C9496280F931F93D2
:105170000091C3081091C4082091C5083091C60859
:1051800060237123822393231F910F910C949628FF
:105190000F931F930091C3081091C4082091C50874
:1051A0003091C60860277127822793271F910F919E
:1051B0000C9496280E9493286093BF087093C008AF
:1051C0008093C1089093C2080C949B2460E070E027
:1051D000CB010C94DA280F931F9341E050E060E07C
:1051E00070E08A019B0104C0000F111F221F331FB2
:1051F0008A95D2F7C901B8011F910F910C94DA2852
:105200000F931F9341E050E060E070E004C0440F52
:10521000551F661F771F8A95D2F78091BF0890911E
:10522000C008A091C108B091C2088A019B01082B57
:10523000192B2A2B3B2BC901B8011F910F910C94FC
:10524000DA280F931F9341E050E060E070E004C063
:10525000440F551F661F771F8A95D2F740955095CA
:10526000609570958091BF089091C008A091C10889
:10527000B091C2088A019B01082319232A233B23EA
:10528000C901B8011F910F910C94DA280F931F9355
:1052900041E050E060E070E004C0440F551F661F1D
:1052A000771F8A95D2F78091BF089091C008A0918E
:1052B000C108B091C2088A019B01082719272A2733
:1052C0003B27C901B8011F910F910C94DA280F9365
:1052D0001F930091BF081091C0082091C108309120
:1052E000C208602B712B822B932B1F910F910C9472
:1052F000DA280F931F930091BF081091C0082091E6
:10530000C1083091C20860237123822393231F9127
:105310000F910C94DA280F931F930091BF081091FE
:10532000C0082091C1083091C208602771278227E8
:1053300093271F910F910C94DA280895292F220F9B
:10534000920F990F890FE82FE695E695E6958770FD
:1053500051E001C0550F8A95EAF785E0E89FF0011A
:105360001124E857F74F20E030E070E04081CB0196
:10537000022E02C0969587950A94E2F78170819576
:1053800084278523842781932F5F3F4F2530310564
:1053900069F70895292F220F920F990F890F682F0F
:1053A000669566956695982F977085E0689FB00121
:1053B000112440E050E080E0FB01E40FF51FE857C6
:1053C000F74F208130E0092E02C0369527950A94C8
:1053D000E2F721703327042E01C0220F0A94EAF766
:1053E000822B4F5F5F4F4530510531F70895CF92C3
:1053F000DF92EF92FF920F931F93CF93DF938C0175
:10540000C090BF08D090C008E090C108F090C208DA
:105410008091C3089091C408A091C508B091C608B6
:10542000C82AD92AEA2AFB2ACFE1D0E0D701C6014F
:105430000C2E04C0B695A795979587950A94D2F738
:1054400080FD04C0219790F780E007C0B8018C2F41
:105450000E94BC1C0197B1F38C2FDF91CF911F915B
:105460000F91FF90EF90DF90CF900895CF93DF934F
:10547000EC010E94F729BE010E94BC1CDF91CF9174
:1054800008951F93CF93DF93EB0190914F089923D9
:1054900021F0CB010E94362A13C0882349F0CB01AA
:1054A0000E94F729182F682FCE010E949E2904C060
:1054B000CB010E94CA29182FBE01812F0E94BC1C5B
:1054C000DF91CF911F910895682F809135019091C0
:1054D00036010C94F52B682F80913501909136019F
:1054E0000C94002C8091C708859585958595089525
:1054F0008091C7088770089598E0899F90011124D2
:10550000262B2093C7080C9400292091C70880956A
:1055100082238093C708982F977069F430E0482F52
:10552000082E000C550B2417350729F08595859515
:1055300085950C94212908959091C708977081E072
:1055400009F480E00895E0913501F09136018091F1
:10555000EB088083E0913501F091360190818091D4
:10556000EA08892B8083E0913501F0913601908122
:105570008091E908892B80838091C808882381F075
:10558000E0913501F09136019081892B80838091E3
:105590003501909136010E94982B81111092C80814
:1055A00080913501909136010C941C208091EB087C
:1055B00008959091EB08892B8093EB0808958095CE
:1055C0009091EB0889238093EB0808958093EB0872
:1055D00008951092EB0808959091EA08892B809322
:1055E000EA08089580959091EA0889238093EA0853
:1055F00008951092EA0808959091E908892B809304
:10560000E908089580959091E90889238093E90835
:1056100008951092E90808958093C808089510929B
:10562000C8080895CF92DF92EF92FF926C01EE24AA
:10563000FF24C114D104E104F10421F0C701B60133
:1056400020E101C020E0C72ED82EE92EFF24C1148E
:10565000D104E104F10419F0285FC701B6016B0120
:105660007C0154E0F694E794D794C7945A95D1F707
:10567000C114D104E104F10419F02C5FC701B60193
:105680006B017C0142E0F694E794D794C7944A9565
:10569000D1F7C114D104E104F10419F02E5FC70160
:1056A000B601DC01CB01B695A79597958795892B17
:1056B0008A2B8B2B09F02F5F822FFF90EF90DF90CA
:1056C000CF9008956DEE7EEF80E090E00E94473429
:1056D00060E082E090E00E94353460E083E090E09A
:1056E0000E94353460E084E090E00E94353460E050
:1056F00085E090E00C94353480E090E00E942F34F7
:1057000021E08D3E9E4F09F020E0822F089582E037
:1057100090E00C94273483E090E00C94273484E0EC
:1057200090E00C942734682F84E090E00C9435349A
:10573000FC0131969C01205E3F4F80E091919111D8
:105740008F5FE217F307D1F708959C01FC013296B1
:105750009FEF80E04191461789F09F3F19F4411176
:1057600001C0982F8F5F8E31A9F79F3F39F0F90163
:10577000E90FF11D97FDFA956283089508959C0144
:10578000225E3F4FFC014281461301C01282019606
:1057900082179307B9F70895262F26952695269503
:1057A0002F3169F0FC01E20FF11D677021E030E05C
:1057B00001C0220F6A95EAF78181282B2183089581
:1057C000262F2695269526952F3171F0FC01E20FA4
:1057D000F11D677021E030E001C0220F6A95EAF701
:1057E000209581812823218308952091410122233E
:1057F00029F02091230927FD0C94CC2B0C94A52B88
:1058000020914101222329F02091230927FD0C94A6
:10581000E02B0C94BF2BFC01319680961192E81777
:10582000F907E1F7089580912909843039F1109240
:10583000ED0820E488E190E00FB6F894A8958093F5
:1058400060000FBE2093600080E00E949B1C83B725
:10585000817F846083BF83B7816083BF789488959C
:1058600083B78E7F83BF0FB6F894A89580916000B0
:10587000886180936000109260000FBE08950895C3
:10588000CF930E946D130E94BA130E943F2CC0E078
:105890008C2F0E949B14811104C0CF5FCE30C1F7C2
:1058A00001C081E0CF9108950E94A7240E9410209A
:1058B0000C949B1C1F920F920FB60F9211248F9382
:1058C0009F93AF93BF938091ED08811113C0809196
:1058D0001F0990912009A0912109B09122094196B8
:1058E000A11DB11D80931F0990932009A093210948
:1058F000B0932209BF91AF919F918F910F900FBEEE
:105900000F901F90189582E084BD93E095BD9AEFAB
:1059100097BD80936E0008952FB7F89480911F096A
:1059200090912009A0912109B09122092FBF0895DB
:10593000CF92DF92EF92FF920F931F932FB7F894BD
:1059400040911F095091200960912109709122090D
:105950002FBF6A017B01EE24FF248C0120E030E0A0
:10596000C016D106E206F30610F4415051099A011F
:10597000281B390BC9011F910F91FF90EF90DF9009
:10598000CF90089578941F920F920FB60F92112422
:105990008F939F93AF93BF9380911F09909120099C
:1059A000A0912109B09122090196A11DB11D8093FA
:1059B0001F0990932009A0932109B0932209BF9158
:1059C000AF919F918F910F900FBE0F901F901895E0
:1059D0000E940A31F8942FEF87EA91E62150804027
:1059E0009040E1F700C0000087E090EBDC0180937D
:1059F000320990933309A0933409B09335099CE0A0
:105A000088E10FB6F894A895809360000FBE90933C
:105A10006000FFCF0E947C2B811102C00E94622B8C
:105A20000E94872B8093EC080E948F2B90E090932C
:105A30002409809323090E948B2B682F70E080E05B
:105A400090E00C94A22880910E09089508950F9378
:105A50001F93CF93DF9300D01F92CDB7DEB78C0199
:105A60000E945C2F823011F0843021F583E089831D
:105A70001B830A8381E08093E9008FEF9091E80017
:105A8000815095FD06C095ED9A95F1F700008111C2
:105A9000F5CF8091E80085FF0DC040E050E063E065
:105AA00070E0CE0101960E94792F8091E8008E77F8
:105AB0008093E8000F900F900F90DF91CF911F918E
:105AC0000F910895CF93DF9300D01F92CDB7DEB72B
:105AD00020912909243031F522E029838058910949
