:100000000C94A6120C94ED120C94ED120C94ED12BB
:100010000C94ED120C94ED120C94ED120C94ED1264
:100020000C94ED120C94ED120C940B320C94DD3206
:100030000C94DA2C0C94ED120C94ED120C94ED123D
:100040000C94ED120C94ED120C94ED120C94ED1234
:100050000C94ED120C94422D0C94ED120C94ED12B4
:100060000C94ED120C94ED120C94ED120C94ED1214
:100070000C94ED120C94ED120C94ED120C94ED1204
:100080000C94ED120C94ED120C94ED120C94ED12F4
:100090000C94ED120C94ED120C94ED120C94ED12E4
:1000A0000C94ED120C94ED120C94ED12661C681C6D
:1000B000731C6A1C6C1C6E1C701C721C751C771CDB
:1000C000791C841C7B1C7D1C7F1C811C831C861C52
:1000D0004723472381238123E624E624E624E624DC
:1000E000B623E62466246624D824E624E624E02405
:1000F0007324732473247324732473247324732448
:100100007324732473247324732473247324732437
:10011000852492249924A024AA24692569257B2575
:100120007B2572257B257B257B2569256925772500
:100130007B257B2577254A336C335A346C335A340C
:10014000B133D4335A3429343C3400000000000069
:100150000800000000001C0000000000081C000057
:1001600000001600000000000816000000001C1629
:1001700000000000081C1600000000000000000045
:100180001500000000001100000000001511000023
:1001900000000F0000000000150F00000000160016
:1001A000000000000F0F000000000A000000000027
:1001B000150A00000000110A000000000A110000EA
:1001C00000000F0A000000000A15000000000700F0
:1001D00000000000070F0000000006000000000003
:1001E00015060000000011060000000011061500B1
:1001F000000013000000000015130000000016139B
:1002000000000000130F00000000050000000000C7
:100210001505000000000A0A00000000050815008E
:100220000000050F0000000015050F000000000091
:10023000000000000F05000000000B00000000009F
:100240001A00000000001900000000001A11000050
:1002500000001D00000000001A0F00000000160B37
:10026000000000000F19000000000A0B0000000051
:10027000150A0B000000100000000000151000001F
:1002800000001B000000000000000000000016102D
:10029000000000000F1000000000060B000000002E
:1002A00015060B00000011060B00000015190000D8
:1002B0000000130B00000000000000000000160FFB
:1002C000000000000F060B00000009000000000005
:1002D00015090000000010050000000010050815B9
:1002E00000000F0900000000090F000000001013BB
:1002F00000000000131000000000170000000000C4
:10030000151700000000111700000000151117005C
:1003100000000F1700000000170F00000000161764
:10032000000000001516170000000E00000000007D
:10033000150E00000000110E000000001117151C22
:1003400000000E0F00000000000000000000160E6C
:10035000000000000F0E0000000006170000000063
:10036000061500000000170C12110000060F000017
:10037000000013170000000000000000000011162C
:10038000170000000F1300000000060E0000000020
:100390000000000000000517000000000508151708
:1003A0000000060E0F000000060E0F1C00000000EB
:1003B00000000000000000000000170B000000001B
:1003C00015170B00000011170B0000001A170B0087
:1003D00000000F170B0000000000000000001119C2
:1003E00000000000161A081500000A0B1700000094
:1003F0001A0E00000000110A170B00001008111758
:1004000000001B170000000000000000000007179C
:100410000B00000011100811170017060B00000058
:10042000000000000000110F1C0000000000000090
:10043000000013170B000000000000000000160F62
:100440001C00000000000000000009170000000070
:100450000917081500000917081100000000000026
:100460000000000000000000000000000000101369
:1004700017000000131008111700160000000000FC
:1004800015160000000011160000000015111600DE
:1004900000000F1600000000150F160000001616D1
:1004A000000000000F0F160000000A1600000000F8
:1004B000150A16000000110A160000000A111600A5
:1004C000000000000000000000000000000007160F
:1004D0000000000000000000000006160000000000
:1004E00015061600000011060816000000000000A6
:1004F000000013160000000015131600000016136C
:1005000016000000130F081600000516000000007A
:100510001505160000000A0A160000000508151649
:100520000000050F08160000000000000000000099
:10053000000000000F05160000000B160000000070
:100540001A16000000001908160000001A11160003
:1005500000001D08160000001A0F16000000160B00
:10056000081600000F19081600000A0B16000000FC
:10057000000000000000101600000000151016001A
:1005800000001B081600000000000000000016100C
:10059000160000000F101600000007000000000009
:1005A0001507000000001107000000001A070000F6
:1005B0000000130B16000000150F070000001607BF
:1005C000000000000F0700000000070A0000000004
:1005D00000000000000010051600000010050815BE
:1005E00016000000000000000000000000001013D2
:1005F00016000000000000000000171600000000B8
:10060000151716000000111716000000000000006A
:1006100000000F1716000000170F1C00000016172F
:10062000160000001516171600000E160000000038
:10063000150E16000000110E160000001117150C03
:100640000816000000000000000000000000160E68
:10065000160000000F0E160000000617160000001E
:10066000000000000000170C12111600000000002E
:10067000000000000000000000000000000000007A
:10068000000000000F1316000000060E1600000008
:1006900000000000000005171600000005081517EF
:1006A0001600060E0F0816000000000000000000F3
:1006B00000000000000000000000170B1600000002
:1006C00015170B16000011170B1600001A170B1642
:1006D000000000000000000000000000000000001A
:1006E000000000000000000000000A0B17160000C8
:1006F0001A0E16000000110A170B16001008111729
:1007000016000000000000000000000000000717B5
:100710000B16000011100811171607160000000034
:100720001507160000001107160000001A07160032
:10073000000013170B160000150F0716000000002D
:10074000000000000F07160000000000000000007D
:100750000000000000000000000000000000000099
:100760000000000000000000000000000000101366
:1007700017160000131008111716000000000000E3
:10078000080800000000121200000000120800001B
:10079000000004040000000004080000000004122F
:1007A00000000000041C00000000181800000000F9
:1007B00018080000000018120000000008181200BD
:1007C00000001804000000000818040000001218BF
:1007D00004000000181C000000000C0C00000000C9
:1007E0000C08000000000C1200000000080C1200B1
:1007F00000000C0400000000080C04000000120CB3
:10080000040000000C1C000000000C180000000098
:10081000080C180000000C121800000008120C1838
:100820000000040C180000001C08000000001C124E
:10083000000000000812040C180000000000000076
:100840000800000000001200000000000812000074
:100850000000040000000000080400000000120472
:10086000000000001C040000000018000000000050
:1008700008180000000012180000000008121800FC
:100880000000041800000000080418000000120412
:10089000180000001C18000000000C000000000000
:1008A000080C00000000120C0000000008120C00F0
:1008B0000000040C0000000008040C0000001204FA
:1008C0000C0000001C0C00000000180C00000000D0
:1008D00008180C00000012180C0000001C0000009A
:1008E000000004180C000000081C00000000121C8E
:1008F000000000001C0000000000000000000000DC
:100900001100000000001500000000000F000000B2
:1009100000001A00000000001000000000001A157E
:10092000000000001015000000000B000000000097
:100930001C0000000000150B000000000F1C000050
:1009400000001A0B00000000101C000000001A0B31
:100950000815000000000000000006000000000074
:100960001D0000000000061500000000060F00003A
:100970000000130000000000131100000000131518
:1009800000000000130F00000000060B0000000034
:10099000061C00000000060B1500000006151C00D8
:1009A0000000130B00000000131C00000000130BDC
:1009B00015000000130B0F000000170000000000DE
:1009C00019000000000017150000000014000000CE
:1009D0000000171A000000000D00000000000000D9
:1009E000000000000D0815000000170B00000000BB
:1009F000171C00000000170B1500000017151C0045
:100A000000000E00000000000E11000000000E1596
:100A1000000000000E0F00000000070000000000B2
:100A200007081900000007150000000007080F0064
:100A30000000071A00000000070810000000070867
:100A40001500000000000000000009000000000088
:100A5000071C00000000091500000000090F00003D
:100A60000000050000000000051C00000000051546
:100A700000000000050F000000000400000000005E
:100A8000041100000000041500000000040F000025
:100A90000000041A00000000041000000000000024
:100AA00000000000040F0F000000040B0000000015
:100AB000041C0000000004151000000000000000ED
:100AC0000000041A0B0000000411070000000000E1
:100AD00000000000040F10000000040600000000E9
:100AE000041D0000000004061500000004060F00AD
:100AF00000000413000000000410100000000413A4
:100B00001500000004130F00000004060B00000095
:100B10000406060000000406061500000406060F81
:100B2000000004130B00000000000000000004138C
:100B30000B1500000000000000000417000000007A
:100B40000419000000000417150000000414000040
:100B50000000041717000000040D00000000041737
:100B600017150000040F1A00000004170B00000006
:100B700004111700000004170B0F000004111715D3
:100B80000000040E0000000004060E11000000002A
:100B9000000000000000000000000407000000004A
:100BA00004071900000004071500000004061400E3
:100BB00000000407070000000407100000000407FD
:100BC000071500000407070F0000040900000000DB
:100BD00004090900000004091500000004090F00C1
:100BE000000004050000000004051C0000000405CE
:100BF0001500000004050F000000160000000000B2
:100C0000161100000000160815000000160F000065
:100C10000000161A0000000016100000000000007E
:100C200000000000000000000000160B00000000A3
:100C3000161C00000000160B15000000160F1C000B
:100C400000000000000000000000000000000000A4
:100C50000000000000000000000016060000000078
:100C60001616000000001606150000000000000027
:100C70000000161300000000000000000000161322
:100C80001500000016130F00000016060B000000F0
:100C90000000000000000000000000000000000054
:100CA000000016130B00000016131C0000000000CB
:100CB0000000000000000000000016170000000007
:100CC0001619000000001617150000001614000089
:100CD00000001B00000000000000000000001B15C9
:100CE00000000000160815190000000000000000B8
:100CF00016171C0000000000000000001617151C4D
:100D00000000160E000000001B1C00000000000088
:100D1000000000000000000000000A0000000000C9
:100D20000A11000000000A15000000000A0F000070
:100D300000000A1A0000000000000000000000008F
:100D4000000000000000000000000A0B000000008E
:100D50000A1C00000000000000000000000000006D
:100D60000000000000000000000000000000000083
:100D70000000000000000000000004160000000059
:100D800004111100000004151500000004160F00E6
:100D90000000000000000000041610000000000029
:100DA0000000000000000000000004160B0000001E
:100DB00004161C00000000000000000000000000FD
:100DC0000000000000000000000000000000000023
:100DD00000000000000000000000041606000000F3
:100DE000041616000000041606150000040F160075
:100DF0000000041613000000041313000000041385
:100E0000131500000413130F000000000000000081
:100E100000000000000000000000000000000000D2
:100E200000000416130B00000416130B1C00000036
:100E30000000000000000000000004161700000081
:100E40000411190000000415170000000416140016
:100E50000000041B00000000000000000000000073
:100E6000000000000000000000000416170B000046
:100E7000000000000000000000000000041117083E
:100E8000150004160E000000000000000000000025
:100E900000000000000000000000040A0000000044
:100EA000040A11000000040A15000000040A0F00E3
:100EB0000000040A0A00000004070D000000040AF4
:100EC0000A150000040A0A0F0000040A0B000000C3
:100ED0000409170000000409091500000409090F9E
:100EE00000000405050000000000000000000405EB
:100EF00005150000000000000000000012001800AE
:100F000018000C0018001800180000000000000075
:100F10002B0000000000280000000000000000007E
:100F2000000000000000000000003400000000008D
:100F300000003700000000000000340050000000F6
:100F40000000300200000000000034020000000039
:100F50000000300250000000000034025000000089
:100F6000000027020000000000003702000000001F
:100F7000000027025000000000003702500000006F
:100F80000000300000000000000000000000000031
:100F9000000030005000000000002C005000000055
:100FA000000037000000000000003400370000009F
:100FB0000000330200000000000034003700DB5C5A
:100FC000000030023700000000003402370000004B
:100FD000000030023700DB5C000034023700DB5CCD
:100FE0000000270237000000000025023800000042
:100FF000000027023700DB5C000025023800DB5CC4
:101000000000300037000000000000000000000079
:10101000000030003700DB5C000000000000000032
:101020000000360000000000000034003600000020
:1010300000002E0000000000000034003600DB5CE1
:1010400000003002360000000000340236000000CC
:10105000000030023600DB5C000034023600DB5C4E
:1010600000002702360000000000370236000000B2
:10107000000027023600DB5C000037023600DB5C34
:1010800000003000360000000000000000000000FA
:10109000000030003600DB5C0000000000000000B3
:1010A00000003300000000000000340033000000A6
:1010B0000000330233020000000034003300DB5C28
:1010C0000000300233000000000034023300000052
:1010D000000030023300DB5C000034023300DB5CD4
:1010E00000002702330000000000000000000000A4
:1010F000000027023300DB5C00000000000000005D
:10110000000030003300000000000000000000007C
:10111000000030003300DB5C000000000000000035
:10112000000028000000000000003400280000003B
:101130000000370028000000000000000000000050
:1011400000003002280000000000340228000000E7
:10115000000028003002DC5C0000000000000000FD
:1011600000002702280000000000370228000000CD
:10117000000028002702DC5C0000000000000000E6
:101180000000300028000000000000000000000007
:10119000000028003000DC5C0000000000000000BF
:1011A000000037002800000000003400370028004D
:1011B00000003302280000000000000000000000D2
:1011C00000003002370028000000340237002800F9
:1011D000000000000000000000000000000000000F
:1011E00000002702370028000000250238002800F0
:1011F00000000000000000000000000000000000EF
:10120000000030003700280000000000000000004F
:1012100000000000000000000000000000000000CE
:1012200000003600280000000000340036002800CE
:1012300000002E0028000000000000000000000058
:10124000000030023600280000003402360028007A
:10125000000000000000000000000000000000008E
:101260000000270236002800000037023600280060
:1012700000004D00280000000000000000000000F9
:1012800000003000360028000000000000000000D0
:10129000000000000000000000000000000000004E
:1012A0000000330028000000000034003300280054
:1012B000000033023302280000000000000000009C
:1012C0000000300233002800000034023300280000
:1012D000000000000000000000000000000000000E
:1012E000000027023300280000000000000000007A
:1012F00000000000000000000000000000000000EE
:101300000000300033002800000000000000000052
:1013100000000000000000000000000000000000CD
:101320000000270000000000000000000000000096
:1013300000001E000000000000000000000000008F
:10134000000000000000000000000000000000009D
:10135000000000000000000000000000000000008D
:1013600000001F000000000000000000000000005E
:10137000000020000000000000000000000000004D
:10138000000000000000000000000000000000005D
:10139000000000000000000000000000000000004D
:1013A000000000000000000000000000000000003D
:1013B000000000000000000000000000000000002D
:1013C000000000000000000000000000000000001D
:1013D000000000000000000000000000000000000D
:1013E00000000000000000000000000000000000FD
:1013F00000000000000000000000000000000000ED
:1014000000000000000000000000000000000000DC
:1014100000000000000000000000000000000000CC
:10142000000021000000000000000000000000009B
:10143000000022000000000000000000000000008A
:10144000000000000000000000000000000000009C
:10145000000000000000000000000000000000008C
:101460000000230000000000000000000000000059
:101470000000240000000000000000000000000048
:10148000000000000000000000000000000000005C
:10149000000000000000000000000000000000004C
:1014A000000000000000000000000000000000003C
:1014B000000000000000000000000000000000002C
:1014C000000000000000000000000000000000001C
:1014D000000000000000000000000000000000000C
:1014E00000000000000000000000000000000000FC
:1014F00000000000000000000000000000000000EC
:1015000000000000000000000000000000000000DB
:1015100000000000000000000000000000000000CB
:101520000000250000000000000000000000000096
:101530000000260000000000000000000000000085
:10154000000000000000000000000000000000009B
:10155000000000000000000000000000000000008B
:1015600000001E0027000000000000000000000036
:1015700000001E001E00000000000000000000002F
:10158000000000000000000000000000000000005B
:10159000000000000000000000000000000000004B
:1015A000000000000000000000000000000000003B
:1015B000000000000000000000000000000000002B
:1015C000000000000000000000000000000000001B
:1015D000000000000000000000000000000000000B
:1015E00000000000000000000000000000000000FB
:1015F00000000000000000000000000000000000EB
:1016000000000000000000000000000000000000DA
:1016100000000000000000000000000000000000CA
:1016200000001E001F00000000000000000000007D
:1016300000001E002000000000000000000000006C
:10164000000000000000000000000000000000009A
:10165000000000000000000000000000000000008A
:1016600000001E002100000000000000000000003B
:1016700000001E002200000000000000000000002A
:10168000000000000000000000000000000000005A
:10169000000000000000000000000000000000004A
:1016A000000000000000000000000000000000003A
:1016B000000000000000000000000000000000002A
:1016C000000000000000000000000000000000001A
:1016D000000000000000000000000000000000000A
:1016E00000000000000000000000000000000000FA
:1016F00000000000000000000000000000000000EA
:1017000000000000000000000000000000000000D9
:1017100000000000000000000000000000000000C9
:101720000000000000000000000034000000000085
:1017300000002C000000000000002B000000000052
:1017400000002F0200000000000034020000000032
:1017500000003702000000000000370237020000DE
:101760000000260200000000000036020000000019
:1017700000002D0037020000000036023602000093
:1017800000002F000000000000000000000000002A
:1017900000003802000000000000200200000000ED
:1017A00000002E02000000000000350000000000D4
:1017B00000003502000000000000370000000000BB
:1017C00000002E022E0200000000000000000000B9
:1017D0000000240200000000000024022402000097
:1017E00000003100000000000000000000000000C8
:1017F000000031003100000000001F020000000066
:1018000000000000000000000000000000000000D8
:1018100000000000000000000000000000000000C8
:1018200000002D000000000000000000000000008B
:1018300000002E0000000000000021020000000057
:1018400000003800000000000000380038000000F0
:1018500000002614000000000000380038003800A6
:1018600000002D002D00000000000000000000001E
:1018700000002D02000000000000210226020000EE
:1018800000003800250200000000000000000000F9
:10189000000038002502250200003800380038001A
:1018A00036022502000000000000000000000000D9
:1018B00000001E02000000000000370025020000AA
:1018C00000002502380000000000000000000000B9
:1018D0000000000000000000000021022F020000B4
:1018E00000002502260200000000000000000000A9
:1018F0000000310200000000000025023700250230
:1019000000002202000000000000000000000000B3
:101910000000310231020000000000000000000061
:101920000000DA5C00000000000000000000000081
:1019300000004D024C00000000000000000000000C
:101940000000000000000000000000000000000097
:101950000000000000000000000000000000000087
:101960000000000000000000000000000000000077
:101970000000000000000000000000000000000067
:101980000000000000000000000000000000000057
:101990000000000000000000000000000000000047
:1019A0000000000000000000000000000000000037
:1019B0000000000000000000000000000000000027
:1019C0000000000000000000000000000000000017
:1019D0000000000000000000000000000000000007
:1019E00000000000000000000000000000000000F7
:1019F00000000000000000000000000000000000E7
:101A000000000000000000000000000000000000D6
:101A100000000000000000000000000000000000C6
:101A20000000DA5CDA5C000000000000000000004A
:101A300000000000000000000000000000000000A6
:101A40000000000000000000000000000000000096
:101A50000000000000000000000000000000000086
:101A600000004A024C0000000000000000000000DE
:101A700000004A004D024C00000000000000000081
:101A80000000000000000000000000000000000056
:101A90000000000000000000000000000000000046
:101AA00000002502250200000000000000000000E8
:101AB0000000000000000000000000000000000026
:101AC0000000000000000000000000000000000016
:101AD0000000000000000000000000000000000006
:101AE00000000000000000000000000000000000F6
:101AF00000000000000000000000000000000000E6
:101B000000000000000000000000000000000000D5
:101B100000000000000000000000000000000000C5
:101B2000000027000000000000000000000000008E
:101B300000001E000000000000002900000000005E
:101B400000002F022700000000000000000000003D
:101B50000000000000000000000000000000000085
:101B600000001F0000000000000000000000000056
:101B70000000200000000000000000000000000045
:101B800000002F00270000000000000000000000FF
:101B90000000000000000000000000000000000045
:101BA0000000000000000000000000000000000035
:101BB0000000000000000000000000000000000025
:101BC0000000000000000000000000000000000015
:101BD0000000000000000000000000000000000005
:101BE00000002602270000000000000000000000A6
:101BF00000000000000000000000000000000000E5
:101C000000000000000000000000000000000000D4
:101C100000000000000000000000000000000000C4
:101C20000000210000000000000000000000000093
:101C30000000220000000000000000000000000082
:101C40000000000000000000000000000000000094
:101C50000000000000000000000000000000000084
:101C60000000230000000000000000000000000051
:101C70000000240000000000000000000000000040
:101C80000000000000000000000000000000000054
:101C90000000000000000000000000000000000044
:101CA0000000000000000000000000000000000034
:101CB0000000000000000000000000000000000024
:101CC0000000000000000000000000000000000014
:101CD0000000000000000000000000000000000004
:101CE00000000000000000000000000000000000F4
:101CF00000000000000000000000000000000000E4
:101D000000000000000000000000000000000000D3
:101D100000000000000000000000000000000000C3
:101D2000000025000000000000000000000000008E
:101D3000000026000000000000000000000000007D
:101D40000000000000000000000000000000000093
:101D50000000000000000000000000000000000083
:101D600000001E002700000000000000000000002E
:101D700000001E001E000000000000000000000027
:101D80000000000000000000000000000000000053
:101D90000000000000000000000000000000000043
:101DA0000000000000000000000000000000000033
:101DB0000000000000000000000000000000000023
:101DC0000000000000000000000000000000000013
:101DD0000000000000000000000000000000000003
:101DE00000000000000000000000000000000000F3
:101DF00000000000000000000000000000000000E3
:101E000000000000000000000000000000000000D2
:101E100000000000000000000000000000000000C2
:101E200000001E001F000000000000000000000075
:101E300000001E0020000000000000000000000064
:101E40000000000000000000000000000000000092
:101E50000000000000000000000000000000000082
:101E600000001E0021000000000000000000000033
:101E700000001E0022000000000000000000000022
:101E80000000000000000000000000000000000052
:101E90000000000000000000000000000000000042
:101EA0000000000000000000000000000000000032
:101EB0000000000000000000000000000000000022
:101EC0000000000000000000000000000000000012
:101ED0000000000000000000000000000000000002
:101EE00000000000000000000000000000000000F2
:101EF00000000000000000000000000000000000E2
:101F000000000000000000000000000000000000D1
:101F100000000000000000000000000000000000C1
:101F2000000000000000000008001500000008008C
:101F3000150000000C0011000A0008001500000048
:101F40000C0011000A000C0011000A0034001000FF
:101F500000003400160000003400070000003400C8
:101F60001900080034001500080034000F000F00AD
:101F70000000000000001100340017000000000005
:101F8000000007000000000000000000000000004A
:101F90000000000000000000000000000000000041
:101FA00000000000000011003400170000000000D5
:101FB000000007000000000000000000000000001A
:101FC0000000000000000000000000000000000011
:101FD0000000000000000000000000000000000001
:101FE00000000000CF5CCF5CD15CCF5CD15CD15CE9
:101FF000D25CCF5CCE5CD05C0000D25C0000000004
:102000000000D55C0000000000000000000000009F
:102010000000D15C00000000000000000000000093
:1020200000000000000000000000000000000000B0
:1020300000000000000000000000000000000000A0
:102040000000D65C0000000000000000000000005E
:102050000000000000000000000000000000000080
:102060000000240221022B00D75CE00000002F00BA
:10207000140004001D00240200002F021A001500A5
:102080001B00E2002A003002090016000600520080
:1020900028002602130017001900510046002E00E8
:1020A0000A000700050000000351E300490000009A
:1020B00029000000035301532A00000028000000FB
:1020C000035325020D000B000E00000003512702F0
:1020D0000F0011001000500000002E021800080030
:1020E00036004F002C0030001C000C00370031007F
:1020F0004C001E023300120034001F0200002002B8
:1021000038002D00D75CE40000003A00E200E00057
:10211000CD5CCD5C00003B002B00CD5CCD5CCD5C8C
:10212000CD5C3C002900CD5CCD5CCD5CCD5C3D0040
:10213000CD5CCD5CCD5C0100CD5C3E00CD5CCD5C6A
:10214000CD5C0100CD5C3F00CD5CCD5CCD5C000082
:10215000CD5CE300CD5C0000CD5C0000CD5C0100F7
:10216000CD5C0000CD5C0000CD5C4000CD5CCD5C62
:10217000CD5C0000CD5C4100CD5CCD5CCD5C010050
:10218000CD5C4200CD5CCD5CCD5C0100CD5C4300FC
:102190002A00CD5CCD5CCD5CCD5C44004C00CD5CB8
:1021A000CD5CCD5CCD5C4500E600E400CD5CCD5C53
:1021B0000000010035000100010001000000D85CB2
:1021C00001000100010022000100D85C01000100B3
:1021D000010001000100D85C0100010001000100C4
:1021E0000100D85C01000100010001000100D85C81
:1021F00001000100010000000100220001000000B8
:1022000001000000010001000100000001000000C9
:102210000100D85C01000100010000000100D85C51
:1022200001000100010001000100D85C0100010073
:10223000010001000100D85C010001000100010063
:102240000100D85C010001000100D85C0100D85CED
:10225000010001000100010000003A00010001003E
:10226000E100010000003B0001000100010001004D
:1022700001003C00010001000100010001003D00DF
:102280000100010001004B0001003E0001000100BF
:1022900001004E0001003F000100010001000000AC
:1022A0000100005C010000000100000001000000CE
:1022B00001000000010000000100400001000100D9
:1022C00001000000010041000100010001004A007E
:1022D000010042000100010001004D000100430027
:1022E00001000100010001000100440001000100A3
:1022F000010001000100450001000100E5000100AE
:1023000000000000000000000000000000001500B8
:1023100000801400008000000000000000000000A9
:102320000000210000802200008013000080420095
:102330000080000000000000000020000080360047
:102340000080370000804000008000000000120084
:102350000080340000803500008000000000010093
:102360000080000000001100008032000080330077
:10237000008000000000410000800000000010000C
:10238000008030000080310000800000000000006C
:1023900000800000000081000080000000000000BC
:1023A000008000000000000000800000000003002A
:1023B000008000000000030000800000000000001A
:1023C000008000000000700000805000008051007C
:1023D000008000000000000000800000000071008C
:1023E0000080520000805300008000000000420086
:1023F0000080000000007200008054000080550042
:1024000000800000000002000080000000000000CA
:1024100000007300008056000080570000804400D8
:1024200000800000000000000000740000806000D8
:102430000080610000804300008000000000000078
:1024400000000000000062000080620000800000C8
:10245000000016034500720067006F0044006F0023
:102460007800200045005A00000016034500720065
:1024700067006F0044006F007800200045005A009C
:1024800000000403090409023B00020100A0FA094C
:102490000400000103010100092111010001224093
:1024A000000705810308000A090401000103000078
:1024B00000092111010001223900070582032000D3
:1024C000011201100100000008EDFE0713010001D8
:1024D00002000105010906A101050719E029E71518
:1024E0000025019508750181020508190129059546
:1024F00005750191029501750391010507190029E0
:10250000F71500250195F875018102C0050109063E
:10251000A101050719E029E71500250195087501B6
:1025200081029501750881010508190129059505A4
:10253000750191029501750391010507190029FFA5
:10254000150026FF00950675088100C011241FBEE6
:10255000CFEFDAE0DEBFCDBF04B603FE27C0809127
:10256000310990913209A0913309B0913409873033
:10257000904BA740B04BD1F4109231091092320920
:10258000109233091092340914BE84B7877F84BF38
:102590000FB6F894A89580916000886180936000E0
:1025A000109260000FBEE0E0FFE3099511E0A0E0AB
:1025B000B1E0E0ECF9E602C005900D92A037B1075A
:1025C000D9F729E0A0E7B1E001C01D92A133B2071D
:1025D000E1F70E943B2F0C94DE340C940000109223
:1025E000B9008AE08093B800089594EA9093BC0003
:1025F0009091BC0097FFFCCF9091B900987F9830E4
:1026000021F0903111F081E008958093BB0084E8BF
:102610008093BC008091BC0087FFFCCF8091B90003
:10262000887F883111F0803471F780E0089584E963
:102630008093BC008091BC0084FDFCCF0895809302
:10264000BB0084E88093BC008091BC0087FFFCCF76
:102650009091B900987F81E0983209F480E0089564
:1026600084E88093BC008091BC0087FFFCCF809100
:10267000BB00089580B38C7080BB81B3836F81BB36
:10268000089580912801811115C080E40E94F512FF
:102690008093280181110CC082E10E941F13809356
:1026A0002801811105C08FEF0E941F13809328011C
:1026B0000E94171384B1807F84B985B1807F85B96A
:1026C0008AB1837F8AB98BB1837F8BB93E98469854
:1026D000089508950C94A21B0E944C208093280119
:1026E0000E9441130E943A1321E731E0E5ECF1E04A
:1026F0004EE04E0F119280E090E0D901A80FB91F73
:102700001C92019686309105C1F72A5F3F4F4E1308
:10271000F1CF0C94261D0E944C20809328010E942A
:1027200041130E943A13E5ECF1E08EE08E0F119216
:102730008E13FDCF089526E0829FC0011124FC0175
:10274000EF58FE4F20E030E080E041E050E0908123
:10275000992319F09150908307C0BA01022E01C04D
:10276000660F0A94EAF7862B2F5F3F4F319626308B
:10277000310569F7089596E0699FB001112420E0C2
:1027800030E090E04FE0FC01022E02C0F595E795A5
:102790000A94E2F7E0FF06C0F901E60FF71FEF58D1
:1027A000FE4F40832F5F3F4F2630310561F708957C
:1027B000AF92BF92CF92DF92EF92FF920F931F934F
:1027C000CF93DF9380912801882379F08091700165
:1027D0008F5F80937001811108C00E944C2080930C
:1027E0002801811102C00E94DE1F85ECE82E81E0E5
:1027F000F82E00E010E0CC24C394D12CAA24A3949A
:10280000C02F0730110500F58091280181113CC0CF
:1028100080E40E94F51280932801811112C082E1A8
:102820000E941F138093280181110BC0C601002E46
:1028300001C0880F0A94EAF780950E941F138093C5
:1028400028010E94171320C00A30A1F028F4083094
:1028500059F0093061F005C00C3089F070F00D308E
:1028600089F0209A289810C0219A29980DC0229AA0
:102870002A980AC0239A2B9807C0529A01C0539AEB
:102880005B9802C03E9A469880EA8A95F1F78C2FB1
:102890000E949B13D82F0730110518F5809128014D
:1028A000811144C080E40E94F5128093280188239E
:1028B00011F0B12C12C083E10E941F1380932801F4
:1028C0008111F7CF81E40E94F512809328018111D4
:1028D000F0CF0E943013B82EB0940E9417139B2D96
:1028E00026C08FB181708A25799902C092E001C01B
:1028F00090E0892B7C9902C094E001C090E0982B75
:102900007D9902C038E001C030E0932B7E9902C06F
:1029100020E101C020E0922B2FB12095221F222719
:10292000221F2295220F207E922B01C090E0F701FA
:1029300080819D23D095D823D92B6C2F8D270E9481
:10294000BB13F701D1937F010E9441130F5F1F4F0B
:102950000E30110509F054CF0E94281D81E0DF914F
:10296000CF911F910F91FF90EF90DF90CF90BF908C
:10297000AF900895E82FF0E0EB53FE4F808108956B
:102980000895FC0192819F7081E009F480E0089530
:10299000CF93DF93FC01A62FB0E08081982F977032
:1029A000292F30E026303105C4F56623B1F12F5FC1
:1029B0003F4FE901CC0FDD1FCE0FDF1F48814F7065
:1029C00001F5220F331FE20FF31F6F708081807FAC
:1029D000682B962F92959F702181822F837082950C
:1029E000807F892B8F5F982F9F738295807F6F7078
:1029F000862B808392959F70822F8C7F892B818379
:102A00000CC050E04A175B07E1F29F5F292F277047
:102A1000982F987F922B9083C0CFDF91CF9108950C
:102A2000CF936D3459F020F4683261F4C4E00BC0E8
:102A3000603531F0623531F4C3E005C0C0E003C059
:102A4000C2E001C0C1E06C2F0E94C8148C2FCF914E
:102A50000895DC0120E030E080E02F5F3F4FF90176
:102A6000EE0FFF1FEA0FFB1F9081492F4F70461397
:102A700009C092959F70418143704295407F942B8D
:102A8000890F02C0442319F02630310531F708952B
:102A900080915F0790916007A0916107B0916207F4
:102AA000892B8A2B8B2B69F481E040915B07509135
:102AB0005C0760915D0770915E07452B462B472BA5
:102AC00009F080E0817008951F93CF93DF93C82FA2
:102AD000162F0E94572BD82F8C2FC4FF02C082952F
:102AE000807F0E94672B812F0E94C1218D2FDF9153
:102AF000CF911F910C94672B10926307E4E6F7E0E7
:102B0000108212821182339688E0E432F807C1F70E
:102B1000089590916307E92FF0E09F01220F331F82
:102B2000E20FF31FEC59F84F8083728361839F5F3C
:102B30009093630708952F923F924F925F926F9206
:102B40007F928F929F92AF92BF92CF92DF92EF923D
:102B5000FF920F931F93CF93DF93CDB7DEB7A0976C
:102B60000FB6F894DEBF0FBECDBF0E947C150E9449
:102B7000572B8A8F82E10E94602B809112018D5C1D
:102B80008770880F880F880F809310098091110932
:102B90008E7F8093110980E090E00196FC01EE0F9A
:102BA000FF1FE05FF64F108221812C7F218386304A
:102BB000910599F78091D30122242A94280E27FEAB
:102BC00002C003E6202E222D022C000C330B3C8782
:102BD0002B8780915207382F31703D8782FB9927D0
:102BE00090F981FB332730F981FF05C0911105C0B1
:102BF00041E050E006C0992339F021E02327422F1D
:102C000050E05C8B4B8B02C01C8A1B8A83FB3324F5
:102C100030F8509156075F8B20915407332309F405
:102C2000B1C4992309F4AEC43F89EE24E394F12C96
:102C300031110FC03D85332341F08091550781113B
:102C400008C080915707811104C04701E114F104C5
:102C500069F09091590780915307892B8770809371
:102C600053071092590788248394912CE114F1049E
:102C7000B9F080915307882319F088608093530737
:102C800010924C0782E297E190934E0780934D0794
:102C900010924F0782E29FE0909351078093500774
:102CA0008EE04B855C85849FF001859FF00D11249B
:102CB000EC52FE4F8081982F929596959695937041
:102CC00081818170880F880F892B39F090E08353C0
:102CD000934A909313018093120122FF07C08091C1
:102CE000530783FF03C0877F8093530722E537E0B4
:102CF0003E8B2D8B46E151E0588B4F87398F288FC3
:102D00001A8A198AC12CD12C31E03E87612C712C92
:102D1000A88DB98D8D91B98FA88F29893A892F5F98
:102D20003F4F3A8B298B882309F473C131E03E87EA
:102D3000C114D10409F01E86AF85B8890D911C918C
:102D4000F601EA5CFE4F9081B4E0CB16D10439F471
:102D50002D85222309F40AC40AE717E007C433E0EB
:102D6000C316D104F9F48114910461F0E114F10463
:102D700031F080934C0794E000E010E003C094E051
:102D800002E217E142E16416710429F058E1651688
:102D9000710409F0EBC3282F2074220F8F77822B48
:102DA0008064E4C365E0C616D10451F48114910433
:102DB00009F4DCC3E114F104A1F080934F0729C1A9
:102DC0000115110509F425C1923009F4A3C018F4C6
:102DD000913081F01EC1933009F4EAC0943019F0AB
:102DE00018C102E21FE078E0879F20011124A12C86
:102DF000B12C03C1080F111D080F111DF801859199
:102E00009491009709F405C1A1E0CA16D10409F014
:102E100063C02091120130911301853DBCE59B07F1
:102E200089F0863DECE59E07F1F484ED9CE59093F6
:102E3000150180931401A0EDBCE5B0931301A0939C
:102E4000120126C043ED5CE5509315014093140137
:102E50006EEC7CE5709313016093120110924C07A5
:102E600010924F0715C0AC014E5C5C4545305105D2
:102E700028F490931301809312010AC0AC01435DC2
:102E80005C454230510520F4909315018093140164
:102E90008114910409F4BDC0E114F10409F0B9C032
:102EA000809112018D5C482F4295440F440F407C65
:102EB000909110099F73942B9093100982FB99278E
:102EC00090F9809111098E7F892B8093110930939D
:102ED0001301209312019DC0B2E0CB16D10409F07A
:102EE00098C08C30910549F4809155078064809397
:102EF0005507BCE06B2E712C8CC08231910521F0FE
:102F00008831910509F084C02091550720682093ED
:102F100055077EC046E0849F900111243C8F2B8F83
:102F2000412C512C9301215031093E8F2D8F6F8EF2
:102F3000EB8DFC8DE40DF51DE00FF11F94919923AD
:102F400009F467C033E0C316D10441F4943031F47E
:102F50004D8D5E8D4C3C5C4508F49F8DA92EB12CA7
:102F6000B50182E098A30E94891598A1943141F49B
:102F70009F89992329F068E170E082E00E94891519
:102F80002B893C89232B59F035E0C316D10439F441
:102F90004114510421F4B50182E00E9489154FEFDC
:102FA000441A540A56E04516510409F0C1CF31C005
:102FB00066E0869F20011124A12CB12CF501E40DBF
:102FC000F51DE00FF11F659174916115710509F10F
:102FD00083E00E94891572E0A70EB11C86E0A81656
:102FE000B10461F716C084E00E94891592E0A90E31
:102FF000B11CA8E0AA16B10461F0F501E40DF51DBD
:10300000E00FF11F659174916115710561F701C0C1
:103010003C0129893A892930310551F04FEFC41A12
:10302000D40A2F8538892E5F3F4F388B2F8770CE7B
:1030300020916307211111C031100CC08091120141
:10304000909113018F3C9C4508F44CC082E00E9493
:103050005A2B48C04D854111F1CF809114019091B8
:103060001501833D5CE5950749F0843D9C4509F4D5
:1030700082C2222319F300E010E005C0222309F4E4
:103080001FC20CE210E0B12C809165079091660799
:103090008833910560F48633910508F588329105EF
:1030A00060F08A329105D8F0C39739F418C08A3499
:1030B0009105A9F08D34910591F0892839F080911E
:1030C0005307882319F0E114F10449F001151105A3
:1030D00031F0332009F4FCC1222309F4F6C1BB20EE
:1030E00009F4ACCF00E010E0BE016F5F7F4F7B01C1
:1030F000E0E5CE2ED12C3E017BE0670E711CFEEC8C
:103100004F2EFCE55F2E80916307081708F0B2C0D0
:10311000A02EB12CC501880F991F8A0D9B1DDC01C3
:10312000AC59B84F5D018C91833099F0843071F1C6
:10313000823009F088C011968C910E94C121F5015E
:1031400081810E949D2261E080E199E00E94C81483
:103150001BC011969C90119712968C919CEF990D23
:103160009A3120F4892D0E94C12103C0692D0E944B
:103170006415892D0E949D22692D80E199E00E94AD
:103180001015813009F05FC01F5F5DC0F7012AE0B4
:1031900011922A95E9F71196AD90BC901297BBED6C
:1031A000AB16BCE5BB06A1F0ECEDAE16ECE5BE0639
:1031B000A1F0FAEDAF16FCE5BF06E1F420E533E03F
:1031C0003A8329834AE250E05C834B83470134C051
:1031D000DA82C982DC82CB82F9CF62E570E07A8341
:1031E00069838DE490E09C838B83A8E2B0E0BE838A
:1031F000AD83ECCF6A2D8B2D0E9464158A2D0E9421
:103200009D226A2D80E199E00E9410158130F1F62F
:103210001F5FDCCF6A2D8B2D0E9464158A2D0E94C2
:103220009D226A2D80E199E00E941015813009F4F9
:103230001F5F8614970439F0F401A190B1904F01FB
:10324000A114B10439F7113099F4809112019091D1
:1032500013018F3CFCE59F0721F0803D9C4529F040
:1032600007C0509213014092120182E00E94602B2D
:103270000F5F49CF112381F08091120190911301CA
:10328000813D9C4549F48EEC9CE59093130180931D
:10329000120182E00E94602B80E199E00E94C1143B
:1032A0008823C9F08091D301843611F41092D301A0
:1032B0002091D30181E0820F8093D3013EE023036C
:1032C000D0011124AC52BE4FE0E1F9E001900D9223
:1032D0003A95E1F7E9C04D85442309F4E5C08EE055
:1032E0002B853C85829F8001839F100D11240C52F9
:1032F0001E4FC8010E94C114882309F4CDC0332099
:1033000009F43FC08AE20E94C1218AE20E949D2204
:10331000D8012C91277030E087E0EB85FC858E9FEB
:10332000A0018F9F500D1124FA01E20FF31FEE0F41
:10333000FF1FEA52FE4F9081892F8F708130B9F4C0
:1033400092959F702181822F83708295807F982B28
:10335000915C892F8F739295907F91609083982FC5
:1033600092959F70822F8C7F892B818303C021507F
:103370003109D0F661E0C8010E942915811194C07D
:1033800088C02E85222309F48FC0D8010C910770C4
:1033900010E087E02B853C85829F5001839FB00C15
:1033A0001124C12CD12C7501E00EF11EC701880F2C
:1033B000991FFC01EA52FE4F7F01D7018C91982F93
:1033C00092959F7011962C9123702295207F292B26
:1033D00030E0C216D306C4F58F7090E082309105BC
:1033E00021F13CF4019761F58AE20E94C1218AE251
:1033F00025C083309105F1F0049711F581EE0E940C
:10340000C12182E50E94C12182E50E949D228DE4B6
:103410000E94C1218DE40E949D2281EE0E949D2286
:103420008CE40E94C1218CE409C08FE40E94C12178
:103430008FE404C081E50E94C12181E50E949D22A4
:103440003FEFC31AD30AB9CF0150110908F0A9CF31
:103450008EE02B853C85829FF001839FF00D112427
:10346000EC52FE4F8081282F2295269526952370B9
:1034700091819170990F990F922B59F086958695AD
:103480008695877090E08353934A909313018093BD
:1034900012012092D30108C0332031F08AE20E9449
:1034A000C1218AE20E949D228A8D0E94672BAD89EC
:1034B000BE891D92BE8BAD8BAB55B740C1F76BC0BB
:1034C000B12C0CE210E0332019F02D85211107CE2C
:1034D00080914C07811110C080914F0781110CC061
:1034E000602F0E946415802F0E949D2261E080E180
:1034F00099E00E94C814F3CDEF2809F0F0CD0CE458
:1035000017E0D8018C91811107C00D5F1F4FB7E004
:1035100002351B07B1F7E3CDC12CD12CF801808116
:103520000180F281E02D28E0829FE00DF11D112441
:10353000C601880F991FE80FF91FE590F490E11478
:10354000F10419F36E2D8F2D0E9464158E2D0E94AB
:103550009D226E2D80E199E00E9410153FEFC31A65
:10356000D30A44E0C416D104C9F6CFCF0115110522
:1035700009F02ACC53CDB32C222309F4B0CD00E0BE
:1035800010E082CD4F89E12CF12C442309F452CB79
:10359000812C912C85CBA0960FB6F894DEBF0FBE80
:1035A000CDBFDF91CF911F910F91FF90EF90DF90F2
:1035B000CF90BF90AF909F908F907F906F905F90D3
:1035C0004F903F902F900895CF92DF92EF92FF920D
:1035D0000F931F93CF93DF93EB01873D0CE590078B
:1035E00009F475C0883D1CE5910709F486C08D3C3F
:1035F0009C4509F09CC08881E98196E0E99FF00133
:103600001124E80FF11DEE0FFF1FEE0FFF1FEE5FFD
:10361000FC4D85919591A591B491B7FF66C09C0131
:103620002F70332741E050E060E070E004C0440FA9
:10363000551F661F771F2A95D2F724E0B695A795E8
:10364000979587952A95D1F78F70282F30E0D9016B
:10365000A15CBE4FF901EE0FFF1FE050FF4F01903C
:10366000F081E02DCA817A018B010C9004C0EE0C30
:10367000FF1C001F111F0A94D2F7D801C701C08098
:10368000D180E280F380CC2379F08C299D29AE296A
:10369000BF2980839183A283B383F901EE5AF84F47
:1036A0008081482B408321C080959095A095B0954E
:1036B0008C219D21AE21BF2180839183A283B3837E
:1036C0000E944815882389F00E949B1531C089818A
:1036D000882311F085EE01C081EECA81CC2339F038
:1036E0000E94C12182E00E947D29C0E021C00E9489
:1036F0009D2282E00E949E291BC06881798180E022
:103700000E94331D64E170E00E948E34FC01EE0FD4
:10371000FF1FE85BFE4F60818181CA81CC2319F0D5
:103720000E946415E2CF862F0E949D2201C0C1E055
:103730008C2FDF91CF911F910F91FF90EF90DF9031
:10374000CF9008956091BE087091BF088091C00825
:103750009091C1080E94932B25982D9826982E9819
:1037600027982F98813029F0833029F4269A2E9AB1
:1037700002C0259A2D9A0E944815811102C0279AED
:103780002F9A089581E008950C94E41A0E94572519
:103790002FEF84E39CE0215080409040E1F700C08F
:1037A00000000C94682DFF920F931F93CF93DF932B
:1037B0008C01FC01C081D18180914E08811113C020
:1037C0008281882349F0CE010E94782AF82E682F42
:1037D000CE010E941B2A04C0CE010E944B2AF82E63
:1037E000BE018F2D04C0CE010E94782ABE010E9426
:1037F000331DEC01B8010E94C41B882309F41FC1CA
:10380000B801CE010E948F1F882309F418C1C53169
:10381000FCE5DF0709F5F8018281811103C0CCEED8
:10382000DAE202C0C5EEDAE20E94572B8A7A11F47E
:1038300089E201C085E3FE0109950E94242B81E005
:103840008093280880932908C801DF91CF911F91A8
:103850000F91FF900C94C21BC6318CE5D80708F07D
:1038600071C0C130ECE5DE0759F4F801828188238C
:1038700009F4E5C08091EB0881608093EB08DFC01C
:10388000C230FCE5DF0708F451C0F80182818823CB
:10389000D9F20E94FD2B811102C00E94E32B0E94ED
:1038A000102C90E09093230980932209FE01E350AD
:1038B000FC45E231F10530F4EA5AFF4F80912209CC
:1038C0000C94A23480912209816027C0826025C0B7
:1038D000846023C0806121C080621FC080641DC0DD
:1038E00080681BC08460886018C08E7F16C08D7F82
:1038F00014C08B7F12C08F7E10C08F7D0EC08F7B57
:103900000CC08F770AC08B7F877F07C087FB222779
:1039100020F991E0922790FB87F98093220980910A
:1039200022090E94142C0E94572589C0C115DC452C
:1039300009F085CFF8018281882309F480C00E94B4
:10394000C61B7DC0C83CECE5DE0781F5F80182812D
:10395000882361F0109229080E940C2D909327086B
:103960008093260880E20E94FC2269C00E94572BA7
:1039700081FF05C081E08093280880932908809109
:10398000290881110FC080912608909127080E9474
:10399000182D883C910530F487E20E94C12187E20E
:1039A0000E949D2280E20E94032349C0C93CFCE59D
:1039B000DF0780F5C73CDC4509F041CFF801828183
:1039C000882351F0109228080E940C2D909325080E
:1039D0008093240882E0C7CF0E94572B85FF05C043
:1039E00081E080932808809329088091280881111C
:1039F0000FC080912408909125080E94182D883CC2
:103A0000910530F486E20E94C12186E20E949D2247
:103A100082E0C9CFCB3CECE5DE0731F4F8018281CE
:103A2000882369F080E009C0CC3CDC4509F007CF71
:103A3000F8018281882319F082E00E94CE2F80E075
:103A4000DF91CF911F910F91FF9008950C94362034
:103A50000C946A1308950C942A1D0C942B1D80E07D
:103A600090E00895089596E0799FF001112494E57F
:103A7000899FE00DF11D1124E60FF11DEE0FFF1FD0
:103A8000EE59FF4D859194910895880F991FFC017F
:103A9000EE59FF4D859194910895CF93DF930E9445
:103AA000331D0E94E51EEC01811520E49207B0F55C
:103AB000811540E3940708F0E1C0803E9105D0F401
:103AC000803C910508F06FC0883A910570F4853A02
:103AD000910508F06BC08130910509F472C108F4BA
:103AE00029C1049708F06DC125C18D3B910508F4EB
:103AF00068C020C18F3F910509F048F4803F9105CF
:103B000008F0B6C0883E910508F45BC113C1811569
:103B100050E2950708F455C19F70ACC0811564E56B
:103B20009607D8F4C11583E5D80708F0E2C0C1159F
:103B300021E5D20740F4C11540E5D40708F0A7C03D
:103B4000DF70D06A3EC1C11552E5D50708F0BBC091
:103B5000DC2FCC27C16FD06A34C1811566E596078A
:103B600050F4C11585E5D80708F0D9C0DC2FCC2763
:103B7000C46FD06A26C1811528E5920708F4DAC01F
:103B8000811549E5940708F4D0C0905681159042FC
:103B900008F0D0C08D2F8F710E94621FDD27D06288
:103BA0008F71D82B0EC1805C910964C0853A910554
:103BB00009F4C3C0863A910509F0C2C0C2E8D0E456
:103BC00000C1883A910509F4BEC0893A910509F40B
:103BD000BDC08A3A910509F4BCC08B3A910509F43D
:103BE000BBC08C3A910509F4BAC08B3B910509F42E
:103BF000B9C08C3B910509F4B8C08D3A910509F420
:103C0000B7C0803B910509F4B6C08E3A910509F41E
:103C1000B5C08F3A910509F4B4C0813B910509F410
:103C2000B3C0823B910509F4B2C0833B910509F40E
:103C3000B1C0843B910509F4B0C0853B910509F4FE
:103C4000AFC0863B910509F4AEC0873B910509F4EE
:103C5000ADC0883B910509F4ACC0893B910509F4DE
:103C6000ABC08A3B910509F4AAC0C0E0D4E4A9C066
:103C7000D065A7C00E94451DEC01A3C09927D3FFC2
:103C800003C0EC01D86C9DC0EC01D06C9AC02C2F05
:103C9000237081E090E002C0880F991F2A95E2F717
:103CA0009C689E0144E0369527954A95E1F723707C
:103CB000922BCF70C695C69560E2C69FE001112495
:103CC000C82BD92B7EC02C2F2695269580E2289FC5
:103CD00090011124C370DD2781E090E0AC0102C0A7
:103CE000440F551FCA95E2F7EA01C22BD32BDC68BB
:103CF00068C02C2F2695269580E2289F90011124DC
:103D0000C370DD2781E090E0AC0102C0440F551F75
:103D1000CA95E2F7EA01C22BD32BDA6852C0CF7101
:103D2000DD27DC2FCC27D0624CC0DC2FCC27C06F26
:103D3000D06A47C0C0E0D0E044C0C1E8D0E441C090
:103D4000C3E8D0E43EC0C2EED4E43BC0C9EED4E444
:103D500038C0CAEED4E435C0C5EBD4E432C0C6EBFB
:103D6000D4E42FC0C3EBD4E42CC0C4EBD4E429C00A
:103D7000C7EBD4E426C0CCECD4E423C0CDECD4E42F
:103D800020C0C3E8D5E41DC0CAE8D5E41AC0C2E922
:103D9000D5E417C0C4E9D5E414C0C1E2D6E411C02B
:103DA000C3E2D6E40EC0C4E2D6E40BC0C5E2D6E45A
:103DB00008C0C6E2D6E405C0C7E2D6E402C0CAE243
:103DC000D6E4CE01DF91CF9108958238910549F173
:103DD000B0F48133910509F458C048F48932910553
:103DE00009F44EC08A32910509F454C00895853310
:103DF000910509F440C08933910599F00895833EF7
:103E0000910529F138F4803E910591F0823E9105AB
:103E1000A1F00895863E9105F9F0873E910531F1B4
:103E200008952091220920FD3AC021FD38C008954F
:103E30008091220980FD35C032C08091220982FF25
:103E400032C08091220984FD30C083EE39C0809158
:103E5000220982FD28C0F5CF8091220983FF27C067
:103E60008091220984FD21C087EE2AC08091220919
:103E700083FD1DC0F5CF8091220985FD1AC01BC0AE
:103E80008091220985FD17C014C08091220986FD0A
:103E900014C015C08091220986FD11C00EC080EEAD
:103EA0000FC089E30DC082EE0BC080E009C086EE32
:103EB00007C089E205C085E303C08AE201C081E34F
:103EC00090E00895CF93C82F0E94102C90E090931B
:103ED00023098093220982FF0DC09C2F987198308E
:103EE00019F4C77FC46006C09C2F9471943011F4FC
:103EF000CB7FC86083FF0DC09C2F9871983119F457
:103F0000C77EC46106C09C2F9471943111F4CB7E9E
:103F1000C86184FDC77E8C2FCF91089508950F93BB
:103F20001F93CF93FB012281211102C0C1E041C048
:103F30008C01C0913708C11125C086319C45B1F76D
:103F40000E948E1F81E0809337080E940C2D909371
:103F500036088093350810922A0810922C08109287
:103F60002B0810922E0810922D08109230081092F3
:103F70002F081092320810923108109234081092D3
:103F8000330817C080913508909136080E94182D8B
:103F9000883C910558F690912A08E92FF0E0EE0F41
:103FA000FF1FE55DF74F118300839F5F90932A0801
:103FB000C0E08C2FCF911F910F91089556985E9875
:103FC00025982D9826982E9827982F988FEF90E077
:103FD000909389008093880090938B0080938A004F
:103FE00090938D0080938C00259A2D9A2FEF80E777
:103FF00092E0215080409040E1F700C00000269AF6
:104000002E9A2FEF80E792E0215080409040E1F718
:1040100000C00000279A2F9A2FEF80E792E02150EE
:1040200080409040E1F700C0000025982D982FEFC8
:1040300080E792E0215080409040E1F700C000000E
:1040400026982E982FEF80E792E0215080409040F4
:10405000E1F700C0000027982F9856985E982598A1
:104060002D9826982E9827982F98089589EA80935E
:10407000800089E08093810024982C983F988AB131
:104080008F7C8AB96E98479A8BB180638BB9769A88
:104090000E94DE1F0C94691380E2809328018091B6
:1040A000380881110EC00E94EF1281E08093380819
:1040B0002FEF83ED90E3215080409040E1F700C066
:1040C000000080E40E94F5128093280181112EC027
:1040D0000E941F1380932801811128C00E941F1382
:1040E00080932801811122C08FE30E941F138093C7
:1040F000280181111BC00E94171380E40E94F51251
:1041000080932801811112C08CE00E941F138093BC
:10411000280181110BC00E941F1380932801811177
:1041200005C08FE30E941F13809328010E9417137C
:1041300080912801089590933E0880933D0808954A
:10414000E0913D08F0913E08309721F00190F08118
:10415000E02D099480E00895E0913D08F0913E083B
:10416000309721F00280F381E02D09940895209189
:104170003B0830913C088217930771F090933C08FC
:1041800080933B08E0913D08F0913E08309721F084
:104190000680F781E02D0994089520913908309127
:1041A0003A088217930771F090933A088093390880
:1041B000E0913D08F0913E08309721F00084F185B0
:1041C000E02D0994089508950C94E3200E94032D96
:1041D0000E946C130E948A2DE2E2F9E080818068DF
:1041E00080830895CF92DF92EF92FF920F931F93F7
:1041F000CF93DF93CDB7DEB72B970FB6F894DEBF22
:104200000FBECDBF0E94D81380E4C82E88E0D82E00
:1042100000E010E0E02E802F0E94BA14F6014191D8
:104220006F01F42EF826B1F40F5F1F4F0E30110509
:1042300089F78FEF89838A831B820E940C2D81600E
:10424000782F9D838C8349815A816B818D810E9457
:10425000932140C09091EB0891FF04C08B870E948E
:10426000C0148B8520E030E04F2D50E0922FBA0132
:10427000022E02C0759567950A94E2F760FF24C08C
:104280002E83EF8221E030E0690102C0CC0CDD1CFE
:104290009A95E2F790E08C219D21892B09F420E08A
:1042A00028870E940C2D8160782F9A8789874E81FC
:1042B0005F8168858A850E949321F801E05CF74F51
:1042C0008081C826C08206C02F5F3F4F263031054F
:1042D00069F6AACF10913F080E94A0201817A1F0FC
:1042E0000E94A02080933F082B960FB6F894DEBF63
:1042F0000FBECDBFDF91CF911F910F91FF90EF9037
:10430000DF90CF900C942D1D2B960FB6F894DEBF46
:104310000FBECDBFDF91CF911F910F91FF90EF9016
:10432000DF90CF900895CF93DF93CDB7DEB72B9773
:104330000FB6F894DEBF0FBECDBF4F835887698795
:104340007A878B87DE01119686E0FD0111928A95AE
:10435000E9F785E0FE01379601900D928A95E1F725
:1043600049815A816B817C818D819E810E94EF27DA
:104370002B960FB6F894DEBF0FBECDBFDF91CF9165
:104380000895882309F4D8C0682F823879F40E94F0
:10439000A02081FDD1C069E38091290190912A017B
:1043A0000E94752C0E94242B69E310C08338B1F45D
:1043B0000E94A02080FDC0C063E5809129019091FA
:1043C0002A010E94752C0E94242B63E5809129010B
:1043D00090912A010E94802C0C94242B843879F42B
:1043E0000E94A02082FDA8C067E4809129019091DD
:1043F0002A010E94752C0E94242B67E4E7CF8CEFE2
:10440000860F813A38F48091290190912A010E9407
:10441000752CE2CF80E2860F883048F4677081E027
:1044200001C0880F6A95EAF70E945A2BD5CF8BE519
:10443000860F833070F4653A29F0663A31F083E8EC
:1044400090E005C081E890E002C082E890E00C9422
:10445000B72088E5860F853108F06EC0683A61F1B3
:10446000693A69F16A3A71F16B3A79F16C3A81F122
:104470006B3B89F16C3B91F16D3A99F1603BA1F195
:104480006E3AA9F16F3AB1F1613BB9F1623BC1F10A
:10449000633BC9F1643BD1F1653BD9F1663BE1F186
:1044A000673BE9F1683BF1F1693BF9F16A3B09F4DB
:1044B0003FC080E090E03EC082EE90E03BC089EEDD
:1044C00090E038C08AEE90E035C085EB90E032C0D5
:1044D00086EB90E02FC083EB90E02CC084EB90E063
:1044E00029C087EB90E026C08CEC90E023C08DECD7
:1044F00090E020C083E891E01DC08AE891E01AC0F6
:1045000082E991E017C084E991E014C081E292E071
:1045100011C083E292E00EC084E292E00BC085E21B
:1045200092E008C086E292E005C087E292E002C015
:104530008AE292E00C94CD200895882309F45BC0B0
:10454000682F823879F40E94A02081FF54C069E36B
:104550008091290190912A010E94752C0E94242BA0
:1045600069E310C08338B1F40E94A02080FF43C0EB
:1045700063E58091290190912A010E94752C0E9487
:10458000242B63E58091290190912A010E94802CBF
:104590000C94242B843879F40E94A02082FF2BC035
:1045A00067E48091290190912A010E94752C0E9454
:1045B000242B67E4E7CF8CEF860F813A18F380E273
:1045C000860F883048F4677081E001C0880F6A95D3
:1045D000EAF70E94602BDCCF8BE5860F833020F456
:1045E00080E090E00C94B720685A653120F480E0B8
:1045F00090E00C94CD200895882321F00E945A2B3E
:104600000C94242B0895882321F00E94602B0C9495
:10461000242B08958F929F92AF92BF92CF92DF92F8
:10462000EF92FF920F931F93CF93DF931F92CDB71B
:10463000DEB77C01C72EFC01158112951F70028127
:10464000002321F069830E947A2B698169830E948B
:104650001D2B6981882381F0002371F080E2860F91
:10466000883050F082E00E94062B0E941D2B91E0C2
:10467000D82ED926698101C0D12CAC2CA2948FE010
:10468000A822B12CF501E859FF4F0C94A2348C2DCF
:10469000807F1C2D1F70882311F01295107F00233E
:1046A000C1F0112309F46FC180E2860F883010F049
:1046B000611105C0812F69830E945A2B04C0812F8C
:1046C00069830E946D2B698169830E94242B698113
:1046D0005AC1862F69830E949D226981112309F4A2
:1046E00075C180E2860F883010F0611104C0812FFF
:1046F0000E94602B03C0812F0E94732B0E94242BE9
:1047000065C19C2D907F8C2D8F70903211F0829519
:10471000807F662319F06130B1F01EC0002349F09C
:10472000112309F4E9C0113009F0E6C00E948D2B75
:104730004DC1112319F0113009F448C189830E9439
:10474000902B8981DFC0002321F0123008F03EC198
:10475000D3C011113BC1D6C0002321F0112309F4AD
:10476000CBC011C1112309F4CDC01EC18C2D8370A3
:1047700009F052C0011136C1862F82958695877047
:10478000880F880F962F9F70892E912CA12CB12C09
:10479000082E04C0880C991CAA1CBB1C0A94D2F7D2
:1047A00064FF14C00FE010E020E030E0B901A80180
:1047B00004C0440F551F661F771F8A95D2F7CB019F
:1047C000BA01609570958095909503C060E070E0A7
:1047D000CB012C2D26952695237030E02230310513
:1047E00069F02330310589F0682979298A299B29C4
:1047F0002130310571F00E943229F4C068297929ED
:104800008A299B290E944429EDC00E943229C501B2
:10481000B4010E942029E6C0002319F08C2D81707C
:1048200001C08695882309F4DDC0862F8295869580
:104830008770880F880F962F9F70892E912CA12C3E
:10484000B12C082E04C0880C991CAA1CBB1C0A940D
:10485000D2F764FF14C00FE010E020E030E0B901AF
:10486000A80104C0440F551F661F771F8A95D2F711
:10487000CB01BA01609570958095909503C060E07A
:1048800070E0CB012C2D269526952370422F50E009
:104890004230510569F04330510589F06829792982
:1048A0008A299B294130510571F00E94F6299AC04E
:1048B000682979298A299B290E94082A93C00E9485
:1048C000F629C501B4010E94E4298CC0862F90E02E
:1048D000FC01E05EF109E531F10508F050C0E8584F
:1048E000FF4F0C94A234162F1F708C2D8F71002354
:1048F00031F00E947D29812F0E94FC2267C00E9416
:104900009E29812F0E94032361C0002339F01111D9
:104910005DC08C2D8F710E94C32958C0123008F0E1
:1049200055C0F7CF002339F08C2D8F710E947D295F
:104930004DC00023C9F38C2D8F710E949E2946C063
:10494000002329F08C2D8F710E9468293FC00E949E
:1049500063293CC0002351F01C2D1F71812F0E9440
:104960007D2963E0812F0E94FD2A30C081E00E94F2
:10497000062B123058F182E00E94062B27C000233C
:1049800031F0112389F2862F0E94C1211FC011230B
:1049900091F2693349F45FEF77EE83E05150704054
:1049A0008040E1F700C00000862F0E949D220EC0CB
:1049B0004C2D4F70C7010E942F1D0E94932816C0D6
:1049C0004C2D4F70C7010E94321D10C098E0A916EF
:1049D000B10441F05CF0FAE0AF1AB10822E0A2168F
:1049E000B10420F40E94A0200E942D1DDD20F1F0D2
:1049F0000E94F92A80FD1AC0F70112820E94F32A50
:104A00000E947D29C7010E9424250E94F32A0F904D
:104A1000DF91CF911F910F91FF90EF90DF90CF909A
:104A2000BF90AF909F908F900C949E290F90DF9134
:104A3000CF911F910F91FF90EF90DF90CF90BF909B
:104A4000AF909F908F9008950F931F93CF93DF9314
:104A5000EC01888199812B813C81232BB9F09F3F08
:104A600011F48F3F99F0CE010E94D31B882371F07F
:104A7000688179818A810E94C22A8C010E941A2A47
:104A80000E941D29B801CE010E940A23DF91CF9117
:104A90001F910F9108950E947A2B0E948A2B80917A
:104AA000290190912A010E948B2C0C94242B0E94A6
:104AB0006A2B0C944B250E94B72AE92FE295EF70E0
:104AC000F0E03297EE30F105B0F4E357FF4F0C946D
:104AD000A234803F91F018F4803E68F40EC0843F09
:104AE00051F40BC0803E48F0813F29F406C093FB8F
:104AF000882780F9089580E0089581E00895CF9394
:104B0000DF9300D000D01F92CDB7DEB70F900F908B
:104B10000F900F900F90DF91CF910895CF93DF9377
:104B200000D000D000D0CDB7DEB726960FB6F894EF
:104B3000DEBF0FBECDBFDF91CF9108951F93CF93FE
:104B4000DF93C0914F0816E080915008C81799F084
:104B5000D0E01C9FF0011D9FF00D1124EF5AF74F7C
:104B60004081518162817381848195810E948E256B
:104B70002196C770E9CFDF91CF911F9108954091A1
:104B80008108509182086091830870918408809117
:104B90008508909186080C948E25809186088295D0
:104BA0008F7009F054C080918308882309F44FC0A6
:104BB00080914F08A09150086091810870918208FF
:104BC0004091840850918508B6E08A1709F43FC0E7
:104BD00090E041155105C1F17F3F11F46F3FA1F104
:104BE000B89FF001B99FF00D1124EF5AF74F2181C2
:104BF00072132AC02081621327C02281211124C090
:104C0000238134812417350710F421503109241BE6
:104C1000350B283C3105C0F4209186082F702061A7
:104C20002093860826E0289FF001299FF00D11248B
:104C3000EA5AF74F80818F708061808381E898E025
:104C40000E9424250C949E2501968770BECF08955E
:104C5000CF92DF92EF92FF920F931F93CF93DF9348
:104C6000CDB7DEB762970FB6F894DEBF0FBECDBFEB
:104C70008C0185E0F801DE011D9601900D928A9568
:104C8000E1F7D8014C9111965C91119712966C91B5
:104C900012971396CD90DC90149730918108709103
:104CA00082088091840890918508009709F46BC16F
:104CB0007F3F19F43F3F09F466C1E0908308EE207E
:104CC00009F4C0C020918608C816D90628F0F6015C
:104CD000E81BF90BCF0104C0809590958C0D9D1DAC
:104CE000FF24F394883C910578F0F12C207F09F0A3
:104CF000C6C07C2DD98AC88A89890E947F2581E80F
:104D000098E00E942425B1C0822F807F09F046C020
:104D1000751314C0341312C0611110C02F702061BC
:104D2000209386080E94BF2581E898E00E942425F0
:104D300080918608D80115968C932EC0CD2819F144
:104D40005F3F11F44F3FF9F0F62E61111CC08091C6
:104D50004F082091500836E0821709F45AC090E0BD
:104D6000389FF001399FF00D1124EF5AF74F7181F0
:104D7000571306C07081471303C07281711103C0BD
:104D800001968770E9CFF62E662309F418C1809149
:104D90008608816080938608F12C11C1751308C0C4
:104DA000341306C0611104C080918608D801C3C0C5
:104DB0004D875E878D859E856A8B0E945B256A89FB
:104DC0008823E1F16623D1F120918608822F829514
:104DD0008F7090E0029774F0809181089091820822
:104DE00098878F831986DB86CA862C87CE01079623
:104DF0000E94242586E0F801A1E8B8E001900D9218
:104E00008A95E1F70E94CD250E94BF25FF24F394E7
:104E1000D6C04D875E878D859E850E94B72A292F33
:104E200022952F7030E0223031050CF0BCC09F700D
:104E300009F0B6C0805E883008F4C1C0C8010E9485
:104E40002425E4CFC816D90608F453C0F601E81BA0
:104E5000F90BCF01883C910508F450C0F12C7C2D52
:104E6000D98AC88A89890E947F25E1E8F8E086E02E
:104E7000DF011D928A95E9F70E94BF25A0C0751336
:104E800014C0341312C0611110C080918608F8015B
:104E90008583C8010E94242586E0E1E8F8E0DF016F
:104EA0001D928A95E9F7FE2C8AC04D875E878D8515
:104EB0009E856A8B0E945B256A89882309F4BECF90
:104EC000662309F4BBCF20918608822F82958F70CC
:104ED00090E002970CF48ECF809181089091820827
:104EE0009A8389831B82DD82CC822E83CE01019638
:104EF0007FCF809590958C0D9D1DACCFF62E6623AF
:104F000009F49CCF75132EC034132CC02091860851
:104F100020FD1FC0822F82958F70D9F0D801159681
:104F20002C9315978F3049F08F5F982F9295907F33
:104F3000822F8F70892B15968C93C8010E9424258F
:104F400086E0F801A1E8B8E001900D928A95E1F7BA
:104F500093CF86E0F801A1E8B8E001900D928A9520
:104F6000E1F72DC04D875E878D859E850E945B256C
:104F7000811140CF80918608816080938608C801A6
:104F80000E9424251CC0662309F458CF4D875E87F4
:104F90008D859E850E945B25882309F44FCF2ACFFB
:104FA000811148CF0CC0243031050CF047CF9F70E1
:104FB00009F440CFF8019581907F09F03BCF8F2D08
:104FC00062960FB6F894DEBF0FBECDBFDF91CF91D2
:104FD0001F910F91FF90EF90DF90CF9008951F9356
:104FE000CF93DF93CDB7DEB72C970FB6F894DEBF23
:104FF0000FBECDBF4F83588769877A878B879C8781
:10500000CE0107960E942826882369F08F81988513
:105010002A853B85232BF1F19F3F09F063C08F3F29
:1050200009F060C037C086E0FE013796DE011196B8
:1050300001900D928A95E1F76F817885EA85FB856D
:10504000309741F17F3F11F46F3F21F120915008DB
:1050500030E0C90101968770992740914F0850E0D0
:105060008417950709F447C069837A83FD83EC832D
:1050700096E0929FD001939FB00D1124AF5AB74F85
:10508000FE01319601900D929A95E1F780935008B8
:105090000E949E2516E080914F0890915008891734
:1050A000C1F1189FC00111248F5A974F0E942826E2
:1050B000882379F1E0914F081E9FF0011124EF5AE7
:1050C000F74F4081518162817381848195810E9473
:1050D0008E2580914F0890E00196877099278093E4
:1050E0004F08D9CF4F81588569857A858B859C85F6
:1050F0000E948E25CFCF0E94572510925008109203
:105100004F08E1E8F8E086E0DF011D928A95E9F7B3
:10511000C1CF2C960FB6F894DEBF0FBECDBFDF9186
:10512000CF911F910895EF92FF920F931F93CF930A
:10513000DF938C01892B09F46CC0F12CEE24E394ED
:10514000E8012196F8018491843740F4843008F016
:1051500051C0813081F0823019F15BC0853709F48C
:1051600044C0A8F19CE7980F903708F052C08F77A1
:105170000E949D2241C00E5F1F4FFE01C49180E23C
:105180008C0F883048F4C7708E2D01C0880FCA95E7
:10519000EAF70E947D2B14C08C2F0E94C1212DC0E4
:1051A0000E5F1F4FFE01C49180E28C0F883058F4CF
:1051B000C7708E2D01C0880FCA95EAF70E94832B15
:1051C0000E94242B1AC08C2F0E949D2216C00E5FB5
:1051D0001F4FFE01C491CC2381F08FE99FE001971E
:1051E000F1F700C00000C150F6CF0E5F1F4FFE0167
:1051F000F49003C00E94C1218E018F2D882309F4F1
:105200009FCFEFE9FFE03197F1F700C00000815038
:10521000F5CFDF91CF911F910F91FF90EF900895FF
:1052200008950E9410296093C2087093C308809368
:10523000C4089093C5080C944B2508950C9411292B
:105240000F931F930091C2081091C3082091C408C6
:105250003091C508602B712B822B932B1F910F91DE
:105260000C9411290F931F930091C2081091C30849
:105270002091C4083091C5086023712382239323B1
:105280001F910F910C9411290F931F930091C20845
:105290001091C3082091C4083091C5086027712778
:1052A000822793271F910F910C94112908950E9432
:1052B00056296093BE087093BF088093C0089093EE
:1052C000C1080C944B2560E070E0CB010C94572989
:1052D0000F931F9341E050E060E070E08A019B0172
:1052E00004C0000F111F221F331F8A95D2F7C90176
:1052F000B8011F910F910C9457290F931F9341E010
:1053000050E060E070E004C0440F551F661F771F37
:105310008A95D2F78091BE089091BF08A091C008ED
:10532000B091C1088A019B01082B192B2A2B3B2B1A
:10533000C901B8011F910F910C9457290F931F9326
:1053400041E050E060E070E004C0440F551F661F6C
:10535000771F8A95D2F7409550956095709580910A
:10536000BE089091BF08A091C008B091C1088A0101
:105370009B01082319232A233B23C901B8011F914C
:105380000F910C9457290F931F9341E050E060E078
:1053900070E004C0440F551F661F771F8A95D2F72F
:1053A0008091BE089091BF08A091C008B091C1083B
:1053B0008A019B01082719272A273B27C901B80121
:1053C0001F910F910C9457290F931F930091BE08C2
:1053D0001091BF082091C0083091C108602B712B3B
:1053E000822B932B1F910F910C9457290F931F938E
:1053F0000091BE081091BF082091C0083091C108EB
:1054000060237123822393231F910F910C945729BA
:105410000F931F930091BE081091BF082091C00800
:105420003091C10860277127822793271F910F9120
:105430000C9457290895292F220F920F990F890F45
:10544000A82FA695A695A695877051E001C0550F87
:105450008A95EAF785E0A89FD001112420E030E08A
:1054600070E0F901EA0FFB1FE957F74F4081CB01CC
:10547000022E02C0969587950A94E2F781709927CB
:10548000819584278523842780832F5F3F4F253094
:10549000310539F70895292F220F920F990F890F9F
:1054A000682F669566956695982F977085E0689F3A
:1054B000B001112440E050E080E0FA01E60FF71F50
:1054C000E957F74F208130E0092E02C03695279525
:1054D0000A94E2F721703327042E01C0220F0A94A8
:1054E000EAF7822B4F5F5F4F4530510531F7089542
:1054F000CF92DF92EF92FF920F931F93CF93DF93A0
:105500008C01C090C208D090C308E090C408F0900D
:10551000C5088091BE089091BF08A091C008B091C5
:10552000C108C82AD92AEA2AFB2ACFE1D0E0D7014C
:10553000C6010C2E04C0B695A795979587950A9439
:10554000D2F780FF06C0B8018C2F0E944D1D019735
:1055500021F4219760F780E001C08C2FDF91CF917B
:105560001F910F91FF90EF90DF90CF900895CF9310
:10557000DF93EC010E94782ABE010E944D1DDF914D
:10558000CF9108951F93CF93DF93EB0190914E0835
:10559000992321F0CB010E94B72A13C0882349F038
:1055A000CB010E94782A182F682FCE010E941B2A57
:1055B00004C0CB010E944B2A182FBE01812F0E94EC
:1055C0004D1DDF91CF911F910895682F8091290182
:1055D00090912A010C94752C682F8091290190914B
:1055E0002A010C94802C8091C60885958595859517
:1055F00008958091C6088770089598E0899F90016A
:105600001124262B2093C6080C947D292091C608CE
:10561000809582238093C608982F977069F430E0B4
:10562000482F082E000C550B2417350729F08595B7
:10563000859585950C949E2908959091C60897703C
:1056400081E009F480E00895E0912901F0912A01B8
:105650008091EA088083E0912901F0912A019081EC
:105660008091E908892B8083E0912901F0912A013A
:1056700090818091E808892B80838091C7088823D6
:1056800081F0E0912901F0912A019081892B80839A
:105690008091290190912A010E94192C8111109268
:1056A000C7088091290190912A010C94AC20809127
:1056B000EA0808959091EA08892B8093EA080895F2
:1056C00080959091EA0889238093EA080895809351
:1056D000EA0808951092EA0808959091E908892B44
:1056E0008093E908089580959091E9088923809333
:1056F000E90808951092E90808959091E808892B27
:105700008093E808089580959091E8088923809314
:10571000E80808951092E80808958093C70808954E
:105720001092C7080895CF92DF92EF92FF926C011A
:10573000EE24FF24C114D104E104F10421F0C701D7
:10574000B60120E101C020E0C72ED82EE92EFF24AB
:10575000C114D104E104F10419F0285FC701B601B6
:105760006B017C0154E0F694E794D794C7945A9562
:10577000D1F7C114D104E104F10419F02C5FC70181
:10578000B6016B017C0142E0F694E794D794C7948C
:105790004A95D1F7C114D104E104F10419F02E5F48
:1057A000C701B601DC01CB01B695A7959795879502
:1057B000892B8A2B8B2B09F02F5F822FFF90EF9084
:1057C000DF90CF9008956DEE7EEF80E090E00E9434
:1057D000C83460E082E090E00E94B63460E083E08C
:1057E00090E00E94B63460E084E090E00E94B6341D
:1057F00060E085E090E00C94B63480E090E00E9498
:10580000B03421E08D3E9E4F09F020E0822F0895B4
:1058100082E090E00C94A83483E090E00C94A834EB
:1058200084E090E00C94A834682F84E090E00C941D
:10583000B634FC0131969C01205E3F4F80E091918F
:1058400091118F5FE217F307D1F708959C01FC01D6
:1058500032969FEF80E04191461789F09F3F19F4FF
:10586000411101C0982F8F5F8E31A9F79F3F39F00A
:10587000F901E90FF11D97FDFA95628308950895E6
:10588000FC01329680962081261301C01082319649
:10589000E817F907C1F70895262F2695269526952E
:1058A0002F3168F4FC01E20FF11D677021E030E058
:1058B00001C0220F6A95EAF78181282B2183089580
:1058C000262F2695269526952F3170F4FC01E20FA0
:1058D000F11D677021E030E001C0220F6A95EAF700
:1058E0002095818128232183089520913501222349
:1058F00029F02091220927FD0C944C2C0C94262C85
:1059000020913501222329F02091220927FD0C94B2
:10591000602C0C94402CFC01319680961192E81773
:10592000F907E1F7089580912809843039F1109240
:10593000EC0820E488E190E00FB6F894A8958093F5
:1059400060000FBE2093600080E00E942D1D83B791
:10595000817F846083BF83B7816083BF789488959B
:1059600083B78E7F83BF0FB6F894A89580916000AF
:10597000886180936000109260000FBE08950895C2
:10598000CF930E948B130E94D8130E94BF2CC0E0BB
:105990008C2F0E94BA14811104C0CF5FCE30C1F7A2
:1059A00001C081E0CF9108950E9457250E94A02058
:1059B0000C942D1D1F920F920FB60F9211248F93EE
:1059C0009F93AF93BF938091EC08811113C0809196
:1059D0001E0990911F09A0912009B09121094196BB
:1059E000A11DB11D80931E0990931F09A09320094A
:1059F000B0932109BF91AF919F918F910F900FBEEE
:105A00000F901F90189582E084BD93E095BD9AEFAA
:105A100097BD80936E0008952FB7F89480911E096A
:105A200090911F09A0912009B09121092FBF0895DD
:105A3000CF92DF92EF92FF920F931F932FB7F894BC
:105A400040911E0950911F09609120097091210910
:105A50002FBF6A017B01EE24FF248C0120E030E09F
:105A6000C016D106E206F30610F4415051099A011E
:105A7000281B390BC9011F910F91FF90EF90DF9008
:105A8000CF90089578941F920F920FB60F92112421
:105A90008F939F93AF93BF9380911E0990911F099D
:105AA000A0912009B09121090196A11DB11D8093FB
:105AB0001E0990931F09A0932009B0932109BF915B
:105AC000AF919F918F910F900FBE0F901F901895DF
:105AD0000E949031F8942FEF87EA91E621508040A0
