:100000000C947B0D0C94BF0D0C94BF0D0C94BF0D84
:100010000C94BF0D0C94BF0D0C94BF0D0C94BF0D30
:100020000C94BF0D0C94BF0D0C94FA290C94BE29AE
:100030000C9418240C94BF0D0C94BF0D0C94BF0DA0
:100040000C94BF0D0C94BF0D0C94BF0D0C94BF0D00
:100050000C94BF0D0C94C7240C94BF0D0C94BF0DD1
:100060000C94BF0D0C94BF0D0C94BF0D0C94BF0DE0
:100070000C94BF0D0C94BF0D0C94BF0D0C94BF0DD0
:100080000C94BF0D0C94BF0D0C94BF0D0C94BF0DC0
:100090000C94BF0D0C94BF0D0C94BF0D0C94BF0DB0
:1000A0000C94BF0D0C94BF0D0C94BF0D000000000C
:1000B00000140000000016000000001416000000EC
:1000C00006000000001406000000160600000014E0
:1000D0001606000017000000001417000000161795
:1000E00000000014161700000700000000140700AD
:1000F00000000A00000000140A0000001D000000BB
:1001000000141D000000161D00000000000000008B
:100110001300000000141300000016130000001468
:1001200016130000171D00000014171700001B0015
:10013000000000141B000000071D0000001407074A
:1001400000000A1D000000140A0A00000B00000055
:1001500000140B000000160B00000014160B00002A
:10016000060B00000014060B000016060B00000032
:1001700000000000170B00000014170B0000000027
:100180000000001416170B000900000000140900FD
:1001900000000A0B000000140A0B00001D0B0000F9
:1001A00000141D0B00000000000000000000000013
:1001B000130B00000014130B000016130B000014A7
:1001C00016130B000E00000000140E000000160EA7
:1001D00000000014160E00000500000000140500C9
:1001E00000000000000000140505000011000000E0
:1001F000001411000000161100000014111100007D
:100200001A00000000141A00000016160000001466
:10021000161600001900000000141900000016193D
:100220000000000000000000070819000014071972
:1002300000000A11000000140A1100003300000041
:1002400000143300000016330000001416330000C1
:1002500013110000001433330000000000000014EC
:10026000131300000D00000000140D00000000003A
:1002700000000000000000000708330000140733EE
:100280000000000000000014070D00001C0000002A
:1002900000141C000000161C00000014161C0000B6
:1002A000061C00000014060600000000000000000C
:1002B00000000000171C00000000000000001617DE
:1002C0001C00000000000000071C000000140909C9
:1002D00000000A1C0000001409170000331C000075
:1002E000000000000000000000000000000000000E
:1002F000131C000000000000000016131C00001476
:1003000016130B1C0E1100000014060E11001B1C0E
:100310000000000000000000051C00000014051C87
:1003200000000000000000000000000015000000B8
:100330000014150000001608150000141515000023
:10034000061500000014061500001606150000141E
:1003500016061500171500000014171500001617D3
:10036000150000000000000007150000001407152C
:1003700000000A15000000140A1500001D150000F9
:10038000000000000000000000000000000000006D
:1003900013150000001413150000161315000014A7
:1003A00013131500000000000014171715001B158B
:1003B00000000000000000000708150000140707F7
:1003C00015000000000000140A0A1500150B0000BB
:1003D000000000000000160B1500000000000000E7
:1003E000060B1500001406061500000000000000B2
:1003F00000000000170B15000014170B0F00000081
:10040000000000000000000009150000001409159C
:1004100000000000000000140909150000000000A1
:1004200000000000000000000000000000000000CC
:10043000130B15000014130B150000000000000042
:10044000000000000E150000000000000000000089
:100450000000000000000000051500000014051554
:100460000000000000000014050515000F0000004A
:1004700000140F000000160F00000014160F0000FB
:10048000060F00000014060F00000000000000002E
:100490000000000004000000001404000000160426
:1004A000000000141604000007080F0000140604E2
:1004B00000000A0F000000140A0F000033150000AE
:1004C00000140F0F000000000000000000000000FA
:1004D000130F00000014130F000016130F00001478
:1004E00013130F000D08150000000000000016088F
:1004F00015190000000000000000000000140707AC
:100500000F000000000000140A0A0F000F1C00007A
:10051000000000000000160F1C000000000000009A
:1005200006151C00001406060F0000000000000065
:100530000000000017151C00000000000000161746
:10054000151C000000000000090F00000014090F36
:10055000000000000000001409090F000000000066
:10056000000000000000000000000000000000008B
:10057000130B0F000000000000000000000000004E
:10058000000000000E0F000000000000000000004E
:100590000000000000000000050F00000014050F1F
:1005A000000000000000000000000000000000004B
:1005B0000008000000001200000000081200000007
:1005C00014000000000814000000121400000008CD
:1005D0001214000018000000000818000000121893
:1005E0000000000812180000141800000008141879
:1005F0000000121418000008121418000C0000006B
:1006000000080C000000120C00000008120C000092
:10061000140C00000008140C000012140C00000858
:1006200012140C00180C00000008180C000012181E
:100630000C00000812180C0014180C000008141804
:100640000C001214180C00081214180C0000000002
:10065000000808000000121200000012080000004C
:100660001414000000140800000014120000000818
:1006700014120000181800000018080000001812DA
:1006800000000008181200001814000000081814D8
:100690000000121814000008121814000C0C0000BE
:1006A000000C080000000C12000000080C120000F2
:1006B0000C14000000080C140000120C14000008B8
:1006C000120C14000C18000000080C1800000C128A
:1006D00018000008120C1800140C18000008140C64
:1006E000180012140C18000812140C180000000056
:1006F00000150000000011000000001511000000AE
:100700000F00000000150F00000016000000000F91
:100710000F0000000A00000000150A000000110A86
:100720000000000A110000000F0A00000000000095
:1007300000000700000000070F0000000600000096
:100740000015060000001106000000000000000077
:100750001300000000151300000016130000001322
:100760000F000000050000000015050000000A0A47
:100770000000000000000000050F00000000000065
:10078000000000000000000F050000000B0000004A
:10079000001D0000000019000000001D11000000F5
:1007A0001A000000001D0F000000160B0000000FD3
:1007B000190000000A0B000000150A0B00003300AE
:1007C00000000015330000001B00000000000000C6
:1007D000000016330000000F33000000060B00007D
:1007E0000015060B000011060B0000151900000093
:1007F000130B000000000000000000000000000FCC
:10080000060B000009000000001509000000330578
:1008100000000033050815000F090000000000006B
:10082000000033130000000000000000170000006B
:100830000015170000001117000000151117000027
:100840000F17000000000000000016170000001540
:10085000161700000E00000000150E000000110E1B
:1008600000000000000000000E0F0000000000006B
:100870000000160E0000000F0E000000061700001A
:10088000000000000000170C121100000000000022
:100890001317000000000000000011161700000FE1
:1008A00013000000060E0000000000000000051705
:1008B0000000000000000000060E0F000000000015
:1008C000000000000000000000000000170B000006
:1008D0000015170B000011170B00001D170B00006F
:1008E0000F170B00000000000000000000000000D7
:1008F000000000000A0B1700001D0E000000110A86
:10090000170B0000000000001B1700000000000093
:10091000000007170B0000000000000017060B0086
:1009200000000000000000000000000000000000C7
:1009300013170B0000000000000000000000000082
:10094000000000000917000000091708150009172A
:10095000081100000000000000000000000000007E
:100960000000331317000000000000001600000014
:1009700000151600000011160000001511160000E9
:100980000F16000000150F16000016160000000FCD
:100990000F1600000A16000000150A160000110AC2
:1009A0001600000A11160000000000000000000000
:1009B00000000716000000000000000006160000FE
:1009C00000150616000011060816000000000000C1
:1009D000131600000015131600001613160000135E
:1009E0000F081600051600000015051600000A0A7B
:1009F0001600000000000000050F081600000000AF
:100A0000000000000000000F051600000B1600009B
:100A1000001D1600000019081600001D1116000028
:100A20001A081600001D0F160000160B0816000FFE
:100A3000190816000A0B160000000000000033160B
:100A400000000015331600001B081600000000000F
:100A5000000016331600000F3316000007000000D8
:100A600000150700000011070000001D070000002E
:100A7000130B160000150F07000000000000000F08
:100A800007000000070A0000000000000000330516
:100A900016000033050815160000000000000000D5
:100AA00000003313160000000000000017160000BD
:100AB00000151716000011171600000000000000B6
:100AC0000F17160000000000000016171600001592
:100AD000161716000E16000000150E160000110E57
:100AE00016000000000000000000000000000000F0
:100AF0000000160E1600000F0E1600000617160056
:100B0000000000000000170C121116000000000089
:100B10000000000000000000000000000000000FC6
:100B200013160000060E1600000000000000051756
:100B30001600000000000000060E0F08160000005E
:100B4000000000000000000000000000170B16006D
:100B50000015170B160011170B16001D170B1600AA
:100B60000000000000000000000000000000000085
:100B7000000000000A0B1716001D0E160000110AD7
:100B8000170B16000000000000000000000000002D
:100B9000000007170B1600000000000007160000F9
:100BA00000150716000011071600001D07160000AB
:100BB00013170B1600150F07160000000000000F9A
:100BC0000716000000000000000000000000000008
:100BD0000000000000000000000000000000000015
:100BE0000000331317160000000000000000000092
:100BF0000008000000001C00000000081C000000AD
:100C0000160000000008160000001C160000000876
:100C10001C160000000000000000000000000000A2
:100C20002B00000000000000000000002800000071
:100C300000000000000000000000000000000000B4
:100C4000000000000000000000001E020000000084
:100C50001F0200000000200200000000210200002E
:100C60000000220200000000230200000000240215
:100C70000000000025020000000026020000000025
:100C80001E02270200001E021E0200001E021F029A
:100C900000001E02200200001E02210200001E02AF
:100CA000220200002702000000001E0227020000AE
:100CB0001F02270200002002270200002102270253
:100CC0000000220227020000230227020000240263
:100CD000270200002502270200002602270200004A
:100CE0001E02270227021E021E0227021E021F02E8
:100CF00027021E02200227021E02210227021E02D4
:100D0000220227020000000000001E020000000076
:100D10001F0200000000200200000000210200006D
:100D20000000220200000000230200000000240254
:100D30000000000025020000000026020000000064
:100D40001E02270200001E021E0200001E021F02D9
:100D500000001E02200200001E02210200001E02EE
:100D6000220200002702000000001E0227020000ED
:100D70001F02270200002002270200002102270292
:100D800000002202270200002302270200002402A2
:100D90002702000025022702000026022702000089
:100DA0001E02270227021E021E0227021E021F0227
:100DB00027021E02200227021E02210227021E0213
:100DC000220227020000000000003800000000009E
:100DD0002900000000002900370000003200000058
:100DE0000000000000000000000000000000000003
:100DF00000000000250000000000000000000000CE
:100E000000000000000000000000000000000000E2
:100E100000000000000000000000000000000000D2
:100E200000000000000000000000000000000000C2
:100E300000000000000000000000000000000000B2
:100E400000000000000000000000000000000000A2
:100E50000000000000000000000000000000000092
:100E60000000000000000000000000000000000082
:100E70000000000000000000000000000000000072
:100E80000000000000000000000000000000000062
:100E90000000000000000000000000000000000052
:100EA0000000000000000000000000000000000042
:100EB0000000000000000000000000000000000032
:100EC0000000000000000000000000000000000022
:100ED0000000000000000000000000000000000012
:100EE0000000000000000000000000000000000002
:100EF00000000000000000000000000000000000F2
:100F000000000000000000000000000000000000E1
:100F100000000000000000000000000000000000D1
:100F200000000000000000000000000000000000C1
:100F300000000000000000000000000000000000B1
:100F4000000000000000000000000700000000009A
:100F50002100160000000700000000000000000053
:100F60000000000000000000110021001700000038
:100F7000000000000C0011000A000000000000004A
:100F800021000F000F000000000000000800150005
:100F90000000000000000000000000000000000051
:100FA000000000000C0011000A000000000000001A
:100FB00021001900080000000000000000000000EF
:100FC0000000000000000000000000000000000021
:100FD00000000000080015000000000000000000F4
:100FE0000000000000000000000000000000000001
:100FF00000000000000000000000000000000000F1
:10100000000000000C0011000A00000000000000B9
:1010100021000700000000000000000000000000A8
:1010200000000000000000000000000000000000C0
:1010300000000000000000000000000000000000B0
:1010400000000000000000000000000000000000A0
:101050000000000000000000000000000000000090
:101060000000000008001500000000000000000063
:10107000210033000000000000000000000000001C
:101080000000000000000000000000000000000060
:101090000000000000000000000000000000000050
:1010A0000000000000000000000000000000000040
:1010B0000000000000000000000000000000000030
:1010C00000000000000000000000220000000000FE
:1010D0002500000000000000000000002D000000BE
:1010E000000022002D0000000000000000000000B1
:1010F00000000000230000000000000000000000CD
:1011000000000000000000000000000000000000DF
:1011100000000000000000000000000000000000CF
:101120000000000036020000000000000000000087
:101130000000000000000000000000002D0036024A
:10114000000022002D003602000000000000000018
:10115000000000000000000000000000000000008F
:10116000000000000000000000000000000000007F
:10117000000000000000000000000000000000006F
:10118000000000001000000000000000000000004F
:101190000000000000000000000000002D00100012
:1011A000000022002D0010000000000000000000E0
:1011B000000000000000000000000000000000002F
:1011C000000000000000000000000000000000001F
:1011D000000000000000000000000000000000000F
:1011E00000000000360000000000000000000000C9
:1011F0000000000000000000000000002D0036008C
:10120000000022002D003600000000000000000059
:1012100000000000000000000000000000000000CE
:1012200000000000000000000000000000000000BE
:1012300000000000000000000000000000000000AE
:101240000000000000000000000036020000000066
:1012500036020000000037000000000022000000FD
:10126000000000000000000064000000000000001A
:10127000000000002100000000000000000000004D
:10128000000000000000000000000000200000003E
:10129000000000000000000000000000000000004E
:1012A000000000002D000000000000000000000011
:1012B00000000000000000000000000022002D00DF
:1012C00050000000000000000000000000000000CE
:1012D000000000000000000000000000000000000E
:1012E00000000000000000000000000000000000FE
:1012F00000000000000000000000000000000000EE
:1013000000000000100200000000000000000000CB
:101310000000000000000000000000006402000067
:1013200000000000000000006400640250000000A3
:10133000000000002100210050000000000000001B
:10134000000000000000000000000000200020005D
:10135000500000000000000000000000000000003D
:101360000000000038000000000000000000000045
:10137000000000000000000000000000000000006D
:10138000000000000000000000000000000000005D
:10139000000000000000000000000000000000004D
:1013A000000000000000000000000000000000003D
:1013B000000000000000000000000000000000002D
:1013C000000000000000000000000000000000001D
:1013D00020000080200000800000000084000080C9
:1013E000000000003000008021000080210000800B
:1013F00052000080800000803200008031000080B8
:10140000400000804100008050000080810000808A
:101410003300008042000080430000800000000094
:1014200011000080820000803400008044000080B1
:101430004500008000000000510000808300008013
:10144000350000804600008047000080000000005A
:101450001000008000000000B200008000000000CA
:10146000100000800000000010000080000000005C
:10147000B000008000000000B0000080000000000C
:101480001000008093000080A500008060000080B4
:1014900061000080000000001000008092000080C9
:1014A000A400008062000080630000800000000053
:1014B0005200008091000080A30000806400008042
:1014C0006500008000000000110000809000008096
:1014D000A2000080A10000806600008067000080FC
:1014E000540000809400008000000000A0000080F4
:1014F0007000008071000080530000800000000038
:1015000000000000000000007200008072000080F7
:1015100000000000000000000000000000000000CB
:1015200000000000000000000000000000000000BB
:1015300000000000000000000000000000000000AB
:10154000000000000000000000000000000000009B
:10155000000000000000000000000000000000008B
:10156000000000000000000000000000000000007B
:10157000000000000000000000000000000000006B
:10158000000000000000000000000000000000005B
:10159000000000000000000000000000000000004B
:1015A000000000000000000000000000000000003B
:1015B000000000000000000000000000000000002B
:1015C000000000000000000000000000000000001B
:1015D000000000000000000000000000000000000B
:1015E00000000000000000000000000000000000FB
:1015F00000000000000000000000000000000000EB
:1016000000000000000000000000000000000000DA
:1016100000000000000000000000000000000000CA
:1016200000000000000000000000000000000000BA
:1016300000000000000000000000000000000000AA
:10164000000000000000000000000000000000009A
:10165000000000000000000000000000000000008A
:10166000000000001E0030002B000130E0000000F0
:101670002214040014001A001E00035121141D003E
:1016800015001B00E2002A002E14090016000600B7
:1016900052002800220013001700190051004600D4
:1016A0002E000A000700050000000451E300490075
:1016B000000029000000045301532A000000280004
:1016C0000000045332000D000B000E000000045116
:1016D0002D000F0011003300500000002E021800F2
:1016E000080010004F002C002D141C000C003602C6
:1016F00025144C0038003600120021002714035135
:101700002014370223000130E40000000451E200FD
:10171000E00000300030000000302B0000300030CE
:101720000030003000300030003000300030003039
:101730000030003000300030010000300030003058
:101740000030003001000030003000300030003048
:10175000000000302A00003000000030000000309F
:101760000100003000000030000000300030003088
:101770000030003000000030003000300030003019
:101780000100003000300030003000300100003037
:1017900000300030003000300030003000300030C9
:1017A00000300030003000304C00E600E400003033
:1017B0000030000034000230010001000100000090
:1017C000240001000100010034000100220001009A
:1017D00001000100010001002000010001000100E2
:1017E000010001001E0001000100010001000100D4
:1017F00026000100010001000000010001000100BD
:1018000000000100000001000000010000000100D4
:10181000000001002700010001000100000001009C
:101820001F00010001000100010001002100010072
:10183000010002300100010023000100010002301C
:1018400002300100250002300100023002300100A8
:101850000230100002300100010000000000000012
:101860000000000000000000000000002700000051
:101870000000010000000000000000000000000067
:101880000000000000002600000000000000000032
:101890000000000000000000000000000000000048
:1018A0000000000000000000000000000000000038
:1018B0000000000000000000000000000000000028
:1018C0002400000000000000000000001F000000D5
:1018D00000000000000034000330000000000000A1
:1018E00000000000033000000000000000002F0294
:1018F00003300000000001000000000000000000B4
:1019000000000000010001000100E10001000000F2
:101910003A00010001000100010001003B0001004C
:1019200001000100010001003C0001000100010074
:101930004B0001003D000100010001004E000100CC
:101940003E00010001000100000001003F00010015
:101950000000010000000100400001000000010043
:101960000000010041000100010001000000010031
:1019700042000100010001004A0001004300010093
:10198000010001004D0001004400010001000100C0
:10199000010001004500010001000100010000708C
:1019A000000001000100E50001000000050109063A
:1019B000A101050719E029E7150025019508750122
:1019C0008102950175088101050819012905950510
:1019D000750191029501750391010507190029FF11
:1019E000150026FF00950675088100C005010980D5
:1019F000A101850216810026B7001A81002AB700CE
:101A0000751095018100C0050C0901A1018503161F
:101A10000100269C021A01002A9C02751095018182
:101A200000C005010906A101050719E029E7150015
:101A300025019508750181020508190129059505FB
:101A40007501910295017503910105071900297728
:101A500015002501957875018102C0120110010061
:101A6000000008EDFE071301000102000109025405
:101A700000030100A0FA09040000010301010009AC
:101A800021110100012240000705810308000A0915
:101A900004010001030000000921110100012236A8
:101AA000000705820308000A090402000103000080
:101AB00000092111010001223900070583031000EC
:101AC000010403090416034500720067006F004417
:101AD000006F007800200045005A00000016034502
:101AE00000720067006F0044006F0078002000451E
:101AF000005A0000000011241FBECFEFDAE0DEBF65
:101B0000CDBF04B603FE24C08091B5029091B60209
:101B1000A091B702B091B8028750904BA740B04B4C
:101B2000B9F41092B5021092B6021092B702109258
:101B3000B80214BE84B7877F84BF88E10FB6F894DB
:101B400080936000109260000FBEE0E0FFE3099513
:101B500011E0A0E0B1E0EEE3F9E502C005900D92DE
:101B6000AC37B107D9F712E0ACE7B1E001C01D9284
:101B7000A53BB107E1F70E94FD250C949D2C0C9428
:101B800000001092B9008AE08093B8000895982F61
:101B900084EA8093BC008091BC0087FFFCCF8091D9
:101BA000B900887F883021F0803111F081E00895FC
:101BB0009093BB0084E88093BC008091BC0087FFB9
:101BC000FCCF9091B900987F983111F480E008958E
:101BD00080E0903409F081E0089584E98093BC00AE
:101BE0008091BC0084FDFCCF08958093BB0084E805
:101BF0008093BC008091BC0087FFFCCF8091B9002E
:101C000090E0887F883209F091E0892F089584E878
:101C10008093BC008091BC0087FFFCCF8091BB000B
:101C200008950E94A90F0895ECE7F1E0E80FF11D77
:101C300080810895089580B38C7080BB81B3836FD9
:101C400081BB0895809131018823A9F480E40E942A
:101C5000C70D80933101882361F482E10E94F50D64
:101C600080933101882329F48FEF0E94F50D809332
:101C700031010E94ED0D84B1807F84B985B1807FF0
:101C800085B98AB1837F8AB98BB1837F8BB93E983E
:101C9000469808950E94C216809331010E94220E38
:101CA0000E941B0E80E090E0FC01E458FE4F108281
:101CB000FC01E657FE4F108201968E309105A1F788
:101CC00008950E94C216809331010E94220E0E9444
:101CD0001B0E80E090E0FC01E458FE4F1082FC01F6
:101CE000E657FE4F108201968E309105A1F70E94B3
:101CF00011170895BF92CF92DF92EF92FF920F9348
:101D00001F93CF93DF9380913101882379F08091E5
:101D100098018F5F80939801882341F40E94C21636
:101D200080933101882311F40E946A162AE8E22E7A
:101D300021E0F22EC0E0D0E091E0C92ED12C00EAE3
:101D400085E0B82E1C2FC73010F580913101882313
:101D500009F042C080E40E94C70D809331018823BE
:101D600099F482E10E94F50D80933101882361F49A
:101D7000C6010C2E02C0880F991F0A94E2F78095C5
:101D80000E94F50D809331010E94ED0D25C0CA30EF
:101D9000C9F0CB3038F4C83079F0C93080F4C7309E
:101DA000D9F407C0CC3099F0CC3078F0CD30A1F424
:101DB00011C0209A289810C0219A29980DC0229A03
:101DC0002A980AC0239A2B9807C0529A01C0539AA6
:101DD0005B9802C03E9A4698802F8A95F1F717309B
:101DE00020F580913101882311F010E043C080E498
:101DF0000E94C70D80933101882399F483E10E94EA
:101E0000F50D80933101882361F481E40E94C70DB0
:101E100080933101882329F40E94070E182F109512
:101E200001C010E00E94ED0D25C05FB1799902C09C
:101E300042E001C040E07C9902C034E001C030E0E3
:101E40007D9902C028E001C020E07E9902C090E1A7
:101E500001C090E08FB18095881F8827881F8295E8
:101E6000880F807E152F1C251170142B132B122B1D
:101E7000192B182BF7018081811719F01083B0926C
:101E800000010E94220E21960894E11CF11CCE3024
:101E9000D10509F057CF809100018823C1F081500E
:101EA00080930001882321F085E08A95F1F70FC027
:101EB00020E030E0F901E458FE4FD901A657BE4FAB
:101EC0008C9180832F5F3F4F2E30310599F70E9410
:101ED000D71281E0DF91CF911F910F91FF90EF908A
:101EE000DF90CF90BF9008958091990190919A01D1
:101EF000A0919B01B0919C010097A105B10519F03B
:101F000080E090E0089520E080919D0190919E01F5
:101F1000A0919F01B091A0010097A105B10509F022
:101F200021E081E02827822F0895282F803119F49D
:101F300080E090E0089584508A3118F481E090E0C8
:101F4000089580E090E0233311F481E090E008955B
:101F50000895609175027091760280917702909158
:101F600078020E94932325982D9826982E982798DA
:101F70002F98813019F0843031F403C0259A2D9ABE
:101F800002C0269A2E9A0E94740F882311F4279A71
:101F90002F9A0895FF920F931F93182F062F0E94D8
:101FA000F422F82E812F0E940423802F0E945619BC
:101FB0008F2D0E9404231F910F91FF9008952F925F
:101FC0003F924F925F926F927F928F929F92AF92C9
:101FD000BF92CF92DF92EF92FF920F931F93DF9306
:101FE000CF93CDB7DEB727970FB6F894DEBF0FBEFD
:101FF000CDBF0E94F4228B8382E10E94FD222091BA
:10200000A6012A838091A20190E0332433943822E0
:10201000DC01A270B070BD83AC835090AC01B1E024
:102020005B228091A301882319F4222444240DC04B
:102030002224823011F4222423944424833011F486
:102040004424439482E00E94F72279E1872E71E0D4
:10205000972EDD24E1E0E983EE24FF24F701EF551C
:10206000FE4F8081882309F4B4C01982F1E0EF1695
:10207000F10411F421E02983F701E45BFE4FE081D4
:1020800035E0E316F10439F43320F9F06CE4A62EC0
:1020900066E0B62E21C094E0E916F10461F4332025
:1020A000A1F0AA81AA2389F48695869554ECA52EE1
:1020B00050E1B52E57C0B6E0EB16F10431F43320F1
:1020C00021F0FA81FF2309F404C1D401AD90BC9042
:1020D000A114B10409F47DC0E13009F043C0B5E0BA
:1020E0008B9F30011124CC2410E0F501E60DF71D83
:1020F00004910023A9F0802F0E945619802F0E947E
:102100000319D394222019F0E1E0DE1629F04420CF
:1021100001F1F2E0DF16E9F482E00E94FD2219C02D
:102120002C813D81232B09F454C031E0C31609F002
:1021300050C086E0E816F10409F04BC0112309F401
:1021400048C0812F0E945619812F0E940319D394F1
:1021500040C00894611C711C94E0C916D1F1C3946D
:10216000102FC3CFA3E08A9F3001112400E010E0BC
:10217000F801E60DF71DEE0FFF1FEA0DFB1D25917F
:1021800034913F832E83232B21F1CE808C2D0E940E
:10219000950F882321F08C2D0E94561904C08F8141
:1021A0006E810E94CA0F8C2D0E940319D3942220A5
:1021B00019F031E0D31629F0442031F082E0D8162E
:1021C00019F482E00E94FD220F5F1F4F03301105BA
:1021D00079F60894E11CF11CA2E0B0E08A0E9B1E87
:1021E000BCE0EB16F10409F039CFDD2019F05520E1
:1021F00061F404C05520F1F03320E1F48CE20E9438
:1022000056198CE20E940319D394DD2099F0809135
:102210001102843611F41092110280911102E82FFC
:10222000FF27E7FDF095E355FE4FD0828F5F809347
:10223000110244C0332009F441C0E0901102EA9435
:10224000E7FE02C033E6E32E0E2D112707FD1095A1
:102250002DEAA22E21E0B22EA00EB11EF501D080F3
:10226000DD2021F1552069F08AE20E9456198AE2A8
:102270000E940319D5018C9181508C938823F1F42D
:1022800012C0B981BB23D1F0FF2407C08AE20E94AB
:1022900056198AE20E940319F394FD14B8F303550A
:1022A0001E4FF8011082E092110208C0552031F053
:1022B0008AE20E9456198AE20E9403198B810E94C9
:1022C0000423E1EAF1E0119221E0ED3AF207D9F7B7
:1022D00005C094E4A92E92E1B92E44CF27960FB6FB
:1022E000F894DEBF0FBECDBFCF91DF911F910F914C
:1022F000FF90EF90DF90CF90BF90AF909F908F9026
:102300007F906F905F904F903F902F9008958F92A5
:102310009F92AF92BF92CF92DF92EF92FF920F9374
:102320001F93CF93DF936C01613009F4D3C0613008
:1023300038F0623009F4E7C0633009F015C1FEC01F
:10234000FC01818196E0899FD00111248081A80F32
:10235000B11DFD01EE0FFF1FEE0FFF1FEC53FC4EF2
:10236000259135914591549121153105410551052E
:1023700009F4FAC057FF71C0C9018F70907071E005
:10238000E72EF12C012D112D04C0EE0CFF1C001FB7
:10239000111F8A95D2F764E0569547953795279592
:1023A0006A95D1F79FE0992E9222A92CBB24F501C2
:1023B000E05CFE4F8080F501EE0FFF1FEF5FFE4FE8
:1023C000C081D181F6018281882311F1F2E09F164C
:1023D00019F481EE0E945619A801970104C0220F3A
:1023E000331F441F551F8A94D2F788819981AA818F
:1023F000BB81822B932BA42BB52B88839983AA8333
:10240000BB83F501EF55FE4F80818E298083ACC0E0
:10241000A801970104C0220F331F441F551F8A943F
:10242000D2F7209530954095509588819981AA8161
:10243000BB8182239323A423B52388839983AA8312
:10244000BB830E94740F882311F00E94DF0F82E08B
:10245000981609F089C081EE85C0622FFD01EE0F4C
:10246000FF1FEE0FFF1FEC5EFA4EE590F590059111
:102470001491E114F1040105110511F4BB2412C0FB
:10248000BE2CE0910501F091060180819181A2812D
:10249000B38180709070A070B0760097A105B105EF
:1024A00009F071C0F6018281882361F008C08F2D88
:1024B0006E2D3FC0822F0E9403198E2D53C0832F93
:1024C000992737C0862F0E940319BB2009F44CC0FE
:1024D0008B2D48C0FC018181882311F025EE01C0BD
:1024E00021EEF6018281882339F0822F0E9456194D
:1024F00082E00E94F02138C0822F0E94031982E0FE
:102500000E94D02131C0FC016081718180E00E9475
:10251000011462E170E00E94532CFC01EE0FFF1FDA
:10252000E85AFE4F60819181F6018281882321F073
:10253000892F0E94CA0F18C0862F14C0FC01828107
:10254000882391F06081718180E00E940114182F2E
:102550008FE20E9456198FE20E940319812F0E9478
:102560005619812F0E94031980E090E0DF91CF91EE
:102570001F910F91FF90EF90DF90CF90BF90AF90A1
:102580009F908F900895F6018281882309F08FCF64
:1025900091CF81E0089581E008950E94CB120895C3
:1025A00008950E94D01208950E94D11208950E94A9
:1025B000110E08950E94F01884EC99E020E931E0B2
:1025C000F9013197F1F70197D9F70E94EC240895AA
:1025D0000F931F93CF93DF93EC0118810981812F13
:1025E000902F0E942021612F702F0E9401148C01D6
:1025F000BE010E94CD12882309F4FCC0C801BE01AF
:102600000E941D16882309F4F5C0C801BE010E946E
:102610003A17882309F4EEC080E70431180768F4FC
:1026200090E70230190720F580E70030180779F0AD
:102630000150104709F0D5C011C080E70B331807CF
:1026400009F4A5C00C53104709F0CBC0B3C08A8170
:10265000882309F4CFC00E94DA12CCC08A81882373
:1026600009F4C8C080918E02816080938E02C2C03E
:102670008A81882309F4BAC00E94F123882311F4C7
:102680000E94FC230E94E2238093A6021092A702DC
:1026900090E70230190711F4816072C090E70330AF
:1026A000190711F482606CC090E70430190711F427
:1026B000846066C090E70530190711F4886060C037
:1026C00090E70630190711F480615AC090E707308F
:1026D000190711F4806254C090E70830190711F40B
:1026E00080644EC090E70930190711F4806848C033
:1026F00090E70A30190711F48C6042C080E70B3074
:10270000180721F48091A6028E7F3AC090E70C3022
:10271000190721F48091A6028D7F32C080E70D3029
:10272000180721F48091A6028B7F2AC090E70E3013
:10273000190721F48091A602877F22C080E70F301D
:10274000180721F48091A6028F7E1AC090E700310D
:10275000190721F48091A6028F7D12C080E7013114
:10276000180721F48091A6028F7B0AC002511047FE
:1027700021F48091A6028F7703C08091A602837F07
:102780008093A6028091A6020E94DC2333C08A8136
:10279000882321F01092120282E012C0809112026E
:1027A000882331F486E20E94561986E20E940319BA
:1027B00082E014C08A81882331F01092130280E2F3
:1027C0000E94FC1817C080911302882331F487E21D
:1027D0000E94561987E20E94031980E20E94F518B0
:1027E00009C081E08093120280931302CE010E94FF
:1027F000C91201C080E0DF91CF911F910F91089520
:102800000895E62FF0E0EE0FFF1F9CE0799F900106
:102810001124E20FF31F98EA899FC0011124E80FE9
:10282000F91FEC59F94E25913491C90108950E9480
:1028300001140E949215AC0120E480309207C0F58B
:1028400080E34030580708F007C1403E5105E8F4E6
:10285000403C510508F057C0483A510588F4453AC4
:10286000510508F058C04130510509F4E7C0413026
:10287000510508F453C14430510508F44FC150C10B
:102880004D3B510508F04AC155C04F3F510509F075
:1028900048F4403F510508F0CFC0483E510508F0CC
:1028A0003DC13EC120E24030520708F4CAC0CBC04F
:1028B00083E54030580780F422E54030520708F0A5
:1028C000F7C081E54030580708F0ECC020E5403003
:1028D000520708F0C7C0C3C085E54030580730F440
:1028E00024E54030520708F009C1FBC086E54030BE
:1028F000580708F409C1CA018050904680509041A1
:1029000008F00CC108C1FA01EE0FFF1FE45DF74E9D
:102910004591549105C1453A510519F481E890E477
:1029200089C0463A510519F083E890E483C082E8F3
:1029300090E480C0483A510519F482EE94E47AC0DC
:10294000493A510519F489EE94E474C04A3A5105A4
:1029500019F48AEE94E46EC04B3A510519F485EBF4
:1029600094E468C04C3A510519F486EB94E462C0D3
:102970004B3B510519F483EB94E45CC04C3B51058F
:1029800019F484EB94E456C04D3A510519F487EBE1
:1029900094E450C0403B510519F48CEC94E44AC0D7
:1029A0004E3A510519F48DEC94E444C04F3A510568
:1029B00019F483E895E43EC0413B510519F48AE8D7
:1029C00095E438C0423B510519F482E995E432C0E0
:1029D000433B510519F484E995E42CC0443B51056F
:1029E00019F481E296E426C0453B510519F483E2CF
:1029F00096E420C0463B510519F484E296E41AC0DF
:102A0000473B510519F485E296E414C0483B510553
:102A100019F486E296E40EC0493B510519F487E2A9
:102A200096E408C04A3B510519F080E094E402C0E6
:102A30008AE296E4AC0174C0506572C041E050E097
:102A40006FC05F716DC0FA01FF70EE0FFF1FE4559C
:102A5000F64E4591549164C05070506C61C05F70E7
:102A6000506A5EC0342F3F70E4E056954795EA9572
:102A7000E1F7942F937080E0232F26952695422F1F
:102A800050E075E0440F551F7A95E1F7482B592B1C
:102A90005C68337081E090E002C0880F991F3A951E
:102AA000E2F71AC0942F80E0AC01416F506A38C041
:102AB000242F842F86958695482F50E065E0440F9B
:102AC000551F6A95E1F75C68237081E090E002C0D1
:102AD000880F991F2A95E2F78F719070482B592B18
:102AE0001FC0242F842F86958695482F50E035E00F
:102AF000440F551F3A95E1F75A68E6CF942F80E0CE
:102B0000AC01446F506A0CC0842F90E08F719070BC
:102B1000582F442701C05F70506202C040E050E06F
:102B2000CA0108959C018238910591F1833891057D
:102B3000C8F48133910509F46AC08233910548F4E1
:102B40008932910509F45CC08A32910509F072C09E
:102B500065C08533910509F44CC08933910509F0AE
:102B600069C016C0833E910551F1843E910540F441
:102B7000803E9105A1F0823E910509F05BC016C030
:102B8000863E910519F1873E910509F053C027C093
:102B90008091A60280FD49C081FD47C04BC0809155
:102BA000A60280FF47C029E330E044C08091A6021E
:102BB00082FF40C084FD3CC023EE30E03BC08091EA
:102BC000A60282FF13C022EE30E034C08091A6023C
:102BD00083FF30C084FD2CC027EE30E02BC08091F5
:102BE000A60283FF03C026EE30E024C084FF22C08B
:102BF0001FC08091A60285FF1DC029E230E01AC0E7
:102C00008091A60285FF16C025E330E013C08091B5
:102C1000A60286FF0FC02AE230E00CC08091A60217
:102C200086FF08C021E330E005C020EE30E002C09E
:102C300020E030E0C90108950895CF93DF93EC01BF
:102C4000FB018281882309F441C08091140288230A
:102C500029F5C451D047D1F50E941C1681E080931C
:102C600014020E948F2490931602809315021092F2
:102C70002102109218021092170210921A0210925A
:102C8000190210921C0210921B0210921E02109246
:102C90001D021092200210921F0216C08091150290
:102CA000909116020E949C24883C910578F48091B2
:102CB0002102E82FF0E0EE0FFF1FE95EFD4FD18308
:102CC000C0838F5F8093210280E001C081E0DF91AB
:102CD000CF91089556985E9825982D9826982E980D
:102CE00027982F988FEF90E0909389008093880029
:102CF00090938B0080938A0090938D0080938C003A
:102D0000259A2D9A84EF91E020E931E0F90131977D
:102D1000F1F70197D9F7269A2E9A84EF91E020E9EE
:102D200031E0F9013197F1F70197D9F7279A2F9AF6
:102D300084EF91E020E931E0F9013197F1F7019753
:102D4000D9F725982D9884EF91E020E931E0F90139
:102D50003197F1F70197D9F726982E9884EF91E0F3
:102D600020E931E0F9013197F1F70197D9F7279878
:102D70002F9856985E9825982D9826982E982798E3
:102D80002F98089580E28093310180912202882358
:102D900071F40E94C10D81E08093220280E197E2EC
:102DA00020E931E0F9013197F1F70197D9F780E493
:102DB0000E94C70D80933101882371F50E94F50DA3
:102DC00080933101882341F50E94F50D80933101F4
:102DD000882311F58FE30E94F50D8093310188233C
:102DE000D9F40E94ED0D80E40E94C70D809331015B
:102DF000882391F48CE00E94F50D809331018823A3
:102E000059F40E94F50D80933101882329F48FE352
:102E10000E94F50D809331010E94ED0D80913101EA
:102E2000089589EA8093800089E080938100249846
:102E30002C983F988AB18F748AB96E98479A8BB153
:102E4000806B8BB9769A0E946A160E94A80F08952B
:102E5000282F882319F427E230E00AC090E02A30B6
:102E600020F49C01235E3F4F03C09C01265030405C
:102E7000C9010895EF92FF921F93CF93DF939C01B6
:102E8000FB0180E82130380708F452C08281882392
:102E900009F44EC08FEFE82E8FE7F82EE222F322DE
:102EA00080912302813049F0813018F08230C9F4DA
:102EB0000FC082EE0E94561914C080EE0E9456196F
:102EC00081EE0E94561988E10E94561988E107C0D8
:102ED00082EE0E94561987E50E94561987E50E94E6
:102EE0000319CCE0D0E0C7010C2E02C0969587955F
:102EF0000A94E2F78F700E942817182F0E94561923
:102F0000812F0E94031924978FEFCC3FD80759F7E0
:102F100080912302813031F0813010F0823041F411
:102F200082EE04C080EE0E94031981EE0E94031914
:102F300081E0DF91CF911F91FF90EF9008959093E2
:102F40002902809328020895E0912802F091290235
:102F5000309711F480E008950190F081E02D0995FB
:102F60000895E0912802F0912902309721F0028023
:102F7000F381E02D099508959C018091260290919E
:102F800027022817390779F0309327022093260269
:102F9000E0912802F0912902309729F00680F7810C
:102FA000E02DC901099508959C018091240290911A
:102FB00025022817390779F030932502209324023F
:102FC000E0912802F0912902309729F00084F185E0
:102FD000E02DC9010995089508950E94EC17089500
:102FE0000E94D4120895BF92CF92DF92EF92FF9287
:102FF0000F931F93DF93CF93CDB7DEB72A970FB60A
:10300000F894DEBF0FBECDBF0E947A0EEE24FF24DF
:10301000BE2C8E2D0E94140EC82EF701E55DFD4FCB
:10302000D080D82609F43FC080918E0281FF02C073
:103030000E941A0E00E010E0ED2DF0E0CF01002E0E
:1030400002C0959587950A94E2F780FF27C00E94F9
:103050008F240983BA826C2D70E0002E02C0759512
:1030600067950A94E2F7617070706B8381609D834D
:103070008C83402F5B2D782F8D810E94A91CF70136
:10308000E55DFD4F81E090E0002E02C0880F991FA2
:103090000A94E2F72081282720831DC00F5F1F4F6D
:1030A0000630110559F60894E11CF11C8EE0E81673
:1030B000F10409F0ADCF0E948F242FEF2E832F83D0
:1030C00018868160782F9A8789874FEF5FEF60E0DD
:1030D0008A850E94A91C10912A020E94A417181721
:1030E00031F00E94A41780932A020E94F0172A96BA
:1030F0000FB6F894DEBF0FBECDBFCF91DF911F9109
:103100000F91FF90EF90DF90CF90BF9008950E94B5
:1031100086240E94610E0E9410250895DF93CF93AC
:1031200000D000D00F92CDB7DEB70F900F900F9068
:103130000F900F90CF91DF910895DF93CF9300D040
:1031400000D000D0CDB7DEB726960FB6F894DEBF1C
:103150000FBECDBFCF91DF9108950E946721482F08
:10316000892F82958F70282F30E02C3031054CF458
:103170002A3031056CF42250304022303105E8F419
:1031800007C02C30310579F02F303105B1F40BC078
:10319000403F39F0413F18F4403E78F402C0443FCC
:1031A00061F481E008959F70892F90E023E0969567
:1031B00087952A95E1F78170089580E008950E942F
:1031C00017230E9427230E94E6220E943F2380E0CB
:1031D00090E00E94BC1780E090E00E94D417089510
:1031E0000E9407230E94DF180895882321F00E947F
:1031F000FD220E943F230895882321F00E94F72298
:103200000E943F230895282F882309F44EC0823856
:1032100059F40E94A41781FF48C089E30E947422D8
:103220000E943F2389E30CC0833869F40E94A417ED
:1032300080FF3BC083E50E9474220E943F2383E508
:103240000E94B2221FC0843859F40E94A41782FF42
:103250002CC087E40E9474220E943F2387E4F0CFB1
:103260008450813A10F4822FEBCF822F805E883019
:1032700060F4277081E090E001C0880F2A95EAF79A
:103280000E94FD220E943F230895822F855A833099
:1032900028F480E090E00E94BC170895285A253158
:1032A00020F480E090E00E94D4170895282F88230E
:1032B00009F4CAC0823859F40E94A41781FDC4C021
:1032C00089E30E9474220E943F2389E30CC0833863
:1032D00069F40E94A41780FDB7C083E50E947422A0
:1032E0000E943F2383E50E94B22221C0843859F412
:1032F0000E94A41782FDA8C087E40E9474220E9445
:103300003F2387E4F0CF8450813A20F4822F0E943B
:1033100074220DC0822F805E883060F4277081E0B7
:1033200090E001C0880F2A95EAF70E94F7220E94D8
:103330003F230895822F855A8330A0F4253A19F44B
:1033400081E890E00CC0263A19F482E890E007C0CA
:10335000273A19F080E090E002C083E890E00E94F4
:10336000BC170895822F885A853108F06DC0283A1D
:1033700019F482EE90E066C0293A19F489EE90E0E3
:1033800061C02A3A19F48AEE90E05CC02B3A19F435
:1033900085EB90E057C02C3A19F486EB90E052C0D0
:1033A0002B3B19F483EB90E04DC02C3B19F484EBDC
:1033B00090E048C02D3A19F487EB90E043C0203BE1
:1033C00019F48CEC90E03EC02E3A19F48DEC90E0AC
:1033D00039C02F3A19F483E891E034C0213B19F445
:1033E0008AE891E02FC0223B19F482E991E02AC0DB
:1033F000233B19F484E991E025C0243B19F481E2D0
:1034000092E020C0253B19F483E292E01BC0263BEA
:1034100019F484E292E016C0273B19F485E292E0A9
:1034200011C0283B19F486E292E00CC0293B19F444
:1034300087E292E007C02A3B19F080E090E002C0EA
:103440008AE292E00E94D41708950F931F93CF93BE
:10345000DF93EC01298138818B819C81892BD9F004
:103460002F3FA1F43F3F91F416C0688179818A8192
:103470000E947221182F092F0E941F210E941E21D5
:10348000CE01612F702F0E94501A05C0CE010E94FC
:10349000E812882351F7DF91CF911F910F91089582
:1034A0009F92AF92BF92CF92DF92EF92FF920F93D3
:1034B0001F93DF93CF9300D000D00F92CDB7DEB72C
:1034C0005C016B01DE011196FC0185E001900D921B
:1034D0008150E1F70B81F501F580F2944FE0F42281
:1034E000002311F00E9417230E946E22882379F096
:1034F000002369F08C2D805E883048F082E00E94C5
:1035000070230E946E2299249394982601C09924D6
:103510008D2D82958F7090E08430910509F486C0DE
:10352000853091052CF42D2D207F0297A4F044C006
:103530008C30910544F48A3091050CF05BC10897FA
:1035400009F0E3C192C08C30910509F4CDC10F9709
:1035500009F0DBC1D3C18D2D8F70222311F4182FF8
:1035600003C0182F1295107F002389F0112309F44E
:10357000A7C18C2D805E883020F4812F0E94F72215
:1035800003C0812F0E940A230E943F2399C18C2DE2
:103590000E940319112309F4B8C1F0E2CF0E27E00D
:1035A0002C1520F0812F0E94FD2203C0812F0E9444
:1035B00010230E943F23A9C18D2D8F70203211F45A
:1035C000182F03C0182F1295107FCC2021F081E016
:1035D000C81611F516C0002359F0FF2009F429C1BF
:1035E000E1E0FE1609F025C1812F0E942A238DC13A
:1035F000FF2021F0F1E0FF1609F487C10E942D237E
:103600001EC1002329F021E02F1508F47EC111C14D
:10361000FF2009F07AC113C1002321F0FF2009F433
:1036200008C14EC1FF2009F40AC155C18D2D8695F0
:103630008695837090E0009721F0019709F065C1AD
:103640000AC0002319F0C601937002C080E090E028
:103650000E94BC175AC1002319F0C601937002C022
:1036600080E090E00E94D41750C18D2D837009F046
:103670005EC0002309F049C12C2D229526952770A4
:10368000220F220F8C2D8F70E82EFF2400E010E017
:10369000022E04C0EE0CFF1C001F111F0A94D2F76B
:1036A000C4FC05C060E070E080E090E00FC06FE017
:1036B00070E080E090E004C0660F771F881F991FBC
:1036C0002A95D2F76095709580959095D694D6946A
:1036D000E3E0DE224D2D50E041305105A9F04230AB
:1036E00051051CF4452B49F010C14230510589F0B9
:1036F0004330510509F009C113C06E297F29802B81
:10370000912B0E943F2201C16E297F29802B912B92
:103710000BC06E297F29802B912B0E942E22F5C091
:103720000E943F22C801B7010E945022EEC090E0E3
:10373000002311F496958795817009F4E6C02C2D2D
:10374000229526952770220F220F8C2D8F70E82E40
:10375000FF2400E010E0022E04C0EE0CFF1C001F4E
:10376000111F0A94D2F7C4FC05C060E070E080E04D
:1037700090E00FC06FE070E080E090E004C0660F62
:10378000771F881F991F2A95D2F7609570958095AD
:103790009095D694D694F3E0DF224D2D50E0413041
:1037A0005105A9F0423051051CF4452B49F0ADC03C
:1037B0004230510589F04330510509F0A6C013C0CD
:1037C0006E297F29802B912B0E9492219EC06E2909
:1037D0007F29802B912B0BC06E297F29802B912B69
:1037E0000E94812192C00E949221C801B7010E94CB
:1037F000A3218BC021EFC216A9F12C1540F080EE59
:10380000C81608F459C0EFEEEC1558F41CC0F3EFDD
:10381000CF1691F1CF1658F124EFC21609F04CC023
:1038200035C01C2D1F708D2D8F71002331F00E942B
:10383000F021812F0E94FC1868C00E94D021812FA6
:103840000E94F51862C0002321F0FF2009F05DC03E
:1038500004C081E08F1508F458C08D2D8F710E942F
:10386000B42153C08D2D8F710023D9F12FC08D2D20
:103870008F71002359F135C0002329F08D2D8F71F0
:103880000E940C2242C00E941C223FC0002351F023
:103890001D2D1F71812F0E94F021812F63E00E9456
:1038A000892333C081E00E947023E1E0EF1568F5C1
:1038B00082E00E94702329C0002359F0FF2021F0EC
:1038C0008C2D0E94561921C08D2D8F710E94F021E0
:1038D0001CC0FF2021F08C2D0E94031916C08D2DD5
:1038E0008F710E94D02111C0FFE0DF22C5016C2D35
:1038F0004D2D0E9487110E94A52007C02FE0D222E3
:10390000C5016C2D4D2D0E940014992089F00E9454
:103910006A2280FD0DC0F50112820E9464220E947D
:10392000F021C5010E94251A0E9464220E94D02124
:103930000F900F900F900F900F90CF91DF911F91EC
:103940000F91FF90EF90DF90CF90BF90AF909F903E
:103950000895DF93CF93CDB7DEB72B970FB6F894CA
:10396000DEBF0FBECDBF342F4F83252F5887698709
:103970007A878B87472F582FFE01319686E0DF012B
:103980001D928A95E9F76B8339832A834C835D8383
:10399000432F522F8D819E810E94E61F2B960FB6DA
:1039A000F894DEBF0FBECDBFCF91DF9108950F9386
:1039B0001F930091400215C010E0F801EE0FFF1FA9
:1039C000E00FF11FEE0FFF1FEF5BFD4F40815181B4
:1039D00062817381848195810E949D180F5F1F4FC2
:1039E000077080913F02081739F71F910F910895D2
:1039F0004091390250913A0260913B0270913C0231
:103A000080913D0290913E020E949D1808950F936F
:103A10001F93CF93DF9380913E0282958F7009F0C0
:103A20006DC080913B02882309F468C06091400218
:103A300000913F0240913C0250913D0210913A02A8
:103A400070913902EA01C095D09555C041155105D4
:103A500009F44FC01F3F49F480E090E07F3F11F42C
:103A600081E090E0882309F044C0262F30E0F9017E
:103A7000EE0FFF1FE20FF31FDF01AA0FBB1FAF5BAB
:103A8000BD4F11968C911197181799F58C91781755
:103A900081F5EE0FFF1FED5BFD4F8081882349F517
:103AA00013968D919C9114978417950718F0841B99
:103AB000950B02C08C0F9D1F883C9105D0F480911E
:103AC0003E028F70806180933E02F901EE0FFF1F6E
:103AD000E20FF31FEE0FFF1FEA5BFD4F80818F7037
:103AE0008061808389E392E00E94251A0E94D71C9E
:103AF00005C06F5F6770601709F0A8CFDF91CF91A5
:103B00001F910F910895DF92EF92FF920F931F93F1
:103B1000DF93CF93CDB7DEB76B970FB6F894DEBFC8
:103B20000FBECDBF8C01DC011296DC9012974C9138
:103B300011965C9111971396ED90FC90149720913B
:103B40003C0230913D0260913A0270913902211598
:103B5000310509F4DBC16F3F09F003C27F3F09F073
:103B600000C2D4C1E216F30640F0C701821B930BDA
:103B7000883C910508F0EEC008C0209530952E0DC8
:103B80003F1D283C310508F0E5C080913E02807F52
:103B900009F095C06F3F09F0EAC17F3F09F0E7C126
:103BA00015C0741799F4DD2089F480913E028F705E
:103BB000806180933E020E94F81C89E392E00E949B
:103BC000251A80913E02F8018583BCC1FD82EC82FA
:103BD0005A834983DB82DE011696FE01319685E029
:103BE00001900D928150E1F76885DE011B96FE0180
:103BF000369685E001900D928150E1F72C853B854A
:103C00008E859F85892B09F451C02F3F09F0B3C1E0
:103C10003F3F09F0B0C14AC0FD82EC825A8349831C
:103C2000DB82DE011B96FE01319685E001900D924C
:103C30008150E1F7FC847B856D85809140029091F5
:103C40003F021FC0282F30E0F901EE0FFF1FE20FE7
:103C5000F31FDF01AA0FBB1FAF5BBD4F11968C9105
:103C60001197F81651F48C91781739F4EE0FFF1F65
:103C7000ED5BFD4F80816817C9F42F5F3F4F822FA6
:103C800087708917F9F68DC19F7059F0442349F464
:103C900059C19F7031F0D80115968C91807F09F43D
:103CA00051C1405E483008F44DC148C1DD2009F4DF
:103CB00049C180913E02816080933E0243C16F3FC3
:103CC00009F05DC17F3F09F05AC114C0741791F427
:103CD000DD2081F480913E02F8018583C8010E94B5
:103CE000251AA9E3B2E0F80186E001900D92815017
:103CF000E1F720C15A83498389819A810E94AD18D6
:103D0000882309F41BC1DD2009F418C130913E025B
:103D1000832F82958F7090E002979CF090913A02E9
:103D200020913902FE01709686E0DF011D928A958E
:103D3000E9F7998B288BFC8AEB8A3D8BCF010E9497
:103D4000251AA9E3B2E0F80186E001900D928150B6
:103D5000E1F7EEC080913E02807FA9F47E2DFD82C6
:103D6000EC825A834983DB826D2D8D810E948E18EF
:103D700009E312E0C8010E94251A86E0F8011192B9
:103D80008A95E9F7C0C06F3F09F0FDC07F3F09F099
:103D9000FAC014C0741791F4DD2081F480913E02C2
:103DA000D80115968C93C8010E94251AE9E3F2E028
:103DB00086E0DF011D928A95E9F7BEC05A834983E8
:103DC00089819A810E94AD18882309F4B7C0DD204B
:103DD00009F4B4C030913E02832F82958F7090E039
:103DE00002979CF090913A0220913902FE0176965A
:103DF00086E0DF011D928A95E9F79F8B2E8BFA8E64
:103E0000E98E3B8FCF010E94251AA9E3B2E0F801A9
:103E100086E001900D928150E1F78AC06F3F09F072
:103E2000B6C07F3F09F0B3C071C0E216F30640F0A0
:103E3000C701821B930B883C910508F053C008C052
:103E4000209530952E0D3F1D283C310508F04AC0C5
:103E5000DD2009F473C06F3F09F09FC07F3F09F078
:103E60009CC029C0741739F590913E0290FD1AC08C
:103E7000892F82958F70B1F0F80195838F3031F0E2
:103E80008F5F8295807F9F70982B9583C8010E94D9
:103E9000251AA9E3B2E0F80186E001900D92815065
:103EA000E1F748C0A9E3B2E0F80186E001900D9285
:103EB0008150E1F741C05A83498389819A810E94E8
:103EC000AD18882349F0A9E3B2E0F80186E001903B
:103ED0000D928150E1F72CC080913E028160809369
:103EE0003E022CC07E2DFD82EC825A834983DB8208
:103EF0006D2D8D810E948E18E9E3F2E086E0DF01EE
:103F00001D928A95E9F70E94F81C1CC0DD20B1F0D3
:103F10005A83498389819A810E94AD18882371F060
:103F2000A9E3B2E0F80186E001900D928150E1F73B
:103F30000E94071D0E94F81C81E005C0C8010E9474
:103F4000251AFACF80E06B960FB6F894DEBF0FBE4D
:103F5000CDBFCF91DF911F910F91FF90EF90DF9038
:103F6000089580913B02882309F458CFFBCD651753
:103F700009F02CCE16CE613009F498CE4DCE6517DF
:103F800009F0B8CEA3CE651709F018CF03CF809102
:103F90003B02882309F0BACF48CF651709F08BCFD1
:103FA00061CF5A83498389819A810E946721482F72
:103FB000892F82958F70282F30E0223031050CF444
:103FC00063CE243031050CF0B9CF63CE0F931F932D
:103FD000DF93CF93CDB7DEB72C970FB6F894DEBF43
:103FE0000FBECDBF4F83588769877A878B879C87A1
:103FF0008E01095F1F4FC8010E94831D8823D9F0DD
:1040000028853F818A859B85892B09F46BC02F3FCA
:1040100049F480E090E03F3F11F481E090E0882394
:1040200009F060C04F81588569857A858B859C85AC
:104030000E949D1857C0DE011196F80186E001909C
:104040000D928150E1F7F981EA814C815D81411542
:10405000510509F447C0EF3F09F04CC0FF3F09F09C
:1040600049C040C0F983EA835D834C83F901EE0FB8
:10407000FF1FE20FF31FEE0FFF1FEF5BFD4FDE018F
:10408000119686E00D9001928150E1F760933F0216
:104090000E94D71C27C0919FC00111248F5B9D4FA8
:1040A0000E94831D882309F445C08091400290E05E
:1040B000FC01EE0FFF1FE80FF91FEE0FFF1FEF5B74
:1040C000FD4F4081518162817381848195810E947D
:1040D0009D188091400290E00196877090708093C7
:1040E000400201C016E09091400280913F02981773
:1040F00091F620C080913F02282F30E02F5F3F4F84
:10410000B90167707070215030408091400290E09A
:104110006817790709F0A6CF0E94F01810923F02A5
:1041200010924002E9E3F2E086E0DF011D928A95F9
:10413000E9F7D8CF2C960FB6F894DEBF0FBECDBFEF
:10414000CF91DF911F910F910895CF92DF92EF925F
:10415000FF921F93CF93DF93EC01009709F466C0A1
:1041600010E090EAC92E9FE0D92E81E0E82EF12CD4
:10417000FE0121969491943748F4943008F044C09D
:10418000913079F0923009F051C01BC0953709F495
:1041900037C0953750F1892F8458803708F046C0D2
:1041A00037C0FE0121969491892F805E883060F59A
:1041B00097708E2D01C0880F9A95EAF70E941A23F6
:1041C0000FC0FE0121969491892F805E883058F4AB
:1041D00097708E2D01C0880F9A95EAF70E942023D0
:1041E0000E943F2319C0892F15C0FE01249104C0ED
:1041F000C6010197F1F721502223D1F721960CC077
:10420000FE012196149108C0892F0E94561904C0FE
:10421000892F8F770E940319212F04C0C6010197AF
:10422000F1F72150222309F4A3CFF8CFDF91CF91EA
:104230001F91FF90EF90DF90CF900895089508951B
:10424000AF92BF92DF92EF92FF920F931F93CF93A3
:10425000DF935C01E0907102F090720200917302B2
:10426000109174028091750290917602A09177026C
:10427000B0917802E82AF92A0A2B1B2BCFE1D0E073
:10428000DC2ED801C7010C2E04C0B695A7959795D2
:1042900087950A94D2F781709070892B39F08C2F12
:1042A000B5010E9417148130910531F421978FEFE9
:1042B000CF3FD80729F7DD248D2DDF91CF911F91B6
:1042C0000F91FF90EF90DF90BF90AF9008950F9304
:1042D0001F938C010E942021B8010E9417141F9186
:1042E0000F910895CB010E94672108956093750294
:1042F0007093760280937702909378020E94DF1881
:1043000008959B01AC0160917502709176028091D5
:1043100077029091780262277327842795270E945D
:10432000762108959B01AC0160917502709176022F
:1043300080917702909178026223732384239523DE
:104340000E94762108959B01AC01609175027091E5
:1043500076028091770290917802622B732B842BE6
:10436000952B0E947621089521E030E040E050E056
:1043700004C0220F331F441F551F8A95D2F7809126
:10438000750290917602A0917702B0917802282769
:1043900039274A275B27CA01B9010E94762108956F
:1043A00021E030E040E050E004C0220F331F441F02
:1043B000551F8A95D2F7209530954095509580915C
:1043C000750290917602A0917702B091780228232D
:1043D00039234A235B23CA01B9010E94762108953B
:1043E00021E030E040E050E004C0220F331F441FC2
:1043F000551F8A95D2F78091750290917602A0910F
:104400007702B0917802282B392B4A2B5B2BCA01FB
:10441000B9010E947621089521E030E040E050E0AB
:1044200004C0220F331F441F551F8A95D2F7CA01BB
:10443000B9010E947621089560E070E080E090E08C
:104440000E947621089560937102709372028093A6
:104450007302909374020E94DF1808959B01AC01CF
:104460006091710270917202809173029091740256
:1044700062277327842795270E94232208959B0192
:10448000AC016091710270917202809173029091FF
:10449000740262237323842395230E9423220895A8
:1044A0009B01AC0160917102709172028091730264
:1044B00090917402622B732B842B952B0E942322E4
:1044C00008950E942322089580918D0285958595F7
:1044D0008595089580918D028770089580918D0251
:1044E000877009F081E00895382F80913501882385
:1044F000E1F0809132018823C1F0832F8695869563
:1045000086958F3070F5E0913301F0913401E80F1A
:10451000F11D377081E090E002C0880F991F3A9535
:10452000E2F72181282B21830895A0913301B091D6
:104530003401FD0120E08FEF9281931791F08F3FBE
:1045400019F4992309F4822F2F5F31962E30A1F7A9
:104550008F3F39F0992787FD9095A80FB91F1296C4
:104560003C930895482F809135018823E9F080918C
:1045700032018823C9F0842F8695869586958F30E1
:1045800020F5E0913301F0913401E80FF11D4770FF
:1045900081E090E002C0880F991F4A95E2F780956C
:1045A000218182238183089520E030E0E09133016E
:1045B000F0913401E20FF31F8281841709F4128213
:1045C0002F5F3F4F2E30310589F7089581E090E04D
:1045D000E0913301F0913401E80FF91F1082019648
:1045E00080319105A9F708958091890208959091ED
:1045F0008902982B90938902089580959091890261
:1046000098239093890208958093890208951092C7
:104610008902089590918C02982B90938C020895B2
:10462000809590918C02982390938C02089510921B
:104630008C02089590918B02982B90938B02089591
:10464000809590918B02982390938B0208951092FD
:104650008B02089580938A02089510928A02089529
:10466000E0913301F091340120E091E081818111EA
:104670002F5F9F5F31969031C9F7822F0895E091A7
:104680003301F0913401809189028083E0913301FC
:10469000F0913401808190918C02892B8083E0918C
:1046A0003301F0913401808190918B02892B8083BA
:1046B00090918A02992369F0E0913301F0913401DD
:1046C0008081892B80830E943023882311F00E94EF
:1046D0002D2380913301909134010E94B1170895E8
:1046E00020918D02482F4095422340938D02842FC4
:1046F000877071F430E0842F992787FD90952817F3
:10470000390731F0842F8595859585950E94D021B4
:104710000895982F990F990F990F962B90938D02CA
:104720000E94F02108959B01AC01AA27BB270097A6
:10473000A105B10521F4DA01C90160E001C060E121
:10474000292F3A2F4B2F55272115310541055105AA
:1047500019F49C01AD0101C0685FDA01C90174E080
:10476000B695A795979587957A95D1F70097A10566
:10477000B10519F4DA01C90101C06C5F9C01AD01FA
:10478000F2E05695479537952795FA95D1F721157B
:1047900031054105510519F49C01AD0101C06E5F61
:1047A00056954795379527952115310541055105B2
:1047B00009F06F5F862F0895682F84E090E00E94D3
:1047C000752C089584E090E00E94672C089583E0A2
:1047D00090E00E94672C089582E090E00E94672C90
:1047E000089580E090E00E946F2C20E08D5E9E4F47
:1047F00009F421E0822F089580E090E06DEE7EEFD5
:104800000E94872C82E090E060E00E94752C83E09B
:1048100090E060E00E94752C84E090E060E00E94EF
:10482000752C85E090E060E00E94752C0895089555
:104830001F920F920FB60F9211248F939F93AF93F5
:10484000BF9380918F02882399F480919002909178
:104850009102A0919202B09193024196A11DB11DC7
:104860008093900290939102A0939202B09393024E
:10487000BF91AF919F918F910F900FBE0F901F909E
:1048800018950E94F0180E94A4170E94D41208954F
:104890008091AC02843021F110928F0220E488E1F3
:1048A00090E00FB6F894A895809360000FBE209317
:1048B000600080E00E94D41283B7817F846083BF50
:1048C00083B7816083BF7894889583B78E7F83BFD9
:1048D00088E10FB6F89480936000109260000FBEDC
:1048E00008951F930E944A0E0E947A0E0E94172478
:1048F00010E0812F0E94140E882311F081E004C083
:104900001F5F1E30B1F780E01F91089582E084BDE3
:1049100093E095BD9AEF97BD80936E0008958FB791
:10492000F89420919002309191024091920250911E
:1049300093028FBFC9010895EF92FF920F931F93C7
:10494000BC018FB7F894E0909002F0909102009132
:104950009202109193028FBFA8019701407050708E
:10496000CB01A0E0B0E0281739074A075B0720F029
:104970009701261B370B05C09B01209530952E0D06
:104980003F1DC9011F910F91FF90EF9008951F9255
:104990000F920FB60F9211248F939F93AF93BF93F3
:1049A0008091900290919102A0919202B091930215
:1049B0000196A11DB11D8093900290939102A09346
:1049C0009202B0939302BF91AF919F918F910F90FC
:1049D0000FBE0F901F9018950E943E29F89480E218
:1049E0009EE420E931E0F9013197F1F70197D9F719
:1049F00087E090EBA7E0B0EB8093B5029093B6020E
:104A0000A093B702B093B8022CE088E190E00FB613
:104A1000F894A895809360000FBE20936000FFCFAC
:104A20000E94F123882311F40E94FC230E94EC23AE
:104A300080938E020E94E2238093A6021092A70226
:104A4000881F8827881F809332010E94E72390E007
:104A5000A0E0B0E0BC01CD010E9461220895109257
:104A6000AB020895089508958091950208950895E0
:104A7000DF93CF9300D00F92CDB7DEB7AC0180911A
:104A8000AC02843029F582E08093E9002FEF95EDA8
:104A900005C0892F8A95F1F7222329F08091E8003B
:104AA000215085FFF6CF8091E80085FF11C05B8320
:104AB0004A8383E08983CE01019663E070E040E0A1
:104AC00050E00E9460288091E8008E778093E80093
:104AD0000F900F900F90CF91DF910895DF93CF93B8
:104AE00000D00F92CDB7DEB7AC018091AC0284301C
:104AF00029F582E08093E9002FEF95ED05C0892F1D
:104B00008A95F1F7222329F08091E800215085FF52
:104B1000F6CF8091E80085FF11C05B834A8382E075
:104B20008983CE01019663E070E040E050E00E948E
:104B300060288091E8008E778093E8000F900F90B6
:104B40000F90CF91DF9108950F931F93182F092F86
:104B50008091AC02843009F04DC0809135018823EA
:104B6000E9F0809132018823C9F083E08093E90065
:104B70009FEF25E105C0822F8A95F1F7992329F04F
:104B80008091E800915085FFF6CF8091E80085FF85
:104B900031C0812F902F60E170E018C081E08093D8
:104BA000E9009FEF25ED05C0822F8A95F1F7992343
:104BB00029F08091E800915085FFF6CF8091E800C0
:104BC00085FF18C0812F902F68E070E040E050E032
:104BD0000E9460288091E8008E778093E800A6E923
:104BE000B2E0212F302FC901FC0180E101900D922C
:104BF0008150E1F71F910F91089584B7877F84BF9B
:104C000088E10FB6F89480936000109260000FBEA8
:104C100080E880936100109261000E94ED170E946D
:104C20003E290E949F298091E20084608093E200E7
:104C300078940E943D2C0E94871886E391E00E94A0
:104C40009F170CC00E9448248091AA02882331F04B
:104C50000E947124882311F00E9475278091AC0274
:104C6000853081F30E94F317F9CF8091AB0288233E
:104C700049F40E943E290E949F298091E2008460AD
:104C80008093E20008958091AE02833009F457C00A
:104C9000843030F4813071F0823009F0B1C098C0B6
:104CA0008A3009F485C08B3009F46AC0893009F074
:104CB000A7C020C08091AD02813A09F0A1C08091C7
:104CC000E800877F8093E8008091B1029091B20262
:104CD000892B21F460E186E992E003C060E080E086
:104CE00090E070E00E948B278091E8008B778093A2
:104CF000E80008958091AD02813209F081C0809171
:104D0000B1029091B202009719F0029709F078C0B1
:104D10008091E800877F8093E80005C08091AC0215
:104D2000882309F46DC08091E80082FFF7CF80915D
:104D3000F100809395028091E8008B771CC08091F0
:104D4000AD02813A09F05CC08091B1029091B2024B
:104D5000892B09F055C08091E800877F8093E80097
:104D60008091E80080FFFCCF809135018093F100B5
:104D70008091E8008E778093E8000E94EB280895E8
:104D80008091AD028132E1F58091B1029091B20241
:104D9000892BB1F58091E800877F8093E8000E941D
:104DA000EB288091AF02809335010E94F01808959E
:104DB0008091AD02813221F58091E800877F809358
:104DC000E8000E94EB288091B0028093940208953D
:104DD0008091AD02813AA1F48091E800877F8093B1
:104DE000E8008091E80080FFFCCF809194028093DE
:104DF000F1008091E8008E778093E8000E94EB2814
:104E0000089581E061EC42E00E94B32882E061EC09
:104E100042E00E94B32883E061EC42E10E94B328A3
:104E200008950E9441240895DA019330C1F094302E
:104E300030F4913051F0923009F04FC00BC09132F4
:104E400021F1923209F049C032C0EBE5FAE122E1EA
:104E500030E047C0EDE6FAE124E530E042C08130C1
:104E600051F0813020F0823009F037C008C0E1EC09
:104E7000FAE1849107C0E5ECFAE1849103C0EDED1D
:104E8000FAE18491282F30E02CC0613041F061308C
:104E900018F0623011F508C0EFE7FAE102C0E8E966
:104EA000FAE129E030E01DC0E1EBFAE1FACF613030
:104EB00051F0613018F0623081F40AC0ECEAF9E197
:104EC00020E430E00EC0ECEEF9E126E330E009C06A
:104ED000E2E2FAE129E330E004C0E0E0F0E020E0C3
:104EE00030E0ED93FC93C901089580E189BD82E132
:104EF00089BD09B400FEFDCF8091D8008F7D8093DD
:104F0000D8008091E00082608093E0008091E00012
:104F100081FDFCCF08959C014091B3025091B402F1
:104F20004617570718F4F90190E043C06115710561
:104F300011F0AB01F8CF8091E8008E778093E80004
:104F400040E050E0F0CF8091AC02882309F447C0E4
:104F5000853009F446C08091E80083FD44C080910B
:104F6000E80082FD36C08091E80080FF22C0809179
:104F7000F3009091F200782F60E0292F30E0262B8B
:104F8000372B07C081918093F100415050402F5F33
:104F90003F4F4115510519F02830310598F390E045
:104FA0002830310509F491E08091E8008E778093F4
:104FB000E8004115510539F6992329F60AC0809178
:104FC000AC02882361F0853061F08091E80083FDB8
:104FD0000AC08091E80082FFF2CF80E0089582E06D
:104FE000089583E0089581E008959C014091B30203
:104FF0005091B4024617570718F4F90190E044C0E5
:105000006115710511F0AB01F8CF8091E8008E7742
:105010008093E80040E050E0F0CF8091AC0288231C
:1050200009F448C0853009F447C08091E80083FD49
:1050300045C08091E80082FD37C08091E80080FF84
:1050400023C08091F3009091F200782F60E0292F27
:1050500030E0262B372B08C084918093F1003196E5
:10506000415050402F5F3F4F4115510519F02830F6
:10507000310590F390E02830310509F491E08091FA
:10508000E8008E778093E8004115510531F69923A9
:1050900021F60AC08091AC02882361F0853061F06E
:1050A0008091E80083FD0AC08091E80082FFF2CF82
:1050B00080E0089582E0089583E0089581E00895F6
:1050C000BF92CF92DF92EF92FF920F931F93CF93F5
:1050D000DF93182F092F7B016A010E940C29B82E3B
:1050E0008823B1F5812F902F9C01E901C114D104CF
:1050F00039F0F60180819181E81AF90AC80FD91FA9
:1051000000E010E022C08091E80085FD16C080918B
:10511000E8008E778093E800C114D10449F0F601CD
:1051200080819181800F911F9183808385E011C0E0
:105130000E940C29882349F00CC089918093F100CA
:105140000894E108F1080F5F1F4FE114F104D9F64C
:105150008B2DDF91CF911F910F91FF90EF90DF90FA
:10516000CF90BF900895382F282F2EC0822F8F7098
:105170008093E900231721F4762F942F50E006C086
:105180007091EC009091ED005091F00091FF1BC0E8
:105190008091EB008E7F8093EB008091ED008D7FFE
:1051A0008093ED008091EB0081608093EB00709321
:1051B000EC009093ED005093F0008091EE0087FD9D
:1051C00002C080E008952F5F273080F23F70309357
:1051D000E90081E008958091AD0288239CF404C029
:1051E0008091AC028823B9F08091E80082FFF8CF6B
:1051F0008091E8008B778093E80008958091AC025D
:10520000882349F08091E80080FFF8CF8091E80082
:105210008E778093E80008954091E4005091E50076
:1052200024E68091EC0080FF24C08091E80080FD9E
:105230001EC08091AC02882311F482E0089585306D
:1052400011F483E008958091EB0085FF02C081E0B6
:1052500008958091E4009091E5008417950709F383
:10526000222311F484E008952150AC01DACF80E0CC
:1052700008958091E80082FFDCCFF9CF0E94B12928
:105280000E94B929E0EEF0E0808181608083A8ED82
:10529000B0E08C918F778C9319BCE7EDF0E08081C2
:1052A0008E7F80838C918F7E8C931092AB020895B9
:1052B000EF92FF920F931F930E94B1290E94B92988
:1052C00008ED10E0F80180818F778083808180680D
:1052D000808380818F7D808319BC1092AC021092F4
:1052E000A8021092AA021092A90280EEE82EF12CD8
:1052F000F70180818B7F8083F801808181608083CA
:1053000080E060E042E00E94B328E1EEF0E08081BE
:105310008E7F8083E2EEF0E08081816080838081F7
:1053200088608083F70180818E7F8083F80180818F
:10533000806180831F910F91FF90EF900895E8EDB9
:10534000F0E080818F7E8083E7EDF0E080818160F6
:10535000808384E082BF81E08093AB020E94582961
:105360000895E8EDF0E080818E7F80831092E20066
:1053700008951092DA001092E10008951F920F92A2
:105380000FB60F9211241F932F933F934F935F9368
:105390006F937F938F939F93AF93BF93EF93FF93FD
:1053A0001091E9008091EC001092E9008091F000EA
:1053B000877F8093F00078940E94CC2A1092E900B5
:1053C0008091F00088608093F0001F701093E900D6
:1053D000FF91EF91BF91AF919F918F917F916F91CD
:1053E0005F914F913F912F911F910F900FBE0F90A2
:1053F0001F9018951F920F920FB60F9211242F93A2
:105400003F934F935F936F937F938F939F93AF934C
:10541000BF93EF93FF938091E10082FF0BC08091D7
:10542000E20082FF07C08091E1008B7F8093E10062
:105430000E943C2C8091DA0080FF1FC08091D80030
:1054400080FF1BC08091DA008E7F8093DA0080910C
:10545000D90080FF0DC080E189BD82E189BD09B41A
:1054600000FEFDCF81E08093AC020E94352605C08E
:1054700019BC1092AC020E942F258091E10080FFA0
:1054800019C08091E20080FF15C08091E2008E7FFC
:105490008093E2008091E20080618093E20080913D
:1054A000D80080628093D80019BC85E08093AC025C
:1054B0000E9433258091E10084FF30C08091E2009A
:1054C00084FF2CC080E189BD82E189BD09B400FE62
:1054D000FDCF8091D8008F7D8093D8008091E1002E
:1054E0008F7E8093E1008091E2008F7E8093E200C6
:1054F0008091E20081608093E2008091A80288237D
:1055000011F084E007C08091E30087FD02C081E0D4
:1055100001C083E08093AC020E9411278091E100DA
:1055200083FF29C08091E20083FF25C08091E100C4
:10553000877F8093E10082E08093AC021092A80202
:105540008091E1008E7F8093E1008091E2008E7F68
:105550008093E2008091E20080618093E20080E02D
:1055600060E042E00E94B3288091F0008860809360
:10557000F0000E943225FF91EF91BF91AF919F9172
:105580008F917F916F915F914F913F912F910F90EC
:105590000FBE0F901F9018951F93DF93CF93CDB739
:1055A000DEB7AC970FB6F894DEBF0FBECDBFEDEA05
:1055B000F2E08091F100819322E0E53BF207C9F728
:1055C0000E9443268091E80083FF3EC18091AD0296
:1055D0003091AE02353009F487C0363040F43130B6
:1055E000C9F1313070F0333009F02EC133C038309A
:1055F00009F4F9C0393009F409C1363009F024C181
:1056000097C0803821F0823809F01EC108C09091FF
:10561000A9028091AA02882399F0926011C080911A
:10562000B1028F708093E9008091EB0090E025E05B
:10563000969587952A95E1F7982F91701092E90039
:105640008091E800877F8093E8009093F1001092AA
:10565000F100D4C0882319F0823009F0F5C090E041
:105660008F719070009721F0029709F0EDC00CC087
:105670008091AF02813009F0E7C01092AA02333066
:1056800069F58093AA022AC08091AF02882331F580
:105690002091B1022F7009F4D7C02093E9008091C6
:1056A000EB0080FF1BC0333021F48091EB0080625F
:1056B00013C08091EB0080618093EB0081E090E06B
:1056C00002C0880F991F2A95E2F78093EA00109292
:1056D000EA008091EB0088608093EB001092E90073
:1056E0008091E800877F8DC0882309F0ADC01091BC
:1056F000AF021F778091E3008078812B8093E300D5
:105700008091E800877F8093E8000E94EB288091D9
:10571000E80080FFFCCF8091E30080688093E30085
:10572000112311F482E001C083E08093AC028CC0AD
:105730008058823008F088C08091AF029091B0020A
:1057400023E08C3D920709F034C083E08C838AE229
:105750008B837FB7F894DE0115966EE040E050E051
:1057600011E2E62FF0E010935700849140FF03C050
:1057700082958F706F5F8F70282F30E08A3018F01D
:10578000C901C79602C0C901C0968D939D934F5F12
:105790005F4F4431510529F77FBF8091E800877F33
:1057A0008093E800CE0103966AE270E00E948B27A6
:1057B00014C06091B102AE014F5F5F4F0E94142789
:1057C000BC01009709F440C08091E800877F809376
:1057D000E80089819A810E94F5278091E8008B7703
:1057E0008093E80031C0803879F58091E800877FA8
:1057F0008093E8008091A8028093F1008091E800F6
:105800008E778093E8000E94EB281EC08823E1F485
:105810009091AF029230C0F48091E800877F80932E
:10582000E8009093A8020E94EB288091A8028823A8
:1058300031F48091E30087FD02C081E001C084E083
:105840008093AC020E9401278091E80083FF0AC088
:105850008091E800877F8093E8008091EB00806270
:105860008093EB00AC960FB6F894DEBF0FBECDBFB1
:10587000CF91DF911F91089508951F938091AC02FD
:10588000882379F01091E9008091EC001092E900F2
:105890008091E80083FF02C00E94CC2A1F70109301
:1058A000E9001F910895AA1BBB1B51E107C0AA1F65
:1058B000BB1FA617B70710F0A61BB70B881F991FB1
:1058C0005A95A9F780959095BC01CD010895F99955
:1058D000FECF92BD81BDF89A992780B50895A8E1C1
:1058E000B0E042E050E00C948F2C262FF999FECFC7
:1058F00092BD81BDF89A019700B4021639F01FBA23
:1059000020BD0FB6F894FA9AF99A0FBE0895019641
:10591000272F0E94762C0C94752CDC01CB01FC0106
:10592000F999FECF06C0F2BDE1BDF89A319600B4F8
:0E5930000D9241505040B8F70895F894FFCF03
:10593E00059901990199019D019901990199019981
:10594E00019D019D019D019901000000000000C410
:10595E000DAC00AC05EC06EC0B440C040D440F141E
:10596E000C20017902013425A42537256E25382512
:10597E0000001D00020A0F170C11061A000000028B
:10598E0001010101020202023700000000000000C6
:10599E0024140000000000006402231400002614EA
:0C59AE001F140000000020006400250011
:00000001FF
