:100000000C943C0F0C94800F0C94800F0C94800F78
:100010000C94800F0C94800F0C94800F0C94800F24
:100020000C94800F0C94800F0C94312B0C94032CA7
:100030000C9422260C94800F0C94800F0C94800F4B
:100040000C94800F0C94800F0C94800F0C94800FF4
:100050000C94800F0C9489260C94800F0C94800FC4
:100060000C94800F0C94800F0C94800F0C94800FD4
:100070000C94800F0C94800F0C94800F0C94800FC4
:100080000C94800F0C94800F0C94800F0C94800FB4
:100090000C94800F0C94800F0C94800F0C94800FA4
:1000A0000C94800F0C94800F0C94800FE714ED14C7
:1000B000F114F414F814FC140015041509150D15A9
:1000C0001115151518151C152015241528152D1595
:1000D0005E1C5E1C981C981CCF1C461E091E461EEA
:1000E000F11C461E981D981D021E461E461E421EED
:1000F000A51DA51DA51DA51DA51DA51DA51DA51DF0
:10010000A51DA51DA51DA51DA51DA51DA51DA51DDF
:10011000B71DC51DCC1DD31DDD1DC21EC21ED51EA3
:10012000D51ECB1ED51ED51ED51EC21EC21ED11E6B
:10013000D51ED51ED11E682C8A2C752D8A2C752DA6
:10014000CC2CEF2C752D442D572D0000F0A22E0045
:100150004C002A00E100354200001E00140004009B
:100160001D6134004D001F001A0016001B00E10441
:100170002A00200008000700060050002C00210083
:100180001500090019004F004A00220017000A005C
:10019000050000006564000002530000006F0000CD
:1001A000E30001530253000000670000E200230057
:1001B0001C000B00110000002961240018000D0034
:1001C000100052004B0025000C000E0036005100BC
:1001D0002800260012000F0037002F002B002700F8
:1001E00013003300386130004E002D0031003468B8
:1001F000E500C10000000251E200E00000300030E4
:10020000000000302B0000300030003000300030A3
:10021000003000300030003000300030003000305E
:1002200000300100003000300030003000300100AC
:1002300000300030003000300030000000302A0074
:1002400000300000003000000030010000300000ED
:10025000003000000030003000300030003000007E
:10026000003000300030003000300100003000303D
:10027000003000300030010000300030003000302D
:1002800000300030003000300030003000300030EE
:1002900000304C00E600E4000030003000000100B7
:1002A00001000100E100010000003A00010001002E
:1002B0000100010001003B000100010001000100FC
:1002C00001003C000100010001004B0001003D0065
:1002D0000100010001004E0001003E00010001008C
:1002E0000100000001003F000100000001000000CB
:1002F0000100400001000000010000000100410079
:1003000001000100010000000100420001000100A5
:1003100001004A00010043000100010001004D00FE
:10032000010044000100010001000100010045003E
:100330000100010001000100007000000100010047
:10034000E5000100000000000000000000000000C7
:1003500000002000008020000080000000008400D9
:10036000008000000000300000802100008021009B
:100370000080520000808000008032000080310048
:10038000008046000080470000805000008081000F
:1003900000803300008044000080450000800000A1
:1003A00000001100008082000080340000804200C4
:1003B00000804300008000000000510000808300A6
:1003C0000080350000804000008041000080000077
:1003D00000001000008000000000B100008000005C
:1003E00000001000008000000000100000800000ED
:1003F00000001200008000000000120000800000D9
:1004000000001000008093000080A50000806000C4
:100410000080610000800000000010000080920059
:100420000080A40000806200008063000080000063
:1004300000005200008091000080A3000080640052
:100440000080650000800000000011000080900026
:100450000080A2000080A10000806600008067008C
:100460000080540000809400008000000000A00084
:100470000080700000807100008053000080000048
:100480000000000000000000000072000080720008
:1004900000800000000000000000000000000000DC
:1004A000000000000000000000000000000000004C
:1004B000000000000000000000000000000000003C
:1004C000000000000000000000000000000000002C
:1004D000000000000000000000000000000000001C
:1004E000000000000000000000000000000000000C
:1004F00000000000000000000000000000000000FC
:1005000000000000000000000000000000000000EB
:1005100000000000000000000000000000000000DB
:1005200000000000000000000000000000000000CB
:1005300000000000000000000000000000000000BB
:1005400000000000000000000000000000000000AB
:10055000000000000000000000000000000000009B
:10056000000000000000000000000000000000008B
:10057000000000000000000000000000000000007B
:10058000000000000000000000000000000000006B
:10059000000000000000000000000000000000005B
:1005A000000000000000000000000000000000004B
:1005B000000000000000000000000000000000003B
:1005C000000000000000000000000000000000002B
:1005D000000000000000000000000000000000001B
:1005E000000000000000000000000000000000000B
:1005F0003400000000000000000037000000000090
:100600000000000034005000FF1F00000000300216
:1006100000000000000000003402000000000000A4
:10062000000030025000FF1F0000000034025000A4
:10063000FF1F000000002702000000000000000073
:100640003702000000000000000027025000FF1FDA
:100650000000000037025000FF1F000000003000C3
:10066000000000000000000000000000000000008A
:10067000000030005000FF1F000000002C00500060
:100680000000000000003700000000000000000033
:1006900034003700000000000000330200000000BA
:1006A000000000003400370050005000FF1F3002EF
:1006B0003700000000000000340237000000000096
:1006C00000003002370050005000FF1F3402370096
:1006D00050005000FF1F27023700000000000000FC
:1006E00025023800000000000000270237005000FB
:1006F0005000FF1F2502380050005000FF1F30003F
:1007000037000000000000000000000000000000B2
:1007100000003000370050005000FF1F00000000B4
:100720000000000000003600000000000000000093
:10073000340036000000000000002E000000000021
:10074000000000003400360050005000FF1F30024F
:1007500036000000000000003402360000000000F7
:1007600000003002360050005000FF1F34023600F7
:1007700050005000FF1F270236000000000000005C
:10078000370236000000000000002702360050004B
:100790005000FF1F3702360050005000FF1F30008E
:1007A0003600000000000000000000000000000013
:1007B00000003000360050005000FF1F0000000015
:1007C00000000000000033000000000000000000F6
:1007D0003400330000000000000033023302000048
:1007E000000000003400330050005000FF1F3002B2
:1007F000330000000000000034023300000000005D
:1008000000003002330050005000FF1F340233005C
:1008100050005000FF1F27023300000000000000BE
:10082000000000000000000000002702330050001C
:100830005000FF1F0000000000000000000030001A
:100840003300000000000000000000000000000075
:1008500000003000330050005000FF1F0000000077
:100860000000000000000000000000000000000088
:10087000340000000000000000003600000000000E
:1008800000000000330000000000000000002F0204
:100890000000000000000000340200000000000022
:1008A000000037020000000000000000370237029D
:1008B0000000000000002602000000000000000010
:1008C000360200000000000000002D003702FF1F6C
:1008D00000000000360236020000000000002F0079
:1008E0000000000000000000000000000000000008
:1008F000000038020000000000000000200200009C
:100900000000000000002E020000000000000000B7
:10091000350000000000000000003502000000006B
:1009200000000000370000000000000000002E0260
:100930002E02000000000000000000000000000087
:100940000000240200000000000000002402240235
:100950000000000000003100000000000000000066
:100960000000000000000000000031003100000025
:10097000000000001F020000000000000000000056
:100980000000000000000000000000000000000067
:100990000000000000000000000000000000000057
:1009A0000000000000002D0000000000000000001A
:1009B000000000000000000000002E000000000009
:1009C00000000000210200000000000000003800CC
:1009D00000000000000000003800380000000000A7
:1009E000000026140000000000000000380038005D
:1009F0003800000000002D002D0000000000000065
:100A0000000000000000000000002D0200000000B7
:100A10000000000021022602000000000000380053
:100A2000250200000000000000000000000000009F
:100A300000003800250225020000000038003800C0
:100A4000380036020000250200000000000000000F
:100A5000000000000000000000001E020000000076
:100A60000000000037002502000000000000250201
:100A7000380000000000000000000000000000003E
:100A800000000000000000000000000021022F0212
:100A90000000000000002502260200000000000007
:100AA0000000000000000000000031020000000013
:100AB000000000002502370025020000000022028D
:100AC0000000000000000000000000000000000026
:100AD00000003102310200000000000000000000B0
:100AE00000000000000000000000000007000000FF
:100AF00000003400160000000700000000000000A5
:100B00000000000000000000000011003400170089
:100B10000000000000000C0011000A0000000000AE
:100B2000000034000F000F0000000000000008006B
:100B300015000000000000000000000000000000A0
:100B40000000000000000C0011000A00000000007E
:100B50000000340019000800000000000000000040
:100B60000000000000000000000000000000000085
:100B70000000000000000800150000000000000058
:100B80000000000000000000000000000000000065
:100B90000000000000000000000000000000000055
:100BA0000000000000000C0011000A00000000001E
:100BB00000003400070000000000000000000000FA
:100BC0000000000000000000000000000000000025
:100BD0000000000000000000000000000000000015
:100BE0000000000000000000000000000000000005
:100BF00000000000000000000000000000000000F5
:100C000000000000000008001500000000000000C7
:100C10000000340010000000000000000000000090
:100C200000000000000000000000000000000000C4
:100C300000000000000000000000000000000000B4
:100C400000000000000000000000000000000000A4
:100C50000000000000000000000000000000000094
:100C60000000000000000000000000001E02000064
:100C700000002900000000002900330200002502C6
:100C80000000000000000000000000000000000064
:100C90000000000000002D02000000000000000025
:100CA0000000000000000000000000000000000044
:100CB0000000000000000000000000000000000034
:100CC0000000000000000000000000000000000024
:100CD0000000000000000000000000000000000014
:100CE0000000000000000000000000000000000004
:100CF00000000000000000000000000000000000F4
:100D000000000000000000000000000000000000E3
:100D100000000000000000000000000000000000D3
:100D200000000000000000000000000000000000C3
:100D300000000000000000000000000000000000B3
:100D400000000000000000000000000000000000A3
:100D50000000000000000000000000000000000093
:100D60000000000000000000000000000000000083
:100D70000000000000000000000000000000000073
:100D80000000000000000000000000000000000063
:100D90000000000000000000000000000000000053
:100DA0000000000000000000000000000000000043
:100DB0000000000000000000000000000000000033
:100DC0000000000000000000000000000000000023
:100DD0000000000000000000000000000000000013
:100DE0000000000000000000000000001E000000E5
:100DF00000001F0000000000200000000000210093
:100E0000000000002200000000002300000000009D
:100E10002400000000002500000000002600000063
:100E200000001E00270000001E001E0000001E0023
:100E30001F0000001E00200000001E002100000016
:100E40001E00220000002700000000001E002700F6
:100E500000001F00270000002000270000002100E4
:100E600027000000220027000000230027000000C8
:100E7000240027000000250027000000260027008E
:100E800000001E00270027001E001E0027001E0075
:100E90001F0027001E00200027001E002100270041
:100EA0001E00220027000000000000001E000000BD
:100EB00000001F00000000002000000000002100D2
:100EC00000000000220000000000230000000000DD
:100ED00024000000000025000000000026000000A3
:100EE00000001E00270000001E001E0000001E0063
:100EF0001F0000001E00200000001E002100000056
:100F00001E00220000002700000000001E00270035
:100F100000001F0027000000200027000000210023
:100F20002700000022002700000023002700000007
:100F300024002700000025002700000026002700CD
:100F400000001E00270027001E001E0027001E00B4
:100F50001F0027001E00200027001E002100270080
:100F60001E00220027000000000000002B000000EF
:100F70000000280000000000000000000000000049
:100F8000000000000800000000001C00000000003D
:100F9000081C0000000016000000000008160000F9
:100FA00000001C1600000000081C160000000000D5
:100FB000000000001500000000001100000000000B
:100FC0001511000000000F0000000000150F0000C8
:100FD00000001600000000000F0F000000000A00D3
:100FE00000000000150A00000000110A00000000C7
:100FF0000A11000000000F0A000000000A1500009E
:101000000000070000000000070F000000000600BD
:10101000000000001506000000001106000000009E
:101020001106150000001300000000001513000059
:101030000000161300000000130F00000000050060
:10104000000000001505000000000A0A0000000072
:10105000000000000000050F00000000000000007C
:1010600000000000000000000F05000000000B0061
:10107000000000001A00000000001900000000003D
:101080001A11000000001D00000000001A0F0000EF
:101090000000160B000000000F19000000000A0BF2
:1010A00000000000150A0B00000010000000000006
:1010B0001510000000001B000000000000000000F0
:1010C00000001610000000000F1000000000060BCA
:1010D0000000000015060B00000011060B000000C8
:1010E000151900000000130B0000000000000000B4
:1010F00000000000000000000F060B0000000900C7
:1011000000000000150900000000100500000000AC
:101110001005081500000F0900000000090F00006D
:101120000000101300000000131000000000170062
:10113000000000001517000000001117000000005B
:101140001511170000000F1700000000170F000016
:1011500000001617000000001516170000000E0012
:1011600000000000150E00000000110E000000003D
:101170000000000000000E0F000000000000000052
:101180000000160E000000000F0E00000000061701
:1011900000000000061500000000170C12110000EE
:1011A0000000000000001317000000000000000015
:1011B00000001116170000000F1300000000060EBB
:1011C0000000000000000000000005170000000003
:1011D000000000000000060E0F00000000000000EC
:1011E0000000000000000000000000000000170BDD
:1011F0000000000015170B00000011170B00000085
:101200001A170B0000000F170B0000000000000071
:1012100000000000000000000000000000000A0BB9
:10122000170000001A0E00000000110A170B000042
:101230000000000000001B1700000000000000007C
:10124000000007170B000000000000000000170658
:101250000B00000000000000000000000000000083
:1012600000000000000013170B0000000000000049
:10127000000000000000000000000000000009174E
:1012800000000000091708150000091708110000E8
:10129000000000000000000000000000000000004E
:1012A000000010131700000013100811170016009B
:1012B00000000000151600000000111600000000DC
:1012C0001511160000000F1600000000150F160083
:1012D00000001616000000000F0F160000000A168E
:1012E00000000000150A16000000110A1600000098
:1012F0000A111600000000000000000000000000BD
:1013000000000716000000000000000000000616A4
:101310000000000015061600000011060816000067
:101320000000000000001316000000001513160056
:101330000000161316000000130F08160000051613
:10134000000000001505160000000A0A1600000043
:10135000000000000000050F08160000000000005B
:1013600000000000000000000F05160000000B1632
:10137000000000001A160000000019081600000006
:101380001A11160000001D08160000001A0F1600A2
:101390000000160B081600000F19081600000A0BB3
:1013A0001600000000000000000010160000000001
:1013B0001510160000001B081600000000000000B9
:1013C00000001610160000000F10160000000700A5
:1013D00000000000150700000000110700000000D9
:1013E0001A0700000000130B16000000150F07007D
:1013F00000001607000000000F0700000000070AA9
:1014000000000000000000000000100516000000B1
:101410001005081516000000000000000000000084
:101420000000101316000000000000000000171656
:10143000000000001517160000001117160000002C
:101440000000000000000F1716000000170F1C001E
:1014500000001617160000001516171600000E16CD
:1014600000000000150E16000000110E160000000E
:10147000000000000000000000000000000000006C
:101480000000160E160000000F0E160000000617D2
:1014900016000000000000000000170C12111600DA
:1014A000000000000000000000000000000000003C
:1014B00000000000000000000F1316000000060EE0
:1014C00016000000000000000000051716000000D4
:1014D000000000000000060E0F08160000000000CB
:1014E0000000000000000000000000000000170BDA
:1014F0001600000015170B16000011170B16000040
:101500001A170B1600000000000000000000000089
:1015100000000000000000000000000000000A0BB6
:10152000171600001A0E16000000110A170B1600FD
:1015300000000000000000000000000000000000AB
:10154000000007170B16000000000000000007163F
:10155000000000001507160000001107160000002B
:101560001A071600000013170B160000150F0716B8
:1015700000000000000000000F071600000000003F
:10158000000000000000000000000000000000005B
:10159000000000000000000000000000000000004B
:1015A0000000101317160000131008111716000082
:1015B00000000000080800000000121200000000F7
:1015C00012080000000004040000000004080000ED
:1015D00000000412000000000804120000001818A7
:1015E00000000000180800000000181200000000B1
:1015F0000818120000001804000000000818040079
:1016000000001218040000000812180400000C0C5E
:10161000000000000C08000000000C120000000098
:10162000080C120000000C0400000000080C04006C
:101630000000120C0400000008120C0400000C183A
:1016400000000000080C180000000C121800000038
:1016500008120C180000040C1800000008040C18F4
:10166000000012040C1800000812040C18000000FE
:101670000000000008000000000012000000000050
:101680000812000000000400000000000804000030
:1016900000001204000000000812040000001800FE
:1016A00000000000081800000000121800000000F0
:1016B00008121800000004180000000008041800B8
:1016C00000001204180000000812041800000C00AA
:1016D00000000000080C00000000120C00000000D8
:1016E00008120C000000040C0000000008040C00AC
:1016F000000012040C0000000812040C0000180C7A
:101700000000000008180C00000012180C00000077
:101710000812180C000004180C0000000804180C33
:1017200000001204180C0000081204180C0000003D
:101730000000000011000000000015000000000083
:101740000F00000000001A00000000001000000060
:1017500000001A15000000001015000000000B002A
:10176000000000001C0000000000150B000000003D
:101770000F1C000000001A0B00000000101C0000ED
:101780000000000000000000000000000000060053
:10179000000000001D000000000006150000000011
:1017A000060F0000000013000000000013110000ED
:1017B0000000131500000000130F00000000060BCE
:1017C00000000000061C00000000060B15000000D1
:1017D00006151C000000130B00000000131C000085
:1017E0000000130B15000000130B0F000000170082
:1017F00000000000190000000000171500000000A4
:10180000140000000000171A000000000D00000086
:1018100000000000000000000D0815000000170B7C
:1018200000000000171C00000000170B150000004E
:1018300017151C0000000E00000000000E11000033
:1018400000000E15000000000E0F00000000070051
:101850000000000007081900000007150000000044
:1018600007080F000000071A00000000070810001A
:10187000000007081500000000000000000009003B
:1018800000000000071C0000000009150000000017
:10189000090F00000000050000000000051C00000A
:1018A0000000051500000000050F00000000040006
:1018B00000000000041100000000041500000000FA
:1018C000040F00000000041A0000000004100000D3
:1018D0000000000000000000040F0F000000040BD7
:1018E00000000000041C00000000000000000000D8
:1018F000000000000000041A0B00000000000000BF
:1019000000000000000000000000000000000406CD
:1019100000000000041D0000000004061500000087
:1019200004060F0000000413000000000410100063
:10193000000004131500000004130F00000004064B
:101940000B00000004060600000004060615000057
:101950000406060F000004130B0000000000000046
:10196000000004130B150000000000000000041725
:10197000000000000419000000000417150000001A
:10198000041400000000041717000000040D0000FC
:1019900000000417171500000000000000000417E5
:1019A0000B00000000000000000004170B0F0000F7
:1019B000000000000000040E0000000004060E11EC
:1019C000000000000000000000000000000004070C
:1019D00000000000040719000000040715000000C3
:1019E00004061400000004070700000004071000AC
:1019F00000000407071500000407070F0000040992
:101A0000000000000409090000000409150000009E
:101A100004090F00000004050000000004051C007C
:101A2000000004051500000004050F00000016006A
:101A3000000000001611000000001608150000004C
:101A4000160F00000000161A00000000161000001B
:101A50000000000000000000000000000000160B65
:101A600000000000161C00000000160B150000000E
:101A7000160F1C0000000000000000000000000025
:101A8000000000000000000000000000000016063A
:101A900000000000161600000000160615000000E9
:101AA000000000000000161300000000000000000D
:101AB000000016131500000016130F000000160694
:101AC0000B0000000000000000000000000000000B
:101AD00000000000000016130B00000016131C008D
:101AE00000000000000000000000000000001617C9
:101AF0000000000016190000000016171500000075
:101B00001614000000001B00000000000000000090
:101B100000001B1500000000160815190000000049
:101B20000000000016171C0000000000000000006C
:101B30001617151C0000160E000000001B1C0000EC
:101B400000000000000000000000000000000A008B
:101B5000000000000A11000000000A15000000004B
:101B60000A0F000000000A1A000000000000000038
:101B700000000000000000000000000000000A0B50
:101B8000000000000A1C000000000000000000002F
:101B90000000000000000000000000000000000045
:101BA000000000000000000000000000000004161B
:101BB00000000000041111000000041515000000D1
:101BC00004160F00000000000000000004161000C2
:101BD00000000000000000000000000000000416EB
:101BE0000B00000004161C000000000000000000B4
:101BF00000000000000000000000000000000000E5
:101C000000000000000000000000000000000416BA
:101C10000600000004161600000004160615000059
:101C2000000000000000041613000000041313005D
:101C300000000413131500000413130F000000002C
:101C40000000000000000000000000000000000094
:101C50000000000000000416130B00000416130B14
:101C60001C0000000000000000000000000004163E
:101C7000170000000000000000000000000000004D
:101C8000041614000000041B000000000000000007
:101C9000000000000000000000000000000004162A
:101CA000170B000000000000000000000000000012
:101CB00000000000000004160E00000000000000FC
:101CC0000000000000000000000000000000040A06
:101CD00000000000040A11000000040A15000000C2
:101CE000040A0F000000040A0A00000004070D00A7
:101CF0000000040A0A150000040A0A0F0000040A82
:101D00000B00000004091700000004090915000079
:101D10000409090F00000405050000000000000090
:101D20000000040505150000000000000000160377
:101D30004500720067006F0044006F0078002000CB
:101D400045005A00000016034500720067006F004E
:101D500044006F007800200045005A000000040392
:101D6000090409025400030100A01909040000013C
:101D70000301010009211101000122400007058132
:101D80000308000A090401000103000000092111F1
:101D90000100012236000705820308000A09040237
:101DA0000001030000000921110100012239000790
:101DB0000583032000011201100100000008EDFE60
:101DC000071301000102000105010906A101050731
:101DD00019E029E71500250195087501810205081C
:101DE0001901290595057501910295017503910168
:101DF0000507190029F71500250195F875018102DD
:101E0000C005010980A101850216810026B7001ACC
:101E100081002AB700751095018100C0050C0901E9
:101E2000A1018503160100269C021A01002A9C02CA
:101E3000751095018100C005010906A1010507196A
:101E4000E029E715002501950875018102950175C6
:101E5000088101050819012905950575019102956B
:101E600001750391010507190029FF150026FF00E0
:101E7000950675088100C00011241FBECFEFDAE07F
:101E8000DEBFCDBF04B603FE24C08091DC03909179
:101E9000DD03A091DE03B091DF038730904BA740B4
:101EA000B04BB9F41092DC031092DD031092DE0304
:101EB0001092DF0314BE84B7877F84BF88E10FB61A
:101EC000F89480936000109260000FBEE0E0FFE3A2
:101ED000099512E0A0E0B1E0E2EDFBE502C005905B
:101EE0000D92AE30B107D9F713E0AEE0B2E001C019
:101EF0001D92AC3DB107E1F70E947D280C94E72DBF
:101F00000C9400001092B9008AE08093B800089504
:101F100094EA9093BC009091BC0097FFFCCF909105
:101F2000B900987F983021F0903111F081E0089548
:101F30008093BB0084E88093BC008091BC0087FF45
:101F4000FCCF8091B900887F883111F0803471F71F
:101F500080E0089584E98093BC008091BC0084FDFA
:101F6000FCCF08958093BB0084E88093BC008091EF
:101F7000BC0087FFFCCF9091B900987F81E0983238
:101F800009F480E0089584E88093BC008091BC004F
:101F900087FFFCCF8091BB00089580B38C7080BB1D
:101FA00081B3836F81BB089580913101811115C088
:101FB00080E40E94880F8093310181110CC082E17E
:101FC0000E94B20F80933101811105C08FEF0E94F2
:101FD000B20F809331010E94AA0F84B1807F84B92F
:101FE00085B1807F85B98AB1837F8AB98BB1837FC0
:101FF0008BB93E98469808950C9467140E949E18D9
:10200000809331010E94D40F0E94CD0FEDE1F2E0E8
:10201000AFE0B2E011921D9282E0EB32F807D1F707
:102020000C94BE150E949E18809331010E94D40F1B
:102030000E94CD0FEDE1F2E0AFE0B2E011921D920F
:1020400082E0EB32F807D1F708958F929F92BF920A
:10205000CF92DF92EF92FF920F931F93CF93DF9374
:102060001F92CDB7DEB780913101882379F080913E
:102070000E028F5F80930E02811108C00E949E188D
:1020800080933101811102C00E9430180FE012E0EC
:10209000812C912CEE24E394F12CDD24D39495E053
:1020A000C92E282D273030F580913101811142C091
:1020B00080E489820E94880F8093310129818111F7
:1020C00014C082E10E94B20F8093310129818111F5
:1020D0000CC0C701082C01C0880F0A94EAF780954C
:1020E0000E94B20F80933101298129830E94AA0F97
:1020F000298120C02A30A1F028F4283059F0293055
:1021000061F005C02C3089F070F02D3089F0209AF4
:10211000289810C0219A29980DC0229A2A980AC09E
:10212000239A2B9807C0529A01C0539A5B9802C019
:102130003E9A469830EA3A95F1F7273018F58091A3
:102140003101811144C080E40E94880F80933101E5
:10215000882311F0B12C12C083E10E94B20F80934A
:1021600031018111F7CF81E40E94880F8093310102
:102170008111F0CF0E94C30FB82EB0940E94AA0F15
:102180008B2D26C08FB181708D25799B02C090E088
:1021900001C092E0892B7C9B02C090E001C094E0DA
:1021A000892B7D9B02C090E001C098E0892B7E9B2B
:1021B00002C090E001C090E1892B9FB19095991FDA
:1021C0009927991F9295990F907E892B01C080E0E5
:1021D000F8019081981719F08083C09200010E9445
:1021E000D40FFFEF8F1A9F0A0F5F1F4F3EE0831639
:1021F000910409F056CF809100018823A1F081500D
:1022000080930001882329F085E08A95F1F700008A
:102210000AC0ADE1B2E0EFE0F2E081918D9332E0EF
:10222000ED31F307D1F70E94C01581E00F90DF91E7
:10223000CF911F910F91FF90EF90DF90CF90BF90C3
:102240009F908F900895E82FF0E0E35EFD4F80812E
:1022500008950895811105C0977081E019F480E018
:1022600001C081E08170089580910403909105037D
:10227000A0910603B0910703892B8A2B8B2B69F45D
:1022800081E040910003509101036091020370913D
:102290000303452B462B472B09F080E081700895FE
:1022A0000F931F93CF93DF931F92CDB7DEB7182FF5
:1022B00069830E94D624082F812F0E94E624698119
:1022C000862F0E94F91A802F0F90DF91CF911F91D6
:1022D0000F910C94E6242F923F924F925F926F924F
:1022E0007F928F929F92AF92BF92CF92DF92EF92A6
:1022F000FF920F931F93CF93DF93CDB7DEB728974D
:102300000FB6F894DEBF0FBECDBF0E94D6248F83D8
:1023100082E10E94DF241A8219828091F502509096
:10232000F902382F3170932E982F9270988782FB84
:10233000662460F88091F602882371F088248394E3
:10234000823009F0812C77247394833009F0712C4A
:1023500082E00E94D92402C0712C812C91E0A92E28
:1023600091E0B92EE4EFF2E0FE83ED8300E010E0AF
:102370001C8231E03B83ED81FE812191FE83ED8360
:10238000222309F4E4C031E03B830130110509F058
:102390001B82F801E15CFE4F30810530110519F414
:1023A000911016C011C00430110531F4992061F06C
:1023B000552009F478C108C00630110529F4992088
:1023C00019F0552009F484C1F5018081918102C082
:1023D0008EEA95E1009709F4BAC0323009F44DC095
:1023E000333009F465C1313009F0B1C07C01F6E049
:1023F0002F9FE00CF11C1124212C312CC12C822D9B
:10240000F701E20DF31DD490DD20A9F08D2D0E947F
:10241000F91A8D2D0E94C11B89818F5F89838820C5
:1024200011F0813021F07720F1F08230E1F482E088
:102430000E94DF2418C03885332309F488C0813016
:1024400009F085C00630110509F081C0CC2009F4DF
:102450007EC08C2D0E94F91A8C2D0E94C11B89818F
:102460008F5F898374C08FEF281A380A96E0291687
:10247000310409F46CC0CD2CC2CF1C01E6E02E9FC4
:10248000200C311C1124C12CD12CF101EC0DFD1DAF
:10249000E590F490E114F10409F459C04E2C8CEF4E
:1024A0008E0D8A3120F48E2D0E94F91A04C06E2DF3
:1024B0008F2D0E9450118E2D0E94C11BF0E54F12EE
:1024C00008C08A8191E0980F9770887F892B8A8352
:1024D00003C089818F5F8983882019F089818130C9
:1024E00029F0772031F08981823019F482E00E944E
:1024F000DF2432E0C30ED11C86E0C816D10429F6D1
:1025000026C09FEFE9169FE1F90609F4DEC06E2DA3
:102510008F2D0E9450118E2D0E94C11BE0E5EE12FE
:10252000D0C08A8191E0980F9770887F892B8A8329
:1025300082E0C80ED11C9AE0C916D10441F0F10125
:10254000EC0DFD1DE590F490E114F104D1F60F5F60
:102550001F4FE2E0AE0EB11C0C30110509F00BCF9D
:102560008981882319F081E0862506C0662019F04C
:1025700081E0892501C080E0882361F03C81311130
:1025800009C08CE20E94F91A8CE20E94C11B898169
:102590008F5F898309811A81C8010E942A118823CB
:1025A00099F080912B02843611F410922B02E09165
:1025B0002B0281E08E0F80932B02EE0FFF0BE45D68
:1025C000FD4F1183008364C0992009F461C0D0904D
:1025D0002B02DA94D7FE02C083E6D82EED2CEE0C47
:1025E000FF088701045D1D4FF8018181C080F82F2D
:1025F000F770AF2EB82E8C2D9B2D0E942A118823A8
:1026000009F43EC0662069F08AE20E94F91A8AE263
:102610000E94C11BF801808181508083811138C0E4
:102620002CC03B813323A1F18B2D8770B1F0B12CED
:102630000A2D10E02B2D30E02017310744F48FE4F1
:102640000E94F91A8FE40E94C11BB394F3CFF701E3
:10265000E45DFD4F8181887F8183CC2071F010E0A3
:102660008AE20E94F91A8AE20E94C11B1F5F1C11B4
:10267000F7CFF701E45DFD4F1082D0922B0208C026
:10268000662031F08AE20E94F91A8AE20E94C11B98
:102690008F810E94E624E4EFF2E0119283E0E030C3
:1026A000F807D9F718C086E698E0009709F44FCFED
:1026B0001C01EAE02E9F200C311C1124C12CD12CCE
:1026C0003ECF89818F5F898333CF31E03C8330CF28
:1026D00086EE95E0EACF28960FB6F894DEBF0FBEDF
:1026E000CDBFDF91CF911F910F91FF90EF90DF90C1
:1026F000CF90BF90AF909F908F907F906F905F90A2
:102700004F903F902F9008957F928F929F92AF921B
:10271000BF92CF92DF92EF92FF920F931F93CF93CE
:10272000DF93EC016111C2C08981488150E0682FBC
:1027300070E0FA0136E0839FE00DF11D1124EE0FE9
:10274000FF1FEE0FFF1FEA5BFC4F85919591A5914E
:10275000B4910097A105B10509F4A8C02A81B7FF7B
:1027600063C0AC014F705527C12CD12C7601C394A6
:1027700004C0CC0CDD1CEE1CFF1C4A95D2F764E0B3
:10278000B695A795979587956A95D1F7382F3F709D
:10279000732E032F10E0D801A55BBE4FF801EE0F9A
:1027A000FF1FE75EFE4FC081D181460157010C90AB
:1027B00004C0880C991CAA1CBB1C0A94D2F72223C3
:1027C000C9F082E0381303C081EE0E94F91A8881B3
:1027D0009981AA81BB8188299929AA29BB29888343
:1027E0009983AA83BB83F801EC50FD4F80818C292B
:1027F00080835CC080949094A094B0944881598167
:102800006A817B81482159216A217B214883598330
:102810006A837B830E94341181110E946B1192E0C4
:10282000791244C081EE2CC036E0369FF001379F0C
:10283000F00D1124E40FF51FEE0FFF1FEE0FFF1F29
:10284000EA56FB4FC590D590E590F490C114D104A1
:10285000E104F104E9F0CC2DE0911D01F0911E019D
:1028600040815181628173814427552766277076A4
:10287000452B462B472B39F40CC00E94C11B8C2DD5
:102880000E94C11B13C02223C1F36C2D8D2D05C0E6
:10289000C0E0222329F0682F892F0E94501106C022
:1028A0000E94C11BCC2311F08C2FEACF80E090E076
:1028B000DF91CF911F910F91FF90EF90DF90CF901C
:1028C000BF90AF909F908F907F90089508956091F2
:1028D00078037091790380917A0390917B030E9431
:1028E000542525982D9826982E9827982F98813032
:1028F00029F0823029F4269A2E9A02C0259A2D9A20
:102900000E943411811102C0279A2F9A089581E004
:10291000089581E008950C9489140E94B01E2FEF51
:1029200084E39CE0215080409040E1F700C000002B
:102930000C94AE260F931F93CF93DF938C01FC0171
:10294000C081D181CE010E94D523BE010E945517BE
:10295000EC01B8010E948B14882309F409C1B80165
:10296000CE010E94E417882309F402C1B801CE0108
:102970000E946F19882309F4FBC0C531F0E7DF0717
:1029800008F0A3C0C23080E7D80708F478C0F80187
:102990008281882309F47FC00E94C125811102C071
:1029A0000E94A7250E94D42590E09093CE038093A7
:1029B000CD03FE01E350F047E231F10520F4EA5A7D
:1029C000FF4F0C94AB2D8091CD03816003C08091AB
:1029D000CD0382608093CD034BC08091CD03846092
:1029E000F9CF8091CD0313C08091CD038061F2CFE8
:1029F0008091CD038062EECF8091CD038064EACFD9
:102A00008091CD038068E6CF8091CD03846088609B
:102A1000E1CF8091CD038E7FDDCF8091CD038D7F7F
:102A2000D9CF8091CD038B7FD5CF8091CD0313C0BB
:102A30008091CD038F7ECECF8091CD038F7DCACF85
:102A40008091CD038F7BC6CF8091CD038F77C2CF8E
:102A50008091CD038B7F877FBDCF9091CD0397FB76
:102A6000882780F921E0822780FB97F99093CD0396
:102A70008091CD030E94D8250E94B01E79C0C11557
:102A8000E0E7DE0779F0C130D047A1F081E0809324
:102A90000A0380930B03C801DF91CF911F910F911F
:102AA0000C948714F8018281882309F461C00E9484
:102AB0008D145EC0F8018281882309F459C0809189
:102AC000A50381608093A50353C0CC3380E7D8076A
:102AD00019F5F8018281882351F010920A030E94AF
:102AE0005426909309038093080382E026C08091C6
:102AF0000A0381110FC080910803909109030E947D
:102B00006026883C910530F486E20E94F91A86E23C
:102B10000E94C11B82E019C0CD33D04709F0B6CF67
:102B2000F8018281882361F010920B030E945426E1
:102B3000909309038093080380E20E94101C18C040
:102B400080910B03882321F080E20E94171C10C0A3
:102B500080910803909109030E946026883C9105AA
:102B600098F787E20E94F91A87E20E94C11BECCF16
:102B700080E0DF91CF911F910F9108950C948818F8
:102B80000C94FC0F08950C94C2150C94C31526E008
:102B9000729FF001112444E5849FE00DF11D112482
:102BA000E60FF11DEE0FFF1FE25BFE4F8591949142
:102BB0000E946717811520E49207B0F5811540E364
:102BC000940708F0E5C0803E9105D8F4803C91055B
:102BD00008F06BC0883A910578F4853A910508F0C1
:102BE0006AC08130910509F45EC108F415C18430D2
:102BF000910508F058C110C18D3B910508F466C0DD
:102C00000BC18F3F910509F048F4803F910508F012
:102C1000B4C0883E910508F446C1FEC0811520E28B
:102C2000920708F0ACC00895811543E5940790F42D
:102C3000811522E5920708F0CFC0811541E5940780
:102C400008F0C5C0811520E5920708F0A4C09F7068
:102C5000906A0895811545E59407D0F4811524E51F
:102C6000920708F0CEC0282F2695269540E2249F93
:102C700090011124AC014370552781E090E002C01F
:102C8000880F991F4A95E2F7822B932B9A68089533
:102C9000811546E5940708F4B9C09C01305621150A
:102CA000304108F0B9C09F70B5C0FC01EE0FFF1FA6
:102CB000E653F0406AC0853A910509F4B0C0863AFF
:102CC000910509F4AFC083E890E40895883A91052E
:102CD00009F4ABC0893A910509F4AAC08A3A910572
:102CE00009F4A9C08B3A910509F4A8C08C3A910562
:102CF00009F4A7C08B3B910509F4A6C08C3B910554
:102D000009F4A5C08D3A910509F4A4C0803B910552
:102D100009F4A3C08E3A910509F4A2C08F3A910537
:102D200009F4A1C0813B910509F4A0C0823B910543
:102D300009F49FC0833B910509F49EC0843B910533
:102D400009F49DC0853B910509F49CC0863B910523
:102D500009F49BC0873B910509F49AC0883B910513
:102D600009F499C0893B910509F498C08A3B910503
:102D700009F097C08AE296E40895906508959F70DF
:102D8000880F991F865B9E4FFC0185919491089551
:102D90009927906C0895482F437021E030E002C0DD
:102DA000220F331F4A95E2F73C68AC0164E0569568
:102DB00047956A95E1F74370342B8F708695869519
:102DC00040E2849FC0011124822B932B0895982FF9
:102DD0008827816F906A0895282F2695269540E2CE
:102DE000249F90011124AC014370552781E090E0AD
:102DF00002C0880F991F4A95E2F7822B932B9C689B
:102E00000895982F8827846F906A08958F71992765
:102E1000982F88279062089580E090E0089581E8D7
:102E200090E4089582E890E4089582EE94E4089591
:102E300089EE94E408958AEE94E4089585EB94E491
:102E4000089586EB94E4089583EB94E4089584EB6D
:102E500094E4089587EB94E408958CEC94E4089549
:102E60008DEC94E4089583E895E408958AE895E468
:102E7000089582E995E4089584E995E4089581E24E
:102E800096E4089583E296E4089584E296E4089532
:102E900085E296E4089586E296E4089587E296E452
:102EA000089580E094E40895089596E0799FF001F4
:102EB000112494E5899FE00DF11D1124E60FF11D09
:102EC000EE0FFF1FE25BFE4F8591949108958238CB
:102ED000910549F1B0F48133910509F459C048F4E2
:102EE0008932910509F44FC08A32910509F455C021
:102EF00008958533910509F441C08933910599F00E
:102F00000895833E910531F138F4803E910591F0AA
:102F1000823E9105A9F00895863E910501F1873E14
:102F2000910539F108952091CD0320FD3BC021FD8D
:102F300039C008958091CD0380FF34C089E341C03A
:102F40008091CD0382FF32C08091CD0384FF2CC0DD
:102F500080E037C08091CD0382FD28C0F5CF8091FD
:102F6000CD0383FF25C08091CD0384FDF1CF87EE93
:102F700028C08091CD0383FD1BC0F5CF8091CD0388
:102F800085FF18C019C08091CD0385FF15C012C000
:102F90008091CD0386FF12C013C08091CD0386FFC0
:102FA0000FC00CC080EE0DC083EE0BC082EE09C0D6
:102FB00086EE07C085E305C089E203C081E301C056
:102FC0008AE290E008950895CF93DF93EC01FB012E
:102FD0008281811102C081E040C08091190381117A
:102FE00025C0C531D047B9F70E94E31781E080932F
:102FF00019030E945426909318038093170310928C
:103000000C0310920E0310920D03109210031092F5
:103010000F031092120310921103109214031092D6
:103020001303109216031092150316C08091170314
:10303000909118030E946026883C910560F680916B
:103040000C03E82FF0E0EE0FFF1FE35FFC4FD1838E
:10305000C0838F5F80930C0380E0DF91CF91089550
:1030600056985E9825982D9826982E9827982F98F0
:103070008FEF90E0909389008093880090938B006D
:1030800080938A0090938D0080938C00259A2D9ACE
:103090002FEF80E792E0215080409040E1F700C0A0
:1030A0000000269A2E9A2FEF80E792E02150804070
:1030B0009040E1F700C00000279A2F9A2FEF80E799
:1030C00092E0215080409040E1F700C00000259838
:1030D0002D982FEF80E792E0215080409040E1F75B
:1030E00000C0000026982E982FEF80E792E0215034
:1030F00080409040E1F700C0000027982F98569834
:103100005E9825982D9826982E9827982F980895A0
:1031100089EA8093800089E08093810024982C982C
:103120003F988AB18F7C8AB96E98479A8BB1806339
:103130008BB9769A0E9430180C946614CF9380E273
:1031400080933101CFB7F89480911A0381110EC09A
:103150000E94820F81E080931A032FEF83ED90E3AA
:10316000215080409040E1F700C0000080E40E94C0
:10317000880F8093310181112EC00E94B20F80937D
:103180003101811128C00E94B20F80933101811159
:1031900022C08FE30E94B20F8093310181111BC0C6
:1031A0000E94AA0F80E40E94880F80933101811150
:1031B00012C08CE00E94B20F8093310181110BC0CC
:1031C0000E94B20F80933101811105C08FE30E94EC
:1031D000B20F809331010E94AA0FCFBF80913101BD
:1031E000CF910895282F882339F090E02A3010F4E9
:1031F0004D9608950697089587E290E0089580918E
:103200001B038130A1F078F0823011F1843049F550
:1032100086EE0E94F91A86EE0E94C11B88E10E9488
:10322000F91A88E11CC082EE0E94F91A1AC080EED9
:103230000E94F91A81EE0E94F91A88E10E94F91A97
:1032400088E10E94C11B81EE0E94C11B80EE07C075
:1032500082EE0E94F91A87E50E94F91A87E50E941A
:10326000C11B8FE39CE90197F1F700C000000895AE
:1032700080911B03813029F010F0823041F482EEFE
:1032800004C08CE20E94F91A8CE20C94C11B0895D0
:10329000FF920F931F93CF93DF938C01CCE0D0E08C
:1032A000C8010C2E02C0969587950A94E2F7282F44
:1032B0002F70F22E822F0E94F2180E94F91A8F2D81
:1032C0000E94F2180E94C11B2497CC3F8FEFD807B1
:1032D00039F7DF91CF911F910F91FF900895CF9310
:1032E000DF93EC01C13080E8D80760F0FB018281F8
:1032F000882341F00E94FF18CE019F770E94481951
:103300000E94381981E0DF91CF91089590932103B5
:10331000809320030895E0912003F09121033097DA
:1033200021F00190F081E02D099480E00895E09172
:103330002003F0912103309721F00280F381E02DEA
:103340000994089520911E0330911F03821793075B
:1033500071F090931F0380931E03E0912003F0917E
:103360002103309721F00680F781E02D099408951C
:1033700020911C0330911D038217930771F09093E5
:103380001D0380931C03E0912003F09121033097EB
:1033900021F00084F185E02D0994089508950C949E
:1033A000CE190E944B260E94FE0F0E94D126EDEC02
:1033B000F3E08081806880830895CF92DF92EF925E
:1033C000FF920F931F93CF93DF93CDB7DEB72B9769
:1033D0000FB6F894DEBF0FBECDBF0E94251033E2BA
:1033E000E32E33E0F32E00E010E0C02E802F0E9489
:1033F0002311F701D1907F01D826B1F40F5F1F4F41
:103400000E30110591F78FEF89838A831B820E940A
:1034100054268160782F9D838C8349815A816B81EA
:103420008D810E94BA1A41C09091A50391FF04C0FA
:103430008B870E9429118B8520E030E04D2D50E0D4
:10344000922FBA01022E02C0759567950A94E2F791
:1034500060FF25C02E83CF82EE24E394F12C02C0BE
:10346000EE0CFF1C9A95E2F790E08E219F2121E05F
:10347000892B09F420E028870E9454268160782F48
:103480009A8789874E815F8168858A850E94BA1AEA
:10349000F801ED5DFC4F80818E25808306C02F5F93
:1034A0003F4F2630310561F6A9CF109122030E94CB
:1034B0008B191817A1F00E948B19809322032B9669
:1034C0000FB6F894DEBF0FBECDBFDF91CF911F9135
:1034D0000F91FF90EF90DF90CF900C94C5152B9635
:1034E0000FB6F894DEBF0FBECDBFDF91CF911F9115
:1034F0000F91FF90EF90DF90CF900895DC0111962F
:103500004C9111975C91852F90E021E030E001C053
:10351000220F5A95EAF712966C91129750E06623A3
:1035200019F060913F0305C0FA01EF5CFC4F608128
:1035300062236623B9F036E0349FF001359FF00D29
:103540001124E80FF91FEE0FFF1FE95AFE4F80818B
:1035500091818D939C93FA01EF5CFC4F8081822BCB
:1035600080830895FA01EF5CFC4F20958081282329
:1035700020830895CF93DF93CDB7DEB72B970FB697
:10358000F894DEBF0FBECDBF4F83588769877A8717
:103590008B878A859B85892B31F05F3F11F080E016
:1035A00003C04F3FE1F781E0811104C0CE010796CF
:1035B0000E947E1ADE01119686E0FD0111928A9525
:1035C000E9F785E0FE01379601900D928A95E1F7C3
:1035D00049815A816B817C818D819E810E947A21F3
:1035E0002B960FB6F894DEBF0FBECDBFDF91CF9103
:1035F0000895882309F4C4C0823859F40E948B19B5
:1036000081FDBEC089E30E9455240E94252589E3DF
:103610000CC0833871F40E948B1980FDB1C083E522
:103620000E9455240E94252583E50E9495240C9430
:103630002525843859F40E948B1982FDA1C087E4A6
:103640000E9455240E94252587E4EFCF9CEF980F18
:10365000913A18F40E945524EACF90E2980F9830DE
:1036600050F4877091E001C0990F8A95EAF7892F8D
:103670000E94D924DCCF9BE5980F933070F4853AF3
:1036800029F0863A31F482E890E005C081E890E0C4
:1036900002C083E890E00C94A21998E5980F953148
:1036A00008F06EC0883A61F1893A69F18A3A71F19D
:1036B0008B3A79F18C3A81F18B3B89F18C3B91F11A
:1036C0008D3A99F1803BA1F18E3AA9F18F3AB1F18F
:1036D000813BB9F1823BC1F1833BC9F1843BD1F11C
:1036E000853BD9F1863BE1F1873BE9F1883BF1F17C
:1036F000893BF9F18A3B09F03FC08AE292E03EC083
:1037000082EE90E03BC089EE90E038C08AEE90E017
:1037100035C085EB90E032C086EB90E02FC083EBA4
:1037200090E02CC084EB90E029C087EB90E026C0AD
:103730008CEC90E023C08DEC90E020C083E891E019
:103740001DC08AE891E01AC082E991E017C084E9BF
:1037500091E014C081E292E011C083E292E00EC0D9
:1037600084E292E00BC085E292E008C086E292E03B
:1037700005C087E292E002C080E090E00C94B819A6
:103780000895882309F44BC0823859F40E948B199C
:1037900081FF45C089E30E9455240E94252589E3C5
:1037A0000CC0833871F40E948B1980FF38C083E508
:1037B0000E9455240E94252583E50E9495240C949F
:1037C0002525843859F40E948B1982FF28C087E48C
:1037D0000E9455240E94252587E4EFCF9CEF980F87
:1037E000913A58F390E2980F983050F4877091E036
:1037F00001C0990F8A95EAF7892F0E94DF24DFCF55
:103800009BE5980F933020F480E090E00C94A2198F
:10381000885A853120F480E090E00C94B81908951E
:10382000882321F00E94D9240C942525089588230B
:1038300021F00E94DF240C94252508958F929F92F9
:10384000BF92CF92DF92EF92FF920F931F93CF938D
:10385000DF9300D0CDB7DEB74C01472FFC01E580E8
:10386000E2949FE0E922F280FF2031F079836A83BD
:103870000E94F9246A81498149836A830E944E2407
:1038800049816A81882389F0FF2079F080E2860FE0
:10389000883058F082E00E9437240E944E24BB24D6
:1038A000B394B82649816A8101C0B12CE42FE29516
:1038B000EF70F0E0E859FF4F0C94AB2D842F807F20
:1038C000142F1F70882311F01295107FFF20C1F074
:1038D000112309F48DC180E2860F883010F0611148
:1038E00005C0812F6A830E94D92404C0812F6A8376
:1038F0000E94EC246A816A830E9425256A8178C12E
:10390000862F6A830E94C11B6A81112309F4BEC1FC
:1039100080E2860F883010F0611104C0812F0E9470
:10392000DF2403C0812F0E94F2240E942525AEC10E
:10393000242F207F842F8F70203211F08295807F7A
:10394000662319F06130B9F020C0FF2049F0EE2065
:1039500009F404C1F1E0EF1201C10E940C2596C1E7
:10396000EE2021F091E0E91609F490C189830E94CC
:103970000F258981F9C0FF2029F0E1E0EE1508F458
:1039800085C1ECC0E11082C1EFC0FF2021F0EE2024
:1039900009F4E4C02DC1EE2009F4E6C02FC1242FA4
:1039A00026952695237030E02115310521F0213030
:1039B000310561F06BC1FF2021F0862F942F9370A9
:1039C00002C080E090E00E94A21960C1FF2021F0B7
:1039D000862F942F937002C080E090E00E94B81967
:1039E00055C1842F837009F04EC0F1104FC1262FAE
:1039F000229526952770220F220F862F8F70C82EB2
:103A0000D12CE12CF12C022E04C0CC0CDD1CEE1CC0
:103A1000FF1C0A94D2F764FF10C06FE070E080E0F2
:103A200090E004C0660F771F881F991F2A95D2F770
:103A3000609570958095909503C060E070E0CB0133
:103A4000242F26952695237030E02230310569F029
:103A50002330310589F06C297D298E299F29213059
:103A6000310571F00E94CC2211C16C297D298E296B
:103A70009F290E94E6220AC10E94CC22C701B601FA
:103A80000E94B22203C1FF2019F0842F817001C06F
:103A90008695882309F4FAC0262F2295269527704B
:103AA000220F220F862F8F70C82ED12CE12CF12CE3
:103AB000022E04C0CC0CDD1CEE1CFF1C0A94D2F7B5
:103AC00064FF10C06FE070E080E090E004C0660F1B
:103AD000771F881F991F2A95D2F76095709580955A
:103AE000909503C060E070E0CB01242F26952695C9
:103AF000237030E02230310569F02330310589F040
:103B00006C297D298E299F292130310571F00E9471
:103B1000A023BCC06C297D298E299F290E94BA232D
:103B2000B5C00E94A023C701B6010E948623AEC083
:103B3000062F10E0F801E05EF109E531F10508F02B
:103B400053C0E858FF4F0C94AB2D162F1F70842FD5
:103B50008F71FF2031F00E941F23812F0E94101CC3
:103B600095C00E944023812F0E94171C8FC0FF2008
:103B700039F0E1108BC0842F8F710E94652386C0BD
:103B8000F1E0FE1508F482C0F6CFFF2039F0842F53
:103B90008F710E941F237AC0FF20C9F3842F8F7179
:103BA0000E94402373C0FF2029F0842F8F710E9450
:103BB0000A236CC00E94002369C0FF2051F0142F1B
:103BC0001F71812F0E941F2363E0812F0E942E24EA
:103BD0005DC081E00E94372481E08E1508F056C058
:103BE00082E00E94372452C0FF2031F0EE2079F2AB
:103BF000862F0E94F91A4AC0EE2081F2862F0E9479
:103C0000C11B44C04F70C4010E9484130E9427222C
:103C10003DC0623FA9F128F4603F49F0613FE1F007
:103C200020C0643FA1F050F0653F69F01AC0FF204A
:103C300049F180913F0321E0822702C081E08F2576
:103C400080933F031FC0F1101DC081E0F9CFF11038
:103C500019C010923F0316C0EE2091F0F11012C06F
:103C6000E8CFEE2069F0862F49836A83FF2019F0A0
:103C70000E94F91A02C00E94C11B49816A8102C0D8
:103C8000F0923F034F70C4010E945417BB20F1F023
:103C90000E942A2480FD1AC0F40112820E9424246A
:103CA0000E941F23C4010E94741E0E9424240F90AE
:103CB0000F90DF91CF911F910F91FF90EF90DF90C8
:103CC000CF90BF909F908F900C9440230F900F90B7
:103CD000DF91CF911F910F91FF90EF90DF90CF90E8
:103CE000BF909F908F9008950F931F93CF93DF9372
:103CF000EC01288139818B819C81892B31F03F3FF8
:103D000011F080E003C02F3FE1F781E0811113C083
:103D1000CE010E949A14882371F0688179818A818A
:103D20000E9420248C010E94D4230E94A722B80163
:103D3000CE010E941E1CDF91CF911F910F9108951B
:103D40000E94F9240E9409250E94C8240E9425256A
:103D500080E090E00E94A21980E090E00C94B819F5
:103D60000E94E9240C94A01E0E941524E92FE295DC
:103D7000EF70F0E03297EE30F105B8F4E357FF4F03
:103D80000C94AB2D803F59F018F4803E70F407C0BE
:103D9000843F59F404C0803E10F0813F31F481E04B
:103DA000089593FB882780F9089580E00895CF93C4
:103DB000DF9300D000D01F92CDB7DEB70F900F90E9
:103DC0000F900F900F90DF91CF910895CF93DF93D5
:103DD00000D000D000D0CDB7DEB726960FB6F8944D
:103DE000DEBF0FBECDBFDF91CF9108951F93CF935C
:103DF000DF93C091400316E080914103C81799F00A
:103E0000D0E01C9FF0011D9FF00D1124EE5BFC4FD4
:103E10004081518162817381848195810E94E61E77
:103E20002196C770E9CFDF91CF911F9108954091FE
:103E300072035091730360917403709175038091C4
:103E40007603909177030C94E61ECF9380917703CD
:103E500082958F7009F05FC080917403882309F404
:103E60005AC020914003A091410360917203709168
:103E70007303809175039091760331E06F3F09F0F1
:103E800030E0B32FC6E02A1709F445C0009721F0AF
:103E90007F3F21F44B2F03C041E001C040E030E000
:103EA00040FD35C0C29FF001C39FF00D1124EE5BB1
:103EB000FC4F418174132BC04081641328C04281A0
:103EC000411125C0438154814817590710F44150CE
:103ED0005109481B590B483C5105C8F480917703A0
:103EE0008F7080618093770386E0829FF001839FCB
:103EF000F00D1124E95BFC4F80818F70806180831D
:103F000082E793E00E94741ECF910C94F61E2F5FFF
:103F10003F4F2770B8CFCF910895CF92DF92EF92A5
:103F2000FF920F931F93CF93DF93CDB7DEB76297C6
:103F30000FB6F894DEBF0FBECDBF8C0185E0F8014F
:103F4000DE011D9601900D928A95E1F7D8014C9102
:103F500011965C91119712966C9112971396ED90B1
:103F6000FC90149770917203E09173032091750394
:103F7000309176032115310531F0EF3F31F481E0C6
:103F80007F3F19F403C081E001C080E0B82FB17019
:103F9000CB2E80FD6CC1D0907403DD2009F4F5C0F8
:103FA000F0917703E216F30638F0C701821B930BFA
:103FB000883C910548F09BC0209530952E0D3F1D03
:103FC000283C310508F093C08F2F807F09F052C044
:103FD000E51314C0741312C0D62E61110FC0FF7008
:103FE000F061F09377030E94171F82E793E00E942D
:103FF000741E80917703F80185836CC1EF2831F03E
:104000005F3F31F481E04F3F19F403C081E001C00C
:1040100080E080FD03C081E0862701C080E0F82FAA
:10402000F170FF2E80FF1CC080914003209141035E
:1040300036E0821709F428C190E0389FF001399FDB
:10404000F00D1124EE5BFC4F7181571306C0708197
:10405000471303C07281671303C001968770E9CFCD
:10406000D62E662309F436C1809177038160809350
:10407000770353C0E51308C0741306C0611104C070
:10408000D8011596FC93AEC04D875E878D859E85C1
:104090006A8B0E94B41E6A89882329F1D62E662372
:1040A00011F120917703822F82958F7090E0029713
:1040B0000CF460C0809172039091730398878F8392
:1040C0001986FB86EA862C87CE01079651C0E51734
:1040D00031F14D875E878D859E856A8B0E94B41E67
:1040E0006A8981112EC0C8010E94741EA4C08F2F3E
:1040F000807F69F77E2DF98AE88A89890E94D71E18
:1041000082E793E00E94741EE2E7F3E086E0DF01BD
:104110001D928A95E9F70E94171FD12CDBC07413FA
:10412000D8CF6111D6CFD8011596FC93C8010E9453
:10413000741EE2E7F3E086E0DF011D928A95E9F75D
:10414000C9C0D62E662379F220917703822F8295FB
:104150008F7090E0029774F08091720390917303D6
:104160009A8389831B82FD82EC822E83CE01019685
:104170000E94741E86E0F801A2E7B3E001900D9260
:104180008A95E1F70E94251F6FC0E216F30628F01A
:10419000C701821B930B9C0104C0209530952E0D06
:1041A0003F1D283C310508F052C0D62E662309F485
:1041B0009ACFE5132CC074132AC08091770380FD39
:1041C0001DC0982F92959F70C9F0D80115968C93B9
:1041D00015979F3039F09F5F9295907F8F70892B54
:1041E00015968C93C8010E94741E86E0F801A2E720
:1041F000B3E001900D928A95E1F736C086E0F801B0
:10420000A2E7B3E001900D928A95E1F763C04D8774
:104210005E878D859E850E94B41E882379F086E096
:10422000F801A2E7B3E001900D928A95E1F70E94B0
:10423000251F0E94171FDD24D3944CC08091770363
:10424000816080937703C8010E94741E43C07E2D55
:10425000F98AE88A89890E94D71EE2E7F3E086E0BE
:10426000DF011D928A95E9F70E94171F33C066236C
:1042700009F439CF4D875E878D859E850E94B41ED7
:10428000882309F430CFCBCF4D875E878D859E85FF
:104290000E941524292F22952F7030E022303105FD
:1042A0002CF49F7041F0811106C00CC02430310500
:1042B0002CF49F7049F4805E883020F0C8010E9481
:1042C000741ECF2CDC2C06C0D80115969C91907FD3
:1042D00091F7F8CF8D2D62960FB6F894DEBF0FBE22
:1042E000CDBFDF91CF911F910F91FF90EF90DF90A5
:1042F000CF9008951F93CF93DF93CDB7DEB72C9760
:104300000FB6F894DEBF0FBECDBF4F8358876987C5
:104310007A878B879C87CE0107960E948D1F882302
:10432000C1F02F8138858A859B85892B31F03F3FED
:1043300011F080E003C02F3FE1F781E0811147C019
:104340004F81588569857A858B859C850E94E61EFC
:104350003EC086E0FE013796DE01119601900D9277
:104360008A95E1F7FF81E8854A855B85411551050E
:1043700031F0EF3F31F481E0FF3F19F403C081E0F9
:1043800001C080E080FD23C02091410330E0C901DD
:104390000196877099276091400370E08617970710
:1043A000F1F1F983EA835D834C8396E0929FD0011B
:1043B000939FB00D1124AE5BBC4FFE01319601906E
:1043C0000D929A95E1F7809341030E94F61E16E044
:1043D0008091400390914103891779F1189FC001A2
:1043E00011248E5B9C4F0E948D1F882331F1E09138
:1043F00040031E9FF0011124EE5BFC4F4081518170
:1044000062817381848195810E94E61E80914003C0
:1044100090E001968770992780934003D9CF0E943E
:10442000B01E1092410310924003E2E7F3E086E0F1
:10443000DF011D928A95E9F7CACF2C960FB6F89442
:10444000DEBF0FBECDBFDF91CF911F910895EF92D8
:10445000FF920F931F93CF93DF93FC01009709F412
:104460006FC0F12CEE24E394EF0121968491843700
:1044700040F4843008F055C0813081F0823021F161
:104480005FC0853709F447C0C0F19CE7980F9037AB
:1044900008F056C08F770E94C11B45C08F010E5F88
:1044A0001F4FFE01849190E2980F983050F487706E
:1044B000FE2D01C0FF0F8A95EAF78F2F0E94FC2482
:1044C00015C00E94F91A14C08F010E5F1F4FFE0124
:1044D000849190E2980F983068F48770FE2D01C0A7
:1044E000FF0F8A95EAF78F2F0E9402250E9425254B
:1044F000E80119C00E94C11BFBCFCF010296FE014B
:10450000C491CC2361F0EFE9FFE03197F1F700C0EF
:104510000000C150F6CFCF010296FE01F490EC01ED
:1045200002C00E94F91A8F2D882341F0EFE9FFE0C5
:104530003197F1F700C000008150F6CFFE0194CF13
:10454000DF91CF911F910F91FF90EF900895089503
:1045500060937C0370937D0380937E0390937F032D
:104560000C94A01E0F931F9300917C0310917D0368
:1045700020917E0330917F03062B172B282B392B9C
:1045800000937C0310937D0320937E0330937F037D
:104590001F910F910C94A01E0F931F9300917C0309
:1045A00010917D0320917E0330917F030623172312
:1045B0002823392300937C0310937D0320937E03EB
:1045C00030937F031F910F910C94A01E0F931F93A4
:1045D00000917C0310917D0320917E0330917F0335
:1045E000062717272827392700937C0310937D037C
:1045F00020937E0330937F031F910F910C94A01E94
:10460000109278031092790310927A0310927B0330
:104610000C94A01E41E050E060E070E004C0440F44
:10462000551F661F771F8A95D2F7409378035093E2
:10463000790360937A0370937B030C94A01E41E08E
:1046400050E060E070E004C0440F551F661F771F04
:104650008A95D2F78091780390917903A0917A039B
:10466000B0917B03842B952BA62BB72B80937803DB
:1046700090937903A0937A03B0937B030C94A01ECC
:1046800041E050E060E070E004C0440F551F661F39
:10469000771F8A95D2F740955095609570958091D7
:1046A000780390917903A0917A03B0917B038423DE
:1046B0009523A623B7238093780390937903A0933F
:1046C0007A03B0937B030C94A01E41E050E060E0BD
:1046D00070E004C0440F551F661F771F8A95D2F7FC
:1046E0008091780390917903A0917A03B0917B0334
:1046F00084279527A627B72780937803909379037B
:10470000A0937A03B0937B030C94A01E0F931F9386
:10471000009178031091790320917A0330917B0303
:10472000062B172B282B392B009378031093790332
:1047300020937A0330937B031F910F910C94A01E5A
:104740000F931F93009178031091790320917A03BE
:1047500030917B0306231723282339230093780302
:104760001093790320937A0330937B031F910F9169
:104770000C94A01E0F931F9300917803109179035E
:1047800020917A0330917B030627172728273927A2
:10479000009378031093790320937A0330937B037B
:1047A0001F910F910C94A01E0895CF92DF92EF926B
:1047B000FF920F931F93CF93DF93EC01C0907C0384
:1047C000D0907D03E0907E03F0907F03809178038A
:1047D00090917903A0917A03B0917B03C82AD92ADA
:1047E000EA2AFB2A0FE110E0B701A601002E04C05F
:1047F00076956795579547950A94D2F740FD05C081
:104800000150110988F780E007C0BE01802F0E9487
:10481000C7150197A9F3802FDF91CF911F910F91B9
:10482000FF90EF90DF90CF900895CF93DF93EC014E
:104830000E94D523BE010E94C715DF91CF91089534
:10484000CB010E941524089580918003859585955C
:1048500085950895809180038770089598E0899FD9
:1048600090011124622B609380030C941F234091CC
:1048700080038095842380938003982F977069F438
:1048800050E0282F332727FD30954217530729F092
:104890008595859585950C94402308959091800386
:1048A000977081E009F480E0089590913E0199238A
:1048B000D9F09091CD0397FF17C0982F96959695B4
:1048C00096959F3188F5E0913201F0913301E90F1F
:1048D000F11D877021E030E001C0220F8A95EAF7D0
:1048E0008181822B8183089540913201509133015F
:1048F00020E030E09FEFFA01E20FF31F62816817BA
:1049000099F09F3F19F4611101C0922F2F5F3F4F23
:104910002E31310581F79F3F39F0FA01E90FF11D82
:1049200097FDFA9582830895089590913E01992309
:10493000E1F09091CD0397FF18C0982F969596952A
:1049400096959F3120F5E0913201F0913301E90F06
:10495000F11D877021E030E001C0220F8A95EAF74F
:10496000209581812823218308954091320150911F
:10497000330120E030E0FA01E20FF31F9281981337
:1049800001C012822F5F3F4F2E313105A1F70895EC
:1049900081E090E0E0913201F0913301E80FF91FDE
:1049A0001082019680329105A9F708958091A403A1
:1049B00008959091A403982B9093A4030895809553
:1049C0009091A40398239093A40308958093A40343
:1049D00008951092A40308959091A303982B9093A7
:1049E000A303089580959091A30398239093A30324
:1049F00008951092A30308959091A203982B909389
:104A0000A203089580959091A20398239093A20306
:104A100008951092A203089580938103089510923F
:104A200081030895409132015091330120E030E03C
:104A300080E0FA01E20FF31F918191118F5F2F5FE8
:104A40003F4F2F313105A9F70895E0913201F091E0
:104A500033018091A4038083E0913201F09133010E
:104A600080819091A303892B8083E0913201F091A2
:104A7000330180819091A203892B808390918103DF
:104A8000992361F0E0913201F09133018081892B0B
:104A900080830E941225811110928103809132013E
:104AA000909133010C949719CF92DF92EF92FF927D
:104AB0000F931F936C01EE24FF24C114D104E10471
:104AC000F10421F46B017C0180E001C080E1332717
:104AD0002F2D1E2D0D2D011511052105310519F064
:104AE000885F6801790197018601A4E036952795D2
:104AF00017950795AA95D1F70115110521053105DF
:104B000019F08C5F6801790197018601F2E0369512
:104B1000279517950795FA95D1F7011511052105E8
:104B2000310519F08E5F68017901B701A60176950C
:104B3000679557954795452B462B472B09F08F5F77
:104B40001F910F91FF90EF90DF90CF9008956DEE41
:104B50007EEF80E090E00E94D12D60E082E090E066
:104B60000E94BF2D60E083E090E00E94BF2D60E0D6
:104B700084E090E00E94BF2D60E085E090E00C941E
:104B8000BF2D80E090E00E94B92D21E08D3E9E4F28
:104B900009F020E0822F089582E090E00C94B12D7E
:104BA00083E090E00C94B12D84E090E00C94B12D62
:104BB000682F84E090E00C94BF2D8091D303843063
:104BC00021F11092A60320E488E190E00FB6F8945A
:104BD000A895809360000FBE2093600080E00E9443
:104BE000C51583B7817F846083BF83B7816083BF2E
:104BF0007894889583B78E7F83BF88E10FB6F89449
:104C000080936000109260000FBE08950895CF93C6
:104C10000E9412100E9425100E940626C0E08C2FD0
:104C20000E942311811105C0CF5FCE30C1F780E013
:104C300001C081E0CF9108950E94B01E0E948B199F
:104C40000C94C5151F920F920FB60F9211248F93DB
:104C50009F93AF93BF938091A603811113C080915E
:104C6000C9039091CA03A091CB03B091CC034196A4
:104C7000A11DB11D8093C9039093CA03A093CB03D8
:104C8000B093CC03BF91AF919F918F910F900FBEC6
:104C90000F901F90189582E084BD93E095BD9AEF28
:104CA00097BD80936E0008952FB7F8948091C90343
:104CB0009091CA03A091CB03B091CC032FBF08956C
:104CC000CF92DF92EF92FF920F931F932FB7F8943A
:104CD0004091C9035091CA036091CB037091CC03FA
:104CE0002FBF6A017B01EE24FF248C0120E030E01D
:104CF000C016D106E206F30610F441505109481BD4
:104D0000590BCA011F910F91FF90EF90DF90CF9048
:104D100008951F920F920FB60F9211248F939F93B5
:104D2000AF93BF938091C9039091CA03A091CB0325
:104D3000B091CC030196A11DB11D8093C90390933E
:104D4000CA03A093CB03B093CC03BF91AF919F91C3
:104D50008F910F900FBE0F901F9018950E94B62A4A
:104D6000F8942FEF87EA91E6215080409040E1F7D8
:104D700000C0000087E090EBDC018093DC0390939F
:104D8000DD03A093DE03B093DF032CE088E190E025
:104D90000FB6F894A895809360000FBE2093600032
:104DA000FFCF0E94C125811102C00E94A7250E9449
:104DB000CC258093A5030E94D42590E09093CE0348
:104DC0008093CD030E94D025682F70E080E090E0B2
:104DD0000C94A8228091C70308950895CF93DF9380
:104DE00000D01F92CDB7DEB72091D303243021F538
:104DF00023E029839B838A8382E08093E9008FEFFD
:104E00009091E800815095FD06C095ED9A95F1F7D7
:104E100000008111F5CF8091E80085FF0DC040E0D2
:104E200050E063E070E0CE0101960E942429809159
:104E3000E8008E778093E8000F900F900F90DF913D
:104E4000CF910895CF93DF9300D01F92CDB7DEB7F7
:104E50002091D303243019F522E029839B838A8390
:104E60002093E9008FEF9091E800815095FD06C0F6
:104E700095ED9A95F1F700008111F5CF8091E8004A
:104E800085FF0DC040E050E063E070E0CE01019688
:104E90000E9424298091E8008E778093E8000F908B
:104EA0000F900F90DF91CF910895CF93DF93EC0196
:104EB0008091D303843009F047C080913E0188235C
:104EC000E1F08091CD0387FF18C083E08093E90073
:104ED0008FEF9091E800815095FD06C095E19A957D
:104EE000F1F700008111F5CF8091E80085FF2CC01B
:104EF00040E050E060E270E017C081E08093E9009C
:104F00008FEF9091E800815095FD06C095ED9A9540
:104F1000F1F700008111F5CF8091E80085FF14C002
:104F200040E050E068E070E0CE010E9424298091CA
:104F3000E8008E778093E80080E2FE01A7EAB3E004
:104F400001900D928A95E1F7DF91CF9108958091BC
:104F5000D203811109C00E94B62A0E94132B8091AE
:104F6000E20084608093E20008951092D2030895D5
:104F7000089508950C941C2642E061EC81E00E94A3
:104F8000302A42E061EC82E00E94302A42E261EC89
:104F900083E00C94302A8091D503833009F455C006
:104FA00030F4813071F0823009F48EC008958A3077
:104FB00009F47AC08B3009F460C0893009F09CC0D4
:104FC00020C08091D403813A09F096C08091E80016
:104FD000877F8093E8008091D8039091D903892B33
:104FE00021F060E080E090E003C060E287EA93E0B7
:104FF00070E00E946D298091E8008B778093E80033
:1050000008958091D403813209F076C08091D8034D
:105010009091D903009719F0029709F06DC0809123
:10502000E800877F8093E8008091E80082FD05C05A
:105030008091D3038111F8CF5FC08091F1008093FC
:10504000C7038091E8008B7753C08091D403813AE5
:1050500009F052C08091D8039091D903892B09F0AF
:105060004BC08091E800877F8093E8008091E80042
:1050700080FFFCCF80913E0136C08091D403813205
:10508000D9F58091D8039091D903892BA9F5809106
:10509000E800877F8093E8000E94652A8091D6030C
:1050A00080933E010C94B01E8091D403813221F58F
:1050B0008091E800877F8093E8000E94652A8091B4
:1050C000D7038093C80308958091D403813AA1F453
:1050D0008091E800877F8093E8008091E80080FF5E
:1050E000FCCF8091C8038093F1008091E8008E7717
:1050F0008093E8000C94652A089584B7877F84BF65
:1051000088E10FB6F89480936000109260000FBEA3
:1051100080E880936100109261000E94CF190E9484
:10512000B62A0E94132B8091E20084608093E200F3
:1051300078940E948E2D0E94D11984E391E00E9400
:1051400086198091D303853069F40E94DD25809112
:10515000D1038823B1F30E940726882391F30E948C
:105160000E29EFCF0E94DD19ECCF292F33272330F2
:105170003105A9F06CF42130310509F442C0223028
:10518000310509F043C084E590E022E63DE142C0EC
:1051900021323105C9F02232310519F137C0992782
:1051A0008130910541F08230910541F0892B71F5F4
:1051B000EEE5FDE105C0E6E4FDE102C0EEE2FDE161
:1051C000849190E09F0126C0633000F5E62FF0E067
:1051D000EE0FFF1FE85FFD4F2081318189E090E0F5
:1051E00019C0633098F4E62FF0E0DF01AA0FBB1F6F
:1051F000AE5FBD4F2D913C91E150FE4F808190E01C
:1052000009C082E190E026EB3DE104C080E090E03F
:1052100020E030E0FA0131832083089580E189BDE8
:1052200082E189BD09B400FEFDCF8091D8008F7D59
:105230008093D8008091E00082608093E0008091AC
:10524000E00081FDFCCF0895CF92DF92EF92FF92B4
:105250000F931F93CF93DF937C018B01EA010E9490
:10526000862A811131C0209731F088819981081BED
:10527000190BE80EF91EC12CD12C0115110519F1DD
:105280008091E80085FD14C08091E8008E778093BE
:10529000E800209741F0888199818C0D9D1D9983AC
:1052A000888385E011C00E94862A882331F30CC0D0
:1052B000F70181917F018093F10001501109FFEF07
:1052C000CF1ADF0ADACF80E0DF91CF911F910F91E3
:1052D000FF90EF90DF90CF9008952091DA03309106
:1052E000DB032617370748F06115710539F4209163
:1052F000E8002E772093E80001C0B901FC0120E00E
:1053000061157105B9F18091D303882309F440C078
:10531000853009F43FC08091E80083FD3DC0809155
:10532000E80082FF06C08091E80082FF26C080E08E
:1053300008958091E80080FFE3CF2091F3008091F1
:10534000F20090E0922B6115710551F088309105C3
:1053500038F421912093F100615071090196F3CF47
:1053600021E0089709F020E08091E8008E77809393
:10537000E800C6CF2111C7CFD6CF8091D3038823B1
:1053800039F0853039F08091E80083FFCCCF04C03C
:1053900082E0089583E0089581E008952091DA0382
:1053A0003091DB032617370748F06115710539F492
:1053B0002091E8002E772093E80001C0B901FC019C
:1053C00020E061157105C1F18091D303882309F4B0
:1053D00041C0853009F440C08091E80083FD3EC0A3
:1053E0008091E80082FF06C08091E80082FF27C01C
:1053F00080E008958091E80080FFE3CF2091F300E2
:105400008091F20090E0922B6115710559F088307F
:10541000910540F424912093F10031966150710977
:105420000196F2CF21E0089709F020E08091E80092
:105430008E778093E800C5CF2111C6CFD5CF80915C
:10544000D303882339F0853039F08091E80083FF59
:10545000CBCF04C082E0089583E0089581E00895F1
:10546000982F973058F59093E900981739F070917C
:10547000EC002091ED005091F00003C0242F762F16
:1054800050E021FF19C03091EB003E7F3093EB00DC
:105490003091ED003D7F3093ED003091EB003160B5
:1054A0003093EB007093EC002093ED005093F000EC
:1054B0002091EE0027FF07C09F5FD3CF8F708093AE
:1054C000E90081E0089580E008958091D40387FD8C
:1054D00005C08091E80080FF0EC012C08091E800F6
:1054E00082FD05C08091D3038111F8CF089580918A
:1054F000E8008B7708C08091D3038111EACF08952B
:105500008091E8008E778093E80008958091E40010
:105510009091E50045E62091EC0020FF21C020910C
:10552000E80020FD21C02091D303222389F02530FB
:1055300089F02091EB0025FD0FC02091E40030910F
:10554000E5002817390739F3415041F0C901E3CF8D
:1055500082E0089583E0089581E0089584E008954D
:105560002091E80022FFDFCF80E008950E94242BE5
:105570000E942C2BE0EEF0E0808181608083E8EDDA
:10558000F0E080818F77808319BCA7EDB0E08C912B
:105590008E7F8C9380818F7E80831092D2030895BA
:1055A0000F931F93CF93DF930E94242B0E942C2BE9
:1055B000C8EDD0E088818F77888388818068888370
:1055C00088818F7D888319BC1092D3031092CF03FA
:1055D0001092D1031092D00300EE10E0F801808108
:1055E0008B7F808388818160888342E060E080E0F7
:1055F0000E94302AE1EEF0E080818E7F8083E2EE2F
:10560000F0E0808181608083808188608083F80100
:1056100080818E7F8083888180618883DF91CF91B4
:105620001F910F910895E8EDF0E080818F7E8083D7
:10563000E7EDF0E080818160808384E082BF81E0DB
:105640008093D2030C94D02AE8EDF0E080818E7F25
:1056500080831092E20008951092DA001092E10027
:1056600008951F920F920FB60F9211242F933F931C
:105670004F935F936F937F938F939F93AF93BF935A
:10568000EF93FF938091E10082FF0BC08091E200D5
:1056900082FF07C08091E1008B7F8093E1000E9430
:1056A0008D2D8091DA0080FF1FC08091D80080FF8F
:1056B0001BC08091DA008E7F8093DA008091D90040
:1056C00080FF0DC080E189BD82E189BD09B400FE83
:1056D000FDCF81E08093D3030E94A72705C019BCAA
:1056E0001092D3030E94B5278091E10080FF19C07A
:1056F0008091E20080FF15C08091E2008E7F809350
:10570000E2008091E20080618093E2008091D80005
:1057100080628093D80019BC85E08093D3030E94F7
:10572000B9278091E10084FF30C08091E20084FFBE
:105730002CC080E189BD82E189BD09B400FEFDCFA6
:105740008091D8008F7D8093D8008091E1008F7E7A
:105750008093E1008091E2008F7E8093E20080914F
:10576000E20081608093E2008091CF03882311F0F2
:1057700084E007C08091E30087FF02C083E001C09E
:1057800081E08093D3030E94BA278091E10083FFD8
:1057900029C08091E20083FF25C08091E100877FCE
:1057A0008093E10082E08093D3031092CF03809135
:1057B000E1008E7F8093E1008091E2008E7F8093F4
:1057C000E2008091E20080618093E20042E060E0CC
:1057D00080E00E94302A8091F00088608093F00081
:1057E0000E94B827FF91EF91BF91AF919F918F9148
:1057F0007F916F915F914F913F912F910F900FBECD
:105800000F901F9018951F920F920FB60F921124B0
:105810002F933F934F935F936F937F938F939F93B8
:10582000AF93BF93CF93EF93FF93C091E900CF70F5
:105830008091EC001092E9008091F000877F8093C6
:10584000F00078940E943F2C1092E9008091F000C3
:1058500088608093F000C093E900FF91EF91CF91B1
:10586000BF91AF919F918F917F916F915F914F9178
:105870003F912F910F900FBE0F901F9018951F937F
:10588000CF93DF93CDB7DEB7AA970FB6F894DEBFFC
:105890000FBECDBFE4EDF3E08091F100819323E0F2
:1058A000EC3DF207C9F70E94CB278091E80083FF07
:1058B0001CC12091D4033091D503832F90E08A300E
:1058C000910508F012C1FC01E556FF4F0C94AB2D79
:1058D000203881F0223809F008C18091D8038F70F8
:1058E0008093E9008091EB0085FB882780F9109276
:1058F000E90006C08091D0039091D103911182609C
:105900009091E800977F9093E8008093F1001092C7
:10591000F100C5C0822F8D7F09F0E7C0222319F066
:10592000223061F0E2C08091D603813009F0DDC001
:10593000333009F080E08093D10328C08091D603F2
:10594000811124C02091D8032F7009F4CEC0209378
:10595000E9008091EB0080FF19C08091EB003330AB
:1059600011F4806211C080618093EB0081E090E0CF
:10597000022E01C0880F0A94EAF78093EA00109281
:10598000EA008091EB0088608093EB001092E900C0
:105990008091E800877F86C02111A7C01091D603AF
:1059A0001F778091E3008078812B8093E3008091C2
:1059B000E800877F8093E8000E94652A8091E800D4
:1059C00080FFFCCF8091E30080688093E300112387
:1059D00011F083E001C082E08093D30386C0205899
:1059E000223008F082C08091D6039091D7038C3D7D
:1059F00023E0920779F583E08A838AE289834FB7AF
:105A0000F894DE01139620E03EE051E2E32FF0E04F
:105A100050935700E49120FF03C0E295EF703F5F81
:105A2000EF708E2F90E0EA3010F0C79601C0C0965C
:105A30008D939D932F5F243149F74FBF8091E800EC
:105A4000877F8093E8006AE270E0CE0101960E94B1
:105A50006D2914C0AE014F5F5F4F6091D8030E9463
:105A6000B528009709F441C02091E800277F2093D2
:105A7000E800BC0189819A810E94CE298091E800CA
:105A80008B778093E80031C0203879F58091E80069
:105A9000877F8093E8008091CF038093F10080910D
:105AA000E8008E778093E8000E94652A1EC02111CD
:105AB0001CC09091D6039230C0F48091E800877F9B
:105AC0008093E8009093CF030E94652A8091CF03D2
:105AD000811104C08091E30087FF02C084E001C00F
