:100000000C948E0F0C94D20F0C94D20F0C94D20F30
:100010000C94D20F0C94D20F0C94D20F0C94D20FDC
:100020000C94D20F0C94D20F0C94322C0C94042DFF
:100030000C94FF260C94D20F0C94D20F0C94D20F78
:100040000C94D20F0C94D20F0C94D20F0C94D20FAC
:100050000C94D20F0C9466270C94D20F0C94D20FF0
:100060000C94D20F0C94D20F0C94D20F0C94D20F8C
:100070000C94D20F0C94D20F0C94D20F0C94D20F7C
:100080000C94D20F0C94D20F0C94D20F0C94D20F6C
:100090000C94D20F0C94D20F0C94D20F0C94D20F5C
:1000A0000C94D20F0C94D20F0C94D20F6E157415C1
:1000B00078157B157F15831587158B15901594156D
:1000C00098159C159F15A315A715AB15AF15B4155D
:1000D000741D741DAE1DAE1DE51D5C1F1F1F5C1F32
:1000E000071E5C1FAE1EAE1E181F5C1F5C1F581F34
:1000F000BB1EBB1EBB1EBB1EBB1EBB1EBB1EBB1E38
:10010000BB1EBB1EBB1EBB1EBB1EBB1EBB1EBB1E27
:10011000CD1EDB1EE21EE91EF31ED81FD81FEB1FEB
:10012000EB1FE11FEB1FEB1FEB1FD81FD81FE71FB3
:10013000EB1FEB1FE71F692D8B2D762E8B2D762E57
:10014000CD2DF02D762E452E582E240221022B0087
:100150000130E00000002F00140004001D00240204
:1001600000002F021A0015001B00E2002A003002D6
:10017000090016000600520028002602130017008E
:100180001900510046002E000A000700050000007B
:100190000351E3004900000029000000035301530C
:1001A0002A00000028000000035325020D000B0068
:1001B0000E000000035127020F0011001000500034
:1001C00000002E021800080036004F002C003000FE
:1001D0001C000C00370031004C001E0233001200DE
:1001E00034001F020000200238002D000130E4001E
:1001F00000000351E200E000003000300000003059
:100200002B00003000300030003000300030003073
:10021000003000300030003000300030003001008D
:10022000003000300030003000300100003000307D
:10023000003000300030000000302A0000300000A4
:1002400000300000003001000030000000300000ED
:10025000003000300030003000300000003000304E
:10026000003000300030010000300030003000303D
:10027000003001000030003000300030003000302D
:1002800000300030003000300030003000304C00D2
:10029000E600E400003000300000010035000100FD
:1002A00001000100000002300100010001002200F5
:1002B00001000230010001000100010001000230D4
:1002C00001000100010001000100023001000100F5
:1002D00001000100010002300100010001000000E6
:1002E00001002200010000000100000001000100E7
:1002F00001000000010000000100023001000100C7
:1003000001000000010002300100010001000100B5
:100310000100023001000100010001000100023073
:100320000100010001000100010002300100010094
:100330000100023001000230010001000100010053
:100340000000010001000100E100010000003A008E
:10035000010001000100010001003B00010001005B
:100360000100010001003C000100010001004B0000
:1003700001003D000100010001004E0001003E00AF
:10038000010001000100000001003F000100000029
:100390000100000001004000010000000100000019
:1003A00001004100010001000100000001004200C5
:1003B0000100010001004A000100430001000100AA
:1003C00001004D0001004400010001000100010096
:1003D000010045000100010001000100005C000077
:1003E00001000100E5000100000000000000000025
:1003F00000000000000020000080200000800000BD
:100400000000840000800000000030000080210017
:1004100000802100008052000080800000803200B7
:1004200000803100008046000080470000805000BE
:10043000008081000080330000804400008045007F
:100440000080000000001100008082000080340065
:100450000080420000804300008000000000510046
:100460000080830000803500008040000080410053
:100470000080000000001000008000000000B100BB
:10048000008000000000100000800000000010004C
:100490000080000000001200008000000000120038
:1004A0000080000000001000008093000080A50084
:1004B00000806000008061000080000000001000EB
:1004C000008092000080A400008062000080630031
:1004D0000080000000005200008091000080A30016
:1004E00000806400008065000080000000001100B2
:1004F000008090000080A2000080A10000806600C3
:10050000008067000080540000809400008000009C
:100510000000A00000807000008071000080530087
:1005200000800000000000000000000000007200D9
:100530000080720000800000000000000000000049
:1005400000000000000000000000000000000000AB
:10055000000000000000000000000000000000009B
:10056000000000000000000000000000000000008B
:10057000000000000000000000000000000000007B
:10058000000000000000000000000000000000006B
:10059000000000000000000000000000000000005B
:1005A000000000000000000000000000000000004B
:1005B000000000000000000000000000000000003B
:1005C000000000000000000000000000000000002B
:1005D000000000000000000000000000000000001B
:1005E000000000000000000000000000000000000B
:1005F00000000000000000000000000000000000FB
:1006000000000000000000000000000000000000EA
:1006100000000000000000000000000000000000DA
:1006200000000000000000000000000000000000CA
:1006300000000000000000000000000000000000BA
:1006400000000000000000000000000000000000AA
:10065000000000000000000000000000000000009A
:10066000000000000000000000000000000000008A
:10067000000000000000000000000000000000007A
:10068000000000000000000000000000000000006A
:1006900000000000340000000000000000003700EF
:1006A000000000000000000034005000FF1F0000A8
:1006B00000003002000000000000000034020000D2
:1006C00000000000000030025000FF1F000000008A
:1006D00034025000FF1F000000002702000000004D
:1006E00000000000370200000000000000002702A8
:1006F0005000FF1F0000000037025000FF1F0000E5
:1007000000003000000000000000000000000000B9
:1007100000000000000030005000FF1F000000003B
:100720002C00500000000000000037000000000016
:100730000000000034003700000000000000330219
:10074000000000000000000034003700500050009E
:10075000FF1F3002370000000000000034023700A5
:100760000000000000003002370050005000FF1F62
:100770003402370050005000FF1F270237000000EE
:1007800000000000250238000000000000002702E1
:10079000370050005000FF1F250238005000500065
:1007A000FF1F3000370000000000000000000000C4
:1007B0000000000000003000370050005000FF1F14
:1007C00000000000000000000000360000000000F3
:1007D00000000000340036000000000000002E0081
:1007E00000000000000000003400360050005000FF
:1007F000FF1F300236000000000000003402360007
:100800000000000000003002360050005000FF1FC2
:100810003402360050005000FF1F2702360000004F
:100820000000000037023600000000000000270230
:10083000360050005000FF1F3702360050005000B5
:10084000FF1F300036000000000000000000000024
:100850000000000000003000360050005000FF1F74
:100860000000000000000000000033000000000055
:1008700000000000340033000000000000003302DC
:10088000330200000000000034003300500050002C
:10089000FF1F30023300000000000000340233006C
:1008A0000000000000003002330050005000FF1F25
:1008B0003402330050005000FF1F270233000000B5
:1008C00000000000000000000000000000002702FF
:1008D000330050005000FF1F000000000000000027
:1008E00000003000330000000000000000000000A5
:1008F0000000000000003000330050005000FF1FD7
:1009000000000000000000000000000000000000E7
:10091000000000003400000000000000000036006D
:100920000000000000000000330000000000000094
:1009300000002F0200000000000000003402000050
:10094000000000000000370200000000000000006E
:1009500037023702000000000000260200000000FD
:1009600000000000360200000000000000002D0022
:100970003702FF1F000000003602360200000000B0
:1009800000002F0000000000000000000000000038
:10099000000000000000380200000000000000001D
:1009A000200200000000000000002E0200000000F5
:1009B00000000000350000000000000000003502CB
:1009C00000000000000000003700000000000000F0
:1009D00000002E022E0200000000000000000000B7
:1009E00000000000000024020000000000000000E1
:1009F000240224020000000000003100000000007A
:100A000000000000000000000000000000003100B5
:100A100031000000000000001F0200000000000084
:100A200000000000000000000000000000000000C6
:100A300000000000000000000000000000000000B6
:100A4000000000000000000000002D000000000079
:100A500000000000000000000000000000002E0068
:100A60000000000000000000210200000000000063
:100A700000003800000000000000000038003800CE
:100A8000000000000000261400000000000000002C
:100A9000380038003800000000002D002D00000054
:100AA00000000000000000000000000000002D0217
:100AB00000000000000000002102260200000000EB
:100AC00000003800250200000000000000000000C7
:100AD0000000000000003800250225020000000090
:100AE00038003800380036020000250200000000FF
:100AF00000000000000000000000000000001E02D6
:100B00000000000000000000370025020000000087
:100B10000000250238000000000000000000000076
:100B200000000000000000000000000000000000C5
:100B300021022F0200000000000025022602000012
:100B40000000000000000000000000000000310272
:100B50000000000000000000250237002502000010
:100B60000000220200000000000000000000000061
:100B7000000000000000310231020000000000000F
:100B80000000000000000000000000000000000065
:100B900007000000000034001600000007000000FD
:100BA0000000000000000000000000000000110034
:100BB000340017000000000000000C0011000A00C3
:100BC00000000000000034000F000F0000000000D3
:100BD00000000800150000000000000000000000F8
:100BE000000000000000000000000C0011000A00DE
:100BF00000000000000034001900080000000000A0
:100C000000000000000000000000000000000000E4
:100C100000000000000000000000080015000000B7
:100C200000000000000000000000000000000000C4
:100C300000000000000000000000000000000000B4
:100C4000000000000000000000000C0011000A007D
:100C50000000000000003400070000000000000059
:100C60000000000000000000000000000000000084
:100C70000000000000000000000000000000000074
:100C80000000000000000000000000000000000064
:100C90000000000000000000000000000000000054
:100CA0000000000000000000000008001500000027
:100CB00000000000000034001000000000000000F0
:100CC0000000000000000000000000000000000024
:100CD0000000000000000000000000000000000014
:100CE0000000000000000000000000000000000004
:100CF00000000000000000000000000000000000F4
:100D000000000000000000000000000000000000E3
:100D10001E0200000000290000000000290033022C
:100D2000000025020000000000000000000000009C
:100D3000000000000000000000002D020000000084
:100D400000000000000000000000000000000000A3
:100D50000000000000000000000000000000000093
:100D60000000000000000000000000000000000083
:100D70000000000000000000000000000000000073
:100D80000000000000000000000000000000000063
:100D90000000000000000000000000000000000053
:100DA0000000000000000000000000000000000043
:100DB0000000000000000000000000000000000033
:100DC0000000000000000000000000000000000023
:100DD0000000000000000000000000000000000013
:100DE0000000000000000000000000000000000003
:100DF00000000000000000000000000000000000F3
:100E000000000000000000000000000000000000E2
:100E100000000000000000000000000000000000D2
:100E200000000000000000000000000000000000C2
:100E300000000000000000000000000000000000B2
:100E400000000000000000000000000000000000A2
:100E50000000000000000000000000000000000092
:100E60000000000000000000000000000000000082
:100E70000000000000000000000000000000000072
:100E80000000000000000000000000000000000062
:100E90001E00000000001F000000000020000000F5
:100EA00000002100000000002200000000002300DC
:100EB00000000000240000000000250000000000E9
:100EC0002600000000001E00270000001E001E007B
:100ED00000001E001F0000001E00200000001E0079
:100EE000210000001E00220000002700000000007A
:100EF0001E00270000001F00270000002000270020
:100F0000000021002700000022002700000023002D
:100F10002700000024002700000025002700000013
:100F20002600270000001E00270027001E001E00CC
:100F300027001E001F0027001E00200027001E00A3
:100F4000210027001E0022002700000000000000F2
:100F50001E00000000001F00000000002000000034
:100F6000000021000000000022000000000023001B
:100F70000000000024000000000025000000000028
:100F80002600000000001E00270000001E001E00BA
:100F900000001E001F0000001E00200000001E00B8
:100FA000210000001E0022000000270000000000B9
:100FB0001E00270000001F0027000000200027005F
:100FC000000021002700000022002700000023006D
:100FD0002700000024002700000025002700000053
:100FE0002600270000001E00270027001E001E000C
:100FF00027001E001F0027001E00200027001E00E3
:10100000210027001E002200270000000000000031
:101010002B0000000000280000000000000000007D
:1010200000000000000000000800000000001C009C
:1010300000000000081C0000000016000000000076
:101040000816000000001C1600000000081C160016
:10105000000000000000000015000000000011006A
:10106000000000001511000000000F00000000004B
:10107000150F000000001600000000000F0F000018
:1010800000000A0000000000150A00000000110A1C
:10109000000000000A11000000000F0A000000001C
:1010A0000A1500000000070000000000070F000004
:1010B00000000600000000001506000000001106F8
:1010C00000000000110615000000130000000000E1
:1010D000151300000000161300000000130F00009D
:1010E00000000500000000001505000000000A0ACD
:1010F00000000000050815000000050F00000000BA
:101100000000000000000000000000000F050000CB
:1011100000000B00000000001A0000000000190091
:10112000000000001A11000000001D000000000077
:101130001A0F00000000160B000000000F1900003D
:1011400000000A0B00000000150A0B000000100050
:10115000000000001510000000001B00000000004F
:101160000000000000001610000000000F1000003A
:101170000000060B0000000015060B000000110621
:101180000B000000151900000000130B0000000008
:101190000000000000000000000000000F060B002F
:1011A0000000090000000000150900000000100503
:1011B000000000001005081500000F0900000000E5
:1011C000090F0000000010130000000013100000C1
:1011D00000001700000000001517000000001117A4
:1011E000000000001511170000000F17000000009C
:1011F000170F00000000161700000000151617005A
:1012000000000E0000000000150E00000000110E8E
:10121000000000000000000000000E0F00000000B1
:10122000000000000000160E000000000F0E00007D
:101230000000061700000000061500000000170C53
:101240001211000000000000000013170000000051
:101250000000000000001116170000000F1300002E
:101260000000060E0000000000000000000005174E
:1012700000000000050815170000060E0F00000012
:10128000000000000000000000000000000000005E
:101290000000170B0000000015170B0000001117CD
:1012A0000B0000001A170B0000000F170B000000C6
:1012B0000000000000001119000000000000000004
:1012C00000000A0B170000001A0E00000000110AAF
:1012D000170B00001008111700001B17000000007A
:1012E00000000000000007170B000000111008119B
:1012F000170017060B0000000000000000000000AF
:101300000000000000000000000013170B000000A8
:1013100000000000000000000000000000000000CD
:101320000000091700000000091708150000091740
:101330000811000000000000000000000000000094
:101340000000000000001013170000001310081127
:10135000170016000000000015160000000011160E
:10136000000000001511160000000F16000000001C
:10137000150F160000001616000000000F0F1600D3
:1013800000000A1600000000150A16000000110AED
:10139000160000000A111600000000000000000006
:1013A0000000000000000716000000000000000020
:1013B00000000616000000001506160000001106C9
:1013C00008160000000000000000131600000000D6
:1013D000151316000000161316000000130F081650
:1013E00000000516000000001505160000000A0A9E
:1013F00016000000050815160000050F081600006D
:101400000000000000000000000000000F051600B2
:1014100000000B16000000001A160000000019085A
:10142000160000001A11160000001D08160000002A
:101430001A0F16000000160B081600000F190816E8
:1014400000000A0B1600000000000000000010164B
:10145000000000001510160000001B081600000018
:101460000000000000001610160000000F1016000B
:101470000000070000000000150700000000110731
:10148000000000001A0700000000130B1600000007
:10149000150F070000001607000000000F070000EE
:1014A0000000070A00000000000000000000100516
:1014B00016000000100508151600000000000000CE
:1014C00000000000000010131600000000000000E3
:1014D0000000171600000000151716000000111775
:1014E000160000000000000000000F1716000000AA
:1014F000170F1C000000161716000000151617160F
:1015000000000E1600000000150E16000000110E5F
:1015100016000000000000000000000000000000B5
:10152000000000000000160E160000000F0E16004E
:101530000000061716000000000000000000170C55
:101540001211160000000000000000000000000062
:101550000000000000000000000000000F13160053
:101560000000060E16000000000000000000051735
:1015700016000000050815171600060E0F081600C5
:10158000000000000000000000000000000000005B
:101590000000170B1600000015170B16000011179E
:1015A0000B1600001A170B160000000000000000C8
:1015B000000000000000000000000000000000002B
:1015C00000000A0B171600001A0E16000000110A80
:1015D000170B16001008111716000000000000007D
:1015E00000000000000007170B1600001110081182
:1015F0001716071600000000150716000000110757
:10160000160000001A071600000013170B16000042
:10161000150F071600000000000000000F0716005D
:1016200000000000000000000000000000000000BA
:1016300000000000000000000000000000000000AA
:10164000000000000000101317160000131008110E
:101650001716000000000000080800000000121229
:101660000000000012080000000004040000000058
:10167000040800000000041200000000080412002A
:1016800000001818000000001808000000001812E0
:1016900000000000081812000000180400000000FC
:1016A00008180400000012180400000008121804B2
:1016B00000000C0C000000000C08000000000C12E0
:1016C00000000000080C120000000C0400000000E4
:1016D000080C04000000120C0400000008120C04A6
:1016E00000000C1800000000080C180000000C128C
:1016F0001800000008120C180000040C180000006C
:1017000008040C18000012040C1800000812040C45
:101710001800000000000000080000000000120097
:10172000000000000812000000000400000000009B
:101730000804000000001204000000000812040069
:101740000000180000000000081800000000121837
:10175000000000000812180000000418000000003B
:1017600008041800000012041800000008120418F1
:1017700000000C0000000000080C00000000120C2B
:101780000000000008120C000000040C0000000023
:1017900008040C00000012040C0000000812040CE5
:1017A0000000180C0000000008180C0000001218BF
:1017B0000C0000000812180C000004180C000000B7
:1017C0000804180C00001204180C00000812041879
:1017D0000C000000000000001100000000001500D7
:1017E000000000000F00000000001A0000000000D0
:1017F0001000000000001A15000000001015000085
:1018000000000B00000000001C0000000000150B91
:10181000000000000F1C000000001A0B0000000078
:10182000101C00000000000000000000000000008C
:1018300000000600000000001D000000000006156A
:1018400000000000060F0000000013000000000070
:10185000131100000000131500000000130F00001A
:101860000000060B00000000061C00000000060B34
:101870001500000006151C000000130B00000000FE
:10188000131C00000000130B15000000130B0F00C9
:1018900000001700000000001900000000001715EC
:1018A00000000000140000000000171A00000000F3
:1018B0000D00000000000000000000000D081500F1
:1018C0000000170B00000000171C00000000170BA1
:1018D0001500000017151C0000000E00000000009D
:1018E0000E11000000000E15000000000E0F000099
:1018F000000007000000000007081900000007159D
:101900000000000007080F000000071A0000000098
:101910000708100000000708150000000000000084
:101920000000090000000000071C0000000009156D
:1019300000000000090F000000000500000000008A
:10194000051C00000000051500000000050F000048
:101950000000040000000000041100000000041555
:1019600000000000040F00000000041A0000000046
:10197000041000000000000000000000040F0F0031
:101980000000040B00000000041C00000000000028
:1019900000000000000000000000041A0B0000001E
:1019A0000000000000000000000000000000000037
:1019B0000000040600000000041D000000000406F2
:1019C0001500000004060F000000041300000000D2
:1019D00004101000000004131500000004130F0091
:1019E000000004060B0000000406060000000406C8
:1019F000061500000406060F000004130B0000008B
:101A000000000000000004130B150000000000009F
:101A10000000041700000000041900000000041773
:101A20001500000004140000000004171700000057
:101A3000040D00000000041717150000000000004E
:101A4000000004170B000000000000000000041755
:101A50000B0F0000000000000000040E000000005A
:101A600004060E110000000000000000000000004D
:101A7000000004070000000004071900000004072C
:101A80001500000004061400000004070700000011
:101A90000407100000000407071500000407070FE3
:101AA0000000040900000000040909000000040906
:101AB0001500000004090F000000040500000000EC
:101AC00004051C00000004051500000004050F00BB
:101AD00000001600000000001611000000001608AB
:101AE00015000000160F00000000161A000000008C
:101AF00016100000000000000000000000000000C0
:101B00000000160B00000000161C00000000160B61
:101B100015000000160F1C0000000000000000006F
:101B200000000000000000000000000000000000B5
:101B30000000160600000000161600000000160641
:101B40001500000000000000000016130000000057
:101B500000000000000016131500000016130F000F
:101B6000000016060B00000000000000000000004E
:101B70000000000000000000000016130B00000031
:101B800016131C0000000000000000000000000010
:101B900000001617000000001619000000001617BC
:101BA000150000001614000000001B0000000000DB
:101BB0000000000000001B150000000016081519A9
:101BC000000000000000000016171C0000000000CC
:101BD000000000001617151C0000160E0000000083
:101BE0001B1C0000000000000000000000000000BE
:101BF00000000A00000000000A11000000000A15A1
:101C0000000000000A0F000000000A1A0000000097
:101C100000000000000000000000000000000000C4
:101C200000000A0B000000000A1C00000000000079
:101C300000000000000000000000000000000000A4
:101C40000000000000000000000000000000000094
:101C5000000004160000000004111100000004152B
:101C60001500000004160F00000000000000000036
:101C7000041610000000000000000000000000003A
:101C8000000004160B00000004161C0000000000F9
:101C90000000000000000000000000000000000044
:101CA0000000000000000000000000000000000034
:101CB00000000416060000000416160000000416BA
:101CC00006150000000000000000041613000000CC
:101CD0000413130000000413131500000413130F62
:101CE00000000000000000000000000000000000F4
:101CF000000000000000000000000416130B0000AC
:101D00000416130B1C00000000000000000000007F
:101D100000000416170000000C11190000000C153B
:101D200000000000041614000000041B0000000066
:101D300000000000000000000000000000000000A3
:101D400000000416170B00000C11170000000C1502
:101D5000150000000C111708150004160E000000F5
:101D60000000000000000000000000000000000073
:101D70000000040A00000000040A11000000040A28
:101D800015000000040A0F000000040A0A00000009
:101D900004070D000000040A0A150000040A0A0FD7
:101DA0000000040A0B0000000409170000000409E9
:101DB000091500000409090F0000040505000000D2
:101DC00000000000000004050515000000000000F0
:101DD000000016034500720067006F0044006F00AA
:101DE0007800200045005A000000160345007200EC
:101DF00067006F0044006F007800200045005A0023
:101E000000000403090409025400030100A0FA09B8
:101E10000400000103010100092111010001224019
:101E2000000705810308000A0904010001030000FE
:101E30000009211101000122360007058203080074
:101E40000A09040200010300000009211101000138
:101E50002239000705830320000112011001000050
:101E60000008EDFE0713010001020001050109064B
:101E7000A101050719E029E715002501950875015D
:101E80008102050819012905950575019102950141
:101E9000750391010507190029F71500250195F82B
:101EA00075018102C005010980A1018502160100AA
:101EB0002603001A81002A8300751095018100C055
:101EC000050C0901A1018503160100269C021A01D7
:101ED000002A9C02751095018100C005010906A128
:101EE00001050719E029E71500250195087501810D
:101EF00002950175088101050819012905950575E7
:101F00000191029501750391010507190029FF153B
:101F10000026FF00950675088100C00011241FBE31
:101F2000CFEFDAE0DEBFCDBF04B603FE24C0809160
:101F3000060490910704A0910804B0910904873029
:101F4000904BA740B04BB9F41092060410920704CE
:101F5000109208041092090414BE84B7877F84BFCE
:101F600088E10FB6F89480936000109260000FBE75
:101F7000E0E0FFE3099512E0A0E0B1E0ECEFFDE561
:101F800002C005900D92A633B107D9F714E0A6E37D
:101F9000B2E001C01D92A630B107E1F70E946629A8
:101FA0000C94FC2E0C9400001092B9008AE08093EF
:101FB000B800089594EA9093BC009091BC0097FFFC
:101FC000FCCF9091B900987F983021F0903111F0BA
:101FD00081E008958093BB0084E88093BC008091E9
:101FE000BC0087FFFCCF8091B900887F883111F059
:101FF000803471F780E0089584E98093BC0080917B
:10200000BC0084FDFCCF08958093BB0084E88093DE
:10201000BC008091BC0087FFFCCF9091B900987FF5
:1020200081E0983209F480E0089584E88093BC0050
:102030008091BC0087FFFCCF8091BB00089580B3E6
:102040008C7080BB81B3836F81BB08958091310117
:10205000811115C080E40E94DA0F80933101811153
:102060000CC082E10E94041080933101811105C0EF
:102070008FEF0E940410809331010E94FC0F84B105
:10208000807F84B985B1807F85B98AB1837F8AB921
:102090008BB1837F8BB93E98469808950C94EE14CB
:1020A0000E945119809331010E9426100E941F1036
:1020B000E5E4F2E0A7E3B2E011921D9282E0E3359D
:1020C000F807D1F70C945D160E94511980933101E5
:1020D0000E9426100E941F10E5E4F2E0A7E3B2E0A0
:1020E00011921D9282E0E335F807D1F708958F929F
:1020F0009F92BF92CF92DF92EF92FF920F931F9326
:10210000CF93DF931F92CDB7DEB780913101882343
:1021100079F0809136028F5F80933602811108C07A
:102120000E94511980933101811102C00E94E3186D
:1021300007E312E0812C912CEE24E394F12CDD24B2
:10214000D39495E0C92E282D273030F580913101A8
:10215000811142C080E489820E94DA0F80933101AC
:102160002981811114C082E10E9404108093310101
:10217000298181110CC0C701082C01C0880F0A9465
:10218000EAF780950E940410809331012981298308
:102190000E94FC0F298120C02A30A1F028F42830A9
:1021A00059F0293061F005C02C3089F070F02D30E5
:1021B00089F0209A289810C0219A29980DC0229A57
:1021C0002A980AC0239A2B9807C0529A01C0539AA2
:1021D0005B9802C03E9A469830EA3A95F1F727306C
:1021E00018F580913101811144C080E40E94DA0F1A
:1021F00080933101882311F0B12C12C083E10E9439
:102200000410809331018111F7CF81E40E94DA0F2D
:10221000809331018111F0CF0E941510B82EB09437
:102220000E94FC0F8B2D26C08FB181708D25799B6C
:1022300002C090E001C092E0892B7C9B02C090E03C
:1022400001C094E0892B7D9B02C090E001C098E022
:10225000892B7E9B02C090E001C090E1892B9FB149
:102260009095991F9927991F9295990F907E892B88
:1022700001C080E0F8019081981719F08083C09226
:1022800000010E942610FFEF8F1A9F0A0F5F1F4F59
:102290003EE08316910409F056CF80910001882317
:1022A000A1F0815080930001882329F085E08A9570
:1022B000F1F700000AC0A5E4B2E0E7E3F2E08191A3
:1022C0008D9332E0E534F307D1F70E945F1681E089
:1022D0000F90DF91CF911F910F91FF90EF90DF90C2
:1022E000CF90BF909F908F900895E82FF0E0EB5B28
:1022F000FD4F808108950895811105C0977081E098
:1023000019F480E001C081E08170089580912C0370
:1023100090912D03A0912E03B0912F03892B8A2B2E
:102320008B2B69F481E0409128035091290360913F
:102330002A0370912B03452B462B472B09F080E095
:10234000817008950F931F93CF93DF931F92CDB7A2
:10235000DEB7182F69830E94B325082F812F0E94B2
:10236000C3256981862F0E940F1C802F0F90DF915B
:10237000CF911F910F910C94C3252F923F924F92B2
:102380005F926F927F928F929F92AF92BF92CF9205
:10239000DF92EF92FF920F931F93CF93DF93CDB70E
:1023A000DEB728970FB6F894DEBF0FBECDBF0E94F0
:1023B000B3258D8382E10E94BC2580911D0350903E
:1023C0002103282F2170822E382F32703E8382FB0A
:1023D000662460F880911E03882371F0442443949E
:1023E000823009F0412C77247394833009F0712CEA
:1023F00082E00E94B62502C0712C412C21E0C22E41
:1024000021E0D22E2CE133E03C832B83912C312C24
:1024100018861F821A8231E03983EB81FC81819119
:10242000FC83EB83882309F4E9C021E029832F8111
:1024300038852130310509F01982EF81F885E95995
:10244000FE4F90812F8138852530310519F4811098
:102450001AC015C02F8138852430310531F4882009
:1024600071F0552009F47EC10AC02F8138852630CD
:10247000310529F4882019F0552009F487C1F601A7
:102480002081318102C022E536E12115310509F4B0
:10249000B5C0923009F451C0933009F469C191304C
:1024A00009F0ACC07901F6E08F9FE00CF11C11241B
:1024B000B32C00E010E0F701E00FF11F2490222080
:1024C000A1F1822D0E940F1C822D0E94D71C3394F3
:1024D00024E122120BC0552049F088E10E940F1C14
:1024E00088E10E94D71C92E0392E3B0C3E813323B9
:1024F00079F02F8138852630310551F40115110509
:1025000039F4822D0E940F1C822D0E94D71C339417
:10251000442019F031E0331629F0772031F082E0C1
:10252000381203C082E00E94BC250F5F1F4F0630A7
:10253000110509F463C0B32CBECF590196E0899F01
:10254000A00CB11C1124E12CF12CF501EE0DFF1DA6
:10255000059114910115110509F450C0202E8CEF3E
:10256000800F8A3120F4802F0E940F1C04C0602F3E
:10257000812F0E94A211802F0E94D71CE0E52E120D
:1025800005C09394F92DF7709F2E01C03394442019
:1025900019F021E0321629F0772031F032E03312C1
:1025A00003C082E00E94BC2582E0E80EF11C96E0A8
:1025B000E916F10451F622C00F3FEFE11E0709F4BE
:1025C000E2C0602F812F0E94A211802F0E94D71C91
:1025D000F0E50F13D6C09394292D2770922E82E038
:1025E000E80EF11C9AE0E916F10441F0F501EE0D58
:1025F000FF1D0591149101151105F1F62F81388504
:102600002F5F3F4F38872F8332E0C30ED11C2F81BD
:1026100038852C30310509F000CF332019F081E0E6
:10262000862506C0662019F081E0882501C080E07B
:10263000882351F03A81311107C08CE20E940F1CAF
:102640008CE20E94D71C3394192D1770832D912F83
:102650000E947C118823B1F080915302843611F4DA
:1026600010925302E091530281E08E0F8093530247
:10267000EE0FFF0BEC5AFD4F30828181887F812B5A
:10268000818365C0882009F462C0F0905302FA94F7
:10269000F7FE02C083E6F82E0F2D000F110BC801C4
:1026A0008C5A9D4F5C01FC018181E080F82FF7700E
:1026B000CF2ED82E8E2D9D2D0E947C11882309F4BB
:1026C0003EC0662069F08AE20E940F1C8AE20E94E6
:1026D000D71CF501808181508083811138C02CC0C6
:1026E00029812223A1F18D2D8770B1F0D12CAC2C42
:1026F000B12C2D2D30E02A153B0544F48FE40E94C7
:102700000F1C8FE40E94D71CD394F3CFF801EC5A2E
:10271000FD4F8181887F8183EE2071F0D12C8AE288
:102720000E940F1C8AE20E94D71CD394DE10F7CFC0
:10273000F801EC5AFD4F1082F092530208C0662057
:1027400031F08AE20E940F1C8AE20E94D71C8D8120
:102750000E94C325ECE1F3E0119233E0E832F30785
:10276000D9F717C02AE039E02115310509F446CF21
:1027700059019AE0899FA00CB11C1124E12CF12C85
:1027800035CF33942CCF31E03A8329CF2AE836E095
:10279000EBCF28960FB6F894DEBF0FBECDBFDF910A
:1027A000CF911F910F91FF90EF90DF90CF90BF904E
:1027B000AF909F908F907F906F905F904F903F90E1
:1027C0002F9008957F928F929F92AF92BF92CF9257
:1027D000DF92EF92FF920F931F93CF93DF93EC0161
:1027E000613009F4ACC020F0623009F4BDC0E5C02E
:1027F0004981888136E0439FA0011124480F511D73
:10280000FA01EE0FFF1FEE0FFF1FE651FC4F8591FF
:102810009591A591B4910097A105B10509F4CDC09A
:102820002A81B7FF63C0AC014F705527C12CD12C52
:102830007601C39404C0CC0CDD1CEE1CFF1C4A9531
:10284000D2F764E0B695A795979587956A95D1F7E5
:10285000382F3F70732E032F10E0D801AD58BE4FB4
:10286000F801EE0FFF1FE75EFE4FC081D1814601E8
:1028700057010C9004C0880C991CAA1CBB1C0A941C
:10288000D2F72223C9F082E0381303C081EE0E9400
:102890000F1C88819981AA81BB8188299929AA293D
:1028A000BB2988839983AA83BB83F801E45EFC4F2C
:1028B00080818C29808381C080949094A094B0946E
:1028C000488159816A817B81482159216A217B2174
:1028D000488359836A837B830E94861181110E94F9
:1028E000BD1192E0791269C081EE26C0FA01EE0FA7
:1028F000FF1FEE0FFF1FE65CFA4FC590D590E590E5
:10290000F490C114D104E104F10409F44AC0CC2DBF
:10291000E0911D01F0911E0140815181628173811E
:102920004427552766277076452B462B472BA1F564
:1029300039C00E94D71C8C2D0E94D71C3EC08981B3
:10294000811102C081EE01C085EE9A81992331F098
:102950000E940F1C82E00E9426242FC00E94D71CD8
:1029600082E00E94412429C06881798180E00E9430
:10297000741664E170E00E94AC2EFC01EE0FFF1FA4
:10298000E15CFE4F608181819A81992319F00E9458
:10299000A21113C0862FD0CF222359F26C2D8D2D7A
:1029A000F6CFC0E0222319F0682F892FF0CF0E94C4
:1029B000D71CCC2311F08C2FBFCF80E090E0DF91AB
:1029C000CF911F910F91FF90EF90DF90CF90BF902C
:1029D000AF909F908F907F90089508956091A0038D
:1029E0007091A1038091A2039091A3030E943126CC
:1029F00025982D9826982E9827982F98813029F081
:102A0000833029F4269A2E9A02C0259A2D9A0E9484
:102A10008611811102C0279A2F9A089581E00895A6
:102A200081E008950C9410150E94C61F2FEF84E3D7
:102A30009CE0215080409040E1F700C000000C94E1
:102A40008C270F931F93CF93DF938C01FC01C081E0
:102A5000D181CE010E94B224BE010E947416EC0105
:102A6000B8010E941215882309F421C1B801CE01D2
:102A70000E949718882309F41AC1B801CE010E9458
:102A8000851A882309F413C1C531FCE5DF0708F076
:102A9000A3C0C2308CE5D80708F478C0F801828161
:102AA000882309F47FC00E949E26811102C00E94E3
:102AB00084260E94B12690E09093F8038093F70358
:102AC000FE01E350FC45E231F10520F4EA5AFF4FE4
:102AD0000C94C02E8091F703816003C08091F703AE
:102AE00082608093F7034BC08091F7038460F9CF35
:102AF0008091F70313C08091F7038061F2CF80913A
:102B0000F7038062EECF8091F7038064EACF809173
:102B1000F7038068E6CF8091F70384608860E1CF97
:102B20008091F7038E7FDDCF8091F7038D7FD9CF22
:102B30008091F7038B7FD5CF8091F70313C08091ED
:102B4000F7038F7ECECF8091F7038F7DCACF809120
:102B5000F7038F7BC6CF8091F7038F77C2CF809129
:102B6000F7038B7F877FBDCF9091F70397FB882773
:102B700080F921E0822780FB97F99093F7038091F9
:102B8000F7030E94B5260E94C61F91C0C115ECE54F
:102B9000DE0779F0C130DC45A1F081E0809332039B
:102BA00080933303C801DF91CF911F910F910C9453
:102BB0000E15F8018281882309F479C00E9414154A
:102BC00076C0F8018281882309F471C08091CD0319
:102BD00081608093CD036BC0CD338CE5D80739F588
:102BE000F8018281882361F0109233030E9431271B
:102BF000909331038093300380E20E94261D57C0DA
:102C00008091330381110FC0809130039091310383
:102C10000E943D27883C910530F487E20E940F1CFA
:102C200087E20E94D71C80E20E942D1D40C0CE3357
:102C3000ECE5DE0738F5CC33DC4509F0AECFF80122
:102C40008281882351F0109232030E9431279093A1
:102C500031038093300382E0D0CF80913203811121
:102C60000FC080913003909131030E943D27883C32
:102C7000910530F486E20E940F1C86E20E94D71C68
:102C800082E0D2CFC0348CE5D80731F4F8018281DC
:102C9000882369F080E009C0C134DC4509F07DCFAC
:102CA000F8018281882319F082E00E94F82980E0EF
:102CB000DF91CF911F910F9108950C943B190C94C3
:102CC0004E10282F882339F090E02A3010F44D96CA
:102CD00008950697089587E290E0089508950C946A
:102CE0006E160C946F16089596E0799FF0011124EA
:102CF00094E5899FE00DF11D1124E60FF11DEE0F03
:102D0000FF1FE65BFE4F859194910895880F991FF0
:102D1000865B9E4FFC018591949108950E947416E4
:102D20000E941A18811520E49207B0F5811540E33E
:102D3000940708F0DBC0803E9105D8F4803C9105F3
:102D400008F069C0883A910578F4853A910508F051
:102D500065C08130910509F46CC108F423C1843049
:102D6000910508F066C11EC18D3B910508F461C054
:102D700019C18F3F910509F048F4803F910508F093
:102D8000AFC0883E910508F454C10CC1811520E202
:102D9000920708F0A7C00895811544E59407D8F478
:102DA000811523E5920708F0DCC0811541E5940701
:102DB00040F4811520E5920708F0A2C09F70906A48
:102DC0000895811542E5940708F0B6C0982F88272A
:102DD000816F906A0895811526E5920750F4811558
:102DE00045E5940708F0D2C0982F8827846F906A31
:102DF0000895811528E5920708F4D4C0811549E5A6
:102E0000940708F4C8C09C0130562115304208F0E0
:102E1000C9C09F71C5C0805C910965C0853A9105A4
:102E200009F4C3C0863A910509F4C2C083E890E46E
:102E30000895883A910509F4BEC0893A910509F4CC
:102E4000BDC08A3A910509F4BCC08B3A910509F4DA
:102E5000BBC08C3A910509F4BAC08B3B910509F4CB
:102E6000B9C08C3B910509F4B8C08D3A910509F4BD
:102E7000B7C0803B910509F4B6C08E3A910509F4BC
:102E8000B5C08F3A910509F4B4C0813B910509F4AE
:102E9000B3C0823B910509F4B2C0833B910509F4AC
:102EA000B1C0843B910509F4B0C0853B910509F49C
:102EB000AFC0863B910509F4AEC0873B910509F48C
:102EC000ADC0883B910509F4ACC0893B910509F47C
:102ED000ABC08A3B910509F0AAC08AE296E4089546
:102EE000906508959F700E94861608959C0133276F
:102EF00093FF03C0C901986C0895C901906C0895AF
:102F0000482F437021E030E002C0220F331F4A9562
:102F1000E2F73C68AC0174E0569547957A95E1F785
:102F20004370342B8F708695869540E2849FC00154
:102F30001124822B932B0895282F2695269540E265
:102F4000249F90011124AC014370552781E090E04B
:102F500002C0880F991F4A95E2F7822B932B9C6839
:102F60000895282F2695269540E2249F900111244C
:102F7000AC014370552781E090E002C0880F991F93
:102F80004A95E2F7822B932B9A6808958F719927BF
:102F9000982F882705C0982F8827806F906A0895FA
:102FA0009062089580E090E0089581E890E40895AB
:102FB00082E890E4089582EE94E4089589EE94E422
:102FC00008958AEE94E4089585EB94E4089586EBE1
:102FD00094E4089583EB94E4089584EB94E40895D5
:102FE00087EB94E408958CEC94E408958DEC94E4DC
:102FF000089583E895E408958AE895E4089582E9C0
:1030000095E4089584E995E4089581E296E40895AD
:1030100083E296E4089584E296E4089585E296E4D6
:10302000089586E296E4089587E296E4089580E0A4
:1030300094E408958238910549F1B0F48133910503
:1030400009F459C048F48932910509F44FC08A3215
:10305000910509F455C008958533910509F441C0DF
:103060008933910599F00895833E910531F138F443
:10307000803E910591F0823E9105A9F00895863E2B
:10308000910501F1873E910539F108952091F703EB
:1030900020FD3BC021FD39C008958091F70380FFDA
:1030A00034C089E341C08091F70382FF32C0809130
:1030B000F70384FF2CC080E037C08091F70382FDC6
:1030C00028C0F5CF8091F70383FF25C08091F703D7
:1030D00084FDF1CF87EE28C08091F70383FD1BC0EC
:1030E000F5CF8091F70385FF18C019C08091F703D1
:1030F00085FF15C012C08091F70386FF12C013C070
:103100008091F70386FF0FC00CC080EE0DC083EEE8
:103110000BC082EE09C086EE07C085E305C089E2D8
:1031200003C081E301C08AE290E008950895CF933F
:10313000DF93EC01FB018281811102C081E040C07C
:1031400080914103811125C0C531DC45B9F70E944A
:10315000961881E0809341030E94312790934003A9
:1031600080933F031092340310923603109235037C
:10317000109238031092370310923A0310923903D9
:1031800010923C0310923B0310923E0310923D03B9
:1031900016C080913F03909140030E943D27883CD8
:1031A000910560F680913403E82FF0E0EE0FFF1FE9
:1031B000EB5CFC4FD183C0838F5F8093340380E04E
:1031C000DF91CF91089556985E9825982D9826986E
:1031D0002E9827982F988FEF90E0909389008093F6
:1031E000880090938B0080938A0090938D00809349
:1031F0008C00259A2D9A2FEF80E792E02150804095
:103200009040E1F700C00000269A2E9A2FEF80E749
:1032100092E0215080409040E1F700C00000279AE2
:103220002F9A2FEF80E792E0215080409040E1F705
:1032300000C0000025982D982FEF80E792E02150E4
:1032400080409040E1F700C0000026982E982FEFB4
:1032500080E792E0215080409040E1F700C00000FC
:1032600027982F9856985E9825982D9826982E98EE
:1032700027982F98089589EA8093800089E08093A9
:10328000810024982C983F988AB18F7C8AB96E98D7
:10329000479A8BB180638BB9769A0E94E3180C949D
:1032A000ED1480E2809331018091420381110EC0C0
:1032B0000E94D40F81E0809342032FEF83ED90E3CF
:1032C000215080409040E1F700C0000080E40E945F
:1032D000DA0F8093310181112EC00E940410809377
:1032E0003101811128C00E940410809331018111A5
:1032F00022C08FE30E9404108093310181111BC012
:103300000E94FC0F80E40E94DA0F8093310181114A
:1033100012C08CE00E9404108093310181110BC017
:103320000E94041080933101811105C08FE30E9437
:103330000410809331010E94FC0F809131010895A7
:10334000E0913201F091330180818093F20381FF9B
:1033500003C081EE0E94D71C8091F20385FF03C059
:1033600085EE0E94D71C8091F20380FF03C080EE9F
:103370000E94D71C8091F20384FF03C084EE0E9458
:10338000D71C8091F20382FF03C082EE0E94D71CFB
:103390008091F20386FF03C086EE0E94D71C8091C5
:1033A000F20383FF03C083EE0E94D71C8091F203D7
:1033B00087FF03C087EE0E94D71C809143038130B2
:1033C000A1F078F0823011F1843049F586EE0E9448
:1033D0000F1C86EE0E94D71C88E10E940F1C88E11A
:1033E0001CC082EE0E940F1C1AC080EE0E940F1CAF
:1033F00081EE0E940F1C88E10E940F1C88E10E9450
:10340000D71C81EE0E94D71C80EE07C082EE0E947E
:103410000F1C87E50E940F1C87E50E94D71C8FE3D5
:103420009CE90197F1F700C00000089580914303E3
:10343000813029F010F0823041F482EE04C08CE239
:103440000E940F1C8CE20E94D71C8091F20381FF26
:1034500003C081EE0E940F1C8091F20385FF03C020
:1034600085EE0E940F1C8091F20380FF03C080EE66
:103470000E940F1C8091F20384FF03C084EE0E941F
:103480000F1C8091F20382FF03C082EE0E940F1C8A
:103490008091F20386FF03C086EE0E940F1C80918C
:1034A000F20383FF03C083EE0E940F1C8091F2039E
:1034B00087FF03C087EE0C940F1C0895FF920F93B3
:1034C0001F93CF93DF938C01CCE0D0E0C8010C2E8A
:1034D00002C0969587950A94E2F7282F2F70F22E56
:1034E000822F0E9461160E940F1C8F2D0E94611670
:1034F0000E94D71C2497CC3F8FEFD80739F7DF9174
:10350000CF911F910F91FF900895CF93DF93EC011E
:10351000C13080E8D80760F0FB018281882341F048
:103520000E94A019CE019F770E945E1A0E94161A6F
:1035300081E0DF91CF9108959093490380934803F0
:103540000895E0914803F0914903309721F00190EC
:10355000F081E02D099480E00895E0914803F09116
:103560004903309721F00280F381E02D09940895FA
:1035700020914603309147038217930771F090938F
:10358000470380934603E0914803F0914903309745
:1035900021F00680F781E02D0994089520914403DD
:1035A000309145038217930771F090934503809300
:1035B0004403E0914803F0914903309721F00084DF
:1035C000F185E02D0994089508950C94E41A0E9461
:1035D00028270E9450100E94AF27E7EFF3E0808178
:1035E000806880830895CF92DF92EF92FF920F93CD
:1035F0001F93CF93DF93CDB7DEB72B970FB6F89419
:10360000DEBF0FBECDBF0E9477103BE4E32E33E058
:10361000F32E00E010E0C02E802F0E947511F701FC
:10362000D1907F01D826B1F40F5F1F4F0E301105E6
:1036300091F78FEF89838A831B820E9431278160F3
:10364000782F9D838C8349815A816B818D810E9463
:10365000D01B41C09091CD0391FF04C08B870E9485
:103660007B118B8520E030E04D2D50E0922FBA0188
:10367000022E02C0759567950A94E2F760FF25C097
:103680002E83CF82EE24E394F12C02C0EE0CFF1CBB
:103690009A95E2F790E08E219F2121E0892B09F491
:1036A00020E028870E9431278160782F9A878987B8
:1036B0004E815F8168858A850E94D01BF801E55B99
:1036C000FC4F80818E25808306C02F5F3F4F2630C0
:1036D000310561F6A9CF10914A030E94A11A18176B
:1036E000A1F00E94A11A80934A032B960FB6F8947A
:1036F000DEBF0FBECDBFDF91CF911F910F91FF9025
:10370000EF90DF90CF900C9471162B960FB6F89433
:10371000DEBF0FBECDBFDF91CF911F910F91FF9004
:10372000EF90DF90CF900895DC0111964C911197A6
:103730005C91852F90E021E030E001C0220F5A9586
:10374000EAF712966C91129750E0662319F0609197
:10375000670305C0FA01E75AFC4F608162236623C4
:10376000B9F036E0349FF001359FF00D1124E80FD9
:10377000F91FEE0FFF1FE158FE4F808191818D935D
:103780009C93FA01E75AFC4F8081822B8083089535
:10379000FA01E75AFC4F2095808128232083089561
:1037A000CF93DF93CDB7DEB72B970FB6F894DEBF7C
:1037B0000FBECDBF4F83588769877A878B878A85ED
:1037C0009B85892B31F05F3F11F080E003C04F3FB4
:1037D000E1F781E0811104C0CE0107960E94941B9D
:1037E000DE01119686E0FD0111928A95E9F785E0E8
:1037F000FE01379601900D928A95E1F749815A8131
:103800006B817C818D819E810E9490222B960FB6C8
:10381000F894DEBF0FBECDBFDF91CF91089588230E
:1038200009F4C4C0823859F40E94A11A81FDBEC0B7
:1038300089E30E9432250E94022689E30CC0833866
:1038400071F40E94A11A80FDB1C083E50E94322567
:103850000E94022683E50E9472250C940226843879
:1038600059F40E94A11A82FDA1C087E40E9432256A
:103870000E94022687E4EFCF9CEF980F913A18F44C
:103880000E943225EACF90E2980F983050F487706A
:1038900091E001C0990F8A95EAF7892F0E94B62519
:1038A000DCCF9BE5980F933070F4853A29F0863A87
:1038B00031F482E890E005C081E890E002C083E83E
:1038C00090E00C94B81A98E5980F953108F06EC006
:1038D000883A61F1893A69F18A3A71F18B3A79F162
:1038E0008C3A81F18B3B89F18C3B91F18D3A99F1C6
:1038F000803BA1F18E3AA9F18F3AB1F1813BB9F148
:10390000823BC1F1833BC9F1843BD1F1853BD9F1C5
:10391000863BE1F1873BE9F1883BF1F1893BF9F125
:103920008A3B09F03FC08AE292E03EC082EE90E01E
:103930003BC089EE90E038C08AEE90E035C085EB60
:1039400090E032C086EB90E02FC083EB90E02CC07B
:1039500084EB90E029C087EB90E026C08CEC90E0EF
:1039600023C08DEC90E020C083E891E01DC08AE880
:1039700091E01AC082E991E017C084E991E014C097
:1039800081E292E011C083E292E00EC084E292E014
:103990000BC085E292E008C086E292E005C087E2B3
:1039A00092E002C080E090E00C94CE1A0895882343
:1039B00009F44BC0823859F40E94A11A81FF45C016
:1039C00089E30E9432250E94022689E30CC08338D5
:1039D00071F40E94A11A80FF38C083E50E9432254D
:1039E0000E94022683E50E9472250C9402268438E8
:1039F00059F40E94A11A82FF28C087E40E94322550
:103A00000E94022687E4EFCF9CEF980F913A58F37B
:103A100090E2980F983050F4877091E001C0990FB0
:103A20008A95EAF7892F0E94BC25DFCF9BE5980F86
:103A3000933020F480E090E00C94B81A885A8531D5
:103A400020F480E090E00C94CE1A0895882321F0B1
:103A50000E94B6250C9402260895882321F00E9426
:103A6000BC250C94022608958F929F92BF92CF920C
:103A7000DF92EF92FF920F931F93CF93DF9300D0CB
:103A8000CDB7DEB74C01472FFC01E580E2949FE003
:103A9000E922F280FF2031F079836A830E94D625E3
:103AA0006A81498149836A830E942B2549816A8101
:103AB000882389F0FF2079F080E2860F883058F063
:103AC00082E00E9414250E942B25BB24B394B826C3
:103AD00049816A8101C0B12CE42FE295EF70F0E0DA
:103AE000E859FF4F0C94C02E842F807F142F1F7035
:103AF000882311F01295107FFF20C1F0112309F4E3
:103B00008DC180E2860F883010F0611105C0812FD1
:103B10006A830E94B62504C0812F6A830E94C9254A
:103B20006A816A830E9402266A8178C1862F6A832D
:103B30000E94D71C6A81112309F4BEC180E2860F5E
:103B4000883010F0611104C0812F0E94BC2503C091
:103B5000812F0E94CF250E940226AEC1242F207FF4
:103B6000842F8F70203211F08295807F662319F0A8
:103B70006130B9F020C0FF2049F0EE2009F404C103
:103B8000F1E0EF1201C10E94E92596C1EE2021F07B
:103B900091E0E91609F490C189830E94EC2589819E
:103BA000F9C0FF2029F0E1E0EE1508F485C1ECC072
:103BB000E11082C1EFC0FF2021F0EE2009F4E4C043
:103BC0002DC1EE2009F4E6C02FC1242F269526959D
:103BD000237030E02115310521F02130310561F0ED
:103BE0006BC1FF2021F0862F942F937002C080E0DC
:103BF00090E00E94B81A60C1FF2021F0862F942F18
:103C0000937002C080E090E00E94CE1A55C1842FCC
:103C1000837009F04EC0F1104FC1262F22952695D2
:103C20002770220F220F862F8F70C82ED12CE12CE7
:103C3000F12C022E04C0CC0CDD1CEE1CFF1C0A94DF
:103C4000D2F764FF10C06FE070E080E090E004C045
:103C5000660F771F881F991F2A95D2F76095709578
:103C60008095909503C060E070E0CB01242F2695ED
:103C70002695237030E02230310569F0233031057C
:103C800089F06C297D298E299F292130310571F019
:103C90000E94E12311C16C297D298E299F290E9450
:103CA000F3230AC10E94E123C701B6010E94CF237A
:103CB00003C1FF2019F0842F817001C086958823ED
:103CC00009F4FAC0262F229526952770220F220F7D
:103CD000862F8F70C82ED12CE12CF12C022E04C01F
:103CE000CC0CDD1CEE1CFF1C0A94D2F764FF10C044
:103CF0006FE070E080E090E004C0660F771F881FDF
:103D0000991F2A95D2F7609570958095909503C07C
:103D100060E070E0CB01242F26952695237030E0DB
:103D20002230310569F02330310589F06C297D2975
:103D30008E299F292130310571F00E948D24BCC04D
:103D40006C297D298E299F290E949F24B5C00E943D
:103D50008D24C701B6010E947B24AEC0062F10E05F
:103D6000F801E05EF109E531F10508F053C0E858CB
:103D7000FF4F0C94C02E162F1F70842F8F71FF20C1
:103D800031F00E942624812F0E94261D95C00E949A
:103D90004124812F0E942D1D8FC0FF2039F0E1109A
:103DA0008BC0842F8F710E94602486C0F1E0FE15C5
:103DB00008F482C0F6CFFF2039F0842F8F710E9463
:103DC00026247AC0FF20C9F3842F8F710E944124DA
:103DD00073C0FF2029F0842F8F710E9417246CC0BC
:103DE0000E94122469C0FF2051F0142F1F71812FEF
:103DF0000E94262463E0812F0E940B255DC081E094
:103E00000E94142581E08E1508F056C082E00E94C1
:103E1000142552C0FF2031F0EE2079F2862F0E9447
:103E20000F1C4AC0EE2081F2862F0E94D71C44C08E
:103E30004F70C4010E94E2130E943D233DC0623FC7
:103E4000A9F128F4603F49F0613FE1F020C0643FF0
:103E5000A1F050F0653F69F01AC0FF2049F1809150
:103E6000670321E0822702C081E08F2580936703EA
:103E70001FC0F1101DC081E0F9CFF11019C01092E0
:103E8000670316C0EE2091F0F11012C0E8CFEE20CB
:103E900069F0862F49836A83FF2019F00E940F1C66
:103EA00002C00E94D71C49816A8102C0F092670358
:103EB0004F70C4010E947316BB20F1F00E940725C9
:103EC00080FD1AC0F40112820E9401250E9426245E
:103ED000C4010E948A1F0E9401250F900F90DF915C
:103EE000CF911F910F91FF90EF90DF90CF90BF90F7
:103EF0009F908F900C9441240F900F90DF91CF9161
:103F00001F910F91FF90EF90DF90CF90BF909F9007
:103F10008F9008950F931F93CF93DF93EC01288127
:103F200039818B819C81892B31F03F3F11F080E0FA
:103F300003C02F3FE1F781E0811113C0CE010E9441
:103F40002115882371F0688179818A810E94FD247E
:103F50008C010E94B1240E94CC23B801CE010E94A2
:103F6000341DDF91CF911F910F9108950E94D625A6
:103F70000E94E6250E94A5250E94022680E090E08E
:103F80000E94B81A80E090E00C94CE1A0E94C625D8
:103F90000C94B61F0E94F224E92FE295EF70F0E036
:103FA0003297EE30F105B8F4E357FF4F0C94C02E72
:103FB000803F59F018F4803E70F407C0843F59F4F4
:103FC00004C0803E10F0813F31F481E0089593FBFE
:103FD000882780F9089580E00895CF93DF9300D07B
:103FE00000D01F92CDB7DEB70F900F900F900F90BB
:103FF0000F90DF91CF910895CF93DF9300D000D041
:1040000000D0CDB7DEB726960FB6F894DEBF0FBE50
:10401000CDBFDF91CF9108951F93CF93DF93C091D0
:10402000680316E080916903C81799F0D0E01C9FDF
:10403000F0011D9FF00D1124E659FC4F4081518184
:1040400062817381848195810E94FC1F2196C770D3
:10405000E9CFDF91CF911F91089540919A0350913C
:104060009B0360919C0370919D0380919E039091AE
:104070009F030C94FC1FCF9380919F0382958F70B8
:1040800009F05FC080919C03882309F45AC02091F5
:104090006803A091690360919A0370919B038091DA
:1040A0009D0390919E0331E06F3F09F030E0B32F04
:1040B000C6E02A1709F445C0009721F07F3F21F49C
:1040C0004B2F03C041E001C040E030E040FD35C06F
:1040D000C29FF001C39FF00D1124E659FC4F4181AE
:1040E00074132BC04081641328C04281411125C044
:1040F000438154814817590710F441505109481B16
:10410000590B483C5105C8F480919F038F70806122
:1041100080939F0386E0829FF001839FF00D11241E
:10412000E159FC4F80818F70806180838AE993E040
:104130000E948A1FCF910C940C202F5F3F4F277055
:10414000B8CFCF910895CF92DF92EF92FF920F9365
:104150001F93CF93DF93CDB7DEB762970FB6F89476
:10416000DEBF0FBECDBF8C0185E0F801DE011D96DC
:1041700001900D928A95E1F7D8014C9111965C91CE
:10418000119712966C9112971396ED90FC901497DC
:1041900070919A03E0919B0320919D0330919E03BF
:1041A0002115310531F0EF3F31F481E07F3F19F403
:1041B00003C081E001C080E0B82FB170CB2E80FD3C
:1041C0006CC1D0909C03DD2009F4F5C0F0919F03F1
:1041D000E216F30638F0C701821B930B883C910569
:1041E00048F09BC0209530952E0D3F1D283C310591
:1041F00008F093C08F2F807F09F052C0E51314C0E0
:10420000741312C0D62E61110FC0FF70F061F093CD
:104210009F030E942D208AE993E00E948A1F8091CB
:104220009F03F80185836CC1EF2831F05F3F31F4C3
:1042300081E04F3F19F403C081E001C080E080FDC0
:1042400003C081E0862701C080E0F82FF170FF2EC7
:1042500080FF1CC0809168032091690336E08217BB
:1042600009F428C190E0389FF001399FF00D112426
:10427000E659FC4F7181571306C07081471303C084
:104280007281671303C001968770E9CFD62E66232B
:1042900009F436C180919F03816080939F0353C0CE
:1042A000E51308C0741306C0611104C0D801159647
:1042B000FC93AEC04D875E878D859E856A8B0E947C
:1042C000CA1F6A89882329F1D62E662311F120910D
:1042D0009F03822F82958F7090E002970CF460C04C
:1042E00080919A0390919B0398878F831986FB8610
:1042F000EA862C87CE01079651C0E51731F14D872C
:104300005E878D859E856A8B0E94CA1F6A8981118E
:104310002EC0C8010E948A1FA4C08F2F807F69F71A
:104320007E2DF98AE88A89890E94ED1F8AE993E047
:104330000E948A1FEAE9F3E086E0DF011D928A9578
:10434000E9F70E942D20D12CDBC07413D8CF611166
:10435000D6CFD8011596FC93C8010E948A1FEAE9BE
:10436000F3E086E0DF011D928A95E9F7C9C0D62EF9
:10437000662379F220919F03822F82958F7090E0BF
:10438000029774F080919A0390919B039A8389839A
:104390001B82FD82EC822E83CE0101960E948A1F31
:1043A00086E0F801AAE9B3E001900D928A95E1F761
:1043B0000E943B206FC0E216F30628F0C701821B63
:1043C000930B9C0104C0209530952E0D3F1D283C79
:1043D000310508F052C0D62E662309F49ACFE513B2
:1043E0002CC074132AC080919F0380FD1DC0982F9C
:1043F00092959F70C9F0D80115968C9315979F30B0
:1044000039F09F5F9295907F8F70892B15968C93D2
:10441000C8010E948A1F86E0F801AAE9B3E0019072
:104420000D928A95E1F736C086E0F801AAE9B3E07B
:1044300001900D928A95E1F763C04D875E878D8567
:104440009E850E94CA1F882379F086E0F801AAE9B8
:10445000B3E001900D928A95E1F70E943B200E9403
:104460002D20DD24D3944CC080919F0381608093E4
:104470009F03C8010E948A1F43C07E2DF98AE88AE3
:1044800089890E94ED1FEAE9F3E086E0DF011D92D1
:104490008A95E9F70E942D2033C0662309F439CFAD
:1044A0004D875E878D859E850E94CA1F882309F4EB
:1044B00030CFCBCF4D875E878D859E850E94F224BD
:1044C000292F22952F7030E0223031052CF49F7077
:1044D00041F0811106C00CC0243031052CF49F70CE
:1044E00049F4805E883020F0C8010E948A1FCF2CDA
:1044F000DC2C06C0D80115969C91907F91F7F8CFDF
:104500008D2D62960FB6F894DEBF0FBECDBFDF9142
:10451000CF911F910F91FF90EF90DF90CF90089572
:104520001F93CF93DF93CDB7DEB72C970FB6F894D8
:10453000DEBF0FBECDBF4F83588769877A878B87D1
:104540009C87CE0107960E94A3208823C1F02F816B
:1045500038858A859B85892B31F03F3F11F080E0BB
:1045600003C02F3FE1F781E0811147C04F8158859B
:1045700069857A858B859C850E94FC1F3EC086E0FC
:10458000FE013796DE01119601900D928A95E1F7B2
:10459000FF81E8854A855B854115510531F0EF3F84
:1045A00031F481E0FF3F19F403C081E001C080E0F5
:1045B00080FD23C02091690330E0C9010196877016
:1045C00099276091680370E086179707F1F1F983E6
:1045D000EA835D834C8396E0929FD001939FB00D58
:1045E0001124A659BC4FFE01319601900D929A9567
:1045F000E1F7809369030E940C2016E08091680324
:1046000090916903891779F1189FC0011124865987
:104610009C4F0E94A320882331F1E09168031E9FE4
:10462000F0011124E659FC4F408151816281738170
:10463000848195810E94FC1F8091680390E001961F
:104640008770992780936803D9CF0E94C61F109264
:10465000690310926803EAE9F3E086E0DF011D9246
:104660008A95E9F7CACF2C960FB6F894DEBF0FBE35
:10467000CDBFDF91CF911F910895EF92FF920F93DD
:104680001F93CF93DF939C01009709F471C0F12C25
:10469000EE24E394E9012196F9018491843740F4F2
:1046A000843008F056C0813081F0823021F160C042
:1046B000853709F449C0C0F19CE7980F903708F09E
:1046C00057C08F770E94D71C46C089010E5F1F4FCD
:1046D000FE01849190E2980F983050F48770FE2D7F
:1046E00001C0FF0F8A95EAF78F2F0E94D92515C0C8
:1046F0000E940F1C14C089010E5F1F4FFE018491A0
:1047000090E2980F983068F48770FE2D01C0FF0F7B
:104710008A95EAF78F2F0E94DF250E940226E80182
:104720001AC00E94D71CFBCF2E5F3F4FFE01C491E1
:10473000CC2341F08FE99FE00197F1F700C0000022
:10474000C150F6CFE90107C0FE01F490E9012296BD
:1047500002C00E940F1C8F2D882341F0EFE9FFE07B
:104760003197F1F700C000008150F6CF9E0192CF43
:10477000DF91CF911F910F91FF90EF9008950895D1
:104780000E94BF236093A4037093A5038093A603A4
:104790009093A7030C94B61F08950C94C0230F9315
:1047A0001F930091A4031091A5032091A6033091BB
:1047B000A703602B712B822B932B1F910F910C94CD
:1047C000C0230F931F930091A4031091A503209180
:1047D000A6033091A70360237123822393231F91A3
:1047E0000F910C94C0230F931F930091A403109179
:1047F000A5032091A6033091A70360277127822784
:1048000093271F910F910C94C02308950E940524B3
:104810006093A0037093A1038093A2039093A303DA
:104820000C94B61F60E070E0CB010C94062441E0CC
:1048300050E060E070E004C0440F551F661F771F12
:104840008A95D2F7CB01BA010C94062441E050E0DE
:1048500060E070E004C0440F551F661F771F8A9503
:10486000D2F78091A0039091A103A091A203B091EF
:10487000A303482B592B6A2B7B2BCB01BA010C9439
:10488000062441E050E060E070E004C0440F551F92
:10489000661F771F8A95D2F7409550956095709561
:1048A0008091A0039091A103A091A203B091A303D2
:1048B000482359236A237B23CB01BA010C94062495
:1048C00041E050E060E070E004C0440F551F661FF7
:1048D000771F8A95D2F78091A0039091A103A091B0
:1048E000A203B091A303482759276A277B27CB014E
:1048F000BA010C9406240F931F930091A00310910A
:10490000A1032091A2033091A303602B712B822B72
:10491000932B1F910F910C9406240F931F930091DA
:10492000A0031091A1032091A2033091A30360235F
:104930007123822393231F910F910C9406240F93CC
:104940001F930091A0031091A1032091A203309125
:10495000A30360277127822793271F910F910C943F
:1049600006240895CF92DF92EF92FF920F931F9348
:10497000CF93DF93EC01C090A403D090A503E09007
:10498000A603F090A7038091A0039091A103A091AA
:10499000A203B091A303C82AD92AEA2AFB2A0FE16D
:1049A00010E0B701A601002E04C0769567955795D3
:1049B00047950A94D2F740FD05C00150110988F7C8
:1049C00080E007C0BE01802F0E948E160197A9F3D8
:1049D000802FDF91CF911F910F91FF90EF90DF908B
:1049E000CF900895CF93DF93EC010E94B224BE01D3
:1049F0000E948E16DF91CF910895CB010E94F22480
:104A000008958091A8038595859585950895809151
:104A1000A8038770089598E0899F90011124622B64
:104A20006093A8030C9426244091A80380958423C6
:104A30008093A803982F977069F450E0282F3327AC
:104A400027FD30954217530729F085958595859563
:104A50000C94412408959091A803977081E009F483
:104A600080E0089590913E019923D9F09091F70349
:104A700097FF17C0982F9695969596959F3188F534
:104A8000E0913201F0913301E90FF11D877021E0CF
:104A900030E001C0220F8A95EAF78181822B818361
:104AA0000895409132015091330120E030E09FEFB2
:104AB000FA01E20FF31F6281681799F09F3F19F422
:104AC000611101C0922F2F5F3F4F2E31310581F7C9
:104AD0009F3F39F0FA01E90FF11D97FDFA958283A6
:104AE0000895089590913E019923E1F09091F70384
:104AF00097FF18C0982F9695969596959F3120F51B
:104B0000E0913201F0913301E90FF11D877021E04E
:104B100030E001C0220F8A95EAF720958181282391
:104B200021830895409132015091330120E030E01B
:104B3000FA01E20FF31F9281981301C012822F5FD6
:104B40003F4F2E313105A1F7089581E090E0E091CB
:104B50003201F0913301E80FF91F10820196803283
:104B60009105A9F708958091CC0308959091CC0305
:104B7000982B9093CC03089580959091CC03982323
:104B80009093CC0308958093CC0308951092CC03A6
:104B900008959091CB03982B9093CB030895809523
:104BA0009091CB0398239093CB0308951092CB035D
:104BB00008959091CA03982B9093CA030895809505
:104BC0009091CA0398239093CA0308951092CA0340
:104BD00008958093A90308951092A9030895409120
:104BE00032015091330120E030E080E0FA01E20F21
:104BF000F31F918191118F5F2F5F3F4F2F3131054F
:104C0000A9F70895E0913201F09133018091CC032E
:104C10008083E0913201F091330180819091CB0348
:104C2000892B8083E0913201F09133018081909152
:104C3000CA03892B80839091A903992361F0E091A5
:104C40003201F09133018081892B80830E94EF250E
:104C500081111092A90380913201909133010C943B
:104C6000AD1ACF92DF92EF92FF920F931F936C01D8
:104C7000EE24FF24C114D104E104F10421F46B01FA
:104C80007C0180E001C080E133272F2D1E2D0D2DEA
:104C9000011511052105310519F0885F68017901B9
:104CA00097018601A4E03695279517950795AA9553
:104CB000D1F7011511052105310519F08C5F680147
:104CC000790197018601F2E03695279517950795AA
:104CD000FA95D1F7011511052105310519F08E5FFF
:104CE00068017901B701A6017695679557954795B3
:104CF000452B462B472B09F08F5F1F910F91FF909B
:104D0000EF90DF90CF9008956DEE7EEF80E090E021
:104D10000E94E62E60E082E090E00E94D42E60E0E7
:104D200083E090E00E94D42E60E084E090E00E9456
:104D3000D42E60E085E090E00C94D42E80E090E0EA
:104D40000E94CE2E21E08D3E9E4F09F020E0822F62
:104D5000089582E090E00C94C62E83E090E00C94DD
:104D6000C62E84E090E00C94C62E682F84E090E07C
:104D70000C94D42E8091FD03843021F11092CE0347
:104D800020E488E190E00FB6F894A8958093600045
:104D90000FBE2093600080E00E94711683B7817F70
:104DA000846083BF83B7816083BF7894889583B71D
:104DB0008E7F83BF88E10FB6F894809360001092D5
:104DC00060000FBE08950895CF930E9464100E9462
:104DD00077100E94E326C0E08C2F0E94751181118C
:104DE00005C0CF5FCE30C1F780E001C081E0CF9138
:104DF00008950E94C61F0E94A11A0C9471161F925A
:104E00000F920FB60F9211248F939F93AF93BF937E
:104E10008091CE03811113C08091F3039091F4032C
:104E2000A091F503B091F6034196A11DB11D8093A9
:104E3000F3039093F403A093F503B093F603BF91AB
:104E4000AF919F918F910F900FBE0F901F9018956B
:104E500082E084BD93E095BD9AEF97BD80936E008C
:104E600008952FB7F8948091F3039091F403A091E3
:104E7000F503B091F6032FBF0895CF92DF92EF9222
:104E8000FF920F931F932FB7F8944091F303509123
:104E9000F4036091F5037091F6032FBF6A017B0163
:104EA000EE24FF248C0120E030E0C016D106E2069B
:104EB000F30610F441505109481B590BCA011F91C8
:104EC0000F91FF90EF90DF90CF90089578941F920C
:104ED0000F920FB60F9211248F939F93AF93BF93AE
:104EE0008091F3039091F403A091F503B091F60340
:104EF0000196A11DB11D8093F3039093F403A09339
:104F0000F503B093F603BF91AF919F918F910F90EE
:104F10000FBE0F901F9018950E94B72BF8942FEF9B
:104F200087EA91E6215080409040E1F700C0000000
:104F300087E090EBDC018093060490930704A09334
:104F40000804B09309042CE088E190E00FB6F894CF
:104F5000A895809360000FBE20936000FFCF0E9451
:104F60009E26811102C00E9484260E94A926809359
:104F7000CD030E94B12690E09093F8038093F7034D
:104F80000E94AD26682F70E080E090E00C94CD2365
:104F90008091EF03089508950F931F93CF93DF93AC
:104FA00000D01F92CDB7DEB78C010E94082A823054
:104FB00011F0853021F583E089831B830A8382E029
:104FC0008093E9008FEF9091E800815095FD06C035
:104FD00095ED9A95F1F700008111F5CF8091E800E9
:104FE00085FF0DC040E050E063E070E0CE01019627
:104FF0000E94252A8091E8008E778093E8000F9028
:105000000F900F90DF91CF911F910F910895CF9343
:10501000DF9300D01F92CDB7DEB72091FD0324307F
:1050200029F522E02983805891099B838A83209364
:10503000E9008FEF9091E800815095FD06C095ED55
:105040009A95F1F700008111F5CF8091E80085FF76
:105050000DC040E050E063E070E0CE0101960E9498
:10506000252A8091E8008E778093E8000F900F90BA
:105070000F90DF91CF910895CF93DF93EC010E94C1
:10508000082A823019F0853009F047C080913E012E
:105090008823E1F08091F70387FF18C083E08093B5
:1050A000E9008FEF9091E800815095FD06C095E1F1
:1050B0009A95F1F700008111F5CF8091E80085FF06
:1050C0002CC040E050E060E270E017C081E08093C7
:1050D000E9008FEF9091E800815095FD06C095EDB5
:1050E0009A95F1F700008111F5CF8091E80085FFD6
:1050F00014C040E050E068E070E0CE010E94252A34
:105100008091E8008E778093E80080E2FE01AFECAA
:10511000B3E001900D928A95E1F7DF91CF91089568
:105120008091FC03811109C00E94B72B0E94142CAE
:105130008091E20084608093E20008951092FC0365
:105140000895089508950C94F92642E061EC81E0F9
:105150000E94312B42E061EC82E00E94312B42E25E
:1051600061EC83E00C94312B8091FF03833009F4D0
:1051700055C030F4813071F0823009F48EC008954A
:105180008A3009F47AC08B3009F460C0893009F0A4
:105190009CC020C08091FE03813A09F096C08091A6
:1051A000E800877F8093E8008091020490910304D7
:1051B000892B21F060E080E090E003C060E28FEC9A
:1051C00093E070E00E946E2A8091E8008B778093D4
:1051D000E80008958091FE03813209F076C0809145
:1051E000020490910304009719F0029709F06DC032
:1051F0008091E800877F8093E8008091E80082FD3D
:1052000005C08091FD038111F8CF5FC08091F1004E
:105210008093EF038091E8008B7753C08091FE0369
:10522000813A09F052C08091020490910304892BC5
:1052300009F04BC08091E800877F8093E80080915F
:10524000E80080FFFCCF80913E0136C08091FE03D4
:105250008132D9F58091020490910304892BA9F53C
:105260008091E800877F8093E8000E94662B809100
:10527000000480933E010C94C61F8091FE0381328E
:1052800021F58091E800877F8093E8000E94662BDB
:10529000809101048093F00308958091FE03813A88
:1052A000A1F48091E800877F8093E8008091E80076
:1052B00080FFFCCF8091F0038093F1008091E800A3
:1052C0008E778093E8000C94662B089584B7877FCF
:1052D00084BF88E10FB6F89480936000109260005C
:1052E0000FBE80E880936100109261000E94E51A71
:1052F0000E94B72B0E94142C8091E200846080935E
:10530000E20078940E948F2E0E94E71A84E391E0D5
:105310000E949C1A8091FD03853069F40E94BA2690
:105320008091FB038823B1F30E94E426882391F344
:105330000E940F2AEFCF0E94F31AECCF292F3327B8
:1053400023303105A9F06CF42130310509F442C055
:105350002230310509F043C084E590E026E03EE1CB
:1053600042C021323105C9F02232310519F137C06E
:1053700099278130910541F08230910541F0892BC8
:1053800071F5E2E0FEE105C0EAEEFDE102C0E2ED0A
:10539000FDE1849190E09F0126C0633000F5E62F87
:1053A000F0E0EE0FFF1FE05DFD4F2081318189E0CD
:1053B00090E019C0633098F4E62FF0E0DF01AA0F07
:1053C000BB1FA65DBD4F2D913C91E95DFD4F8081D6
:1053D00090E009C082E190E02AE53EE104C080E06F
:1053E00090E020E030E0FA013183208308950895B1
:1053F000CF93C82F0E94F729C093F103CF9108954E
:105400008091FD03843011F482E0089581E00895D5
:105410008091F103811102C00C94002A089580E16B
:1054200089BD82E189BD09B400FEFDCF8091D8001D
:105430008F7D8093D8008091E00082608093E000AF
:105440008091E00081FDFCCF0895CF92DF92EF9232
:10545000FF920F931F93CF93DF937C018B01EA019F
:105460000E94872B811131C0209731F0888199816A
:10547000081B190BE80EF91EC12CD12C01151105C2
:1054800019F18091E80085FD14C08091E8008E77C5
:105490008093E800209741F0888199818C0D9D1DB3
:1054A0009983888385E011C00E94872B882331F37C
:1054B0000CC0F70181917F018093F1000150110927
:1054C000FFEFCF1ADF0ADACF80E0DF91CF911F9193
:1054D0000F91FF90EF90DF90CF90089520910404FA
:1054E000309105042617370748F06115710539F426
:1054F0002091E8002E772093E80001C0B901FC015B
:1055000020E061157105B9F18091FD03882309F44C
:1055100040C0853009F43FC08091E80083FD3DC064
:105520008091E80082FF06C08091E80082FF26C0DB
:1055300080E008958091E80080FFE3CF2091F300A0
:105540008091F20090E0922B6115710551F0883046
:10555000910538F421912093F10061507109019671
:10556000F3CF21E0089709F020E08091E8008E77E2
:105570008093E800C6CF2111C7CFD6CF8091FD031D
:10558000882339F0853039F08091E80083FFCCCF53
:1055900004C082E0089583E0089581E00895209199
:1055A0000404309105042617370748F0611571058A
:1055B00039F42091E8002E772093E80001C0B9016A
:1055C000FC0120E061157105C1F18091FD03882384
:1055D00009F441C0853009F440C08091E80083FDA2
:1055E0003EC08091E80082FF06C08091E80082FF03
:1055F00027C080E008958091E80080FFE3CF2091EC
:10560000F3008091F20090E0922B6115710559F042
:105610008830910540F424912093F1003196615037
:1056200071090196F2CF21E0089709F020E08091FE
:10563000E8008E778093E800C5CF2111C6CFD5CF83
:105640008091FD03882339F0853039F08091E8009E
:1056500083FFCBCF04C082E0089583E0089581E00A
:105660000895982F973058F59093E900981739F0DE
:105670007091EC002091ED005091F00003C0242FB8
:10568000762F50E021FF19C03091EB003E7F309320
:10569000EB003091ED003D7F3093ED003091EB0059
:1056A00031603093EB007093EC002093ED00509349
:1056B000F0002091EE0027FF07C09F5FD3CF8F70CF
:1056C0008093E90081E0089580E008958091FE03D1
:1056D00087FD05C08091E80080FF0EC012C0809158
:1056E000E80082FD05C08091FD038111F8CF089587
:1056F0008091E8008B7708C08091FD038111EACF8B
:1057000008958091E8008E778093E8000895809155
:10571000E4009091E50045E62091EC0020FF21C0D7
:105720002091E80020FD21C02091FD03222389F073
:10573000253089F02091EB0025FD0FC02091E40079
:105740003091E5002817390739F3415041F0C9017C
:10575000E3CF82E0089583E0089581E0089584E036
:1057600008952091E80022FFDFCF80E008950E9495
:10577000252C0E942D2CE0EEF0E08081816080835A
:10578000E8EDF0E080818F77808319BCA7EDB0E071
:105790008C918E7F8C9380818F7E80831092FC030E
:1057A00008950F931F93CF93DF930E94252C0E949F
:1057B0002D2CC8EDD0E088818F7788838881806820
:1057C000888388818F7D888319BC1092FD03109295
:1057D000F9031092FB031092FA0300EE10E0F801B7
:1057E00080818B7F808388818160888342E060E054
:1057F00080E00E94312BE1EEF0E080818E7F80839B
:10580000E2EEF0E080818160808380818860808327
:10581000F80180818E7F8083888180618883DF9119
:10582000CF911F910F910895E8EDF0E080818F7E78
:105830008083E7EDF0E080818160808384E082BF37
:1058400081E08093FC030C94D12BE8EDF0E08081A3
:105850008E7F80831092E20008951092DA001092F9
:10586000E10008951F920F920FB60F9211242F930B
:105870003F934F935F936F937F938F939F93AF93D8
:10588000BF93EF93FF938091E10082FF0BC0809163
:10589000E20082FF07C08091E1008B7F8093E100EE
:1058A0000E948E2E8091DA0080FF1FC08091D80068
:1058B00080FF1BC08091DA008E7F8093DA00809198
:1058C000D90080FF0DC080E189BD82E189BD09B4A6
:1058D00000FEFDCF81E08093FD030E94902805C06B
:1058E00019BC1092FD030E949E288091E10080FF68
:1058F00019C08091E20080FF15C08091E2008E7F88
:105900008093E2008091E20080618093E2008091C8
:10591000D80080628093D80019BC85E08093FD0395
:105920000E94A2288091E10084FF30C08091E200B3
:1059300084FF2CC080E189BD82E189BD09B400FEED
:10594000FDCF8091D8008F7D8093D8008091E100B9
:105950008F7E8093E1008091E2008F7E8093E20051
:105960008091E20081608093E2008091F9038823B6
:1059700011F084E007C08091E30087FF02C083E05C
:1059800001C081E08093FD030E94A3288091E10083
:1059900083FF29C08091E20083FF25C08091E10050
:1059A000877F8093E10082E08093FD031092F903EA
:1059B0008091E1008E7F8093E1008091E2008E7FF4
:1059C0008093E2008091E20080618093E20042E0F7
:1059D00060E080E00E94312B8091F000886080932D
:1059E000F0000E94A128FF91EF91BF91AF919F918C
:1059F0008F917F916F915F914F913F912F910F9078
:105A00000FBE0F901F9018951F920F920FB60F9216
:105A100011242F933F934F935F936F937F938F93B3
:105A20009F93AF93BF93CF93EF93FF93C091E90000
:105A3000CF708091EC001092E9008091F000877F98
:105A40008093F00078940E94402D1092E90080919C
:105A5000F00088608093F000C093E900FF91EF911F
:105A6000CF91BF91AF919F918F917F916F915F91F6
:105A70004F913F912F910F900FBE0F901F9018954F
:105A80001F93CF93DF93CDB7DEB7AA970FB6F894E5
:105A9000DEBF0FBECDBFEEEFF3E08091F10081934A
:105AA00024E0E630F207C9F70E94B4288091E800AC
:105AB00083FF1CC12091FE033091FF03832F90E0F0
:105AC0008A30910508F012C1FC01E556FF4F0C9495
:105AD000C02E203881F0223809F008C180910204DC
