:100000000C94BD120C9401130C9401130C94011365
:100010000C9401130C9401130C9401130C94011310
:100020000C9401130C9401130C9446310C94183267
:100030000C94132C0C9401130C9401130C940113C5
:100040000C9401130C9401130C9401130C940113E0
:100050000C9401130C947A2C0C9401130C9401133E
:100060000C9401130C9401130C9401130C940113C0
:100070000C9401130C9401130C9401130C940113B0
:100080000C9401130C9401130C9401130C940113A0
:100090000C9401130C9401130C9401130C94011390
:1000A0000C9401130C9401130C940113E716D7164A
:1000B000D116DE16DB16E416E116591A5F1A631A1A
:1000C000661A6A1A6E1A721A761A7B1A7F1A831ABD
:1000D000871A8A1A8E1A921A961A9A1A9F1A8822C0
:1000E0008822C222C222F9227024332470241B23C6
:1000F0007024C223C2232C24702470246C24CF23A8
:10010000CF23CF23CF23CF23CF23CF23CF23CF235F
:10011000CF23CF23CF23CF23CF23CF23CF23E1233D
:10012000EF23F623FD230724EC24EC24FF24FF24F3
:10013000F524FF24FF24FF24EC24EC24FB24FF24DB
:10014000FF24FB247D329F328A339F328A33E1328F
:1001500004338A3359336C33240221022B00D95CD7
:10016000E00000002F00140004001D002402000025
:100170002F021A0015001B00E2002A0030020900BD
:10018000160006005200280026021300170019006E
:10019000510046002E000A00070005000000035130
:1001A000E3004900000029000000035301532A0026
:1001B000000028000000035325020D000B000E0074
:1001C0000000035127020F00110010005000000032
:1001D0002E021800080036004F002C0030001C00D2
:1001E0000C00370031004C001E02330012003400B6
:1001F0001F020000200238002D00D95CE40000003E
:100200003A00E200E000CC5CCC5C00003B002B003C
:10021000CC5CCC5CCC5CCC5C3C00CC5CCC5CCC5C8A
:10022000CC5CCC5C3D00CC5CCC5CCC5C0100CC5CA0
:100230003E00CC5CCC5CCC5C0100CC5C3F00CC5C78
:10024000CC5CCC5C0000CC5CE300CC5C0000CC5C03
:100250000000CC5C0100CC5C0000CC5C0000CC5CFD
:100260004000CC5CCC5CCC5C0000CC5C4100CC5C45
:10027000CC5CCC5C0100CC5C4200CC5CCC5CCC5C4B
:100280000100CC5C43002A00CC5CCC5CCC5CCC5C38
:1002900044004C00CC5CCC5CCC5CCC5C4500E60003
:1002A000E400CC5CCC5C00000100350001000100E2
:1002B00001000000DA5C01000100010022000100E1
:1002C000DA5C01000100010001000100DA5C0100BC
:1002D0000100010001000100DA5C010001000100E1
:1002E00001000100DA5C01000100010000000100D2
:1002F00022000100000001000000010001000100D7
:100300000000010000000100DA5C010001000100B2
:1003100000000100DA5C01000100010001000100A1
:10032000DA5C01000100010001000100DA5C01005B
:100330000100010001000100DA5C01000100010080
:10034000DA5C0100DA5C010001000100010000003C
:100350003A0001000100E100010000003B00010043
:1003600001000100010001003C000100010001004A
:10037000010001003D000100010001004B000100EF
:100380003E000100010001004E0001003F0001009D
:100390000100010000000100005C010000000100FC
:1003A0000000010000000100000001000000010049
:1003B00040000100010001000000010041000100B7
:1003C000010001004A00010042000100010001009B
:1003D0004D00010043000100010001000100010087
:1003E000440001000100010001000100450001007E
:1003F0000100E50001000000000000000000000016
:1004000000000000000000000000000000000000EC
:100410000000000000000000310000803200008079
:1004200032000080520000800000000023000080A5
:1004300030000080460000804700008050000080AF
:100440000000000022000080440000804500008081
:10045000000000001100008000000000210000806A
:100460004200008043000080000000005100008036
:10047000000000002000008040000080410000805B
:1004800000000000100000800000000091000080CB
:10049000000000001000008000000000100000803C
:1004A0000000000012000080000000001200008028
:1004B00000000000100000800000000080000080AC
:1004C00060000080610000800000000010000080DB
:1004D0000000000081000080620000806300008056
:1004E0000000000052000080000000008200008038
:1004F00064000080650000800000000011000080A2
:100500000000000000000000830000806600008002
:100510006700008054000080000000000000000020
:100520008400008070000080710000805300008013
:1005300000000000000000000000000072000080C9
:1005400072000080000000000000000000002B008E
:100550000000000028000000000000000000000073
:100560000000000000000000340000000000000057
:1005700037000000000000003400500000000000C0
:100580003002000000000000340200000000000003
:100590003002500000000000340250000000000053
:1005A00027020000000000003702000000000000E9
:1005B0002702500000000000370250000000000039
:1005C00030000000000000000000000000000000FB
:1005D00030005000000000002C005000000000001F
:1005E0003700000000000000340037000000000069
:1005F000330200000000000034003700DD5C000022
:100600003002370000000000340237000000000014
:1006100030023700DD5C000034023700DD5C000092
:10062000270237000000000025023800000000000B
:1006300027023700DD5C000025023800DD5C000089
:100640003000370000000000000000000000000043
:1006500030003700DD5C00000000000000000000FA
:1006600036000000000000003400360000000000EA
:100670002E0000000000000034003600DD5C0000A9
:100680003002360000000000340236000000000096
:1006900030023600DD5C000034023600DD5C000014
:1006A000270236000000000037023600000000007C
:1006B00027023600DD5C000037023600DD5C0000FA
:1006C00030003600000000000000000000000000C4
:1006D00030003600DD5C000000000000000000007B
:1006E0003300000000000000340033000000000070
:1006F000330233020000000034003300DD5C0000F0
:10070000300233000000000034023300000000001B
:1007100030023300DD5C000034023300DD5C000099
:10072000270233000000000000000000000000006D
:1007300027023300DD5C0000000000000000000024
:100740003000330000000000000000000000000046
:1007500030003300DD5C00000000000000000000FD
:100760002800000000000000340028000000000005
:10077000370028000000000000000000000000001A
:1007800030022800000000003402280000000000B1
:1007900028003002DE5C00000000000000000000C5
:1007A0002702280000000000370228000000000097
:1007B00028002702DE5C00000000000000000000AE
:1007C00030002800000000000000000000000000D1
:1007D00028003000DE5C0000000000000000000087
:1007E0003700280000000000340037002800000017
:1007F000330228000000000000000000000000009C
:1008000030023700280000003402370028000000C2
:1008100000000000000000000000000000000000D8
:1008200027023700280000002502380028000000B9
:1008300000000000000000000000000000000000B8
:100840003000370028000000000000000000000019
:100850000000000000000000000000000000000098
:100860003600280000000000340036002800000098
:100870002E00280000000000000000000000000022
:100880003002360028000000340236002800000044
:100890000000000000000000000000000000000058
:1008A000270236002800000037023600280000002A
:1008B0004D002800000000000000000000000000C3
:1008C000300036002800000000000000000000009A
:1008D0000000000000000000000000000000000018
:1008E000330028000000000034003300280000001E
:1008F0003302330228000000000000000000000066
:1009000030023300280000003402330028000000C9
:1009100000000000000000000000000000000000D7
:100920002702330028000000000000000000000043
:1009300000000000000000000000000000000000B7
:10094000300033002800000000000000000000001C
:100950000000000000000000000000000000000097
:100960002700000000000000000000000000000060
:100970001E00000000000000000000000000000059
:100980000000000000000000000000000000000067
:100990000000000000000000000000000000000057
:1009A0001F00000000000000000000000000000028
:1009B0002000000000000000000000000000000017
:1009C0000000000000000000000000000000000027
:1009D0000000000000000000000000000000000017
:1009E0000000000000000000000000000000000007
:1009F00000000000000000000000000000000000F7
:100A000000000000000000000000000000000000E6
:100A100000000000000000000000000000000000D6
:100A200000000000000000000000000000000000C6
:100A300000000000000000000000000000000000B6
:100A400000000000000000000000000000000000A6
:100A50000000000000000000000000000000000096
:100A60002100000000000000000000000000000065
:100A70002200000000000000000000000000000054
:100A80000000000000000000000000000000000066
:100A90000000000000000000000000000000000056
:100AA0002300000000000000000000000000000023
:100AB0002400000000000000000000000000000012
:100AC0000000000000000000000000000000000026
:100AD0000000000000000000000000000000000016
:100AE0000000000000000000000000000000000006
:100AF00000000000000000000000000000000000F6
:100B000000000000000000000000000000000000E5
:100B100000000000000000000000000000000000D5
:100B200000000000000000000000000000000000C5
:100B300000000000000000000000000000000000B5
:100B400000000000000000000000000000000000A5
:100B50000000000000000000000000000000000095
:100B60002500000000000000000000000000000060
:100B7000260000000000000000000000000000004F
:100B80000000000000000000000000000000000065
:100B90000000000000000000000000000000000055
:100BA0001E00270000000000000000000000000000
:100BB0001E001E00000000000000000000000000F9
:100BC0000000000000000000000000000000000025
:100BD0000000000000000000000000000000000015
:100BE0000000000000000000000000000000000005
:100BF00000000000000000000000000000000000F5
:100C000000000000000000000000000000000000E4
:100C100000000000000000000000000000000000D4
:100C200000000000000000000000000000000000C4
:100C300000000000000000000000000000000000B4
:100C400000000000000000000000000000000000A4
:100C50000000000000000000000000000000000094
:100C60001E001F0000000000000000000000000047
:100C70001E00200000000000000000000000000036
:100C80000000000000000000000000000000000064
:100C90000000000000000000000000000000000054
:100CA0001E00210000000000000000000000000005
:100CB0001E002200000000000000000000000000F4
:100CC0000000000000000000000000000000000024
:100CD0000000000000000000000000000000000014
:100CE0000000000000000000000000000000000004
:100CF00000000000000000000000000000000000F4
:100D000000000000000000000000000000000000E3
:100D100000000000000000000000000000000000D3
:100D200000000000000000000000000000000000C3
:100D300000000000000000000000000000000000B3
:100D400000000000000000000000000000000000A3
:100D50000000000000000000000000000000000093
:100D6000000000000000000034000000000000004F
:100D70002C000000000000002B000000000000001C
:100D80002F020000000000003402000000000000FC
:100D900037020000000000003702370200000000A8
:100DA00026020000000000003602000000000000E3
:100DB0002D0037020000000036023602000000005D
:100DC0002F000000000000000000000000000000F4
:100DD00038020000000000002002000000000000B7
:100DE0002E0200000000000035000000000000009E
:100DF0003502000000000000370000000000000085
:100E00002E022E0200000000000000000000000082
:100E10002402000000000000240224020000000060
:100E20003100000000000000000000000000000091
:100E300031003100000000001F020000000000002F
:100E400000000000000000000000000000000000A2
:100E50000000000000000000000000000000000092
:100E60002D00000000000000000000000000000055
:100E70002E00000000000000210200000000000021
:100E800038000000000000003800380000000000BA
:100E90002614000000000000380038003800000070
:100EA0002D002D00000000000000000000000000E8
:100EB0002D020000000000002102260200000000B8
:100EC00038002502000000000000000000000000C3
:100ED00038002502250200003800380038003602AC
:100EE00025020000000000000000000000000000DB
:100EF0001E02000000000000370025020000000074
:100F00002502380000000000000000000000000082
:100F1000000000000000000021022F02000000007D
:100F20002502260200000000000000000000000072
:100F300031020000000000002502370025020000F9
:100F4000220200000000000000000000000000007D
:100F5000310231020000000000000000000000002B
:100F6000DC5C000000000000000000000000000049
:100F70004D024C00000000000000000000000000D6
:100F80000000000000000000000000000000000061
:100F90000000000000000000000000000000000051
:100FA0000000000000000000000000000000000041
:100FB0000000000000000000000000000000000031
:100FC0000000000000000000000000000000000021
:100FD0000000000000000000000000000000000011
:100FE0000000000000000000000000000000000001
:100FF00000000000000000000000000000000000F1
:1010000000000000000000000000000000000000E0
:1010100000000000000000000000000000000000D0
:1010200000000000000000000000000000000000C0
:1010300000000000000000000000000000000000B0
:1010400000000000000000000000000000000000A0
:101050000000000000000000000000000000000090
:10106000DC5CDC5C00000000000000000000000010
:101070000000000000000000000000000000000070
:101080000000000000000000000000000000000060
:101090000000000000000000000000000000000050
:1010A0004A024C00000000000000000000000000A8
:1010B0004A004D024C00000000000000000000004B
:1010C0000000000000000000000000000000000020
:1010D0000000000000000000000000000000000010
:1010E00025022502000000000000000000000000B2
:1010F00000000000000000000000000000000000F0
:1011000000000000000000000000000000000000DF
:1011100000000000000000000000000000000000CF
:1011200000000000000000000000000000000000BF
:1011300000000000000000000000000000000000AF
:10114000000000000000000000000000000000009F
:10115000000000000000000000000000000000008F
:101160002700000000000000000000000000000058
:101170001E00000000000000290000000000000028
:101180002F02270000000000000000000000000007
:10119000000000000000000000000000000000004F
:1011A0001F00000000000000000000000000000020
:1011B000200000000000000000000000000000000F
:1011C0002F002700000000000000000000000000C9
:1011D000000000000000000000000000000000000F
:1011E00000000000000000000000000000000000FF
:1011F00000000000000000000000000000000000EF
:1012000000000000000000000000000000000000DE
:1012100000000000000000000000000000000000CE
:10122000260227000000000000000000000000006F
:1012300000000000000000000000000000000000AE
:10124000000000000000000000000000000000009E
:10125000000000000000000000000000000000008E
:10126000210000000000000000000000000000005D
:10127000220000000000000000000000000000004C
:10128000000000000000000000000000000000005E
:10129000000000000000000000000000000000004E
:1012A000230000000000000000000000000000001B
:1012B000240000000000000000000000000000000A
:1012C000000000000000000000000000000000001E
:1012D000000000000000000000000000000000000E
:1012E00000000000000000000000000000000000FE
:1012F00000000000000000000000000000000000EE
:1013000000000000000000000000000000000000DD
:1013100000000000000000000000000000000000CD
:1013200000000000000000000000000000000000BD
:1013300000000000000000000000000000000000AD
:10134000000000000000000000000000000000009D
:10135000000000000000000000000000000000008D
:101360002500000000000000000000000000000058
:101370002600000000000000000000000000000047
:10138000000000000000000000000000000000005D
:10139000000000000000000000000000000000004D
:1013A0001E002700000000000000000000000000F8
:1013B0001E001E00000000000000000000000000F1
:1013C000000000000000000000000000000000001D
:1013D000000000000000000000000000000000000D
:1013E00000000000000000000000000000000000FD
:1013F00000000000000000000000000000000000ED
:1014000000000000000000000000000000000000DC
:1014100000000000000000000000000000000000CC
:1014200000000000000000000000000000000000BC
:1014300000000000000000000000000000000000AC
:10144000000000000000000000000000000000009C
:10145000000000000000000000000000000000008C
:101460001E001F000000000000000000000000003F
:101470001E0020000000000000000000000000002E
:10148000000000000000000000000000000000005C
:10149000000000000000000000000000000000004C
:1014A0001E002100000000000000000000000000FD
:1014B0001E002200000000000000000000000000EC
:1014C000000000000000000000000000000000001C
:1014D000000000000000000000000000000000000C
:1014E00000000000000000000000000000000000FC
:1014F00000000000000000000000000000000000EC
:1015000000000000000000000000000000000000DB
:1015100000000000000000000000000000000000CB
:1015200000000000000000000000000000000000BB
:1015300000000000000000000000000000000000AB
:10154000000000000000000000000000000000009B
:10155000000000000000000000000000000000008B
:101560000000000000000800150000000800150041
:1015700000000C0011000A000800150000000C001B
:1015800011000A000C0011000A00340010000000D5
:101590003400160000003400070000003400190079
:1015A000080034001500080034000F000F00000090
:1015B00000000000110034001700000000000000CF
:1015C0000700000000000000000000000000000014
:1015D000000000000000000000000000000000000B
:1015E000000000001100340017000000000000009F
:1015F00007000000000000000000000000000000E4
:1016000000000000000000000000000000000000DA
:1016100000000000000000000000000000000000CA
:10162000000000000000CE5C00000000CE5C000066
:101630000000D05C00000000CE5C00000000D05C28
:1016400000000000D05C000000000000000000006E
:10165000CD5C00000000CF5C000000000000000036
:101660000000D15C0000000000000000000000004D
:10167000000000000000000000000000000000006A
:101680000000000000000800000000001C00000036
:101690000000081C000000001600000000000816F2
:1016A000000000001C1600000000081C16000000CE
:1016B0000000000000001500000000001100000004
:1016C00000001511000000000F0000000000150FC1
:1016D000000000001600000000000F0F00000000D6
:1016E0000A0000000000150A00000000110A0000B6
:1016F00000000A11000000000F0A000000000A1597
:1017000000000000070000000000070F00000000BC
:101710000600000000001506000000001106000091
:101720000000110615000000130000000000151352
:1017300000000000161300000000130F000000005E
:101740000500000000001505000000000A0A000066
:101750000000050815000000050F00000000150539
:101760000F0000000000000000000F050000000056
:101770000B00000000001A0000000000190000002B
:1017800000001A11000000001D00000000001A0FE8
:1017900000000000160B000000000F190000000000
:1017A0000A0B00000000150A0B00000010000000EA
:1017B00000001510000000001B00000000000000E9
:1017C000000000001610000000000F1000000000D4
:1017D000060B0000000015060B00000011060B00B0
:1017E0000000151900000000130B000000000000AD
:1017F00000000000160F000000000F060B000000A4
:10180000090000000000150900000000100500009C
:1018100000001005081500000F0900000000090F66
:101820000000000010130000000013100000000072
:10183000170000000000151700000000111700003D
:1018400000001511170000000F1700000000170F0F
:101850000000000016170000000015161700000019
:101860000E0000000000150E00000000110E000028
:1018700000001117151C00000E0F000000000000F2
:1018800000000000160E000000000F0E0000000017
:10189000061700000000061500000000170C1211CA
:1018A0000000060F000000001317000000000000F9
:1018B000000000001116170000000F1300000000C8
:1018C000060E0000000000000000000005170000E8
:1018D0000000050815170000060E0F000000060E98
:1018E0000F1C0000000000000000000000000000CD
:1018F000170B0000000015170B00000011170B005C
:1019000000001A170B0000000F170B00000000006A
:1019100000000000111900000000161A0815000050
:101920000A0B170000001A0E00000000110A170B26
:1019300000001008111700001B1700000000000035
:101940000000000007170B0000001110081117001D
:1019500017060B000000000000000000110F1C0023
:10196000000000000000000013170B000000000042
:1019700000000000160F1C00000000000000000026
:1019800009170000000009170815000009170811C1
:101990000000000000000000000000000000000047
:1019A00000000000101317000000131008111700AA
:1019B00016000000000015160000000011160000BF
:1019C00000001511160000000F1600000000150F92
:1019D000160000001616000000000F0F1600000091
:1019E0000A1600000000150A16000000110A160071
:1019F00000000A11160000000000000000000000B6
:101A000000000000071600000000000000000000B9
:101A10000616000000001506160000001106081644
:101A20000000000000000000131600000000151365
:101A300016000000161316000000130F0816000011
:101A40000516000000001505160000000A0A160021
:101A50000000050815160000050F0816000000001C
:101A6000000000000000000000000F05160000004C
:101A70000B16000000001A160000000019081600DE
:101A800000001A11160000001D08160000001A0FB1
:101A900016000000160B081600000F1908160000AB
:101AA0000A0B1600000000000000000010160000E5
:101AB00000001510160000001B08160000000000B2
:101AC000000000001610160000000F1016000000A5
:101AD00007000000000015070000000011070000CB
:101AE00000001A0700000000130B16000000150F7D
:101AF000070000001607000000000F0700000000AC
:101B0000070A000000000000000000001005160099
:101B1000000010050815160000000000000000007D
:101B2000000000001013160000000000000000007C
:101B300017160000000015171600000011171600F8
:101B400000000000000000000F1716000000170F33
:101B50001C000000161716000000151617160000CE
:101B60000E1600000000150E16000000110E1600E3
:101B700000001117150C08160000000000000000FE
:101B800000000000160E160000000F0E16000000E8
:101B9000061716000000000000000000170C1211CC
:101BA000160000000000000000000000000000001F
:101BB000000000000000000000000F1316000000ED
:101BC000060E1600000000000000000005171600B9
:101BD0000000050815171600060E0F081600000075
:101BE00000000000000000000000000000000000F5
:101BF000170B1600000015170B16000011170B1617
:101C000000001A170B160000000000000000000082
:101C100000000000000000000000000000000000C4
:101C20000A0B171600001A0E16000000110A170BF7
:101C30001600100811171600000000000000000038
:101C40000000000007170B160000111008111716EE
:101C50000716000000001507160000001107160007
:101C600000001A071600000013170B160000150FCE
:101C7000071600000000000000000F07160000001B
:101C80000000000000000000000000000000000054
:101C90000000000000000000000000000000000044
:101CA000000000001013171600001310081117167B
:101CB00000000000000008080000000012120000F0
:101CC00000001208000000000404000000000408E6
:101CD00000000000041200000000041C00000000CE
:101CE000181800000000180800000000181200007A
:101CF0000000081812000000180400000000081876
:101D000004000000121804000000181C000000006D
:101D10000C0C000000000C08000000000C12000079
:101D20000000080C120000000C0400000000080C69
:101D300004000000120C040000000C1C0000000055
:101D40000C1800000000080C180000000C1218000D
:101D5000000008120C180000040C180000001C08F9
:101D6000000000001C12000000000812040C180003
:101D70000000000000000800000000001200000049
:101D80000000081200000000040000000000080429
:101D9000000000001204000000001C04000000000D
:101DA00018000000000008180000000012180000D1
:101DB00000000812180000000418000000000804C9
:101DC000180000001204180000001C180000000099
:101DD0000C0000000000080C00000000120C0000C5
:101DE000000008120C000000040C000000000804B1
:101DF0000C00000012040C0000001C0C000000008D
:101E0000180C0000000008180C00000012180C004C
:101E100000001C000000000004180C000000081C5A
:101E200000000000121C000000001C000000000068
:101E3000000000000000110000000000150000007C
:101E400000000F00000000001A0000000000100059
:101E5000000000001A15000000001015000000002E
:101E60000B00000000001C0000000000150B00002B
:101E700000000F1C000000001A0B00000000101CE6
:101E8000000000001A0B0815000000000000000010
:101E90000600000000001D00000000000615000004
:101EA0000000060F000000001300000000001311E6
:101EB00000000000131500000000130F00000000D8
:101EC000060B00000000061C00000000060B1500B9
:101ED000000006151C000000130B00000000131C7E
:101EE00000000000130B15000000130B0F00000092
:101EF0001700000000001900000000001715000086
:101F00000000140000000000171A000000000D007F
:101F1000000000000000000000000D081500000097
:101F2000170B00000000171C00000000170B150025
:101F3000000017151C0000000E00000000000E112C
:101F4000000000000E15000000000E0F0000000051
:101F50000700000000000708190000000715000036
:101F6000000007080F000000071A00000000070823
:101F7000100000000708150000000000000000002D
:101F8000090000000000071C000000000915000007
:101F90000000090F00000000050000000000051C03
:101FA00000000000051500000000050F0000000003
:101FB00004000000000004110000000004150000EF
:101FC0000000040F00000000041A000000000410CC
:101FD00000000000000000000000040F0F000000DF
:101FE000040B00000000041C000000000415100099
:101FF0000000000000000000041A0B0000000411A3
:1020000007000000000000000000040F10000000A6
:10201000040600000000041D000000000406150076
:10202000000004060F00000004130000000004106C
:102030001000000004131500000004130F0000003E
:1020400004060B0000000406060000000406061546
:1020500000000406060F000004130B00000000003F
:102060000000000004130B15000000000000000039
:1020700004170000000004190000000004171500F8
:102080000000041400000000041717000000040DF5
:1020900000000000041717150000040F1A000000CC
:1020A00004170B00000004111700000004170B0FA9
:1020B0000000041117150000040E000000000406C3
:1020C0000E110000000000000000000000000000F1
:1020D00004070000000004071900000004071500B1
:1020E00000000406140000000407070000000407B5
:1020F000100000000407071500000407070F000088
:10210000040900000000040909000000040915008A
:10211000000004090F000000040500000000040591
:102120001C00000004051500000004050F0000005D
:10213000160000000000161100000000160815002F
:102140000000160F00000000161A00000000161014
:10215000000000000000000000000000000000007F
:10216000160B00000000161C00000000160B1500E6
:102170000000160F1C00000000000000000000001E
:10218000000000000000000000000000000000004F
:1021900016060000000016160000000016061500C6
:1021A0000000000000000000161300000000000006
:1021B0000000000016131500000016130F000000A9
:1021C00016060B00000000000000000000000000E8
:1021D000000000000000000016130B0000001613A2
:1021E0001C000000000000000000000000000000D3
:1021F0001617000000001619000000001617150041
:1022000000001614000000001B0000000000000089
:10221000000000001B150000000016081519000042
:1022200000000000000016171C0000000000000065
:1022300000001617151C0000160E000000001B1CE5
:10224000000000000000000000000000000000008E
:102250000A00000000000A11000000000A1500003A
:1022600000000A0F000000000A1A00000000000031
:10227000000000000000000000000000000000005E
:102280000A0B000000000A1C000000000000000013
:10229000000000000000000000000000000000003E
:1022A000000000000000000000000000000000002E
:1022B00004160000000004111100000004151500B0
:1022C000000004160F0000000000000000000416CB
:1022D00010000000000000000000000000000000EE
:1022E00004160B00000004161C0000000000000093
:1022F00000000000000000000000000000000000DE
:1023000000000000000000000000000000000000CD
:102310000416060000000416160000000416061538
:102320000000040F16000000041613000000041340
:10233000130000000413131500000413130F000012
:10234000000000000000000000000000000000008D
:1023500000000000000000000416130B000004162B
:10236000130B1C0000000000000000000000000033
:1023700004161700000004111900000004151700CE
:102380000000041614000000041B00000000000000
:10239000000000000000000000000000000000003D
:1023A0000416170B000000000000000000000000F1
:1023B000000004111708150004160E0000000000AC
:1023C000000000000000000000000000000000000D
:1023D000040A00000000040A11000000040A1500AD
:1023E0000000040A0F000000040A0A0000000407AD
:1023F0000D000000040A0A150000040A0A0F00007C
:10240000040A0B0000000409170000000409091564
:1024100000000409090F0000040505000000000089
:102420000000000004050515000000000000000089
:1024300016034500720067006F0044006F007800CB
:10244000200045005A000000160345007200670096
:102450006F0044006F007800200045005A00000023
:102460000403090409025400030100A0FA0904004E
:1024700000010301010009211101000122400007B0
:1024800005810308000A0904010001030000000996
:1024900021110100012236000705820308000A0904
:1024A000040200010300000009211101000122398A
:1024B000000705830320000112011001000000083D
:1024C000EDFE071301000102000105010906A1014B
:1024D000050719E029E71500250195087501810216
:1024E00005081901290595057501910295017503E6
:1024F00091010507190029F71500250195F87501C7
:102500008102C005010980A1018502160100260390
:10251000001A81002A8300751095018100C0050C06
:102520000901A1018503160100269C021A01002A57
:102530009C02751095018100C005010906A10105E5
:102540000719E029E7150025019508750181029515
:102550000175088101050819012905950575019185
:10256000029501750391010507190029FF15002641
:10257000FF00950675088100C00011241FBECFEF33
:10258000DAE0DEBFCDBF04B603FE24C08091190996
:1025900090911A09A0911B09B0911C098730904BAA
:1025A000A740B04BB9F41092190910921A09109271
:1025B0001B0910921C0914BE84B7877F84BF88E171
:1025C0000FB6F89480936000109260000FBEE0E0B8
:1025D000FFE3099512E0A0E0B1E0E4E2F8E602C012
:1025E00005900D92AE32B107D9F719E0AEE2B2E034
:1025F00001C01D92A931B107E1F70E947A2E0C9417
:1026000010340C9400001092B9008AE08093B80056
:10261000089594EA9093BC009091BC0097FFFCCF82
:102620009091B900987F983021F0903111F081E0BD
:1026300008958093BB0084E88093BC008091BC0027
:1026400087FFFCCF8091B900887F883111F08034FA
:1026500071F780E0089584E98093BC008091BC000C
:1026600084FDFCCF08958093BB0084E88093BC0078
:102670008091BC0087FFFCCF9091B900987F81E0EA
:10268000983209F480E0089584E88093BC0080913A
:10269000BC0087FFFCCF8091BB00089580B38C7095
:1026A00080BB81B3836F81BB089580912D0181111F
:1026B00015C080E40E94091380932D0181110CC084
:1026C00082E10E94331380932D01811105C08FEFA9
:1026D0000E94331380932D010E942B1384B1807FBD
:1026E00084B985B1807F85B98AB1837F8AB98BB17E
:1026F000837F8BB93E984698089508950C94DB1912
:102700000E94511E80932D010E9455130E944E136A
:10271000EDE3F2E0AFE2B2E011921D9282E0EB3421
:10272000F807D1F70C945A1B0E94511E80932D017B
:102730000E9455130E944E13EDE3F2E0AFE2B2E0C7
:1027400011921D9282E0EB34F807D1F708958F9231
:102750009F92BF92CF92DF92EF92FF920F931F93BF
:10276000CF93DF931F92CDB7DEB780912D018823E1
:1027700079F080912E028F5F80932E02811108C024
:102780000E94511E80932D01811102C00E94E31D01
:102790000FE212E0812C912CEE24E394F12CDD2445
:1027A000D39495E0C92E282D273030F580912D0146
:1027B000811142C080E489820E94091380932D0117
:1027C0002981811114C082E10E94331380932D016D
:1027D000298181110CC0C701082C01C0880F0A94FF
:1027E000EAF780950E94331380932D012981298374
:1027F0000E942B13298120C02A30A1F028F4283010
:1028000059F0293061F005C02C3089F070F02D307E
:1028100089F0209A289810C0219A29980DC0229AF0
:102820002A980AC0239A2B9807C0529A01C0539A3B
:102830005B9802C03E9A469830EA3A95F1F7273005
:1028400018F580912D01811144C080E40E94091384
:1028500080932D01882311F0B12C12C083E10E94D6
:10286000331380932D018111F7CF81E40E94091366
:1028700080932D018111F0CF0E944413B82EB094A3
:102880000E942B138B2D26C08FB181708D25799BD3
:1028900002C090E001C092E0892B7C9B02C090E0D6
:1028A00001C094E0892B7D9B02C090E001C098E0BC
:1028B000892B7E9B02C090E001C090E1892B9FB1E3
:1028C0009095991F9927991F9295990F907E892B22
:1028D00001C080E0F8019081981719F08083C092C0
:1028E00000010E945513FFEF8F1A9F0A0F5F1F4FC1
:1028F0003EE08316910409F056CF809100018823B1
:10290000A1F0815080930001882329F085E08A9509
:10291000F1F700000AC0ADE3B2E0EFE2F2E081912E
:102920008D9332E0ED33F307D1F70E945C1B81E019
:102930000F90DF91CF911F910F91FF90EF90DF905B
:10294000CF90BF909F908F900895E82FF0E0E35CC8
:10295000FD4F80810895089510927207E3E7F7E034
:10296000108212821182339688E0E333F807C1F7B0
:10297000089590917207292F30E0F901EE0FFF1FA3
:10298000E20FF31FED58F84F8083728361839F5FDE
:10299000909372070895262F30E0FC017081A72FD5
:1029A000A770EA2FF0E0E630F1059CF5662389F187
:1029B000EE0FFF1F3196E80FF91F40814F70E1F4D1
:1029C0006F709081907F962B292F22952F703181E7
:1029D000832F83708295807F822B8F5F282F2F73A8
:1029E0008295807F9F70982B908322952F70832FE4
:1029F0008C7F822B8183089550E04217530701F3A7
:102A000051E05A0F5770472F487F452BFC014083F8
:102A1000C4CF0895CF936D3481F018F4683239F043
:102A200004C0603531F0623531F0C1E007C0C4E068
:102A300005C0C2E003C0C3E001C0C0E06C2F0E942B
:102A4000CB148C2FCF91089520E030E050E0F901B5
:102A5000EE0FFF1FE80FF91FDF0111967181472F5D
:102A60004F7046130AC072957F7011964C91437057
:102A70004295407F472B540F02C0442329F02F5F1B
:102A80003F4F2630310519F7852F089580916E0745
:102A900090916F07A0917007B0917107892B8A2BD5
:102AA0008B2B69F481E040916A0750916B0760912C
:102AB0006C0770916D07452B462B472B09F080E082
:102AC000817008950F931F93CF93DF931F92CDB71B
:102AD000DEB7182F69830E94C72A082F812F0E9412
:102AE000D72A6981862F0E942321802F0F90DF91A2
:102AF000CF911F910F910C94D72A2F923F924F9212
:102B00005F926F927F928F929F92AF92BF92CF927D
:102B1000DF92EF92FF920F931F93CF93DF93CDB786
:102B2000DEB72F970FB6F894DEBF0FBECDBF0E9461
:102B3000AC140E94C72A8C8782E10E94D02A80911F
:102B4000F808887F8093F80880E090E0FC01EE0FA1
:102B5000FF1FE750F74F108221812C7F21830196C0
:102B60008630910599F780916107282F2170322EC8
:102B7000382F32703D8782FB222420F85090630763
:102B80004090650755E0E52E51E0F52E60E6C62E33
:102B900067E0D62E00E010E021E02B87352D3B7F4B
:102BA0003E87F60181916F01882309F4D8C021E0A6
:102BB0002B870130110509F01B86F70140815181F7
:102BC000F801ED59FE4F90810530110529F43320AD
:102BD00071F140EB5CE12BC00330110569F4552025
:102BE00031F120916407F4E05F1611F0206801C014
:102BF0002064209364071BC00430110589F4411040
:102C000005C0332019F093E040E65DE02E852223D5
:102C100071F0282F2074220F8F77822B806407C0D9
:102C20000630110521F4411002C03110E3C24115F4
:102C3000510509F494C0923009F44EC0933009F460
:102C4000DBC2913009F08BC04A0136E0839F800CD3
:102C5000911C1124612C712CF401E60DF71D949147
:102C6000992309F47CC00430110579F4943069F497
:102C700061E0561639F084E0581631F0552029F0FD
:102C800098E103C092E101C09CE0A92EB12CB501EE
:102C900081E09F870E94B9149F85943139F44420C4
:102CA00029F068E170E081E00E94B9149D859923C4
:102CB00051F00630110539F46114710421F4B501A5
:102CC00081E00E94B914EFEF6E1A7E0AF6E06F16EB
:102CD000710409F0C1CF43C04A0126E0829F800CF5
:102CE000911C1124A12CB12CF401EA0DFB1D65915E
:102CF00074916115710599F16D3C3CE5730790F095
:102D0000623D8CE5780748F0693D9CE5790750F411
:102D1000709304016093030108C0709302016093F3
:102D2000010103C082E00E94B914E2E0AE0EB11CC2
:102D3000F6E0AF16B104C1F612C083E00E94B914E8
:102D400022E0A20EB11C38E0A316B10441F0F40158
:102D5000EA0DFB1D659174916115710571F70F5FA7
:102D60001F4F62E0E60EF11C0A30110509F019CF81
:102D700080917207811105C0222009F453C03110DF
:102D800051C0E0910301F0910401E25DFC45E730A0
:102D9000F10520F4EA5AFF4F0C94D43300E010E020
:102DA00018C0BB24B394B22400E010E013C082E04A
:102DB0000E94CA2A0CC082E00E94CA2A0DE212E0D8
:102DC00008C082E00E94CA2A0DE210E002C00CE2B4
:102DD00010E0B12C209172072223C9F08091740772
:102DE000909175078833910560F486339105C0F49E
:102DF0008832910560F08A32910590F0C39739F4DA
:102E00000FC08A34910561F08D34910549F00115A8
:102E1000110531F0222009F4E0C1222309F4DBC1BD
:102E2000B11008C08091010190910201B12C8E3C3B
:102E30009C4518F082E00E94CA2A912CA12C3AE00D
:102E4000832E9E012F5F3F4F390140E5E42EF12C88
:102E50002E013BE0430E511C80917207981608F03A
:102E6000B2C0892D90E08C01000F111F080F191FAF
:102E70000D58184FF8018081823091F0833059F15C
:102E8000813009F081C081810E942321F801818174
:102E90000E94EB2161E088EF98E00E94CB1419C0FA
:102EA000F801D18082819CEF9D0D9A3120F48D2D07
:102EB0000E94232103C06D2D0E9462158D2D0E945A
:102EC000EB216D2D88EF98E00E940A15813009F002
:102ED0005BC0A39459C0F301282D11922A95E9F7FC
:102EE000F801018112810D3DFCE51F0791F00E3DB7
:102EF0002CE5120799F00C3D3CE51307E1F480E561
:102F000093E09A838983EAE2F0E0FC83EB83630138
:102F100034C0FA82E982FC82EB82F9CF22E530E00C
:102F20003A8329838DE490E09C838B83E8E2F0E090
:102F3000FE83ED83ECCF602F812F0E946215802FDE
:102F40000E94EB21602F88EF98E00E940A158130E3
:102F5000F1F6A394DCCF602F812F0E946215802FA1
:102F60000E94EB21602F88EF98E00E940A158130C3
:102F700009F4A394C414D50439F0F6010191119118
:102F80006F010115110539F7F1E0AF121AC08091F8
:102F90000101909102018E3C2CE5920721F08F3CBB
:102FA0009C4551F007C08DEC9CE590930201809305
:102FB000010102C0BB2029F082E00E94D02ABB247C
:102FC000B394939449CFAA2081F08091010190910C
:102FD0000201803D9C4549F48DEC9CE590930201F3
:102FE0008093010182E00E94D02A8091F9088F70BD
:102FF000C9F080914B02843611F410924B0230914B
:103000004B0281E0830F80934B022DE03203D0010D
:103010001124A45BBD4FE8EFF8E001900D922A95D2
:10302000E1F7CEC0332009F4CBC070904B027A9404
:1030300077FE02C0B3E67B2EF72D2DE0F202800171
:103040001124045B1D4FF80181818F7009F4B0C019
:10305000222009F441C08AE20E9423218AE20E94D0
:10306000EB21F8012081277080E090E030E0F90149
:10307000E81BF90BEE0FFF1FE00FF11FDF011196A8
:103080004181542F5F705130C9F442954F701196B1
:103090002C911197822F83708295807F842B815C85
:1030A000982F9F738295807F81608C9392959F70FB
:1030B000822F8C7F892B11968C9307C00196A901D2
:1030C000481B590B4F3F5F4F91F661E0C8010E94CA
:1030D0002415811175C069C02B85222309F470C0A5
:1030E000F80180818770A82EB12C7501EE0CFF1CB1
:1030F000E00EF11E00E010E0FFEFEF1AFF0AC8013A
:10310000880F991F4701881A990AC12CD12CF40104
:103110008081982F92959F70218123702295207F26
:10312000292B30E0C216D306C4F58F7090E08230B0
:10313000910521F13CF4019761F58AE20E94232177
:103140008AE225C083309105F1F0049711F581EEF4
:103150000E94232182E50E94232182E50E94EB2127
:103160008DE40E9423218DE40E94EB2181EE0E94D8
:10317000EB218CE40E9423218CE409C08FE40E949F
:1031800023218FE404C081E50E94232181E50E9470
:10319000EB212FEFC21AD20ABACF0F5F1F4FC50122
:1031A000801B910B019609F0AACF70924B0208C0C8
:1031B000222031F08AE20E9423218AE20E94EB2140
:1031C0008C850E94D72AE0E6F7E0119227E0EA36E4
:1031D000F207D9F71AC0311023CE602F812F0E9439
:1031E0006215802F0E94EB2161E088EF98E00E9439
:1031F000CB1416CE40E655E04A0138E0839F800CA0
:10320000911C1124A12CB12CA2CD2F960FB6F894AD
:10321000DEBF0FBECDBFDF91CF911F910F91FF9009
:10322000EF90DF90CF90BF90AF909F908F907F9066
:103230006F905F904F903F902F900895CF92DF92C4
:10324000EF92FF920F931F93CF93DF93EB01893D92
:103250002CE5920709F474C08A3D2CE5920709F425
:1032600085C08C3C9C4509F09BC08881E98196E033
:10327000E99FF0011124E80FF11DEE0FFF1FEE0F83
:10328000FF1FE850FC4F85919591A591B491B7FF30
:1032900065C09C012F70332741E050E060E070E092
:1032A00004C0440F551F661F771F2A95D2F714E0FC
:1032B000B695A795979587951A95D1F78F7090E059
:1032C000DC01A359BE4FFC01EE0FFF1FE75EFE4F6E
:1032D0000190F081E02DCA816A017B010C9004C04D
:1032E000CC0CDD1CEE1CFF1C0A94D2F7008111816E
:1032F00022813381CC2379F00C291D292E293F29E5
:103300000083118322833383FC01E05AF84F8081CC
:10331000842B808323C0B701A6014095509560950A
:10332000709540235123622373234083518362832A
:1033300073830E944615882389F00E947D1531C051
:103340008981811102C081EE01C085EECA81CC2342
:1033500039F00E94232182E00E943A29C0E021C076
:103360000E94EB2182E00E9455291BC0688179816F
:1033700080E00E94741B64E170E00E94C033FC0195
:10338000EE0FFF1FE55CFE4F60818181CA81CC2377
:1033900019F00E946215E2CF862F0E94EB2101C036
:1033A000C1E08C2FDF91CF911F910F91FF90EF9093
:1033B000DF90CF9008956091A6087091A708809142
:1033C000A8089091A9080E94452B25982D98269829
:1033D0002E9827982F98813029F0833029F4269A47
:1033E0002E9A02C0259A2D9A0E944615811102C07C
:1033F000279A2F9A089581E008950C941E190E942F
:10340000DA242FEF84E39CE0215080409040E1F7E4
:1034100000C000000C94A02C0F931F93CF93DF9358
:103420008C01FC01C081D181CE010E94C629BE0160
:103430000E94741BEC01B8010E94FD19882309F455
:1034400033C1B801CE010E94971D882309F42CC115
:10345000B801CE010E94A01E882309F425C1C53100
:10346000FCE5DF0708F0A3C0C2308CE5D80708F4FC
:1034700078C0F8018281882309F47FC00E94B22BB2
:10348000811102C00E94982B0E94C52B90E090935E
:103490000B0980930A09FE01E350FC45E231F10576
:1034A00020F4E35AFF4F0C94D43380910A098160D1
:1034B00003C080910A09826080930A094BC0809101
:1034C0000A098460F9CF80910A0913C080910A0922
:1034D0008061F2CF80910A098062EECF80910A0963
:1034E0008064EACF80910A098068E6CF80910A095A
:1034F00084608860E1CF80910A098E7FDDCF809162
:103500000A098D7FD9CF80910A098B7FD5CF809111
:103510000A0913C080910A098F7ECECF80910A09D3
:103520008F7DCACF80910A098F7BC6CF80910A090F
:103530008F77C2CF80910A098B7F877FBDCF909113
:103540000A0997FB882780F921E0822780FB97F9F9
:1035500090930A0980910A090E94C92B0E94DA24DB
:10356000A3C0C115ECE5DE0779F0C130DC45A1F060
:1035700081E08093370880933808C801DF91CF91AC
:103580001F910F910C94FB19F8018281882309F493
:103590008BC00E94FF1988C0F8018281882309F43A
:1035A00083C08091D30881608093D3087DC0C73CDD
:1035B0008CE5D80781F5F8018281882361F01092AB
:1035C00038080E94452C909336088093350880E295
:1035D0000E943A2269C00E94C72A81FF05C081E08B
:1035E00080933708809338088091380881110FC084
:1035F00080913508909136080E94512C883C9105A5
:1036000030F487E20E94232187E20E94EB2180E2CE
:103610000E94412249C0C83CECE5DE0780F5C63C6B
:10362000DC4509F0A5CFF8018281882351F0109282
:1036300037080E94452C909334088093330882E029
:10364000C7CF0E94C72A85FF05C081E08093370855
:10365000809338088091370881110FC0809133081A
:10366000909134080E94512C883C910530F486E2F8
:103670000E94232186E20E94EB2182E0C9CFCA3C4E
:103680008CE5D80731F4F8018281882369F080E065
:1036900009C0CB3CDC4509F06BCFF801828188235F
:1036A00019F082E00E940C2F80E0DF91CF911F91F2
:1036B0000F9108950C943B1E0C947E13282F8823A1
:1036C00039F090E02A3010F44D9608950697089549
:1036D00087E290E0089508950C946B1B0C946C1B8A
:1036E00080E090E00895089596E0799FF00111241C
:1036F00094E5899FE00DF11D1124E60FF11DEE0FF9
:10370000FF1FE85AFE4F859194910895880F991FE5
:10371000885A9E4FFC018591949108950E94741BD4
:103720000E941A1D811520E49207B0F5811540E32F
:10373000940708F0DBC0803E9105D8F4803C9105E9
:1037400008F069C0883A910578F4853A910508F047
:1037500065C08130910509F46CC108F423C184303F
:10376000910508F066C11EC18D3B910508F461C04A
:1037700019C18F3F910509F048F4803F910508F089
:10378000AFC0883E910508F454C10CC1811520E2F8
:10379000920708F0A7C00895811544E59407D8F46E
:1037A000811523E5920708F0DCC0811541E59407F7
:1037B00040F4811520E5920708F0A2C09F70906A3E
:1037C0000895811542E5940708F0B6C0982F882720
:1037D000816F906A0895811526E5920750F481154E
:1037E00045E5940708F0D2C0982F8827846F906A27
:1037F0000895811528E5920708F4D4C0811549E59C
:10380000940708F4C8C09C0130562115304208F0D6
:10381000C9C09F71C5C0805C910965C0853A91059A
:1038200009F4C3C0863A910509F4C2C083E890E464
:103830000895883A910509F4BEC0893A910509F4C2
:10384000BDC08A3A910509F4BCC08B3A910509F4D0
:10385000BBC08C3A910509F4BAC08B3B910509F4C1
:10386000B9C08C3B910509F4B8C08D3A910509F4B3
:10387000B7C0803B910509F4B6C08E3A910509F4B2
:10388000B5C08F3A910509F4B4C0813B910509F4A4
:10389000B3C0823B910509F4B2C0833B910509F4A2
:1038A000B1C0843B910509F4B0C0853B910509F492
:1038B000AFC0863B910509F4AEC0873B910509F482
:1038C000ADC0883B910509F4ACC0893B910509F472
:1038D000ABC08A3B910509F0AAC08AE296E408953C
:1038E000906508959F700E94861B08959C01332760
:1038F00093FF03C0C901986C0895C901906C0895A5
:10390000482F437021E030E002C0220F331F4A9558
:10391000E2F73C68AC0174E0569547957A95E1F77B
:103920004370342B8F708695869540E2849FC0014A
:103930001124822B932B0895282F2695269540E25B
:10394000249F90011124AC014370552781E090E041
:1039500002C0880F991F4A95E2F7822B932B9C682F
:103960000895282F2695269540E2249F9001112442
:10397000AC014370552781E090E002C0880F991F89
:103980004A95E2F7822B932B9A6808958F719927B5
:10399000982F882705C0982F8827806F906A0895F0
:1039A0009062089580E090E0089581E890E40895A1
:1039B00082E890E4089582EE94E4089589EE94E418
:1039C00008958AEE94E4089585EB94E4089586EBD7
:1039D00094E4089583EB94E4089584EB94E40895CB
:1039E00087EB94E408958CEC94E408958DEC94E4D2
:1039F000089583E895E408958AE895E4089582E9B6
:103A000095E4089584E995E4089581E296E40895A3
:103A100083E296E4089584E296E4089585E296E4CC
:103A2000089586E296E4089587E296E4089580E09A
:103A300094E408958238910549F1B0F481339105F9
:103A400009F459C048F48932910509F44FC08A320B
:103A5000910509F455C008958533910509F441C0D5
:103A60008933910599F00895833E910531F138F439
:103A7000803E910591F0823E9105A9F00895863E21
:103A8000910501F1873E910539F1089520910A09C8
:103A900020FD3BC021FD39C0089580910A0980FFB7
:103AA00034C089E341C080910A0982FF32C080910D
:103AB0000A0984FF2CC080E037C080910A0982FD8A
:103AC00028C0F5CF80910A0983FF25C080910A099B
:103AD00084FDF1CF87EE28C080910A0983FD1BC0C9
:103AE000F5CF80910A0985FF18C019C080910A0995
:103AF00085FF15C012C080910A0986FF12C013C04D
:103B000080910A0986FF0FC00CC080EE0DC083EEC5
:103B10000BC082EE09C086EE07C085E305C089E2CE
:103B200003C081E301C08AE290E008950895CF9335
:103B3000DF93EC01FB018281811102C081E040C072
:103B400080914608811125C0C531DC45B9F70E9436
:103B5000961D81E0809346080E94452C909345086D
:103B6000809344081092390810923B0810923A084A
:103B700010923D0810923C0810923F0810923E08A7
:103B80001092410810924008109243081092420887
:103B900016C080914408909145080E94512C883CA1
:103BA000910560F680913908E82FF0E0EE0FFF1FD5
:103BB000E65CF74FD183C0838F5F8093390880E044
:103BC000DF91CF91089556985E9825982D98269864
:103BD0002E9827982F988FEF90E0909389008093EC
:103BE000880090938B0080938A0090938D0080933F
:103BF0008C00259A2D9A2FEF80E792E0215080408B
:103C00009040E1F700C00000269A2E9A2FEF80E73F
:103C100092E0215080409040E1F700C00000279AD8
:103C20002F9A2FEF80E792E0215080409040E1F7FB
:103C300000C0000025982D982FEF80E792E02150DA
:103C400080409040E1F700C0000026982E982FEFAA
:103C500080E792E0215080409040E1F700C00000F2
:103C600027982F9856985E9825982D9826982E98E4
:103C700027982F98089589EA8093800089E080939F
:103C8000810024982C983F988AB18F7C8AB96E98CD
:103C9000479A8BB180638BB9769A0E94E31D0C948E
:103CA0007D1380E280932D018091470881110EC021
:103CB0000E94031381E0809347082FEF83ED90E388
:103CC000215080409040E1F700C0000080E40E9455
:103CD000091380932D0181112EC00E94331380930C
:103CE0002D01811128C00E94331380932D01811171
:103CF00022C08FE30E94331380932D0181111BC0DA
:103D00000E942B1380E40E94091380932D018111DE
:103D100012C08CE00E94331380932D0181110BC0DF
:103D20000E94331380932D01811105C08FE30E94FF
:103D3000331380932D010E942B1380912D01089540
:103D4000CF93DF93EC01C13080E8D807C8F0FB01C6
:103D500082818823A9F080914808811109C08CE0F4
:103D600090E00E94DA330E94C41E81E080934808EC
:103D70000E94CB1ECE019F770E94891F0E94411F87
:103D800081E0DF91CF91089580934908682F8CE0FE
:103D900090E00C94E833E0912E01F0912F018081A6
:103DA0008093050981FF03C081EE0E94EB21809181
:103DB000050985FF03C085EE0E94EB21809105096E
:103DC00080FF03C080EE0E94EB218091050984FFF3
:103DD00003C084EE0E94EB218091050982FF03C09D
:103DE00082EE0E94EB218091050986FF03C086EEDA
:103DF0000E94EB218091050983FF03C083EE0E949E
:103E0000EB218091050987FF03C087EE0E94EB211B
:103E1000809149088130A1F078F0823011F184302E
:103E200049F586EE0E94232186EE0E94EB2188E16F
:103E30000E94232188E11CC082EE0E9423211AC027
:103E400080EE0E94232181EE0E94232188E10E94BE
:103E5000232188E10E94EB2181EE0E94EB2180EE7C
:103E600007C082EE0E94232187E50E94232187E577
:103E70000E94EB218FE39CE90197F1F700C000005D
:103E8000089580914908813029F010F0823041F482
:103E900082EE04C08CE20E9423218CE20E94EB217E
:103EA0008091050981FF03C081EE0E94232180914A
:103EB000050985FF03C085EE0E9423218091050935
:103EC00080FF03C080EE0E9423218091050984FFBA
:103ED00003C084EE0E9423218091050982FF03C064
:103EE00082EE0E9423218091050986FF03C086EEA1
:103EF0000E9423218091050983FF03C083EE0E9465
:103F000023218091050987FF03C087EE0C942321AC
:103F10000895FF920F931F93CF93DF938C01CCE012
:103F2000D0E0C8010C2E02C0969587950A94E2F75E
:103F3000282F2F70F22E822F0E945E1B0E942321B9
:103F40008F2D0E945E1B0E94EB212497CC3F8FEFA8
:103F5000D80739F7DF91CF911F910F91FF90089506
:103F600090934F0880934E080895E0914E08F09189
:103F70004F08309721F00190F081E02D099480E006
:103F80000895E0914E08F0914F08309721F002809B
:103F9000F381E02D0994089520914C0830914D084B
:103FA0008217930771F090934D0880934C08E0912D
:103FB0004E08F0914F08309721F00680F781E02DF0
:103FC0000994089520914A0830914B08821793076D
:103FD00071F090934B0880934A08E0914E08F0915D
:103FE0004F08309721F00084F185E02D0994089561
:103FF00008950C94F81F0E943C2C0E9480130E948C
:10400000C32CEAE0F9E08081806880830895CF9234
:10401000DF92EF92FF920F931F93CF93DF93CDB771
:10402000DEB72B970FB6F894DEBF0FBECDBF0E9450
:10403000A71331E5E32E38E0F32E00E010E0C02EA8
:10404000802F0E94A514F701D1907F01D826B1F4EA
:104050000F5F1F4F0E30110591F78FEF89838A8311
:104060001B820E94452C8160782F9D838C8349811F
:104070005A816B818D810E94E42041C09091D308C8
:1040800091FF04C08B870E94AB148B8520E030E049
:104090004D2D50E0922FBA01022E02C07595679502
:1040A0000A94E2F760FF25C02E83CF82EE24E394CA
:1040B000F12C02C0EE0CFF1C9A95E2F790E08E21E5
:1040C0009F2121E0892B09F420E028870E94452CBC
:1040D0008160782F9A8789874E815F8168858A857C
:1040E0000E94E420F801EF5AF74F80818E258083EB
:1040F00006C02F5F3F4F2630310561F6A9CF1091E2
:1041000050080E94B51F1817A1F00E94B51F809398
:1041100050082B960FB6F894DEBF0FBECDBFDF91CF
:10412000CF911F910F91FF90EF90DF90CF900C9463
:104130006E1B2B960FB6F894DEBF0FBECDBFDF917E
:10414000CF911F910F91FF90EF90DF90CF90089546
:10415000DC0111964C9111975C91852F90E021E044
:1041600030E001C0220F5A95EAF712966C9112972F
:1041700050E0662319F060916D0805C0FA01E15A1C
:10418000F74F608162236623B9F036E0349FF00177
:10419000359FF00D1124E80FF91FEE0FFF1FE958AE
:1041A000FE4F808191818D939C93FA01E15AF74FE4
:1041B0008081822B80830895FA01E15AF74F209580
:1041C0008081282320830895CF93DF93CDB7DEB776
:1041D0002B970FB6F894DEBF0FBECDBF4F83588725
:1041E00069877A878B878A859B85892B31F05F3F2A
:1041F00011F080E003C04F3FE1F781E0811104C07E
:10420000CE0107960E94A820DE01119686E0FD01EE
:1042100011928A95E9F785E0FE01379601900D929B
:104220008A95E1F749815A816B817C818D819E81DC
:104230000E94A4272B960FB6F894DEBF0FBECDBF09
:10424000DF91CF910895882309F4C4C0823859F4CE
:104250000E94B51F81FDBEC089E30E94462A0E94CC
:10426000162B89E30CC0833871F40E94B51F80FDC2
:10427000B1C083E50E94462A0E94162B83E50E9466
:10428000862A0C94162B843859F40E94B51F82FD9F
:10429000A1C087E40E94462A0E94162B87E4EFCF34
:1042A0009CEF980F913A18F40E94462AEACF90E2C8
:1042B000980F983050F4877091E001C0990F8A955B
:1042C000EAF7892F0E94CA2ADCCF9BE5980F93302A
:1042D00070F4853A29F0863A31F482E890E005C01E
:1042E00081E890E002C083E890E00C94CC1F98E550
:1042F000980F953108F06EC0883A61F1893A69F1FA
:104300008A3A71F18B3A79F18C3A81F18B3B89F1E0
:104310008C3B91F18D3A99F1803BA1F18E3AA9F154
:104320008F3AB1F1813BB9F1823BC1F1833BC9F1D5
:10433000843BD1F1853BD9F1863BE1F1873BE9F143
:10434000883BF1F1893BF9F18A3B09F03FC08AE2F1
:1043500092E03EC082EE90E03BC089EE90E038C033
:104360008AEE90E035C085EB90E032C086EB90E0BD
:104370002FC083EB90E02CC084EB90E029C087EB4A
:1043800090E026C08CEC90E023C08DEC90E020C043
:1043900083E891E01DC08AE891E01AC082E991E0CB
:1043A00017C084E991E014C081E292E011C083E279
:1043B00092E00EC084E292E00BC085E292E008C079
:1043C00086E292E005C087E292E002C080E090E0E1
:1043D0000C94E21F0895882309F44BC0823859F4E5
:1043E0000E94B51F81FF45C089E30E94462A0E94B2
:1043F000162B89E30CC0833871F40E94B51F80FF2F
:1044000038C083E50E94462A0E94162B83E50E944D
:10441000862A0C94162B843859F40E94B51F82FF0B
:1044200028C087E40E94462A0E94162B87E4EFCF1B
:104430009CEF980F913A58F390E2980F983050F40F
:10444000877091E001C0990F8A95EAF7892F0E9441
:10445000D02ADFCF9BE5980F933020F480E090E0E6
:104460000C94CC1F885A853120F480E090E00C94A5
:10447000E21F0895882321F00E94CA2A0C94162B6B
:104480000895882321F00E94D02A0C94162B0895B9
:104490008F929F92BF92CF92DF92EF92FF920F93F3
:1044A0001F93CF93DF9300D0CDB7DEB74C01472FDA
:1044B000FC01E580E2949FE0E922F280FF2031F0E8
:1044C00079836A830E94EA2A6A81498149836A83DF
:1044D0000E943F2A49816A81882389F0FF2079F070
:1044E00080E2860F883058F082E00E94282A0E94DD
:1044F0003F2ABB24B394B82649816A8101C0B12CFC
:10450000E42FE295EF70F0E0E159FF4F0C94D433C3
:10451000842F807F142F1F70882311F01295107F35
:10452000FF20C1F0112309F48DC180E2860F88308D
:1045300010F0611105C0812F6A830E94CA2A04C04D
:10454000812F6A830E94DD2A6A816A830E94162B6A
:104550006A8178C1862F6A830E94EB216A811123C8
:1045600009F4BEC180E2860F883010F0611104C0EA
:10457000812F0E94D02A03C0812F0E94E32A0E942B
:10458000162BAEC1242F207F842F8F70203211F084
:104590008295807F662319F06130B9F020C0FF203A
:1045A00049F0EE2009F404C1F1E0EF1201C10E94CC
:1045B000FD2A96C1EE2021F091E0E91609F490C1A0
:1045C00089830E94002B8981F9C0FF2029F0E1E056
:1045D000EE1508F485C1ECC0E11082C1EFC0FF20E8
:1045E00021F0EE2009F4E4C02DC1EE2009F4E6C06C
:1045F0002FC1242F26952695237030E021153105F3
:1046000021F02130310561F06BC1FF2021F0862FB0
:10461000942F937002C080E090E00E94CC1F60C194
:10462000FF2021F0862F942F937002C080E090E04D
:104630000E94E21F55C1842F837009F04EC0F11013
:104640004FC1262F229526952770220F220F862FE5
:104650008F70C82ED12CE12CF12C022E04C0CC0C72
:10466000DD1CEE1CFF1C0A94D2F764FF10C06FE043
:1046700070E080E090E004C0660F771F881F991FEC
:104680002A95D2F7609570958095909503C060E06B
:1046900070E0CB01242F26952695237030E0223040
:1046A000310569F02330310589F06C297D298E2987
:1046B0009F292130310571F00E94F52811C16C2924
:1046C0007D298E299F290E9407290AC10E94F52869
:1046D000C701B6010E94E32803C1FF2019F0842F0F
:1046E000817001C08695882309F4FAC0262F22958F
:1046F00026952770220F220F862F8F70C82ED12C5F
:10470000E12CF12C022E04C0CC0CDD1CEE1CFF1C95
:104710000A94D2F764FF10C06FE070E080E090E090
:1047200004C0660F771F881F991F2A95D2F76095DE
:1047300070958095909503C060E070E0CB01242FC8
:1047400026952695237030E02230310569F023301C
:10475000310589F06C297D298E299F292130310569
:1047600071F00E94A129BCC06C297D298E299F2946
:104770000E94B329B5C00E94A129C701B6010E94B9
:104780008F29AEC0062F10E0F801E05EF109E53197
:10479000F10508F053C0E158FF4F0C94D433162FA5
:1047A0001F70842F8F71FF2031F00E943A29812FD2
:1047B0000E943A2295C00E945529812F0E944122D1
:1047C0008FC0FF2039F0E1108BC0842F8F710E94C1
:1047D000742986C0F1E0FE1508F482C0F6CFFF20F0
:1047E00039F0842F8F710E943A297AC0FF20C9F3D3
:1047F000842F8F710E94552973C0FF2029F0842FC8
:104800008F710E942B296CC00E94262969C0FF204D
:1048100051F0142F1F71812F0E943A2963E0812FDC
:104820000E941F2A5DC081E00E94282A81E08E1527
:1048300008F056C082E00E94282A52C0FF2031F0C2
:10484000EE2079F2862F0E9423214AC0EE2081F2C9
:10485000862F0E94EB2144C04F70C4010E94701B40
:104860000E9451283DC0623FA9F128F4603F49F001
:10487000613FE1F020C0643FA1F050F0653F69F076
:104880001AC0FF2049F180916D0821E0822702C003
:1048900081E08F2580936D081FC0F1101DC081E05D
:1048A000F9CFF11019C010926D0816C0EE2091F0EA
:1048B000F11012C0E8CFEE2069F0862F49836A8399
:1048C000FF2019F00E94232102C00E94EB214981A0
:1048D0006A8102C0F0926D084F70C4010E94731B80
:1048E000BB20F1F00E941B2A80FD1AC0F401128245
:1048F0000E94152A0E943A29C4010E949E240E9407
:10490000152A0F900F90DF91CF911F910F91FF907B
:10491000EF90DF90CF90BF909F908F900C9455298F
:104920000F900F90DF91CF911F910F91FF90EF901B
:10493000DF90CF90BF909F908F9008950F931F931B
:10494000CF93DF93EC01288139818B819C81892B66
:1049500031F03F3F11F080E003C02F3FE1F781E0ED
:10496000811113C0CE010E940C1A882371F0688156
:1049700079818A810E94112A8C010E94C5290E9496
:10498000E028B801CE010E944822DF91CF911F910B
:104990000F9108950E94EA2A0E94FA2A0E94B92AD9
:1049A0000E94162B80E090E00E94CC1F80E090E0F7
:1049B0000C94E21F0E94DA2A0C94CA240E94062A50
:1049C000E92FE295EF70F0E03297EE30F105B8F4A0
:1049D000EC56FF4F0C94D433803F59F018F4803ECE
:1049E00070F407C0843F59F404C0803E10F0813F4A
:1049F00031F481E0089593FB882780F9089580E0E1
:104A00000895CF93DF9300D000D01F92CDB7DEB7CB
:104A10000F900F900F900F900F90DF91CF9108950E
:104A2000CF93DF9300D000D000D0CDB7DEB726966D
:104A30000FB6F894DEBF0FBECDBFDF91CF910895C2
:104A40001F93CF93DF93C0916E0816E080916F089B
:104A5000C81799F0D0E01C9FF0011D9FF00D1124A4
:104A6000E059F74F40815181628173818481958142
:104A70000E9410252196C770E9CFDF91CF911F9139
:104A800008954091A0085091A1086091A2087091EA
:104A9000A3088091A4089091A5080C941025CF93A9
:104AA0008091A50882958F7009F05FC08091A2085F
:104AB000882309F45AC020916E08A0916F08609174
:104AC000A0087091A1088091A3089091A40831E0FA
:104AD0006F3F09F030E0B32FC6E02A1709F445C054
:104AE000009721F07F3F21F44B2F03C041E001C02C
:104AF00040E030E040FD35C0C29FF001C39FF00DA3
:104B00001124E059F74F418174132BC04081641385
:104B100028C04281411125C043815481481759075B
:104B200010F441505109481B590B483C5105C8F439
:104B30008091A5088F7080618093A50886E0829F90
:104B4000F001839FF00D1124EB58F74F80818F7097
:104B50008061808380EA98E00E949E24CF910C942B
:104B600020252F5F3F4F2770B8CFCF910895CF9268
:104B7000DF92EF92FF920F931F93CF93DF93CDB706
:104B8000DEB762970FB6F894DEBF0FBECDBF8C01C3
:104B900085E0F801DE011D9601900D928A95E1F7FE
:104BA000D8014C9111965C91119712966C911297C5
:104BB0001396ED90FC9014977091A008E091A108D5
:104BC0002091A3083091A4082115310531F0EF3F61
:104BD00031F481E07F3F19F403C081E001C080E03F
:104BE000B82FB170CB2E80FD6CC1D090A208DD2013
:104BF00009F4F5C0F091A508E216F30638F0C701F4
:104C0000821B930B883C910548F09BC02095309502
:104C10002E0D3F1D283C310508F093C08F2F807F5B
:104C200009F052C0E51314C0741312C0D62E6111DE
:104C30000FC0FF70F061F093A5080E94412580EA43
:104C400098E00E949E248091A508F80185836CC19C
:104C5000EF2831F05F3F31F481E04F3F19F403C09A
:104C600081E001C080E080FD03C081E0862701C0B3
:104C700080E0F82FF170FF2E80FF1CC080916E083D
:104C800020916F0836E0821709F428C190E0389F20
:104C9000F001399FF00D1124E059F74F718157133E
:104CA00006C07081471303C07281671303C0019669
:104CB0008770E9CFD62E662309F436C18091A50806
:104CC00081608093A50853C0E51308C0741306C023
:104CD000611104C0D8011596FC93AEC04D875E8764
:104CE0008D859E856A8B0E94DE246A89882329F13E
:104CF000D62E662311F12091A508822F82958F7000
:104D000090E002970CF460C08091A0089091A108F7
:104D100098878F831986FB86EA862C87CE010796B3
:104D200051C0E51731F14D875E878D859E856A8B71
:104D30000E94DE246A8981112EC0C8010E949E242F
:104D4000A4C08F2F807F69F77E2DF98AE88A898930
:104D50000E94012580EA98E00E949E24E0EAF8E0A3
:104D600086E0DF011D928A95E9F70E944125D12C4A
:104D7000DBC07413D8CF6111D6CFD8011596FC9340
:104D8000C8010E949E24E0EAF8E086E0DF011D925F
:104D90008A95E9F7C9C0D62E662379F22091A50835
:104DA000822F82958F7090E0029774F08091A00816
:104DB0009091A1089A8389831B82FD82EC822E83C5
:104DC000CE0101960E949E2486E0F801A0EAB8E098
:104DD00001900D928A95E1F70E944F256FC0E2166F
:104DE000F30628F0C701821B930B9C0104C0209599
:104DF00030952E0D3F1D283C310508F052C0D62EAF
:104E0000662309F49ACFE5132CC074132AC080914D
:104E1000A50880FD1DC0982F92959F70C9F0D801FC
:104E200015968C9315979F3039F09F5F9295907FE0
:104E30008F70892B15968C93C8010E949E2486E062
:104E4000F801A0EAB8E001900D928A95E1F736C02A
:104E500086E0F801A0EAB8E001900D928A95E1F7AA
:104E600063C04D875E878D859E850E94DE248823E2
:104E700079F086E0F801A0EAB8E001900D928A95F9
:104E8000E1F70E944F250E944125DD24D3944CC0B8
:104E90008091A50881608093A508C8010E949E2486
:104EA00043C07E2DF98AE88A89890E940125E0EABB
:104EB000F8E086E0DF011D928A95E9F70E9441251E
:104EC00033C0662309F439CF4D875E878D859E8573
:104ED0000E94DE24882309F430CFCBCF4D875E8734
:104EE0008D859E850E94062A292F22952F7030E0FD
:104EF000223031052CF49F7041F0811106C00CC0A6
:104F0000243031052CF49F7049F4805E883020F005
:104F1000C8010E949E24CF2CDC2C06C0D801159617
:104F20009C91907F91F7F8CF8D2D62960FB6F894F3
:104F3000DEBF0FBECDBFDF91CF911F910F91FF90CC
:104F4000EF90DF90CF9008951F93CF93DF93CDB76D
:104F5000DEB72C970FB6F894DEBF0FBECDBF4F83E0
:104F6000588769877A878B879C87CE0107960E942E
:104F7000B7258823C1F02F8138858A859B85892BA9
:104F800031F03F3F11F080E003C02F3FE1F781E0B7
:104F9000811147C04F81588569857A858B859C85AD
:104FA0000E9410253EC086E0FE013796DE01119674
:104FB00001900D928A95E1F7FF81E8854A855B852E
:104FC0004115510531F0EF3F31F481E0FF3F19F415
:104FD00003C081E001C080E080FD23C020916F0804
:104FE00030E0C90101968770992760916E0870E0E2
:104FF00086179707F1F1F983EA835D834C8396E086
:10500000929FD001939FB00D1124A059B74FFE017C
:10501000319601900D929A95E1F780936F080E9466
:10502000202516E080916E0890916F08891779F11C
:10503000189FC00111248059974F0E94B7258823DB
:1050400031F1E0916E081E9FF0011124E059F74FF5
:105050004081518162817381848195810E941025F4
:1050600080916E0890E001968770992780936E0872
:10507000D9CF0E94DA2410926F0810926E08E0EAED
:10508000F8E086E0DF011D928A95E9F7CACF2C96F9
:105090000FB6F894DEBF0FBECDBFDF91CF911F9149
:1050A0000895EF92FF920F931F93CF93DF939C018C
:1050B000009709F471C0F12CEE24E394E9012196E4
:1050C000F9018491843740F4843008F056C081306F
:1050D00081F0823021F160C0853709F449C0C0F108
:1050E0009CE7980F903708F057C08F770E94EB210C
:1050F00046C089010E5F1F4FFE01849190E2980F18
:10510000983050F48770FE2D01C0FF0F8A95EAF7A2
:105110008F2F0E94ED2A15C00E94232114C08901FF
:105120000E5F1F4FFE01849190E2980F983068F453
:105130008770FE2D01C0FF0F8A95EAF78F2F0E941E
:10514000F32A0E94162BE8011AC00E94EB21FBCF24
:105150002E5F3F4FFE01C491CC2341F08FE99FE0C9
:105160000197F1F700C00000C150F6CFE90107C078
:10517000FE01F490E901229602C00E9423218F2DA6
:10518000882341F0EFE9FFE03197F1F700C000001C
:105190008150F6CF9E0192CFDF91CF911F910F9159
:1051A000FF90EF90089508950E94D3286093AA0875
:1051B0007093AB088093AC089093AD080C94CA240C
:1051C00008950C94D4280F931F930091AA0810916E
:1051D000AB082091AC083091AD08602B712B822B6D
:1051E000932B1F910F910C94D4280F931F93009130
:1051F000AA081091AB082091AC083091AD0860234B
:105200007123822393231F910F910C94D4280F9321
:105210001F930091AA081091AB082091AC0830911F
:10522000AD0860277127822793271F910F910C9457
:10523000D42808950E9419296093A6087093A7089E
:105240008093A8089093A9080C94CA2460E070E0A9
:10525000CB010C941A2941E050E060E070E004C0FA
:10526000440F551F661F771F8A95D2F7CB01BA01ED
:105270000C941A2941E050E060E070E004C0440F53
:10528000551F661F771F8A95D2F78091A6089091C7
:10529000A708A091A808B091A908482B592B6A2B00
:1052A0007B2BCB01BA010C941A2941E050E060E05D
:1052B00070E004C0440F551F661F771F8A95D2F710
:1052C00040955095609570958091A6089091A7089B
:1052D000A091A808B091A908482359236A237B23E9
:1052E000CB01BA010C941A2941E050E060E070E073
:1052F00004C0440F551F661F771F8A95D2F780910F
:10530000A6089091A708A091A808B091A9084827DD
:1053100059276A277B27CB01BA010C941A290F93CE
:105320001F930091A6081091A7082091A80830911A
:10533000A908602B712B822B932B1F910F910C943A
:105340001A290F931F930091A6081091A708209186
:10535000A8083091A90860237123822393231F9109
:105360000F910C941A290F931F930091A608109186
:10537000A7082091A8083091A908602771278227E3
:1053800093271F910F910C941A290895CF92DF92C1
:10539000EF92FF920F931F93CF93DF93EC01C09096
:1053A000AA08D090AB08E090AC08F090AD088091CE
:1053B000A6089091A708A091A808B091A908C82AAA
:1053C000D92AEA2AFB2A0FE110E0B701A601002E34
:1053D00004C076956795579547950A94D2F740FD96
:1053E00005C00150110988F780E007C0BE01802F79
:1053F0000E948E1B0197A9F3802FDF91CF911F91FF
:105400000F91FF90EF90DF90CF900895CF93DF93AF
:10541000EC010E94C629BE010E948E1BDF91CF9134
:105420000895CB010E94062A08958091AE088595C3
:105430008595859508958091AE088770089598E0C8
:10544000899F90011124622B6093AE080C943A2935
:105450004091AE08809584238093AE08982F977072
:1054600069F450E0282F332727FD30954217530762
:1054700029F08595859585950C94552908959091E9
:10548000AE08977081E009F480E0089590913A01A8
:105490009923D9F090910A0997FF17C0982F9695F4
:1054A000969596959F3188F5E0912E01F0912F0108
:1054B000E90FF11D877021E030E001C0220F8A95CD
:1054C000EAF78181822B8183089540912E015091CA
:1054D0002F0120E030E09FEFFA01E20FF31F62811D
:1054E000681799F09F3F19F4611101C0922F2F5F47
:1054F0003F4F2E31310581F79F3F39F0FA01E90F17
:10550000F11D97FDFA9582830895089590913A01CF
:105510009923E1F090910A0997FF18C0982F96956A
:10552000969596959F3120F5E0912E01F0912F01EF
:10553000E90FF11D877021E030E001C0220F8A954C
:10554000EAF72095818128232183089540912E0137
:1055500050912F0120E030E0FA01E20FF31F928119
:10556000981301C012822F5F3F4F2E313105A1F7F2
:10557000089581E090E0E0912E01F0912F01E80F75
:10558000F91F1082019680329105A9F70895809144
:10559000D20808959091D208982B9093D20808953C
:1055A00080959091D20898239093D2080895809383
:1055B000D20808951092D20808959091D108982B9E
:1055C0009093D108089580959091D1089823909355
:1055D000D10808951092D10808959091D008982B81
:1055E0009093D008089580959091D0089823909337
:1055F000D00808951092D00808958093AF080895B8
:105600001092AF08089540912E0150912F0120E093
:1056100030E080E0FA01E20FF31F918191118F5F7A
:105620002F5F3F4F2F313105A9F70895E0912E01EB
:10563000F0912F018091D2088083E0912E01F091AA
:105640002F0180819091D108892B8083E0912E01D8
:10565000F0912F0180819091D008892B80839091C7
:10566000AF08992361F0E0912E01F0912F01808124
:10567000892B80830E94032B81111092AF088091A7
:105680002E0190912F010C94C11FCF92DF92EF92C7
:10569000FF920F931F936C01EE24FF24C114D104D9
:1056A000E104F10421F46B017C0180E001C080E1A0
:1056B00033272F2D1E2D0D2D011511052105310527
:1056C00019F0885F6801790197018601A4E0369599
:1056D000279517950795AA95D1F70115110521056D
:1056E000310519F08C5F6801790197018601F2E0BC
:1056F0003695279517950795FA95D1F70115110558
:105700002105310519F08E5F68017901B701A60105
:105710007695679557954795452B462B472B09F06E
:105720008F5F1F910F91FF90EF90DF90CF900895C2
:105730006DEE7EEF80E090E00E94FA3360E082E060
:1057400090E00E94E83360E083E090E00E94E8335C
:1057500060E084E090E00E94E83360E085E090E063
:105760000C94E83380E090E00E94E23321E08D3E2B
:105770009E4F09F020E0822F089582E090E00C9483
:10578000DA3383E090E00C94DA3384E090E00C9418
:10579000DA33682F84E090E00C94E83380911009AC
:1057A000843021F11092D40820E488E190E00FB613
:1057B000F894A895809360000FBE2093600080E06D
:1057C0000E946E1B83B7817F846083BF83B7816033
:1057D00083BF7894889583B78E7F83BF88E10FB6A7
:1057E000F89480936000109260000FBE08950895B1
:1057F000CF930E9494130E94A7130E94F72BC0E03E
:105800008C2F0E94A514811105C0CF5FCE30C1F747
:1058100080E001C081E0CF9108950E94DA240E94C7
:10582000B51F0C946E1B1F920F920FB60F9211248E
:105830008F939F93AF93BF938091D408811113C02E
:105840008091060990910709A0910809B091090972
:105850004196A11DB11D8093060990930709A0935D
:105860000809B0930909BF91AF919F918F910F9053
:105870000FBE0F901F90189582E084BD93E095BDF8
:105880009AEF97BD80936E0008952FB7F89480919A
:10589000060990910709A0910809B09109092FBF45
:1058A0000895CF92DF92EF92FF920F931F932FB73D
:1058B000F894409106095091070960910809709188
:1058C00009092FBF6A017B01EE24FF248C0120E02F
:1058D00030E0C016D106E206F30610F4415051093B
:1058E000481B590BCA011F910F91FF90EF90DF9059
:1058F000CF90089578941F920F920FB60F921124B3
:105900008F939F93AF93BF9380910609909107095E
:10591000A0910809B09109090196A11DB11D8093BC
:10592000060990930709A0930809B0930909BF914C
:10593000AF919F918F910F900FBE0F901F90189570
:105940000E94CB30F8942FEF87EA91E621508040F7
:105950009040E1F700C0000087E090EBDC0180930D
:10596000190990931A09A0931B09B0931C092CE004
:1059700088E190E00FB6F894A895809360000FBE80
:1059800020936000FFCF0E94B22B811102C00E94C1
:10599000982B0E94BD2B8093D3080E94C52B90E0CA
:1059A00090930B0980930A090E94C12B682F70E025
:1059B00080E090E00C94E1288091F5080895089526
:1059C0000F931F93CF93DF9300D01F92CDB7DEB715
:1059D0008C010E941C2F823011F0843021F583E06D
:1059E00089831B830A8382E08093E9008FEF909183
:1059F000E800815095FD06C095ED9A95F1F70000FD
:105A00008111F5CF8091E80085FF0DC040E050E0A6
:105A100063E070E0CE0101960E94392F8091E8008A
:105A20008E778093E8000F900F900F90DF91CF91C9
:105A30001F910F910895CF93DF9300D01F92CDB7A0
:105A4000DEB720911009243029F522E029838058FF
:105A500091099B838A832093E9008FEF9091E8005E
:105A6000815095FD06C095ED9A95F1F700008111E2
:105A7000F5CF8091E80085FF0DC040E050E063E085
:105A800070E0CE0101960E94392F8091E8008E7758
:105A90008093E8000F900F900F90DF91CF910895C1
:105AA000CF93DF93EC010E941C2F823019F08430D9
:105AB00009F047C080913A018823E1F080910A09FA
:105AC00087FF18C083E08093E9008FEF9091E80092
:105AD000815095FD06C095E19A95F1F7000081117E
