:100000000C9422130C9466130C9466130C946613D0
:100010000C9466130C9466130C9466130C9466137C
:100020000C9466130C9466130C9436320C940833BB
:100030000C94032D0C9466130C9466130C946613A5
:100040000C9466130C9466130C9466130C9466134C
:100050000C9466130C946A2D0C9466130C9466131E
:100060000C9466130C9466130C9466130C9466132C
:100070000C9466130C9466130C9466130C9466131C
:100080000C9466130C9466130C9466130C9466130C
:100090000C9466130C9466130C9466130C946613FC
:1000A0000C9466130C9466130C946613491B4F1B37
:1000B000531B561B5A1B5E1B621B661B6B1B6F1B65
:1000C000731B771B7A1B7E1B821B861B8A1B8F1B55
:1000D00078237823B223B223E923602523256025E2
:1000E0000B246025B224B2241C25602560255C25E4
:1000F000BF24BF24BF24BF24BF24BF24BF24BF24E8
:10010000BF24BF24BF24BF24BF24BF24BF24BF24D7
:10011000D124DF24E624ED24F724DC25DC25EF259B
:10012000EF25E525EF25EF25EF25DC25DC25EB2563
:10013000EF25EF25EB256D338F337A348F337A3407
:10014000D133F4337A3449345C34000000000000C9
:100150000800000000001C0000000000081C000057
:1001600000001600000000000816000000001C1629
:1001700000000000081C1600000000000000000045
:100180001500000000001100000000001511000023
:1001900000000F0000000000150F00000000160016
:1001A000000000000F0F000000000A000000000027
:1001B000150A00000000110A000000000A110000EA
:1001C00000000F0A000000000A15000000000700F0
:1001D00000000000070F0000000006000000000003
:1001E00015060000000011060000000011061500B1
:1001F000000013000000000015130000000016139B
:1002000000000000130F00000000050000000000C7
:100210001505000000000A0A00000000050815008E
:100220000000050F0000000015050F000000000091
:10023000000000000F05000000000B00000000009F
:100240001D00000000001900000000001D1100004A
:1002500000001A00000000001D0F00000000160B37
:10026000000000000F19000000000A0B0000000051
:10027000150A0B00000033000000000015330000D9
:1002800000001B000000000000000000000016330A
:10029000000000000F3300000000060B000000000B
:1002A00015060B00000011060B00000015190000D8
:1002B0000000130B00000000000000000000160FFB
:1002C000000000000F060B00000009000000000005
:1002D0001509000000003305000000003305081573
:1002E00000000F0900000000090F00000000331398
:1002F00000000000133300000000170000000000A1
:10030000151700000000111700000000151117005C
:1003100000000F1700000000170F00000000161764
:10032000000000001516170000000E00000000007D
:10033000150E00000000110E000000001117151C22
:1003400000000E0F00000000000000000000160E6C
:10035000000000000F0E0000000006170000000063
:10036000061500000000170C12110000060F000017
:10037000000013170000000000000000000011162C
:10038000170000000F1300000000060E0000000020
:100390000000000000000517000000000508151708
:1003A0000000060E0F000000060E0F1C00000000EB
:1003B00000000000000000000000170B000000001B
:1003C00015170B00000011170B0000001D170B0084
:1003D00000000F170B0000000000000000001119C2
:1003E00000000000161D081500000A0B1700000091
:1003F0001D0E00000000110A170B00003308111732
:1004000000001B170000000000000000000007179C
:100410000B00000011330811170017060B00000035
:10042000000000000000110F1C0000000000000090
:10043000000013170B000000000000000000160F62
:100440001C00000000000000000009170000000070
:100450000917081500000917081100000000000026
:100460000000000000000000000000000000331346
:1004700017000000133308111700160000000000D9
:1004800015160000000011160000000015111600DE
:1004900000000F1600000000150F160000001616D1
:1004A000000000000F0F160000000A1600000000F8
:1004B000150A16000000110A160000000A111600A5
:1004C000000000000000000000000000000007160F
:1004D0000000000000000000000006160000000000
:1004E00015061600000011060816000000000000A6
:1004F000000013160000000015131600000016136C
:1005000016000000130F081600000516000000007A
:100510001505160000000A0A160000000508151649
:100520000000050F08160000000000000000000099
:10053000000000000F05160000000B160000000070
:100540001D16000000001908160000001D111600FD
:1005500000001A08160000001D0F16000000160B00
:10056000081600000F19081600000A0B16000000FC
:1005700000000000000033160000000015331600D4
:1005800000001B08160000000000000000001633E9
:10059000160000000F3316000000070000000000E6
:1005A0001507000000001107000000001D070000F3
:1005B0000000130B16000000150F070000001607BF
:1005C000000000000F0700000000070A0000000004
:1005D0000000000000003305160000003305081578
:1005E00016000000000000000000000000003313AF
:1005F00016000000000000000000171600000000B8
:10060000151716000000111716000000000000006A
:1006100000000F1716000000170F1C00000016172F
:10062000160000001516171600000E160000000038
:10063000150E16000000110E160000001117150C03
:100640000816000000000000000000000000160E68
:10065000160000000F0E160000000617160000001E
:10066000000000000000170C12111600000000002E
:10067000000000000000000000000000000000007A
:10068000000000000F1316000000060E1600000008
:1006900000000000000005171600000005081517EF
:1006A0001600060E0F0816000000000000000000F3
:1006B00000000000000000000000170B1600000002
:1006C00015170B16000011170B1600001D170B163F
:1006D000000000000000000000000000000000001A
:1006E000000000000000000000000A0B17160000C8
:1006F0001D0E16000000110A170B16003308111703
:1007000016000000000000000000000000000717B5
:100710000B16000011330811171607160000000011
:100720001507160000001107160000001D0716002F
:10073000000013170B160000150F0716000000002D
:10074000000000000F07160000000000000000007D
:100750000000000000000000000000000000000099
:100760000000000000000000000000000000331343
:1007700017160000133308111716000000000000C0
:10078000080800000000121200000000120800001B
:1007900000001414000000001408000000001412EF
:1007A00000000000141C00000000181800000000E9
:1007B00018080000000018120000000008181200BD
:1007C000000018140000000008181400000012189F
:1007D00014000000181C000000000C0C00000000B9
:1007E0000C08000000000C1200000000080C1200B1
:1007F00000000C1400000000080C14000000120C93
:10080000140000000C1C000000000C180000000088
:10081000080C180000000C121800000008120C1838
:100820000000140C180000001C08000000001C123E
:10083000000000000812140C180000000000000066
:100840000800000000001200000000000812000074
:100850000000140000000000081400000000121442
:10086000000000001C140000000018000000000040
:1008700008180000000012180000000008121800FC
:1008800000001418000000000814180000001214E2
:10089000180000001C18000000000C000000000000
:1008A000080C00000000120C0000000008120C00F0
:1008B0000000140C0000000008140C0000001214CA
:1008C0000C0000001C0C00000000180C00000000D0
:1008D00008180C00000012180C0000001C0000009A
:1008E000000014180C000000081C00000000121C7E
:1008F000000000001C0000000000000000000000DC
:100900001100000000001500000000000F000000B2
:1009100000001D00000000003300000000001D1555
:10092000000000003315000000000B000000000074
:100930001C0000000000150B000000000F1C000050
:1009400000001D0B00000000331C000000001D0B08
:100950000815000000000000000006000000000074
:100960001A0000000000061500000000060F00003D
:100970000000130000000000131100000000131518
:1009800000000000130F00000000060B0000000034
:10099000061C00000000060B1500000006151C00D8
:1009A0000000130B00000000131C00000000130BDC
:1009B00015000000130B0F000000170000000000DE
:1009C00019000000000017150000000004000000DE
:1009D0000000171D000000000D00000000000000D6
:1009E000000000000D0815000000170B00000000BB
:1009F000171C00000000170B1500000017151C0045
:100A000000000E00000000000E11000000000E1596
:100A1000000000000E0F00000000070000000000B2
:100A200007081900000007150000000007080F0064
:100A30000000071D00000000070833000000070841
:100A40001500000000000000000009000000000088
:100A5000071C00000000091500000000090F00003D
:100A60000000050000000000051C00000000051546
:100A700000000000050F000000001400000000004E
:100A8000141100000000141500000000140F0000F5
:100A90000000141D000000001433000000000000DE
:100AA00000000000140F0F000000140B00000000F5
:100AB000141C0000000014153300000000000000AA
:100AC0000000141D0B0000001411070000000000BE
:100AD00000000000140F33000000140600000000A6
:100AE000141A0000000014061500000014060F0080
:100AF000000014130000000014333300000014132E
:100B00001500000014130F00000014060B00000075
:100B10001406060000001406061500001406060F51
:100B2000000014130B00000000000000000014136C
:100B30000B1500000000000000001417000000006A
:100B40001419000000001417150000001404000020
:100B50000000141717000000140D00000000141707
:100B600017150000140F1D00000014170B000000E3
:100B700014111700000014170B0F000014111715A3
:100B80000000140E0000000014060E11000000000A
:100B9000000000000000000000001407000000003A
:100BA00014071900000014071500000014060400C3
:100BB00000001407070000001407330000001407AA
:100BC000071500001407070F0000140900000000BB
:100BD00014090900000014091500000014090F0091
:100BE000000014050000000014051C00000014059E
:100BF0001500000014050F000000160000000000A2
:100C0000161100000000160815000000160F000065
:100C10000000161D00000000163300000000000058
:100C200000000000000000000000160B00000000A3
:100C3000161C00000000160B15000000160F1C000B
:100C400000000000000000000000000000000000A4
:100C50000000000000000000000016060000000078
:100C60001616000000001606150000000000000027
:100C70000000161300000000000000000000161322
:100C80001500000016130F00000016060B000000F0
:100C90000000000000000000000000000000000054
:100CA000000016130B00000016131C0000000000CB
:100CB0000000000000000000000016170000000007
:100CC0001619000000001617150000001604000099
:100CD00000001B00000000000000000000001B15C9
:100CE00000000000160815190000000000000000B8
:100CF00016171C0000000000000000001617151C4D
:100D00000000160E000000001B1C00000000000088
:100D1000000000000000000000000A0000000000C9
:100D20000A11000000000A15000000000A0F000070
:100D300000000A1D0000000000000000000000008C
:100D4000000000000000000000000A0B000000008E
:100D50000A1C00000000000000000000000000006D
:100D60000000000000000000000000000000000083
:100D70000000000000000000000014160000000049
:100D800014111100000014151500000014160F00B6
:100D900000000000000000001416330000000000F6
:100DA0000000000000000000000014160B0000000E
:100DB00014161C00000000000000000000000000ED
:100DC0000000000000000000000000000000000023
:100DD00000000000000000000000141606000000E3
:100DE000141616000000141606150000140F160045
:100DF0000000141613000000141313000000141355
:100E0000131500001413130F000000000000000071
:100E100000000000000000000000000000000000D2
:100E200000001416130B00001416130B1C00000016
:100E30000000000000000000000014161700000071
:100E400014111900000014151700000014160400F6
:100E50000000141B00000000000000000000000063
:100E6000000000000000000000001416170B000036
:100E7000000000000000000000000000141117082E
:100E8000150014160E000000000000000000000015
:100E900000000000000000000000140A0000000034
:100EA000140A11000000140A15000000140A0F00B3
:100EB0000000140A0A00000014070D000000140AC4
:100EC0000A150000140A0A0F0000140A0B000000A3
:100ED0001409170000001409091500001409090F6E
:100EE00000001405050000000000000000001405CB
:100EF00005150000000000000000000012001800AE
:100F000018000C001800D65CD65C00000000000041
:100F10002B0000000000280000000000000000007E
:100F200000000000000000000000210000000000A0
:100F30000000360200000000000021005000000008
:100F400000002E140000000000002000000000003F
:100F500000002E145000000000002000500000008F
:100F600000002D00000000000000640200000000EE
:100F700000002D005000000000006402500000003E
:100F800000002D1400000000000000000000000020
:100F900000002D145000000000002C005000000044
:100FA00000003602000000000000210036020000B0
:100FB0000000370000000000000021003602DB5C6A
:100FC00000002E143602000000002000360200004F
:100FD00000002E143602DB5C000020003602DB5CD1
:100FE00000002D0036020000000032003702000031
:100FF00000002D003602DB5C000032003702DB5CB3
:1010000000002D1436020000000000000000000067
:1010100000002D143602DB5C000000000000000020
:10102000000010000000000000002100100000007F
:1010300000002E0000000000000021001000DB5C1A
:1010400000002E141000000000002000100000001E
:1010500000002E141000DB5C000020001000DB5CA0
:1010600000002D00100000000000640210000000CD
:1010700000002D001000DB5C000064021000DB5C4F
:1010800000002D141000000000000000000000000F
:1010900000002D141000DB5C0000000000000000C8
:1010A00000003600000000000000210036000000B3
:1010B0000000370037000000000021003600DB5C34
:1010C00000002E1436000000000020003600000052
:1010D00000002E143600DB5C000020003600DB5CD4
:1010E00000002D003600000000000000000000009D
:1010F00000002D003600DB5C000000000000000056
:1011000000002D1436000000000000000000000068
:1011100000002D143600DB5C000000000000000021
:10112000000028000000000000002100280000004E
:10113000000036022800000000000000000000004F
:1011400000002E14280000000000200028000000ED
:10115000000028002E14DC5C0000000000000000ED
:1011600000002D002800000000006402280000009C
:10117000000028002D00DC5C0000000000000000E2
:1011800000002D14280000000000000000000000F6
:10119000000028002D14DC5C0000000000000000AE
:1011A000000036022800000000002100360228005E
:1011B00000003700280000000000000000000000D0
:1011C00000002E14360228000000200036022800FD
:1011D000000000000000000000000000000000000F
:1011E00000002D00360228000000320037022800DF
:1011F00000000000000000000000000000000000EF
:1012000000002D143602280000000000000000003D
:1012100000000000000000000000000000000000CE
:10122000000010002800000000002100100028002D
:1012300000002E0028000000000000000000000058
:1012400000002E14100028000000200010002800CC
:10125000000000000000000000000000000000008E
:1012600000002D001000280000006402100028007B
:1012700000004D00280000000000000000000000F9
:1012800000002D14100028000000000000000000E5
:10129000000000000000000000000000000000004E
:1012A0000000360028000000000021003600280061
:1012B0000000370037002800000000000000000098
:1012C00000002E1436002800000020003600280000
:1012D000000000000000000000000000000000000E
:1012E00000002D0036002800000000000000000073
:1012F00000000000000000000000000000000000EE
:1013000000002D143600280000000000000000003E
:1013100000000000000000000000000000000000CD
:101320000000270200000000000000000000000094
:1013300000001E020000000000000000000000008D
:10134000000000000000000000000000000000009D
:10135000000000000000000000000000000000008D
:1013600000001F020000000000000000000000005C
:10137000000020020000000000000000000000004B
:10138000000000000000000000000000000000005D
:10139000000000000000000000000000000000004D
:1013A000000000000000000000000000000000003D
:1013B000000000000000000000000000000000002D
:1013C000000000000000000000000000000000001D
:1013D000000000000000000000000000000000000D
:1013E00000000000000000000000000000000000FD
:1013F00000000000000000000000000000000000ED
:1014000000000000000000000000000000000000DC
:1014100000000000000000000000000000000000CC
:101420000000210200000000000000000000000099
:101430000000220200000000000000000000000088
:10144000000000000000000000000000000000009C
:10145000000000000000000000000000000000008C
:101460000000230200000000000000000000000057
:101470000000240200000000000000000000000046
:10148000000000000000000000000000000000005C
:10149000000000000000000000000000000000004C
:1014A000000000000000000000000000000000003C
:1014B000000000000000000000000000000000002C
:1014C000000000000000000000000000000000001C
:1014D000000000000000000000000000000000000C
:1014E00000000000000000000000000000000000FC
:1014F00000000000000000000000000000000000EC
:1015000000000000000000000000000000000000DB
:1015100000000000000000000000000000000000CB
:101520000000250200000000000000000000000094
:101530000000260200000000000000000000000083
:10154000000000000000000000000000000000009B
:10155000000000000000000000000000000000008B
:1015600000001E0227020000000000000000000032
:1015700000001E021E02000000000000000000002B
:10158000000000000000000000000000000000005B
:10159000000000000000000000000000000000004B
:1015A000000000000000000000000000000000003B
:1015B000000000000000000000000000000000002B
:1015C000000000000000000000000000000000001B
:1015D000000000000000000000000000000000000B
:1015E00000000000000000000000000000000000FB
:1015F00000000000000000000000000000000000EB
:1016000000000000000000000000000000000000DA
:1016100000000000000000000000000000000000CA
:1016200000001E021F020000000000000000000079
:1016300000001E0220020000000000000000000068
:10164000000000000000000000000000000000009A
:10165000000000000000000000000000000000008A
:1016600000001E0221020000000000000000000037
:1016700000001E0222020000000000000000000026
:10168000000000000000000000000000000000005A
:10169000000000000000000000000000000000004A
:1016A000000000000000000000000000000000003A
:1016B000000000000000000000000000000000002A
:1016C000000000000000000000000000000000001A
:1016D000000000000000000000000000000000000A
:1016E00000000000000000000000000000000000FA
:1016F00000000000000000000000000000000000EA
:1017000000000000000000000000000000000000D9
:1017100000000000000000000000000000000000C9
:101720000000000000000000000021000000000098
:1017300000002C000000000000002B000000000052
:101740000000211400000000000020000000000044
:101750000000640200000000000064026402000057
:1017600000002200000000000000640000000000F3
:101770000000230064020000000064006400000018
:101780000000221400000000000000000000000023
:101790000000100200000000000020140000000003
:1017A00000002E02000000000000241400000000D1
:1017B00000001F14000000000000360200000000BE
:1017C00000002E022E0200000000000000000000B9
:1017D00000001E000000000000001E001E000000AF
:1017E00000002514000000000000000000000000C0
:1017F000000025142514000000002714000000003C
:1018000000000000000000000000000000000000D8
:1018100000000000000000000000000000000000C8
:101820000000230000000000000000000000000095
:1018300000002E000000000000003000000000004A
:1018400000003702000000000000370237020000ED
:1018500000002614000000000000370237023702A3
:101860000000230023000000000000000000000032
:1018700000002500000000000000300022000000F1
:1018800000003702320000000000000000000000ED
:101890000000370232003200000037023702370200
:1018A00064003200000000000000000000000000A2
:1018B0000000380000000000000036023200000086
:1018C00000003200370200000000000000000000AD
:1018D00000000000000000000000300021140000A3
:1018E00000003200220000000000000000000000A4
:1018F0000000231400000000000032003602320015
:1019000000003402000000000000000000000000A1
:101910000000231423140000000000000000000059
:101920000000DA5C00000000000000000000000081
:1019300000004D024C00000000000000000000000C
:101940000000000000000000000000000000000097
:101950000000000000000000000000000000000087
:101960000000000000000000000000000000000077
:101970000000000000000000000000000000000067
:101980000000000000000000000000000000000057
:101990000000000000000000000000000000000047
:1019A0000000000000000000000000000000000037
:1019B0000000000000000000000000000000000027
:1019C0000000000000000000000000000000000017
:1019D0000000000000000000000000000000000007
:1019E00000000000000000000000000000000000F7
:1019F00000000000000000000000000000000000E7
:101A000000000000000000000000000000000000D6
:101A100000000000000000000000000000000000C6
:101A20000000DA5CDA5C000000000000000000004A
:101A300000000000000000000000000000000000A6
:101A40000000000000000000000000000000000096
:101A50000000000000000000000000000000000086
:101A600000004A024C0000000000000000000000DE
:101A700000004A004D024C00000000000000000081
:101A80000000000000000000000000000000000056
:101A90000000000000000000000000000000000046
:101AA00000003200320000000000000000000000D2
:101AB0000000000000000000000000000000000026
:101AC0000000000000000000000000000000000016
:101AD0000000000000000000000000000000000006
:101AE00000000000000000000000000000000000F6
:101AF00000000000000000000000000000000000E6
:101B000000000000000000000000000000000000D5
:101B100000000000000000000000000000000000C5
:101B2000000027020000000000000000000000008C
:101B300000001E020000000000002900000000005C
:101B40000000211427020000000000000000000037
:101B50000000000000000000000000000000000085
:101B600000001F0200000000000000000000000054
:101B70000000200200000000000000000000000043
:101B800000002214270200000000000000000000F6
:101B90000000000000000000000000000000000045
:101BA0000000000000000000000000000000000035
:101BB0000000000000000000000000000000000025
:101BC0000000000000000000000000000000000015
:101BD0000000000000000000000000000000000005
:101BE00000002200270200000000000000000000AA
:101BF00000000000000000000000000000000000E5
:101C000000000000000000000000000000000000D4
:101C100000000000000000000000000000000000C4
:101C20000000210200000000000000000000000091
:101C30000000220200000000000000000000000080
:101C40000000000000000000000000000000000094
:101C50000000000000000000000000000000000084
:101C6000000023020000000000000000000000004F
:101C7000000024020000000000000000000000003E
:101C80000000000000000000000000000000000054
:101C90000000000000000000000000000000000044
:101CA0000000000000000000000000000000000034
:101CB0000000000000000000000000000000000024
:101CC0000000000000000000000000000000000014
:101CD0000000000000000000000000000000000004
:101CE00000000000000000000000000000000000F4
:101CF00000000000000000000000000000000000E4
:101D000000000000000000000000000000000000D3
:101D100000000000000000000000000000000000C3
:101D2000000025020000000000000000000000008C
:101D3000000026020000000000000000000000007B
:101D40000000000000000000000000000000000093
:101D50000000000000000000000000000000000083
:101D600000001E022702000000000000000000002A
:101D700000001E021E020000000000000000000023
:101D80000000000000000000000000000000000053
:101D90000000000000000000000000000000000043
:101DA0000000000000000000000000000000000033
:101DB0000000000000000000000000000000000023
:101DC0000000000000000000000000000000000013
:101DD0000000000000000000000000000000000003
:101DE00000000000000000000000000000000000F3
:101DF00000000000000000000000000000000000E3
:101E000000000000000000000000000000000000D2
:101E100000000000000000000000000000000000C2
:101E200000001E021F020000000000000000000071
:101E300000001E0220020000000000000000000060
:101E40000000000000000000000000000000000092
:101E50000000000000000000000000000000000082
:101E600000001E022102000000000000000000002F
:101E700000001E022202000000000000000000001E
:101E80000000000000000000000000000000000052
:101E90000000000000000000000000000000000042
:101EA0000000000000000000000000000000000032
:101EB0000000000000000000000000000000000022
:101EC0000000000000000000000000000000000012
:101ED0000000000000000000000000000000000002
:101EE00000000000000000000000000000000000F2
:101EF00000000000000000000000000000000000E2
:101F000000000000000000000000000000000000D1
:101F100000000000000000000000000000000000C1
:101F2000000000000000000008001500000008008C
:101F3000150000000C0011000A0008001500000048
:101F40000C0011000A000C0011000A0021003300EF
:101F50000000210016000000210007000000210001
:101F60001900080021001500080021000F000F00D3
:101F70000000000000001100210017000000000018
:101F8000000007000000000000000000000000004A
:101F90000000000000000000000000000000000041
:101FA00000000000000011002100170000000000E8
:101FB000000007000000000000000000000000001A
:101FC0000000000000000000000000000000000011
:101FD0000000000000000000000000000000000001
:101FE00000000000CE5CCE5CD05CCE5CD05CD05CEF
:101FF000D15CCE5CCD5CCF5C0000D15C0000000009
:102000000000D45C000000000000000000000000A0
:102010000000D05C00000000000000000000000094
:1020200000000000000000000000000000000000B0
:1020300000000000000000000000000000000000A0
:102040000000D55C0000000000000000000000005F
:102050000000000000000000000000000000000080
:1020600000001E0030002B00D75CE00000002214AE
:10207000040014001A001E00035121141D00150055
:102080001B00E2002A002E14090016000600520070
:1020900028002200130017001900510046002E00EE
:1020A0000A000700050000000451E3004900000099
:1020B00029000000045301532A00000028000000FA
:1020C000045332000D000B000E00000004512D00DF
:1020D0000F0011003300500000002E02180008000D
:1020E00010004F002C002D141C000C00360225148B
:1020F0004C00380036001200210027140351201430
:1021000037022300D75CE40000003A00E200E00060
:10211000CC5CCC5C00003B002B00CC5CCC5CCC5C91
:10212000CC5C3C002900CC5CCC5CCC5CCC5C3D0045
:10213000CC5CCC5CCC5C0100CC5C3E00CC5CCC5C70
:10214000CC5C0100CC5C3F00CC5CCC5CCC5C000087
:10215000CC5CE300CC5C0000CC5C0000CC5C0100FB
:10216000CC5C0000CC5C0000CC5C4000CC5CCC5C67
:10217000CC5C0000CC5C4100CC5CCC5CCC5C010055
:10218000CC5C4200CC5CCC5CCC5C0100CC5C430001
:102190002A00CC5CCC5CCC5CCC5C44004C00CC5CBD
:1021A000CC5CCC5CCC5C4500E600E400CC5CCC5C58
:1021B00000003400D85C0100010001000000240090
:1021C00001000100010034000100220001000100B3
:1021D00001000100010020000100010001000100D8
:1021E00001001E00010001000100010001002600A5
:1021F00001000100010000000100010001000000D9
:1022000001000000010000000100000001000000CA
:1022100001002700010001000100000001001F0073
:102220000100010001000100010021000100010086
:10223000D85C01000100230001000100D85CD85CDB
:1022400001002500D85C0100D85CD85C0100D85C96
:102250001000D85C01000100000000000000000038
:102260000000000000000000000027000000000047
:10227000010000000000000000000000000000005D
:102280000000000026000000000000000000000028
:10229000000000000000000000000000000000003E
:1022A000000000000000000000000000000000002E
:1022B00000000000000000000000000000002400FA
:1022C000000000000000000000001F0000000000EF
:1022D000000000003400D95C000000000000000095
:1022E0000000D95C00000000000000002F02D95C53
:1022F00000000000010000000000000000000000DD
:1023000000003A0001000100E100010000003B0074
:10231000010001000100010001003C00010001007A
:102320000100010001003D000100010001004B001F
:1023300001003E000100010001004E0001003F00CD
:1023400001000100010000000100005C010000002C
:102350000100000001000000010000000100000079
:1023600001004000010001000100000001004100E7
:102370000100010001004A000100420001000100CB
:1023800001004D00010043000100010001000100B7
:1023900001004400010001000100010001004500AE
:1023A00001000100E5000100000000000000000045
:1023B00000000000000015000080140000800000F4
:1023C000000000000000000000002100008022004A
:1023D0000080130000804200008000000000000028
:1023E00000002000008036000080370000804000A0
:1023F00000800000000012000080340000803500E2
:1024000000800000000001000080000000001100BA
:102410000080320000803300008000000000410096
:1024200000800000000010000080300000803100BB
:10243000008000000000000000800000000081001B
:10244000008000000000000000800000000000008C
:102450000080000000000200008000000000020078
:1024600000800000000000000080000000007000FC
:10247000008050000080510000800000000000003B
:1024800000800000000071000080520000805300B6
:102490000080000000004200008000000000720088
:1024A0000080540000805500008000000000010002
:1024B0000080000000000000000073000080560053
:1024C00000805700008044000080000000000000F1
:1024D0000000740000806000008061000080430004
:1024E000008000000000000000000000000062000A
:1024F00000806200008000000000160345007200AA
:1025000067006F0044006F007800200045005A000B
:10251000000016034500720067006F0044006F0062
:102520007800200045005A00000004030904090255
:102530005400030100A0FA09040000010301010096
:102540000921110100012240000705810308000A4A
:10255000090401000103000000092111010001220A
:1025600036000705820308000A090402000103007F
:102570000000092111010001223900070583032011
:1025800000011201100100000008EDFE0713010018
:102590000102000105010906A101050719E029E76B
:1025A0001500250195087501810205081901290505
:1025B00095057501910295017503910105071900B3
:1025C00029F71500250195F875018102C00501095B
:1025D00080A10185021601002603001A81002A83CA
:1025E00000751095018100C0050C0901A10185034A
:1025F000160100269C021A01002A9C027510950102
:102600008100C005010906A101050719E029E715A8
:102610000025019508750181029501750881010564
:102620000819012905950575019102950175039118
:10263000010507190029FF150026FF0095067508FA
:102640008100C00011241FBECFEFDAE0DEBFCDBF96
:1026500004B603FE24C080910E0990910F09A09149
:102660001009B09111098730904BA740B04BB9F4D5
:1026700010920E0910920F09109210091092110970
:1026800014BE84B7877F84BF88E10FB6F894809327
:102690006000109260000FBEE0E0FFE3099512E0D9
:1026A000A0E0B1E0E4E0FAE602C005900D92A432A9
:1026B000B107D9F719E0A4E2B2E001C01D92AE3033
:1026C000B107E1F70E946A2F0C9400350C940000CA
:1026D0001092B9008AE08093B800089594EA90932C
:1026E000BC009091BC0097FFFCCF9091B900987FFF
:1026F000983021F0903111F081E008958093BB0073
:1027000084E88093BC008091BC0087FFFCCF80915F
:10271000B900887F883111F0803471F780E0089526
:1027200084E98093BC008091BC0084FDFCCF0895B7
:102730008093BB0084E88093BC008091BC0087FF3D
:10274000FCCF9091B900987F81E0983209F480E045
:10275000089584E88093BC008091BC0087FFFCCF83
:102760008091BB00089580B38C7080BB81B3836F70
:1027700081BB089580912901811115C080E40E94D8
:102780006E138093290181110CC082E10E9498137D
:1027900080932901811105C08FEF0E9498138093C7
:1027A00029010E94901384B1807F84B985B1807F14
:1027B00085B98AB1837F8AB98BB1837F8BB93E9803
:1027C0004698089508950C94CB1A0E94411F809357
:1027D00029010E94BA130E94B313E3E3F2E0A5E2D9
:1027E000B2E011921D9282E0E134F807D1F70C9427
:1027F0004A1C0E94411F809329010E94BA130E9423
:10280000B313E3E3F2E0A5E2B2E011921D9282E09D
:10281000E134F807D1F708958F929F92BF92CF923B
:10282000DF92EF92FF920F931F93CF93DF931F924C
:10283000CDB7DEB780912901882379F080912402F9
:102840008F5F80932402811108C00E94411F8093F2
:102850002901811102C00E94D31E05E212E0812CE1
:10286000912CEE24E394F12CDD24D39495E0C92E31
:10287000282D273030F580912901811142C080E454
:1028800089820E946E13809329012981811114C0CD
:1028900082E10E94981380932901298181110CC043
:1028A000C701082C01C0880F0A94EAF780950E949E
:1028B000981380932901298129830E9490132981EB
:1028C00020C02A30A1F028F4283059F0293061F0D6
:1028D00005C02C3089F070F02D3089F0209A2898AE
:1028E00010C0219A29980DC0229A2A980AC0239ACA
:1028F0002B9807C0529A01C0539A5B9802C03E9A27
:10290000469830EA3A95F1F7273018F58091290179
:10291000811144C080E40E946E13809329018823B2
:1029200011F0B12C12C083E10E9498138093290109
:102930008111F7CF81E40E946E13809329018111E8
:10294000F0CF0E94A913B82EB0940E9490138B2D43
:1029500026C08FB181708D25799B02C090E001C0A7
:1029600092E0892B7C9B02C090E001C094E0892B0F
:102970007D9B02C090E001C098E0892B7E9B02C045
:1029800090E001C090E1892B9FB19095991F992704
:10299000991F9295990F907E892B01C080E0F801D4
:1029A0009081981719F08083C09200010E94BA1399
:1029B000FFEF8F1A9F0A0F5F1F4F3EE083169104AF
:1029C00009F056CF809100018823A1F081508093B7
:1029D0000001882329F085E08A95F1F700000AC0FC
:1029E000A3E3B2E0E5E2F2E081918D9332E0E333DC
:1029F000F307D1F70E944C1C81E00F90DF91CF913B
:102A00001F910F91FF90EF90DF90CF90BF909F901C
:102A10008F900895E82FF0E0ED5CFD4F80810895E0
:102A20000895FC0191819F7081E009F480E0089590
:102A3000262F30E0FC017081A72FA770EA2FF0E06D
:102A4000E630F1059CF5662389F1EE0FFF1F319604
:102A5000E80FF91F40814F70E1F46F709081907F13
:102A6000962B292F22952F703181832F8370829589
:102A7000807F822B8F5F282F2F738295807F9F709E
:102A8000982B908322952F70832F8C7F822B8183AC
:102A9000089550E04217530701F351E05A0F577061
:102AA000472F487F452BFC014083C4CF0895CF9327
:102AB0006D3481F018F4683239F004C0603531F0BB
:102AC000623531F0C1E007C0C4E005C0C2E003C018
:102AD000C3E001C0C0E06C2F0E9418158C2FCF916D
:102AE000089520E030E050E0F901EE0FFF1FE80FFD
:102AF000F91FDF0111967181472F4F7046130AC0ED
:102B000072957F7011964C9143704295407F472B90
:102B1000540F02C0442329F02F5F3F4F2630310568
:102B200019F7852F08958091630790916407A0910C
:102B30006507B0916607892B8A2B8B2B69F481E09E
:102B400040915F0750916007609161077091620743
:102B5000452B462B472B09F080E08170089580318A
:102B600041F09CEF980F9A3110F481E0089583337F
:102B7000E1F380E008950F931F93CF93DF931F92AB
:102B8000CDB7DEB7182F69830E94B72B082F812F8E
:102B90000E94C72B6981862F0E941322802F0F90DD
:102BA000DF91CF911F910F910C94C72B1092670763
:102BB000E8E6F7E0108212821182339688E0E8326C
:102BC000F807C1F7089590916707292F30E0F901C0
:102BD000EE0FFF1FE20FF31FE859F84F8083728357
:102BE00061839F5F9093670708952F923F924F9262
:102BF0005F926F927F928F929F92AF92BF92CF928D
:102C0000DF92EF92FF920F931F93CF93DF93CDB795
:102C1000DEB760970FB6F894DEBF0FBECDBF0E943F
:102C2000D6150E94B72B8E8782E10E94C02B80911F
:102C3000ED08887F8093ED0880E090E0FC01EE0FC6
:102C4000FF1FE251F74F108221812C7F21830196D3
:102C50008630910599F780915607282F2170622EB2
:102C6000982F92709F8782FB882480F890905A0753
:102C70008091580782FF0CC08091570783FF08C0DE
:102C8000877F809357078091590780688093590701
:102C900027E1422E21E0522EA6E5B7E0BD87AC87A2
:102CA00000E010E021E02B87E12CF12CAC85BD8504
:102CB0008D91BD87AC87882309F41FC121E02B8744
:102CC0000115110509F01B86D201ED91FC91D80187
:102CD000A95CBE4F9C910430110529F4662041F196
:102CE000EAE7F7E025C003301105D9F4911005C0DB
:102CF000662019F094E0E2E2F7E1B2E1EB16F104AC
:102D000049F028E1E216F10429F066EDE6166CE5DB
:102D1000F60671F4282F2074220F8F77822B80649F
:102D200007C00530110521F4911002C0611023C3C2
:102D3000309709F4E2C0923009F477C018F491306A
:102D400041F0DBC0933009F4BCC0943009F415C3E2
:102D5000D4C0E80FF11DE80FF11D85919491009703
:102D600009F4CBC001301105A9F5843DACE59A0703
:102D700089F0853DBCE59B07B1F4A3EDBCE5B093BC
:102D80001601A0931501EFECFCE5F0931401E0931C
:102D90001301B3C0E2EDFCE5F0931601E0931501D9
:102DA0008DEC9CE506C09C012D5C3C452530310531
:102DB00028F490931401809313019FC09C01225D1D
:102DC0003C452230310508F098C09093160180935D
:102DD000150193C00230110509F08FC08C309105A8
:102DE00049F4809159078064809359079CE0E92E4B
:102DF000F12C83C08231910519F08831910531F4AD
:102E00002091590720682093590776C0863DFCE53C
:102E10009F0709F071C0809159078064809359071A
:102E200086EDE82E8CE5F82E68C01F0126E0829F13
:102E3000200C311C1124A12CB12C7E2CF101EA0DA7
:102E4000FB1D9491992309F458C00330110591F4A6
:102E5000943181F4E114F10469F06CECE6166CE550
:102E6000F60610F4972D06C086EDE8168CE5F806F8
:102E700009F498E1C92ED12CB60182E0988B0E940A
:102E8000E3159889943039F4992029F068E170E0CD
:102E900082E00E94E3159F85992351F005301105CA
:102EA00039F4A114B10421F4B60182E00E94E315C3
:102EB000AFEFAA1ABA0AB6E0AB16B10409F0BECF5A
:102EC0001CC06F0126E0829FC00CD11C1124A12CD4
:102ED000B12CF601EA0DFB1D659174916115710528
:102EE00061F083E00E94E31562E0A60EB11C86E06B
:102EF000A816B10471F701C07C010F5F1F4FB2E04B
:102F00004B0E511C0930110509F0D0CE40916707D6
:102F1000411110C081100CC08091130190911401D7
:102F20008E3C9C4508F445C082E00E94BA2B41C00B
:102F30006110F2CF8091150190911601823DFCE560
:102F40009F0751F0833D9C4519F000E010E006C05A
:102F5000F82C00E010E003C00CE210E0F12C442358
:102F6000E1F02091690730916A0726333105F1F0CD
:102F700050F420313105D1F080F02852310922304F
:102F8000310558F413C02D34310581F0263362E049
:102F9000360761F02A34310549F00115110531F089
:102FA000882009F4DBC1442309F4D6C1FF2009F4C9
:102FB000B3CF212C312CAAE09A2ECE0101967C01B0
:102FC000B0E5CB2ED12C5E019BE0A90EB11C809107
:102FD0006707281608F0B4C0822D90E02C01440C3D
:102FE000551C480E591ED201A859B84F2D018C917D
:102FF000833099F0843081F1823009F087C01196D6
:103000008C910E941322F20181810E94DB2261E0F7
:103010008DEE98E00E9418151DC011961C91119715
:1030200012960C91812F0E94AF15882321F0812FD9
:103030000E94132204C0612F802F0E94BB15812F94
:103040000E94DB22612F8DEE98E00E94571581309F
:1030500009F05CC033945AC0F701292D11922A95CA
:10306000E9F711960D911C9112970B3DBCE51B07DA
:1030700091F00C3DECE51E0799F00A3DFCE51F07B9
:10308000E1F480E593E09A838983AAE2B0E0BC830F
:10309000AB83270134C0DA82C982DC82CB82F9CFCC
:1030A000E2E5F0E0FA83E9838DE490E09C838B8392
:1030B000A8E2B0E0BE83AD83ECCF602F812F0E94E9
:1030C000BB15802F0E94DB22602F8DEE98E00E94BE
:1030D00057158130F1F63394DCCF602F812F0E9499
:1030E000BB15802F0E94DB22602F8DEE98E00E949E
:1030F0005715813009F433944A145B0439F0F20116
:10310000019111912F010115110539F7F1E03F12DD
:1031100015C080911301909114018E3C2CE592070B
:1031200021F08F3C9C4539F009C08DEC9CE59093D3
:1031300014018093130182E00E94C02B239447CF97
:10314000332081F08091130190911401803D9C45C2
:1031500049F48DEC9CE5909314018093130182E077
:103160000E94C02B8DEE98E00E9411158823C9F0B3
:1031700080914102843611F4109241023091410253
:1031800081E0830F809341022DE03203D0011124AE
:10319000AE5BBD4FEDEEF8E001900D922A95E1F7A0
:1031A000D0C0662009F4CDC0709041027A9477FEB9
:1031B00002C0E3E67E2EB72DEDE0BE0280011124B1
:1031C0000E5B1D4FC8010E941115882309F4B1C080
:1031D000882009F441C08AE20E9413228AE20E94F8
:1031E000DB22D8012C91277080E090E030E0F901DB
:1031F000E81BF90BEE0FFF1FE00FF11FDF01119627
:103200004181542F5F705130C9F442954F7011962F
:103210002C911197822F83708295807F842B815C03
:10322000982F9F738295807F81608C9392959F7079
:10323000822F8C7F892B11968C9307C00196A90150
:10324000481B590B4F3F5F4F91F661E0C8010E9448
:103250007115811176C06AC02B85222309F471C0D3
:10326000D8018C918770A82EB12C7501EE0CFF1C33
:10327000E00EF11E00E010E0BFEFEB1AFB0AC80100
:10328000880F991F4701881A990AC12CD12CD401A3
:103290008C91982F92959F7011962C912370229566
:1032A000207F292B30E0C216D306C4F58F7090E042
:1032B0008230910521F13CF4019761F58AE20E9488
:1032C00013228AE225C083309105F1F0049711F5AD
:1032D00081EE0E94132282E50E94132282E50E9461
:1032E000DB228DE40E9413228DE40E94DB2281EE1A
:1032F0000E94DB228CE40E9413228CE409C08FE43C
:103300000E9413228FE404C081E50E94132281E50C
:103310000E94DB22EFEFCE1ADE0AB9CF0F5F1F4FFC
:10332000C501801B910B019609F0A9CF7092410253
:1033300008C0882031F08AE20E9413228AE20E94AB
:10334000DB228E850E94C72BE6E5F7E0119227E08D
:10335000EF35F207D9F72DC0611028CE602F80E03D
:103360000E94BB15802F0E94DB2261E08DEE98E069
:103370000E9418151BCEE2E2FFE06F0168E0869F15
:10338000C00CD11C1124A12CB12CF601EA0DFB1D9F
:10339000659174916115710509F4AFCD84E00E94C7
:1033A000E31592E0A90EB11CA8E0AA16B10469F7D2
:1033B000A4CD60960FB6F894DEBF0FBECDBFDF91EF
:1033C000CF911F910F91FF90EF90DF90CF90BF9022
:1033D000AF909F908F907F906F905F904F903F90B5
:1033E0002F900895CF92DF92EF92FF920F931F9349
:1033F000CF93DF93EB01873D2CE5920709F47AC068
:1034000020F48C3C9C4559F0BBC0883D2CE59207CC
:1034100009F486C0893D9C4509F49CC0B1C08881EF
:10342000E98196E0E99FF0011124E80FF11DEE0F0C
:10343000FF1FEE0FFF1FE655FC4D85919591A5915D
:10344000B491B7FF65C09C012F70332741E050E075
:1034500060E070E004C0440F551F661F771F2A9577
:10346000D2F724E0B695A795979587952A95D1F739
:103470008F7090E0DC01A05CBE4FFC01EE0FFF1FDF
:10348000EF5FFE4F0190F081E02DCA816A017B0160
:103490000C9004C0CC0CDD1CEE1CFF1C0A94D2F76F
:1034A0000081118122813381CC2379F00C291D29DF
:1034B0002E293F290083118322833383FC01EA5A9A
:1034C000F84F8081842B808323C0B701A6014095EB
:1034D0005095609570954023512362237323408358
:1034E0005183628373830E949315882389F00E941D
:1034F000F51547C08981811102C081EE01C085EEBA
:10350000CA81CC2339F00E94132282E00E942A2A29
:10351000C0E037C00E94DB2282E00E94452A31C011
:103520006881798180E00E94641C62E170E00E9401
:10353000B034FC01EE0FFF1FE75BFE4F608181811D
:10354000CA81CC2319F00E94BB15E2CF862F0E94BE
:10355000DB2217C08A818823D9F26881798180E0D3
:103560000E94641CC82F8FE20E9413228FE20E94E7
:10357000DB228C2F0E9413228C2F0E94DB22C8CFCB
:10358000C1E08C2FDF91CF911F910F91FF90EF90B1
:10359000DF90CF90089560919B0870919C08809176
:1035A0009D0890919E080E94352C25982D9826986C
:1035B0002E9827982F98813029F0843029F4269A64
:1035C0002E9A02C0259A2D9A0E949315811102C04D
:1035D000279A2F9A089581E008950C94F2190E9479
:1035E000CA252FEF84E39CE0215080409040E1F712
:1035F00000C000000C94902D0F931F93CF93DF9386
:103600008C01FC01C081D181CE010E94B62ABE018D
:103610000E94641CEC01B8010E94ED1A882309F491
:1036200033C1B801CE010E94871E882309F42CC142
:10363000B801CE010E94901F882309F425C1C5312D
:10364000FCE5DF0708F0A3C0C2308CE5D80708F41A
:1036500078C0F8018281882309F47FC00E94A22CDF
:10366000811102C00E94882C0E94B52C90E090939A
:1036700000098093FF08FE01E350FC45E231F105AB
:1036800020F4EA5AFF4F0C94C4348091FF08816003
:1036900003C08091FF0882608093FF084BC0809137
:1036A000FF088460F9CF8091FF0813C08091FF0864
:1036B0008061F2CF8091FF088062EECF8091FF0899
:1036C0008064EACF8091FF088068E6CF8091FF0890
:1036D00084608860E1CF8091FF088E7FDDCF80918C
:1036E000FF088D7FD9CF8091FF088B7FD5CF809148
:1036F000FF0813C08091FF088F7ECECF8091FF0816
:103700008F7DCACF8091FF088F7BC6CF8091FF0845
:103710008F77C2CF8091FF088B7F877FBDCF90913D
:10372000FF0897FB882780F921E0822780FB97F923
:103730009093FF088091FF080E94B92C0E94CA252F
:10374000A3C0C115ECE5DE0779F0C130DC45A1F07E
:1037500081E080932C0880932D08C801DF91CF91E0
:103760001F910F910C94EB1AF8018281882309F4C0
:103770008BC00E94EF1A88C0F8018281882309F467
:1037800083C08091C80881608093C8087DC0C73C11
:103790008CE5D80781F5F8018281882361F01092C9
:1037A0002D080E94352D90932B0880932A0880E2E3
:1037B0000E942A2369C00E94B72B81FF05C081E0C7
:1037C00080932C0880932D0880912D0881110FC0C3
:1037D00080912A0890912B080E94412D883C9105E8
:1037E00030F487E20E94132287E20E94DB2280E20B
:1037F0000E94312349C0C83CECE5DE0780F5C63C99
:10380000DC4509F0A5CFF8018281882351F01092A0
:103810002C080E94352D909329088093280882E077
:10382000C7CF0E94B72B85FF05C081E080932C088D
:1038300080932D0880912C0881110FC08091280859
:10384000909129080E94412D883C910530F486E230
:103850000E94132286E20E94DB2282E0C9CFCA3C8A
:103860008CE5D80731F4F8018281882369F080E083
:1038700009C0CB3CDC4509F06BCFF801828188237D
:1038800019F082E00E94FC2F80E0DF91CF911F9120
:103890000F9108950C942B1F0C94E313282F882369
:1038A00039F090E02A3010F44D9608950697089567
:1038B00087E290E0089508950C945B1C0C945C1CC6
:1038C00080E090E00895089596E0799FF00111243A
:1038D00094E5899FE00DF11D1124E60FF11DEE0F17
:1038E000FF1FEE59FF4D859194910895880F991F00
:1038F0008E599F4DFC018591949108950E94641CFE
:103900000E940A1E811520E49207B0F5811540E35C
:10391000940708F0DBC0803E9105D8F4803C910507
:1039200008F069C0883A910578F4853A910508F065
:1039300065C08130910509F46CC108F423C184305D
:10394000910508F066C11EC18D3B910508F461C068
:1039500019C18F3F910509F048F4803F910508F0A7
:10396000AFC0883E910508F454C10CC1811520E216
:10397000920708F0A7C00895811544E59407D8F48C
:10398000811523E5920708F0DCC0811541E5940715
:1039900040F4811520E5920708F0A2C09F70906A5C
:1039A0000895811542E5940708F0B6C0982F88273E
:1039B000816F906A0895811526E5920750F481156C
:1039C00045E5940708F0D2C0982F8827846F906A45
:1039D0000895811528E5920708F4D4C0811549E5BA
:1039E000940708F4C8C09C0130562115304208F0F5
:1039F000C9C09F71C5C0805C910965C0853A9105B9
:103A000009F4C3C0863A910509F4C2C083E890E482
:103A10000895883A910509F4BEC0893A910509F4E0
:103A2000BDC08A3A910509F4BCC08B3A910509F4EE
:103A3000BBC08C3A910509F4BAC08B3B910509F4DF
:103A4000B9C08C3B910509F4B8C08D3A910509F4D1
:103A5000B7C0803B910509F4B6C08E3A910509F4D0
:103A6000B5C08F3A910509F4B4C0813B910509F4C2
:103A7000B3C0823B910509F4B2C0833B910509F4C0
:103A8000B1C0843B910509F4B0C0853B910509F4B0
:103A9000AFC0863B910509F4AEC0873B910509F4A0
:103AA000ADC0883B910509F4ACC0893B910509F490
:103AB000ABC08A3B910509F0AAC08AE296E408955A
:103AC000906508959F700E94761C08959C0133278D
:103AD00093FF03C0C901986C0895C901906C0895C3
:103AE000482F437021E030E002C0220F331F4A9577
:103AF000E2F73C68AC0174E0569547957A95E1F79A
:103B00004370342B8F708695869540E2849FC00168
:103B10001124822B932B0895282F2695269540E279
:103B2000249F90011124AC014370552781E090E05F
:103B300002C0880F991F4A95E2F7822B932B9C684D
:103B40000895282F2695269540E2249F9001112460
:103B5000AC014370552781E090E002C0880F991FA7
:103B60004A95E2F7822B932B9A6808958F719927D3
:103B7000982F882705C0982F8827806F906A08950E
:103B80009062089580E090E0089581E890E40895BF
:103B900082E890E4089582EE94E4089589EE94E436
:103BA00008958AEE94E4089585EB94E4089586EBF5
:103BB00094E4089583EB94E4089584EB94E40895E9
:103BC00087EB94E408958CEC94E408958DEC94E4F0
:103BD000089583E895E408958AE895E4089582E9D4
:103BE00095E4089584E995E4089581E296E40895C2
:103BF00083E296E4089584E296E4089585E296E4EB
:103C0000089586E296E4089587E296E4089580E0B8
:103C100094E408958238910549F1B0F48133910517
:103C200009F459C048F48932910509F44FC08A3229
:103C3000910509F455C008958533910509F441C0F3
:103C40008933910599F00895833E910531F138F457
:103C5000803E910591F0823E9105A9F00895863E3F
:103C6000910501F1873E910539F108952091FF08F2
:103C700020FD3BC021FD39C008958091FF0880FFE1
:103C800034C089E341C08091FF0882FF32C0809137
:103C9000FF0884FF2CC080E037C08091FF0882FDC0
:103CA00028C0F5CF8091FF0883FF25C08091FF08D1
:103CB00084FDF1CF87EE28C08091FF0883FD1BC0F3
:103CC000F5CF8091FF0885FF18C019C08091FF08CB
:103CD00085FF15C012C08091FF0886FF12C013C077
:103CE0008091FF0886FF0FC00CC080EE0DC083EEF0
:103CF0000BC082EE09C086EE07C085E305C089E2ED
:103D000003C081E301C08AE290E008950895CF9353
:103D1000DF93EC01FB018281811102C081E040C090
:103D200080913B08811125C0C531DC45B9F70E945F
:103D3000861E81E080933B080E94352D90933A08BF
:103D40008093390810922E081092300810922F0894
:103D500010923208109231081092340810923308F1
:103D600010923608109235081092380810923708D1
:103D700016C08091390890913A080E94412D883CE4
:103D8000910560F680912E08E82FF0E0EE0FFF1FFE
:103D9000E15DF74FD183C0838F5F80932E0880E071
:103DA000DF91CF91089556985E9825982D98269882
:103DB0002E9827982F988FEF90E09093890080930A
:103DC000880090938B0080938A0090938D0080935D
:103DD0008C00259A2D9A2FEF80E792E021508040A9
:103DE0009040E1F700C00000269A2E9A2FEF80E75E
:103DF00092E0215080409040E1F700C00000279AF7
:103E00002F9A2FEF80E792E0215080409040E1F719
:103E100000C0000025982D982FEF80E792E02150F8
:103E200080409040E1F700C0000026982E982FEFC8
:103E300080E792E0215080409040E1F700C0000010
:103E400027982F9856985E9825982D9826982E9802
:103E500027982F98089589EA8093800089E08093BD
:103E6000810024982C983F988AB18F7C8AB96E98EB
:103E7000479A8BB180638BB9769A0E94D31E0C94BB
:103E8000E21380E28093290180913C0881110EC0E9
:103E90000E94681381E080933C082FEF83ED90E34C
:103EA000215080409040E1F700C0000080E40E9473
:103EB0006E138093290181112EC00E949813809364
:103EC0002901811128C00E94981380932901811132
:103ED00022C08FE30E9498138093290181111BC097
:103EE0000E94901380E40E946E1380932901811137
:103EF00012C08CE00E9498138093290181110BC09D
:103F00000E94981380932901811105C08FE30E94BC
:103F10009813809329010E9490138091290108959C
:103F2000CF93DF93EC01C13080E8D807C8F0FB01E4
:103F300082818823A9F080913D08811109C08CE01D
:103F400090E00E94CA340E94B41F81E080933D0833
:103F50000E94BB1FCE019F770E9479200E943120D2
:103F600081E0DF91CF91089580933E08682F8CE027
:103F700090E00C94D834E0912A01F0912B018081DB
:103F80008093FA0881FF03C081EE0E94DB228091BA
:103F9000FA0885FF03C085EE0E94DB228091FA08B3
:103FA00080FF03C080EE0E94DB228091FA0884FF2C
:103FB00003C084EE0E94DB228091FA0882FF03C0D6
:103FC00082EE0E94DB228091FA0886FF03C086EE13
:103FD0000E94DB228091FA0883FF03C083EE0E94D7
:103FE000DB228091FA0887FF03C087EE0E94DB2264
:103FF00080913E088130A1F078F0823011F1843058
:1040000049F586EE0E94132286EE0E94DB2288E1AB
:104010000E94132288E11CC082EE0E9413221AC063
:1040200080EE0E94132281EE0E94132288E10E94FA
:10403000132288E10E94DB2281EE0E94DB2280EEC7
:1040400007C082EE0E94132287E50E94132287E5B3
:104050000E94DB228FE39CE90197F1F700C000008A
:10406000089580913E08813029F010F0823041F4AB
:1040700082EE04C08CE20E9413228CE20E94DB22BA
:104080008091FA0881FF03C081EE0E941322809183
:10409000FA0885FF03C085EE0E9413228091FA087A
:1040A00080FF03C080EE0E9413228091FA0884FFF3
:1040B00003C084EE0E9413228091FA0882FF03C09D
:1040C00082EE0E9413228091FA0886FF03C086EEDA
:1040D0000E9413228091FA0883FF03C083EE0E949E
:1040E00013228091FA0887FF03C087EE0C941322F5
:1040F0000895FF920F931F93CF93DF938C01CCE031
:10410000D0E0C8010C2E02C0969587950A94E2F77C
:10411000282F2F70F22E822F0E944E1C0E941322F5
:104120008F2D0E944E1C0E94DB222497CC3F8FEFE4
:10413000D80739F7DF91CF911F910F91FF90089524
:1041400090934408809343080895E0914308F091C8
:104150004408309721F00190F081E02D099480E02F
:104160000895E0914308F0914408309721F00280CF
:10417000F381E02D0994089520914108309142087F
:104180008217930771F09093420880934108E09161
:104190004308F0914408309721F00680F781E02D24
:1041A0000994089520913F083091400882179307A1
:1041B00071F09093400880933F08E0914308F0919C
:1041C0004408309721F00084F185E02D099408958A
:1041D00008950C94E8200E942C2D0E94E5130E9463
:1041E000B32DEFEFF8E08081806880830895CF924F
:1041F000DF92EF92FF920F931F93CF93DF93CDB790
:10420000DEB72B970FB6F894DEBF0FBECDBF0E946E
:104210000C1436E4E32E38E0F32E00E010E0C02E5C
:10422000802F0E940A15F701D1907F01D826B1F4A2
:104230000F5F1F4F0E30110591F78FEF89838A832F
:104240001B820E94352D8160782F9D838C8349814C
:104250005A816B818D810E94D42141C09091C80800
:1042600091FF04C08B870E9410158B8520E030E001
:104270004D2D50E0922FBA01022E02C07595679520
:104280000A94E2F760FF25C02E83CF82EE24E394E8
:10429000F12C02C0EE0CFF1C9A95E2F790E08E2103
:1042A0009F2121E0892B09F420E028870E94352DE9
:1042B0008160782F9A8789874E815F8168858A859A
:1042C0000E94D421F801EA5BF74F80818E2580831C
:1042D00006C02F5F3F4F2630310561F6A9CF109100
:1042E00045080E94A5201817A1F00E94A5208093E0
:1042F00045082B960FB6F894DEBF0FBECDBFDF91F9
:10430000CF911F910F91FF90EF90DF90CF900C9481
:104310005E1C2B960FB6F894DEBF0FBECDBFDF91AB
:10432000CF911F910F91FF90EF90DF90CF90089564
:10433000DC0111964C9111975C91852F90E021E062
:1043400030E001C0220F5A95EAF712966C9112974D
:1043500050E0662319F06091620805C0FA01EC5A3A
:10436000F74F608162236623B9F036E0349FF00195
:10437000359FF00D1124E80FF91FEE0FFF1FE359D1
:10438000FE4F808191818D939C93FA01EC5AF74FF7
:104390008081822B80830895FA01EC5AF74F209593
:1043A0008081282320830895CF93DF93CDB7DEB794
:1043B0002B970FB6F894DEBF0FBECDBF4F83588743
:1043C00069877A878B878A859B85892B31F05F3F48
:1043D00011F080E003C04F3FE1F781E0811104C09C
:1043E000CE0107960E949821DE01119686E0FD011C
:1043F00011928A95E9F785E0FE01379601900D92BA
:104400008A95E1F749815A816B817C818D819E81FA
:104410000E9494282B960FB6F894DEBF0FBECDBF36
:10442000DF91CF910895882309F4C4C0823859F4EC
:104430000E94A52081FDBEC089E30E94362B0E9408
:10444000062C89E30CC0833871F40E94A52080FDFE
:10445000B1C083E50E94362B0E94062C83E50E94A2
:10446000762B0C94062C843859F40E94A52082FDEA
:10447000A1C087E40E94362B0E94062C87E4EFCF70
:104480009CEF980F913A18F40E94362BEACF90E2F5
:10449000980F983050F4877091E001C0990F8A9579
:1044A000EAF7892F0E94BA2BDCCF9BE5980F933057
:1044B00070F4853A29F0863A31F482E890E005C03C
:1044C00081E890E002C083E890E00C94BC2098E57D
:1044D000980F953108F06EC0883A61F1893A69F118
:1044E0008A3A71F18B3A79F18C3A81F18B3B89F1FF
:1044F0008C3B91F18D3A99F1803BA1F18E3AA9F173
:104500008F3AB1F1813BB9F1823BC1F1833BC9F1F3
:10451000843BD1F1853BD9F1863BE1F1873BE9F161
:10452000883BF1F1893BF9F18A3B09F03FC08AE20F
:1045300092E03EC082EE90E03BC089EE90E038C051
:104540008AEE90E035C085EB90E032C086EB90E0DB
:104550002FC083EB90E02CC084EB90E029C087EB68
:1045600090E026C08CEC90E023C08DEC90E020C061
:1045700083E891E01DC08AE891E01AC082E991E0E9
:1045800017C084E991E014C081E292E011C083E297
:1045900092E00EC084E292E00BC085E292E008C097
:1045A00086E292E005C087E292E002C080E090E0FF
:1045B0000C94D2200895882309F44BC0823859F412
:1045C0000E94A52081FF45C089E30E94362B0E94EE
:1045D000062C89E30CC0833871F40E94A52080FF6B
:1045E00038C083E50E94362B0E94062C83E50E948A
:1045F000762B0C94062C843859F40E94A52082FF57
:1046000028C087E40E94362B0E94062C87E4EFCF57
:104610009CEF980F913A58F390E2980F983050F42D
:10462000877091E001C0990F8A95EAF7892F0E945F
:10463000C02BDFCF9BE5980F933020F480E090E013
:104640000C94BC20885A853120F480E090E00C94D2
:10465000D2200895882321F00E94BA2B0C94062CB6
:104660000895882321F00E94C02B0C94062C0895F5
:104670008F929F92BF92CF92DF92EF92FF920F9311
:104680001F93CF93DF9300D0CDB7DEB74C01472FF8
:10469000FC01E580E2949FE0E922F280FF2031F006
:1046A00079836A830E94DA2B6A81498149836A830C
:1046B0000E942F2B49816A81882389F0FF2079F09D
:1046C00080E2860F883058F082E00E94182B0E940A
:1046D0002F2BBB24B394B82649816A8101C0B12C29
:1046E000E42FE295EF70F0E0E859FF4F0C94C434EA
:1046F000842F807F142F1F70882311F01295107F54
:10470000FF20C1F0112309F48DC180E2860F8830AB
:1047100010F0611105C0812F6A830E94BA2B04C07A
:10472000812F6A830E94CD2B6A816A830E94062CA6
:104730006A8178C1862F6A830E94DB226A811123F5
:1047400009F4BEC180E2860F883010F0611104C008
:10475000812F0E94C02B03C0812F0E94D32B0E9467
:10476000062CAEC1242F207F842F8F70203211F0B1
:104770008295807F662319F06130B9F020C0FF2058
:1047800049F0EE2009F404C1F1E0EF1201C10E94EA
:10479000ED2B96C1EE2021F091E0E91609F490C1CD
:1047A00089830E94F02B8981F9C0FF2029F0E1E084
:1047B000EE1508F485C1ECC0E11082C1EFC0FF2006
:1047C00021F0EE2009F4E4C02DC1EE2009F4E6C08A
:1047D0002FC1242F26952695237030E02115310511
:1047E00021F02130310561F06BC1FF2021F0862FCF
:1047F000942F937002C080E090E00E94BC2060C1C2
:10480000FF2021F0862F942F937002C080E090E06B
:104810000E94D22055C1842F837009F04EC0F11040
:104820004FC1262F229526952770220F220F862F03
:104830008F70C82ED12CE12CF12C022E04C0CC0C90
:10484000DD1CEE1CFF1C0A94D2F764FF10C06FE061
:1048500070E080E090E004C0660F771F881F991F0A
:104860002A95D2F7609570958095909503C060E089
:1048700070E0CB01242F26952695237030E022305E
:10488000310569F02330310589F06C297D298E29A5
:104890009F292130310571F00E94E52911C16C2951
:1048A0007D298E299F290E94F7290AC10E94E529A6
:1048B000C701B6010E94D32903C1FF2019F0842F3C
:1048C000817001C08695882309F4FAC0262F2295AD
:1048D00026952770220F220F862F8F70C82ED12C7D
:1048E000E12CF12C022E04C0CC0CDD1CEE1CFF1CB4
:1048F0000A94D2F764FF10C06FE070E080E090E0AF
:1049000004C0660F771F881F991F2A95D2F76095FC
:1049100070958095909503C060E070E0CB01242FE6
:1049200026952695237030E02230310569F023303A
:10493000310589F06C297D298E299F292130310587
:1049400071F00E94912ABCC06C297D298E299F2973
:104950000E94A32AB5C00E94912AC701B6010E94F5
:104960007F2AAEC0062F10E0F801E05EF109E531C4
:10497000F10508F053C0E858FF4F0C94C434162FCB
:104980001F70842F8F71FF2031F00E942A2A812FFF
:104990000E942A2395C00E94452A812F0E9431231C
:1049A0008FC0FF2039F0E1108BC0842F8F710E94DF
:1049B000642A86C0F1E0FE1508F482C0F6CFFF201D
:1049C00039F0842F8F710E942A2A7AC0FF20C9F300
:1049D000842F8F710E94452A73C0FF2029F0842FF5
:1049E0008F710E941B2A6CC00E94162A69C0FF208A
:1049F00051F0142F1F71812F0E942A2A63E0812F0A
:104A00000E940F2B5DC081E00E94182B81E08E1563
:104A100008F056C082E00E94182B52C0FF2031F0EF
:104A2000EE2079F2862F0E9413224AC0EE2081F2F6
:104A3000862F0E94DB2244C04F70C4010E94601C7C
:104A40000E9441293DC0623FA9F128F4603F49F02E
:104A5000613FE1F020C0643FA1F050F0653F69F094
:104A60001AC0FF2049F18091620821E0822702C02C
:104A700081E08F25809362081FC0F1101DC081E086
:104A8000F9CFF11019C01092620816C0EE2091F013
:104A9000F11012C0E8CFEE2069F0862F49836A83B7
:104AA000FF2019F00E94132202C00E94DB224981DC
:104AB0006A8102C0F09262084F70C4010E94631CB8
:104AC000BB20F1F00E940B2B80FD1AC0F401128272
:104AD0000E94052B0E942A2AC4010E948E250E9452
:104AE000052B0F900F90DF91CF911F910F91FF90A9
:104AF000EF90DF90CF90BF909F908F900C94452ABD
:104B00000F900F90DF91CF911F910F91FF90EF9039
:104B1000DF90CF90BF909F908F9008950F931F9339
:104B2000CF93DF93EC01288139818B819C81892B84
:104B300031F03F3F11F080E003C02F3FE1F781E00B
:104B4000811113C0CE010E94FC1A882371F0688184
:104B500079818A810E94012B8C010E94B52A0E94D2
:104B6000D029B801CE010E943823DF91CF911F9147
:104B70000F9108950E94DA2B0E94EA2B0E94A92B24
:104B80000E94062C80E090E00E94BC2080E090E033
:104B90000C94D2200E94CA2B0C94BA250E94F62AAB
:104BA000E92FE295EF70F0E03297EE30F105B8F4BE
:104BB000E357FF4F0C94C434803F59F018F4803E03
:104BC00070F407C0843F59F404C0803E10F0813F68
:104BD00031F481E0089593FB882780F9089580E0FF
:104BE0000895CF93DF9300D000D01F92CDB7DEB7EA
:104BF0000F900F900F900F900F90DF91CF9108952D
:104C0000CF93DF9300D000D000D0CDB7DEB726968B
:104C10000FB6F894DEBF0FBECDBFDF91CF910895E0
:104C20001F93CF93DF93C091630816E080916408CF
:104C3000C81799F0D0E01C9FF0011D9FF00D1124C2
:104C4000EB59F74F40815181628173818481958155
:104C50000E9400262196C770E9CFDF91CF911F9166
:104C60000895409195085091960860919708709129
:104C700098088091990890919A080C940026CF93F7
:104C800080919A0882958F7009F05FC08091970893
:104C9000882309F45AC020916308A09164086091A8
:104CA000950870919608809198089091990831E044
:104CB0006F3F09F030E0B32FC6E02A1709F445C072
:104CC000009721F07F3F21F44B2F03C041E001C04A
:104CD00040E030E040FD35C0C29FF001C39FF00DC1
:104CE0001124EB59F74F418174132BC04081641399
:104CF00028C04281411125C043815481481759077A
:104D000010F441505109481B590B483C5105C8F457
:104D100080919A088F70806180939A0886E0829FC4
:104D2000F001839FF00D1124E659F74F80818F70B9
:104D30008061808385E998E00E948E25CF910C9454
:104D400010262F5F3F4F2770B8CFCF910895CF9295
:104D5000DF92EF92FF920F931F93CF93DF93CDB724
:104D6000DEB762970FB6F894DEBF0FBECDBF8C01E1
:104D700085E0F801DE011D9601900D928A95E1F71C
:104D8000D8014C9111965C91119712966C911297E3
:104D90001396ED90FC90149770919508E091960809
:104DA00020919808309199082115310531F0EF3F95
:104DB00031F481E07F3F19F403C081E001C080E05D
:104DC000B82FB170CB2E80FD6CC1D0909708DD203C
:104DD00009F4F5C0F0919A08E216F30638F0C7011D
:104DE000821B930B883C910548F09BC02095309521
:104DF0002E0D3F1D283C310508F093C08F2F807F7A
:104E000009F052C0E51314C0741312C0D62E6111FC
:104E10000FC0FF70F061F0939A080E94312685E977
:104E200098E00E948E2580919A08F80185836CC1D4
:104E3000EF2831F05F3F31F481E04F3F19F403C0B8
:104E400081E001C080E080FD03C081E0862701C0D1
:104E500080E0F82FF170FF2E80FF1CC08091630866
:104E60002091640836E0821709F428C190E0389F49
:104E7000F001399FF00D1124EB59F74F7181571351
:104E800006C07081471303C07281671303C0019687
:104E90008770E9CFD62E662309F436C180919A082F
:104EA000816080939A0853C0E51308C0741306C04C
:104EB000611104C0D8011596FC93AEC04D875E8782
:104EC0008D859E856A8B0E94CE256A89882329F16B
:104ED000D62E662311F120919A08822F82958F7029
:104EE00090E002970CF460C080919508909196082C
:104EF00098878F831986FB86EA862C87CE010796D2
:104F000051C0E51731F14D875E878D859E856A8B8F
:104F10000E94CE256A8981112EC0C8010E948E256B
:104F2000A4C08F2F807F69F77E2DF98AE88A89894E
:104F30000E94F12585E998E00E948E25E5E9F8E0D8
:104F400086E0DF011D928A95E9F70E943126D12C77
:104F5000DBC07413D8CF6111D6CFD8011596FC935E
:104F6000C8010E948E25E5E9F8E086E0DF011D9288
:104F70008A95E9F7C9C0D62E662379F220919A085E
:104F8000822F82958F7090E0029774F0809195083F
:104F9000909196089A8389831B82FD82EC822E83EE
:104FA000CE0101960E948E2586E0F801A5E9B8E0C1
:104FB00001900D928A95E1F70E943F266FC0E2169C
:104FC000F30628F0C701821B930B9C0104C02095B7
:104FD00030952E0D3F1D283C310508F052C0D62ECD
:104FE000662309F49ACFE5132CC074132AC080916C
:104FF0009A0880FD1DC0982F92959F70C9F0D80126
:1050000015968C9315979F3039F09F5F9295907FFE
:105010008F70892B15968C93C8010E948E2586E08F
:10502000F801A5E9B8E001900D928A95E1F736C044
:1050300086E0F801A5E9B8E001900D928A95E1F7C4
:1050400063C04D875E878D859E850E94CE2588230F
:1050500079F086E0F801A5E9B8E001900D928A9513
:10506000E1F70E943F260E943126DD24D3944CC0F4
:1050700080919A08816080939A08C8010E948E25C9
:1050800043C07E2DF98AE88A89890E94F125E5E9E5
:10509000F8E086E0DF011D928A95E9F70E9431264B
:1050A00033C0662309F439CF4D875E878D859E8591
:1050B0000E94CE25882309F430CFCBCF4D875E8761
:1050C0008D859E850E94F62A292F22952F7030E02B
:1050D000223031052CF49F7041F0811106C00CC0C4
:1050E000243031052CF49F7049F4805E883020F024
:1050F000C8010E948E25CF2CDC2C06C0D801159645
:105100009C91907F91F7F8CF8D2D62960FB6F89411
:10511000DEBF0FBECDBFDF91CF911F910F91FF90EA
:10512000EF90DF90CF9008951F93CF93DF93CDB78B
:10513000DEB72C970FB6F894DEBF0FBECDBF4F83FE
:10514000588769877A878B879C87CE0107960E944C
:10515000A7268823C1F02F8138858A859B85892BD6
:1051600031F03F3F11F080E003C02F3FE1F781E0D5
:10517000811147C04F81588569857A858B859C85CB
:105180000E9400263EC086E0FE013796DE011196A1
:1051900001900D928A95E1F7FF81E8854A855B854C
:1051A0004115510531F0EF3F31F481E0FF3F19F433
:1051B00003C081E001C080E080FD23C0209164082D
:1051C00030E0C9010196877099276091630870E00B
:1051D00086179707F1F1F983EA835D834C8396E0A4
:1051E000929FD001939FB00D1124AB59B74FFE0190
:1051F000319601900D929A95E1F7809364080E9490
:10520000102616E08091630890916408891779F15F
:10521000189FC00111248B59974F0E94A7268823FD
:1052200031F1E09163081E9FF0011124EB59F74F13
:105230004081518162817381848195810E94002621
:105240008091630890E001968770992780936308A6
:10525000D9CF0E94CA251092640810926308E5E92C
:10526000F8E086E0DF011D928A95E9F7CACF2C9617
:105270000FB6F894DEBF0FBECDBFDF91CF911F9167
:105280000895EF92FF920F931F93CF93DF939C01AA
:10529000009709F471C0F12CEE24E394E901219602
:1052A000F9018491843740F4843008F056C081308D
:1052B00081F0823021F160C0853709F449C0C0F126
:1052C0009CE7980F903708F057C08F770E94DB2239
:1052D00046C089010E5F1F4FFE01849190E2980F36
:1052E000983050F48770FE2D01C0FF0F8A95EAF7C1
:1052F0008F2F0E94DD2B15C00E94132214C089013C
:105300000E5F1F4FFE01849190E2980F983068F471
:105310008770FE2D01C0FF0F8A95EAF78F2F0E943C
:10532000E32B0E94062CE8011AC00E94DB22FBCF6F
:105330002E5F3F4FFE01C491CC2341F08FE99FE0E7
:105340000197F1F700C00000C150F6CFE90107C096
:10535000FE01F490E901229602C00E9413228F2DD3
:10536000882341F0EFE9FFE03197F1F700C000003A
:105370008150F6CF9E0192CFDF91CF911F910F9177
:10538000FF90EF90089508950E94C32960939F08AD
:105390007093A0088093A1089093A2080C94BA255A
:1053A00008950C94C4290F931F9300919F081091A6
:1053B000A0082091A1083091A208602B712B822BAC
:1053C000932B1F910F910C94C4290F931F9300915D
:1053D0009F081091A0082091A1083091A208602395
:1053E0007123822393231F910F910C94C4290F934F
:1053F0001F9300919F081091A0082091A10830915F
:10540000A20860277127822793271F910F910C9480
:10541000C42908950E94092A60939B0870939C08F0
:1054200080939D0890939E080C94BA2560E070E0EC
:10543000CB010C940A2A41E050E060E070E004C027
:10544000440F551F661F771F8A95D2F7CB01BA010B
:105450000C940A2A41E050E060E070E004C0440F80
:10546000551F661F771F8A95D2F780919B089091F0
:105470009C08A0919D08B0919E08482B592B6A2B3F
:105480007B2BCB01BA010C940A2A41E050E060E08A
:1054900070E004C0440F551F661F771F8A95D2F72E
:1054A000409550956095709580919B0890919C08CF
:1054B000A0919D08B0919E08482359236A237B231D
:1054C000CB01BA010C940A2A41E050E060E070E0A0
:1054D00004C0440F551F661F771F8A95D2F780912D
:1054E0009B0890919C08A0919D08B0919E08482728
:1054F00059276A277B27CB01BA010C940A2A0F93FC
:105500001F9300919B0810919C0820919D08309159
:105510009E08602B712B822B932B1F910F910C9463
:105520000A2A0F931F9300919B0810919C082091C9
:105530009D0830919E0860237123822393231F913D
:105540000F910C940A2A0F931F9300919B081091BE
:105550009C0820919D0830919E0860277127822722
:1055600093271F910F910C940A2A0895CF92DF92EE
:10557000EF92FF920F931F93CF93DF93EC01C090B4
:105580009F08D090A008E090A108F090A208809118
:105590009B0890919C08A0919D08B0919E08C82AF4
:1055A000D92AEA2AFB2A0FE110E0B701A601002E52
:1055B00004C076956795579547950A94D2F740FDB4
:1055C00005C00150110988F780E007C0BE01802F97
:1055D0000E947E1C0197A9F3802FDF91CF911F912C
:1055E0000F91FF90EF90DF90CF900895CF93DF93CE
:1055F000EC010E94B62ABE010E947E1CDF91CF9171
:105600000895CB010E94F62A08958091A3088595FC
:105610008595859508958091A3088770089598E0F1
:10562000899F90011124622B6093A3080C942A2A6D
:105630004091A308809584238093A308982F9770A6
:1056400069F450E0282F332727FD30954217530780
:1056500029F08595859585950C94452A0895909116
:10566000A308977081E009F480E0089590913601D5
:105670009923D9F09091FF0897FF17C0982F96951E
:10568000969596959F3188F5E0912A01F0912B012E
:10569000E90FF11D877021E030E001C0220F8A95EB
:1056A000EAF78181822B8183089540912A015091EC
:1056B0002B0120E030E09FEFFA01E20FF31F62813F
:1056C000681799F09F3F19F4611101C0922F2F5F65
:1056D0003F4F2E31310581F79F3F39F0FA01E90F35
:1056E000F11D97FDFA9582830895089590913601F2
:1056F0009923E1F09091FF0897FF18C0982F969595
:10570000969596959F3120F5E0912A01F0912B0115
:10571000E90FF11D877021E030E001C0220F8A956A
:10572000EAF72095818128232183089540912A0159
:1057300050912B0120E030E0FA01E20FF31F92813B
:10574000981301C012822F5F3F4F2E313105A1F710
:10575000089581E090E0E0912A01F0912B01E80F9B
:10576000F91F1082019680329105A9F70895809162
:10577000C70808959091C708982B9093C70808957B
:1057800080959091C70898239093C70808958093B7
:10579000C70808951092C70808959091C608982BDD
:1057A0009093C608089580959091C6089823909389
:1057B000C60808951092C60808959091C508982BC0
:1057C0009093C508089580959091C508982390936B
:1057D000C50808951092C50808958093A4080895F7
:1057E0001092A408089540912A0150912B0120E0C5
:1057F00030E080E0FA01E20FF31F918191118F5F99
:105800002F5F3F4F2F313105A9F70895E0912A010D
:10581000F0912B018091C7088083E0912A01F091DB
:105820002B0180819091C608892B8083E0912A0109
:10583000F0912B0180819091C508892B80839091F4
:10584000A408992361F0E0912A01F0912B01808155
:10585000892B80830E94F32B81111092A4088091E0
:105860002A0190912B010C94B120CF92DF92EF92FC
:10587000FF920F931F936C01EE24FF24C114D104F7
:10588000E104F10421F46B017C0180E001C080E1BE
:1058900033272F2D1E2D0D2D011511052105310545
:1058A00019F0885F6801790197018601A4E03695B7
:1058B000279517950795AA95D1F70115110521058B
:1058C000310519F08C5F6801790197018601F2E0DA
:1058D0003695279517950795FA95D1F70115110576
:1058E0002105310519F08E5F68017901B701A60124
:1058F0007695679557954795452B462B472B09F08D
:105900008F5F1F910F91FF90EF90DF90CF900895E0
:105910006DEE7EEF80E090E00E94EA3460E082E08D
:1059200090E00E94D83460E083E090E00E94D83498
:1059300060E084E090E00E94D83460E085E090E090
:105940000C94D83480E090E00E94D23421E08D3E67
:105950009E4F09F020E0822F089582E090E00C94A1
:10596000CA3483E090E00C94CA3484E090E00C9454
:10597000CA34682F84E090E00C94D83480910509F3
:10598000843021F11092C90820E488E190E00FB63C
:10599000F894A895809360000FBE2093600080E08B
:1059A0000E945E1C83B7817F846083BF83B7816060
:1059B00083BF7894889583B78E7F83BF88E10FB6C5
:1059C000F89480936000109260000FBE08950895CF
:1059D000CF930E94F9130E940C140E94E72CC0E0A0
:1059E0008C2F0E940A15811105C0CF5FCE30C1F700
:1059F00080E001C081E0CF9108950E94CA250E94F5
:105A0000A5200C945E1C1F920F920FB60F921124CA
:105A10008F939F93AF93BF938091C908811113C057
:105A20008091FB089091FC08A091FD08B091FE08C0
:105A30004196A11DB11D8093FB089093FC08A09393
:105A4000FD08B093FE08BF91AF919F918F910F9089
:105A50000FBE0F901F90189582E084BD93E095BD16
:105A60009AEF97BD80936E0008952FB7F8948091B8
:105A7000FB089091FC08A091FD08B091FE082FBF93
:105A80000895CF92DF92EF92FF920F931F932FB75B
:105A9000F8944091FB085091FC086091FD087091CA
:105AA000FE082FBF6A017B01EE24FF248C0120E059
:105AB00030E0C016D106E206F30610F44150510959
:105AC000481B590BCA011F910F91FF90EF90DF9077
:105AD000CF90089578941F920F920FB60F921124D1
