:100000000C94DA0E0C941E0F0C941E0F0C941E0F01
:100010000C941E0F0C941E0F0C941E0F0C941E0FAC
:100020000C941E0F0C941E0F0C94E32B0C94B52C07
:100030000C94B0260C941E0F0C941E0F0C941E0FE3
:100040000C941E0F0C941E0F0C941E0F0C941E0F7C
:100050000C941E0F0C9417270C941E0F0C941E0F5B
:100060000C941E0F0C941E0F0C941E0F0C941E0F5C
:100070000C941E0F0C941E0F0C941E0F0C941E0F4C
:100080000C941E0F0C941E0F0C941E0F0C941E0F3C
:100090000C941E0F0C941E0F0C941E0F0C941E0F2C
:1000A0000C941E0F0C941E0F0C941E0FF914FF14C9
:1000B000031506150A150E15121516151B151F1515
:1000C000231527152A152E15321536153A153F1505
:1000D000251D251D5F1D5F1D961D0D1FD01E0D1FAB
:1000E000B81D0D1F5F1E5F1EC91E0D1F0D1F091FAE
:1000F0006C1E6C1E6C1E6C1E6C1E6C1E6C1E6C1EB0
:100100006C1E6C1E6C1E6C1E6C1E6C1E6C1E6C1E9F
:100110007E1E8C1E931E9A1EA41E891F891F9C1F63
:100120009C1F921F9C1F9C1F9C1F891F891F981F2B
:100130009C1F9C1F981F1A2D3C2D272E3C2D272ECF
:100140007E2DA12D272EF62D092E1E0030002B000E
:100150000130E00000002214040014001A001E0008
:10016000035121141D0015001B00E2002A002E146B
:100170000900160006005200280022001300170094
:100180001900510046002E000A000700050000007B
:100190000451E3004900000029000000045301530A
:1001A0002A00000028000000045332000D000B005C
:1001B0000E00000004512D000F001100330050000C
:1001C00000002E021800080010004F002C002D1413
:1001D0001C000C00360225144C00380036001200BA
:1001E0002100271403512014370223000130E400BA
:1001F00000003A00E200E0000030003000003B0068
:100200002B0000300030003000303C000030003067
:100210000030003000303D00003000300030010080
:1002200000303E00003000300030010000303F0060
:10023000003000300030000000302A0000300000A4
:1002400000300000003001000030000000300000ED
:10025000003040000030003000300000003041002D
:10026000003000300030010000304200003000302B
:10027000003001000030430000300030003000301A
:10028000003044004C0000300030003000304500A9
:10029000E600E400003000300000340002300100CD
:1002A00001000100000024000100010001003400F1
:1002B00001002200010001000100010001002000F6
:1002C000010001000100010001001E000100010009
:1002D00001000100010026000100010001000000F2
:1002E0000100010001000000010000000100000009
:1002F00001000000010000000100270001000100D2
:100300000100000001001F000100010001000100C8
:100310000100210001000100023001000100230062
:10032000010001000230023001002500023001000E
:1003300002300230010002301000023001000100E2
:1003400000000000000000000000000000000000AD
:100350000000270000000000010000000000000075
:100360000000000000000000000000002600000067
:10037000000000000000000000000000000000007D
:10038000000000000000000000000000000000006D
:10039000000000000000000000000000000000005D
:1003A0000000000000002400000000000000000029
:1003B00000001F00000000000000000034000330B7
:1003C00000000000000000000000033000000000FA
:1003D000000000002F0203300000000001000000B8
:1003E000000000000000000000000100010001000A
:1003F000E100010000003A000100010001000100DD
:1004000001003B00010001000100010001003C006F
:100410000100010001004B0001003D00010001004E
:1004200001004E0001003E0001000100010000003B
:1004300001003F0001000000010000000100400039
:100440000100000001000000010041000100010066
:1004500001000000010042000100010001004A000B
:10046000010043000100010001004D0001004400B3
:100470000100010001000100010045000100010030
:1004800001000100005C000001000100E500010026
:10049000000000000000000000000000000020003C
:1004A000008020000080000000000000000000002C
:1004B00000003000008021000080210000805200F8
:1004C0000080000000003200008031000080460003
:1004D00000804700008050000080000000003300D2
:1004E00000804400008045000080000000001100F2
:1004F00000800000000034000080420000804300C3
:100500000080000000005100008000000000350065
:1005100000804000008041000080000000001000CA
:10052000008000000000910000800000000010002A
:100530000080000000001000008000000000130098
:100540000080000000001300008000000000100088
:1005500000800000000085000080600000806100D5
:1005600000800000000010000080000000008400F7
:1005700000806200008063000080000000005200E4
:10058000008000000000830000806400008065009F
:1005900000800000000012000080000000008200C7
:1005A00000808100008066000080670000805400A9
:1005B000008000000000000000008000008070004B
:1005C00000807100008053000080000000000000E7
:1005D0000000000000007200008072000080000037
:1005E00000000000000000002B00000000002800B8
:1005F00000000000000000000000000000000000FB
:100600001E02000000001F02000000002002000087
:10061000000021020000000022020000000023026E
:10062000000000002402000000002502000000007D
:100630002602000000001E02270200001E021E0209
:1006400000001E021F0200001E02200200001E0207
:10065000210200001E02220200002702000000000A
:100660001E02270200001F022702000020022702AC
:1006700000002102270200002202270200002302BC
:1006800027020000240227020000250227020000A2
:100690002602270200001E02270227021E021E0257
:1006A00027021E021F0227021E02200227021E022C
:1006B000210227021E022202270200000000000081
:1006C00000000000210000000000000000003602D1
:1006D000000000000000000021005000FF1F00008B
:1006E00000002E14000000000000000020000000A8
:1006F0000000000000002E145000FF1F000000004A
:1007000020005000FF1F000000002D00000000002E
:1007100000000000640200000000000000002D0046
:100720005000FF1F0000000064025000FF1F000087
:1007300000002D1400000000000000000000000078
:100740000000000000002D145000FF1F00000000FA
:100750002C005000000000000000360200000000E5
:1007600000000000210036020000000000003700F9
:100770000000000000000000210036025000500080
:10078000FF1F2E1436020000000000002000360279
:100790000000000000002E14360250005000FF1F21
:1007A0002000360250005000FF1F2D0036020000CE
:1007B00000000000320037020000000000002D00A1
:1007C000360250005000FF1F320037025000500028
:1007D000FF1F2D1436020000000000000000000082
:1007E0000000000000002D14360250005000FF1FD2
:1007F00000000000000000000000100000000000E9
:1008000000000000210010000000000000002E0089
:100810000000000000000000210010005000500007
:10082000FF1F2E1410000000000000002000100028
:100830000000000000002E14100050005000FF1FA8
:100840002000100050005000FF1F2D00100000007D
:1008500000000000640210000000000000002D00F5
:10086000100050005000FF1F6402100050005000A4
:10087000FF1F2D1410000000000000000000000009
:100880000000000000002D14100050005000FF1F59
:100890000000000000000000000036000000000022
:1008A00000000000210036000000000000003700BA
:1008B000370000000000000021003600500050000A
:1008C000FF1F2E143600000000000000200036003C
:1008D0000000000000002E14360050005000FF1FE2
:1008E0002000360050005000FF1F2D003600000091
:1008F00000000000000000000000000000002D00CB
:10090000360050005000FF1F0000000000000000F3
:1009100000002D1436000000000000000000000060
:100920000000000000002D14360050005000FF1F92
:1009300000000000000000000000000000000000B7
:100940000000000021000000000000000000100076
:100950000000000000000000360000000000000061
:100960000000211400000000000000002000000032
:100970000000000000006402000000000000000011
:100980006402640200000000000022000000000079
:1009900000000000640000000000000000002300D0
:1009A0006402FF1F000000006400640000000000FB
:1009B0000000221400000000000000000000000001
:1009C0000000000000001002000000000000000015
:1009D000201400000000000000002E0200000000B3
:1009E00000000000241400000000000000001F149C
:1009F00000000000000000003602000000000000BF
:100A000000002E022E020000000000000000000086
:100A10000000000000001E000000000000000000B8
:100A20001E001E0000000000000025140000000051
:100A3000000000000000000000000000000025147D
:100A40002514000000000000271400000000000032
:100A50000000000000000000000000000000000096
:100A60000000000000000000000000000000000086
:100A70000000000000000000000023000000000053
:100A800000000000000000000000000000002E0038
:100A90000000000000000000300000000000000026
:100AA000000037020000000000000000370237029B
:100AB00000000000000026140000000000000000FC
:100AC0003702370237020000000023002300000035
:100AD00000000000000000000000000000002500F1
:100AE00000000000000000003000220000000000B4
:100AF000000037023200000000000000000000008B
:100B00000000000000003702320032000000000048
:100B10003702370237026400000032000000000094
:100B2000000000000000000000000000000038008D
:100B3000000000000000000036023200000000004B
:100B4000000032003702000000000000000000003A
:100B50000000000000000000000000000000000095
:100B600030002114000000000000320022000000CC
:100B7000000000000000000000000000000023143E
:100B800000000000000000003200360232000000C9
:100B9000000034020000000000000000000000001F
:100BA00000000000000023142314000000000000D7
:100BB0000000000000000000000000000000000035
:100BC00007000000000021001600000007000000E0
:100BD0000000000000000000000000000000110004
:100BE00021001700000000000000080015000000B0
:100BF00000000000000021000F000F0000000000B6
:100C000000000C0011000A000000000000000000BD
:100C100000000000000000000000080015000000B7
:100C20000000000000002100190008000000000082
:100C300000000000000000000000000000000000B4
:100C4000000000000000000000000C0011000A007D
:100C50000000000000000000000000000000000094
:100C60000000000000000000000000000000000084
:100C70000000000000000000000008001500000057
:100C8000000000000000210007000000000000003C
:100C90000000000000000000000000000000000054
:100CA0000000000000000000000000000000000044
:100CB0000000000000000000000000000000000034
:100CC0000000000000000000000000000000000024
:100CD000000000000000000000000C0011000A00ED
:100CE00000000000000021003300000000000000B0
:100CF00000000000000000000000000000000000F4
:100D000000000000000000000000000000000000E3
:100D100000000000000000000000000000000000D3
:100D200000000000000000000000000000000000C3
:100D300000000000000000000000000000000000B3
:100D400038000000000029000000000029003700E2
:100D50000000320000000000000000000000000061
:100D6000000000000000000000002500000000005E
:100D70000000000000000000000000000000000073
:100D80000000000000000000000000000000000063
:100D90000000000000000000000000000000000053
:100DA0000000000000000000000000000000000043
:100DB0000000000000000000000000000000000033
:100DC0000000000000000000000000000000000023
:100DD0000000000000000000000000000000000013
:100DE0000000000000000000000000000000000003
:100DF00000000000000000000000000000000000F3
:100E000000000000000000000000000000000000E2
:100E100000000000000000000000000000000000D2
:100E200000000000000000000000000000000000C2
:100E300000000000000000000000000000000000B2
:100E400000000000000000000000000000000000A2
:100E50000000000000000000000000000000000092
:100E60000000000000000000000000000000000082
:100E70000000000000000000000000000000000072
:100E80000000000000000000000000000000000062
:100E90000000000000000000000000000000000052
:100EA0000000000000000000000000000000000042
:100EB0000000000000000000000000000000000032
:100EC0000800000000001C0000000000081C0000DA
:100ED00000001600000000000816000000001C16AC
:100EE00000000000081C16000000000000000000C8
:100EF00015000000000011000000000015110000A6
:100F000000000F0000000000150F00000000160098
:100F1000000000000F0F000000000A0000000000A9
:100F2000150A00000000110A000000000A1100006C
:100F300000000F0A000000000A1500000000070072
:100F400000000000070F0000000006000000000085
:100F50001506000000001106000000001106150033
:100F6000000013000000000015130000000016131D
:100F700000000000130F000000000500000000004A
:100F80001505000000000A0A000000000508150011
:100F90000000050F0000000000000000000000003D
:100FA000000000000F05000000000B000000000022
:100FB0001D00000000001900000000001D110000CD
:100FC00000001A00000000001D0F00000000160BBA
:100FD000000000000F19000000000A0B00000000D4
:100FE000150A0B000000330000000000153300005C
:100FF00000001B000000000000000000000016338D
:10100000000000000F3300000000060B000000008D
:1010100015060B00000011060B000000151900005A
:101020000000130B000000000000000000000000A2
:10103000000000000F060B00000009000000000087
:1010400015090000000033050000000033050815F5
:1010500000000F0900000000090F0000000033131A
:101060000000000013330000000017000000000023
:1010700015170000000011170000000015111700DF
:1010800000000F1700000000170F000000001617E7
:10109000000000001516170000000E000000000000
:1010A000150E00000000110E0000000000000000FE
:1010B00000000E0F00000000000000000000160EEF
:1010C000000000000F0E00000000061700000000E6
:1010D000061500000000170C1211000000000000AF
:1010E00000001317000000000000000000001116AF
:1010F000170000000F1300000000060E00000000A3
:10110000000000000000051700000000050815178A
:101110000000060E0F0000000000000000000000AC
:1011200000000000000000000000170B000000009D
:1011300015170B00000011170B0000001D170B0006
:1011400000000F170B000000000000000000111944
:10115000000000000000000000000A0B1700000063
:101160001D0E00000000110A170B000033081117B4
:1011700000001B170000000000000000000007171F
:101180000B00000011330811170017060B000000B8
:10119000000000000000000000000000000000004F
:1011A000000013170B00000000000000000000000A
:1011B000000000000000000000000917000000000F
:1011C00009170815000009170811000000000000A9
:1011D00000000000000000000000000000003313C9
:1011E000170000001333081117001600000000005C
:1011F0001516000000001116000000001511160061
:1012000000000F1600000000150F16000000161653
:10121000000000000F0F160000000A16000000007A
:10122000150A16000000110A160000000A11160027
:101230000000000000000000000000000000071691
:101240000000000000000000000006160000000082
:101250001506160000001106081600000000000028
:1012600000001316000000001513160000001613EE
:1012700016000000130F08160000051600000000FD
:101280001505160000000A0A1600000005081516CC
:101290000000050F0816000000000000000000001C
:1012A000000000000F05160000000B1600000000F3
:1012B0001D16000000001908160000001D11160080
:1012C00000001A08160000001D0F16000000160B83
:1012D000081600000F19081600000A0B160000007F
:1012E0000000000000003316000000001533160057
:1012F00000001B081600000000000000000016336C
:10130000160000000F331600000007000000000068
:101310001507000000001107000000001D07000075
:101320000000130B16000000150F07000000160741
:10133000000000000F0700000000070A0000000086
:1013400000000000000033051600000033050815FA
:101350001600000000000000000000000000331331
:10136000160000000000000000001716000000003A
:1013700015171600000011171600000000000000ED
:1013800000000F1716000000170F1C0000001617B2
:10139000160000001516171600000E1600000000BB
:1013A000150E16000000110E1600000000000000CF
:1013B0000000000000000000000000000000160E09
:1013C000160000000F0E16000000061716000000A1
:1013D000000000000000170C1211160000000000B1
:1013E00000000000000000000000000000000000FD
:1013F000000000000F1316000000060E160000008B
:101400000000000000000517160000000508151771
:101410001600060E0F081600000000000000000075
:1014200000000000000000000000170B1600000084
:1014300015170B16000011170B1600001D170B16C1
:10144000000000000000000000000000000000009C
:10145000000000000000000000000A0B171600004A
:101460001D0E16000000110A170B16003308111785
:101470001600000000000000000000000000071738
:101480000B16000011330811171607160000000094
:101490001507160000001107160000001D071600B2
:1014A000000013170B160000150F071600000000B0
:1014B000000000000F071600000000000000000000
:1014C000000000000000000000000000000000001C
:1014D00000000000000000000000000000003313C6
:1014E0001716000013330811171600000000000043
:1014F000080800000000121200000000120800009E
:101500000000141400000000140800000000141271
:10151000000000000814120000001818000000006D
:10152000180800000000181200000000081812003F
:101530000000181400000000081814000000121821
:10154000140000000812181400000C0C0000000029
:101550000C08000000000C1200000000080C120033
:1015600000000C1400000000080C14000000120C15
:101570001400000008120C1400000C1800000000F9
:10158000080C180000000C121800000008120C18BB
:101590000000140C1800000008140C1800001214AD
:1015A0000C1800000812140C1800000000000000C5
:1015B00008000000000012000000000008120000F7
:1015C00000001400000000000814000000001214C5
:1015D00000000000081214000000180000000000C5
:1015E000081800000000121800000000081218007F
:1015F0000000141800000000081418000000121465
:10160000180000000812141800000C000000000070
:10161000080C00000000120C0000000008120C0072
:101620000000140C0000000008140C00000012144C
:101630000C0000000812140C0000180C0000000040
:1016400008180C00000012180C0000000812180CFA
:10165000000014180C0000000814180C00001214EC
:10166000180C0000081214180C0000000000000004
:101670001100000000001500000000000F00000035
:1016800000001D00000000003300000000001D15D8
:10169000000000003315000000000B0000000000F7
:1016A0001C0000000000150B000000000F1C0000D3
:1016B00000001D0B00000000331C000000000000B3
:1016C0000000000000000000000006000000000014
:1016D0001A0000000000061500000000060F0000C0
:1016E000000013000000000013110000000013159B
:1016F00000000000130F00000000060B00000000B7
:10170000061C00000000060B1500000006151C005A
:101710000000130B00000000131C00000000130B5E
:1017200015000000130B0F00000017000000000060
:101730001900000000001715000000000400000060
:101740000000171D000000000D0000000000000058
:10175000000000000D0815000000170B000000003D
:10176000171C00000000170B1500000017151C00C7
:1017700000000E00000000000E11000000000E1519
:10178000000000000E0F0000000007000000000035
:1017900007081900000007150000000007080F00E7
:1017A0000000071D000000000708330000000708C4
:1017B000150000000000000000000900000000000B
:1017C000071C00000000091500000000090F0000C0
:1017D0000000050000000000051C000000000515C9
:1017E00000000000050F00000000140000000000D1
:1017F000141100000000141500000000140F000078
:101800000000141D00000000143300000000000060
:1018100000000000140F0F000000140B0000000077
:10182000141C000000000000000000000000000088
:101830000000141D0B00000000000000000000006C
:10184000000000000000000000001406000000007E
:10185000141A0000000014061500000014060F0002
:1018600000001413000000001433330000001413B0
:101870001500000014130F00000014060B000000F8
:101880001406060000001406061500001406060FD4
:10189000000014130B0000000000000000001413EF
:1018A0000B150000000000000000141700000000ED
:1018B00014190000000014171500000014040000A3
:1018C0000000141717000000140D0000000014178A
:1018D0001715000000000000000014170B000000A6
:1018E00000000000000014170B0F000000000000B3
:1018F0000000140E0000000014060E11000000008D
:1019000000000000000000000000140700000000BC
:101910001407190000001407150000001406040045
:10192000000014070700000014073300000014072C
:10193000071500001407070F00001409000000003D
:1019400014090900000014091500000014090F0013
:10195000000014050000000014051C000000140520
:101960001500000014050F00000016000000000024
:10197000161100000000160815000000160F0000E8
:101980000000161D000000001633000000000000DB
:1019900000000000000000000000160B0000000026
:1019A000161C00000000160B15000000160F1C008E
:1019B0000000000000000000000000000000000027
:1019C00000000000000000000000160600000000FB
:1019D00016160000000016061500000000000000AA
:1019E00000001613000000000000000000001613A5
:1019F0001500000016130F00000016060B00000073
:101A000000000000000000000000000000000000D6
:101A1000000016130B00000016131C00000000004D
:101A20000000000000000000000016170000000089
:101A3000161900000000161715000000160400001B
:101A400000001B00000000000000000000001B154B
:101A5000000000001608151900000000000000003A
:101A600016171C0000000000000000001617151CCF
:101A70000000160E000000001B1C0000000000000B
:101A8000000000000000000000000A00000000004C
:101A90000A11000000000A15000000000A0F0000F3
:101AA00000000A1D0000000000000000000000000F
:101AB000000000000000000000000A0B0000000011
:101AC0000A1C0000000000000000000000000000F0
:101AD0000000000000000000000000000000000006
:101AE00000000000000000000000141600000000CC
:101AF00014111100000014151500000014160F0039
:101B00000000000000000000141633000000000078
:101B10000000000000000000000014160B00000090
:101B200014161C000000000000000000000000006F
:101B300000000000000000000000000000000000A5
:101B40000000000000000000000014160600000065
:101B50001416160000001416061500000000000000
:101B600000001416130000001413130000001413D7
:101B7000131500001413130F0000000000000000F4
:101B80000000000000000000000000000000000055
:101B900000001416130B00001416130B1C00000099
:101BA00000000000000000000000141617000000F4
:101BB0000C11190000000C150000000014160400A0
:101BC0000000141B000000000000000000000000E6
:101BD000000000000000000000001416170B0000B9
:101BE0000C11170000000C15150000000C1117084F
:101BF000150014160E000000000000000000000098
:101C000000000000000000000000140A00000000B6
:101C1000140A11000000140A15000000140A0F0035
:101C20000000140A0A00000014070D000000140A46
:101C30000A150000140A0A0F0000140A0B00000025
:101C40001409170000001409091500001409090FF0
:101C5000000014050500000000000000000014054D
:101C6000051500000000000000001603450072008A
:101C700067006F0044006F007800200045005A00A4
:101C8000000016034500720067006F0044006F00FB
:101C90007800200045005A000000040309040902EE
:101CA0005400030100A0FA0904000001030101002F
:101CB0000921110100012240000705810308000AE3
:101CC00009040100010300000009211101000122A3
:101CD00036000705820308000A0904020001030018
:101CE00000000921110100012239000705830320AA
:101CF00000011201100100000008EDFE07130100B1
:101D00000102000105010906A101050719E029E703
:101D1000150025019508750181020508190129059D
:101D2000950575019102950175039101050719004B
:101D300029F71500250195F875018102C0050109F3
:101D400080A10185021601002603001A81002A8362
:101D500000751095018100C0050C0901A1018503E2
:101D6000160100269C021A01002A9C02751095019A
:101D70008100C005010906A101050719E029E71541
:101D800000250195087501810295017508810105FD
:101D900008190129059505750191029501750391B1
:101DA000010507190029FF150026FF009506750893
:101DB0008100C00011241FBECFEFDAE0DEBFCDBF2F
:101DC00004B603FE24C08091FA039091FB03A09116
:101DD000FC03B091FD038730904BA740B04BB9F4A2
:101DE0001092FA031092FB031092FC031092FD0371
:101DF00014BE84B7877F84BF88E10FB6F8948093C0
:101E00006000109260000FBEE0E0FFE3099512E071
:101E1000A0E0B1E0EEE5FDE502C005900D92A6322E
:101E2000B107D9F713E0A6E2B2E001C01D92AA3FC4
:101E3000B107E1F70E9417290C94AD2E0C94000015
:101E40001092B9008AE08093B800089594EA9093C4
:101E5000BC009091BC0097FFFCCF9091B900987F97
:101E6000983021F0903111F081E008958093BB000B
:101E700084E88093BC008091BC0087FFFCCF8091F8
:101E8000B900887F883111F0803471F780E00895BF
:101E900084E98093BC008091BC0084FDFCCF089550
:101EA0008093BB0084E88093BC008091BC0087FFD6
:101EB000FCCF9091B900987F81E0983209F480E0DE
:101EC000089584E88093BC008091BC0087FFFCCF1C
:101ED0008091BB00089580B38C7080BB81B3836F09
:101EE00081BB089580912901811115C080E40E9471
:101EF000260F8093290181110CC082E10E94500FAE
:101F000080932901811105C08FEF0E94500F8093AB
:101F100029010E94480F84B1807F84B985B1807FF8
:101F200085B98AB1837F8AB98BB1837F8BB93E989B
:101F3000469808950C9479140E94EE188093290114
:101F40000E94720F0E946B0FE5E3F2E0A7E2B2E09D
:101F500011921D9282E0E334F807D1F70C94FA1540
:101F60000E94EE18809329010E94720F0E946B0F4D
:101F7000E5E3F2E0A7E2B2E011921D9282E0E334E1
:101F8000F807D1F708958F929F92BF92CF92DF9278
:101F9000EF92FF920F931F93CF93DF931F92CDB7D2
:101FA000DEB780912901882379F0809126028F5F26
:101FB00080932602811108C00E94EE1880932901A7
:101FC000811102C00E94801807E212E0812C912C3E
:101FD000EE24E394F12CDD24D39495E0C92E282D32
:101FE000273030F580912901811142C080E4898237
:101FF0000E94260F809329012981811114C082E15A
:102000000E94500F80932901298181110CC0C701C2
:10201000082C01C0880F0A94EAF780950E94500F9F
:1020200080932901298129830E94480F298120C09A
:102030002A30A1F028F4283059F0293061F005C089
:102040002C3089F070F02D3089F0209A289810C03B
:10205000219A29980DC0229A2A980AC0239A2B986F
:1020600007C0529A01C0539A5B9802C03E9A4698A4
:1020700030EA3A95F1F7273018F58091290181115E
:1020800044C080E40E94260F80932901882311F028
:10209000B12C12C083E10E94500F8093290181115D
:1020A000F7CF81E40E94260F809329018111F0CFA0
:1020B0000E94610FB82EB0940E94480F8B2D26C04D
:1020C0008FB181708D25799B02C090E001C092E0B4
:1020D000892B7C9B02C090E001C094E0892B7D9B02
:1020E00002C090E001C098E0892B7E9B02C090E086
:1020F00001C090E1892B9FB19095991F9927991F55
:102100009295990F907E892B01C080E0F801908113
:10211000981719F08083C09200010E94720FFFEFA0
:102120008F1A9F0A0F5F1F4F3EE08316910409F03C
:1021300056CF809100018823A1F081508093000147
:10214000882329F085E08A95F1F700000AC0A5E30D
:10215000B2E0E7E2F2E081918D9332E0E533F307FC
:10216000D1F70E94FC1581E00F90DF91CF911F9174
:102170000F91FF90EF90DF90CF90BF909F908F9046
:102180000895E82FF0E0EB5CFD4F808108950895FD
:10219000811105C0977081E019F480E001C081E0F1
:1021A0008170089580911D0390911E03A0911F03DB
:1021B000B0912003892B8A2B8B2B69F481E040910D
:1021C000190350911A0360911B0370911C03452B56
:1021D000462B472B09F080E0817008950F931F93E1
:1021E000CF93DF931F92CDB7DEB7182F69830E947C
:1021F0006425082F812F0E9474256981862F0E94F3
:10220000C01B802F0F90DF91CF911F910F910C94E5
:102210007425803141F09CEF980F9A3110F481E0E1
:1022200008958333E1F380E008952F923F924F9217
:102230005F926F927F928F929F92AF92BF92CF9256
:10224000DF92EF92FF920F931F93CF93DF93CDB75F
:10225000DEB728970FB6F894DEBF0FBECDBF0E9441
:1022600064258D8382E10E946D258091100350903A
:102270001403709115037E83982F9170792E81FB42
:10228000992790F99093440282FB992790F99093B3
:10229000430283FB662460F880911103882371F068
:1022A00033243394823009F0312C44244394833016
:1022B00009F0412C82E00E94672502C0412C312C9C
:1022C0001092450251E0C52E51E0D52EEFE0F3E02B
:1022D000FC83EB83812C912C18861F821A8271E07B
:1022E0007983EB81FC814191FC83EB83442309F4E6
:1022F000FFC071E079838F819885019709F0198279
:10230000F60120813181EF81F885E55AFE4F808109
:102310006F8178856530710559F490914402992355
:1023200021F090914302911195C1711056C057C090
:10233000EF81F8853497D1F4511051C09091440247
:10234000992371F07E817723A1F19091430291113D
:1023500030C0772009F443C081E08093450229C052
:102360007720E9F183E02AE339E039C0EF81F8858D
:102370003697A9F550914502511011C0511107C06F
:1023800090914402992319F09091430210C0772054
:1023900031F090914302992331F091E001C090E037
:1023A000552329F001C090E083E02AEB36E0992321
:1023B000B1F0842F807E90E095958795242F2F7023
:1023C000822B88779927959587954370842B9595CF
:1023D0008795482F2AEF35E040C12AEE34E12115D8
:1023E000310509F485C0823009F437C1833009F41E
:1023F00051C0813009F07CC07901F6E04F9FE00CBC
:10240000F11C1124B92C00E010E0F701E00FF11FDE
:1024100024902220C1F1822D0E94C01B822D0E9497
:10242000881C939464E026120BC0552049F088E183
:102430000E94C01B88E10E94881C92E0992E9B0C90
:1024400080914302811104C080914402882371F07D
:102450008F819885069751F40115110539F4822D65
:102460000E94C01B822D0E94881C9394332019F077
:1024700091E0991629F0442031F0E2E09E1203C069
:1024800082E00E946D250F5F1F4F0630110581F11C
:10249000B92CBBCF5901FAE04F9FA00CB11C1124FD
:1024A000E12CF12CF501EE0DFF1D059114910115A4
:1024B0001105F1F00F3F6FE1160789F0602F812FB2
:1024C0000E94EE10802F0E94881C70E5071305C043
:1024D0008394882D8770882E04C0939402C091E065
:1024E0009A83E2E0EE0EF11CFAE0EF16F104D1F669
:1024F0006F8178856F5F7F4F78876F8372E0C70E3B
:10250000D11C8F8198850A9709F0EBCE992019F09C
:1025100081E0862506C0662019F081E0872501C08C
:1025200080E0882351F09A81911107C08CE20E94CB
:10253000C01B8CE20E94881C9394182D1770892D63
:10254000912F0E94C8108823B1F0809146028436F2
:1025500011F410924602E091460281E08E0F8093C2
:102560004602EE0FFF0BE95BFD4F90828181887F71
:10257000812B818364C0772009F461C0F09046020A
:10258000FA94F7FE02C083E6F82E0F2D000F110B10
:10259000F801E95BFD4F5F018181E080F82FF77062
:1025A000CF2ED82E8E2D9D2D0E94C810882309F481
:1025B0003EC0662069F08AE20E94C01B8AE20E9447
:1025C000881CF501808181508083811138C02CC026
:1025D00079817723A1F18D2D8770B1F0D12CAC2CAE
:1025E000B12C2D2D30E02A153B0544F48FE40E94D8
:1025F000C01B8FE40E94881CD394F3CFF801E95BE1
:10260000FD4F8181887F8183EE2071F0D12C8AE299
:102610000E94C01B8AE20E94881CD394DE10F7CF70
:10262000F801E95BFD4F1082F092460208C0662077
:1026300031F08AE20E94C01B8AE20E94881C8D81D0
:102640000E947425EFE0F3E0119283E0E931F8078E
:10265000D9F743C020E030E0C2CE590196E0499F4F
:10266000A00CB11C1124E12CF12CF501EE0DFF1D85
:10267000059114910115110509F43ACF202E802FF0
:102680000E940911882321F0802F0E94C01B04C0E2
:10269000602F812F0E94EE10802F0E94881CF0E591
:1026A0002F1205C08394682D6770862E01C0939405
:1026B000332019F071E0971629F0442031F082E0C0
:1026C000981203C082E00E946D2592E0E90EF11C91
:1026D000E6E0EE16F10449F60BCF28960FB6F89413
:1026E000DEBF0FBECDBFDF91CF911F910F91FF9045
:1026F000EF90DF90CF90BF90AF909F908F907F90A2
:102700006F905F904F903F902F9008954F925F92FF
:102710006F927F929F92AF92BF92CF92DF92EF9291
:10272000FF920F931F93CF93DF938C01613009F4D5
:1027300083C038F0623009F497C0633009F4AEC04A
:10274000C5C0DC018C911196EC91B6E0EB9FF001D5
:102750001124E80FF11DEE0FFF1FEE0FFF1FEE56C5
:10276000FB4F459155916591749177FFAFC0CA01B8
:102770008F709927C12CD12C7601C39404C0CC0C46
:10278000DD1CEE1CFF1C8A95D2F7F4E07695679568
:1027900057954795FA95D1F7E42FEF709E2EAE2E00
:1027A000B12CD501AB59BE4FF501EE0FFF1FEB5E0B
:1027B000FE4FC081D181F8018281260137010C9042
:1027C00004C0440C551C661C771C0A94D2F788235D
:1027D000C9F0F2E09F1203C081EE0E94C01B888105
:1027E0009981AA81BB8184299529A629B729888343
:1027F0009983AA83BB83F501E15FFC4F80818C291B
:10280000808364C0409450946094709488819981CE
:10281000AA81BB8184219521A621B7218883998330
:10282000AA83BB830E94D21081110E94151182E0FD
:1028300098124CC081EE48C0DC0111968C91811138
:1028400002C081EE01C085EEF8019281992331F03A
:102850000E94C01B82E00E94D72338C00E94881CBF
:1028600082E00E94F22332C0DC016D917C9180E015
:102870000E94111662E170E00E945D2EFC01EE0FD5
:10288000FF1FE95CFE4F60818181F80192819923ED
:1028900019F00E94EE101AC0862F16C0DC011296A5
:1028A0008C911297882391F06D917C9180E00E9429
:1028B0001116C82F8FE20E94C01B8FE20E94881C55
:1028C0008C2F0E94C01B8C2F0E94881C80E090E0FF
:1028D000DF91CF911F910F91FF90EF90DF90CF90FC
:1028E000BF90AF909F907F906F905F904F900895B2
:1028F000089560919403709195038091960390914F
:1029000097030E94E22525982D9826982E982798BF
:102910002F98813029F0843029F4269A2E9A02C00B
:10292000259A2D9A0E94D210811102C0279A2F9ABF
:10293000089581E0089581E008950C949B140E940D
:10294000771F2FEF84E39CE0215080409040E1F717
:1029500000C000000C943D270F931F93CF93DF938B
:102960008C01FC01C081D181CE010E946324BE0193
:102970000E941116EC01B8010E949D14882309F4ED
:1029800033C1B801CE010E943418882309F42CC148
:10299000B801CE010E943D19882309F425C1C53133
:1029A000FCE5DF0708F0A3C0C2308CE5D80708F4C7
:1029B00078C0F8018281882309F47FC00E944F26E5
:1029C000811102C00E9435260E94622690E09093F9
:1029D000EC038093EB03FE01E350FC45E231F1058B
:1029E00020F4EA5AFF4F0C94712E8091EB03816022
:1029F00003C08091EB0382608093EB034BC0809116
:102A0000EB038460F9CF8091EB0313C08091EB035B
:102A10008061F2CF8091EB038062EECF8091EB0377
:102A20008064EACF8091EB038068E6CF8091EB036E
:102A300084608860E1CF8091EB038E7FDDCF809151
:102A4000EB038D7FD9CF8091EB038B7FD5CF809126
:102A5000EB0313C08091EB038F7ECECF8091EB030D
:102A60008F7DCACF8091EB038F7BC6CF8091EB0324
:102A70008F77C2CF8091EB038B7F877FBDCF909103
:102A8000EB0397FB882780F921E0822780FB97F9E9
:102A90009093EB038091EB030E9466260E94771FC0
:102AA000A3C0C115ECE5DE0779F0C130DC45A1F02B
:102AB00081E08093250380932603C801DF91CF91A5
:102AC0001F910F910C949914F8018281882309F4C5
:102AD0008BC00E949F1488C0F8018281882309F46A
:102AE00083C08091C10381608093C1037DC0C73CD6
:102AF0008CE5D80781F5F8018281882361F0109276
:102B000026030E94E226909324038093230380E20D
:102B10000E94D71C69C00E94642581FF05C081E026
:102B200080932503809326038091260381110FC093
:102B300080912303909124030E94EE26883C910506
:102B400030F487E20E94C01B87E20E94881C80E26A
:102B50000E94DE1C49C0C83CECE5DE0780F5C63C9F
:102B6000DC4509F0A5CFF8018281882351F010924D
:102B700025030E94E226909322038093210382E0A2
:102B8000C7CF0E94642585FF05C081E0809325039F
:102B9000809326038091250381110FC0809121032A
:102BA000909122030E94EE26883C910530F486E243
:102BB0000E94C01B86E20E94881C82E0C9CFCA3CEA
:102BC0008CE5D80731F4F8018281882369F080E030
:102BD00009C0CB3CDC4509F06BCFF801828188232A
:102BE00019F082E00E94A92980E0DF91CF911F9126
:102BF0000F9108950C94D8180C949A0F282F8823BD
:102C000039F090E02A3010F44D9608950697089513
:102C100087E290E0089508950C940B160C940C161E
:102C2000089596E0799FF001112494E5899FE00DC5
:102C3000F11D1124E60FF11DEE0FFF1FE65BFE4FA5
:102C4000859194910895880F991F865B9E4FFC0192
:102C50008591949108950E9411160E94B7178115CD
:102C600020E49207B0F5811540E3940708F0DBC03B
:102C7000803E9105D8F4803C910508F069C0883AFF
:102C8000910578F4853A910508F065C08130910589
:102C900009F46CC108F423C18430910508F066C1C1
:102CA0001EC18D3B910508F461C019C18F3F91058C
:102CB00009F048F4803F910508F0AFC0883E9105C7
:102CC00008F454C10CC1811520E2920708F0A7C096
:102CD0000895811544E59407D8F4811523E59207FA
:102CE00008F0DCC0811541E5940740F4811520E52A
:102CF000920708F0A2C09F70906A0895811542E57E
:102D0000940708F0B6C0982F8827816F906A0895BD
:102D1000811526E5920750F4811545E5940708F0E2
:102D2000D2C0982F8827846F906A0895811528E56E
:102D3000920708F4D4C0811549E5940708F4C8C087
:102D40009C0130562115304208F0C9C09F71C5C0A2
:102D5000805C910965C0853A910509F4C3C0863A43
:102D6000910509F4C2C083E890E40895883A91057A
:102D700009F4BEC0893A910509F4BDC08A3A9105AB
:102D800009F4BCC08B3A910509F4BBC08C3A91059B
:102D900009F4BAC08B3B910509F4B9C08C3B91058D
:102DA00009F4B8C08D3A910509F4B7C0803B91058C
:102DB00009F4B6C08E3A910509F4B5C08F3A910571
:102DC00009F4B4C0813B910509F4B3C0823B91057D
:102DD00009F4B2C0833B910509F4B1C0843B91056D
:102DE00009F4B0C0853B910509F4AFC0863B91055D
:102DF00009F4AEC0873B910509F4ADC0883B91054D
:102E000009F4ACC0893B910509F4ABC08A3B91053C
:102E100009F0AAC08AE296E40895906508959F702B
:102E20000E94231608959C01332793FF03C0C90114
:102E3000986C0895C901906C0895482F437021E063
:102E400030E002C0220F331F4A95E2F73C68AC0124
:102E500074E0569547957A95E1F74370342B8F705F
:102E60008695869540E2849FC0011124822B932B86
:102E70000895282F2695269540E2249F900111243D
:102E8000AC014370552781E090E002C0880F991F84
:102E90004A95E2F7822B932B9C680895282F26955C
:102EA000269540E2249F90011124AC0143705527E0
:102EB00081E090E002C0880F991F4A95E2F7822BCB
:102EC000932B9A6808958F719927982F882705C0AA
:102ED000982F8827806F906A08959062089580E007
:102EE00090E0089581E890E4089582E890E40895E0
:102EF00082EE94E4089589EE94E408958AEE94E4D1
:102F0000089585EB94E4089586EB94E4089583EBAB
:102F100094E4089584EB94E4089587EB94E4089591
:102F20008CEC94E408958DEC94E4089583E895E4A2
:102F300008958AE895E4089582E995E4089584E97E
:102F400095E4089581E296E4089583E296E4089575
:102F500084E296E4089585E296E4089586E296E494
:102F6000089587E296E4089580E094E40895823815
:102F7000910549F1B0F48133910509F459C048F441
:102F80008932910509F44FC08A32910509F455C080
:102F900008958533910509F441C08933910599F06D
:102FA0000895833E910531F138F4803E910591F00A
:102FB000823E9105A9F00895863E910501F1873E74
:102FC000910539F108952091EB0320FD3BC021FDCF
:102FD00039C008958091EB0380FF34C089E341C07C
:102FE0008091EB0382FF32C08091EB0384FF2CC001
:102FF00080E037C08091EB0382FD28C0F5CF80913F
:10300000EB0383FF25C08091EB0384FDF1CF87EEB6
:1030100028C08091EB0383FD1BC0F5CF8091EB03AB
:1030200085FF18C019C08091EB0385FF15C012C041
:103030008091EB0386FF12C013C08091EB0386FFE3
:103040000FC00CC080EE0DC083EE0BC082EE09C035
:1030500086EE07C085E305C089E203C081E301C0B5
:103060008AE290E008950895CF93DF93EC01FB018D
:103070008281811102C081E040C0809134038111BE
:1030800025C0C531DC45B9F70E94331881E0809333
:1030900034030E94E226909333038093320310920C
:1030A0002703109229031092280310922B031092E9
:1030B0002A0310922D0310922C0310922F031092CA
:1030C0002E03109231031092300316C08091320308
:1030D000909133030E94EE26883C910560F6809122
:1030E0002703E82FF0E0EE0FFF1FE85DFC4FD183D0
:1030F000C0838F5F8093270380E0DF91CF91089595
:1031000056985E9825982D9826982E9827982F984F
:103110008FEF90E0909389008093880090938B00CC
:1031200080938A0090938D0080938C00259A2D9A2D
:103130002FEF80E792E0215080409040E1F700C0FF
:103140000000269A2E9A2FEF80E792E021508040CF
:103150009040E1F700C00000279A2F9A2FEF80E7F8
:1031600092E0215080409040E1F700C00000259897
:103170002D982FEF80E792E0215080409040E1F7BA
:1031800000C0000026982E982FEF80E792E0215093
:1031900080409040E1F700C0000027982F98569893
:1031A0005E9825982D9826982E9827982F98089500
:1031B00089EA8093800089E08093810024982C988C
:1031C0003F988AB18F7C8AB96E98479A8BB1806399
:1031D0008BB9769A0E9480180C94781480E28093C0
:1031E00029018091350381110EC00E94200F81E0DA
:1031F000809335032FEF83ED90E321508040904082
:10320000E1F700C0000080E40E94260F80932901AE
:1032100081112EC00E94500F80932901811128C076
:103220000E94500F80932901811122C08FE30E94D8
:10323000500F8093290181111BC00E94480F80E428
:103240000E94260F80932901811112C08CE00E94F8
:10325000500F8093290181110BC00E94500F809361
:103260002901811105C08FE30E94500F809329012D
:103270000E94480F809129010895CF93DF93EC01BC
:10328000C13080E8D807C8F0FB0182818823A9F00B
:1032900080913603811109C08CE090E00E94772E66
:1032A0000E94611981E0809336030E946819CE0163
:1032B0009F770E94261A0E94DE1981E0DF91CF914C
:1032C000089580933703682F8CE090E00C94852E4E
:1032D000E0912A01F0912B0180818093E60381FF28
:1032E00003C081EE0E94881C8091E60385FF03C025
:1032F00085EE0E94881C8091E60380FF03C080EE6B
:103300000E94881C8091E60384FF03C084EE0E9423
:10331000881C8091E60382FF03C082EE0E94881C15
:103320008091E60386FF03C086EE0E94881C809190
:10333000E60383FF03C083EE0E94881C8091E603AE
:1033400087FF03C087EE0E94881C8091370381307D
:10335000A1F078F0823011F1843049F586EE0E94B8
:10336000C01B86EE0E94881C88E10E94C01B88E179
:103370001CC082EE0E94C01B1AC080EE0E94C01BBF
:1033800081EE0E94C01B88E10E94C01B88E10E9460
:10339000881C81EE0E94881C80EE07C082EE0E948D
:1033A000C01B87E50E94C01B87E50E94881C8FE335
:1033B0009CE90197F1F700C0000008958091370360
:1033C000813029F010F0823041F482EE04C08CE2AA
:1033D0000E94C01B8CE20E94881C8091E60381FF42
:1033E00003C081EE0E94C01B8091E60385FF03C0ED
:1033F00085EE0E94C01B8091E60380FF03C080EE33
:103400000E94C01B8091E60384FF03C084EE0E94EB
:10341000C01B8091E60382FF03C082EE0E94C01BA6
:103420008091E60386FF03C086EE0E94C01B809158
:10343000E60383FF03C083EE0E94C01B8091E60376
:1034400087FF03C087EE0C94C01B0895FF920F9373
:103450001F93CF93DF938C01CCE0D0E0C8010C2EFA
:1034600002C0969587950A94E2F7282F2F70F22EC6
:10347000822F0E94FE150E94C01B8F2D0E94FE15F8
:103480000E94881C2497CC3F8FEFD80739F7DF9133
:10349000CF911F910F91FF90089590933D038093DA
:1034A0003C030895E0913C03F0913D03309721F0F7
:1034B0000190F081E02D099480E00895E0913C03B3
:1034C000F0913D03309721F00280F381E02D0994C3
:1034D000089520913A0330913B038217930771F0CE
:1034E00090933B0380933A03E0913C03F0913D03BA
:1034F000309721F00680F781E02D099408952091FE
:103500003803309139038217930771F09093390390
:1035100080933803E0913C03F0913D03309721F014
:103520000084F185E02D0994089508950C94951A6E
:103530000E94D9260E949C0F0E946027EBEEF3E0C8
:103540008081806880830895CF92DF92EF92FF920E
:103550000F931F93CF93DF93CDB7DEB72B970FB6A3
:10356000F894DEBF0FBECDBF0E94C30F3FE3E32E32
:1035700033E0F32E00E010E0C02E802F0E94C11037
:10358000F701D1907F01D826B1F40F5F1F4F0E30A5
:10359000110591F78FEF89838A831B820E94E226AF
:1035A0008160782F9D838C8349815A816B818D81C5
:1035B0000E94811B41C09091C10391FF04C08B8781
:1035C0000E94C7108B8520E030E04D2D50E0922FF7
:1035D000BA01022E02C0759567950A94E2F760FF62
:1035E00025C02E83CF82EE24E394F12C02C0EE0C92
:1035F000FF1C9A95E2F790E08E219F2121E0892B14
:1036000009F420E028870E94E2268160782F9A87BB
:1036100089874E815F8168858A850E94811BF801B8
:10362000E15CFC4F80818E25808306C02F5F3F4F79
:103630002630310561F6A9CF10913E030E94521A3F
:103640001817A1F00E94521A80933E032B960FB6D2
:10365000F894DEBF0FBECDBFDF91CF911F910F91C8
:10366000FF90EF90DF90CF900C940E162B960FB634
:10367000F894DEBF0FBECDBFDF91CF911F910F91A8
:10368000FF90EF90DF90CF900895DC0111964C9160
:1036900011975C91852F90E021E030E001C0220F6E
:1036A0005A95EAF712966C91129750E0662319F03A
:1036B00060915B0305C0FA01E35BFC4F608162230C
:1036C0006623B9F036E0349FF001359FF00D1124E8
:1036D000E80FF91FEE0FFF1FE159FE4F8081918126
:1036E0008D939C93FA01E35BFC4F8081822B808356
:1036F0000895FA01E35BFC4F209580812823208305
:103700000895CF93DF93CDB7DEB72B970FB6F8941C
:10371000DEBF0FBECDBF4F83588769877A878B87FF
:103720008A859B85892B31F05F3F11F080E003C0D3
:103730004F3FE1F781E0811104C0CE0107960E945E
:10374000451BDE01119686E0FD0111928A95E9F78D
:1037500085E0FE01379601900D928A95E1F7498147
:103760005A816B817C818D819E810E9441222B96A2
:103770000FB6F894DEBF0FBECDBFDF91CF91089595
:10378000882309F4C4C0823859F40E94521A81FD7A
:10379000BEC089E30E94E3240E94B32589E30CC0E4
:1037A000833871F40E94521A80FDB1C083E50E94F3
:1037B000E3240E94B32583E50E9423250C94B325BE
:1037C000843859F40E94521A82FDA1C087E40E94F5
:1037D000E3240E94B32587E4EFCF9CEF980F913A42
:1037E00018F40E94E324EACF90E2980F983050F446
:1037F000877091E001C0990F8A95EAF7892F0E949E
:103800006725DCCF9BE5980F933070F4853A29F05B
:10381000863A31F482E890E005C081E890E002C089
:1038200083E890E00C94691A98E5980F953108F0B8
:103830006EC0883A61F1893A69F18A3A71F18B3A3E
:1038400079F18C3A81F18B3B89F18C3B91F18D3A86
:1038500099F1803BA1F18E3AA9F18F3AB1F1813B08
:10386000B9F1823BC1F1833BC9F1843BD1F1853B86
:10387000D9F1863BE1F1873BE9F1883BF1F1893BE6
:10388000F9F18A3B09F03FC08AE292E03EC082EE45
:1038900090E03BC089EE90E038C08AEE90E035C001
:1038A00085EB90E032C086EB90E02FC083EB90E098
:1038B0002CC084EB90E029C087EB90E026C08CEC14
:1038C00090E023C08DEC90E020C083E891E01DC023
:1038D0008AE891E01AC082E991E017C084E991E09A
:1038E00014C081E292E011C083E292E00EC084E253
:1038F00092E00BC085E292E008C086E292E005C04B
:1039000087E292E002C080E090E00C947F1A089574
:10391000882309F44BC0823859F40E94521A81FF5F
:1039200045C089E30E94E3240E94B32589E30CC0CB
:10393000833871F40E94521A80FF38C083E50E94D8
:10394000E3240E94B32583E50E9423250C94B3252C
:10395000843859F40E94521A82FF28C087E40E94DA
:10396000E3240E94B32587E4EFCF9CEF980F913AB0
:1039700058F390E2980F983050F4877091E001C0AE
:10398000990F8A95EAF7892F0E946D25DFCF9BE575
:10399000980F933020F480E090E00C94691A885AD4
:1039A000853120F480E090E00C947F1A08958823FC
:1039B00021F00E9467250C94B3250895882321F0F7
:1039C0000E946D250C94B32508958F929F92BF920B
:1039D000CF92DF92EF92FF920F931F93CF93DF93DB
:1039E00000D0CDB7DEB74C01472FFC01E580E29453
:1039F0009FE0E922F280FF2031F079836A830E9400
:103A000087256A81498149836A830E94DC24498130
:103A10006A81882389F0FF2079F080E2860F883060
:103A200058F082E00E94C5240E94DC24BB24B39499
:103A3000B82649816A8101C0B12CE42FE295EF706C
:103A4000F0E0E859FF4F0C94712E842F807F142FE3
:103A50001F70882311F01295107FFF20C1F01123F1
:103A600009F48DC180E2860F883010F0611105C025
:103A7000812F6A830E94672504C0812F6A830E9478
:103A80007A256A816A830E94B3256A8178C1862F6C
:103A90006A830E94881C6A81112309F4BEC180E2F6
:103AA000860F883010F0611104C0812F0E946D25AF
:103AB00003C0812F0E9480250E94B325AEC1242F10
:103AC000207F842F8F70203211F08295807F6623B3
:103AD00019F06130B9F020C0FF2049F0EE2009F460
:103AE00004C1F1E0EF1201C10E949A2596C1EE20B7
:103AF00021F091E0E91609F490C189830E949D2587
:103B00008981F9C0FF2029F0E1E0EE1508F485C1B4
:103B1000ECC0E11082C1EFC0FF2021F0EE2009F4DB
:103B2000E4C02DC1EE2009F4E6C02FC1242F269554
:103B30002695237030E02115310521F02130310523
:103B400061F06BC1FF2021F0862F942F937002C08B
:103B500080E090E00E94691A60C1FF2021F0862F6A
:103B6000942F937002C080E090E00E947F1A55C1AC
:103B7000842F837009F04EC0F1104FC1262F22957B
:103B800026952770220F220F862F8F70C82ED12CDA
:103B9000E12CF12C022E04C0CC0CDD1CEE1CFF1C11
:103BA0000A94D2F764FF10C06FE070E080E090E00C
:103BB00004C0660F771F881F991F2A95D2F760955A
:103BC00070958095909503C060E070E0CB01242F44
:103BD00026952695237030E02230310569F0233098
:103BE000310589F06C297D298E299F2921303105E5
:103BF00071F00E94922311C16C297D298E299F2981
:103C00000E94A4230AC10E949223C701B6010E9408
:103C1000802303C1FF2019F0842F817001C0869595
:103C2000882309F4FAC0262F229526952770220FA3
:103C3000220F862F8F70C82ED12CE12CF12C022E52
:103C400004C0CC0CDD1CEE1CFF1C0A94D2F764FFF0
:103C500010C06FE070E080E090E004C0660F771F56
:103C6000881F991F2A95D2F7609570958095909539
:103C700003C060E070E0CB01242F269526952370C9
:103C800030E02230310569F02330310589F06C29AC
:103C90007D298E299F292130310571F00E943E2413
:103CA000BCC06C297D298E299F290E945024B5C053
:103CB0000E943E24C701B6010E942C24AEC0062FEC
:103CC00010E0F801E05EF109E531F10508F053C0BC
:103CD000E858FF4F0C94712E162F1F70842F8F7190
:103CE000FF2031F00E94D723812F0E94D71C95C05E
:103CF0000E94F223812F0E94DE1C8FC0FF2039F02A
:103D0000E1108BC0842F8F710E94112486C0F1E0D6
:103D1000FE1508F482C0F6CFFF2039F0842F8F7192
:103D20000E94D7237AC0FF20C9F3842F8F710E948D
:103D3000F22373C0FF2029F0842F8F710E94C823C3
:103D40006CC00E94C32369C0FF2051F0142F1F7163
:103D5000812F0E94D72363E0812F0E94BC245DC085
:103D600081E00E94C52481E08E1508F056C082E0F3
:103D70000E94C52452C0FF2031F0EE2079F2862F38
:103D80000E94C01B4AC0EE2081F2862F0E94881C30
:103D900044C04F70C4010E9486130E94EE223DC0B1
:103DA000623FA9F128F4603F49F0613FE1F020C093
:103DB000643FA1F050F0653F69F01AC0FF2049F15F
:103DC00080915B0321E0822702C081E08F258093F0
:103DD0005B031FC0F1101DC081E0F9CFF11019C0C5
:103DE00010925B0316C0EE2091F0F11012C0E8CFE4
:103DF000EE2069F0862F49836A83FF2019F00E9424
:103E0000C01B02C00E94881C49816A8102C0F092D6
:103E10005B034F70C4010E941016BB20F1F00E949A
:103E2000B82480FD1AC0F40112820E94B2240E94BC
:103E3000D723C4010E943B1F0E94B2240F900F9011
:103E4000DF91CF911F910F91FF90EF90DF90CF9076
:103E5000BF909F908F900C94F2230F900F90DF9162
:103E6000CF911F910F91FF90EF90DF90CF90BF9077
:103E70009F908F9008950F931F93CF93DF93EC0142
:103E8000288139818B819C81892B31F03F3F11F052
:103E900080E003C02F3FE1F781E0811113C0CE0124
:103EA0000E94AC14882371F0688179818A810E9414
:103EB000AE248C010E9462240E947D23B801CE01B1
:103EC0000E94E51CDF91CF911F910F9108950E94F0
:103ED00087250E9497250E9456250E94B32580E0E1
:103EE00090E00E94691A80E090E00C947F1A0E9492
:103EF00077250C94671F0E94A324E92FE295EF70A9
:103F0000F0E03297EE30F105B8F4E357FF4F0C9430
:103F1000712E803F59F018F4803E70F407C0843F42
:103F200059F404C0803E10F0813F31F481E00895DF
:103F300093FB882780F9089580E00895CF93DF935D
:103F400000D000D01F92CDB7DEB70F900F900F902A
:103F50000F900F90DF91CF910895CF93DF9300D012
:103F600000D000D0CDB7DEB726960FB6F894DEBFEE
:103F70000FBECDBFDF91CF9108951F93CF93DF93F5
:103F8000C0915C0316E080915D03C81799F0D0E002
:103F90001C9FF0011D9FF00D1124E25AFC4F40813F
:103FA000518162817381848195810E94AD1F219628
:103FB000C770E9CFDF91CF911F91089540918E0393
:103FC00050918F03609190037091910380919203BF
:103FD000909193030C94AD1FCF938091930382959E
:103FE0008F7009F05FC080919003882309F45AC054
:103FF00020915C03A0915D0360918E0370918F030B
:10400000809191039091920331E06F3F09F030E08D
:10401000B32FC6E02A1709F445C0009721F07F3F6F
:1040200021F44B2F03C041E001C040E030E040FDEF
:1040300035C0C29FF001C39FF00D1124E25AFC4F1E
:10404000418174132BC04081641328C04281411107
:1040500025C0438154814817590710F44150510934
:10406000481B590B483C5105C8F4809193038F704D
:1040700080618093930386E0829FF001839FF00D1F
:104080001124ED59FC4F80818F70806180838EE810
:1040900093E00E943B1FCF910C94BD1F2F5F3F4FB9
:1040A0002770B8CFCF910895CF92DF92EF92FF9211
:1040B0000F931F93CF93DF93CDB7DEB762970FB601
:1040C000F894DEBF0FBECDBF8C0185E0F801DE01A4
:1040D0001D9601900D928A95E1F7D8014C911196A9
:1040E0005C91119712966C9112971396ED90FC903B
:1040F000149770918E03E0918F032091910330917A
:1041000092032115310531F0EF3F31F481E07F3F1B
:1041100019F403C081E001C080E0B82FB170CB2E4C
:1041200080FD6CC1D0909003DD2009F4F5C0F091C2
:104130009303E216F30638F0C701821B930B883C09
:10414000910548F09BC0209530952E0D3F1D283CD1
:10415000310508F093C08F2F807F09F052C0E5131E
:1041600014C0741312C0D62E61110FC0FF70F0611D
:10417000F09393030E94DE1F8EE893E00E943B1FA2
:1041800080919303F80185836CC1EF2831F05F3F84
:1041900031F481E04F3F19F403C081E001C080E0B9
:1041A00080FD03C081E0862701C080E0F82FF17018
:1041B000FF2E80FF1CC080915C0320915D0336E0E0
:1041C000821709F428C190E0389FF001399FF00D63
:1041D0001124E25AFC4F7181571306C070814713B6
:1041E00003C07281671303C001968770E9CFD62E92
:1041F000662309F436C18091930381608093930311
:1042000053C0E51308C0741306C0611104C0D8017F
:104210001596FC93AEC04D875E878D859E856A8B13
:104220000E947B1F6A89882329F1D62E662311F10B
:1042300020919303822F82958F7090E002970CF467
:1042400060C080918E0390918F0398878F83198629
:10425000FB86EA862C87CE01079651C0E51731F11F
:104260004D875E878D859E856A8B0E947B1F6A893C
:1042700081112EC0C8010E943B1FA4C08F2F807FD8
:1042800069F77E2DF98AE88A89890E949E1F8EE847
:1042900093E00E943B1FEEE8F3E086E0DF011D9211
:1042A0008A95E9F70E94DE1FD12CDBC07413D8CFAA
:1042B0006111D6CFD8011596FC93C8010E943B1F0F
:1042C000EEE8F3E086E0DF011D928A95E9F7C9C0C8
:1042D000D62E662379F220919303822F82958F70D8
:1042E00090E0029774F080918E0390918F039A83EF
:1042F00089831B82FD82EC822E83CE0101960E946F
:104300003B1F86E0F801AEE8B3E001900D928A957C
:10431000E1F70E94EC1F6FC0E216F30628F0C70118
:10432000821B930B9C0104C0209530952E0D3F1DE0
:10433000283C310508F052C0D62E662309F49ACFE6
:10434000E5132CC074132AC08091930380FD1DC017
:10435000982F92959F70C9F0D80115968C93159758
:104360009F3039F09F5F9295907F8F70892B1596C3
:104370008C93C8010E943B1F86E0F801AEE8B3E0D1
:1043800001900D928A95E1F736C086E0F801AEE81B
:10439000B3E001900D928A95E1F763C04D875E8787
:1043A0008D859E850E947B1F882379F086E0F80129
:1043B000AEE8B3E001900D928A95E1F70E94EC1F00
:1043C0000E94DE1FDD24D3944CC080919303816052
:1043D00080939303C8010E943B1F43C07E2DF98A3E
:1043E000E88A89890E949E1FEEE8F3E086E0DF01FB
:1043F0001D928A95E9F70E94DE1F33C0662309F4F7
:1044000039CF4D875E878D859E850E947B1F8823CF
:1044100009F430CFCBCF4D875E878D859E850E9476
:10442000A324292F22952F7030E0223031052CF45F
:104430009F7041F0811106C00CC0243031052CF46E
:104440009F7049F4805E883020F0C8010E943B1FB5
:10445000CF2CDC2C06C0D80115969C91907F91F74B
:10446000F8CF8D2D62960FB6F894DEBF0FBECDBF8C
:10447000DF91CF911F910F91FF90EF90DF90CF9040
:1044800008951F93CF93DF93CDB7DEB72C970FB668
:10449000F894DEBF0FBECDBF4F83588769877A87F8
:1044A0008B879C87CE0107960E9454208823C1F0F9
:1044B0002F8138858A859B85892B31F03F3F11F00C
:1044C00080E003C02F3FE1F781E0811147C04F81B9
:1044D000588569857A858B859C850E94AD1F3EC075
:1044E00086E0FE013796DE01119601900D928A95C5
:1044F000E1F7FF81E8854A855B854115510531F07B
:10450000EF3F31F481E0FF3F19F403C081E001C0C7
:1045100080E080FD23C020915D0330E0C901019659
:104520008770992760915C0370E086179707F1F117
:10453000F983EA835D834C8396E0929FD001939F39
:10454000B00D1124A25ABC4FFE01319601900D927C
:104550009A95E1F780935D030E94BD1F16E080915C
:104560005C0390915D03891779F1189FC0011124B4
:10457000825A9C4F0E945420882331F1E0915C03C1
:104580001E9FF0011124E25AFC4F4081518162814B
:104590007381848195810E94AD1F80915C0390E0BE
:1045A00001968770992780935C03D9CF0E94771F6B
:1045B00010925D0310925C03EEE8F3E086E0DF0109
:1045C0001D928A95E9F7CACF2C960FB6F894DEBFF4
:1045D0000FBECDBFDF91CF911F910895EF92FF9253
:1045E0000F931F93CF93DF939C01009709F471C041
:1045F000F12CEE24E394E9012196F90184918437AA
:1046000040F4843008F056C0813081F0823021F1CE
:1046100060C0853709F449C0C0F19CE7980F903716
:1046200008F057C08F770E94881C46C089010E5F32
:104630001F4FFE01849190E2980F983050F48770DC
:10464000FE2D01C0FF0F8A95EAF78F2F0E948A2561
:1046500015C00E94C01B14C089010E5F1F4FFE01D0
:10466000849190E2980F983068F48770FE2D01C015
:10467000FF0F8A95EAF78F2F0E9490250E94B3259D
:10468000E8011AC00E94881CFBCF2E5F3F4FFE013D
:10469000C491CC2341F08FE99FE00197F1F700C06E
:1046A0000000C150F6CFE90107C0FE01F490E90116
:1046B000229602C00E94C01B8F2D882341F0EFE993
:1046C000FFE03197F1F700C000008150F6CF9E0166
:1046D00092CFDF91CF911F910F91FF90EF900895AE
:1046E00008950E94702360939803709399038093B8
:1046F0009A0390939B030C94671F08950C94712365
:104700000F931F93009198031091990320919A039E
:1047100030919B03602B712B822B932B1F910F9158
:104720000C9471230F931F93009198031091990398
:1047300020919A0330919B0360237123822393235A
:104740001F910F910C9471230F931F930091980365
:104750001091990320919A0330919B036027712750
:10476000822793271F910F910C94712308950E9423
:10477000B62360939403709395038093960390936C
:1047800097030C94671F60E070E0CB010C94B72393
:1047900041E050E060E070E004C0440F551F661F28
:1047A000771F8A95D2F7CB01BA010C94B72341E069
:1047B00050E060E070E004C0440F551F661F771F93
:1047C0008A95D2F78091940390919503A0919603D6
:1047D000B0919703482B592B6A2B7B2BCB01BA0145
:1047E0000C94B72341E050E060E070E004C0440F57
:1047F000551F661F771F8A95D2F740955095609593
:1048000070958091940390919503A0919603B09137
:104810009703482359236A237B23CB01BA010C94C5
:10482000B72341E050E060E070E004C0440F551F42
:10483000661F771F8A95D2F7809194039091950314
:10484000A0919603B0919703482759276A277B27A1
:10485000CB01BA010C94B7230F931F9300919403DB
:10486000109195032091960330919703602B712B43
:10487000822B932B1F910F910C94B7230F931F93AF
:104880000091940310919503209196033091970322
:1048900060237123822393231F910F910C94B723DC
:1048A0000F931F9300919403109195032091960309
:1048B0003091970360277127822793271F910F91CB
:1048C0000C94B7230895CF92DF92EF92FF920F934B
:1048D0001F93CF93DF93EC01C0909803D09099037E
:1048E000E0909A03F0909B0380919403909195033C
:1048F000A0919603B0919703C82AD92AEA2AFB2AE5
:104900000FE110E0B701A601002E04C0769567956F
:10491000579547950A94D2F740FD05C001501109FB
:1049200088F780E007C0BE01802F0E942B160197F8
:10493000A9F3802FDF91CF911F910F91FF90EF90FE
:10494000DF90CF900895CF93DF93EC010E94632412
:10495000BE010E942B16DF91CF910895CB010E94DA
:10496000A324089580919C03859585958595089548
:1049700080919C038770089598E0899F900111248D
:10498000622B60939C030C94D72340919C038095E9
:10499000842380939C03982F977069F450E0282F0C
:1049A000332727FD30954217530729F085958595C4
:1049B00085950C94F223089590919C03977081E063
:1049C00009F480E00895909136019923D9F09091EF
:1049D000EB0397FF17C0982F9695969596959F3164
:1049E00088F5E0912A01F0912B01E90FF11D877004
:1049F00021E030E001C0220F8A95EAF78181822B05
:104A00008183089540912A0150912B0120E030E0EC
:104A10009FEFFA01E20FF31F6281681799F09F3F41
:104A200019F4611101C0922F2F5F3F4F2E313105D4
:104A300081F79F3F39F0FA01E90FF11D97FDFA95D3
:104A4000828308950895909136019923E1F0909121
:104A5000EB0397FF18C0982F9695969596959F31E2
:104A600020F5E0912A01F0912B01E90FF11D8770EB
:104A700021E030E001C0220F8A95EAF7209581817C
:104A800028232183089540912A0150912B0120E091
:104A900030E0FA01E20FF31F9281981301C01282F5
:104AA0002F5F3F4F2E313105A1F7089581E090E04F
:104AB000E0912A01F0912B01E80FF91F1082019675
:104AC00080329105A9F708958091C00308959091CF
:104AD000C003982B9093C003089580959091C003D4
:104AE00098239093C00308958093C0030895109273
:104AF000C00308959091BF03982B9093BF0308952E
:104B000080959091BF0398239093BF0308951092CE
:104B1000BF0308959091BE03982B9093BE03089510
:104B200080959091BE0398239093BE0308951092B0
:104B3000BE03089580939D03089510929D030895E8
:104B400040912A0150912B0120E030E080E0FA01F1
:104B5000E20FF31F918191118F5F2F5F3F4F2F3134
:104B60003105A9F70895E0912A01F0912B01809178
:104B7000C0038083E0912A01F0912B018081909104
:104B8000BF03892B8083E0912A01F0912B01808162
:104B90009091BE03892B808390919D03992361F0AE
:104BA000E0912A01F0912B018081892B80830E9462
:104BB000A025811110929D0380912A0190912B01D3
:104BC0000C945E1ACF92DF92EF92FF920F931F9395
:104BD0006C01EE24FF24C114D104E104F10421F49A
:104BE0006B017C0180E001C080E133272F2D1E2D59
:104BF0000D2D011511052105310519F0885F68019A
:104C0000790197018601A4E03695279517950795B8
:104C1000AA95D1F7011511052105310519F08C5F11
:104C20006801790197018601F2E03695279517957D
:104C30000795FA95D1F7011511052105310519F0F0
:104C40008E5F68017901B701A60176956795579542
:104C50004795452B462B472B09F08F5F1F910F91EE
:104C6000FF90EF90DF90CF9008956DEE7EEF80E0A3
:104C700090E00E94972E60E082E090E00E94852EF6
:104C800060E083E090E00E94852E60E084E090E0A8
:104C90000E94852E60E085E090E00C94852E80E0F7
:104CA00090E00E947F2E21E08D3E9E4F09F020E093
:104CB000822F089582E090E00C94772E83E090E0BC
:104CC0000C94772E84E090E00C94772E682F84E08B
:104CD00090E00C94852E8091F103843021F11092A4
:104CE000C20320E488E190E00FB6F894A895809381
:104CF00060000FBE2093600080E00E940E1683B714
:104D0000817F846083BF83B7816083BF78948895F7
:104D100083B78E7F83BF88E10FB6F89480936000DD
:104D2000109260000FBE08950895CF930E94B00FB7
:104D30000E94C30F0E949426C0E08C2F0E94C110D5
:104D4000811105C0CF5FCE30C1F780E001C081E0A6
:104D5000CF9108950E94771F0E94521A0C940E164C
:104D60001F920F920FB60F9211248F939F93AF93C0
:104D7000BF938091C203811113C08091E70390918A
:104D8000E803A091E903B091EA034196A11DB11D8A
:104D90008093E7039093E803A093E903B093EA03B9
:104DA000BF91AF919F918F910F900FBE0F901F9069
:104DB000189582E084BD93E095BD9AEF97BD8093EE
:104DC0006E0008952FB7F8948091E7039091E8035F
:104DD000A091E903B091EA032FBF0895CF92DF922B
:104DE000EF92FF920F931F932FB7F8944091E70330
:104DF0005091E8036091E9037091EA032FBF6A01C3
:104E00007B01EE24FF248C0120E030E0C016D106A7
:104E1000E206F30610F441505109481B590BCA0130
:104E20001F910F91FF90EF90DF90CF9008957894AD
:104E30001F920F920FB60F9211248F939F93AF93EF
:104E4000BF938091E7039091E803A091E903B091AB
:104E5000EA030196A11DB11D8093E7039093E80337
:104E6000A093E903B093EA03BF91AF919F918F9113
:104E70000F900FBE0F901F9018950E94682BF8940A
:104E80002FEF87EA91E6215080409040E1F700C083
:104E9000000087E090EBDC018093FA039093FB0322
:104EA000A093FC03B093FD032CE088E190E00FB6E3
:104EB000F894A895809360000FBE20936000FFCF08
:104EC0000E944F26811102C00E9435260E945A2658
:104ED0008093C1030E94622690E09093EC0380933C
:104EE000EB030E945E26682F70E080E090E00C9457
:104EF0007E238091E303089508950F931F93CF932A
:104F0000DF9300D01F92CDB7DEB78C010E94B92984
:104F1000823011F0843021F583E089831B830A837A
:104F200082E08093E9008FEF9091E800815095FD39
:104F300006C095ED9A95F1F700008111F5CF8091AB
:104F4000E80085FF0DC040E050E063E070E0CE0176
:104F500001960E94D6298091E8008E778093E80020
:104F60000F900F900F90DF91CF911F910F910895A7
:104F7000CF93DF9300D01F92CDB7DEB72091F1031E
:104F8000243029F522E02983805891099B838A8364
:104F90002093E9008FEF9091E800815095FD06C0C5
:104FA00095ED9A95F1F700008111F5CF8091E80019
:104FB00085FF0DC040E050E063E070E0CE01019657
:104FC0000E94D6298091E8008E778093E8000F90A8
:104FD0000F900F90DF91CF910895CF93DF93EC0165
:104FE0000E94B929823019F0843009F047C08091BD
:104FF00036018823E1F08091EB0387FF18C083E03E
:105000008093E9008FEF9091E800815095FD06C0F4
:1050100095E19A95F1F700008111F5CF8091E800B4
:1050200085FF2CC040E050E060E270E017C081E0F6
:105030008093E9008FEF9091E800815095FD06C0C4
:1050400095ED9A95F1F700008111F5CF8091E80078
:1050500085FF14C040E050E068E070E0CE010E949F
:10506000D6298091E8008E778093E80080E2FE01E7
:10507000A3ECB3E001900D928A95E1F7DF91CF9117
:1050800008958091F003811109C00E94682B0E944D
:10509000C52B8091E20084608093E2000895109215
:1050A000F0030895089508950C94AA2642E061EC57
:1050B00081E00E94E22A42E061EC82E00E94E22A62
:1050C00042E261EC83E00C94E22A8091F3038330A6
:1050D00009F455C030F4813071F0823009F48EC08B
:1050E00008958A3009F47AC08B3009F460C08930A1
:1050F00009F09CC020C08091F203813A09F096C06B
:105100008091E800877F8093E8008091F60390917A
:10511000F703892B21F060E080E090E003C060E2BB
:1051200083EC93E070E00E941F2A8091E8008B7767
:105130008093E80008958091F203813209F076C0EF
:105140008091F6039091F703009719F0029709F008
:105150006DC08091E800877F8093E8008091E8002F
:1051600082FD05C08091F1038111F8CF5FC080916D
:10517000F1008093E3038091E8008B7753C0809126
:10518000F203813A09F052C08091F6039091F7033F
:10519000892B09F04BC08091E800877F8093E8005D
:1051A0008091E80080FFFCCF8091360136C080916D
:1051B000F2038132D9F58091F6039091F703892BA0
:1051C000A9F58091E800877F8093E8000E94172B63
:1051D0008091F403809336010C94771F8091F20341
:1051E000813221F58091E800877F8093E8000E945A
:1051F000172B8091F5038093E40308958091F203C7
:10520000813AA1F48091E800877F8093E800809143
:10521000E80080FFFCCF8091E4038093F10080914F
:10522000E8008E778093E8000C94172B089584B7DC
:10523000877F84BF88E10FB6F89480936000109256
:1052400060000FBE80E880936100109261000E94B0
:10525000961A0E94682B0E94C52B8091E200846000
:105260008093E20078940E94402E0E94981A8CE26B
:1052700091E00E944D1A8091F103853069F40E94FB
:105280006B268091EF038823B1F30E949526882333
:1052900091F30E94C029EFCF0E94A41AECCF292FCE
:1052A000332723303105A9F06CF42130310509F49E
:1052B00042C02230310509F043C084E590E02EE978
:1052C0003CE142C021323105C9F02232310519F1E9
:1052D00037C099278130910541F08230910541F026
:1052E000892B71F5EAE9FCE105C0E2E8FCE102C0C6
:1052F000EAE6FCE1849190E09F0126C0633000F56E
:10530000E62FF0E0EE0FFF1FE05EFD4F20813181C0
:1053100089E090E019C0633098F4E62FF0E0DF01F7
:10532000AA0FBB1FA65EBD4F2D913C91E95EFD4FBC
:10533000808190E009C082E190E022EF3CE104C06E
:1053400080E090E020E030E0FA013183208308958E
:105350000895CF93C82F0E94A829C093E503CF9149
:1053600008958091F103843011F482E0089581E082
:1053700008958091E503811102C00C94B12908952C
:1053800080E189BD82E189BD09B400FEFDCF809135
:10539000D8008F7D8093D8008091E0008260809358
:1053A000E0008091E00081FDFCCF0895CF92DF9274
:1053B000EF92FF920F931F93CF93DF937C018B01AA
:1053C000EA010E94382B811131C0209731F0888189
:1053D0009981081B190BE80EF91EC12CD12C01155F
:1053E000110519F18091E80085FD14C08091E80055
:1053F0008E778093E800209741F0888199818C0D09
:105400009D1D9983888385E011C00E94382B8823D5
:1054100031F30CC0F70181917F018093F1000150BD
:105420001109FFEFCF1ADF0ADACF80E0DF91CF91C9
:105430001F910F91FF90EF90DF90CF9008952091F2
:10544000F8033091F9032617370748F06115710505
:1054500039F42091E8002E772093E80001C0B901CB
:10546000FC0120E061157105B9F18091F1038823F9
:1054700009F440C0853009F43FC08091E80083FD05
:105480003DC08091E80082FF06C08091E80082FF65
:1054900026C080E008958091E80080FFE3CF20914E
:1054A000F3008091F20090E0922B6115710551F0AC
:1054B0008830910538F421912093F10061507109F1
:1054C0000196F3CF21E0089709F020E08091E800F1
:1054D0008E778093E800C6CF2111C7CFD6CF8091B9
:1054E000F103882339F0853039F08091E80083FF9B
:1054F000CCCF04C082E0089583E0089581E0089550
:105500002091F8033091F9032617370748F0611509
:10551000710539F42091E8002E772093E80001C04E
:10552000B901FC0120E061157105C1F18091F10321
:10553000882309F441C0853009F440C08091E80017
:1055400083FD3EC08091E80082FF06C08091E800A4
:1055500082FF27C080E008958091E80080FFE3CFBC
:105560002091F3008091F20090E0922B611571057B
:1055700059F08830910540F424912093F100319640
:10558000615071090196F2CF21E0089709F020E0FF
:105590008091E8008E778093E800C5CF2111C6CFB7
:1055A000D5CF8091F103882339F0853039F080918F
:1055B000E80083FFCBCF04C082E0089583E0089524
:1055C00081E00895982F973058F59093E900981747
:1055D00039F07091EC002091ED005091F00003C083
:1055E000242F762F50E021FF19C03091EB003E7F31
:1055F0003093EB003091ED003D7F3093ED00309122
:10560000EB0031603093EB007093EC002093ED00E1
:105610005093F0002091EE0027FF07C09F5FD3CF8B
:105620008F708093E90081E0089580E00895809173
:10563000F20387FD05C08091E80080FF0EC012C014
:105640008091E80082FD05C08091F1038111F8CFBF
:1056500008958091E8008B7708C08091F103811153
:10566000EACF08958091E8008E778093E80008954E
:105670008091E4009091E50045E62091EC0020FF48
:1056800021C02091E80020FD21C02091F1032223B8
:1056900089F0253089F02091EB0025FD0FC0209185
:1056A000E4003091E5002817390739F3415041F003
:1056B000C901E3CF82E0089583E0089581E0089571
:1056C00084E008952091E80022FFDFCF80E0089574
:1056D0000E94D62B0E94DE2BE0EEF0E080818160FC
:1056E0008083E8EDF0E080818F77808319BCA7ED9F
:1056F000B0E08C918E7F8C9380818F7E808310921E
:10570000F00308950F931F93CF93DF930E94D62B3E
:105710000E94DE2BC8EDD0E088818F778883888156
:105720008068888388818F7D888319BC1092F103FB
:105730001092ED031092EF031092EE0300EE10E0D2
:10574000F80180818B7F808388818160888342E03B
:1057500060E080E00E94E22AE1EEF0E080818E7F4E
:105760008083E2EEF0E080818160808380818860C8
:105770008083F80180818E7F808388818061888327
:10578000DF91CF911F910F910895E8EDF0E08081B6
:105790008F7E8083E7EDF0E080818160808384E00C
:1057A00082BF81E08093F0030C94822BE8EDF0E05F
:1057B00080818E7F80831092E20008951092DA003B
:1057C0001092E10008951F920F920FB60F921124CC
:1057D0002F933F934F935F936F937F938F939F93F9
:1057E000AF93BF93EF93FF938091E10082FF0BC0D3
:1057F0008091E20082FF07C08091E1008B7F80935F
:10580000E1000E943F2E8091DA0080FF1FC080914E
:10581000D80080FF1BC08091DA008E7F8093DA0071
:105820008091D90080FF0DC080E189BD82E189BDF2
:1058300009B400FEFDCF81E08093F1030E9441286E
:1058400005C019BC1092F1030E944F288091E1001D
:1058500080FF19C08091E20080FF15C08091E200B6
:105860008E7F8093E2008091E20080618093E2006D
:105870008091D80080628093D80019BC85E0809325
:10588000F1030E9453288091E10084FF30C0809191
:10589000E20084FF2CC080E189BD82E189BD09B4AA
:1058A00000FEFDCF8091D8008F7D8093D80080913D
:1058B000E1008F7E8093E1008091E2008F7E8093F3
:1058C000E2008091E20081608093E2008091ED032C
:1058D000882311F084E007C08091E30087FF02C0B5
:1058E00083E001C081E08093F1030E9454288091FD
:1058F000E10083FF29C08091E20083FF25C08091F1
:10590000E100877F8093E10082E08093F1031092B1
:10591000ED038091E1008E7F8093E1008091E200B1
:105920008E7F8093E2008091E20080618093E200AC
:1059300042E060E080E00E94E22A8091F00088600E
:105940008093F0000E945228FF91EF91BF91AF9198
:105950009F918F917F916F915F914F913F912F9187
:105960000F900FBE0F901F9018951F920F920FB6B9
:105970000F9211242F933F934F935F936F937F93D5
:105980008F939F93AF93BF93CF93EF93FF93C09168
:10599000E900CF708091EC001092E9008091F00056
:1059A000877F8093F00078940E94F12C1092E90098
:1059B0008091F00088608093F000C093E900FF912F
:1059C000EF91CF91BF91AF919F918F917F916F9107
:1059D0005F914F913F912F910F900FBE0F901F90AD
:1059E00018951F93CF93DF93CDB7DEB7AA970FB665
:1059F000F894DEBF0FBECDBFE2EFF3E08091F1007F
:105A0000819323E0EA3FF207C9F70E94652880915D
:105A1000E80083FF1CC12091F2033091F303832F30
:105A200090E08A30910508F012C1FC01E556FF4F65
:105A30000C94712E203881F0223809F008C1809131
:105A4000F6038F708093E9008091EB0085FB882737
:105A500080F91092E90006C08091EE039091EF0367
:105A6000911182609091E800977F9093E800809375
:105A7000F1001092F100C5C0822F8D7F09F0E7C0C0
:105A8000222319F0223061F0E2C08091F4038130CA
:105A900009F0DDC0333009F080E08093EF0328C0C7
:105AA0008091F403811124C02091F6032F7009F432
:105AB000CEC02093E9008091EB0080FF19C0809157
:105AC000EB00333011F4806211C080618093EB00F1
:105AD00081E090E0022E01C0880F0A94EAF78093DB
