:100000000C9471130C94B5130C94B5130C94B51394
:100010000C94B5130C94B5130C94B5130C94B51340
:100020000C94B5130C94B5130C9461320C943333C7
:100030000C942E2D0C94B5130C94B5130C94B5138D
:100040000C94B5130C94B5130C94B5130C94B51310
:100050000C94B5130C94952D0C94B5130C94B51306
:100060000C94B5130C94B5130C94B5130C94B513F0
:100070000C94B5130C94B5130C94B5130C94B513E0
:100080000C94B5130C94B5130C94B5130C94B513D0
:100090000C94B5130C94B5130C94B5130C94B513C0
:1000A0000C94B5130C94B5130C94B513BA17A71789
:1000B000A0179A17AD179D17B317741B7A1B7E1BD9
:1000C000811B851B891B8D1B911B961B9A1B9E1BDD
:1000D000A21BA51BA91BAD1BB11BB51BBA1BA323E0
:1000E000A323DD23DD2314248B254E258B253624E5
:1000F0008B25DD24DD2447258B258B258725EA24C8
:10010000EA24EA24EA24EA24EA24EA24EA24EA247F
:10011000EA24EA24EA24EA24EA24EA24EA24FC245D
:100120000A25112518252225072607261A261A260C
:1001300010261A261A261A260726072616261A26F3
:100140001A2616269833BA33A534BA33A534FC33AD
:100150001F34A534743487341E0030002B00D95C62
:10016000E00000002214040014001A001E000351D5
:1001700021141D0015001B00E2002A002E140900A6
:100180001600060052002800220013001700190074
:10019000510046002E000A0007000500000004512F
:1001A000E3004900000029000000045301532A0025
:1001B000000028000000045332000D000B000E0068
:1001C000000004512D000F0011003300500000000A
:1001D0002E021800080010004F002C002D141C00E7
:1001E0000C00360225144C003800360012002100A5
:1001F00027140351201437022300D95CE4000000C7
:100200003A00E200E000CC5CCC5C00003B002B003C
:10021000CC5CCC5CCC5CCC5C3C00CC5CCC5CCC5C8A
:10022000CC5CCC5C3D00CC5CCC5CCC5C0100CC5CA0
:100230003E00CC5CCC5CCC5C0100CC5C3F00CC5C78
:10024000CC5CCC5C0000CC5C2A00CC5C0000CC5CBC
:100250000000CC5C0100CC5C0000CC5C0000CC5CFD
:100260004000CC5CCC5CCC5C0000CC5C4100CC5C45
:10027000CC5CCC5C0100CC5C4200CC5CCC5CCC5C4B
:100280000100CC5C4300CC5CCC5CCC5CCC5CCC5C3A
:1002900044004C00CC5CCC5CCC5CCC5C4500E60003
:1002A000E400CC5CCC5C00003400DA5C01000100AE
:1002B00001000000240001000100010034000100E1
:1002C00022000100010001000100010020000100E6
:1002D00001000100010001001E00010001000100F9
:1002E00001000100260001000100010000000100E2
:1002F00001000100000001000000010000000100F9
:1003000000000100000001002700010001000100C1
:10031000000001001F0001000100010001000100B8
:10032000210001000100DA5C01000100230001004E
:100330000100DA5CDA5C01002500DA5C0100DA5CBD
:10034000DA5C0100DA5C1000DA5C010001000000F8
:10035000000000000000000000000000000000009D
:100360002700000000000100000000000000000065
:100370000000000000000000000026000000000057
:10038000000000000000000000000000000000006D
:10039000000000000000000000000000000000005D
:1003A000000000000000000000000000000000004D
:1003B0000000000024000000000000000000000019
:1003C0001F0000000000000000003400DB5C0000A3
:1003D0000000000000000000DB5C000000000000E6
:1003E00000002F02DB5C00000000010000000000A4
:1003F00000000000000000003A0001000100E100E0
:10040000010000003B0001000100010001000100AB
:100410003C00010001000100010001003D0001005D
:10042000010001004B0001003E000100010001003D
:100430004E0001003F00010001000100000001002A
:10044000005C01000000010000000100000001004C
:100450000000010000000100400001000100010057
:100460000000010041000100010001004A000100FC
:1004700042000100010001004D00010043000100A5
:100480000100010001000100440001000100010021
:1004900001000100450001000100E500010000002D
:1004A00000000000000000000000000020000080AC
:1004B000200000800000000000000000000000009C
:1004C0004100008042000080420000806200008005
:1004D00000000000330000804000008056000080D3
:1004E00057000080600000800000000032000080A3
:1004F00054000080550000800000000011000080C2
:100500000000000031000080520000805300008095
:10051000000000006100008000000000300000804A
:10052000500000805100008000000000100000809A
:1005300000000000A100008000000000100000800A
:100540000000000010000080000000001200008089
:100550000000000012000080000000001000008079
:100560000000000095000080700000807100008095
:1005700000000000100000800000000094000080D7
:1005800072000080730000800000000062000080A4
:10059000000000009300008074000080750000805F
:1005A00000000000110000800000000092000080A8
:1005B0009100008076000080770000806400008059
:1005C000000000000000000090000080800000801B
:1005D0008100008063000080000000000000000037
:1005E0000000000082000080820000800000000007
:1005F0000000000000002B000000000028000000A8
:1006000000000000000000000000000000000000EA
:100610002100000000000000360200000000000081
:1006200021005000000000002E1400000000000017
:1006300020000000000000002E1450000000000008
:1006400020005000000000002D000000000000000D
:1006500064020000000000002D00500000000000B7
:1006600064025000000000002D1400000000000093
:1006700000000000000000002D14500000000000E9
:100680002C005000000000003602000000000000B6
:1006900021003602000000003700000000000000CA
:1006A00021003602DD5C00002E143602000000003E
:1006B00020003602000000002E143602DD5C00002F
:1006C00020003602DD5C00002D0036020000000034
:1006D00032003702000000002D003602DD5C000011
:1006E00032003702DD5C00002D14360200000000ED
:1006F00000000000000000002D143602DD5C000048
:1007000000000000000000001000000000000000D9
:1007100021001000000000002E000000000000007A
:1007200021001000DD5C00002E141000000000000D
:1007300020001000000000002E141000DD5C0000FE
:1007400020001000DD5C00002D0010000000000003
:1007500064021000000000002D001000DD5C0000AD
:1007600064021000DD5C00002D1410000000000089
:1007700000000000000000002D141000DD5C0000EF
:100780000000000000000000360000000000000033
:100790002100360000000000370037000000000094
:1007A00021003600DD5C00002E1436000000000041
:1007B00020003600000000002E143600DD5C000032
:1007C00020003600DD5C00002D0036000000000037
:1007D00000000000000000002D003600DD5C00007D
:1007E00000000000000000002D1436000000000092
:1007F00000000000000000002D143600DD5C000049
:1008000000000000000000002800000000000000C0
:10081000210028000000000036022800000000002F
:1008200000000000000000002E142800000000005E
:10083000200028000000000028002E14DE5C0000CC
:1008400000000000000000002D0028000000000053
:10085000640228000000000028002D00DE5C00007B
:1008600000000000000000002D142800000000001F
:10087000000000000000000028002D14DE5C0000D5
:100880000000000000000000360228000000000008
:100890002100360228000000370028000000000078
:1008A00000000000000000002E14360228000000A6
:1008B00020003602280000000000000000000000B8
:1008C00000000000000000002D003602280000009B
:1008D0003200370228000000000000000000000085
:1008E00000000000000000002D1436022800000067
:1008F00000000000000000000000000000000000F8
:1009000000000000000000001000280000000000AF
:1009100021001000280000002E0028000000000028
:1009200000000000000000002E141000280000004D
:10093000200010002800000000000000000000005F
:1009400000000000000000002D0010002800000042
:1009500064021000280000004D0028000000000084
:1009600000000000000000002D141000280000000E
:100970000000000000000000000000000000000077
:100980000000000000000000360028000000000009
:100990002100360028000000370037002800000042
:1009A00000000000000000002E14360028000000A7
:1009B00020003600280000000000000000000000B9
:1009C00000000000000000002D003600280000009C
:1009D0000000000000000000000000000000000017
:1009E00000000000000000002D1436002800000068
:1009F00000000000000000000000000000000000F7
:100A000000000000000000002702000000000000BD
:100A100000000000000000001E02000000000000B6
:100A200000000000000000000000000000000000C6
:100A300000000000000000000000000000000000B6
:100A400000000000000000001F0200000000000085
:100A50000000000000000000200200000000000074
:100A60000000000000000000000000000000000086
:100A70000000000000000000000000000000000076
:100A80000000000000000000000000000000000066
:100A90000000000000000000000000000000000056
:100AA0000000000000000000000000000000000046
:100AB0000000000000000000000000000000000036
:100AC0000000000000000000000000000000000026
:100AD0000000000000000000000000000000000016
:100AE0000000000000000000000000000000000006
:100AF00000000000000000000000000000000000F6
:100B000000000000000000002102000000000000C2
:100B100000000000000000002202000000000000B1
:100B200000000000000000000000000000000000C5
:100B300000000000000000000000000000000000B5
:100B40000000000000000000230200000000000080
:100B5000000000000000000024020000000000006F
:100B60000000000000000000000000000000000085
:100B70000000000000000000000000000000000075
:100B80000000000000000000000000000000000065
:100B90000000000000000000000000000000000055
:100BA0000000000000000000000000000000000045
:100BB0000000000000000000000000000000000035
:100BC0000000000000000000000000000000000025
:100BD0000000000000000000000000000000000015
:100BE0000000000000000000000000000000000005
:100BF00000000000000000000000000000000000F5
:100C000000000000000000002502000000000000BD
:100C100000000000000000002602000000000000AC
:100C200000000000000000000000000000000000C4
:100C300000000000000000000000000000000000B4
:100C400000000000000000001E022702000000005B
:100C500000000000000000001E021E020000000054
:100C60000000000000000000000000000000000084
:100C70000000000000000000000000000000000074
:100C80000000000000000000000000000000000064
:100C90000000000000000000000000000000000054
:100CA0000000000000000000000000000000000044
:100CB0000000000000000000000000000000000034
:100CC0000000000000000000000000000000000024
:100CD0000000000000000000000000000000000014
:100CE0000000000000000000000000000000000004
:100CF00000000000000000000000000000000000F4
:100D000000000000000000001E021F0200000000A2
:100D100000000000000000001E0220020000000091
:100D200000000000000000000000000000000000C3
:100D300000000000000000000000000000000000B3
:100D400000000000000000001E0221020000000060
:100D500000000000000000001E022202000000004F
:100D60000000000000000000000000000000000083
:100D70000000000000000000000000000000000073
:100D80000000000000000000000000000000000063
:100D90000000000000000000000000000000000053
:100DA0000000000000000000000000000000000043
:100DB0000000000000000000000000000000000033
:100DC0000000000000000000000000000000000023
:100DD0000000000000000000000000000000000013
:100DE0000000000000000000000000000000000003
:100DF00000000000000000000000000000000000F3
:100E000000000000000000000000000000000000E2
:100E100021000000000000002C0000000000000085
:100E20002B00000000000000211400000000000062
:100E3000200000000000000064020000000000002C
:100E400064026402000000002200000000000000B4
:100E500064000000000000002300640200000000A5
:100E60006400640000000000221400000000000084
:100E70000000000000000000100200000000000060
:100E800020140000000000002E02000000000000FE
:100E900024140000000000001F14000000000000E7
:100EA00036020000000000002E022E0200000000AA
:100EB00000000000000000001E0000000000000014
:100EC0001E001E00000000002514000000000000AD
:100ED00000000000000000002514251400000000A0
:100EE00027140000000000000000000000000000C7
:100EF00000000000000000000000000000000000F2
:100F000000000000000000002300000000000000BE
:100F100000000000000000002E00000000000000A3
:100F20003000000000000000370200000000000058
:100F30003702370200000000261400000000000005
:100F400037023702370200002300230000000000B0
:100F5000000000000000000025000000000000006C
:100F600030002200000000003702320000000000C4
:100F700000000000000000003702320032000000D4
:100F80003702370237026400320000000000000020
:100F90000000000000000000380000000000000019
:100FA000360232000000000032003702000000006C
:100FB0000000000000000000000000000000000031
:100FC0003000211400000000320022000000000068
:100FD00000000000000000002314000000000000DA
:100FE000320036023200000034020000000000002F
:100FF0000000000000000000231423140000000083
:101000000000000000000000DC5C000000000000A8
:1010100000000000000000004D024C000000000035
:1010200000000000000000000000000000000000C0
:1010300000000000000000000000000000000000B0
:1010400000000000000000000000000000000000A0
:101050000000000000000000000000000000000090
:101060000000000000000000000000000000000080
:101070000000000000000000000000000000000070
:101080000000000000000000000000000000000060
:101090000000000000000000000000000000000050
:1010A0000000000000000000000000000000000040
:1010B0000000000000000000000000000000000030
:1010C0000000000000000000000000000000000020
:1010D0000000000000000000000000000000000010
:1010E0000000000000000000000000000000000000
:1010F00000000000000000000000000000000000F0
:101100000000000000000000DC5CDC5C000000006F
:1011100000000000000000000000000000000000CF
:1011200000000000000000000000000000000000BF
:1011300000000000000000000000000000000000AF
:1011400000000000000000004A024C000000000007
:1011500000000000000000004A004D024C000000AA
:10116000000000000000000000000000000000007F
:10117000000000000000000000000000000000006F
:1011800000000000000000003200320000000000FB
:10119000000000000000000000000000000000004F
:1011A000000000000000000000000000000000003F
:1011B000000000000000000000000000000000002F
:1011C000000000000000000000000000000000001F
:1011D000000000000000000000000000000000000F
:1011E00000000000000000000000000000000000FF
:1011F00000000000000000000000000000000000EF
:1012000000000000000000002702000000000000B5
:1012100000000000000000001E02000000000000AE
:101220002900000000000000211427020000000037
:1012300000000000000000000000000000000000AE
:1012400000000000000000001F020000000000007D
:10125000000000000000000020020000000000006C
:10126000000000000000000022142702000000001F
:10127000000000000000000000000000000000006E
:10128000000000000000000000000000000000005E
:10129000000000000000000000000000000000004E
:1012A000000000000000000000000000000000003E
:1012B000000000000000000000000000000000002E
:1012C00000000000000000002200270200000000D3
:1012D000000000000000000000000000000000000E
:1012E00000000000000000000000000000000000FE
:1012F00000000000000000000000000000000000EE
:1013000000000000000000002102000000000000BA
:1013100000000000000000002202000000000000A9
:1013200000000000000000000000000000000000BD
:1013300000000000000000000000000000000000AD
:101340000000000000000000230200000000000078
:101350000000000000000000240200000000000067
:10136000000000000000000000000000000000007D
:10137000000000000000000000000000000000006D
:10138000000000000000000000000000000000005D
:10139000000000000000000000000000000000004D
:1013A000000000000000000000000000000000003D
:1013B000000000000000000000000000000000002D
:1013C000000000000000000000000000000000001D
:1013D000000000000000000000000000000000000D
:1013E00000000000000000000000000000000000FD
:1013F00000000000000000000000000000000000ED
:1014000000000000000000002502000000000000B5
:1014100000000000000000002602000000000000A4
:1014200000000000000000000000000000000000BC
:1014300000000000000000000000000000000000AC
:1014400000000000000000001E0227020000000053
:1014500000000000000000001E021E02000000004C
:10146000000000000000000000000000000000007C
:10147000000000000000000000000000000000006C
:10148000000000000000000000000000000000005C
:10149000000000000000000000000000000000004C
:1014A000000000000000000000000000000000003C
:1014B000000000000000000000000000000000002C
:1014C000000000000000000000000000000000001C
:1014D000000000000000000000000000000000000C
:1014E00000000000000000000000000000000000FC
:1014F00000000000000000000000000000000000EC
:1015000000000000000000001E021F02000000009A
:1015100000000000000000001E0220020000000089
:1015200000000000000000000000000000000000BB
:1015300000000000000000000000000000000000AB
:1015400000000000000000001E0221020000000058
:1015500000000000000000001E0222020000000047
:10156000000000000000000000000000000000007B
:10157000000000000000000000000000000000006B
:10158000000000000000000000000000000000005B
:10159000000000000000000000000000000000004B
:1015A000000000000000000000000000000000003B
:1015B000000000000000000000000000000000002B
:1015C000000000000000000000000000000000001B
:1015D000000000000000000000000000000000000B
:1015E00000000000000000000000000000000000FB
:1015F00000000000000000000000000000000000EB
:1016000000000000000000000000000000000700D3
:10161000000000002100160000000700000000008C
:101620000000000000000000000000001100210088
:101630001700000000000000080015000000000076
:101640000000000021000F000F000000000000005B
:101650000C0011000A000000000000000000000063
:10166000000000000000000008001500000000005D
:101670000000000021001900080000000000000028
:10168000000000000000000000000000000000005A
:1016900000000000000000000C0011000A00000023
:1016A000000000000000000000000000000000003A
:1016B000000000000000000000000000000000002A
:1016C00000000000000000000800150000000000FD
:1016D00000000000210007000000000000000000E2
:1016E00000000000000000000000000000000000FA
:1016F00000000000000000000000000000000000EA
:1017000000000000000000000000000000000000D9
:1017100000000000000000000000000000000000C9
:1017200000000000000000000C0011000A00000092
:101730000000000021003300000000000000000055
:101740000000000000000000000000000000000099
:101750000000000000000000000000000000000089
:101760000000000000000000000000000000000079
:101770000000000000000000000000000000000069
:101780000000000000000000000000000000CE5C2F
:1017900000000000CE5C00000000D05C00000000F3
:1017A000CE5C00000000D05C00000000D05C0000B7
:1017B0000000000000000000CD5C00000000CF5CD5
:1017C00000000000000000000000D15C00000000EC
:1017D0000000000000000000000000000000000009
:1017E00000000000000000000000000000000800F1
:1017F000000000001C0000000000081C00000000A9
:101800001600000000000816000000001C16000072
:101810000000081C16000000000000000000150079
:101820000000000011000000000015110000000081
:101830000F0000000000150F00000000160000005F
:1018400000000F0F000000000A0000000000150A51
:1018500000000000110A000000000A110000000052
:101860000F0A000000000A15000000000700000039
:101870000000070F00000000060000000000150631
:101880000000000011060000000011061500000015
:1018900013000000000015130000000016130000E4
:1018A0000000130F000000000500000000001505F7
:1018B000000000000A0A00000000050815000000F2
:1018C000050F0000000015050F00000000000000DB
:1018D00000000F05000000000B00000000001D00CC
:1018E000000000001900000000001D1100000000B1
:1018F0001A00000000001D0F00000000160B000081
:1019000000000F19000000000A0B00000000150A7B
:101910000B00000033000000000015330000000041
:101920001B00000000000000000000001633000053
:1019300000000F3300000000060B00000000150639
:101940000B00000011060B0000001519000000003C
:10195000130B00000000000000000000160F000044
:1019600000000F060B000000090000000000150930
:1019700000000000330500000000330508150000DA
:101980000F0900000000090F0000000033130000E1
:1019900000001333000000001700000000001517BE
:1019A00000000000111700000000151117000000D2
:1019B0000F1700000000170F0000000016170000AE
:1019C00000001516170000000E0000000000150EA4
:1019D00000000000110E00000000000000000000E8
:1019E0000E0F00000000000000000000160E0000B6
:1019F00000000F0E00000000061700000000061592
:101A000000000000170C12110000060F000000007B
:101A1000131700000000000000000000111617005E
:101A200000000F1300000000060E00000000000080
:101A30000000000005170000000005081517000051
:101A4000060E0F0000000000000000000000000073
:101A50000000000000000000170B00000000151738
:101A60000B00000011170B0000001D170B000000F9
:101A70000F170B000000000000000000111900000B
:101A80000000161D081500000A0B170000001D0EAF
:101A900000000000110A170B0000330811170000A6
:101AA0001B170000000000000000000007170B00DB
:101AB000000011330811170017060B00000000008A
:101AC00000000000110F1C000000000000000000DA
:101AD00013170B000000000000000000160F1C0090
:101AE00000000000000000000917000000000917B6
:101AF0000815000009170811000000000000000090
:101B00000000000000000000000000003313170078
:101B1000000013330811170016000000000015160E
:101B20000000000011160000000015111600000052
:101B30000F1600000000150F16000000161600001A
:101B400000000F0F160000000A1600000000150A22
:101B500016000000110A160000000A11160000000D
:101B60000000000000000000000000000716000058
:101B7000000000000000000006160000000015062E
:101B8000160000001106081600000000000000000A
:101B9000131600000000151316000000161316009F
:101BA0000000130F081600000516000000001505C0
:101BB000160000000A0A16000000050815160000AD
:101BC000050F0816000000000000000000000000E3
:101BD00000000F05160000000B16000000001D1687
:101BE000000000001908160000001D11160000007A
:101BF0001A08160000001D0F16000000160B08162C
:101C000000000F19081600000A0B16000000000063
:101C1000000000003316000000001533160000001D
:101C20001B0816000000000000000000163316001C
:101C300000000F3316000000070000000000150729
:101C4000000000001107000000001D070000000058
:101C5000130B16000000150F070000001607000008
:101C600000000F0700000000070A0000000000004D
:101C700000000000330516000000330508151600AB
:101C800000000000000000000000000033131600F8
:101C900000000000000000001716000000001517EB
:101CA00016000000111716000000000000000000E0
:101CB0000F1716000000170F1C0000001617160063
:101CC00000001516171600000E1600000000150E75
:101CD00016000000110E16000000000000000000B9
:101CE000000000000000000000000000160E1600BA
:101CF00000000F0E1600000006171600000000007E
:101D000000000000170C1211160000000000000077
:101D100000000000000000000000000000000000C3
:101D200000000F1316000000060E16000000000051
:101D30000000000005171600000005081517160022
:101D4000060E0F0816000000000000000000000052
:101D50000000000000000000170B1600000015171F
:101D60000B16000011170B1600001D170B160000B4
:101D70000000000000000000000000000000000063
:101D800000000000000000000A0B171600001D0EE6
:101D900016000000110A170B160033081117160061
:101DA00000000000000000000000000007170B16F4
:101DB0000000113308111716071600000000150760
:101DC000160000001107160000001D071600000095
:101DD00013170B160000150F071600000000000077
:101DE00000000F07160000000000000000000000C7
:101DF00000000000000000000000000000000000E3
:101E0000000000000000000000000000331317165F
:101E10000000133308111716000000000000080826
:101E20000000000012120000000012080000000074
:101E30001414000000001408000000001412000038
:101E40000000141C00000000181800000000180812
:101E50000000000018120000000008181200000026
:101E600018140000000008181400000012181400D4
:101E70000000181C000000000C0C000000000C0802
:101E8000000000000C1200000000080C120000000E
:101E90000C1400000000080C14000000120C1400C8
:101EA00000000C1C000000000C1800000000080CD2
:101EB000180000000C121800000008120C18000096
:101EC000140C180000001C08000000001C12000088
:101ED00000000812140C18000000000000000800A8
:101EE00000000000120000000000081200000000C6
:101EF000140000000000081400000000121400008C
:101F000000001C1400000000180000000000081869
:101F10000000000012180000000008121800000065
:101F20001418000000000814180000001214180013
:101F300000001C18000000000C0000000000080C4D
:101F400000000000120C0000000008120C0000004D
:101F5000140C0000000008140C00000012140C0007
:101F600000001C0C00000000180C00000000081805
:101F70000C00000012180C0000001C000000000003
:101F800014180C000000081C00000000121C0000C7
:101F900000001C0000000000000000000000110014
:101FA000000000001500000000000F00000000000D
:101FB0001D00000000003300000000001D1500009F
:101FC00000003315000000000B00000000001C00A2
:101FD00000000000150B000000000F1C00000000B6
:101FE0001D0B00000000331C00000000000000007A
:101FF00000000000000000000600000000001A00C1
:1020000000000000061500000000060F00000000A0
:102010001300000000001311000000001315000061
:102020000000130F00000000060B00000000061C5B
:1020300000000000060B1500000006151C00000043
:10204000130B00000000131C00000000130B150010
:102050000000130B0F000000170000000000190023
:102060000000000017150000000004000000000040
:10207000171D000000000D0000000000000000001F
:1020800000000D0815000000170B00000000171CD1
:1020900000000000170B1500000017151C000000C1
:1020A0000E00000000000E11000000000E150000E0
:1020B00000000E0F000000000700000000000708ED
:1020C0001900000007150000000007080F000000BD
:1020D000071D000000000708330000000708150076
:1020E0000000000000000000090000000000071CC4
:1020F00000000000091500000000090F00000000AA
:10210000050000000000051C00000000051500008F
:102110000000050F00000000140000000000141172
:1021200000000000141500000000140F0000000063
:10213000141D000000001433000000000000000027
:102140000000140F0F000000140B00000000141C0E
:10215000000000000000000000000000000000007F
:10216000141D0B0000000000000000001411070007
:102170000000140F33000000140600000000141AC1
:102180000000000014061500000014060F000000F7
:102190001413000000001433330000001413150062
:1021A000000014130F00000014060B0000001406BA
:1021B000060000001406061500001406060F0000B5
:1021C00014130B00000000000000000014130B1596
:1021D00000000000000000001417000000001419A7
:1021E0000000000014171500000014040000000097
:1021F000141717000000140D000000001417171525
:102200000000140F1D00000014170B000000000058
:102210000000000014170B0F000000000000000079
:10222000140E0000000014060E1100000000000053
:102230000000000000000000140700000000140768
:102240001900000014071500000014060400000027
:1022500014070700000014073300000014070715D7
:1022600000001407070F0000140900000000140903
:102270000900000014091500000014090F000000F7
:1022800014050000000014051C00000014051500D2
:10229000000014050F0000001600000000001611D9
:1022A00000000000160815000000160F00000000D6
:1022B000161D0000000016330000000000000000A2
:1022C0000000000000000000160B00000000161CBB
:1022D00000000000160B15000000160F1C00000087
:1022E00000000000000000000000000000000000EE
:1022F0000000000000000000160600000000161696
:10230000000000001606150000000000000000009C
:102310001613000000000000000000001613150056
:10232000000016130F00000016060B00000000004E
:10233000000000000000000000000000000000009D
:1023400016130B00000016131C0000000000000014
:102350000000000000000000161700000000161921
:102360000000000016171500000016040000000011
:102370001B00000000000000000000001B15000012
:1023800000001608151900000000000000001617D4
:102390001C0000000000000000001617151C0000C3
:1023A000160E000000001B1C0000000000000000D2
:1023B00000000000000000000A00000000000A11F8
:1023C000000000000A15000000000A0F00000000D5
:1023D0000A1D0000000000000000000000000000D6
:1023E00000000000000000000A0B000000000A1CB2
:1023F00000000000000000000000000000000000DD
:1024000000000000000000000000000000000000CC
:10241000000000000000000014160000000014116D
:102420001100000014151500000014160F00000024
:10243000000000000000141633000000000000003F
:10244000000000000000000014160B00000014162D
:102450001C00000000000000000000000000000060
:10246000000000000000000000000000000000006C
:102470000000000000000000141606000000141602
:1024800016000000141606150000140F16000000B8
:102490001416130000001413130000001413131576
:1024A00000001413130F00000000000000000000E3
:1024B000000000000000000000000000000000001C
:1024C0001416130B00001416130B1C000000000060
:1024D0000000000000000000141617000000141196
:1024E0001900000014151700000014160400000065
:1024F000141B0000000000000000000000000000AD
:1025000000000000000000001416170B000014115A
:10251000170000000000000000001411170815004B
:1025200014160E0000000000000000000000000073
:102530000000000000000000140A00000000140A5F
:1025400011000000140A15000000140A0F0000001A
:10255000140A0A00000014070D000000140A0A15EE
:102560000000140A0A0F0000140A0B0000001409EE
:10257000170000001409091500001409090F0000D4
:1025800014050500000000000000000014050515FA
:102590000000000000000000160345007200670004
:1025A0006F0044006F007800200045005A000000D2
:1025B00016034500720067006F0044006F0078004A
:1025C000200045005A0000000403090409025400D9
:1025D000030100A0FA090400000103010100092120
:1025E000110100012240000705810308000A0904C7
:1025F0000100010300000009211101000122360041
:102600000705820308000A09040200010300000014
:10261000092111010001223900070583032000016F
:102620001201100100000008EDFE07130100010275
:10263000000105010906A101050719E029E71500B8
:1026400025019508750181020508190129059505DF
:10265000750191029501750391010507190029F78C
:102660001500250195F875018102C005010980A1B9
:102670000185021601002603001A81002A830075D5
:102680001095018100C0050C0901A1018503160107
:1026900000269C021A01002A9C02751095018100F7
:1026A000C005010906A101050719E029E715002564
:1026B00001950875018102950175088101050819C8
:1026C0000129059505750191029501750391010593
:1026D00007190029FF150026FF00950675088100DF
:1026E000C00011241FBECFEFDAE0DEBFCDBF04B6BD
:1026F00003FE24C080911C0990911D09A0911E0920
:10270000B0911F098730904BA740B04BB9F410929D
:102710001C0910921D0910921E0910921F0914BE67
:1027200084B7877F84BF88E10FB6F89480936000F8
:10273000109260000FBEE0E0FFE3099512E0A0E018
:10274000B1E0EAE5FAE602C005900D92A033B107C8
:10275000D9F719E0A0E3B2E001C01D92AC31B10796
:10276000E1F70E94952F0C942B350C9400001092E9
:10277000B9008AE08093B800089594EA9093BC0071
:102780009091BC0097FFFCCF9091B900987F983052
:1027900021F0903111F081E008958093BB0084E82E
:1027A0008093BC008091BC0087FFFCCF8091B90072
:1027B000887F883111F0803471F780E0089584E9D2
:1027C0008093BC008091BC0084FDFCCF0895809371
:1027D000BB0084E88093BC008091BC0087FFFCCFE5
:1027E0009091B900987F81E0983209F480E00895D3
:1027F00084E88093BC008091BC0087FFFCCF80916F
:10280000BB00089580B38C7080BB81B3836F81BBA4
:10281000089580913101811115C080E40E94BD139B
:102820008093310181110CC082E10E94E7138093F3
:102830003101811105C08FEF0E94E71380933101B0
:102840000E94DF1384B1807F84B985B1807F85B910
:102850008AB1837F8AB98BB1837F8BB93E984698C2
:10286000089508950C94F61A0E946C1F809331010C
:102870000E9409140E940214EFE3F2E0A1E3B2E027
:1028800011921D9282E0ED34F807D1F70C94751C7B
:102890000E946C1F809331010E9409140E9402144F
:1028A000EFE3F2E0A1E3B2E011921D9282E0ED3499
:1028B000F807D1F708958F929F92BF92CF92DF923F
:1028C000EF92FF920F931F93CF93DF931F92CDB799
:1028D000DEB780913101882379F0809130028F5FDB
:1028E00080933002811108C00E946C1F80933101D7
:1028F000811102C00E94FE1E01E312E0812C912C86
:10290000EE24E394F12CDD24D39495E0C92E282DF8
:10291000273030F580913101811142C080E48982F5
:102920000E94BD13809331012981811114C082E17D
:102930000E94E71380933101298181110CC0C701E6
:10294000082C01C0880F0A94EAF780950E94E713CB
:1029500080933101298129830E94DF13298120C0BE
:102960002A30A1F028F4283059F0293061F005C050
:102970002C3089F070F02D3089F0209A289810C002
:10298000219A29980DC0229A2A980AC0239A2B9836
:1029900007C0529A01C0539A5B9802C03E9A46986B
:1029A00030EA3A95F1F7273018F58091310181111D
:1029B00044C080E40E94BD1380933101882311F04C
:1029C000B12C12C083E10E94E71380933101811181
:1029D000F7CF81E40E94BD13809331018111F0CFC4
:1029E0000E94F813B82EB0940E94DF138B2D26C0DE
:1029F0008FB181708D25799B02C090E001C092E07B
:102A0000892B7C9B02C090E001C094E0892B7D9BC8
:102A100002C090E001C098E0892B7E9B02C090E04C
:102A200001C090E1892B9FB19095991F9927991F1B
:102A30009295990F907E892B01C080E0F8019081DA
:102A4000981719F08083C09200010E940914FFEFCB
:102A50008F1A9F0A0F5F1F4F3EE08316910409F003
:102A600056CF809100018823A1F08150809300010E
:102A7000882329F085E08A95F1F700000AC0AFE3CA
:102A8000B2E0E1E3F2E081918D9332E0EF33F307BE
:102A9000D1F70E94771C81E00F90DF91CF911F91B9
:102AA0000F91FF90EF90DF90CF90BF909F908F900D
:102AB0000895E82FF0E0E15CFD4F808108950895CE
:102AC00010927507E6E7F7E01082128211823396C2
:102AD00088E0E633F807C1F7089590917507292F2C
:102AE00030E0F901EE0FFF1FE20FF31FEA58F84F35
:102AF0008083728361839F5F909375070895262F6B
:102B000030E0FC017081A72FA770EA2FF0E0E630DB
:102B1000F1059CF5662389F1EE0FFF1F3196E80F52
:102B2000F91F40814F70E1F46F709081907F962B78
:102B3000292F22952F703181832F83708295807F7A
:102B4000822B8F5F282F2F738295807F9F70982B09
:102B5000908322952F70832F8C7F822B8183089501
:102B600050E04217530701F351E05A0F5770472FB7
:102B7000487F452BFC014083C4CF0895CF936D342B
:102B800081F018F4683239F004C0603531F06235F4
:102B900031F0C1E007C0C4E005C0C2E003C0C3E03B
:102BA00001C0C0E06C2F0E947F158C2FCF9108953B
:102BB00020E030E050E0F901EE0FFF1FE80FF91FB1
:102BC000DF0111967181472F4F7046130AC072952D
:102BD0007F7011964C9143704295407F472B540F64
:102BE00002C0442329F02F5F3F4F2630310519F7EB
:102BF000852F08958091710790917207A0917307B6
:102C0000B0917407892B8A2B8B2B69F481E040915A
:102C10006D0750916E0760916F0770917007452B9B
:102C2000462B472B09F080E0817008950F931F9386
:102C3000CF93DF931F92CDB7DEB7182F69830E9421
:102C4000E22B082F812F0E94F22B6981862F0E9490
:102C50003E22802F0F90DF91CF911F910F910C9406
:102C6000F22B803141F09CEF980F9A3110F481E003
:102C700008958333E1F380E008952F923F924F92BD
:102C80005F926F927F928F929F92AF92BF92CF92FC
:102C9000DF92EF92FF920F931F93CF93DF93CDB705
:102CA000DEB761970FB6F894DEBF0FBECDBF0E94AE
:102CB00060150E94E22B8E8782E10E94EB2B8091AF
:102CC000FB08887F8093FB0880E090E0FC01EE0F1A
:102CD000FF1FE450F74F108221812C7F2183019642
:102CE0008630910599F780916307282F2170322E45
:102CF000382F32703F8782FB882780F98B8750906E
:102D0000660740906807209164072D87222321F0F1
:102D100022242394223009F0212C55E0E52E51E0A5
:102D2000F52E62E6C62E67E0D62E00E010E031E018
:102D30003C87952D9B7F988BF60181916F018823AD
:102D400009F4D8C021E02C870130110509F01C8658
:102D5000F70140815181F801ED59FE4F9081063015
:102D6000110529F4332071F148E15EE12BC00430F4
:102D7000110569F4552031F120916707F4E05F16E1
:102D800011F0206801C02064209367071BC0053044
:102D9000110589F4411005C0332019F093E048E093
:102DA0005EE02889222371F0282F2074220F8F776C
:102DB000822B806407C00730110521F4411002C046
:102DC0003110F1C24115510509F494C0923009F453
:102DD0004EC0933009F4E9C2913009F08BC04A012A
:102DE00036E0839F800C911C1124612C712CF4011E
:102DF000E60DF71D9491992309F47CC00530110567
:102E000079F4943169F461E0561639F084E058168B
:102E100031F0552029F098E103C09CE001C092E117
:102E2000A92EB12CB50181E0998B0E946D1599896D
:102E3000943039F4442029F068E170E081E00E9488
:102E40006D159F85992351F00730110539F46114F0
:102E5000710421F4B50181E00E946D15EFEF6E1A47
:102E60007E0AF6E06F16710409F0C1CF43C04A0133
:102E700026E0829F800C911C1124A12CB12CF4011E
:102E8000EA0DFB1D659174916115710599F16D3C19
:102E90003CE5730790F0623D8CE5780748F0693DAA
:102EA0009CE5790750F4709304016093030108C016
:102EB000709302016093010103C082E00E946D15CE
:102EC000E2E0AE0EB11CF6E0AF16B104C1F612C0DE
:102ED00083E00E946D1522E0A20EB11C38E0A3161B
:102EE000B10441F0F401EA0DFB1D65917491611587
:102EF000710571F70F5F1F4F62E0E60EF11C0B309A
:102F0000110509F019CF80917507811106C02B8535
:102F1000222309F459C0311057C0E0910301F09108
:102F20000401E25DFC45E730F10570F4EA5AFF4F19
:102F30000C94EF3405E210E01FC003E210E01CC067
:102F4000222423943B85232600E010E015C082E074
:102F50000E94E52B0CE210E00BC082E00E94E52B02
:102F600005E210E005C082E00E94E52B03E210E0DC
:102F7000212C02C00CE210E0209175072223D1F031
:102F8000809177079091780786339105E9F040F4B6
:102F900080319105C9F070F08897029758F414C0F9
:102FA0008D34910589F0863362E0960769F08A34A2
:102FB000910551F00115110539F03B85332309F4D2
:102FC000E5C1222309F4E0C121100AC02D85211199
:102FD00007C080910101909102018E3C9C4518F040
:102FE00082E00E94E52BA12CB12CCE0101963C0180
:102FF00030E5E32EF12C4E019BE0890E911C4DEC47
:10300000442E4CE5542E80917507A81608F0B2C0E6
:103010008A2D90E08C01000F111F080F191F0A580C
:10302000184FF8018081823091F0833069F181304E
:1030300009F083C081810E943E22F80181810E94B3
:10304000062361E08BEF98E00E947F151BC0F8011A
:10305000D18012818D2D0E943116882321F08D2D73
:103060000E943E2204C06D2D812F0E9416168D2DC8
:103070000E9406236D2D8BEF98E00E94BE158130D3
:1030800009F05BC0B39459C0F3012AE011922A956C
:10309000E9F7F801018112810D3DFCE51F0791F070
:1030A0000E3D2CE5120799F00C3D3CE51307E1F4C9
:1030B00080E593E09A838983EAE2F0E0FC83EB8386
:1030C000630134C0FA82E982FC82EB82F9CF22E507
:1030D00030E03A8329838DE490E09C838B83E8E29F
:1030E000F0E0FE83ED83ECCF602F812F0E94161657
:1030F000802F0E940623602F8BEF98E00E94BE1560
:103100008130F1F6B394DCCF602F812F0E94161628
:10311000802F0E940623602F8BEF98E00E94BE153F
:10312000813009F4B394C814D90439F0F60101913F
:1031300011916F010115110539F7F1E0BF1218C0A7
:1031400080910101909102018E3C2CE5920721F0C3
:103150008F3C9C4541F005C0509202014092010114
:1031600002C0222029F082E00E94EB2B222423942B
:10317000A39449CFBB2081F080910101909102017D
:10318000803D9C4549F48DEC9CE590930201809331
:10319000010182E00E94EB2B8091FC088F70C9F046
:1031A00080914D02843611F410924D0230914D02FF
:1031B00081E0830F80934D022DE03203D001112472
:1031C000A25BBD4FEBEFF8E001900D922A95E1F77D
:1031D000D0C0332009F4CDC070904D027A9477FEB0
:1031E00002C0B3E67B2E872D9DE089028001112469
:1031F000025B1D4FF80181818F702B85882309F4B4
:10320000B0C0222309F441C08AE20E943E228AE231
:103210000E940623F8012081277080E090E030E0D2
:10322000F901E81BF90BEE0FFF1FE00FF11FDF01A3
:1032300011964181542F5F705130C9F442954F70FF
:1032400011962C911197822F83708295807F842B09
:10325000815C982F9F738295807F81608C9392957B
:103260009F70822F8C7F892B11968C9307C00196BB
:10327000A901481B590B4F3F5F4F91F661E0C80110
:103280000E94D815811175C069C02C85222309F4CC
:1032900070C0F80180818770A82EB12C7501EE0CEA
:1032A000FF1CE00EF11E00E010E0FFEFEF1AFF0A36
:1032B000C801880F991F4701881A990AC12CD12C7F
:1032C000F4018081982F92959F702181237022951F
:1032D000207F292B30E0C216D306C4F58F7090E012
:1032E0008230910521F13CF4019761F58AE20E9458
:1032F0003E228AE225C083309105F1F0049711F552
:1033000081EE0E943E2282E50E943E2282E50E94DA
:1033100006238DE40E943E228DE40E94062381EE66
:103320000E9406238CE40E943E228CE409C08FE4B4
:103330000E943E228FE404C081E50E943E2281E586
:103340000E9406232FEFC21AD20ABACF0F5F1F4F77
:10335000C501801B910B019609F0AACF70924D0216
:1033600008C0222331F08AE20E943E228AE20E94B3
:1033700006238E850E94F22BE2E6F7E0119237E0F9
:10338000ED36F307D9F71AC031101ECE602F80E05A
:103390000E941616802F0E94062361E08BEF98E0B2
:1033A0000E947F1511CE48E056E04A0168E0869FF2
:1033B000800C911C1124A12CB12C94CD61960FB6D8
:1033C000F894DEBF0FBECDBFDF91CF911F910F915B
:1033D000FF90EF90DF90CF90BF90AF909F908F9035
:1033E0007F906F905F904F903F902F9008954F92F5
:1033F0005F926F927F929F92AF92BF92CF92DF9235
:10340000EF92FF920F931F93CF93DF938B01893D30
:103410002CE5920709F48AC020F48C3C9C4559F0B5
:10342000D3C08A3DECE59E0709F499C08B3D9C45CD
:1034300009F4B1C0C9C0DB018C911196EC91B6E0E2
:10344000EB9FF0011124E80FF11DEE0FFF1FEE0FAF
:10345000FF1FE056FB4F85919591A591B491B7FF61
:1034600076C09C012F703327C12CD12C7601C394D8
:1034700004C0CC0CDD1CEE1CFF1C2A95D2F7D4E056
:10348000B695A79597958795DA95D1F7E82FEF70C0
:103490009E2EAE2EB12CD501A259BE4FF501EE0FD6
:1034A000FF1FE55EFE4FC081D181FB011281260125
:1034B00037010C9004C0440C551C661C771C0A9400
:1034C000D2F71123C9F0F2E09F1203C081EE0E94EF
:1034D0003E2288819981AA81BB8184299529A629C8
:1034E000B72988839983AA83BB83F501EE59F84FE6
:1034F00080818C2980832BC0409450946094709478
:10350000488159816A817B81442155216621772137
:10351000488359836A837B830E94FA1581110E9434
:103520003D1622E0921213C081EE32C0DB011196EB
:103530008C91811102C081EE01C085EEF8011281EB
:10354000112339F00E943E2282E00E94552A10E0A9
:103550003CC00E94062382E00E94702A36C0DB0134
:103560006D917C9180E00E948F1C62E170E00E946E
:10357000DB34FC01EE0FFF1FE15CFE4F60818181B7
:10358000F8011281112319F00E941616E0CF862F40
:103590000E9406231AC0DB0112968C911297882391
:1035A000B1F26D917C9180E00E948F1CC82F8FE258
:1035B0000E943E228FE20E9406238C2F0E943E2210
:1035C0008C2F0E940623C3CF11E0812FDF91CF9172
:1035D0001F910F91FF90EF90DF90CF90BF90AF9031
:1035E0009F907F906F905F904F9008956091A90891
:1035F0007091AA088091AB089091AC080E94602C51
:1036000025982D9826982E9827982F98813029F064
:10361000843029F4269A2E9A02C0259A2D9A0E9467
:10362000FA15811102C0279A2F9A089581E0089512
:103630000C94F7190E94F5252FEF84E39CE02150AC
:1036400080409040E1F700C000000C94BB2D0F9328
:103650001F93CF93DF938C01FC01C081D181CE01F8
:103660000E94E12ABE010E948F1CEC01B8010E9459
:10367000181B882309F433C1B801CE010E94B21E81
:10368000882309F42CC1B801CE010E94BB1F8823F6
:1036900009F425C1C531FCE5DF0708F0A3C0C2303D
:1036A0008CE5D80708F478C0F8018281882309F4F2
:1036B0007FC00E94CD2C811102C00E94B32C0E94B9
:1036C000E02C90E090930E0980930D09FE01E350E9
:1036D000FC45E231F10520F4E35AFF4F0C94EF343E
:1036E00080910D09816003C080910D0982608093F3
:1036F0000D094BC080910D098460F9CF80910D09AF
:1037000013C080910D098061F2CF80910D09806214
:10371000EECF80910D098064EACF80910D09806819
:10372000E6CF80910D0984608860E1CF80910D091A
:103730008E7FDDCF80910D098D7FD9CF80910D09CE
:103740008B7FD5CF80910D0913C080910D098F7E9D
:10375000CECF80910D098F7DCACF80910D098F7BCF
:10376000C6CF80910D098F77C2CF80910D098B7FD5
:10377000877FBDCF90910D0997FB882780F921E0C5
:10378000822780FB97F990930D0980910D090E9483
:10379000E42C0E94F525A3C0C115ECE5DE0779F005
:1037A000C130DC45A1F081E080933A0880933B086A
:1037B000C801DF91CF911F910F910C94161BF80156
:1037C0008281882309F48BC00E941A1B88C0F801EB
:1037D0008281882309F483C08091D6088160809318
:1037E000D6087DC0C73C8CE5D80781F5F8018281F9
:1037F000882361F010923B080E94602D9093390855
:103800008093380880E20E94552369C00E94E22B11
:1038100081FF05C081E080933A0880933B08809146
:103820003B0881110FC080913808909139080E949F
:103830006C2D883C910530F487E20E943E2287E29D
:103840000E94062380E20E945C2349C0C83CECE54C
:10385000DE0780F5C63CDC4509F0A5CFF801828182
:10386000882351F010923A080E94602D90933708F7
:103870008093360882E0C7CF0E94E22B85FF05C007
:1038800081E080933A0880933B0880913A08811147
:103890000FC080913608909137080E946C2D883CAB
:1038A000910530F486E20E943E2286E20E940623C1
:1038B00082E0C9CFCA3C8CE5D80731F4F801828197
:1038C000882369F080E009C0CB3CDC4509F06BCF70
:1038D000F8018281882319F082E00E94273080E07D
:1038E000DF91CF911F910F9108950C94561F0C9466
:1038F0003214282F882339F090E02A3010F44D96A6
:1039000008950697089587E290E0089508950C942D
:10391000861C0C94871C80E090E00895089596E042
:10392000799FF001112494E5899FE00DF11D112488
:10393000E60FF11DEE0FFF1FE85AFE4F859194919F
:103940000895880F991F885A9E4FFC018591949184
:1039500008950E948F1C0E94351E811520E4920755
:10396000B0F5811540E3940708F0DBC0803E910577
:10397000D8F4803C910508F069C0883A910578F444
:10398000853A910508F065C08130910509F46CC154
:1039900008F423C18430910508F066C11EC18D3B37
:1039A000910508F461C019C18F3F910509F048F4F1
:1039B000803F910508F0AFC0883E910508F454C1DE
:1039C0000CC1811520E2920708F0A7C00895811567
:1039D00044E59407D8F4811523E5920708F0DCC08C
:1039E000811541E5940740F4811520E5920708F020
:1039F000A2C09F70906A0895811542E5940708F06F
:103A0000B6C0982F8827816F906A0895811526E5A2
:103A1000920750F4811545E5940708F0D2C0982F1D
:103A20008827846F906A0895811528E5920708F425
:103A3000D4C0811549E5940708F4C8C09C013056EC
:103A40002115304208F0C9C09F71C5C0805C910942
:103A500065C0853A910509F4C3C0863A910509F419
:103A6000C2C083E890E40895883A910509F4BEC085
:103A7000893A910509F4BDC08A3A910509F4BCC0A0
:103A80008B3A910509F4BBC08C3A910509F4BAC090
:103A90008B3B910509F4B9C08C3B910509F4B8C082
:103AA0008D3A910509F4B7C0803B910509F4B6C081
:103AB0008E3A910509F4B5C08F3A910509F4B4C066
:103AC000813B910509F4B3C0823B910509F4B2C072
:103AD000833B910509F4B1C0843B910509F4B0C062
:103AE000853B910509F4AFC0863B910509F4AEC052
:103AF000873B910509F4ADC0883B910509F4ACC042
:103B0000893B910509F4ABC08A3B910509F0AAC035
:103B10008AE296E40895906508959F700E94A11C22
:103B200008959C01332793FF03C0C901986C089541
:103B3000C901906C0895482F437021E030E002C025
:103B4000220F331F4A95E2F73C68AC0174E05695AA
:103B500047957A95E1F74370342B8F70869586955B
:103B600040E2849FC0011124822B932B0895282FBB
:103B70002695269540E2249F90011124AC014370C4
:103B8000552781E090E002C0880F991F4A95E2F71F
:103B9000822B932B9C680895282F2695269540E22A
:103BA000249F90011124AC014370552781E090E0DF
:103BB00002C0880F991F4A95E2F7822B932B9A68CF
:103BC00008958F719927982F882705C0982F8827E7
:103BD000806F906A08959062089580E090E0089563
:103BE00081E890E4089582E890E4089582EE94E4F8
:103BF000089589EE94E408958AEE94E4089585EB9F
:103C000094E4089586EB94E4089583EB94E4089596
:103C100084EB94E4089587EB94E408958CEC94E4A9
:103C200008958DEC94E4089583E895E408958AE876
:103C300095E4089582E995E4089584E995E408956A
:103C400081E296E4089583E296E4089584E296E49E
:103C5000089585E296E4089586E296E4089587E261
:103C600096E4089580E094E408958238910549F13E
:103C7000B0F48133910509F459C048F489329105B3
:103C800009F44FC08A32910509F455C0089585336F
:103C9000910509F441C08933910599F00895833E57
:103CA000910531F138F4803E910591F0823E910505
:103CB000A9F00895863E910501F1873E910539F1FD
:103CC000089520910D0920FD3BC021FD39C00895C4
:103CD00080910D0980FF34C089E341C080910D09B6
:103CE00082FF32C080910D0984FF2CC080E037C074
:103CF00080910D0982FD28C0F5CF80910D0983FFC9
:103D000025C080910D0984FDF1CF87EE28C08091F8
:103D10000D0983FD1BC0F5CF80910D0985FF18C0EB
:103D200019C080910D0985FF15C012C080910D0941
:103D300086FF12C013C080910D0986FF0FC00CC012
:103D400080EE0DC083EE0BC082EE09C086EE07C088
:103D500085E305C089E203C081E301C08AE290E007
:103D600008950895CF93DF93EC01FB0182818111C7
:103D700002C081E040C080914908811125C0C53151
:103D8000DC45B9F70E94B11E81E0809349080E948A
:103D9000602D909348088093470810923C08109239
:103DA0003E0810923D081092400810923F08109271
:103DB0004208109241081092440810924308109251
:103DC00046081092450816C080914708909148080F
:103DD0000E946C2D883C910560F680913C08E82F8C
:103DE000F0E0EE0FFF1FE35CF74FD183C0838F5FDE
:103DF00080933C0880E0DF91CF91089556985E98BB
:103E000025982D9826982E9827982F988FEF90E038
:103E1000909389008093880090938B0080938A0010
:103E200090938D0080938C00259A2D9A2FEF80E738
:103E300092E0215080409040E1F700C00000269AB7
:103E40002E9A2FEF80E792E0215080409040E1F7DA
:103E500000C00000279A2F9A2FEF80E792E02150B0
:103E600080409040E1F700C0000025982D982FEF8A
:103E700080E792E0215080409040E1F700C00000D0
:103E800026982E982FEF80E792E0215080409040B6
:103E9000E1F700C0000027982F9856985E98259863
:103EA0002D9826982E9827982F98089589EA809320
:103EB000800089E08093810024982C983F988AB1F3
:103EC0008F7C8AB96E98479A8BB180638BB9769A4A
:103ED0000E94FE1E0C94311480E280933101809187
:103EE0004A0881110EC00E94B71381E080934A08EE
:103EF0002FEF83ED90E3215080409040E1F700C028
:103F0000000080E40E94BD138093310181112EC016
:103F10000E94E71380933101811128C00E94E713AA
:103F200080933101811122C08FE30E94E7138093B7
:103F3000310181111BC00E94DF1380E40E94BD1378
:103F400080933101811112C08CE00E94E7138093AD
:103F5000310181110BC00E94E7138093310181115F
:103F600005C08FE30E94E713809331010E94DF13A5
:103F7000809131010895CF93DF93EC01C13080E847
:103F8000D807C8F0FB0182818823A9F080914B08F3
:103F9000811109C08CE090E00E94F5340E94DF1F7F
:103FA00081E080934B080E94E61FCE019F770E941C
:103FB000A4200E945C2081E0DF91CF91089580933E
:103FC0004C08682F8CE090E00C940335E0913201AE
:103FD000F091330180818093080981FF03C081EE55
:103FE0000E9406238091080985FF03C085EE0E9488
:103FF00006238091080980FF03C080EE0E940623FB
:104000008091080984FF03C084EE0E9406238091FA
:10401000080982FF03C082EE0E94062380910809EE
:1040200086FF03C086EE0E9406238091080983FF65
:1040300003C083EE0E9406238091080987FF03C016
:1040400087EE0E94062380914C088130A1F078F021
:10405000823011F1843049F586EE0E943E2286EED0
:104060000E94062388E10E943E2288E11CC082EE65
:104070000E943E221AC080EE0E943E2281EE0E94E3
:104080003E2288E10E943E2288E10E94062381EEC2
:104090000E94062380EE07C082EE0E943E2287E542
:1040A0000E943E2287E50E9406238FE39CE9019748
:1040B000F1F700C00000089580914C08813029F08C
:1040C00010F0823041F482EE04C08CE20E943E2265
:1040D0008CE20E9406238091080981FF03C081EED3
:1040E0000E943E228091080985FF03C085EE0E9450
:1040F0003E228091080980FF03C080EE0E943E228C
:104100008091080984FF03C084EE0E943E228091C2
:10411000080982FF03C082EE0E943E2280910809B6
:1041200086FF03C086EE0E943E228091080983FF2D
:1041300003C083EE0E943E228091080987FF03C0DE
:1041400087EE0C943E220895FF920F931F93CF9316
:10415000DF938C01CCE0D0E0C8010C2E02C0969514
:1041600087950A94E2F7282F2F70F22E822F0E9453
:10417000791C0E943E228F2D0E94791C0E940623EA
:104180002497CC3F8FEFD80739F7DF91CF911F915C
:104190000F91FF90089590935208809351080895CD
:1041A000E0915108F0915208309721F00190F08190
:1041B000E02D099480E00895E0915108F0915208B3
:1041C000309721F00280F381E02D09940895209129
:1041D0004F08309150088217930771F09093500860
:1041E00080934F08E0915108F0915208309721F0E8
:1041F0000680F781E02D0994089520914D083091B3
:104200004E088217930771F090934E0880934D08E3
:10421000E0915108F0915208309721F00084F18527
:10422000E02D0994089508950C9413210E94572DB0
:104230000E9434140E94DE2DEDE0F9E08081806858
:1042400080830895CF92DF92EF92FF920F931F9396
:10425000CF93DF93CDB7DEB72B970FB6F894DEBFC1
:104260000FBECDBF0E945B1434E5E32E38E0F32E81
:1042700000E010E0C02E802F0E945915F701D19068
:104280007F01D826B1F40F5F1F4F0E30110591F753
:104290008FEF89838A831B820E94602D8160782F33
:1042A0009D838C8349815A816B818D810E94FF217E
:1042B00041C09091D60891FF04C08B870E945F1582
:1042C0008B8520E030E04D2D50E0922FBA01022E78
:1042D00002C0759567950A94E2F760FF25C02E83AA
:1042E000CF82EE24E394F12C02C0EE0CFF1C9A95D1
:1042F000E2F790E08E219F2121E0892B09F420E054
:1043000028870E94602D8160782F9A8789874E8147
:104310005F8168858A850E94FF21F801EC5AF74F7A
:1043200080818E25808306C02F5F3F4F2630310568
:1043300061F6A9CF109153080E94D0201817A1F060
:104340000E94D020809353082B960FB6F894DEBFBE
:104350000FBECDBFDF91CF911F910F91FF90EF90D6
:10436000DF90CF900C94891C2B960FB6F894DEBF8B
:104370000FBECDBFDF91CF911F910F91FF90EF90B6
:10438000DF90CF900895DC0111964C9111975C91CC
:10439000852F90E021E030E001C0220F5A95EAF726
:1043A00012966C91129750E0662319F06091700894
:1043B00005C0FA01EE59F74F608162236623B9F018
:1043C00036E0349FF001359FF00D1124E80FF91FFE
:1043D000EE0FFF1FE758FE4F808191818D939C93D4
:1043E000FA01EE59F74F8081822B80830895FA01FC
:1043F000EE59F74F20958081282320830895CF938D
:10440000DF93CDB7DEB72B970FB6F894DEBF0FBEA4
:10441000CDBF4F83588769877A878B878A859B852D
:10442000892B31F05F3F11F080E003C04F3FE1F78F
:1044300081E0811104C0CE0107960E94C321DE01F4
:10444000119686E0FD0111928A95E9F785E0FE015B
:10445000379601900D928A95E1F749815A816B81D7
:104460007C818D819E810E94BF282B960FB6F89487
:10447000DEBF0FBECDBFDF91CF910895882309F431
:10448000C4C0823859F40E94D02081FDBEC089E3A7
:104490000E94612B0E94312C89E30CC0833871F497
:1044A0000E94D02080FDB1C083E50E94612B0E9454
:1044B000312C83E50E94A12B0C94312C843859F4C3
:1044C0000E94D02082FDA1C087E40E94612B0E943F
:1044D000312C87E4EFCF9CEF980F913A18F40E94AB
:1044E000612BEACF90E2980F983050F4877091E0FA
:1044F00001C0990F8A95EAF7892F0E94E52BDCCF3E
:104500009BE5980F933070F4853A29F0863A31F4A0
:1045100082E890E005C081E890E002C083E890E086
:104520000C94E72098E5980F953108F06EC0883A12
:1045300061F1893A69F18A3A71F18B3A79F18C3AF1
:1045400081F18B3B89F18C3B91F18D3A99F1803B64
:10455000A1F18E3AA9F18F3AB1F1813BB9F1823BD9
:10456000C1F1833BC9F1843BD1F1853BD9F1863B55
:10457000E1F1873BE9F1883BF1F1893BF9F18A3BB5
:1045800009F03FC08AE292E03EC082EE90E03BC07C
:1045900089EE90E038C08AEE90E035C085EB90E07F
:1045A00032C086EB90E02FC083EB90E02CC084EB10
:1045B00090E029C087EB90E026C08CEC90E023C00F
:1045C0008DEC90E020C083E891E01DC08AE891E086
:1045D0001AC082E991E017C084E991E014C081E239
:1045E00092E011C083E292E00EC084E292E00BC040
:1045F00085E292E008C086E292E005C087E292E0A0
:1046000002C080E090E00C94FD200895882309F416
:104610004BC0823859F40E94D02081FF45C089E305
:104620000E94612B0E94312C89E30CC0833871F405
:104630000E94D02080FF38C083E50E94612B0E9439
:10464000312C83E50E94A12B0C94312C843859F431
:104650000E94D02082FF28C087E40E94612B0E9424
:10466000312C87E4EFCF9CEF980F913A58F390E20A
:10467000980F983050F4877091E001C0990F8A9597
:10468000EAF7892F0E94EB2BDFCF9BE5980F933041
:1046900020F480E090E00C94E720885A853120F4E3
:1046A00080E090E00C94FD200895882321F00E9482
:1046B000E52B0C94312C0895882321F00E94EB2BDC
:1046C0000C94312C08958F929F92BF92CF92DF92DB
:1046D000EF92FF920F931F93CF93DF9300D0CDB74C
:1046E000DEB74C01472FFC01E580E2949FE0E92210
:1046F000F280FF2031F079836A830E94052C6A8161
:10470000498149836A830E945A2B49816A8188239F
:1047100089F0FF2079F080E2860F883058F082E03F
:104720000E94432B0E945A2BBB24B394B826498184
:104730006A8101C0B12CE42FE295EF70F0E0E159FD
:10474000FF4F0C94EF34842F807F142F1F70882329
:1047500011F01295107FFF20C1F0112309F48DC1D3
:1047600080E2860F883010F0611105C0812F6A83C6
:104770000E94E52B04C0812F6A830E94F82B6A8176
:104780006A830E94312C6A8178C1862F6A830E94D5
:1047900006236A81112309F4BEC180E2860F8830A6
:1047A00010F0611104C0812F0E94EB2B03C0812FF8
:1047B0000E94FE2B0E94312CAEC1242F207F842F1B
:1047C0008F70203211F08295807F662319F061305E
:1047D000B9F020C0FF2049F0EE2009F404C1F1E057
:1047E000EF1201C10E94182C96C1EE2021F091E039
:1047F000E91609F490C189830E941B2C8981F9C0B4
:10480000FF2029F0E1E0EE1508F485C1ECC0E110CD
:1048100082C1EFC0FF2021F0EE2009F4E4C02DC1D9
:10482000EE2009F4E6C02FC1242F2695269523708B
:1048300030E02115310521F02130310561F06BC1E7
:10484000FF2021F0862F942F937002C080E090E02B
:104850000E94E72060C1FF2021F0862F942F9370E3
:1048600002C080E090E00E94FD2055C1842F83703B
:1048700009F04EC0F1104FC1262F229526952770C2
:10488000220F220F862F8F70C82ED12CE12CF12CF5
:10489000022E04C0CC0CDD1CEE1CFF1C0A94D2F7C7
:1048A00064FF10C06FE070E080E090E004C0660F2D
:1048B000771F881F991F2A95D2F76095709580956C
:1048C000909503C060E070E0CB01242F26952695DB
:1048D000237030E02230310569F02330310589F052
:1048E0006C297D298E299F292130310571F00E9484
:1048F000102A11C16C297D298E299F290E94222A04
:104900000AC10E94102AC701B6010E94FE2903C1F4
:10491000FF2019F0842F817001C08695882309F447
:10492000FAC0262F229526952770220F220F862F58
:104930008F70C82ED12CE12CF12C022E04C0CC0C8F
:10494000DD1CEE1CFF1C0A94D2F764FF10C06FE060
:1049500070E080E090E004C0660F771F881F991F09
:104960002A95D2F7609570958095909503C060E088
:1049700070E0CB01242F26952695237030E022305D
:10498000310569F02330310589F06C297D298E29A4
:104990009F292130310571F00E94BC2ABCC06C29CE
:1049A0007D298E299F290E94CE2AB5C00E94BC2A4B
:1049B000C701B6010E94AA2AAEC0062F10E0F80176
:1049C000E05EF109E531F10508F053C0E158FF4F11
:1049D0000C94EF34162F1F70842F8F71FF2031F04D
:1049E0000E94552A812F0E94552395C00E94702A4B
:1049F000812F0E945C238FC0FF2039F0E1108BC013
:104A0000842F8F710E948F2A86C0F1E0FE1508F472
:104A100082C0F6CFFF2039F0842F8F710E94552A73
:104A20007AC0FF20C9F3842F8F710E94702A73C04F
:104A3000FF2029F0842F8F710E94462A6CC00E94AB
:104A4000412A69C0FF2051F0142F1F71812F0E944D
:104A5000552A63E0812F0E943A2B5DC081E00E94BD
:104A6000432B81E08E1508F056C082E00E94432B54
:104A700052C0FF2031F0EE2079F2862F0E943E22B4
:104A80004AC0EE2081F2862F0E94062344C04F7058
:104A9000C4010E948B1C0E946C293DC0623FA9F199
:104AA00028F4603F49F0613FE1F020C0643FA1F08D
:104AB00050F0653F69F01AC0FF2049F180917008FD
:104AC00021E0822702C081E08F25809370081FC0FB
:104AD000F1101DC081E0F9CFF11019C010927008DB
:104AE00016C0EE2091F0F11012C0E8CFEE2069F070
:104AF000862F49836A83FF2019F00E943E2202C05C
:104B00000E94062349816A8102C0F09270084F70AA
:104B1000C4010E948E1CBB20F1F00E94362B80FD48
:104B20001AC0F40112820E94302B0E94552AC4013F
:104B30000E94B9250E94302B0F900F90DF91CF91EA
:104B40001F910F91FF90EF90DF90CF90BF909F90BB
:104B50008F900C94702A0F900F90DF91CF911F913E
:104B60000F91FF90EF90DF90CF90BF909F908F902C
:104B700008950F931F93CF93DF93EC012881398120
:104B80008B819C81892B31F03F3F11F080E003C085
:104B90002F3FE1F781E0811113C0CE010E94271B56
:104BA000882371F0688179818A810E942C2B8C0185
:104BB0000E94E02A0E94FB29B801CE010E946323D3
:104BC000DF91CF911F910F9108950E94052C0E94B3
:104BD000152C0E94D42B0E94312C80E090E00E9482
:104BE000E72080E090E00C94FD200E94F52B0C94CF
:104BF000E5250E94212BE92FE295EF70F0E0329736
:104C0000EE30F105B8F4EC56FF4F0C94EF34803FD2
:104C100059F018F4803E70F407C0843F59F404C082
:104C2000803E10F0813F31F481E0089593FB8827A6
:104C300080F9089580E00895CF93DF9300D000D0ED
:104C40001F92CDB7DEB70F900F900F900F900F907F
:104C5000DF91CF910895CF93DF9300D000D000D0A3
:104C6000CDB7DEB726960FB6F894DEBF0FBECDBF28
:104C7000DF91CF9108951F93CF93DF93C091710877
:104C800016E080917208C81799F0D0E01C9FF001DF
:104C90001D9FF00D1124ED58F74F40815181628125
:104CA0007381848195810E942B262196C770E9CF5C
:104CB000DF91CF911F9108954091A3085091A408CE
:104CC0006091A5087091A6088091A7089091A80806
:104CD0000C942B26CF938091A80882958F7009F0B1
:104CE0005FC08091A508882309F45AC020917108FB
:104CF000A09172086091A3087091A4088091A60801
:104D00009091A70831E06F3F09F030E0B32FC6E083
:104D10002A1709F445C0009721F07F3F21F44B2F5B
:104D200003C041E001C040E030E040FD35C0C29F1B
:104D3000F001C39FF00D1124ED58F74F418174131A
:104D40002BC04081641328C04281411125C043819A
:104D500054814817590710F441505109481B590B09
:104D6000483C5105C8F48091A8088F7080618093F9
:104D7000A80886E0829FF001839FF00D1124E85877
:104D8000F74F80818F708061808383EA98E00E9472
:104D9000B925CF910C943B262F5F3F4F2770B8CF9A
:104DA000CF910895CF92DF92EF92FF920F931F93CE
:104DB000CF93DF93CDB7DEB762970FB6F894DEBF1F
:104DC0000FBECDBF8C0185E0F801DE011D9601907C
:104DD0000D928A95E1F7D8014C9111965C9111974B
:104DE00012966C9112971396ED90FC901497709117
:104DF000A308E091A4082091A6083091A7082115E6
:104E0000310531F0EF3F31F481E07F3F19F403C009
:104E100081E001C080E0B82FB170CB2E80FD6CC165
:104E2000D090A508DD2009F4F5C0F091A808E2169D
:104E3000F30638F0C701821B930B883C910548F0BC
:104E40009BC0209530952E0D3F1D283C310508F064
:104E500093C08F2F807F09F052C0E51314C07413E4
:104E600012C0D62E61110FC0FF70F061F093A80838
:104E70000E945C2683EA98E00E94B9258091A808E8
:104E8000F80185836CC1EF2831F05F3F31F481E098
:104E90004F3F19F403C081E001C080E080FD03C0F2
:104EA00081E0862701C080E0F82FF170FF2E80FF9F
:104EB0001CC0809171082091720836E0821709F4B5
:104EC00028C190E0389FF001399FF00D1124ED5872
:104ED000F74F7181571306C07081471303C0728169
:104EE000671303C001968770E9CFD62E662309F4B5
:104EF00036C18091A80881608093A80853C0E5134B
:104F000008C0741306C0611104C0D8011596FC9343
:104F1000AEC04D875E878D859E856A8B0E94F92580
:104F20006A89882329F1D62E662311F12091A808D9
:104F3000822F82958F7090E002970CF460C0809170
:104F4000A3089091A40898878F831986FB86EA8628
:104F50002C87CE01079651C0E51731F14D875E874A
:104F60008D859E856A8B0E94F9256A8981112EC0E4
:104F7000C8010E94B925A4C08F2F807F69F77E2DBC
:104F8000F98AE88A89890E941C2683EA98E00E94AF
:104F9000B925E3EAF8E086E0DF011D928A95E9F79A
:104FA0000E945C26D12CDBC07413D8CF6111D6CF00
:104FB000D8011596FC93C8010E94B925E3EAF8E0F0
:104FC00086E0DF011D928A95E9F7C9C0D62E6623D7
:104FD00079F22091A808822F82958F7090E0029735
:104FE00074F08091A3089091A4089A8389831B820E
:104FF000FD82EC822E83CE0101960E94B92586E0C7
:10500000F801A3EAB8E001900D928A95E1F70E94B9
:105010006A266FC0E216F30628F0C701821B930BC5
:105020009C0104C0209530952E0D3F1D283C310574
:1050300008F052C0D62E662309F49ACFE5132CC08F
:1050400074132AC08091A80880FD1DC0982F9295E6
:105050009F70C9F0D80115968C9315979F3039F041
:105060009F5F9295907F8F70892B15968C93C801C6
:105070000E94B92586E0F801A3EAB8E001900D92FC
:105080008A95E1F736C086E0F801A3EAB8E001901E
:105090000D928A95E1F763C04D875E878D859E8569
:1050A0000E94F925882379F086E0F801A3EAB8E0A8
:1050B00001900D928A95E1F70E946A260E945C2673
:1050C000DD24D3944CC08091A80881608093A80807
:1050D000C8010E94B92543C07E2DF98AE88A8989D2
:1050E0000E941C26E3EAF8E086E0DF011D928A9523
:1050F000E9F70E945C2633C0662309F439CF4D8757
:105100005E878D859E850E94F925882309F430CF1E
:10511000CBCF4D875E878D859E850E94212B292FC1
:1051200022952F7030E0223031052CF49F7041F031
:10513000811106C00CC0243031052CF49F7049F455
:10514000805E883020F0C8010E94B925CF2CDC2C6D
:1051500006C0D80115969C91907F91F7F8CF8D2DC0
:1051600062960FB6F894DEBF0FBECDBFDF91CF9130
:105170001F910F91FF90EF90DF90CF9008951F93B4
:10518000CF93DF93CDB7DEB72C970FB6F894DEBF81
:105190000FBECDBF4F83588769877A878B879C87DF
:1051A000CE0107960E94D2268823C1F02F81388530
:1051B0008A859B85892B31F03F3F11F080E003C049
:1051C0002F3FE1F781E0811147C04F815885698504
:1051D0007A858B859C850E942B263EC086E0FE0149
:1051E0003796DE01119601900D928A95E1F7FF81C5
:1051F000E8854A855B854115510531F0EF3F31F473
:1052000081E0FF3F19F403C081E001C080E080FD30
:1052100023C02091720830E0C90101968770992758
:105220006091710870E086179707F1F1F983EA83BE
:105230005D834C8396E0929FD001939FB00D112423
:10524000AD58B74FFE01319601900D929A95E1F756
:10525000809372080E943B2616E08091710890911D
:105260007208891779F1189FC00111248D58974F42
:105270000E94D226882331F1E09171081E9FF0012F
:105280001124ED58F74F40815181628173818481EF
:1052900095810E942B268091710890E0019687707D
:1052A000992780937108D9CF0E94F5251092720832
:1052B00010927108E3EAF8E086E0DF011D928A951A
:1052C000E9F7CACF2C960FB6F894DEBF0FBECDBF5C
:1052D000DF91CF911F910895EF92FF920F931F934B
:1052E000CF93DF939C01009709F471C0F12CEE2459
:1052F000E394E9012196F9018491843740F48430E4
:1053000008F056C0813081F0823021F160C08537CD
:1053100009F449C0C0F19CE7980F903708F057C0D6
:105320008F770E94062346C089010E5F1F4FFE0142
:10533000849190E2980F983050F48770FE2D01C050
:10534000FF0F8A95EAF78F2F0E94082C15C00E9444
:105350003E2214C089010E5F1F4FFE01849190E22E
:10536000980F983068F48770FE2D01C0FF0F8A9562
:10537000EAF78F2F0E940E2C0E94312CE8011AC0F0
:105380000E940623FBCF2E5F3F4FFE01C491CC232A
:1053900041F08FE99FE00197F1F700C00000C15094
:1053A000F6CFE90107C0FE01F490E901229602C0A0
:1053B0000E943E228F2D882341F0EFE9FFE03197D4
:1053C000F1F700C000008150F6CF9E0192CFDF912F
:1053D000CF911F910F91FF90EF90089508950E9433
:1053E000EE296093AD087093AE088093AF08909358
:1053F000B0080C94E52508950C94EF290F931F93A2
:105400000091AD081091AE082091AF083091B0081E
:10541000602B712B822B932B1F910F910C94EF29F2
:105420000F931F930091AD081091AE082091AF0823
:105430003091B00860237123822393231F910F9131
:105440000C94EF290F931F930091AD081091AE08B3
:105450002091AF083091B0086027712782279327E9
:105460001F910F910C94EF2908950E94342A6093A4
:10547000A9087093AA088093AB089093AC080C9489
:10548000E52560E070E0CB010C94352A41E050E066
:1054900060E070E004C0440F551F661F771F8A95B7
:1054A000D2F7CB01BA010C94352A41E050E060E01C
:1054B00070E004C0440F551F661F771F8A95D2F70E
:1054C0008091A9089091AA08A091AB08B091AC086E
:1054D000482B592B6A2B7B2BCB01BA010C94352A14
:1054E00041E050E060E070E004C0440F551F661FCB
:1054F000771F8A95D2F74095509560957095809169
:10550000A9089091AA08A091AB08B091AC084823D3
:1055100059236A237B23CB01BA010C94352A41E03D
:1055200050E060E070E004C0440F551F661F771F15
:105530008A95D2F78091A9089091AA08A091AB080A
:10554000B091AC08482759276A277B27CB01BA01BD
:105550000C94352A0F931F930091A9081091AA0863
:105560002091AB083091AC08602B712B822B932BD0
:105570001F910F910C94352A0F931F930091A90846
:105580001091AA082091AB083091AC0860237123D8
:10559000822393231F910F910C94352A0F931F930D
:1055A0000091A9081091AA082091AB083091AC088D
:1055B00060277127822793271F910F910C94352A1A
:1055C0000895CF92DF92EF92FF920F931F93CF93A4
:1055D000DF93EC01C090AD08D090AE08E090AF082A
:1055E000F090B0088091A9089091AA08A091AB080A
:1055F000B091AC08C82AD92AEA2AFB2A0FE110E0A8
:10560000B701A601002E04C076956795579547957A
:105610000A94D2F740FD05C00150110988F780E0D7
:1056200007C0BE01802F0E94A91C0197A9F3802FFB
:10563000DF91CF911F910F91FF90EF90DF90CF906E
:105640000895CF93DF93EC010E94E12ABE010E94EE
:10565000A91CDF91CF910895CB010E94212B0895C1
:105660008091B10885958595859508958091B108BB
:105670008770089598E0899F90011124622B6093B0
:10568000B1080C94552A4091B108809584238093E9
:10569000B108982F977069F450E0282F332727FD21
:1056A00030954217530729F08595859585950C947B
:1056B000702A08959091B108977081E009F480E014
:1056C000089590913E019923D9F090910D0997FF8B
:1056D00017C0982F9695969596959F3188F5E091ED
:1056E0003201F0913301E90FF11D877021E030E0C4
:1056F00001C0220F8A95EAF78181822B8183089568
:10570000409132015091330120E030E09FEFFA01E7
:10571000E20FF31F6281681799F09F3F19F461113E
:1057200001C0922F2F5F3F4F2E31310581F79F3FF0
:1057300039F0FA01E90FF11D97FDFA95828308957A
:10574000089590913E019923E1F090910D0997FF02
:1057500018C0982F9695969596959F3120F5E091D3
:105760003201F0913301E90FF11D877021E030E043
:1057700001C0220F8A95EAF7209581812823218391
:105780000895409132015091330120E030E0FA0158
:10579000E20FF31F9281981301C012822F5F3F4FD7
:1057A0002E313105A1F7089581E090E0E0913201BA
:1057B000F0913301E80FF91F1082019680329105B4
:1057C000A9F708958091D50808959091D508982B50
:1057D0009093D508089580959091D508982390933B
:1057E000D50808958093D50808951092D508089596
:1057F0009091D408982B9093D40808958095909117
:10580000D40898239093D40808951092D40808954A
:105810009091D308982B9093D308089580959091F8
:10582000D30898239093D30808951092D30808952D
:105830008093B20808951092B20808954091320101
:105840005091330120E030E080E0FA01E20FF31FD5
:10585000918191118F5F2F5F3F4F2F313105A9F754
:105860000895E0913201F09133018091D508808351
:10587000E0913201F091330180819091D408892B1D
:105880008083E0913201F091330180819091D308BF
:10589000892B80839091B208992361F0E0913201C5
:1058A000F09133018081892B80830E941E2C81110D
:1058B0001092B20880913201909133010C94DC2057
:1058C000CF92DF92EF92FF920F931F936C01EE2421
:1058D000FF24C114D104E104F10421F46B017C0123
:1058E00080E001C080E133272F2D1E2D0D2D0115E5
:1058F00011052105310519F0885F680179019701CB
:105900008601A4E03695279517950795AA95D1F7B6
:10591000011511052105310519F08C5F6801790128
:1059200097018601F2E03695279517950795FA9528
:10593000D1F7011511052105310519F08E5F6801B8
:105940007901B701A6017695679557954795452B3F
:10595000462B472B09F08F5F1F910F91FF90EF901F
:10596000DF90CF9008956DEE7EEF80E090E00E9492
:10597000153560E082E090E00E94033560E083E04E
:1059800090E00E94033560E084E090E00E940335DF
:1059900060E085E090E00C94033580E090E00E94A8
:1059A000FD3421E08D3E9E4F09F020E0822F0895C6
:1059B00082E090E00C94F53483E090E00C94F534B0
:1059C00084E090E00C94F534682F84E090E00C942F
:1059D000033580911309843021F11092D70820E417
:1059E00088E190E00FB6F894A895809360000FBE10
:1059F0002093600080E00E94891C83B7817F8460CF
:105A000083BF83B7816083BF7894889583B78E7F87
:105A100083BF88E10FB6F894809360001092600015
:105A20000FBE08950895CF930E9448140E945B14FE
:105A30000E94122DC0E08C2F0E945915811105C0C3
:105A4000CF5FCE30C1F780E001C081E0CF910895F3
:105A50000E94F5250E94D0200C94891C1F920F9261
:105A60000FB60F9211248F939F93AF93BF938091A2
:105A7000D708811113C08091090990910A09A0915A
:105A80000B09B0910C094196A11DB11D8093090924
:105A900090930A09A0930B09B0930C09BF91AF91A1
:105AA0009F918F910F900FBE0F901F90189582E0DD
:105AB00084BD93E095BD9AEF97BD80936E000895E5
:105AC0002FB7F8948091090990910A09A0910B09C8
:105AD000B0910C092FBF0895CF92DF92EF92FF9201
