:100000000C94FA130C943E140C943E140C943E146D
:100010000C943E140C943E140C943E140C943E1418
:100020000C943E140C943E140C9417320C94E93248
:100030000C94E42C0C943E140C943E140C943E143A
:100040000C943E140C943E140C943E140C943E14E8
:100050000C943E140C944B2D0C943E140C943E14B2
:100060000C943E140C943E140C943E140C943E14C8
:100070000C943E140C943E140C943E140C943E14B8
:100080000C943E140C943E140C943E140C943E14A8
:100090000C943E140C943E140C943E140C943E1498
:1000A0000C943E140C943E140C943E142A1B301BEA
:1000B000341B371B3B1B3F1B431B471B4C1B501B5D
:1000C000541B581B5B1B5F1B631B671B6B1B701B4D
:1000D0005923592393239323CA23412504254125DA
:1000E000EC23412593249324FD24412541253D25DE
:1000F000A024A024A024A024A024A024A024A024E0
:10010000A024A024A024A024A024A024A024A024CF
:10011000B224C024C724CE24D824BD25BD25D02593
:10012000D025C625D025D025D025BD25BD25CC255B
:10013000D025D025CC254E3370335B3470335B34FF
:10014000B233D5335B342A343D341E0030002B00EB
:10015000CD5CE00000002214040014001A001E0010
:10016000035121141D0015001B00E2002A002E146B
:100170000900160006005200280022001300170094
:100180001900510046002E000A000700050000007B
:100190000451E3004900000029000000045301530A
:1001A0002A00000028000000045332000D000B005C
:1001B0000E00000004512D000F001100330050000C
:1001C00000002E021800080010004F002C002D1413
:1001D0001C000C00360225144C00380036001200BA
:1001E000210027140351201437022300CD5CE400C2
:1001F00000003A00E200E000CC5CCC5C00003B0078
:100200002B00CC5CCC5CCC5CCC5C3C00CC5CCC5C97
:10021000CC5CCC5CCC5C3D00CC5CCC5CCC5C0100B0
:10022000CC5C3E00CC5CCC5CCC5C0100CC5C3F0088
:10023000CC5CCC5CCC5C0000CC5C2A00CC5C0000CC
:10024000CC5C0000CC5C0100CC5C0000CC5C00000D
:10025000CC5C4000CC5CCC5CCC5C0000CC5C410055
:10026000CC5CCC5CCC5C0100CC5C4200CC5CCC5C5B
:10027000CC5C0100CC5C4300CC5CCC5CCC5CCC5C4A
:10028000CC5C44004C00CC5CCC5CCC5CCC5C4500D1
:10029000E600E400CC5CCC5C00003400CE5C0100E5
:1002A00001000100000024000100010001003400F1
:1002B00001002200010001000100010001002000F6
:1002C000010001000100010001001E000100010009
:1002D00001000100010026000100010001000000F2
:1002E0000100010001000000010000000100000009
:1002F00001000000010000000100270001000100D2
:100300000100000001001F000100010001000100C8
:100310000100210001000100CE5C0100010023006A
:1003200001000100CE5CCE5C01002500CE5C010026
:10033000CE5CCE5C0100CE5C1000CE5C0100010002
:1003400000000000000000000000000000000000AD
:100350000000270000000000010000000000000075
:100360000000000000000000000000002600000067
:10037000000000000000000000000000000000007D
:10038000000000000000000000000000000000006D
:10039000000000000000000000000000000000005D
:1003A0000000000000002400000000000000000029
:1003B00000001F0000000000000000003400CF5CBF
:1003C00000000000000000000000CF5C0000000002
:1003D000000000002F02CF5C0000000001000000C0
:1003E000000000000000000000003A0001000100D1
:1003F000E100010000003B000100010001000100DC
:1004000001003C00010001000100010001003D006D
:100410000100010001004B0001003E00010001004D
:1004200001004E0001003F0001000100010000003A
:100430000100005C0100000001000000010000005C
:100440000100000001000000010040000100010067
:1004500001000000010041000100010001004A000C
:10046000010042000100010001004D0001004300B5
:100470000100010001000100010044000100010031
:10048000010001000100450001000100E50001003C
:10049000000000000000000000000000000020003C
:1004A000008020000080000000000000000000002C
:1004B00000003000008021000080210000805200F8
:1004C0000080000000003200008031000080460003
:1004D00000804700008050000080000000003300D2
:1004E00000804400008045000080000000001100F2
:1004F00000800000000034000080420000804300C3
:100500000080000000005100008000000000350065
:1005100000804000008041000080000000001000CA
:10052000008000000000910000800000000010002A
:100530000080000000001000008000000000120099
:100540000080000000001200008000000000100089
:1005500000800000000085000080600000806100D5
:1005600000800000000010000080000000008400F7
:1005700000806200008063000080000000005200E4
:10058000008000000000830000806400008065009F
:1005900000800000000011000080000000008200C8
:1005A00000808100008066000080670000805400A9
:1005B000008000000000000000008000008070004B
:1005C00000807100008053000080000000000000E7
:1005D0000000000000007200008072000080000037
:1005E00000000000000000002B00000000002800B8
:1005F00000000000000000000000000000000000FB
:100600000000210000000000000036020000000091
:10061000000021005000FF1F00002E140000000009
:10062000000020000000000000002E145000FF1FFA
:10063000000020005000FF1F00002D0000000000FF
:10064000000064020000000000002D005000FF1FA9
:10065000000064025000FF1F00002D140000000085
:10066000000000000000000000002D145000FF1FDB
:1006700000002C00500000000000360200000000C6
:1006800000002100360200000000370000000000DA
:10069000000021003602022000002E143602000065
:1006A000000020003602000000002E143602022056
:1006B000000020003602022000002D00360200005B
:1006C000000032003702000000002D003602022038
:1006D000000032003702022000002D143602000014
:1006E000000000000000000000002D14360202206F
:1006F00000000000000000000000100000000000EA
:10070000000021001000000000002E00000000008A
:10071000000021001000022000002E141000000034
:10072000000020001000000000002E141000022025
:10073000000020001000022000002D00100000002A
:10074000000064021000000000002D0010000220D4
:10075000000064021000022000002D1410000000B0
:10076000000000000000000000002D141000022016
:100770000000000000000000000036000000000043
:1007800000002100360000000000370037000000A4
:10079000000021003600022000002E143600000068
:1007A000000020003600000000002E143600022059
:1007B000000020003600022000002D00360000005E
:1007C000000000000000000000002D0036000220A4
:1007D000000000000000000000002D1436000000A2
:1007E000000000000000000000002D143600022070
:1007F00000000000000000000000032000000000D6
:100800000000210003200000000036020320000049
:10081000000000000000000000002E140320000073
:100820000000200003200000000028002E140420F7
:10083000000000000000000000002D000320000068
:100840000000640203200000000028002D000420A6
:10085000000000000000000000002D140320000034
:100860000000000000000000000028002D140420FB
:10087000000000000000000000003602032000001D
:100880000000210036020320000037000320000092
:10089000000000000000000000002E1436020320BB
:1008A00000002000360203200000000000000000CD
:1008B000000000000000000000002D0036020320B0
:1008C000000032003702032000000000000000009A
:1008D000000000000000000000002D14360203207C
:1008E0000000000000000000000000000000000008
:1008F00000000000000000000000100003200000C5
:10090000000021001000032000002E000320000042
:10091000000000000000000000002E141000032062
:100920000000200010000320000000000000000074
:10093000000000000000000000002D001000032057
:10094000000064021000032000004D00032000009E
:10095000000000000000000000002D141000032023
:100960000000000000000000000000000000000087
:10097000000000000000000000003600032000001E
:10098000000021003600032000003700370003205C
:10099000000000000000000000002E1436000320BC
:1009A00000002000360003200000000000000000CE
:1009B000000000000000000000002D0036000320B1
:1009C0000000000000000000000000000000000027
:1009D000000000000000000000002D14360003207D
:1009E0000000000000000000000000000000000007
:1009F00000000000000000000000270200000000CE
:100A0000000000000000000000001E0200000000C6
:100A100000000000000000000000000000000000D6
:100A200000000000000000000000000000000000C6
:100A3000000000000000000000001F020000000095
:100A40000000000000000000000020020000000084
:100A50000000000000000000000000000000000096
:100A60000000000000000000000000000000000086
:100A70000000000000000000000000000000000076
:100A80000000000000000000000000000000000066
:100A90000000000000000000000000000000000056
:100AA0000000000000000000000000000000000046
:100AB0000000000000000000000000000000000036
:100AC0000000000000000000000000000000000026
:100AD0000000000000000000000000000000000016
:100AE0000000000000000000000000000000000006
:100AF00000000000000000000000210200000000D3
:100B000000000000000000000000220200000000C1
:100B100000000000000000000000000000000000D5
:100B200000000000000000000000000000000000C5
:100B30000000000000000000000023020000000090
:100B4000000000000000000000002402000000007F
:100B50000000000000000000000000000000000095
:100B60000000000000000000000000000000000085
:100B70000000000000000000000000000000000075
:100B80000000000000000000000000000000000065
:100B90000000000000000000000000000000000055
:100BA0000000000000000000000000000000000045
:100BB0000000000000000000000000000000000035
:100BC0000000000000000000000000000000000025
:100BD0000000000000000000000000000000000015
:100BE0000000000000000000000000000000000005
:100BF00000000000000000000000250200000000CE
:100C000000000000000000000000260200000000BC
:100C100000000000000000000000000000000000D4
:100C200000000000000000000000000000000000C4
:100C3000000000000000000000001E02270200006B
:100C4000000000000000000000001E021E02000064
:100C50000000000000000000000000000000000094
:100C60000000000000000000000000000000000084
:100C70000000000000000000000000000000000074
:100C80000000000000000000000000000000000064
:100C90000000000000000000000000000000000054
:100CA0000000000000000000000000000000000044
:100CB0000000000000000000000000000000000034
:100CC0000000000000000000000000000000000024
:100CD0000000000000000000000000000000000014
:100CE0000000000000000000000000000000000004
:100CF000000000000000000000001E021F020000B3
:100D0000000000000000000000001E0220020000A1
:100D100000000000000000000000000000000000D3
:100D200000000000000000000000000000000000C3
:100D3000000000000000000000001E022102000070
:100D4000000000000000000000001E02220200005F
:100D50000000000000000000000000000000000093
:100D60000000000000000000000000000000000083
:100D70000000000000000000000000000000000073
:100D80000000000000000000000000000000000063
:100D90000000000000000000000000000000000053
:100DA0000000000000000000000000000000000043
:100DB0000000000000000000000000000000000033
:100DC0000000000000000000000000000000000023
:100DD0000000000000000000000000000000000013
:100DE0000000000000000000000000000000000003
:100DF00000000000000000000000000000000000F3
:100E000000002100000000000000100000000000B1
:100E10000000360000000000000021140000000067
:100E2000000020000000000000006402000000003C
:100E300000006402640200000000220000000000C4
:100E40000000640000000000000023006402FF1F97
:100E50000000640064000000000022140000000094
:100E60000000000000000000000010020000000070
:100E7000000020140000000000002E02000000000E
:100E8000000024140000000000001F1400000000F7
:100E9000000036020000000000002E022E020000BA
:100EA000000000000000000000001E000000000024
:100EB00000001E001E0000000000251400000000BD
:100EC00000000000000000000000251425140000B0
:100ED00000002714000000000000000000000000D7
:100EE0000000000000000000000000000000000002
:100EF00000000000000000000000230000000000CF
:100F0000000000000000000000002E0000000000B3
:100F10000000300000000000000037020000000068
:100F20000000370237020000000026140000000015
:100F300000003702370237020000230023000000C0
:100F4000000000000000000000002500000000007C
:100F500000003000220000000000370232000000D4
:100F600000000000000000000000370232003200E4
:100F70000000370237023702640032000000000030
:100F80000000000000000000000038000000000029
:100F9000000036023200000000003200370200007C
:100FA0000000000000000000000000000000000041
:100FB0000000300021140000000032002200000078
:100FC00000000000000000000000231400000000EA
:100FD000000032003602320000003402000000003F
:100FE0000000000000000000000023142314000093
:100FF00000000000000000000000012000000000D0
:10100000000000000000000000004D020020000071
:1010100000000000000000000000000000000000D0
:1010200000000000000000000000000000000000C0
:1010300000000000000000000000000000000000B0
:1010400000000000000000000000000000000000A0
:101050000000000000000000000000000000000090
:101060000000000000000000000000000000000080
:101070000000000000000000000000000000000070
:101080000000000000000000000000000000000060
:101090000000000000000000000000000000000050
:1010A0000000000000000000000000000000000040
:1010B0000000000000000000000000000000000030
:1010C0000000000000000000000000000000000020
:1010D0000000000000000000000000000000000010
:1010E0000000000000000000000000000000000000
:1010F00000000000000000000000012001200000AE
:1011000000000000000000000000000000000000DF
:1011100000000000000000000000000000000000CF
:1011200000000000000000000000000000000000BF
:10113000000000000000000000004A020020000043
:10114000000000000000000000004A004D020020E6
:10115000000000000000000000000000000000008F
:10116000000000000000000000000000000000007F
:10117000000000000000000000003200320000000B
:10118000000000000000000000000000000000005F
:10119000000000000000000000000000000000004F
:1011A000000000000000000000000000000000003F
:1011B000000000000000000000000000000000002F
:1011C000000000000000000000000000000000001F
:1011D000000000000000000000000000000000000F
:1011E00000000000000000000000000000000000FF
:1011F00000000000000000000000270200000000C6
:10120000000000000000000000001E0200000000BE
:101210000000000000000000000021142702000070
:1012200000000000000000000000000000000000BE
:10123000000000000000000000001F02000000008D
:10124000000000000000000000002002000000007C
:10125000000000000000000000002214270200002F
:10126000000000000000000000000000000000007E
:10127000000000000000000000000000000000006E
:10128000000000000000000000000000000000005E
:10129000000000000000000000000000000000004E
:1012A000000000000000000000000000000000003E
:1012B00000000000000000000000220027020000E3
:1012C000000000000000000000000000000000001E
:1012D000000000000000000000000000000000000E
:1012E00000000000000000000000000000000000FE
:1012F00000000000000000000000210200000000CB
:1013000000000000000000000000220200000000B9
:1013100000000000000000000000000000000000CD
:1013200000000000000000000000000000000000BD
:101330000000000000000000000023020000000088
:101340000000000000000000000024020000000077
:10135000000000000000000000000000000000008D
:10136000000000000000000000000000000000007D
:10137000000000000000000000000000000000006D
:10138000000000000000000000000000000000005D
:10139000000000000000000000000000000000004D
:1013A000000000000000000000000000000000003D
:1013B000000000000000000000000000000000002D
:1013C000000000000000000000000000000000001D
:1013D000000000000000000000000000000000000D
:1013E00000000000000000000000000000000000FD
:1013F00000000000000000000000250200000000C6
:1014000000000000000000000000260200000000B4
:1014100000000000000000000000000000000000CC
:1014200000000000000000000000000000000000BC
:10143000000000000000000000001E022702000063
:10144000000000000000000000001E021E0200005C
:10145000000000000000000000000000000000008C
:10146000000000000000000000000000000000007C
:10147000000000000000000000000000000000006C
:10148000000000000000000000000000000000005C
:10149000000000000000000000000000000000004C
:1014A000000000000000000000000000000000003C
:1014B000000000000000000000000000000000002C
:1014C000000000000000000000000000000000001C
:1014D000000000000000000000000000000000000C
:1014E00000000000000000000000000000000000FC
:1014F000000000000000000000001E021F020000AB
:10150000000000000000000000001E022002000099
:1015100000000000000000000000000000000000CB
:1015200000000000000000000000000000000000BB
:10153000000000000000000000001E022102000068
:10154000000000000000000000001E022202000057
:10155000000000000000000000000000000000008B
:10156000000000000000000000000000000000007B
:10157000000000000000000000000000000000006B
:10158000000000000000000000000000000000005B
:10159000000000000000000000000000000000004B
:1015A000000000000000000000000000000000003B
:1015B000000000000000000000000000000000002B
:1015C000000000000000000000000000000000001B
:1015D000000000000000000000000000000000000B
:1015E00000000000000000000000000000000000FB
:1015F00000000000000000000000000000000000EB
:101600000700000000002100160000000700000095
:1016100000000000000000000000000000001100B9
:101620002100170000000000000008001500000065
:1016300000000000000021000F000F00000000006B
:1016400000000C0011000A00000000000000000073
:10165000000000000000000000000800150000006D
:101660000000000000002100190008000000000038
:10167000000000000000000000000000000000006A
:10168000000000000000000000000C0011000A0033
:10169000000000000000000000000000000000004A
:1016A000000000000000000000000000000000003A
:1016B000000000000000000000000800150000000D
:1016C00000000000000021000700000000000000F2
:1016D000000000000000000000000000000000000A
:1016E00000000000000000000000000000000000FA
:1016F00000000000000000000000000000000000EA
:1017000000000000000000000000000000000000D9
:10171000000000000000000000000C0011000A00A2
:101720000000000000002100330000000000000065
:1017300000000000000000000000000000000000A9
:101740000000000000000000000000000000000099
:101750000000000000000000000000000000000089
:101760000000000000000000000000000000000079
:101770000000000000000000000000000000000069
:101780003800000000002900000000002900370098
:101790000000320000000000000000000000000017
:1017A0000000000000000000000025000000000014
:1017B0000000000000000000000000000000000029
:1017C0000000000000000000000000000000000019
:1017D0000000000000000000000000000000000009
:1017E00000000000000000000000000000000000F9
:1017F00000000000000000000000000000000000E9
:1018000000000000000000000000000000000000D8
:1018100000000000000000000000000000000000C8
:1018200000000000000000000000000000000000B8
:1018300000000000000000000000000000000000A8
:101840000000000000000000000000000000000098
:101850000000000000000000000000000000000088
:101860000000000000000000000000000000000078
:101870000000000000000000000000000000000068
:101880000000000000000000000000000000000058
:101890000000000000000000000000000000000048
:1018A0000000000000000000000000000000000038
:1018B0000000000000000000000000000000000028
:1018C0000000000000000000000000000000000018
:1018D0000000000000000000000000000000000008
:1018E00000000000000000000000000000000000F8
:1018F00000000000000000000000000000000000E8
:101900000800000000001C0000000000081C00008F
:1019100000001600000000000816000000001C1661
:1019200000000000081C160000000000000000007D
:10193000150000000000110000000000151100005B
:1019400000000F0000000000150F0000000016004E
:10195000000000000F0F000000000A00000000005F
:10196000150A00000000110A000000000A11000022
:1019700000000F0A000000000A1500000000070028
:1019800000000000070F000000000600000000003B
:1019900015060000000011060000000011061500E9
:1019A00000001300000000001513000000001613D3
:1019B00000000000130F0000000005000000000000
:1019C0001505000000000A0A0000000005081500C7
:1019D0000000050F000000000000000000000000F3
:1019E000000000000F05000000000B0000000000D8
:1019F0001D00000000001900000000001D11000083
:101A000000001A00000000001D0F00000000160B6F
:101A1000000000000F19000000000A0B0000000089
:101A2000150A0B0000003300000000001533000011
:101A300000001B0000000000000000000000163342
:101A4000000000000F3300000000060B0000000043
:101A500015060B00000011060B0000001519000010
:101A60000000130B00000000000000000000000058
:101A7000000000000F060B0000000900000000003D
:101A800015090000000033050000000033050815AB
:101A900000000F0900000000090F000000003313D0
:101AA00000000000133300000000170000000000D9
:101AB0001517000000001117000000001511170095
:101AC00000000F1700000000170F0000000016179D
:101AD000000000001516170000000E0000000000B6
:101AE000150E00000000110E0000000000000000B4
:101AF00000000E0F00000000000000000000160EA5
:101B0000000000000F0E000000000617000000009B
:101B1000061500000000170C121100000000000064
:101B20000000131700000000000000000000111664
:101B3000170000000F1300000000060E0000000058
:101B40000000000000000517000000000508151740
:101B50000000060E0F000000000000000000000062
:101B600000000000000000000000170B0000000053
:101B700015170B00000011170B0000001D170B00BC
:101B800000000F170B0000000000000000001119FA
:101B9000000000000000000000000A0B1700000019
:101BA0001D0E00000000110A170B0000330811176A
:101BB00000001B17000000000000000000000717D5
:101BC0000B00000011330811170017060B0000006E
:101BD0000000000000000000000000000000000005
:101BE000000013170B0000000000000000000000C0
:101BF00000000000000000000000091700000000C5
:101C0000091708150000091708110000000000005E
:101C1000000000000000000000000000000033137E
:101C20001700000013330811170016000000000011
:101C30001516000000001116000000001511160016
:101C400000000F1600000000150F16000000161609
:101C5000000000000F0F160000000A160000000030
:101C6000150A16000000110A160000000A111600DD
:101C70000000000000000000000000000000071647
:101C80000000000000000000000006160000000038
:101C900015061600000011060816000000000000DE
:101CA00000001316000000001513160000001613A4
:101CB00016000000130F08160000051600000000B3
:101CC0001505160000000A0A160000000508151682
:101CD0000000050F081600000000000000000000D2
:101CE000000000000F05160000000B1600000000A9
:101CF0001D16000000001908160000001D11160036
:101D000000001A08160000001D0F16000000160B38
:101D1000081600000F19081600000A0B1600000034
:101D2000000000000000331600000000153316000C
:101D300000001B0816000000000000000000163321
:101D4000160000000F33160000000700000000001E
:101D50001507000000001107000000001D0700002B
:101D60000000130B16000000150F070000001607F7
:101D7000000000000F0700000000070A000000003C
:101D800000000000000033051600000033050815B0
:101D900016000000000000000000000000003313E7
:101DA00016000000000000000000171600000000F0
:101DB00015171600000011171600000000000000A3
:101DC00000000F1716000000170F1C000000161768
:101DD000160000001516171600000E160000000071
:101DE000150E16000000110E160000000000000085
:101DF0000000000000000000000000000000160EBF
:101E0000160000000F0E1600000006171600000056
:101E1000000000000000170C121116000000000066
:101E200000000000000000000000000000000000B2
:101E3000000000000F1316000000060E1600000040
:101E40000000000000000517160000000508151727
:101E50001600060E0F08160000000000000000002B
:101E600000000000000000000000170B160000003A
:101E700015170B16000011170B1600001D170B1677
:101E80000000000000000000000000000000000052
:101E9000000000000000000000000A0B1716000000
:101EA0001D0E16000000110A170B1600330811173B
:101EB00016000000000000000000000000000717EE
:101EC0000B1600001133081117160716000000004A
:101ED0001507160000001107160000001D07160068
:101EE000000013170B160000150F07160000000066
:101EF000000000000F0716000000000000000000B6
:101F000000000000000000000000000000000000D1
:101F1000000000000000000000000000000033137B
:101F200017160000133308111716000000000000F8
:101F30000808000000001212000000001208000053
:101F40000000141400000000140800000000141227
:101F50000000000008141200000018180000000023
:101F600018080000000018120000000008181200F5
:101F700000001814000000000818140000001218D7
:101F8000140000000812181400000C0C00000000DF
:101F90000C08000000000C1200000000080C1200E9
:101FA00000000C1400000000080C14000000120CCB
:101FB0001400000008120C1400000C1800000000AF
:101FC000080C180000000C121800000008120C1871
:101FD0000000140C1800000008140C180000121463
:101FE0000C1800000812140C18000000000000007B
:101FF00008000000000012000000000008120000AD
:10200000000014000000000008140000000012147A
:10201000000000000812140000001800000000007A
:102020000818000000001218000000000812180034
:10203000000014180000000008141800000012141A
:10204000180000000812141800000C000000000026
:10205000080C00000000120C0000000008120C0028
:102060000000140C0000000008140C000000121402
:102070000C0000000812140C0000180C00000000F6
:1020800008180C00000012180C0000000812180CB0
:10209000000014180C0000000814180C00001214A2
:1020A000180C0000081214180C00000000000000BA
:1020B0001100000000001500000000000F000000EB
:1020C00000001D00000000003300000000001D158E
:1020D000000000003315000000000B0000000000AD
:1020E0001C0000000000150B000000000F1C000089
:1020F00000001D0B00000000331C00000000000069
:1021000000000000000000000000060000000000C9
:102110001A0000000000061500000000060F000075
:102120000000130000000000131100000000131550
:1021300000000000130F00000000060B000000006C
:10214000061C00000000060B1500000006151C0010
:102150000000130B00000000131C00000000130B14
:1021600015000000130B0F00000017000000000016
:102170001900000000001715000000000400000016
:102180000000171D000000000D000000000000000E
:10219000000000000D0815000000170B00000000F3
:1021A000171C00000000170B1500000017151C007D
:1021B00000000E00000000000E11000000000E15CF
:1021C000000000000E0F00000000070000000000EB
:1021D00007081900000007150000000007080F009D
:1021E0000000071D0000000007083300000007087A
:1021F00015000000000000000000090000000000C1
:10220000071C00000000091500000000090F000075
:102210000000050000000000051C0000000005157E
:1022200000000000050F0000000014000000000086
:10223000141100000000141500000000140F00002D
:102240000000141D00000000143300000000000016
:1022500000000000140F0F000000140B000000002D
:10226000141C00000000000000000000000000003E
:102270000000141D0B000000000000000000000022
:102280000000000000000000000014060000000034
:10229000141A0000000014061500000014060F00B8
:1022A0000000141300000000143333000000141366
:1022B0001500000014130F00000014060B000000AE
:1022C0001406060000001406061500001406060F8A
:1022D000000014130B0000000000000000001413A5
:1022E0000B150000000000000000141700000000A3
:1022F0001419000000001417150000001404000059
:102300000000141717000000140D0000000014173F
:102310001715000000000000000014170B0000005B
:1023200000000000000014170B0F00000000000068
:102330000000140E0000000014060E110000000042
:102340000000000000000000000014070000000072
:1023500014071900000014071500000014060400FB
:1023600000001407070000001407330000001407E2
:10237000071500001407070F0000140900000000F3
:1023800014090900000014091500000014090F00C9
:10239000000014050000000014051C0000001405D6
:1023A0001500000014050F000000160000000000DA
:1023B000161100000000160815000000160F00009E
:1023C0000000161D00000000163300000000000091
:1023D00000000000000000000000160B00000000DC
:1023E000161C00000000160B15000000160F1C0044
:1023F00000000000000000000000000000000000DD
:1024000000000000000000000000160600000000B0
:10241000161600000000160615000000000000005F
:10242000000016130000000000000000000016135A
:102430001500000016130F00000016060B00000028
:10244000000000000000000000000000000000008C
:10245000000016130B00000016131C000000000003
:10246000000000000000000000001617000000003F
:1024700016190000000016171500000016040000D1
:1024800000001B00000000000000000000001B1501
:1024900000000000160815190000000000000000F0
:1024A00016171C0000000000000000001617151C85
:1024B0000000160E000000001B1C000000000000C1
:1024C000000000000000000000000A000000000002
:1024D0000A11000000000A15000000000A0F0000A9
:1024E00000000A1D000000000000000000000000C5
:1024F000000000000000000000000A0B00000000C7
:102500000A1C0000000000000000000000000000A5
:1025100000000000000000000000000000000000BB
:102520000000000000000000000014160000000081
:1025300014111100000014151500000014160F00EE
:10254000000000000000000014163300000000002E
:102550000000000000000000000014160B00000046
:1025600014161C0000000000000000000000000025
:10257000000000000000000000000000000000005B
:10258000000000000000000000001416060000001B
:1025900014161600000014160615000000000000B6
:1025A000000014161300000014131300000014138D
:1025B000131500001413130F0000000000000000AA
:1025C000000000000000000000000000000000000B
:1025D00000001416130B00001416130B1C0000004F
:1025E00000000000000000000000141617000000AA
:1025F0000C11190000000C15000000001416040056
:102600000000141B0000000000000000000000009B
:10261000000000000000000000001416170B00006E
:102620000C11170000000C15150000000C11170804
:10263000150014160E00000000000000000000004D
:1026400000000000000000000000140A000000006C
:10265000140A11000000140A15000000140A0F00EB
:102660000000140A0A00000014070D000000140AFC
:102670000A150000140A0A0F0000140A0B000000DB
:102680001409170000001409091500001409090FA6
:102690000000140505000000000000000000140503
:1026A0000515000000000000000016034500720040
:1026B00067006F0044006F007800200045005A005A
:1026C000000016034500720067006F0044006F00B1
:1026D0007800200045005A000000040309040902A4
:1026E0005400030100A0FA090400000103010100E5
:1026F0000921110100012240000705810308000A99
:102700000904010001030000000921110100012258
:1027100036000705820308000A09040200010300CD
:10272000000009211101000122390007058303205F
:1027300000011201100100000008EDFE0713010066
:102740000102000105010906A101050719E029E7B9
:102750001500250195087501810205081901290553
:102760009505750191029501750391010507190001
:1027700029F71500250195F875018102C0050109A9
:1027800080A10185021601002603001A81002A8318
:1027900000751095018100C0050C0901A101850398
:1027A000160100269C021A01002A9C027510950150
:1027B0008100C005010906A101050719E029E715F7
:1027C00000250195087501810295017508810105B3
:1027D0000819012905950575019102950175039167
:1027E000010507190029FF150026FF009506750849
:1027F0008100C00011241FBECFEFDAE0DEBFCDBFE5
:1028000004B603FE24C08091500890915108A09115
:102810005208B09153088730904BA740B04BB9F4A1
:1028200010925008109251081092520810925308BA
:1028300014BE84B7877F84BF88E10FB6F894809375
:102840006000109260000FBEE0E0FFE3099512E027
:10285000A0E0B1E0E6ECF9E602C005900D92A632E8
:10286000B107D9F718E0A6E2B2E001C01D92A03589
:10287000B107E1F70E944B2F0C94E1340C94000057
:102880001092B9008AE08093B800089594EA90937A
:10289000BC009091BC0097FFFCCF9091B900987F4D
:1028A000983021F0903111F081E008958093BB00C1
:1028B00084E88093BC008091BC0087FFFCCF8091AE
:1028C000B900887F883111F0803471F780E0089575
:1028D00084E98093BC008091BC0084FDFCCF089506
:1028E0008093BB0084E88093BC008091BC0087FF8C
:1028F000FCCF9091B900987F81E0983209F480E094
:10290000089584E88093BC008091BC0087FFFCCFD1
:102910008091BB00089580B38C7080BB81B3836FBE
:1029200081BB089580912901811115C080E40E9426
:1029300046148093290181110CC082E10E94701419
:1029400080932901811105C08FEF0E94701480933C
:1029500029010E94681484B1807F84B985B1807F89
:1029600085B98AB1837F8AB98BB1837F8BB93E9851
:102970004698089508950C94AC1A0E94221F8093E3
:1029800029010E9492140E948B14E5E3F2E0A7E271
:10299000B2E011921D9282E0E334F807D1F70C9473
:1029A0002B1C0E94221F809329010E9492140E94D6
:1029B0008B14E5E3F2E0A7E2B2E011921D9282E00F
:1029C000E334F807D1F708958F929F92BF92CF9288
:1029D000DF92EF92FF920F931F93CF93DF931F929B
:1029E000CDB7DEB780912901882379F08091260246
:1029F0008F5F80932602811108C00E94221F80935E
:102A00002901811102C00E94B41E07E212E0812C4C
:102A1000912CEE24E394F12CDD24D39495E0C92E7F
:102A2000282D273030F580912901811142C080E4A2
:102A300089820E944614809329012981811114C042
:102A400082E10E94701480932901298181110CC0B8
:102A5000C701082C01C0880F0A94EAF780950E94EC
:102A6000701480932901298129830E946814298187
:102A700020C02A30A1F028F4283059F0293061F024
:102A800005C02C3089F070F02D3089F0209A2898FC
:102A900010C0219A29980DC0229A2A980AC0239A18
:102AA0002B9807C0529A01C0539A5B9802C03E9A75
:102AB000469830EA3A95F1F7273018F580912901C8
:102AC000811144C080E40E94461480932901882328
:102AD00011F0B12C12C083E10E947014809329017F
:102AE0008111F7CF81E40E9446148093290181115E
:102AF000F0CF0E948114B82EB0940E9468148B2DE0
:102B000026C08FB181708D25799B02C090E001C0F5
:102B100092E0892B7C9B02C090E001C094E0892B5D
:102B20007D9B02C090E001C098E0892B7E9B02C093
:102B300090E001C090E1892B9FB19095991F992752
:102B4000991F9295990F907E892B01C080E0F80122
:102B50009081981719F08083C09200010E9492140E
:102B6000FFEF8F1A9F0A0F5F1F4F3EE083169104FD
:102B700009F056CF809100018823A1F08150809305
:102B80000001882329F085E08A95F1F700000AC04A
:102B9000A5E3B2E0E7E2F2E081918D9332E0E53324
:102BA000F307D1F70E942D1C81E00F90DF91CF91A8
:102BB0001F910F91FF90EF90DF90CF90BF909F906B
:102BC0008F900895E82FF0E0EB5CFD4F8081089531
:102BD0000895262F30E0FC017081A72FA770EA2FFF
:102BE000F0E0E630F1059CF5662389F1EE0FFF1F5A
:102BF0003196E80FF91F40814F70E1F46F709081BA
:102C0000907F962B292F22952F703181832F8370EF
:102C10008295807F822B8F5F282F2F738295807FF4
:102C20009F70982B908322952F70832F8C7F822BFF
:102C30008183089550E04217530701F351E05A0F82
:102C40005770472F487F452BFC014083C4CF089520
:102C50006D3481F018F4683239F004C0603531F019
:102C6000623531F061E007C064E005C062E003C096
:102C700063E001C060E00C94E91520E030E050E032
:102C8000F901EE0FFF1FE80FF91FDF0111967181A7
:102C9000472F4F7046130AC072957F7011964C9162
:102CA00043704295407F472B540F02C0442329F0C4
:102CB0002F5F3F4F2630310519F7852F08958091FA
:102CC000660790916707A0916807B0916907892B03
:102CD0008A2B8B2B69F481E0409162075091630746
:102CE0006091640770916507452B462B472B09F0CF
:102CF00080E0817008950F931F93CF93DF931F920D
:102D0000CDB7DEB7182F69830E94982B082F812F2B
:102D10000E94A82B6981862F0E94F421802F0F909A
:102D2000DF91CF911F910F910C94A82B803141F02E
:102D30009CEF980F9A3110F481E008958333E1F30A
:102D400080E008952F923F924F925F926F927F9210
:102D50008F929F92AF92BF92CF92DF92EF92FF92AB
:102D60000F931F93CF93DF93CDB7DEB765970FB661
:102D7000F894DEBF0FBECDBF0E94982B682E82E173
:102D80000E94A12B80912F08887F80932F0880E0DC
:102D900090E0FC01EE0FFF1FE05DF74F10822181F4
:102DA0002C7F218301968630910599F780915907F0
:102DB00030905D07282F2170822E382F32703B8B88
:102DC00082FB772470F880915A07882371F044249D
:102DD0004394823009F0412C55245394833009F0F8
:102DE000512C82E00E949B2B02C0512C412C41E0CF
:102DF00051E0588B4F8728E537E03A8B298B00E06C
:102E000010E0912C22242394AE014F5F5F4F5C872A
:102E10004B879E01255F3F4F3E872D87E989FA89C1
:102E20002191FA8BE98B222309F4EFC02224239409
:102E30000130110509F0212CEF85F88980819181FD
:102E4000F801E55AFE4F30810530110529F488203C
:102E500091F08AE29FE10FC00430110529F431108E
:102E60000AC08110F2C107C00630110521F43110EB
:102E700002C0811056C2009709F4C7C0323009F46D
:102E80005DC0333009F4E6C1313009F0BEC05C01E9
:102E9000F6E02F9FA00CB11C1124E12CF12CF501C0
:102EA000EE0DFF1DD490DD2009F43FC08D2D0E9452
:102EB000F4218D2D0E94BC2261E08FE298E00E94F7
:102EC000E91524E0D2120DC0332059F088E10E94A8
:102ED000F42188E10E94BC2261E08FE298E00E9428
:102EE000E9153B89332389F00630110571F4E114AB
:102EF000F10459F48D2D0E94F4218D2D0E94BC22E5
:102F000061E08FE298E00E94E91561E08FE298E0CD
:102F10000E943D16442011F0813021F0552029F007
:102F2000823019F482E00E94A12B4FEFE41AF40AD8
:102F300056E0E516F10409F0B2CF67C05C0166E027
:102F4000269FA00CB11C1124C12CD12CF501EC0D35
:102F5000FD1DE590F490E114F10409F456C08E2DA6
:102F60000E949616882321F08E2D0E94F42104C021
:102F70006E2D8F2D0E947B168E2D0E94BC226E2DF1
:102F80008FE298E00E94281661E08FE298E00E94AC
:102F90003D16442011F0813021F0552029F0823077
:102FA00019F482E00E94A12B82E0C80ED11C96E0A9
:102FB000C916D10459F629C06E2D8F2D0E947B169B
:102FC0008E2D0E94BC226E2D8FE298E00E94281662
:102FD0009E012F5F3F4F6901F601E190F1906F0173
:102FE000E114F10409F08AC1F2E0AF0EB11C28E04F
:102FF000A216B10451F0EC89FD89EA0DFB1DE590A4
:10300000F490E114F10409F030C10F5F1F4F2F85D8
:1030100038892E5F3F4F388B2F870A30110509F012
:10302000FDCE61E08FE298E00E943D16882319F002
:1030300081E0872506C0772019F081E0882501C04E
:1030400080E0882369F091100BC08CE20E94F4218B
:103050008CE20E94BC2261E08FE298E00E94E915B8
:10306000809130088F70C9F080914302843611F44A
:10307000109243023091430281E0830F8093430218
:103080002DE03203D0011124AC5BBD4FEFE2F8E03C
:1030900001900D922A95E1F7CDC0882009F4CAC0AD
:1030A000509043025A9457FE02C0B3E65B2E352D72
:1030B0004DE03402800111240C5B1D4FF801818129
:1030C0008F7009F4AFC0772009F441C08AE20E94F2
:1030D000F4218AE20E94BC22F8012081277080E05E
:1030E00090E030E0F901E81BF90BEE0FFF1FE00F55
:1030F000F11FDF0111964181542F5F705130C9F4E7
:1031000042954F7011962C911197822F8370829562
:10311000807F842B815C982F9F738295807F816054
:103120008C9392959F70822F8C7F892B11968C9314
:1031300007C00196A901481B590B4F3F5F4F91F6FD
:1031400061E0C8010E943D16811174C068C0222050
:1031500009F470C0F80180818770A82EB12C750128
:10316000EE0CFF1CE00EF11E00E010E0FFEFEF1A86
:10317000FF0AC801880F991F4701881A990AC12CB4
:10318000D12CF4018081982F92959F70218123701A
:103190002295207F292B30E0C216D306C4F58F700C
:1031A00090E08230910521F13CF4019761F58AE2CB
:1031B0000E94F4218AE225C083309105F1F0049742
:1031C00011F581EE0E94F42182E50E94F42182E54E
:1031D0000E94BC228DE40E94F4218DE40E94BC2256
:1031E00081EE0E94BC228CE40E94F4218CE409C090
:1031F0008FE40E94F4218FE404C081E50E94F42151
:1032000081E50E94BC222FEFC21AD20ABACF0F5F0B
:103210001F4FC501801B910B019609F0AACF509258
:10322000430208C0772031F08AE20E94F4218AE24A
:103230000E94BC22862D0E94A82BE8E5F7E011929F
:1032400027E0E236F207D9F76FC08AEF9DE00097DA
:1032500009F4DBCEAC0168E0269F400D511D11241E
:103260005D8B4C8BA12CB12CC6CEEB85FC852AE066
:1032700011922A95E9F731E0E31630E2F30639F1CD
:1032800068F45FEFE5165FE1F506A9F1E11460E28D
:10329000F60609F091CE2CE430E02BC083E0E8166E
:1032A00080E2F80621F1E0F0E4E0EE16E0E2FE064E
:1032B00009F082CE42E550E05A8349838DE490E0E4
:1032C0009C838B83E8E2F0E0FE83ED8314C040E54D
:1032D00053E05A8349838AE290E09C838B830BC03E
:1032E000E0E5F0E0FA83E983FC83EB8304C028E2A5
:1032F00030E03A832983992493946ACE6E2D8F2DE2
:103300000E947B168E2D0E94BC226E2D8FE298E0CB
:103310000E9428164D855E85C416D50609F05CCE40
:1033200063CE8AEF95E093CF65960FB6F894DEBF33
:103330000FBECDBFDF91CF911F910F91FF90EF9006
:10334000DF90CF90BF90AF909F908F907F906F90C5
:103350005F904F903F902F9008954F925F926F92A1
:103360007F929F92AF92BF92CF92DF92EF92FF92A5
:103370000F931F93CF93DF938B018D3C2CE5920726
:1033800009F48AC020F48C3C9C4559F0D3C08E3C93
:10339000ECE59E0709F499C08F3C9C4509F4B1C047
:1033A000C9C0DB018C911196EC91B6E0EB9FF00166
:1033B0001124E80FF11DEE0FFF1FEE0FFF1FEE5659
:1033C000FB4F85919591A591B491B7FF76C09C0173
:1033D0002F703327C12CD12C7601C39404C0CC0CA0
:1033E000DD1CEE1CFF1C2A95D2F744E0B695A7958C
:1033F000979587954A95D1F7E82FEF709E2EAE2EC0
:10340000B12CD501AB59BE4FF501EE0FFF1FEB5E9E
:10341000FE4FC081D181F8011281260137010C9045
:1034200004C0440C551C661C771C0A94D2F7112367
:10343000C9F0F2E09F1203C081EE0E94F42188815E
:103440009981AA81BB8184299529A629B7298883D6
:103450009983AA83BB83F501E85AF84F80818C29B0
:1034600080832BC04094509460947094488159811B
:103470006A817B81442155216621772148835983C4
:103480006A837B830E945F1681110E94A21622E04C
:10349000921213C081EE32C0DB0111968C91811122
:1034A00002C081EE01C085EEF8011281112339F0CE
:1034B0000E94F42182E00E940B2A10E03CC00E948E
:1034C000BC2282E00E94262A36C0DB016D917C91ED
:1034D00080E00E94451C62E170E00E949134FC0192
:1034E000EE0FFF1FE95CFE4F60818181F8011281C0
:1034F000112319F00E947B16E0CF862F0E94BC2278
:103500001AC0DB0112968C9112978823B1F26D914B
:103510007C9180E00E94451CC82F8FE20E94F4211C
:103520008FE20E94BC228C2F0E94F4218C2F0E94DB
:10353000BC22C3CF11E0812FDF91CF911F910F915A
:10354000FF90EF90DF90CF90BF90AF909F907F90D3
:103550006F905F904F9008956091DD077091DE0746
:103560008091DF079091E0070E94162C25982D98F6
:1035700026982E9827982F98813029F0843029F4A6
:10358000269A2E9A02C0259A2D9A0E945F168111C2
:1035900002C0279A2F9A089581E008950C94AD19DE
:1035A0000E94AB252FEF84E39CE0215080409040A7
:1035B000E1F700C000000C94712D0F931F93CF937F
:1035C000DF938C01FC01C081D181CE010E94972A3A
:1035D000BE010E94451CEC01B8010E94CE1A88234E
:1035E00009F433C1B801CE010E94681E882309F492
:1035F0002CC1B801CE010E94711F882309F425C196
:10360000C531FCE5DF0708F0A3C0C2308CE5D80760
:1036100008F478C0F8018281882309F47FC00E94F1
:10362000832C811102C00E94692C0E94962C90E08C
:103630009093420880934108FE01E350FC45E2313B
:10364000F10520F4EA5AFF4F0C94A534809141080B
:10365000816003C0809141088260809341084BC023
:10366000809141088460F9CF8091410813C0809116
:1036700041088061F2CF809141088062EECF809155
:1036800041088064EACF809141088068E6CF80914C
:10369000410884608860E1CF809141088E7FDDCF52
:1036A000809141088D7FD9CF809141088B7FD5CF04
:1036B0008091410813C0809141088F7ECECF8091C8
:1036C00041088F7DCACF809141088F7BC6CF809102
:1036D00041088F77C2CF809141088B7F877FBDCF14
:1036E0009091410897FB882780F921E0822780FB91
:1036F00097F990934108809141080E949A2C0E946A
:10370000AB25A3C0C115ECE5DE0779F0C130DC457F
:10371000A1F081E080936E0780936F07C801DF916D
:10372000CF911F910F910C94CC1AF80182818823BC
:1037300009F48BC00E94D01A88C0F80182818823C6
:1037400009F483C080910A08816080930A087DC0D3
:10375000C73C8CE5D80781F5F8018281882361F0A8
:1037600010926F070E94162D90936D0780936C073F
:1037700080E20E940B2369C00E94982B81FF05C044
:1037800081E080936E0780936F0780916F078111AE
:103790000FC080916C0790916D070E94222D883C8C
:1037A000910530F487E20E94F42187E20E94BC2256
:1037B00080E20E94122349C0C83CECE5DE0780F598
:1037C000C63CDC4509F0A5CFF8018281882351F081
:1037D00010926E070E94162D90936B0780936A07D4
:1037E00082E0C7CF0E94982B85FF05C081E08093BF
:1037F0006E0780936F0780916E0781110FC08091D3
:103800006A0790916B070E94222D883C910530F445
:1038100086E20E94F42186E20E94BC2282E0C9CFA7
:10382000CA3C8CE5D80731F4F8018281882369F01D
:1038300080E009C0CB3CDC4509F06BCFF801828108
:10384000882319F082E00E94DD2F80E0DF91CF9184
:103850001F910F9108950C940C1F0C94BB14282FEA
:10386000882339F090E02A3010F44D960895069799
:10387000089587E290E0089508950C943C1C0C9400
:103880003D1C80E090E00895089596E0799FF00156
:10389000112494E5899FE00DF11D1124E60FF11D1F
:1038A000EE0FFF1FE65BFE4F859194910895880F00
:1038B000991F865B9E4FFC018591949108950E940B
:1038C000451C0E94EB1D811520E49207B0F581157F
:1038D00040E3940708F0DBC0803E9105D8F4803CBB
:1038E000910508F069C0883A910578F4853A910508
:1038F00008F065C08130910509F46CC108F423C15A
:103900008430910508F066C11EC18D3B910508F415
:1039100061C019C18F3F910509F048F4803F9105BE
:1039200008F0AFC0883E910508F454C10CC1811560
:1039300020E2920708F0A7C00895811544E5940796
:10394000D8F4811523E5920708F0DCC0811541E524
:10395000940740F4811520E5920708F0A2C09F70FB
:10396000906A0895811542E5940708F0B6C0982F33
:103970008827816F906A0895811526E5920750F493
:10398000811545E5940708F0D2C0982F8827846FE9
:10399000906A0895811528E5920708F4D4C081152E
:1039A00049E5940708F4C8C09C01305621153042FF
:1039B00008F0C9C09F71C5C0805C910965C0853A97
:1039C000910509F4C3C0863A910509F4C2C083E8A1
:1039D00090E40895883A910509F4BEC0893A9105AA
:1039E00009F4BDC08A3A910509F4BCC08B3A91052F
:1039F00009F4BBC08C3A910509F4BAC08B3B910520
:103A000009F4B9C08C3B910509F4B8C08D3A910511
:103A100009F4B7C0803B910509F4B6C08E3A910510
:103A200009F4B5C08F3A910509F4B4C0813B910502
:103A300009F4B3C0823B910509F4B2C0833B910500
:103A400009F4B1C0843B910509F4B0C0853B9105F0
:103A500009F4AFC0863B910509F4AEC0873B9105E0
:103A600009F4ADC0883B910509F4ACC0893B9105D0
:103A700009F4ABC08A3B910509F0AAC08AE296E43A
:103A80000895906508959F700E94571C08959C01A9
:103A9000332793FF03C0C901986C0895C901906C46
:103AA0000895482F437021E030E002C0220F331FF9
:103AB0004A95E2F73C68AC0174E0569547957A95D3
:103AC000E1F74370342B8F708695869540E2849F92
:103AD000C0011124822B932B0895282F269526951B
:103AE00040E2249F90011124AC014370552781E0EE
:103AF00090E002C0880F991F4A95E2F7822B932B22
:103B00009C680895282F2695269540E2249F9001D1
:103B10001124AC014370552781E090E002C0880F6A
:103B2000991F4A95E2F7822B932B9A6808958F711B
:103B30009927982F882705C0982F8827806F906A2B
:103B400008959062089580E090E0089581E890E4FF
:103B5000089582E890E4089582EE94E4089589EE51
:103B600094E408958AEE94E4089585EB94E408952E
:103B700086EB94E4089583EB94E4089584EB94E455
:103B8000089587EB94E408958CEC94E408958DEC0B
:103B900094E4089583E895E408958AE895E4089507
:103BA00082E995E4089584E995E4089581E296E434
:103BB000089583E296E4089584E296E4089585E208
:103BC00096E4089586E296E4089587E296E40895DF
:103BD00080E094E408958238910549F1B0F481338E
:103BE000910509F459C048F48932910509F44FC090
:103BF0008A32910509F455C008958533910509F479
:103C000041C08933910599F00895833E910531F1C2
:103C100038F4803E910591F0823E9105A9F0089517
:103C2000863E910501F1873E910539F10895209175
:103C3000410820FD3BC021FD39C008958091410815
:103C400080FF34C089E341C08091410882FF32C0C7
:103C50008091410884FF2CC080E037C080914108EA
:103C600082FD28C0F5CF8091410883FF25C0809157
:103C7000410884FDF1CF87EE28C08091410883FD83
:103C80001BC0F5CF8091410885FF18C019C08091F5
:103C9000410885FF15C012C08091410886FF12C0FF
:103CA00013C08091410886FF0FC00CC080EE0DC08C
:103CB00083EE0BC082EE09C086EE07C085E305C027
:103CC00089E203C081E301C08AE290E0089508958B
:103CD000CF93DF93EC01FB018281811102C081E06F
:103CE00040C080917D07811125C0C531DC45B9F701
:103CF0000E94671E81E080937D070E94162D90939D
:103D00007C0780937B0710927007109272071092C5
:103D10007107109274071092730710927607109231
:103D20007507109278071092770710927A07109211
:103D3000790716C080917B0790917C070E94222D05
:103D4000883C910560F680917007E82FF0E0EE0F57
:103D5000FF1FEF58F84FD183C0838F5F80937007A8
:103D600080E0DF91CF91089556985E9825982D9820
:103D700026982E9827982F988FEF90E0909389009F
:103D80008093880090938B0080938A0090938D009D
:103D900080938C00259A2D9A2FEF80E792E0215096
:103DA00080409040E1F700C00000269A2E9A2FEF45
:103DB00080E792E0215080409040E1F700C0000091
:103DC000279A2F9A2FEF80E792E021508040904071
:103DD000E1F700C0000025982D982FEF80E792E0D2
:103DE000215080409040E1F700C0000026982E98B6
:103DF0002FEF80E792E0215080409040E1F700C033
:103E0000000027982F9856985E9825982D98269808
:103E10002E9827982F98089589EA8093800089E04A
:103E20008093810024982C983F988AB18F7C8AB91E
:103E30006E98479A8BB180638BB9769A0E94B41EB4
:103E40000C94BA1480E28093290180917E0781113D
:103E50000EC00E94401481E080937E072FEF83ED17
:103E600090E3215080409040E1F700C0000080E4E2
:103E70000E9446148093290181112EC00E94701463
:103E800080932901811128C00E9470148093290118
:103E9000811122C08FE30E94701480932901811147
:103EA0001BC00E94681480E40E944614809329017C
:103EB000811112C08CE00E9470148093290181113D
:103EC0000BC00E94701480932901811105C08FE3FB
:103ED0000E947014809329010E9468148091290126
:103EE0000895CF93DF93EC01C13080E8D807C8F084
:103EF000FB0182818823A9F080917F07811109C08D
:103F00008CE090E00E94AB340E94951F81E080938A
:103F10007F070E949C1FCE019F770E945A200E941B
:103F2000122081E0DF91CF91089580938007682F60
:103F30008CE090E00C94B934E0912A01F0912B01CF
:103F4000808180933C0881FF03C081EE0E94BC22E7
:103F500080913C0885FF03C085EE0E94BC228091C1
:103F60003C0880FF03C080EE0E94BC2280913C0888
:103F700084FF03C084EE0E94BC2280913C0882FF33
:103F800003C082EE0E94BC2280913C0886FF03C0E1
:103F900086EE0E94BC2280913C0883FF03C083EE22
:103FA0000E94BC2280913C0887FF03C087EE0E94DC
:103FB000BC22809180078130A1F078F0823011F12D
:103FC000843049F586EE0E94F42186EE0E94BC22E0
:103FD00088E10E94F42188E11CC082EE0E94F42155
:103FE0001AC080EE0E94F42181EE0E94F42188E143
:103FF0000E94F42188E10E94BC2281EE0E94BC2232
:1040000080EE07C082EE0E94F42187E50E94F42131
:1040100087E50E94BC228FE39CE90197F1F700C07D
:104020000000089580918007813029F010F08230DF
:1040300041F482EE04C08CE20E94F4218CE20E94E2
:10404000BC2280913C0881FF03C081EE0E94F421D4
:1040500080913C0885FF03C085EE0E94F421809189
:104060003C0880FF03C080EE0E94F42180913C0850
:1040700084FF03C084EE0E94F42180913C0882FFFB
:1040800003C082EE0E94F42180913C0886FF03C0A9
:1040900086EE0E94F42180913C0883FF03C083EEEA
:1040A0000E94F42180913C0887FF03C087EE0C94A6
:1040B000F4210895FF920F931F93CF93DF938C0108
:1040C000CCE0D0E0C8010C2E02C0969587950A94EA
:1040D000E2F7282F2F70F22E822F0E942F1C0E94B1
:1040E000F4218F2D0E942F1C0E94BC222497CC3FCC
:1040F0008FEFD80739F7DF91CF911F910F91FF9084
:10410000089590938607809385070895E091850729
:10411000F0918607309721F00190F081E02D09940D
:1041200080E00895E0918507F0918607309721F0AF
:104130000280F381E02D0994089520918307309146
:1041400084078217930771F0909384078093830705
:10415000E0918507F0918607309721F00680F7817E
:10416000E02D0994089520918107309182078217EC
:10417000930771F09093820780938107E091850700
:10418000F0918607309721F00084F185E02D0994A5
:10419000089508950C94C9200E940D2D0E94BD140D
:1041A0000E94942DE1E4F8E0808180688083089586
:1041B000CF92DF92EF92FF920F931F93CF93DF93F3
:1041C000CDB7DEB72B970FB6F894DEBF0FBECDBFCD
:1041D0000E94E41438E8E32E37E0F32E00E010E00C
:1041E000C02E802F0E94E215F701D1907F01D826C2
:1041F000B1F40F5F1F4F0E30110591F78FEF8983D8
:104200008A831B820E94162D8160782F9D838C8368
:1042100049815A816B818D810E94B52141C0909165
:104220000A0891FF04C08B870E94E8158B8520E067
:1042300030E04D2D50E0922FBA01022E02C075954C
:1042400067950A94E2F760FF25C02E83CF82EE24A3
:10425000E394F12C02C0EE0CFF1C9A95E2F790E07B
:104260008E219F2121E0892B09F420E028870E94DC
:10427000162D8160782F9A8789874E815F816885A6
:104280008A850E94B521F801E857F84F80818E2574
:10429000808306C02F5F3F4F2630310561F6A9CFDE
:1042A000109187070E9486201817A1F00E9486208F
:1042B000809387072B960FB6F894DEBF0FBECDBF55
:1042C000DF91CF911F910F91FF90EF90DF90CF90F2
:1042D0000C943F1C2B960FB6F894DEBF0FBECDBFDB
:1042E000DF91CF911F910F91FF90EF90DF90CF90D2
:1042F0000895DC0111964C9111975C91852F90E007
:1043000021E030E001C0220F5A95EAF712966C9135
:10431000129750E0662319F06091A40705C0FA01D6
:10432000EA56F84F608162236623B9F036E0349F85
:10433000F001359FF00D1124E80FF91FEE0FFF1F5C
:10434000E159FE4F808191818D939C93FA01EA5649
:10435000F84F8081822B80830895FA01EA56F84F46
:1043600020958081282320830895CF93DF93CDB7B4
:10437000DEB72B970FB6F894DEBF0FBECDBF4F83CD
:10438000588769877A878B878A859B85892B31F047
:104390005F3F11F080E003C04F3FE1F781E0811102
:1043A00004C0CE0107960E947921DE01119686E0B5
:1043B000FD0111928A95E9F785E0FE01379601909B
:1043C0000D928A95E1F749815A816B817C818D81BB
:1043D0009E810E9475282B960FB6F894DEBF0FBE03
:1043E000CDBFDF91CF910895882309F4C4C08238EE
:1043F00059F40E94862081FDBEC089E30E94172BDC
:104400000E94E72B89E30CC0833871F40E94862058
:1044100080FDB1C083E50E94172B0E94E72B83E546
:104420000E94572B0C94E72B843859F40E94862065
:1044300082FDA1C087E40E94172B0E94E72B87E42E
:10444000EFCF9CEF980F913A18F40E94172BEACF08
:1044500090E2980F983050F4877091E001C0990F66
:104460008A95EAF7892F0E949B2BDCCF9BE5980F5A
:10447000933070F4853A29F0863A31F482E890E07E
:1044800005C081E890E002C083E890E00C949D2094
:1044900098E5980F953108F06EC0883A61F1893A35
:1044A00069F18A3A71F18B3A79F18C3A81F18B3B5F
:1044B00089F18C3B91F18D3A99F1803BA1F18E3AD3
:1044C000A9F18F3AB1F1813BB9F1823BC1F1833B54
:1044D000C9F1843BD1F1853BD9F1863BE1F1873BC2
:1044E000E9F1883BF1F1893BF9F18A3B09F03FC0E2
:1044F0008AE292E03EC082EE90E03BC089EE90E01E
:1045000038C08AEE90E035C085EB90E032C086EB93
:1045100090E02FC083EB90E02CC084EB90E029C0AA
:1045200087EB90E026C08CEC90E023C08DEC90E00F
:1045300020C083E891E01DC08AE891E01AC082E9BA
:1045400091E017C084E991E014C081E292E011C0CB
:1045500083E292E00EC084E292E00BC085E292E03A
:1045600008C086E292E005C087E292E002C080E0E7
:1045700090E00C94B3200895882309F44BC082384E
:1045800059F40E94862081FF45C089E30E94172BC1
:104590000E94E72B89E30CC0833871F40E948620C7
:1045A00080FF38C083E50E94172B0E94E72B83E52C
:1045B0000E94572B0C94E72B843859F40E948620D4
:1045C00082FF28C087E40E94172B0E94E72B87E414
:1045D000EFCF9CEF980F913A58F390E2980F9830F4
:1045E00050F4877091E001C0990F8A95EAF7892FFE
:1045F0000E94A12BDFCF9BE5980F933020F480E041
:1046000090E00C949D20885A853120F480E090E061
:104610000C94B3200895882321F00E949B2B0C94C6
:10462000E72B0895882321F00E94A12B0C94E72BFF
:1046300008958F929F92BF92CF92DF92EF92FF9256
:104640000F931F93CF93DF9300D0CDB7DEB74C010C
:10465000472FFC01E580E2949FE0E922F280FF20F1
:1046600031F079836A830E94BB2B6A814981498337
:104670006A830E94102B49816A81882389F0FF2078
:1046800079F080E2860F883058F082E00E94F92AA3
:104690000E94102BBB24B394B82649816A8101C0C3
:1046A000B12CE42FE295EF70F0E0E859FF4F0C9445
:1046B000A534842F807F142F1F70882311F012954A
:1046C000107FFF20C1F0112309F48DC180E2860F15
:1046D000883010F0611105C0812F6A830E949B2BE6
:1046E00004C0812F6A830E94AE2B6A816A830E9474
:1046F000E72B6A8178C1862F6A830E94BC226A8177
:10470000112309F4BEC180E2860F883010F06111D8
:1047100004C0812F0E94A12B03C0812F0E94B42BC3
:104720000E94E72BAEC1242F207F842F8F70203270
:1047300011F08295807F662319F06130B9F020C0B6
:10474000FF2049F0EE2009F404C1F1E0EF1201C1AD
:104750000E94CE2B96C1EE2021F091E0E91609F4DB
:1047600090C189830E94D12B8981F9C0FF2029F053
:10477000E1E0EE1508F485C1ECC0E11082C1EFC0A4
:10478000FF2021F0EE2009F4E4C02DC1EE2009F451
:10479000E6C02FC1242F26952695237030E02115E1
:1047A000310521F02130310561F06BC1FF2021F08E
:1047B000862F942F937002C080E090E00E949D208D
:1047C00060C1FF2021F0862F942F937002C080E0FB
:1047D00090E00E94B32055C1842F837009F04EC031
:1047E000F1104FC1262F229526952770220F220FF8
:1047F000862F8F70C82ED12CE12CF12C022E04C0F4
:10480000CC0CDD1CEE1CFF1C0A94D2F764FF10C018
:104810006FE070E080E090E004C0660F771F881FB3
:10482000991F2A95D2F7609570958095909503C051
:1048300060E070E0CB01242F26952695237030E0B0
:104840002230310569F02330310589F06C297D294A
:104850008E299F292130310571F00E94C62911C18E
:104860006C297D298E299F290E94D8290AC10E947E
:10487000C629C701B6010E94B42903C1FF2019F05F
:10488000842F817001C08695882309F4FAC0262FF1
:10489000229526952770220F220F862F8F70C82E03
:1048A000D12CE12CF12C022E04C0CC0CDD1CEE1C12
:1048B000FF1C0A94D2F764FF10C06FE070E080E044
:1048C00090E004C0660F771F881F991F2A95D2F7C2
:1048D000609570958095909503C060E070E0CB0185
:1048E000242F26952695237030E02230310569F07B
:1048F0002330310589F06C297D298E299F292130AB
:10490000310571F00E94722ABCC06C297D298E2964
:104910009F290E94842AB5C00E94722AC701B6014D
:104920000E94602AAEC0062F10E0F801E05EF10997
:10493000E531F10508F053C0E858FF4F0C94A53459
:10494000162F1F70842F8F71FF2031F00E940B2AC9
:10495000812F0E940B2395C00E94262A812F0E943E
:1049600012238FC0FF2039F0E1108BC0842F8F718C
:104970000E94452A86C0F1E0FE1508F482C0F6CFF9
:10498000FF2039F0842F8F710E940B2A7AC0FF20FC
:10499000C9F3842F8F710E94262A73C0FF2029F04B
:1049A000842F8F710E94FC296CC00E94F72969C076
:1049B000FF2051F0142F1F71812F0E940B2A63E0FA
:1049C000812F0E94F02A5DC081E00E94F92A81E0D7
:1049D0008E1508F056C082E00E94F92A52C0FF20CE
:1049E00031F0EE2079F2862F0E94F4214AC0EE20A9
:1049F00081F2862F0E94BC2244C04F70C4010E94E5
:104A0000411C0E9422293DC0623FA9F128F4603F69
:104A100049F0613FE1F020C0643FA1F050F0653FF4
:104A200069F01AC0FF2049F18091A40721E0822794
:104A300002C081E08F258093A4071FC0F1101DC024
:104A400081E0F9CFF11019C01092A40716C0EE2032
:104A500091F0F11012C0E8CFEE2069F0862F498363
:104A60006A83FF2019F00E94F42102C00E94BC2238
:104A700049816A8102C0F092A4074F70C4010E946C
:104A8000441CBB20F1F00E94EC2A80FD1AC0F40106
:104A900012820E94E62A0E940B2AC4010E946F25FE
:104AA0000E94E62A0F900F90DF91CF911F910F91F6
:104AB000FF90EF90DF90CF90BF909F908F900C94DD
:104AC000262A0F900F90DF91CF911F910F91FF90A9
:104AD000EF90DF90CF90BF909F908F9008950F93AD
:104AE0001F93CF93DF93EC01288139818B819C81C7
:104AF000892B31F03F3F11F080E003C02F3FE1F7F9
:104B000081E0811113C0CE010E94DD1A882371F06B
:104B1000688179818A810E94E22A8C010E94962A0A
:104B20000E94B129B801CE010E941923DF91CF91D3
:104B30001F910F9108950E94BB2B0E94CB2B0E94C6
:104B40008A2B0E94E72B80E090E00E949D2080E06D
:104B500090E00C94B3200E94AB2B0C949B250E94F8
:104B6000D72AE92FE295EF70F0E03297EE30F105A9
:104B7000B8F4E357FF4F0C94A534803F59F018F474
:104B8000803E70F407C0843F59F404C0803E10F0AA
:104B9000813F31F481E0089593FB882780F90895DF
:104BA00080E00895CF93DF9300D000D01F92CDB75F
:104BB000DEB70F900F900F900F900F90DF91CF9175
:104BC0000895CF93DF9300D000D000D0CDB7DEB7EB
:104BD00026960FB6F894DEBF0FBECDBFDF91CF9102
:104BE00008951F93CF93DF93C091A50716E080919E
:104BF000A607C81799F0D0E01C9FF0011D9FF00D8B
:104C00001124E955F84F408151816281738184817B
:104C100095810E94E1252196C770E9CFDF91CF9160
:104C20001F9108954091D7075091D8076091D907F7
:104C30007091DA078091DB079091DC070C94E125F5
:104C4000CF938091DC0782958F7009F05FC08091CF
:104C5000D907882309F45AC02091A507A091A60777
:104C60006091D7077091D8078091DA079091DB07A0
:104C700031E06F3F09F030E0B32FC6E02A1709F4A6
:104C800045C0009721F07F3F21F44B2F03C041E046
:104C900001C040E030E040FD35C0C29FF001C39F3D
:104CA000F00D1124E955F84F418174132BC0408158
:104CB000641328C04281411125C0438154814817A3
:104CC000590710F441505109481B590B483C5105F4
:104CD000C8F48091DC078F7080618093DC0786E0E8
:104CE000829FF001839FF00D1124E455F84F8081DD
:104CF0008F708061808387ED97E00E946F25CF9150
:104D00000C94F1252F5F3F4F2770B8CFCF910895B6
:104D1000CF92DF92EF92FF920F931F93CF93DF9387
:104D2000CDB7DEB762970FB6F894DEBF0FBECDBF2A
:104D30008C0185E0F801DE011D9601900D928A95A7
:104D4000E1F7D8014C9111965C91119712966C91F4
:104D500012971396ED90FC9014977091D707E091FD
:104D6000D8072091DA073091DB072115310531F0A2
:104D7000EF3F31F481E07F3F19F403C081E001C0CF
:104D800080E0B82FB170CB2E80FD6CC1D090D907D8
:104D9000DD2009F4F5C0F091DC07E216F30638F0E7
:104DA000C701821B930B883C910548F09BC020955E
:104DB00030952E0D3F1D283C310508F093C08F2FF4
:104DC000807F09F052C0E51314C0741312C0D62EB0
:104DD00061110FC0FF70F061F093DC070E94122692
:104DE00087ED97E00E946F258091DC07F8018583AD
:104DF0006CC1EF2831F05F3F31F481E04F3F19F48F
:104E000003C081E001C080E080FD03C081E086270F
:104E100001C080E0F82FF170FF2E80FF1CC0809150
:104E2000A5072091A60736E0821709F428C190E073
:104E3000389FF001399FF00D1124E955F84F718129
:104E4000571306C07081471303C07281671303C0F4
:104E500001968770E9CFD62E662309F436C180917A
:104E6000DC0781608093DC0753C0E51308C074132E
:104E700006C0611104C0D8011596FC93AEC04D87E1
:104E80005E878D859E856A8B0E94AF256A898823FF
:104E900029F1D62E662311F12091DC07822F82950D
:104EA0008F7090E002970CF460C08091D7079091CA
:104EB000D80798878F831986FB86EA862C87CE01D0
:104EC000079651C0E51731F14D875E878D859E8528
:104ED0006A8B0E94AF256A8981112EC0C8010E9489
:104EE0006F25A4C08F2F807F69F77E2DF98AE88A0D
:104EF00089890E94D22587ED97E00E946F25E7ED12
:104F0000F7E086E0DF011D928A95E9F70E941226FC
:104F1000D12CDBC07413D8CF6111D6CFD801159630
:104F2000FC93C8010E946F25E7EDF7E086E0DF0102
:104F30001D928A95E9F7C9C0D62E662379F2209191
:104F4000DC07822F82958F7090E0029774F0809139
:104F5000D7079091D8079A8389831B82FD82EC82C0
:104F60002E83CE0101960E946F2586E0F801A7ED01
:104F7000B7E001900D928A95E1F70E9420266FC05C
:104F8000E216F30628F0C701821B930B9C0104C0B4
:104F9000209530952E0D3F1D283C310508F052C05C
:104FA000D62E662309F49ACFE5132CC074132AC0B9
:104FB0008091DC0780FD1DC0982F92959F70C9F0ED
:104FC000D80115968C9315979F3039F09F5F929575
:104FD000907F8F70892B15968C93C8010E946F2546
:104FE00086E0F801A7EDB7E001900D928A95E1F710
:104FF00036C086E0F801A7EDB7E001900D928A95E2
:10500000E1F763C04D875E878D859E850E94AF2541
:10501000882379F086E0F801A7EDB7E001900D92C2
:105020008A95E1F70E9420260E941226DD24D3945F
:105030004CC08091DC0781608093DC07C8010E942E
:105040006F2543C07E2DF98AE88A89890E94D2257E
:10505000E7EDF7E086E0DF011D928A95E9F70E940F
:10506000122633C0662309F439CF4D875E878D85BC
:105070009E850E94AF25882309F430CFCBCF4D8782
:105080005E878D859E850E94D72A292F22952F70B5
:1050900030E0223031052CF49F7041F0811106C0C0
:1050A0000CC0243031052CF49F7049F4805E8830A8
:1050B00020F0C8010E946F25CF2CDC2C06C0D8013F
:1050C00015969C91907F91F7F8CF8D2D62960FB633
:1050D000F894DEBF0FBECDBFDF91CF911F910F912E
:1050E000FF90EF90DF90CF9008951F93CF93DF93C1
:1050F000CDB7DEB72C970FB6F894DEBF0FBECDBF8D
:105100004F83588769877A878B879C87CE0107965C
:105110000E9488268823C1F02F8138858A859B8547
:10512000892B31F03F3F11F080E003C02F3FE1F7C2
:1051300081E0811147C04F81588569857A858B85CB
:105140009C850E94E1253EC086E0FE013796DE0187
:10515000119601900D928A95E1F7FF81E8854A85C5
:105160005B854115510531F0EF3F31F481E0FF3FA0
:1051700019F403C081E001C080E080FD23C02091CC
:10518000A60730E0C9010196877099276091A507AD
:1051900070E086179707F1F1F983EA835D834C830A
:1051A00096E0929FD001939FB00D1124A955B84F5E
:1051B000FE01319601900D929A95E1F78093A60732
:1051C0000E94F12516E08091A5079091A607891706
:1051D00079F1189FC00111248955984F0E948826A3
:1051E000882331F1E091A5071E9FF0011124E955B4
:1051F000F84F4081518162817381848195810E9441
:10520000E1258091A50790E001968770992780930A
:10521000A507D9CF0E94AB251092A6071092A5072B
:10522000E7EDF7E086E0DF011D928A95E9F7CACF46
:105230002C960FB6F894DEBF0FBECDBFDF91CF9195
:105240001F910895EF92FF920F931F93CF93DF93D7
:105250009C01009709F471C0F12CEE24E394E9015C
:105260002196F9018491843740F4843008F056C0C7
:10527000813081F0823021F160C0853709F449C066
:10528000C0F19CE7980F903708F057C08F770E94C5
:10529000BC2246C089010E5F1F4FFE01849190E23F
:1052A000980F983050F48770FE2D01C0FF0F8A953B
:1052B000EAF78F2F0E94BE2B15C00E94F42114C064
:1052C00089010E5F1F4FFE01849190E2980F983084
:1052D00068F48770FE2D01C0FF0F8A95EAF78F2FC3
:1052E0000E94C42B0E94E72BE8011AC00E94BC2236
:1052F000FBCF2E5F3F4FFE01C491CC2341F08FE9DD
:105300009FE00197F1F700C00000C150F6CFE9011E
:1053100007C0FE01F490E901229602C00E94F42128
:105320008F2D882341F0EFE9FFE03197F1F700C0BE
:1053300000008150F6CF9E0192CFDF91CF911F9157
:105340000F91FF90EF90089508950E94A429609313
:10535000E1077093E2078093E3079093E4070C94CE
:105360009B2508950C94A5290F931F930091E107A5
:105370001091E2072091E3073091E407602B712B35
:10538000822B932B1F910F910C94A5290F931F93A0
:105390000091E1071091E2072091E3073091E407C3
:1053A00060237123822393231F910F910C94A529CD
:1053B0000F931F930091E1071091E2072091E307FB
:1053C0003091E40760277127822793271F910F915F
:1053D0000C94A52908950E94EA296093DD07709333
:1053E000DE078093DF079093E0070C949B2560E035
:1053F00070E0CB010C94EB2941E050E060E070E0FC
:1054000004C0440F551F661F771F8A95D2F7CB0142
:10541000BA010C94EB2941E050E060E070E004C078
:10542000440F551F661F771F8A95D2F78091DD07BD
:105430009091DE07A091DF07B091E007482B592B30
:105440006A2B7B2BCB01BA010C94EB2941E050E095
:1054500060E070E004C0440F551F661F771F8A95F7
:10546000D2F740955095609570958091DD079091A9
:10547000DE07A091DF07B091E007482359236A2394
:105480007B23CB01BA010C94EB2941E050E060E0B2
:1054900070E004C0440F551F661F771F8A95D2F72E
:1054A0008091DD079091DE07A091DF07B091E007C2
:1054B000482759276A277B27CB01BA010C94EB298F
:1054C0000F931F930091DD071091DE072091DF07F6
:1054D0003091E007602B712B822B932B1F910F9142
:1054E0000C94EB290F931F930091DD071091DE07B9
:1054F0002091DF073091E0076023712382239323FB
:105500001F910F910C94EB290F931F930091DD07CE
:105510001091DE072091DF073091E00760277127A7
:10552000822793271F910F910C94EB290895CF9216
:10553000DF92EF92FF920F931F93CF93DF93EC01D3
:10554000C090E107D090E207E090E307F090E40715
:105550008091DD079091DE07A091DF07B091E00711
:10556000C82AD92AEA2AFB2A0FE110E0B701A601CE
:10557000002E04C076956795579547950A94D2F703
:1055800040FD05C00150110988F780E007C0BE0149
:10559000802F0E945F1C0197A9F3802FDF91CF918C
:1055A0001F910F91FF90EF90DF90CF900895CF93D0
:1055B000DF93EC010E94972ABE010E945F1CDF91DD
:1055C000CF910895CB010E94D72A08958091E507D5
:1055D00085958595859508958091E507877008954F
:1055E00098E0899F90011124622B6093E5070C9449
:1055F0000B2A4091E507809584238093E507982F37
:10560000977069F450E0282F332727FD3095421713
:10561000530729F08595859585950C94262A08953C
:105620009091E507977081E009F480E008959091EA
:1056300036019923D9F09091410897FF17C0982F10
:105640009695969596959F3188F5E0912A01F0916F
:105650002B01E90FF11D877021E030E001C0220F1E
:105660008A95EAF78181822B8183089540912A01EE
:1056700050912B0120E030E09FEFFA01E20FF31F81
:105680006281681799F09F3F19F4611101C0922F50
:105690002F5F3F4F2E31310581F79F3F39F0FA01DF
:1056A000E90FF11D97FDFA95828308950895909171
:1056B00036019923E1F09091410897FF18C0982F87
:1056C0009695969596959F3120F5E0912A01F09157
:1056D0002B01E90FF11D877021E030E001C0220F9E
:1056E0008A95EAF7209581812823218308954091A6
:1056F0002A0150912B0120E030E0FA01E20FF31F64
:105700009281981301C012822F5F3F4F2E313105D5
:10571000A1F7089581E090E0E0912A01F0912B013A
:10572000E80FF91F1082019680329105A9F70895BC
:1057300080910908089590910908982B9093090881
:1057400008958095909109089823909309080895E9
:105750008093090808951092090808959091080807
:10576000982B9093080808958095909108089823A5
:1057700090930808089510920808089590910708DA
:10578000982B909307080895809590910708982387
:105790009093070808951092070808958093E607EC
:1057A00008951092E607089540912A0150912B0127
:1057B00020E030E080E0FA01E20FF31F91819111C7
:1057C0008F5F2F5F3F4F2F313105A9F70895E0918B
:1057D0002A01F0912B01809109088083E0912A0130
:1057E000F0912B01808190910808892B8083E091B2
:1057F0002A01F0912B01808190910708892B8083E9
:105800009091E607992361F0E0912A01F0912B0134
:105810008081892B80830E94D42B81111092E6070E
:1058200080912A0190912B010C949220CF92DF92CB
:10583000EF92FF920F931F936C01EE24FF24C1148B
:10584000D104E104F10421F46B017C0180E001C08A
:1058500080E133272F2D1E2D0D2D0115110521055A
:10586000310519F0885F6801790197018601A4E08C
:105870003695279517950795AA95D1F70115110526
:105880002105310519F08C5F6801790197018601C6
:10589000F2E03695279517950795FA95D1F70115FA
:1058A00011052105310519F08E5F68017901B701F5
:1058B000A6017695679557954795452B462B472B1F
:1058C00009F08F5F1F910F91FF90EF90DF90CF90C5
:1058D00008956DEE7EEF80E090E00E94CB3460E0B2
:1058E00082E090E00E94B93460E083E090E00E94A2
:1058F000B93460E084E090E00E94B93460E085E073
:1059000090E00C94B93480E090E00E94B33421E040
:105910008D3E9E4F09F020E0822F089582E090E0B6
:105920000C94AB3483E090E00C94AB3484E090E0D2
:105930000C94AB34682F84E090E00C94B9348091DF
:105940004708843021F110920B0820E488E190E0B0
:105950000FB6F894A895809360000FBE2093600066
:1059600080E00E943F1C83B7817F846083BF83B740
:10597000816083BF7894889583B78E7F83BF88E1E9
:105980000FB6F89480936000109260000FBE0895E7
:105990000895CF930E94D1140E94E4140E94C82C51
:1059A000C0E08C2F0E94E215811105C0CF5FCE3080
:1059B000C1F780E001C081E0CF9108950E94AB253E
:1059C0000E9486200C943F1C1F920F920FB60F92DC
:1059D00011248F939F93AF93BF9380910B088111F4
:1059E00013C080913D0890913E08A0913F08B0916E
:1059F00040084196A11DB11D80933D0890933E083B
:105A0000A0933F08B0934008BF91AF919F918F91B1
:105A10000F900FBE0F901F90189582E084BD93E009
:105A200095BD9AEF97BD80936E0008952FB7F894B7
:105A300080913D0890913E08A0913F08B0914008A8
:105A40002FBF0895CF92DF92EF92FF920F931F9393
:105A50002FB7F89440913D0850913E0860913F085F
:105A6000709140082FBF6A017B01EE24FF248C0156
:105A700020E030E0C016D106E206F30610F44150F3
:105A80005109481B590BCA011F910F91FF90EF90CC
:105A9000DF90CF90089578941F920F920FB60F92D7
:105AA00011248F939F93AF93BF9380913D08909162
:105AB0003E08A0913F08B09140080196A11DB11D7C
:105AC00080933D0890933E08A0933F08B093400810
:105AD000BF91AF919F918F910F900FBE0F901F902C
