:100000000C9401140C9445140C9445140C94451450
:100010000C9445140C9445140C9445140C944514FC
:100020000C9445140C9445140C9478320C944A3377
:100030000C94452D0C9445140C9445140C944514C3
:100040000C9445140C9445140C9445140C944514CC
:100050000C9445140C94AC2D0C9445140C9445143C
:100060000C9445140C9445140C9445140C944514AC
:100070000C9445140C9445140C9445140C9445149C
:100080000C9445140C9445140C9445140C9445148C
:100090000C9445140C9445140C9445140C9445147C
:1000A0000C9445140C9445140C9445140618F3173D
:1000B000ED17E717F917EA17FF178B1B911B951B15
:1000C000981B9C1BA01BA41BA81BAD1BB11BB51B25
:1000D000B91BBC1BC01BC41BC81BCC1BD11BBA2328
:1000E000BA23F423F4232B24A2256525A2254D242D
:1000F000A225F424F4245E25A225A2259E2501250F
:1001000001250125012501250125012501250125BF
:10011000012501250125012501250125012513259D
:10012000212528252F2539251E261E263126312654
:1001300027263126312631261E261E262D2631263B
:1001400031262D26AF33D133BC34D133BC341334F4
:100150003634BC348B349E341E0030002B00CD5C12
:10016000E00000002214040014001A001E000351D5
:1001700021141D0015001B00E2002A002E140900A6
:100180001600060052002800220013001700190074
:10019000510046002E000A0007000500000004512F
:1001A000E3004900000029000000045301532A0025
:1001B000000028000000045332000D000B000E0068
:1001C000000004512D000F0011003300500000000A
:1001D0002E021800080010004F002C002D141C00E7
:1001E0000C00360225144C003800360012002100A5
:1001F00027140351201437022300CD5CE4000000D3
:100200003A00E200E000CC5CCC5C00003B002B003C
:10021000CC5CCC5CCC5CCC5C3C00CC5CCC5CCC5C8A
:10022000CC5CCC5C3D00CC5CCC5CCC5C0100CC5CA0
:100230003E00CC5CCC5CCC5C0100CC5C3F00CC5C78
:10024000CC5CCC5C0000CC5C2A00CC5C0000CC5CBC
:100250000000CC5C0100CC5C0000CC5C0000CC5CFD
:100260004000CC5CCC5CCC5C0000CC5C4100CC5C45
:10027000CC5CCC5C0100CC5C4200CC5CCC5CCC5C4B
:100280000100CC5C4300CC5CCC5CCC5CCC5CCC5C3A
:1002900044004C00CC5CCC5CCC5CCC5C4500E60003
:1002A000E400CC5CCC5C00003400CE5C01000100BA
:1002B00001000000240001000100010034000100E1
:1002C00022000100010001000100010020000100E6
:1002D00001000100010001001E00010001000100F9
:1002E00001000100260001000100010000000100E2
:1002F00001000100000001000000010000000100F9
:1003000000000100000001002700010001000100C1
:10031000000001001F0001000100010001000100B8
:10032000210001000100CE5C01000100230001005A
:100330000100CE5CCE5C01002500CE5C0100CE5CED
:10034000CE5C0100CE5C1000CE5C0100010000001C
:10035000000000000000000000000000000000009D
:100360002700000000000100000000000000000065
:100370000000000000000000000026000000000057
:10038000000000000000000000000000000000006D
:10039000000000000000000000000000000000005D
:1003A000000000000000000000000000000000004D
:1003B0000000000024000000000000000000000019
:1003C0001F0000000000000000003400CF5C0000AF
:1003D0000000000000000000CF5C000000000000F2
:1003E00000002F02CF5C00000000010000000000B0
:1003F00000000000000000003A0001000100E100E0
:10040000010000003B0001000100010001000100AB
:100410003C00010001000100010001003D0001005D
:10042000010001004B0001003E000100010001003D
:100430004E0001003F00010001000100000001002A
:10044000005C01000000010000000100000001004C
:100450000000010000000100400001000100010057
:100460000000010041000100010001004A000100FC
:1004700042000100010001004D00010043000100A5
:100480000100010001000100440001000100010021
:1004900001000100450001000100E500010000002D
:1004A00000000000000000000000000020000080AC
:1004B000200000800000000000000000000000009C
:1004C0003000008021000080210000805200008068
:1004D00000000000320000803100008046000080F3
:1004E00047000080500000800000000033000080C2
:1004F00044000080450000800000000011000080E2
:1005000000000000340000804200008043000080B2
:100510000000000051000080000000003500008055
:1005200040000080410000800000000010000080BA
:10053000000000009100008000000000100000801A
:100540000000000010000080000000001200008089
:100550000000000012000080000000001000008079
:1005600000000000850000806000008061000080C5
:1005700000000000100000800000000084000080E7
:1005800062000080630000800000000052000080D4
:10059000000000008300008064000080650000808F
:1005A00000000000110000800000000082000080B8
:1005B0008100008066000080670000805400008099
:1005C000000000000000000080000080700000803B
:1005D0007100008053000080000000000000000057
:1005E0000000000072000080720000800000000027
:1005F0000000000000002B000000000028000000A8
:1006000000000000000000000000000000000000EA
:100610002100000000000000360200000000000081
:1006200021005000000000002E1400000000000017
:1006300020000000000000002E1450000000000008
:1006400020005000000000002D000000000000000D
:1006500064020000000000002D00500000000000B7
:1006600064025000000000002D1400000000000093
:1006700000000000000000002D14500000000000E9
:100680002C005000000000003602000000000000B6
:1006900021003602000000003700000000000000CA
:1006A00021003602D85C00002E1436020000000043
:1006B00020003602000000002E143602D85C000034
:1006C00020003602D85C00002D0036020000000039
:1006D00032003702000000002D003602D85C000016
:1006E00032003702D85C00002D14360200000000F2
:1006F00000000000000000002D143602D85C00004D
:1007000000000000000000001000000000000000D9
:1007100021001000000000002E000000000000007A
:1007200021001000D85C00002E1410000000000012
:1007300020001000000000002E141000D85C000003
:1007400020001000D85C00002D0010000000000008
:1007500064021000000000002D001000D85C0000B2
:1007600064021000D85C00002D141000000000008E
:1007700000000000000000002D141000D85C0000F4
:100780000000000000000000360000000000000033
:100790002100360000000000370037000000000094
:1007A00021003600D85C00002E1436000000000046
:1007B00020003600000000002E143600D85C000037
:1007C00020003600D85C00002D003600000000003C
:1007D00000000000000000002D003600D85C000082
:1007E00000000000000000002D1436000000000092
:1007F00000000000000000002D143600D85C00004E
:1008000000000000000000002800000000000000C0
:10081000210028000000000036022800000000002F
:1008200000000000000000002E142800000000005E
:10083000200028000000000028002E14D95C0000D1
:1008400000000000000000002D0028000000000053
:10085000640228000000000028002D00D95C000080
:1008600000000000000000002D142800000000001F
:10087000000000000000000028002D14D95C0000DA
:100880000000000000000000360228000000000008
:100890002100360228000000370028000000000078
:1008A00000000000000000002E14360228000000A6
:1008B00020003602280000000000000000000000B8
:1008C00000000000000000002D003602280000009B
:1008D0003200370228000000000000000000000085
:1008E00000000000000000002D1436022800000067
:1008F00000000000000000000000000000000000F8
:1009000000000000000000001000280000000000AF
:1009100021001000280000002E0028000000000028
:1009200000000000000000002E141000280000004D
:10093000200010002800000000000000000000005F
:1009400000000000000000002D0010002800000042
:1009500064021000280000004D0028000000000084
:1009600000000000000000002D141000280000000E
:100970000000000000000000000000000000000077
:100980000000000000000000360028000000000009
:100990002100360028000000370037002800000042
:1009A00000000000000000002E14360028000000A7
:1009B00020003600280000000000000000000000B9
:1009C00000000000000000002D003600280000009C
:1009D0000000000000000000000000000000000017
:1009E00000000000000000002D1436002800000068
:1009F00000000000000000000000000000000000F7
:100A000000000000000000002702000000000000BD
:100A100000000000000000001E02000000000000B6
:100A200000000000000000000000000000000000C6
:100A300000000000000000000000000000000000B6
:100A400000000000000000001F0200000000000085
:100A50000000000000000000200200000000000074
:100A60000000000000000000000000000000000086
:100A70000000000000000000000000000000000076
:100A80000000000000000000000000000000000066
:100A90000000000000000000000000000000000056
:100AA0000000000000000000000000000000000046
:100AB0000000000000000000000000000000000036
:100AC0000000000000000000000000000000000026
:100AD0000000000000000000000000000000000016
:100AE0000000000000000000000000000000000006
:100AF00000000000000000000000000000000000F6
:100B000000000000000000002102000000000000C2
:100B100000000000000000002202000000000000B1
:100B200000000000000000000000000000000000C5
:100B300000000000000000000000000000000000B5
:100B40000000000000000000230200000000000080
:100B5000000000000000000024020000000000006F
:100B60000000000000000000000000000000000085
:100B70000000000000000000000000000000000075
:100B80000000000000000000000000000000000065
:100B90000000000000000000000000000000000055
:100BA0000000000000000000000000000000000045
:100BB0000000000000000000000000000000000035
:100BC0000000000000000000000000000000000025
:100BD0000000000000000000000000000000000015
:100BE0000000000000000000000000000000000005
:100BF00000000000000000000000000000000000F5
:100C000000000000000000002502000000000000BD
:100C100000000000000000002602000000000000AC
:100C200000000000000000000000000000000000C4
:100C300000000000000000000000000000000000B4
:100C400000000000000000001E022702000000005B
:100C500000000000000000001E021E020000000054
:100C60000000000000000000000000000000000084
:100C70000000000000000000000000000000000074
:100C80000000000000000000000000000000000064
:100C90000000000000000000000000000000000054
:100CA0000000000000000000000000000000000044
:100CB0000000000000000000000000000000000034
:100CC0000000000000000000000000000000000024
:100CD0000000000000000000000000000000000014
:100CE0000000000000000000000000000000000004
:100CF00000000000000000000000000000000000F4
:100D000000000000000000001E021F0200000000A2
:100D100000000000000000001E0220020000000091
:100D200000000000000000000000000000000000C3
:100D300000000000000000000000000000000000B3
:100D400000000000000000001E0221020000000060
:100D500000000000000000001E022202000000004F
:100D60000000000000000000000000000000000083
:100D70000000000000000000000000000000000073
:100D80000000000000000000000000000000000063
:100D90000000000000000000000000000000000053
:100DA0000000000000000000000000000000000043
:100DB0000000000000000000000000000000000033
:100DC0000000000000000000000000000000000023
:100DD0000000000000000000000000000000000013
:100DE0000000000000000000000000000000000003
:100DF00000000000000000000000000000000000F3
:100E000000000000000000000000000000000000E2
:100E100021000000000000002C0000000000000085
:100E20002B00000000000000211400000000000062
:100E3000200000000000000064020000000000002C
:100E400064026402000000002200000000000000B4
:100E500064000000000000002300640200000000A5
:100E60006400640000000000221400000000000084
:100E70000000000000000000100200000000000060
:100E800020140000000000002E02000000000000FE
:100E900024140000000000001F14000000000000E7
:100EA00036020000000000002E022E0200000000AA
:100EB00000000000000000001E0000000000000014
:100EC0001E001E00000000002514000000000000AD
:100ED00000000000000000002514251400000000A0
:100EE00027140000000000000000000000000000C7
:100EF00000000000000000000000000000000000F2
:100F000000000000000000002300000000000000BE
:100F100000000000000000002E00000000000000A3
:100F20003000000000000000370200000000000058
:100F30003702370200000000261400000000000005
:100F400037023702370200002300230000000000B0
:100F5000000000000000000025000000000000006C
:100F600030002200000000003702320000000000C4
:100F700000000000000000003702320032000000D4
:100F80003702370237026400320000000000000020
:100F90000000000000000000380000000000000019
:100FA000360232000000000032003702000000006C
:100FB0000000000000000000000000000000000031
:100FC0003000211400000000320022000000000068
:100FD00000000000000000002314000000000000DA
:100FE000320036023200000034020000000000002F
:100FF0000000000000000000231423140000000083
:101000000000000000000000D75C000000000000AD
:1010100000000000000000004D024C000000000035
:1010200000000000000000000000000000000000C0
:1010300000000000000000000000000000000000B0
:1010400000000000000000000000000000000000A0
:101050000000000000000000000000000000000090
:101060000000000000000000000000000000000080
:101070000000000000000000000000000000000070
:101080000000000000000000000000000000000060
:101090000000000000000000000000000000000050
:1010A0000000000000000000000000000000000040
:1010B0000000000000000000000000000000000030
:1010C0000000000000000000000000000000000020
:1010D0000000000000000000000000000000000010
:1010E0000000000000000000000000000000000000
:1010F00000000000000000000000000000000000F0
:101100000000000000000000D75CD75C0000000079
:1011100000000000000000000000000000000000CF
:1011200000000000000000000000000000000000BF
:1011300000000000000000000000000000000000AF
:1011400000000000000000004A024C000000000007
:1011500000000000000000004A004D024C000000AA
:10116000000000000000000000000000000000007F
:10117000000000000000000000000000000000006F
:1011800000000000000000003200320000000000FB
:10119000000000000000000000000000000000004F
:1011A000000000000000000000000000000000003F
:1011B000000000000000000000000000000000002F
:1011C000000000000000000000000000000000001F
:1011D000000000000000000000000000000000000F
:1011E00000000000000000000000000000000000FF
:1011F00000000000000000000000000000000000EF
:1012000000000000000000002702000000000000B5
:1012100000000000000000001E02000000000000AE
:101220000000000000000000211427020000000060
:1012300000000000000000000000000000000000AE
:1012400000000000000000001F020000000000007D
:10125000000000000000000020020000000000006C
:10126000000000000000000022142702000000001F
:10127000000000000000000000000000000000006E
:10128000000000000000000000000000000000005E
:10129000000000000000000000000000000000004E
:1012A000000000000000000000000000000000003E
:1012B000000000000000000000000000000000002E
:1012C00000000000000000002200270200000000D3
:1012D000000000000000000000000000000000000E
:1012E00000000000000000000000000000000000FE
:1012F00000000000000000000000000000000000EE
:1013000000000000000000002102000000000000BA
:1013100000000000000000002202000000000000A9
:1013200000000000000000000000000000000000BD
:1013300000000000000000000000000000000000AD
:101340000000000000000000230200000000000078
:101350000000000000000000240200000000000067
:10136000000000000000000000000000000000007D
:10137000000000000000000000000000000000006D
:10138000000000000000000000000000000000005D
:10139000000000000000000000000000000000004D
:1013A000000000000000000000000000000000003D
:1013B000000000000000000000000000000000002D
:1013C000000000000000000000000000000000001D
:1013D000000000000000000000000000000000000D
:1013E00000000000000000000000000000000000FD
:1013F00000000000000000000000000000000000ED
:1014000000000000000000002502000000000000B5
:1014100000000000000000002602000000000000A4
:1014200000000000000000000000000000000000BC
:1014300000000000000000000000000000000000AC
:1014400000000000000000001E0227020000000053
:1014500000000000000000001E021E02000000004C
:10146000000000000000000000000000000000007C
:10147000000000000000000000000000000000006C
:10148000000000000000000000000000000000005C
:10149000000000000000000000000000000000004C
:1014A000000000000000000000000000000000003C
:1014B000000000000000000000000000000000002C
:1014C000000000000000000000000000000000001C
:1014D000000000000000000000000000000000000C
:1014E00000000000000000000000000000000000FC
:1014F00000000000000000000000000000000000EC
:1015000000000000000000001E021F02000000009A
:1015100000000000000000001E0220020000000089
:1015200000000000000000000000000000000000BB
:1015300000000000000000000000000000000000AB
:1015400000000000000000001E0221020000000058
:1015500000000000000000001E0222020000000047
:10156000000000000000000000000000000000007B
:10157000000000000000000000000000000000006B
:10158000000000000000000000000000000000005B
:10159000000000000000000000000000000000004B
:1015A000000000000000000000000000000000003B
:1015B000000000000000000000000000000000002B
:1015C000000000000000000000000000000000001B
:1015D000000000000000000000000000000000000B
:1015E00000000000000000000000000000000000FB
:1015F00000000000000000000000000000000000EB
:1016000000000000000000000000000000000700D3
:10161000000000002100160000000700000000008C
:101620000000000000000000000000001100210088
:101630001700000000000000080015000000000076
:101640000000000021000F000F000000000000005B
:101650000C0011000A000000000000000000000063
:10166000000000000000000008001500000000005D
:101670000000000021001900080000000000000028
:10168000000000000000000000000000000000005A
:1016900000000000000000000C0011000A00000023
:1016A000000000000000000000000000000000003A
:1016B000000000000000000000000000000000002A
:1016C00000000000000000000800150000000000FD
:1016D00000000000210007000000000000000000E2
:1016E00000000000000000000000000000000000FA
:1016F00000000000000000000000000000000000EA
:1017000000000000000000000000000000000000D9
:1017100000000000000000000000000000000000C9
:1017200000000000000000000C0011000A00000092
:101730000000000021003300000000000000000055
:101740000000000000000000000000000000000099
:101750000000000000000000000000000000000089
:101760000000000000000000000000000000000079
:101770000000000000000000000000000000000069
:101780000000000000000000000000000000380021
:1017900000000000290000000000290037000000C0
:1017A000D55C000000000000000000000000000008
:1017B0000000000000000000D35C000000000000FA
:1017C0000000000000000000000000000000000019
:1017D0000000000000000000000000000000000009
:1017E0000000000000000000D25C000000000000CB
:1017F00000000000000000000000000000000000E9
:10180000D65C0000000000000000000000000000A6
:101810000000000000000000D45C00000000000098
:1018200000000000000000000000000000000000B8
:1018300000000000000000000000000000000000A8
:101840000000000000000000D05C0000000000006C
:101850000000000000000000000000000000000088
:101860000000000000000000000000000000000078
:101870000000000000000000000000000000000068
:101880000000000000000000000000000000000058
:101890000000000000000000000000000000000048
:1018A0000000000000000000D15C0000000000000B
:1018B0000000000000000000000000000000000028
:1018C0000000000000000000000000000000000018
:1018D0000000000000000000000000000000000008
:1018E00000000000000000000000000000000000F8
:1018F00000000000000000000000000000000000E8
:1019000000000000000000000000000000000800CF
:10191000000000001C0000000000081C0000000087
:101920001600000000000816000000001C16000051
:101930000000081C16000000000000000000150058
:101940000000000011000000000015110000000060
:101950000F0000000000150F00000000160000003E
:1019600000000F0F000000000A0000000000150A30
:1019700000000000110A000000000A110000000031
:101980000F0A000000000A15000000000700000018
:101990000000070F00000000060000000000150610
:1019A00000000000110600000000110615000000F4
:1019B00013000000000015130000000016130000C3
:1019C0000000130F000000000500000000001505D6
:1019D000000000000A0A00000000050815000000D1
:1019E000050F0000000000000000000000000000E3
:1019F00000000F05000000000B00000000001D00AB
:101A0000000000001900000000001D11000000008F
:101A10001A00000000001D0F00000000160B00005F
:101A200000000F19000000000A0B00000000150A5A
:101A30000B00000033000000000015330000000020
:101A40001B00000000000000000000001633000032
:101A500000000F3300000000060B00000000150618
:101A60000B00000011060B0000001519000000001B
:101A7000130B00000000000000000000160F000023
:101A800000000F060B00000009000000000015090F
:101A900000000000330500000000330508150000B9
:101AA0000F0900000000090F0000000033130000C0
:101AB000000013330000000017000000000015179D
:101AC00000000000111700000000151117000000B1
:101AD0000F1700000000170F00000000161700008D
:101AE00000001516170000000E0000000000150E83
:101AF00000000000110E00000000000000000000C7
:101B00000E0F00000000000000000000160E000094
:101B100000000F0E00000000061700000000061570
:101B200000000000170C121100000000000000006F
:101B3000131700000000000000000000111617003D
:101B400000000F1300000000060E0000000000005F
:101B50000000000005170000000005081517000030
:101B6000060E0F0000000000000000000000000052
:101B70000000000000000000170B00000000151717
:101B80000B00000011170B0000001D170B000000D8
:101B90000F170B00000000000000000011190000EA
:101BA0000000161D081500000A0B170000001D0E8E
:101BB00000000000110A170B000033081117000085
:101BC0001B170000000000000000000007170B00BA
:101BD000000011330811170017060B000000000069
:101BE00000000000110F1C000000000000000000B9
:101BF00013170B000000000000000000160F1C006F
:101C00000000000000000000091700000000091794
:101C1000081500000917081100000000000000006E
:101C20000000000000000000000000003313170057
:101C300000001333081117001600000000001516ED
:101C40000000000011160000000015111600000031
:101C50000F1600000000150F1600000016160000F9
:101C600000000F0F160000000A1600000000150A01
:101C700016000000110A160000000A1116000000EC
:101C80000000000000000000000000000716000037
:101C9000000000000000000006160000000015060D
:101CA00016000000110608160000000000000000E9
:101CB000131600000000151316000000161316007E
:101CC0000000130F0816000005160000000015059F
:101CD000160000000A0A160000000508151600008C
:101CE000050F0816000000000000000000000000C2
:101CF00000000F05160000000B16000000001D1666
:101D0000000000001908160000001D111600000058
:101D10001A08160000001D0F16000000160B08160A
:101D200000000F19081600000A0B16000000000042
:101D300000000000331600000000153316000000FC
:101D40001B081600000000000000000016331600FB
:101D500000000F3316000000070000000000150708
:101D6000000000001107000000001D070000000037
:101D7000130B16000000150F0700000016070000E7
:101D800000000F0700000000070A0000000000002C
:101D9000000000003305160000003305081516008A
:101DA00000000000000000000000000033131600D7
:101DB00000000000000000001716000000001517CA
:101DC00016000000111716000000000000000000BF
:101DD0000F1716000000170F1C0000001617160042
:101DE00000001516171600000E1600000000150E54
:101DF00016000000110E1600000000000000000098
:101E0000000000000000000000000000160E160098
:101E100000000F0E1600000006171600000000005C
:101E200000000000170C1211160000000000000056
:101E300000000000000000000000000000000000A2
:101E400000000F1316000000060E16000000000030
:101E50000000000005171600000005081517160001
:101E6000060E0F0816000000000000000000000031
:101E70000000000000000000170B160000001517FE
:101E80000B16000011170B1600001D170B16000093
:101E90000000000000000000000000000000000042
:101EA00000000000000000000A0B171600001D0EC5
:101EB00016000000110A170B160033081117160040
:101EC00000000000000000000000000007170B16D3
:101ED000000011330811171607160000000015073F
:101EE000160000001107160000001D071600000074
:101EF00013170B160000150F071600000000000056
:101F000000000F07160000000000000000000000A5
:101F100000000000000000000000000000000000C1
:101F2000000000000000000000000000331317163E
:101F30000000133308111716000000000000080805
:101F40000000000012120000000012080000000053
:101F50001414000000001408000000001412000017
:101F60000000141C000000001818000000001808F1
:101F70000000000018120000000008181200000005
:101F800018140000000008181400000012181400B3
:101F90000000181C000000000C0C000000000C08E1
:101FA000000000000C1200000000080C12000000ED
:101FB0000C1400000000080C14000000120C1400A7
:101FC00000000C1C000000000C1800000000080CB1
:101FD000180000000C121800000008120C18000075
:101FE000140C180000001C08000000001C12000067
:101FF00000000812140C1800000000000000080087
:1020000000000000120000000000081200000000A4
:10201000140000000000081400000000121400006A
:1020200000001C1400000000180000000000081848
:102030000000000012180000000008121800000044
:1020400014180000000008141800000012141800F2
:1020500000001C18000000000C0000000000080C2C
:1020600000000000120C0000000008120C0000002C
:10207000140C0000000008140C00000012140C00E6
:1020800000001C0C00000000180C000000000818E4
:102090000C00000012180C0000000812180C0000C0
:1020A00014180C000000081C00000000121C0000A6
:1020B0000000081214180C000000000000001100BD
:1020C000000000001500000000000F0000000000EC
:1020D0001D00000000003300000000001D1500007E
:1020E00000003315000000000B00000000001C0081
:1020F00000000000150B000000000F1C0000000095
:102100001D0B00000000331C000000000000000058
:1021100000000000000000000600000000001A009F
:1021200000000000061500000000060F000000007F
:102130001300000000001311000000001315000040
:102140000000130F00000000060B00000000061C3A
:1021500000000000060B1500000006151C00000022
:10216000130B00000000131C00000000130B1500EF
:102170000000130B0F000000170000000000190002
:10218000000000001715000000000400000000001F
:10219000171D000000000D000000000000000000FE
:1021A00000000D0815000000170B00000000171CB0
:1021B00000000000170B1500000017151C000000A0
:1021C0000E00000000000E11000000000E150000BF
:1021D00000000E0F000000000700000000000708CC
:1021E0001900000007150000000007080F0000009C
:1021F000071D000000000708330000000708150055
:102200000000000000000000090000000000071CA2
:1022100000000000091500000000090F0000000088
:10222000050000000000051C00000000051500006E
:102230000000050F00000000140000000000141151
:1022400000000000141500000000140F0000000042
:10225000141D000000001433000000000000000006
:102260000000140F0F000000140B00000000141CED
:10227000000000000000000000000000000000005E
:10228000141D0B0000000000000000000000000012
:102290000000000000000000140600000000141AF6
:1022A0000000000014061500000014060F000000D6
:1022B0001413000000001433330000001413150041
:1022C000000014130F00000014060B000000140699
:1022D000060000001406061500001406060F000094
:1022E00014130B00000000000000000014130B1575
:1022F0000000000000000000141700000000141986
:102300000000000014171500000014040000000075
:10231000141717000000140D000000001417171503
:10232000000000000000000014170B000000000077
:102330000000000014170B0F000000000000000058
:10234000140E0000000014060E1100000000000032
:102350000000000000000000140700000000140747
:102360001900000014071500000014060400000006
:1023700014070700000014073300000014070715B6
:1023800000001407070F00001409000000001409E2
:102390000900000014091500000014090F000000D6
:1023A00014050000000014051C00000014051500B1
:1023B000000014050F0000001600000000001611B8
:1023C00000000000160815000000160F00000000B5
:1023D000161D000000001633000000000000000081
:1023E0000000000000000000160B00000000161C9A
:1023F00000000000160B15000000160F1C00000066
:1024000000000000000000000000000000000000CC
:102410000000000000000000160600000000161674
:10242000000000001606150000000000000000007B
:102430001613000000000000000000001613150035
:10244000000016130F00000016060B00000000002D
:10245000000000000000000000000000000000007C
:1024600016130B00000016131C00000000000000F3
:102470000000000000000000161700000000161900
:1024800000000000161715000000160400000000F0
:102490001B00000000000000000000001B150000F1
:1024A00000001608151900000000000000001617B3
:1024B0001C0000000000000000001617151C0000A2
:1024C000160E000000001B1C0000000000000000B1
:1024D00000000000000000000A00000000000A11D7
:1024E000000000000A15000000000A0F00000000B4
:1024F0000A1D0000000000000000000000000000B5
:1025000000000000000000000A0B000000000A1C90
:1025100000000000000000000000000000000000BB
:1025200000000000000000000000000000000000AB
:10253000000000000000000014160000000014114C
:102540001100000014151500000014160F00000003
:10255000000000000000141633000000000000001E
:10256000000000000000000014160B00000014160C
:102570001C0000000000000000000000000000003F
:10258000000000000000000000000000000000004B
:1025900000000000000000001416060000001416E1
:1025A00016000000141606150000000000000000D0
:1025B0001416130000001413130000001413131555
:1025C00000001413130F00000000000000000000C2
:1025D00000000000000000000000000000000000FB
:1025E0001416130B00001416130B1C00000000003F
:1025F00000000000000000001416170000000C117D
:10260000190000000C150000000014160400000062
:10261000141B00000000000000000000000000008B
:1026200000000000000000001416170B00000C1141
:10263000170000000C15150000000C1117081500FC
:1026400014160E0000000000000000000000000052
:102650000000000000000000140A00000000140A3E
:1026600011000000140A15000000140A0F000000F9
:10267000140A0A00000014070D000000140A0A15CD
:102680000000140A0A0F0000140A0B0000001409CD
:10269000170000001409091500001409090F0000B3
:1026A00014050500000000000000000014050515D9
:1026B00000000000000000001603450072006700E3
:1026C0006F0044006F007800200045005A000000B1
:1026D00016034500720067006F0044006F00780029
:1026E000200045005A0000000403090409025400B8
:1026F000030100A0FA0904000001030101000921FF
:10270000110100012240000705810308000A0904A5
:10271000010001030000000921110100012236001F
:102720000705820308000A090402000103000000F3
:10273000092111010001223900070583032000014E
:102740001201100100000008EDFE07130100010254
:10275000000105010906A101050719E029E7150097
:1027600025019508750181020508190129059505BE
:10277000750191029501750391010507190029F76B
:102780001500250195F875018102C005010980A198
:102790000185021601002603001A81002A830075B4
:1027A0001095018100C0050C0901A10185031601E6
:1027B00000269C021A01002A9C02751095018100D6
:1027C000C005010906A101050719E029E715002543
:1027D00001950875018102950175088101050819A7
:1027E0000129059505750191029501750391010572
:1027F00007190029FF150026FF00950675088100BE
:10280000C00011241FBECFEFDAE0DEBFCDBF04B69B
:1028100003FE24C08091130990911409A091150919
:10282000B09116098730904BA740B04BB9F4109285
:10283000130910921409109215091092160914BE6A
:1028400084B7877F84BF88E10FB6F89480936000D7
:10285000109260000FBEE0E0FFE3099512E0A0E0F7
:10286000B1E0E8E8FAE602C005900D92A832B1079F
:10287000D9F719E0A8E2B2E001C01D92A331B10777
:10288000E1F70E94AC2F0C9442350C94000010929A
:10289000B9008AE08093B800089594EA9093BC0050
:1028A0009091BC0097FFFCCF9091B900987F983031
:1028B00021F0903111F081E008958093BB0084E80D
:1028C0008093BC008091BC0087FFFCCF8091B90051
:1028D000887F883111F0803471F780E0089584E9B1
:1028E0008093BC008091BC0084FDFCCF0895809350
:1028F000BB0084E88093BC008091BC0087FFFCCFC4
:102900009091B900987F81E0983209F480E00895B1
:1029100084E88093BC008091BC0087FFFCCF80914D
:10292000BB00089580B38C7080BB81B3836F81BB83
:10293000089580912B01811115C080E40E944D14EF
:1029400080932B0181110CC082E10E947714809347
:102950002B01811105C08FEF0E94771480932B010A
:102960000E946F1484B1807F84B985B1807F85B95E
:102970008AB1837F8AB98BB1837F8BB93E984698A1
:10298000089508950C940D1B0E94831F80932B01C2
:102990000E9499140E949214E7E3F2E0A9E2B2E0E7
:1029A00011921D9282E0E534F807D1F70C948C1C4B
:1029B0000E94831F80932B010E9499140E949214FD
:1029C000E7E3F2E0A9E2B2E011921D9282E0E53481
:1029D000F807D1F708958F929F92BF92CF92DF921E
:1029E000EF92FF920F931F93CF93DF931F92CDB778
:1029F000DEB780912B01882379F0809128028F5FC8
:102A000080932802811108C00E94831F80932B01AC
:102A1000811102C00E94151F09E212E0812C912C45
:102A2000EE24E394F12CDD24D39495E0C92E282DD7
:102A3000273030F580912B01811142C080E48982DA
:102A40000E944D1480932B012981811114C082E1D1
:102A50000E94771480932B01298181110CC0C7013A
:102A6000082C01C0880F0A94EAF780950E94771419
:102A700080932B01298129830E946F14298120C012
:102A80002A30A1F028F4283059F0293061F005C02F
:102A90002C3089F070F02D3089F0209A289810C0E1
:102AA000219A29980DC0229A2A980AC0239A2B9815
:102AB00007C0529A01C0539A5B9802C03E9A46984A
:102AC00030EA3A95F1F7273018F580912B01811102
:102AD00044C080E40E944D1480932B01882311F0A0
:102AE000B12C12C083E10E94771480932B018111D5
:102AF000F7CF81E40E944D1480932B018111F0CF18
:102B00000E948814B82EB0940E946F148B2D26C09A
:102B10008FB181708D25799B02C090E001C092E059
:102B2000892B7C9B02C090E001C094E0892B7D9BA7
:102B300002C090E001C098E0892B7E9B02C090E02B
:102B400001C090E1892B9FB19095991F9927991FFA
:102B50009295990F907E892B01C080E0F8019081B9
:102B6000981719F08083C09200010E949914FFEF1A
:102B70008F1A9F0A0F5F1F4F3EE08316910409F0E2
:102B800056CF809100018823A1F0815080930001ED
:102B9000882329F085E08A95F1F700000AC0A7E3B1
:102BA000B2E0E9E2F2E081918D9332E0E733F3079E
:102BB000D1F70E948E1C81E00F90DF91CF911F9181
:102BC0000F91FF90EF90DF90CF90BF909F908F90EC
:102BD0000895E82FF0E0E95CFD4F808108950895A5
:102BE00010926C07EDE6F7E01082128211823396A4
:102BF00088E0ED32F807C1F7089590916C07292F0E
:102C000030E0F901EE0FFF1FE20FF31FE359F84F19
:102C10008083728361839F5F90936C070895262F52
:102C200030E0FC017081A72FA770EA2FF0E0E630BA
:102C3000F1059CF5662389F1EE0FFF1F3196E80F31
:102C4000F91F40814F70E1F46F709081907F962B57
:102C5000292F22952F703181832F83708295807F59
:102C6000822B8F5F282F2F738295807F9F70982BE8
:102C7000908322952F70832F8C7F822B81830895E0
:102C800050E04217530701F351E05A0F5770472F96
:102C9000487F452BFC014083C4CF0895CF936D340A
:102CA00081F018F4683239F004C0603531F06235D3
:102CB00031F0C1E007C0C4E005C0C2E003C0C3E01A
:102CC00001C0C0E06C2F0E940F168C2FCF91089589
:102CD00020E030E050E0F901EE0FFF1FE80FF91F90
:102CE000DF0111967181472F4F7046130AC072950C
:102CF0007F7011964C9143704295407F472B540F43
:102D000002C0442329F02F5F3F4F2630310519F7C9
:102D1000852F08958091680790916907A0916A07AF
:102D2000B0916B07892B8A2B8B2B69F481E0409142
:102D30006407509165076091660770916707452B9E
:102D4000462B472B09F080E0817008950F931F9365
:102D5000CF93DF931F92CDB7DEB7182F69830E9400
:102D6000F92B082F812F0E94092C6981862F0E9440
:102D70005522802F0F90DF91CF911F910F910C94CE
:102D8000092C803141F09CEF980F9A3110F481E0CA
:102D900008958333E1F380E008952F923F924F929C
:102DA0005F926F927F928F929F92AF92BF92CF92DB
:102DB000DF92EF92FF920F931F93CF93DF93CDB7E4
:102DC000DEB72F970FB6F894DEBF0FBECDBF0E94BF
:102DD000F0150E94F92B8D8782E10E94022C8091D0
:102DE000F208887F8093F20880E090E0FC01EE0F0B
:102DF000FF1FED50F74F108221812C7F2183019618
:102E00008630910599F780915B0740905F07282FE6
:102E10002170622E982F92709E8782FB552450F865
:102E200020915C072C87222321F077247394223091
:102E300009F0712C53E0C52E51E0D52E6AE5262EFF
:102E400067E0362E00E010E021E02B87F101819150
:102E50001F01882309F49CC021E02B870130110554
:102E600009F01B86F60120813181F801E35AFE4FFB
:102E700090810530110529F4662091F028E33FE1A7
:102E80000FC00430110529F441100AC061109BC223
:102E900007C00630110521F4411002C06110A2C222
:102EA0002115310509F474C09230D9F1933009F439
:102EB00090C2913009F06CC04901F6E08F9F800C00
:102EC000911C1124E12CF12CF401EE0DFF1D9491C5
:102ED000992309F45DC0A92EB12CB50181E09F872B
:102EE0000E94FD159F85943039F4442029F068E153
:102EF00070E081E00E94FD152E85222351F00630FE
:102F0000110539F4E114F10421F4B50181E00E94C6
:102F1000FD156FEFE61AF60A86E0E816F104A1F651
:102F200037C0490196E0899F800C911C1124E12C47
:102F3000F12CF401EE0DFF1D659174916115710581
:102F400039F1CB01805D9C45079728F4709302010D
:102F50006093010103C082E00E94FD15E2E0EE0EE5
:102F6000F11CF6E0EF16F10421F712C083E00E9495
:102F7000FD1522E0E20EF11C68E0E616F10441F0D6
:102F8000F401EE0DFF1D659174916115710571F7E6
:102F90000F5F1F4F82E0C80ED11C0A30110509F0E7
:102FA00055CF80916C07811105C0552009F44CC0A4
:102FB00061104AC0E0910101F0910201E05DFC4521
:102FC000E730F10568F4EA5AFF4F0C94063505E244
:102FD00010E01EC003E210E01BC077247394752438
:102FE00000E010E015C082E00E94FC2B0CE210E033
:102FF0000BC082E00E94FC2B05E210E005C082E0DD
:103000000E94FC2B03E210E0712C02C00CE210E0E5
:1030100020916C07222379F080916E0790916F07C1
:103020008A34910589F020F48897029720F40CC027
:103030008D34910549F00115110531F0552009F441
:10304000B5C1222309F4B0C1711003C02C8522231D
:1030500019F082E00E94FC2B812C912C3AE0432E47
:10306000CE0101967C0140E5C42ED12C1E019BE0CF
:10307000290E311C80916C07881608F09FC0882D9E
:1030800090E08C01000F111F080F191F0359184FF2
:10309000F8018081823091F0833069F1813009F04C
:1030A00083C081810E945522F80181810E941D23E5
:1030B00061E082EF98E00E940F161BC0F801B1801A
:1030C00012818B2D0E94C116882321F08B2D0E9426
:1030D000552204C06B2D812F0E94A6168B2D0E94B5
:1030E0001D236B2D82EF98E00E944E16813009F06F
:1030F0005BC0939459C0F701242D11922A95E9F7EA
:10310000F80101811281083DFCE51F0791F0093D9E
:103110002CE5120799F0073D6CE51607E1F480E510
:1031200093E09A838983EAE2F0E0FC83EB83570122
:1031300034C0DA82C982DC82CB82F9CF82E590E0AA
:103140009A838983EDE4F0E0FC83EB8388E290E0EE
:103150009E838D83ECCF602F812F0E94A616802F37
:103160000E941D23602F82EF98E00E944E1681304E
:10317000F1F69394DCCF602F812F0E94A616802F4A
:103180000E941D23602F82EF98E00E944E1681302E
:1031900009F49394A214B30439F0F501019111914B
:1031A0005F010115110539F7772031F0F1E09F1229
:1031B00003C082E00E94022C83945CCF8091F308CC
:1031C0008F70C9F080914502843611F41092450247
:1031D0003091450281E0830F809345022DE0320358
:1031E000D0011124AA5BBD4FE2EFF8E001900D92EF
:1031F0002A95E1F7CEC0662009F4CBC07090450255
:103200007A9477FE02C0B3E67B2E272D6DE026026E
:10321000800111240A5B1D4FF80181818F7009F430
:10322000B0C0552009F441C08AE20E9455228AE2CA
:103230000E941D23F8012081277080E090E030E09B
:10324000F901E81BF90BEE0FFF1FE00FF11FDF0183
:1032500011964181542F5F705130C9F442954F70DF
:1032600011962C911197822F83708295807F842BE9
:10327000815C982F9F738295807F81608C9392955B
:103280009F70822F8C7F892B11968C9307C001969B
:10329000A901481B590B4F3F5F4F91F661E0C801F0
:1032A0000E946816811175C069C02B85222309F41C
:1032B00070C0F80180818770A82EB12C7501EE0CCA
:1032C000FF1CE00EF11E00E010E0FFEFEF1AFF0A16
:1032D000C801880F991F4701881A990AC12CD12C5F
:1032E000F4018081982F92959F70218123702295FF
:1032F000207F292B30E0C216D306C4F58F7090E0F2
:103300008230910521F13CF4019761F58AE20E9437
:1033100055228AE225C083309105F1F0049711F51A
:1033200081EE0E94552282E50E94552282E50E948C
:103330001D238DE40E9455228DE40E941D2381EE01
:103340000E941D238CE40E9455228CE409C08FE466
:103350000E9455228FE404C081E50E94552281E538
:103360000E941D232FEFC21AD20ABACF0F5F1F4F40
:10337000C501801B910B019609F0AACF70924502FE
:1033800008C0552031F08AE20E9455228AE20E944C
:103390001D238D850E94092CEAE5F7E0119227E0B4
:1033A000E436F207D9F721C061104ECE602F80E0DD
:1033B0000E94A616802F0E941D2361E082EF98E0F4
:1033C0000E940F1641CE28E03EE02115310509F498
:1033D000DFCD490168E0869F800C911C1124E12C0F
:1033E000F12CCECD28E036E0F0CF2F960FB6F89432
:1033F000DEBF0FBECDBFDF91CF911F910F91FF9028
:10340000EF90DF90CF90BF90AF909F908F907F9084
:103410006F905F904F903F902F9008954F925F92E2
:103420006F927F929F92AF92BF92CF92DF92EF9274
:10343000FF920F931F93CF93DF938B018D3C2CE56D
:10344000920709F48AC020F48C3C9C4559F0D3C003
:103450008E3CECE59E0709F499C08F3C9C4509F42D
:10346000B1C0C9C0DB018C911196EC91B6E0EB9F25
:10347000F0011124E80FF11DEE0FFF1FEE0FFF1FEB
:10348000E056FB4F85919591A591B491B7FF76C019
:103490009C012F703327C12CD12C7601C39404C01A
:1034A000CC0CDD1CEE1CFF1C2A95D2F7D4E0B6959F
:1034B000A79597958795DA95D1F7E82FEF709E2E0F
:1034C000AE2EB12CD501A959BE4FF501EE0FFF1F4D
:1034D000E95EFE4FC081D181FB01128126013701D7
:1034E0000C9004C0440C551C661C771C0A94D2F73F
:1034F0001123C9F0F2E09F1203C081EE0E94552211
:1035000088819981AA81BB8184299529A629B72917
:1035100088839983AA83BB83F501E65AF84F80819B
:103520008C2980832BC0409450946094709448817F
:1035300059816A817B814421552166217721488305
:1035400059836A837B830E948A1681110E94CD165B
:1035500022E0921213C081EE32C0DB0111968C91F1
:10356000811102C081EE01C085EEF80112811123A4
:1035700039F00E94552282E00E946C2A10E03CC083
:103580000E941D2382E00E94872A36C0DB016D91D4
:103590007C9180E00E94A61C62E170E00E94F234FF
:1035A000FC01EE0FFF1FE75CFE4F60818181F80197
:1035B0001281112319F00E94A616E0CF862F0E94D7
:1035C0001D231AC0DB0112968C9112978823B1F249
:1035D0006D917C9180E00E94A61CC82F8FE20E9412
:1035E00055228FE20E941D238C2F0E9455228C2F82
:1035F0000E941D23C3CF11E0812FDF91CF911F9136
:103600000F91FF90EF90DF90CF90BF90AF909F9081
:103610007F906F905F904F9008956091A008709197
:10362000A1088091A2089091A3080E94772C259868
:103630002D9826982E9827982F98813029F084303D
:1036400029F4269A2E9A02C0259A2D9A0E948A164B
:10365000811102C0279A2F9A089581E008950C9451
:103660000E1A0E940C262FEF84E39CE0215080402C
:103670009040E1F700C000000C94D22D0F931F93EF
:10368000CF93DF938C01FC01C081D181CE010E94D8
:10369000F82ABE010E94A61CEC01B8010E942F1B53
:1036A000882309F433C1B801CE010E94C91E8823C2
:1036B00009F42CC1B801CE010E94D21F882309F45D
:1036C00025C1C531FCE5DF0708F0A3C0C2308CE599
:1036D000D80708F478C0F8018281882309F47FC0F4
:1036E0000E94E42C811102C00E94CA2C0E94F72C77
:1036F00090E09093050980930409FE01E350FC4596
:10370000E231F10520F4E35AFF4F0C940635809125
:103710000409816003C080910409826080930409D8
:103720004BC0809104098460F9CF8091040913C0D3
:10373000809104098061F2CF809104098062EECF0C
:10374000809104098064EACF809104098068E6CF03
:103750008091040984608860E1CF809104098E7FA4
:10376000DDCF809104098D7FD9CF809104098B7FB3
:10377000D5CF8091040913C0809104098F7ECECFEC
:10378000809104098F7DCACF809104098F7BC6CFB9
:10379000809104098F77C2CF809104098B7F877F46
:1037A000BDCF9091040997FB882780F921E08227FB
:1037B00080FB97F990930409809104090E94FB2CE7
:1037C0000E940C26A3C0C115ECE5DE0779F0C130DC
:1037D000DC45A1F081E08093310880933208C80174
:1037E000DF91CF911F910F910C942D1BF8018281D5
:1037F000882309F48BC00E94311B88C0F8018281A4
:10380000882309F483C08091CD0881608093CD081E
:103810007DC0C73C8CE5D80781F5F80182818823FB
:1038200061F0109232080E94772D909330088093B7
:103830002F0880E20E946C2369C00E94F92B81FF4F
:1038400005C081E08093310880933208809132086E
:1038500081110FC080912F08909130080E94832D14
:10386000883C910530F487E20E94552287E20E944D
:103870001D2380E20E94732349C0C83CECE5DE07AB
:1038800080F5C63CDC4509F0A5CFF801828188238C
:1038900051F0109231080E94772D90932E0880935A
:1038A0002D0882E0C7CF0E94F92B85FF05C081E07B
:1038B00080933108809332088091310881110FC0C4
:1038C00080912D0890912E080E94832D883C9105AF
:1038D00030F486E20E94552286E20E941D2382E097
:1038E000C9CFCA3C8CE5D80731F4F801828188231E
:1038F00069F080E009C0CB3CDC4509F06BCFF801F2
:103900008281882319F082E00E943E3080E0DF91BE
:10391000CF911F910F9108950C946D1F0C94C214B8
:10392000282F882339F090E02A3010F44D9608951E
:103930000697089587E290E0089508950C949D1CE1
:103940000C949E1C80E090E00895089596E0799F85
:10395000F001112494E5899FE00DF11D1124E60F7B
:10396000F11DEE0FFF1FE85AFE4F859194910895C7
:10397000880F991F885A9E4FFC0185919491089554
:103980000E94A61C0E944C1E811520E49207B0F5EF
:10399000811540E3940708F0DBC0803E9105D8F420
:1039A000803C910508F069C0883A910578F4853A21
:1039B000910508F065C08130910509F46CC108F4E7
:1039C00023C18430910508F066C11EC18D3B91056D
:1039D00008F461C019C18F3F910509F048F4803F98
:1039E000910508F0AFC0883E910508F454C10CC1A0
:1039F000811520E2920708F0A7C00895811544E5DB
:103A00009407D8F4811523E5920708F0DCC08115EE
:103A100041E5940740F4811520E5920708F0A2C023
:103A20009F70906A0895811542E5940708F0B6C02A
:103A3000982F8827816F906A0895811526E592074F
:103A400050F4811545E5940708F0D2C0982F8827D7
:103A5000846F906A0895811528E5920708F4D4C010
:103A6000811549E5940708F4C8C09C01305621151A
:103A7000304208F0C9C09F71C5C0805C910965C023
:103A8000853A910509F4C3C0863A910509F4C2C08C
:103A900083E890E40895883A910509F4BEC0893A14
:103AA000910509F4BDC08A3A910509F4BCC08B3A6E
:103AB000910509F4BBC08C3A910509F4BAC08B3B5F
:103AC000910509F4B9C08C3B910509F4B8C08D3A51
:103AD000910509F4B7C0803B910509F4B6C08E3A50
:103AE000910509F4B5C08F3A910509F4B4C0813B42
:103AF000910509F4B3C0823B910509F4B2C0833B40
:103B0000910509F4B1C0843B910509F4B0C0853B2F
:103B1000910509F4AFC0863B910509F4AEC0873B1F
:103B2000910509F4ADC0883B910509F4ACC0893B0F
:103B3000910509F4ABC08A3B910509F0AAC08AE25D
:103B400096E40895906508959F700E94B81C0895AA
:103B50009C01332793FF03C0C901986C0895C901E4
:103B6000906C0895482F437021E030E002C0220F8E
:103B7000331F4A95E2F73C68AC0174E056954795CF
:103B80007A95E1F74370342B8F708695869540E2E5
:103B9000849FC0011124822B932B0895282F2695F2
:103BA000269540E2249F90011124AC0143705527D3
:103BB00081E090E002C0880F991F4A95E2F7822BBE
:103BC000932B9C680895282F2695269540E2249FE4
:103BD00090011124AC014370552781E090E002C0B0
:103BE000880F991F4A95E2F7822B932B9A680895C4
:103BF0008F719927982F882705C0982F8827806F65
:103C0000906A08959062089580E090E0089581E8B8
:103C100090E4089582E890E4089582EE94E4089593
:103C200089EE94E408958AEE94E4089585EB94E493
:103C3000089586EB94E4089583EB94E4089584EB6F
:103C400094E4089587EB94E408958CEC94E408954B
:103C50008DEC94E4089583E895E408958AE895E46A
:103C6000089582E995E4089584E995E4089581E250
:103C700096E4089583E296E4089584E296E4089534
:103C800085E296E4089586E296E4089587E296E454
:103C9000089580E094E408958238910549F1B0F4E4
:103CA0008133910509F459C048F48932910509F42A
:103CB0004FC08A32910509F455C0089585339105A6
:103CC00009F441C08933910599F00895833E910527
:103CD00031F138F4803E910591F0823E9105A9F0D2
:103CE0000895863E910501F1873E910539F10895C9
:103CF0002091040920FD3BC021FD39C00895809129
:103D0000040980FF34C089E341C08091040982FF27
:103D100032C08091040984FF2CC080E037C08091BC
:103D2000040982FD28C0F5CF8091040983FF25C0D6
:103D30008091040984FDF1CF87EE28C080910409A9
:103D400083FD1BC0F5CF8091040985FF18C019C001
:103D50008091040985FF15C012C08091040986FF77
:103D600012C013C08091040986FF0FC00CC080EE02
:103D70000DC083EE0BC082EE09C086EE07C085E35E
:103D800005C089E203C081E301C08AE290E00895A2
:103D90000895CF93DF93EC01FB018281811102C072
:103DA00081E040C080914008811125C0C531DC45CB
:103DB000B9F70E94C81E81E0809340080E94772DC9
:103DC00090933F0880933E08109233081092350874
:103DD0001092340810923708109236081092390861
:103DE0001092380810923B0810923A0810923D0841
:103DF00010923C0816C080913E0890913F080E94A6
:103E0000832D883C910560F680913308E82FF0E01F
:103E1000EE0FFF1FEC5CF74FD183C0838F5F809361
:103E2000330880E0DF91CF91089556985E982598E9
:103E30002D9826982E9827982F988FEF90E09093A2
:103E400089008093880090938B0080938A009093E0
:103E50008D0080938C00259A2D9A2FEF80E792E0B9
:103E6000215080409040E1F700C00000269A2E9A31
:103E70002FEF80E792E0215080409040E1F700C0B2
:103E80000000279A2F9A2FEF80E792E02150804080
:103E90009040E1F700C0000025982D982FEF80E7B3
:103EA00092E0215080409040E1F700C00000269849
:103EB0002E982FEF80E792E0215080409040E1F76C
:103EC00000C0000027982F9856985E9825982D9846
:103ED00026982E9827982F98089589EA8093800035
:103EE00089E08093810024982C983F988AB18F7C38
:103EF0008AB96E98479A8BB180638BB9769A0E9483
:103F0000151F0C94C11480E280932B01809141080D
:103F100081110EC00E94471481E0809341082FEF69
:103F200083ED90E3215080409040E1F700C0000015
:103F300080E40E944D1480932B0181112EC00E94B9
:103F4000771480932B01811128C00E9477148093ED
:103F50002B01811122C08FE30E94771480932B01E3
:103F600081111BC00E946F1480E40E944D14809345
:103F70002B01811112C08CE00E94771480932B01D9
:103F800081110BC00E94771480932B01811105C011
:103F90008FE30E94771480932B010E946F1480910D
:103FA0002B010895CF93DF93EC01C13080E8D8074F
:103FB000C8F0FB0182818823A9F080914208811119
:103FC00009C08CE090E00E940C350E94F61F81E051
:103FD000809342080E94FD1FCE019F770E94BB2064
:103FE0000E94732081E0DF91CF9108958093430870
:103FF000682F8CE090E00C941A35E0912C01F09140
:104000002D0180818093FF0881FF03C081EE0E9413
:104010001D238091FF0885FF03C085EE0E941D23AC
:104020008091FF0880FF03C080EE0E941D238091D5
:10403000FF0884FF03C084EE0E941D238091FF08C7
:1040400082FF03C082EE0E941D238091FF0886FF3D
:1040500003C086EE0E941D238091FF0883FF03C0EA
:1040600083EE0E941D238091FF0887FF03C087EE27
:104070000E941D23809143088130A1F078F08230A6
:1040800011F1843049F586EE0E94552286EE0E9499
:104090001D2388E10E94552288E11CC082EE0E9407
:1040A00055221AC080EE0E94552281EE0E945522B0
:1040B00088E10E94552288E10E941D2381EE0E9422
:1040C0001D2380EE07C082EE0E94552287E50E94E4
:1040D000552287E50E941D238FE39CE90197F1F7A4
:1040E00000C00000089580914308813029F010F04D
:1040F000823041F482EE04C08CE20E9455228CE2B0
:104100000E941D238091FF0881FF03C081EE0E9461
:1041100055228091FF0885FF03C085EE0E9455223D
:104120008091FF0880FF03C080EE0E94552280919D
:10413000FF0884FF03C084EE0E9455228091FF088F
:1041400082FF03C082EE0E9455228091FF0886FF05
:1041500003C086EE0E9455228091FF0883FF03C0B2
:1041600083EE0E9455228091FF0887FF03C087EEEF
:104170000C9455220895FF920F931F93CF93DF93D2
:104180008C01CCE0D0E0C8010C2E02C0969587953A
:104190000A94E2F7282F2F70F22E822F0E94901C93
:1041A0000E9455228F2D0E94901C0E941D2324974F
:1041B000CC3F8FEFD80739F7DF91CF911F910F9147
:1041C000FF90089590934908809348080895E091DE
:1041D0004808F0914908309721F00190F081E02DD6
:1041E000099480E00895E0914808F09149083097DB
:1041F00021F00280F381E02D099408952091460872
:10420000309147088217930771F090934708809385
:104210004608E0914808F0914908309721F006805F
:10422000F781E02D099408952091440830914508C4
:104230008217930771F09093450880934408E091AA
:104240004808F0914908309721F00084F185E02D6D
:104250000994089508950C942A210E946E2D0E94BD
:10426000C4140E94F52DE4E0F9E080818068808329
:104270000895CF92DF92EF92FF920F931F93CF9307
:10428000DF93CDB7DEB72B970FB6F894DEBF0FBE26
:10429000CDBF0E94EB143BE4E32E38E0F32E00E0A8
:1042A00010E0C02E802F0E94E915F701D1907F0108
:1042B000D826B1F40F5F1F4F0E30110591F78FEF25
:1042C00089838A831B820E94772D8160782F9D834A
:1042D0008C8349815A816B818D810E94162241C055
:1042E0009091CD0891FF04C08B870E94EF158B85BC
:1042F00020E030E04D2D50E0922FBA01022E02C096
:10430000759567950A94E2F760FF25C02E83CF82EA
:10431000EE24E394F12C02C0EE0CFF1C9A95E2F718
:1043200090E08E219F2121E0892B09F420E028874D
:104330000E94772D8160782F9A8789874E815F81CF
:1043400068858A850E941622F801E55BF74F808117
:104350008E25808306C02F5F3F4F2630310561F6E2
:10436000A9CF10914A080E94E7201817A1F00E94D7
:10437000E72080934A082B960FB6F894DEBF0FBE55
:10438000CDBFDF91CF911F910F91FF90EF90DF9004
:10439000CF900C94A01C2B960FB6F894DEBF0FBEE6
:1043A000CDBFDF91CF911F910F91FF90EF90DF90E4
:1043B000CF900895DC0111964C9111975C91852F57
:1043C00090E021E030E001C0220F5A95EAF7129602
:1043D0006C91129750E0662319F06091670805C050
:1043E000FA01E75AF74F608162236623B9F036E09D
:1043F000349FF001359FF00D1124E80FF91FEE0FE7
:10440000FF1FEF58FE4F808191818D939C93FA019D
:10441000E75AF74F8081822B80830895FA01E75A8B
:10442000F74F20958081282320830895CF93DF9331
:10443000CDB7DEB72B970FB6F894DEBF0FBECDBF5A
:104440004F83588769877A878B878A859B85892BD5
:1044500031F05F3F11F080E003C04F3FE1F781E0B2
:10446000811104C0CE0107960E94DA21DE01119667
:1044700086E0FD0111928A95E9F785E0FE01379605
:1044800001900D928A95E1F749815A816B817C8177
:104490008D819E810E94D6282B960FB6F894DEBFA0
:1044A0000FBECDBFDF91CF910895882309F4C4C01A
:1044B000823859F40E94E72081FDBEC089E30E9442
:1044C000782B0E94482C89E30CC0833871F40E9439
:1044D000E72080FDB1C083E50E94782B0E94482C24
:1044E00083E50E94B82B0C94482C843859F40E9420
:1044F000E72082FDA1C087E40E94782B0E94482C0F
:1045000087E4EFCF9CEF980F913A18F40E94782B34
:10451000EACF90E2980F983050F4877091E001C094
:10452000990F8A95EAF7892F0E94FC2BDCCF9BE537
:10453000980F933070F4853A29F0863A31F482E886
:1045400090E005C081E890E002C083E890E00C9420
:10455000FE2098E5980F953108F06EC0883A61F119
:10456000893A69F18A3A71F18B3A79F18C3A81F1A1
:104570008B3B89F18C3B91F18D3A99F1803BA1F114
:104580008E3AA9F18F3AB1F1813BB9F1823BC1F189
:10459000833BC9F1843BD1F1853BD9F1863BE1F105
:1045A000873BE9F1883BF1F1893BF9F18A3B09F05E
:1045B0003FC08AE292E03EC082EE90E03BC089EECE
:1045C00090E038C08AEE90E035C085EB90E032C0D4
:1045D00086EB90E02FC083EB90E02CC084EB90E062
:1045E00029C087EB90E026C08CEC90E023C08DECD6
:1045F00090E020C083E891E01DC08AE891E01AC0F5
:1046000082E991E017C084E991E014C081E292E070
:1046100011C083E292E00EC084E292E00BC085E21A
:1046200092E008C086E292E005C087E292E002C014
:1046300080E090E00C9414210895882309F44BC085
:10464000823859F40E94E72081FF45C089E30E9427
:10465000782B0E94482C89E30CC0833871F40E94A7
:10466000E72080FF38C083E50E94782B0E94482C09
:1046700083E50E94B82B0C94482C843859F40E948E
:10468000E72082FF28C087E40E94782B0E94482CF4
:1046900087E4EFCF9CEF980F913A58F390E2980F90
:1046A000983050F4877091E001C0990F8A95EAF72D
:1046B000892F0E94022CDFCF9BE5980F933020F4C6
:1046C00080E090E00C94FE20885A853120F480E050
:1046D00090E00C9414210895882321F00E94FC2B73
:1046E0000C94482C0895882321F00E94022C0C94ED
:1046F000482C08958F929F92BF92CF92DF92EF92B3
:10470000FF920F931F93CF93DF9300D0CDB7DEB707
:104710004C01472FFC01E580E2949FE0E922F28002
:10472000FF2031F079836A830E941C2C6A814981C1
:1047300049836A830E94712B49816A81882389F0A9
:10474000FF2079F080E2860F883058F082E00E94E6
:104750005A2B0E94712BBB24B394B82649816A81DD
:1047600001C0B12CE42FE295EF70F0E0E159FF4F6A
:104770000C940635842F807F142F1F70882311F02E
:104780001295107FFF20C1F0112309F48DC180E242
:10479000860F883010F0611105C0812F6A830E9456
:1047A000FC2B04C0812F6A830E940F2C6A816A83CC
:1047B0000E94482C6A8178C1862F6A830E941D233B
:1047C0006A81112309F4BEC180E2860F883010F09F
:1047D000611104C0812F0E94022C03C0812F0E940E
:1047E000152C0E94482CAEC1242F207F842F8F705F
:1047F000203211F08295807F662319F06130B9F084
:1048000020C0FF2049F0EE2009F404C1F1E0EF12CE
:1048100001C10E942F2C96C1EE2021F091E0E916F3
:1048200009F490C189830E94322C8981F9C0FF204C
:1048300029F0E1E0EE1508F485C1ECC0E11082C179
:10484000EFC0FF2021F0EE2009F4E4C02DC1EE20DE
:1048500009F4E6C02FC1242F26952695237030E059
:104860002115310521F02130310561F06BC1FF20A8
:1048700021F0862F942F937002C080E090E00E9478
:10488000FE2060C1FF2021F0862F942F937002C07C
:1048900080E090E00E94142155C1842F837009F0BC
:1048A0004EC0F1104FC1262F229526952770220F5A
:1048B000220F862F8F70C82ED12CE12CF12C022EC6
:1048C00004C0CC0CDD1CEE1CFF1C0A94D2F764FF64
:1048D00010C06FE070E080E090E004C0660F771FCA
:1048E000881F991F2A95D2F76095709580959095AD
:1048F00003C060E070E0CB01242F2695269523703D
:1049000030E02230310569F02330310589F06C291F
:104910007D298E299F292130310571F00E94272A97
:1049200011C16C297D298E299F290E94392A0AC12B
:104930000E94272AC701B6010E94152A03C1FF2041
:1049400019F0842F817001C08695882309F4FAC07C
:10495000262F229526952770220F220F862F8F70E3
:10496000C82ED12CE12CF12C022E04C0CC0CDD1C65
:10497000EE1CFF1C0A94D2F764FF10C06FE070E0D9
:1049800080E090E004C0660F771F881F991F2A956A
:10499000D2F7609570958095909503C060E070E0C7
:1049A000CB01242F26952695237030E02230310547
:1049B00069F02330310589F06C297D298E299F29E2
:1049C0002130310571F00E94D32ABCC06C297D29A9
:1049D0008E299F290E94E52AB5C00E94D32AC701CB
:1049E000B6010E94C12AAEC0062F10E0F801E05EB9
:1049F000F109E531F10508F053C0E158FF4F0C947F
:104A00000635162F1F70842F8F71FF2031F00E9402
:104A10006C2A812F0E946C2395C00E94872A812FC7
:104A20000E9473238FC0FF2039F0E1108BC0842FC8
:104A30008F710E94A62A86C0F1E0FE1508F482C09C
:104A4000F6CFFF2039F0842F8F710E946C2A7AC034
:104A5000FF20C9F3842F8F710E94872A73C0FF2023
:104A600029F0842F8F710E945D2A6CC00E94582A01
:104A700069C0FF2051F0142F1F71812F0E946C2AF2
:104A800063E0812F0E94512B5DC081E00E945A2B70
:104A900081E08E1508F056C082E00E945A2B52C069
:104AA000FF2031F0EE2079F2862F0E9455224AC075
:104AB000EE2081F2862F0E941D2344C04F70C40156
:104AC0000E94A21C0E9483293DC0623FA9F128F4E4
:104AD000603F49F0613FE1F020C0643FA1F050F039
:104AE000653F69F01AC0FF2049F18091670821E015
:104AF000822702C081E08F25809367081FC0F110D4
:104B00001DC081E0F9CFF11019C01092670816C0DE
:104B1000EE2091F0F11012C0E8CFEE2069F0862F60
:104B200049836A83FF2019F00E94552202C00E9427
:104B30001D2349816A8102C0F09267084F70C40149
:104B40000E94A51CBB20F1F00E944D2B80FD1AC0D5
:104B5000F40112820E94472B0E946C2AC4010E9419
:104B6000D0250E94472B0F900F90DF91CF911F917E
:104B70000F91FF90EF90DF90CF90BF909F908F901C
:104B80000C94872A0F900F90DF91CF911F910F9176
:104B9000FF90EF90DF90CF90BF909F908F900895FF
:104BA0000F931F93CF93DF93EC01288139818B8181
:104BB0009C81892B31F03F3F11F080E003C02F3FF3
:104BC000E1F781E0811113C0CE010E943E1B8823D2
:104BD00071F0688179818A810E94432B8C010E9447
:104BE000F72A0E94122AB801CE010E947A23DF918F
:104BF000CF911F910F9108950E941C2C0E942C2C84
:104C00000E94EB2B0E94482C80E090E00E94FE2046
:104C100080E090E00C9414210E940C2C0C94FC2554
:104C20000E94382BE92FE295EF70F0E03297EE30DA
:104C3000F105B8F4EC56FF4F0C940635803F59F05F
:104C400018F4803E70F407C0843F59F404C0803EDD
:104C500010F0813F31F481E0089593FB882780F9BB
:104C6000089580E00895CF93DF9300D000D01F9285
:104C7000CDB7DEB70F900F900F900F900F90DF9190
:104C8000CF910895CF93DF9300D000D000D0CDB75F
:104C9000DEB726960FB6F894DEBF0FBECDBFDF910C
:104CA000CF9108951F93CF93DF93C091680816E0CA
:104CB00080916908C81799F0D0E01C9FF0011D9FF2
:104CC000F00D1124E659F74F4081518162817381C3
:104CD000848195810E9442262196C770E9CFDF9199
:104CE000CF911F91089540919A0850919B0860912F
:104CF0009C0870919D0880919E0890919F080C944B
:104D00004226CF9380919F0882958F7009F05FC0F3
:104D100080919C08882309F45AC020916808A091CA
:104D2000690860919A0870919B0880919D08909104
:104D30009E0831E06F3F09F030E0B32FC6E02A173C
:104D400009F445C0009721F07F3F21F44B2F03C0A9
:104D500041E001C040E030E040FD35C0C29FF001BD
:104D6000C39FF00D1124E659F74F418174132BC0F6
:104D70004081641328C04281411125C04381548180
:104D80004817590710F441505109481B590B483C2A
:104D90005105C8F480919F088F70806180939F08AF
:104DA00086E0829FF001839FF00D1124E159F74FB7
:104DB00080818F70806180838AE998E00E94D0258D
:104DC000CF910C9452262F5F3F4F2770B8CFCF91D1
:104DD0000895CF92DF92EF92FF920F931F93CF939C
:104DE000DF93CDB7DEB762970FB6F894DEBF0FBE84
:104DF000CDBF8C0185E0F801DE011D9601900D927A
:104E00008A95E1F7D8014C9111965C911197129611
:104E10006C9112971396ED90FC90149770919A08EC
:104E2000E0919B0820919D0830919E082115310545
:104E300031F0EF3F31F481E07F3F19F403C081E0AE
:104E400001C080E0B82FB170CB2E80FD6CC1D09036
:104E50009C08DD2009F4F5C0F0919F08E216F306E6
:104E600038F0C701821B930B883C910548F09BC02A
:104E7000209530952E0D3F1D283C310508F093C03C
:104E80008F2F807F09F052C0E51314C0741312C035
:104E9000D62E61110FC0FF70F061F0939F080E9441
:104EA00073268AE998E00E94D02580919F08F80136
:104EB00085836CC1EF2831F05F3F31F481E04F3FD3
:104EC00019F403C081E001C080E080FD03C081E0EF
:104ED000862701C080E0F82FF170FF2E80FF1CC0F4
:104EE000809168082091690836E0821709F428C18A
:104EF00090E0389FF001399FF00D1124E659F74FEB
:104F00007181571306C07081471303C07281671304
:104F100003C001968770E9CFD62E662309F436C107
:104F200080919F08816080939F0853C0E51308C05B
:104F3000741306C0611104C0D8011596FC93AEC06D
:104F40004D875E878D859E856A8B0E9410266A89B3
:104F5000882329F1D62E662311F120919F08822FF4
:104F600082958F7090E002970CF460C080919A084F
:104F700090919B0898878F831986FB86EA862C87F9
:104F8000CE01079651C0E51731F14D875E878D85BB
:104F90009E856A8B0E9410266A8981112EC0C801E5
:104FA0000E94D025A4C08F2F807F69F77E2DF98ABB
:104FB000E88A89890E9433268AE998E00E94D025F0
:104FC000EAE9F8E086E0DF011D928A95E9F70E94A0
:104FD0007326D12CDBC07413D8CF6111D6CFD80182
:104FE0001596FC93C8010E94D025EAE9F8E086E016
:104FF000DF011D928A95E9F7C9C0D62E662379F2A2
:1050000020919F08822F82958F7090E0029774F014
:1050100080919A0890919B089A8389831B82FD82D4
:10502000EC822E83CE0101960E94D02586E0F80105
:10503000AAE9B8E001900D928A95E1F70E948126D5
:105040006FC0E216F30628F0C701821B930B9C0188
:1050500004C0209530952E0D3F1D283C310508F0E9
:1050600052C0D62E662309F49ACFE5132CC07413D0
:105070002AC080919F0880FD1DC0982F92959F7037
:10508000C9F0D80115968C9315979F3039F09F5F22
:105090009295907F8F70892B15968C93C8010E94F2
:1050A000D02586E0F801AAE9B8E001900D928A9532
:1050B000E1F736C086E0F801AAE9B8E001900D9268
:1050C0008A95E1F763C04D875E878D859E850E9436
:1050D0001026882379F086E0F801AAE9B8E001906B
:1050E0000D928A95E1F70E9481260E947326DD24A5
:1050F000D3944CC080919F08816080939F08C80121
:105100000E94D02543C07E2DF98AE88A89890E94B1
:105110003326EAE9F8E086E0DF011D928A95E9F797
:105120000E94732633C0662309F439CF4D875E870A
:105130008D859E850E941026882309F430CFCBCF21
:105140004D875E878D859E850E94382B292F22955D
:105150002F7030E0223031052CF49F7041F0811126
:1051600006C00CC0243031052CF49F7049F4805ED9
:10517000883020F0C8010E94D025CF2CDC2C06C03E
:10518000D80115969C91907F91F7F8CF8D2D62965E
:105190000FB6F894DEBF0FBECDBFDF91CF911F9148
:1051A0000F91FF90EF90DF90CF9008951F93CF93D2
:1051B000DF93CDB7DEB72C970FB6F894DEBF0FBEE6
:1051C000CDBF4F83588769877A878B879C87CE01AD
:1051D00007960E94E9268823C1F02F8138858A85A9
:1051E0009B85892B31F03F3F11F080E003C02F3FBA
:1051F000E1F781E0811147C04F81588569857A8543
:105200008B859C850E9442263EC086E0FE01379633
:10521000DE01119601900D928A95E1F7FF81E885F4
:105220004A855B854115510531F0EF3F31F481E04E
:10523000FF3F19F403C081E001C080E080FD23C07E
:105240002091690830E0C901019687709927609123
:10525000680870E086179707F1F1F983EA835D83A8
:105260004C8396E0929FD001939FB00D1124A659D4
:10527000B74FFE01319601900D929A95E1F7809318
:1052800069080E94522616E080916808909169088A
:10529000891779F1189FC00111248659974F0E94F0
:1052A000E926882331F1E09168081E9FF00111245E
:1052B000E659F74F408151816281738184819581E4
:1052C0000E9442268091680890E001968770992795
:1052D00080936808D9CF0E940C261092690810921A
:1052E0006808EAE9F8E086E0DF011D928A95E9F7AF
:1052F000CACF2C960FB6F894DEBF0FBECDBFDF919C
:10530000CF911F910895EF92FF920F931F93CF9328
:10531000DF939C01009709F471C0F12CEE24E39413
:10532000E9012196F9018491843740F4843008F032
:1053300056C0813081F0823021F160C0853709F498
:1053400049C0C0F19CE7980F903708F057C08F779D
:105350000E941D2346C089010E5F1F4FFE018491EC
:1053600090E2980F983050F48770FE2D01C0FF0F27
:105370008A95EAF78F2F0E941F2C15C00E94552294
:1053800014C089010E5F1F4FFE01849190E2980FB7
:10539000983068F48770FE2D01C0FF0F8A95EAF7F8
:1053A0008F2F0E94252C0E94482CE8011AC00E94D1
:1053B0001D23FBCF2E5F3F4FFE01C491CC2341F054
:1053C0008FE99FE00197F1F700C00000C150F6CFD0
:1053D000E90107C0FE01F490E901229602C00E9493
:1053E00055228F2D882341F0EFE9FFE03197F1F747
:1053F00000C000008150F6CF9E0192CFDF91CF9187
:105400001F910F91FF90EF90089508950E94052A33
:105410006093A4087093A5088093A6089093A708AA
:105420000C94FC2508950C94062A0F931F93009169
:10543000A4081091A5082091A6083091A708602B18
:10544000712B822B932B1F910F910C94062A0F9393
:105450001F930091A4081091A5082091A6083091EF
:10546000A70860237123822393231F910F910C942B
:10547000062A0F931F930091A4081091A50820916C
:10548000A6083091A70860277127822793271F91CC
:105490000F910C94062A08950E944B2A6093A0084D
:1054A0007093A1088093A2089093A3080C94FC2504
:1054B00060E070E0CB010C944C2A41E050E060E0E9
:1054C00070E004C0440F551F661F771F8A95D2F7FE
:1054D000CB01BA010C944C2A41E050E060E070E04E
:1054E00004C0440F551F661F771F8A95D2F780911D
:1054F000A0089091A108A091A208B091A308482B00
:10550000592B6A2B7B2BCB01BA010C944C2A41E01E
:1055100050E060E070E004C0440F551F661F771F25
:105520008A95D2F740955095609570958091A00826
:105530009091A108A091A208B091A30848235923F3
:105540006A237B23CB01BA010C944C2A41E050E042
:1055500060E070E004C0440F551F661F771F8A95F6
:10556000D2F78091A0089091A108A091A208B091D3
:10557000A308482759276A277B27CB01BA010C9437
:105580004C2A0F931F930091A0081091A10820911D
:10559000A2083091A308602B712B822B932B1F91B3
:1055A0000F910C944C2A0F931F930091A008109117
:1055B000A1082091A2083091A308602371238223BF
:1055C00093231F910F910C944C2A0F931F930091DA
:1055D000A0081091A1082091A2083091A30860278B
:1055E0007127822793271F910F910C944C2A0895BD
:1055F000CF92DF92EF92FF920F931F93CF93DF939F
:10560000EC01C090A408D090A508E090A608F09006
:10561000A7088091A0089091A108A091A208B0913C
:10562000A308C82AD92AEA2AFB2A0FE110E0B70109
:10563000A601002E04C076956795579547950A9464
:10564000D2F740FD05C00150110988F780E007C07E
:10565000BE01802F0E94C01C0197A9F3802FDF910B
:10566000CF911F910F91FF90EF90DF90CF90089511
:10567000CF93DF93EC010E94F82ABE010E94C01C68
:10568000DF91CF910895CB010E94382B089580912E
:10569000A80885958595859508958091A8088770B7
:1056A000089598E0899F90011124622B6093A808C7
:1056B0000C946C2A4091A808809584238093A808B4
:1056C000982F977069F450E0282F332727FD3095E5
:1056D0004217530729F08595859585950C94872A5F
:1056E00008959091A808977081E009F480E00895EA
:1056F000909138019923D9F09091040997FF17C030
:10570000982F9695969596959F3188F5E0912C0166
:10571000F0912D01E90FF11D877021E030E001C00B
:10572000220F8A95EAF78181822B81830895409127
:105730002C0150912D0120E030E09FEFFA01E20FA3
:10574000F31F6281681799F09F3F19F4611101C03E
:10575000922F2F5F3F4F2E31310581F79F3F39F058
:10576000FA01E90FF11D97FDFA95828308950895D6
:10577000909138019923E1F09091040997FF18C0A6
:10578000982F9695969596959F3120F5E0912C014E
:10579000F0912D01E90FF11D877021E030E001C08B
:1057A000220F8A95EAF72095818128232183089585
:1057B00040912C0150912D0120E030E0FA01E20FE0
:1057C000F31F9281981301C012822F5F3F4F2E3139
:1057D0003105A1F7089581E090E0E0912C01F0916E
:1057E0002D01E80FF91F1082019680329105A9F76B
:1057F00008958091CC0808959091CC08982B9093AF
:10580000CC08089580959091CC0898239093CC086B
:1058100008958093CC0808951092CC080895909133
:10582000CB08982B9093CB08089580959091CB0846
:1058300098239093CB0808951092CB0808959091E7
:10584000CA08982B9093CA08089580959091CA0829
:1058500098239093CA0808951092CA0808958093D7
:10586000A90808951092A908089540912C0150911B
:105870002D0120E030E080E0FA01E20FF31F91817A
:1058800091118F5F2F5F3F4F2F313105A9F7089599
:10589000E0912C01F0912D018091CC088083E09162
:1058A0002C01F0912D0180819091CB08892B808370
:1058B000E0912C01F0912D0180819091CA08892BF3
:1058C00080839091A908992361F0E0912C01F091D7
:1058D0002D018081892B80830E94352C81111092AB
:1058E000A90880912C0190912D010C94F320CF9266
:1058F000DF92EF92FF920F931F936C01EE24FF242F
:10590000C114D104E104F10421F46B017C0180E0B5
:1059100001C080E133272F2D1E2D0D2D01151105FE
:105920002105310519F0885F680179019701860129
:10593000A4E03695279517950795AA95D1F70115F7
:1059400011052105310519F08C5F68017901970176
:105950008601F2E03695279517950795FA95D1F7C8
:10596000011511052105310519F08E5F68017901D6
:10597000B701A6017695679557954795452B462B18
:10598000472B09F08F5F1F910F91FF90EF90DF90F1
:10599000CF9008956DEE7EEF80E090E00E942C3570
:1059A00060E082E090E00E941A3560E083E090E0E1
:1059B0000E941A3560E084E090E00E941A3560E0B1
:1059C00085E090E00C941A3580E090E00E94143558
:1059D00021E08D3E9E4F09F020E0822F089582E065
:1059E00090E00C940C3583E090E00C940C3584E04E
:1059F00090E00C940C35682F84E090E00C941A35FC
:105A000080910A09843021F11092CE0820E488E1C7
:105A100090E00FB6F894A895809360000FBE209395
:105A2000600080E00E94A01C83B7817F846083BFF8
:105A300083B7816083BF7894889583B78E7F83BF57
:105A400088E10FB6F89480936000109260000FBE5A
:105A500008950895CF930E94D8140E94EB140E94D9
:105A6000292DC0E08C2F0E94E915811105C0CF5F60
:105A7000CE30C1F780E001C081E0CF9108950E944F
:105A80000C260E94E7200C94A01C1F920F920FB6C8
:105A90000F9211248F939F93AF93BF938091CE0861
:105AA000811113C08091000990910109A091020910
:105AB000B09103094196A11DB11D809300099093F7
:105AC0000109A0930209B0930309BF91AF919F917F
:105AD0008F910F900FBE0F901F90189582E084BD9C
