:100000000C94FA150C943E160C943E160C943E1665
:100010000C943E160C943E160C943E160C943E1610
:100020000C943E160C943E160C94B5320C94873307
:100030000C94822D0C943E160C943E160C943E1695
:100040000C943E160C943E160C943E160C943E16E0
:100050000C943E160C94E92D0C943E160C943E160E
:100060000C943E160C943E160C943E160C943E16C0
:100070000C943E160C943E160C943E160C943E16B0
:100080000C943E160C943E160C943E160C943E16A0
:100090000C943E160C943E160C943E160C943E1690
:1000A0000C943E160C943E160C943E16CB1BD11BA2
:1000B000D51BD81BDC1BE01BE41BE81BED1BF11B55
:1000C000F51BF91BFC1B001C041C081C0C1C111C40
:1000D000F723F723312431246824DF25A225DF25E7
:1000E0008A24DF25312531259B25DF25DF25DB25EA
:1000F0003E253E253E253E253E253E253E253E25E8
:100100003E253E253E253E253E253E253E253E25D7
:1001100050255E2565256C2576255B265B266E269B
:100120006E2664266E266E266E265B265B266A2663
:100130006E266E266A26EC330E34F9340E34F9340A
:1001400050347334F934C834DB341E0030002B00D3
:100150000130E00000002214040014001A001E0008
:10016000035121141D0015001B00E2002A002E146B
:100170000900160006005200280022001300170094
:100180001900510046002E000A000700050000007B
:100190000451E3004900000029000000045301530A
:1001A0002A00000028000000045332000D000B005C
:1001B0000E00000004512D000F001100330050000C
:1001C00000002E021800080010004F002C002D1413
:1001D0001C000C00360225144C00380036001200BA
:1001E0002100271403512014370223000130E400BA
:1001F00000003A00E200E0000030003000003B0068
:100200002B0000300030003000303C000030003067
:100210000030003000303D00003000300030010080
:1002200000303E00003000300030010000303F0060
:10023000003000300030000000302A0000300000A4
:1002400000300000003001000030000000300000ED
:10025000003040000030003000300000003041002D
:10026000003000300030010000304200003000302B
:10027000003001000030430000300030003000301A
:10028000003044004C0000300030003000304500A9
:10029000E600E400003000300000340002300100CD
:1002A00001000100000024000100010001003400F1
:1002B00001002200010001000100010001002000F6
:1002C000010001000100010001001E000100010009
:1002D00001000100010026000100010001000000F2
:1002E0000100010001000000010000000100000009
:1002F00001000000010000000100270001000100D2
:100300000100000001001F000100010001000100C8
:100310000100210001000100023001000100230062
:10032000010001000230023001002500023001000E
:1003300002300230010002301000023001000100E2
:1003400000000000000000000000000000000000AD
:100350000000270000000000010000000000000075
:100360000000000000000000000000002600000067
:10037000000000000000000000000000000000007D
:10038000000000000000000000000000000000006D
:10039000000000000000000000000000000000005D
:1003A0000000000000002400000000000000000029
:1003B00000001F00000000000000000034000330B7
:1003C00000000000000000000000033000000000FA
:1003D000000000002F0203300000000001000000B8
:1003E000000000000000000000003A0001000100D1
:1003F000E100010000003B000100010001000100DC
:10040000005C3C00010001000100010001003D0012
:100410000100010001004B0001003E00010001004D
:1004200001004E0001003F0001000100010000003A
:1004300001000000010000000100000001000000B8
:100440000100000001000000010040000100010067
:1004500001000000010041000100010001004A000C
:10046000010042000100010001004D0001004300B5
:100470000100010001000100010044000100010031
:1004800001000100005C450001000100E5000100E1
:10049000000000000000000000000000000020003C
:1004A000008020000080000000000000000000002C
:1004B00000003000008021000080210000805200F8
:1004C0000080000000003200008031000080460003
:1004D00000804700008050000080000000003300D2
:1004E00000804400008045000080000000001100F2
:1004F00000800000000034000080420000804300C3
:100500000080000000005100008000000000350065
:1005100000804000008041000080000000001000CA
:10052000008000000000910000800000000010002A
:100530000080000000001000008000000000120099
:100540000080000000001200008000000000100089
:1005500000800000000085000080600000806100D5
:1005600000800000000010000080000000008400F7
:1005700000806200008063000080000000005200E4
:10058000008000000000830000806400008065009F
:1005900000800000000011000080000000008200C8
:1005A00000808100008066000080670000805400A9
:1005B000008000000000000000008000008070004B
:1005C00000807100008053000080000000000000E7
:1005D0000000000000007200008072000080000037
:1005E00000000000000000002B00000000002800B8
:1005F00000000000000000000000000000000000FB
:100600000000000021000000000000000000360291
:10061000000000000000000021005000FF1F00004B
:1006200000002E1400000000000000002000000068
:100630000000000000002E145000FF1F000000000A
:1006400020005000FF1F000000002D0000000000EF
:1006500000000000640200000000000000002D0007
:100660005000FF1F0000000064025000FF1F000048
:1006700000002D1400000000000000000000000039
:100680000000000000002D145000FF1F00000000BB
:100690002C005000000000000000360200000000A6
:1006A00000000000210036020000000000003700BA
:1006B0000000000000000000210036025000500041
:1006C000FF1F2E143602000000000000200036023A
:1006D0000000000000002E14360250005000FF1FE2
:1006E0002000360250005000FF1F2D00360200008F
:1006F00000000000320037020000000000002D0062
:10070000360250005000FF1F3200370250005000E8
:10071000FF1F2D1436020000000000000000000042
:100720000000000000002D14360250005000FF1F92
:1007300000000000000000000000100000000000A9
:1007400000000000210010000000000000002E004A
:1007500000000000000000002100100050005000C8
:10076000FF1F2E14100000000000000020001000E9
:100770000000000000002E14100050005000FF1F69
:100780002000100050005000FF1F2D00100000003E
:1007900000000000640210000000000000002D00B6
:1007A000100050005000FF1F640210005000500065
:1007B000FF1F2D14100000000000000000000000CA
:1007C0000000000000002D14100050005000FF1F1A
:1007D00000000000000000000000360000000000E3
:1007E000000000002100360000000000000037007B
:1007F00037000000000000002100360050005000CB
:10080000FF1F2E14360000000000000020003600FC
:100810000000000000002E14360050005000FF1FA2
:100820002000360050005000FF1F2D003600000051
:1008300000000000000000000000000000002D008B
:10084000360050005000FF1F0000000000000000B4
:1008500000002D1436000000000000000000000021
:100860000000000000002D14360050005000FF1F53
:10087000000000000000000000002800FF1F000032
:100880000000000000000000000000000000000068
:100890000000000000000000000000000000000058
:1008A0000000000000000000000000000000000048
:1008B00000000000000028002E1452002800FF1F36
:1008C0000000000000000000000000000000000028
:1008D0000000000000000000000000000000000018
:1008E0000000000000000000000000000000000008
:1008F00000000000000000000000000000000000F8
:100AF00000000000000000000000270200000000CD
:100B000000000000000000000000000000001E02C5
:100B100000000000000000000000000000000000D5
:100B200000000000000000000000000000000000C5
:100B300000000000000000000000000000000000B5
:100B4000000000000000000000001F020000000084
:100B50000000000000000000000000000000200273
:100B60000000000000000000000000000000000085
:100B70000000000000000000000000000000000075
:100B80000000000000000000000000000000000065
:100B90000000000000000000000000000000000055
:100BA0000000000000000000000000000000000045
:100BB0000000000000000000000000000000000035
:100BC0000000000000000000000000000000000025
:100BD0000000000000000000000000000000000015
:100BE0000000000000000000000000000000000005
:100BF00000000000000000000000000000000000F5
:100C000000000000000000000000000000000000E4
:100C100000000000000000000000000000000000D4
:100C200000000000000000000000000000000000C4
:100C30000000000000000000000021020000000091
:100C40000000000000000000000000000000220280
:100C50000000000000000000000000000000000094
:100C60000000000000000000000000000000000084
:100C70000000000000000000000000000000000074
:100C8000000000000000000000002302000000003F
:100C9000000000000000000000000000000024022E
:100CA0000000000000000000000000000000000044
:100CB0000000000000000000000000000000000034
:100CC0000000000000000000000000000000000024
:100CD0000000000000000000000000000000000014
:100CE0000000000000000000000000000000000004
:100CF00000000000000000000000000000000000F4
:100D000000000000000000000000000000000000E3
:100D100000000000000000000000000000000000D3
:100D200000000000000000000000000000000000C3
:100D300000000000000000000000000000000000B3
:100D400000000000000000000000000000000000A3
:100D50000000000000000000000000000000000093
:100D60000000000000000000000000000000000083
:100D7000000000000000000000002502000000004C
:100D8000000000000000000000000000000026023B
:100D90000000000000000000000000000000000053
:100DA0000000000000000000000000000000000043
:100DB0000000000000000000000000000000000033
:100DC000000000000000000000001E0227020000DA
:100DD00000000000000000000000000000001E02F3
:100DE0001E020000000000000000000000000000E3
:100DF00000000000000000000000000000000000F3
:100E000000000000000000000000000000000000E2
:100E100000000000000000000000000000000000D2
:100E200000000000000000000000000000000000C2
:100E300000000000000000000000000000000000B2
:100E400000000000000000000000000000000000A2
:100E50000000000000000000000000000000000092
:100E60000000000000000000000000000000000082
:100E70000000000000000000000000000000000072
:100E80000000000000000000000000000000000062
:100E90000000000000000000000000000000000052
:100EA0000000000000000000000000000000000042
:100EB000000000000000000000001E021F020000F1
:100EC00000000000000000000000000000001E0202
:100ED00020020000000000000000000000000000F0
:100EE0000000000000000000000000000000000002
:100EF00000000000000000000000000000000000F2
:100F0000000000000000000000001E02210200009E
:100F100000000000000000000000000000001E02B1
:100F2000220200000000000000000000000000009D
:100F300000000000000000000000000000000000B1
:100F400000000000000000000000000000000000A1
:100F50000000000000000000000000000000000091
:100F60000000000000000000000000000000000081
:100F70000000000000000000000000000000000071
:100F80000000000000000000000000000000000061
:100F90000000000000000000000000000000000051
:100FA0000000000000000000000000000000000041
:100FB0000000000000000000000000000000000031
:100FC0000000000000000000000000000000000021
:100FD0000000000000000000000000000000000011
:100FE0000000000000000000000000000000000001
:100FF00000000000000000000000000000000000F1
:1010000000000000210000000000000000001000AF
:10101000000000000000000036000000000000009A
:10102000000021140000000000000000200000006B
:10103000000000000000640200000000000000004A
:1010400064026402000000000000220000000000B2
:101050000000000064000000000000000000230009
:101060006402FF1F00000000640064000000000034
:10107000000022140000000000000000000000003A
:10108000000000000000100200000000000000004E
:10109000201400000000000000002E0200000000EC
:1010A00000000000241400000000000000001F14D5
:1010B00000000000000000003602000000000000F8
:1010C00000002E022E0200000000000000000000C0
:1010D0000000000000001E000000000000000000F2
:1010E0001E001E000000000000002514000000008B
:1010F00000000000000000000000000000002514B7
:10110000251400000000000027140000000000006B
:1011100000000000000000000000000000000000CF
:1011200000000000000000000000000000000000BF
:10113000000000000000000000002300000000008C
:1011400000000000000000000000000000002E0071
:10115000000000000000000030000000000000005F
:1011600000003702000000000000000037023702D4
:101170000000000000002614000000000000000035
:10118000370237023702000000002300230000006E
:10119000000000000000000000000000000025002A
:1011A00000000000000000003000220000000000ED
:1011B00000003702320000000000000000000000C4
:1011C0000000000000003702320032000000000082
:1011D00037023702370264000000320000000000CE
:1011E00000000000000000000000000000003800C7
:1011F0000000000000000000360232000000000085
:101200000000320037020000000000000000000073
:1012100000000000000000000000000000000000CE
:101220003000211400000000000032002200000005
:101230000000000000000000000000000000231477
:101240000000000000000000320036023200000002
:101250000000340200000000000000000000000058
:101260000000000000002314231400000000000010
:10127000000000000000000000000000000000006E
:10128000000000000000000000000000000000005E
:10129000000000000000000000000000000000004E
:1012A000000000000000000000000000000000003E
:1012B000000000000000000000000000000000002E
:1012C000000000000000000000000000000000001E
:1012D000000000000000000000000000000000000E
:1012E00000000000000000000000000000000000FE
:1012F00000000000000000000000000000000000EE
:1013000000000000000000000000000000000000DD
:1013100000000000000000000000000000000000CD
:1013200000000000000000000000000000000000BD
:1013300000000000000000000000000000000000AD
:10134000000000000000000000000000000000009D
:10135000000000000000000000000000000000008D
:10136000000000000000000000000000000000007D
:10137000000000000000000000000000000000006D
:10138000000000000000000000000000000000005D
:10139000000000000000000000000000000000004D
:1013A000000000000000000000000000000000003D
:1013B000000000000000000000000000000000002D
:1013C000000000000000000000000000000000001D
:1013D000000000000000000000000000000000000D
:1013E00000000000000000000000000000000000FD
:1013F00000000000000000000000000000000000ED
:1014000000000000000000000000000000000000DC
:1014100000000000000000000000000000000000CC
:1014200000000000000000000000000000000000BC
:1014300000000000000000000000000000000000AC
:10144000000000000000000000000000000000009C
:101450000000000000000000000032003200000028
:10146000000000000000000000000000000000007C
:10147000000000000000000000000000000000006C
:10148000000000000000000000000000000000005C
:10149000000000000000000000000000000000004C
:1014A000000000000000000000000000000000003C
:1014B000000000000000000000000000000000002C
:1014C000000000000000000000000000000000001C
:1014D000000000000000000000000000000000000C
:1014E00000000000000000000000000000000000FC
:1014F00000000000000000000000270200000000C3
:1015000000000000000000000000000000001E02BB
:1015100000000000000000000000000000000000CB
:10152000000021142702000000000000000000005D
:1015300000000000000000000000000000000000AB
:10154000000000000000000000001F02000000007A
:101550000000000000000000000000000000200269
:10156000000000000000000000000000000000007B
:10157000000022142702000000000000000000000C
:10158000000000000000000000000000000000005B
:10159000000000000000000000000000000000004B
:1015A000000000000000000000000000000000003B
:1015B000000000000000000000000000000000002B
:1015C000000000000000000000000000000000001B
:1015D000000000000000000000000000000000000B
:1015E00000000000000000000000000000000000FB
:1015F00000000000000000000000000000000000EB
:1016000000000000000000000000000000000000DA
:1016100000000000000000000000000000000000CA
:1016200000000000000000000000000000000000BA
:101630000000000000000000000021020000000087
:101640000000000000000000000000000000220276
:10165000000000000000000000000000000000008A
:10166000000000000000000000000000000000007A
:10167000000000000000000000000000000000006A
:101680000000000000000000000023020000000035
:101690000000000000000000000000000000240224
:1016A000000000000000000000000000000000003A
:1016B000000000000000000000000000000000002A
:1016C000000000000000000000000000000000001A
:1016D000000000000000000000000000000000000A
:1016E00000000000000000000000000000000000FA
:1016F00000000000000000000000000000000000EA
:1017000000000000000000000000000000000000D9
:1017100000000000000000000000000000000000C9
:1017200000000000000000000000000000000000B9
:1017300000000000000000000000000000000000A9
:101740000000000000000000000000000000000099
:101750000000000000000000000000000000000089
:101760000000000000000000000000000000000079
:101770000000000000000000000025020000000042
:101780000000000000000000000000000000260231
:101790000000000000000000000000000000000049
:1017A0000000000000000000000000000000000039
:1017B0000000000000000000000000000000000029
:1017C000000000000000000000001E0227020000D0
:1017D00000000000000000000000000000001E02E9
:1017E0001E020000000000000000000000000000D9
:1017F00000000000000000000000000000000000E9
:1018000000000000000000000000000000000000D8
:1018100000000000000000000000000000000000C8
:1018200000000000000000000000000000000000B8
:1018300000000000000000000000000000000000A8
:101840000000000000000000000000000000000098
:101850000000000000000000000000000000000088
:101860000000000000000000000000000000000078
:101870000000000000000000000000000000000068
:101880000000000000000000000000000000000058
:101890000000000000000000000000000000000048
:1018A0000000000000000000000000000000000038
:1018B000000000000000000000001E021F020000E7
:1018C00000000000000000000000000000001E02F8
:1018D00020020000000000000000000000000000E6
:1018E00000000000000000000000000000000000F8
:1018F00000000000000000000000000000000000E8
:10190000000000000000000000001E022102000094
:1019100000000000000000000000000000001E02A7
:101920002202000000000000000000000000000093
:1019300000000000000000000000000000000000A7
:101940000000000000000000000000000000000097
:101950000000000000000000000000000000000087
:101960000000000000000000000000000000000077
:101970000000000000000000000000000000000067
:101980000000000000000000000000000000000057
:101990000000000000000000000000000000000047
:1019A0000000000000000000000000000000000037
:1019B0000000000000000000000000000000000027
:1019C0000000000000000000000000000000000017
:1019D0000000000000000000000000000000000007
:1019E00000000000000000000000000000000000F7
:1019F00000000000000000000000000000000000E7
:101A00000700000000002100160000000700000091
:101A100000000000000000000000000000001100B5
:101A20002100170000000000000008001500000061
:101A300000000000000021000F000F000000000067
:101A400000000C0011000A0000000000000000006F
:101A50000000000000000000000008001500000069
:101A60000000000000002100190008000000000034
:101A70000000000000000000000000000000000066
:101A8000000000000000000000000C0011000A002F
:101A90000000000000000000000000000000000046
:101AA0000000000000000000000000000000000036
:101AB0000000000000000000000008001500000009
:101AC00000000000000021000700000000000000EE
:101AD0000000000000000000000000000000000006
:101AE00000000000000000000000000000000000F6
:101AF00000000000000000000000000000000000E6
:101B000000000000000000000000000000000000D5
:101B1000000000000000000000000C0011000A009E
:101B20000000000000002100330000000000000061
:101B300000000000000000000000000000000000A5
:101B40000000000000000000000000000000000095
:101B50000000000000000000000000000000000085
:101B60000000000000000000000000000000000075
:101B70000000000000000000000000000000000065
:101B80003800000000002900000000002900370094
:101B90000000320000000000000000000000000013
:101BA0000000000000000000000025000000000010
:101BB0000000000000000000000000000000000025
:101BC0000000000000000000000000000000000015
:101BD0000000000000000000000000000000000005
:101BE00000000000000000000000000000000000F5
:101BF00000000000000000000000000000000000E5
:101C000000000000000000000000000000000000D4
:101C100000000000000000000000000000000000C4
:101C200000000000000000000000000000000000B4
:101C300000000000000000000000000000000000A4
:101C40000000000000000000000000000000000094
:101C50000000000000000000000000000000000084
:101C60000000000000000000000000000000000074
:101C70000000000000000000000000000000000064
:101C80000000000000000000000000000000000054
:101C90000000000000000000000000000000000044
:101CA0000000000000000000000000000000000034
:101CB0000000000000000000000000000000000024
:101CC0000000000000000000000000000000000014
:101CD0000000000000000000000000000000000004
:101CE00000000000000000000000000000000000F4
:101CF00000000000000000000000000000000000E4
:101D00000800000000001C0000000000081C00008B
:101D100000001600000000000816000000001C165D
:101D200000000000081C1600000000000000000079
:101D30001500000000001100000000001511000057
:101D400000000F0000000000150F0000000016004A
:101D5000000000000F0F000000000A00000000005B
:101D6000150A00000000110A000000000A1100001E
:101D700000000F0A000000000A1500000000070024
:101D800000000000070F0000000006000000000037
:101D900015060000000011060000000011061500E5
:101DA00000001300000000001513000000001613CF
:101DB00000000000130F00000000050000000000FC
:101DC0001505000000000A0A0000000005081500C3
:101DD0000000050F000000000000000000000000EF
:101DE000000000000F05000000000B0000000000D4
:101DF0001D00000000001900000000001D1100007F
:101E000000001A00000000001D0F00000000160B6B
:101E1000000000000F19000000000A0B0000000085
:101E2000150A0B000000330000000000153300000D
:101E300000001B000000000000000000000016333E
:101E4000000000000F3300000000060B000000003F
:101E500015060B00000011060B000000151900000C
:101E60000000130B00000000000000000000000054
:101E7000000000000F060B00000009000000000039
:101E800015090000000033050000000033050815A7
:101E900000000F0900000000090F000000003313CC
:101EA00000000000133300000000170000000000D5
:101EB0001517000000001117000000001511170091
:101EC00000000F1700000000170F00000000161799
:101ED000000000001516170000000E0000000000B2
:101EE000150E00000000110E0000000000000000B0
:101EF00000000E0F00000000000000000000160EA1
:101F0000000000000F0E0000000006170000000097
:101F1000061500000000170C121100000000000060
:101F20000000131700000000000000000000111660
:101F3000170000000F1300000000060E0000000054
:101F4000000000000000051700000000050815173C
:101F50000000060E0F00000000000000000000005E
:101F600000000000000000000000170B000000004F
:101F700015170B00000011170B0000001D170B00B8
:101F800000000F170B0000000000000000001119F6
:101F9000000000000000000000000A0B1700000015
:101FA0001D0E00000000110A170B00003308111766
:101FB00000001B17000000000000000000000717D1
:101FC0000B00000011330811170017060B0000006A
:101FD0000000000000000000000000000000000001
:101FE000000013170B0000000000000000000000BC
:101FF00000000000000000000000091700000000C1
:10200000091708150000091708110000000000005A
:10201000000000000000000000000000000033137A
:10202000170000001333081117001600000000000D
:102030001516000000001116000000001511160012
:1020400000000F1600000000150F16000000161605
:10205000000000000F0F160000000A16000000002C
:10206000150A16000000110A160000000A111600D9
:102070000000000000000000000000000000071643
:102080000000000000000000000006160000000034
:1020900015061600000011060816000000000000DA
:1020A00000001316000000001513160000001613A0
:1020B00016000000130F08160000051600000000AF
:1020C0001505160000000A0A16000000050815167E
:1020D0000000050F081600000000000000000000CE
:1020E000000000000F05160000000B1600000000A5
:1020F0001D16000000001908160000001D11160032
:1021000000001A08160000001D0F16000000160B34
:10211000081600000F19081600000A0B1600000030
:102120000000000000003316000000001533160008
:1021300000001B081600000000000000000016331D
:10214000160000000F33160000000700000000001A
:102150001507000000001107000000001D07000027
:102160000000130B16000000150F070000001607F3
:10217000000000000F0700000000070A0000000038
:1021800000000000000033051600000033050815AC
:1021900016000000000000000000000000003313E3
:1021A00016000000000000000000171600000000EC
:1021B000151716000000111716000000000000009F
:1021C00000000F1716000000170F1C000000161764
:1021D000160000001516171600000E16000000006D
:1021E000150E16000000110E160000000000000081
:1021F0000000000000000000000000000000160EBB
:10220000160000000F0E1600000006171600000052
:10221000000000000000170C121116000000000062
:1022200000000000000000000000000000000000AE
:10223000000000000F1316000000060E160000003C
:102240000000000000000517160000000508151723
:102250001600060E0F081600000000000000000027
:1022600000000000000000000000170B1600000036
:1022700015170B16000011170B1600001D170B1673
:10228000000000000000000000000000000000004E
:10229000000000000000000000000A0B17160000FC
:1022A0001D0E16000000110A170B16003308111737
:1022B00016000000000000000000000000000717EA
:1022C0000B16000011330811171607160000000046
:1022D0001507160000001107160000001D07160064
:1022E000000013170B160000150F07160000000062
:1022F000000000000F0716000000000000000000B2
:1023000000000000000000000000000000000000CD
:102310000000000000000000000000000000331377
:1023200017160000133308111716000000000000F4
:10233000080800000000121200000000120800004F
:102340000000141400000000140800000000141223
:10235000000000000814120000001818000000001F
:1023600018080000000018120000000008181200F1
:1023700000001814000000000818140000001218D3
:10238000140000000812181400000C0C00000000DB
:102390000C08000000000C1200000000080C1200E5
:1023A00000000C1400000000080C14000000120CC7
:1023B0001400000008120C1400000C1800000000AB
:1023C000080C180000000C121800000008120C186D
:1023D0000000140C1800000008140C18000012145F
:1023E0000C1800000812140C180000000000000077
:1023F00008000000000012000000000008120000A9
:102400000000140000000000081400000000121476
:102410000000000008121400000018000000000076
:102420000818000000001218000000000812180030
:102430000000141800000000081418000000121416
:10244000180000000812141800000C000000000022
:10245000080C00000000120C0000000008120C0024
:102460000000140C0000000008140C0000001214FE
:102470000C0000000812140C0000180C00000000F2
:1024800008180C00000012180C0000000812180CAC
:10249000000014180C0000000814180C000012149E
:1024A000180C0000081214180C00000000000000B6
:1024B0001100000000001500000000000F000000E7
:1024C00000001D00000000003300000000001D158A
:1024D000000000003315000000000B0000000000A9
:1024E0001C0000000000150B000000000F1C000085
:1024F00000001D0B00000000331C00000000000065
:1025000000000000000000000000060000000000C5
:102510001A0000000000061500000000060F000071
:10252000000013000000000013110000000013154C
:1025300000000000130F00000000060B0000000068
:10254000061C00000000060B1500000006151C000C
:102550000000130B00000000131C00000000130B10
:1025600015000000130B0F00000017000000000012
:102570001900000000001715000000000400000012
:102580000000171D000000000D000000000000000A
:10259000000000000D0815000000170B00000000EF
:1025A000171C00000000170B1500000017151C0079
:1025B00000000E00000000000E11000000000E15CB
:1025C000000000000E0F00000000070000000000E7
:1025D00007081900000007150000000007080F0099
:1025E0000000071D00000000070833000000070876
:1025F00015000000000000000000090000000000BD
:10260000071C00000000091500000000090F000071
:102610000000050000000000051C0000000005157A
:1026200000000000050F0000000014000000000082
:10263000141100000000141500000000140F000029
:102640000000141D00000000143300000000000012
:1026500000000000140F0F000000140B0000000029
:10266000141C00000000000000000000000000003A
:102670000000141D0B00000000000000000000001E
:102680000000000000000000000014060000000030
:10269000141A0000000014061500000014060F00B4
:1026A0000000141300000000143333000000141362
:1026B0001500000014130F00000014060B000000AA
:1026C0001406060000001406061500001406060F86
:1026D000000014130B0000000000000000001413A1
:1026E0000B1500000000000000001417000000009F
:1026F0001419000000001417150000001404000055
:102700000000141717000000140D0000000014173B
:102710001715000000000000000014170B00000057
:1027200000000000000014170B0F00000000000064
:102730000000140E0000000014060E11000000003E
:10274000000000000000000000001407000000006E
:1027500014071900000014071500000014060400F7
:1027600000001407070000001407330000001407DE
:10277000071500001407070F0000140900000000EF
:1027800014090900000014091500000014090F00C5
:10279000000014050000000014051C0000001405D2
:1027A0001500000014050F000000160000000000D6
:1027B000161100000000160815000000160F00009A
:1027C0000000161D0000000016330000000000008D
:1027D00000000000000000000000160B00000000D8
:1027E000161C00000000160B15000000160F1C0040
:1027F00000000000000000000000000000000000D9
:1028000000000000000000000000160600000000AC
:10281000161600000000160615000000000000005B
:102820000000161300000000000000000000161356
:102830001500000016130F00000016060B00000024
:102840000000000000000000000000000000000088
:10285000000016130B00000016131C0000000000FF
:10286000000000000000000000001617000000003B
:1028700016190000000016171500000016040000CD
:1028800000001B00000000000000000000001B15FD
:1028900000000000160815190000000000000000EC
:1028A00016171C0000000000000000001617151C81
:1028B0000000160E000000001B1C000000000000BD
:1028C000000000000000000000000A0000000000FE
:1028D0000A11000000000A15000000000A0F0000A5
:1028E00000000A1D000000000000000000000000C1
:1028F000000000000000000000000A0B00000000C3
:102900000A1C0000000000000000000000000000A1
:1029100000000000000000000000000000000000B7
:10292000000000000000000000001416000000007D
:1029300014111100000014151500000014160F00EA
:10294000000000000000000014163300000000002A
:102950000000000000000000000014160B00000042
:1029600014161C0000000000000000000000000021
:102970000000000000000000000000000000000057
:102980000000000000000000000014160600000017
:1029900014161600000014160615000000000000B2
:1029A0000000141613000000141313000000141389
:1029B000131500001413130F0000000000000000A6
:1029C0000000000000000000000000000000000007
:1029D00000001416130B00001416130B1C0000004B
:1029E00000000000000000000000141617000000A6
:1029F0000C11190000000C15000000001416040052
:102A00000000141B00000000000000000000000097
:102A1000000000000000000000001416170B00006A
:102A20000C11170000000C15150000000C11170800
:102A3000150014160E000000000000000000000049
:102A400000000000000000000000140A0000000068
:102A5000140A11000000140A15000000140A0F00E7
:102A60000000140A0A00000014070D000000140AF8
:102A70000A150000140A0A0F0000140A0B000000D7
:102A80001409170000001409091500001409090FA2
:102A900000001405050000000000000000001405FF
:102AA000051500000000000000001603450072003C
:102AB00067006F0044006F007800200045005A0056
:102AC000000016034500720067006F0044006F00AD
:102AD0007800200045005A000000040309040902A0
:102AE0005400030100A0FA090400000103010100E1
:102AF0000921110100012240000705810308000A95
:102B00000904010001030000000921110100012254
:102B100036000705820308000A09040200010300C9
:102B2000000009211101000122390007058303205B
:102B300000011201100100000008EDFE0713010062
:102B40000102000105010906A101050719E029E7B5
:102B5000150025019508750181020508190129054F
:102B600095057501910295017503910105071900FD
:102B700029F71500250195F875018102C0050109A5
:102B800080A10185021601002603001A81002A8314
:102B900000751095018100C0050C0901A101850394
:102BA000160100269C021A01002A9C02751095014C
:102BB0008100C005010906A101050719E029E715F3
:102BC00000250195087501810295017508810105AF
:102BD0000819012905950575019102950175039163
:102BE000010507190029FF150026FF009506750845
:102BF0008100C00011241FBECFEFDAE0DEBFCDBFE1
:102C000004B603FE24C08091F7039091F803A091CD
:102C1000F903B091FA038730904BA740B04BB9F459
:102C20001092F7031092F8031092F9031092FA032E
:102C300014BE84B7877F84BF88E10FB6F894809371
:102C40006000109260000FBEE0E0FFE3099512E023
:102C5000A0E0B1E0E2E0FBE602C005900D92A632F2
:102C6000B107D9F713E0A6E2B2E001C01D92A73F79
:102C7000B107E1F70E94E92F0C947F350C94000016
:102C80001092B9008AE08093B800089594EA909376
:102C9000BC009091BC0097FFFCCF9091B900987F49
:102CA000983021F0903111F081E008958093BB00BD
:102CB00084E88093BC008091BC0087FFFCCF8091AA
:102CC000B900887F883111F0803471F780E0089571
:102CD00084E98093BC008091BC0084FDFCCF089502
:102CE0008093BB0084E88093BC008091BC0087FF88
:102CF000FCCF9091B900987F81E0983209F480E090
:102D0000089584E88093BC008091BC0087FFFCCFCD
:102D10008091BB00089580B38C7080BB81B3836FBA
:102D200081BB089580912901811115C080E40E9422
:102D300046168093290181110CC082E10E94701611
:102D400080932901811105C08FEF0E947016809336
:102D500029010E94681684B1807F84B985B1807F83
:102D600085B98AB1837F8AB98BB1837F8BB93E984D
:102D7000469808950C944B1B0E94C01F8093290114
:102D80000E9492160E948B16E5E3F2E0A7E2B2E001
:102D900011921D9282E0E334F807D1F70C94CC1C19
:102DA0000E94C01F809329010E9492160E948B16D8
:102DB000E5E3F2E0A7E2B2E011921D9282E0E33493
:102DC000F807D1F708958F929F92BF92CF92DF922A
:102DD000EF92FF920F931F93CF93DF931F92CDB784
:102DE000DEB780912901882379F0809126028F5FD8
:102DF00080932602811108C00E94C01F8093290180
:102E0000811102C00E94521F07E212E0812C912C16
:102E1000EE24E394F12CDD24D39495E0C92E282DE3
:102E2000273030F580912901811142C080E48982E8
:102E30000E944616809329012981811114C082E1E4
:102E40000E94701680932901298181110CC0C7014D
:102E5000082C01C0880F0A94EAF780950E9470162A
:102E600080932901298129830E946816298120C025
:102E70002A30A1F028F4283059F0293061F005C03B
:102E80002C3089F070F02D3089F0209A289810C0ED
:102E9000219A29980DC0229A2A980AC0239A2B9821
:102EA00007C0529A01C0539A5B9802C03E9A469856
:102EB00030EA3A95F1F7273018F580912901811110
:102EC00044C080E40E94461680932901882311F0B3
:102ED000B12C12C083E10E947016809329018111E8
:102EE000F7CF81E40E944616809329018111F0CF2B
:102EF0000E948116B82EB0940E9468168B2D26C0B1
:102F00008FB181708D25799B02C090E001C092E065
:102F1000892B7C9B02C090E001C094E0892B7D9BB3
:102F200002C090E001C098E0892B7E9B02C090E037
:102F300001C090E1892B9FB19095991F9927991F06
:102F40009295990F907E892B01C080E0F8019081C5
:102F5000981719F08083C09200010E949216FFEF2B
:102F60008F1A9F0A0F5F1F4F3EE08316910409F0EE
:102F700056CF809100018823A1F0815080930001F9
:102F8000882329F085E08A95F1F700000AC0A5E3BF
:102F9000B2E0E7E2F2E081918D9332E0E533F307AE
:102FA000D1F70E94CE1C81E00F90DF91CF911F914D
:102FB0000F91FF90EF90DF90CF90BF909F908F90F8
:102FC0000895E82FF0E0EB5CFD4F808108950895AF
:102FD000811105C0977081E019F480E001C081E0A3
:102FE0008170089580911A0390911B03A0911C0396
:102FF000B0911D03892B8A2B8B2B69F481E04091C2
:103000001603509117036091180370911903452B13
:10301000462B472B09F080E0817008950F931F9392
:10302000CF93DF931F92CDB7DEB7182F69830E942D
:10303000362C082F812F0E94462C6981862F0E94F2
:103040009222802F0F90DF91CF911F910F910C94BE
:10305000462C803141F09CEF980F9A3110F481E0BA
:1030600008958333E1F380E008952F923F924F92C9
:103070005F926F927F928F929F92AF92BF92CF9208
:10308000DF92EF92FF920F931F93CF93DF93CDB711
:10309000DEB728970FB6F894DEBF0FBECDBF0E94F3
:1030A000362C8D8382E10E943F2C80910D0350903D
:1030B0001103282F2170722E382F32703E8382FB2D
:1030C000662460F880910E03882371F033243394D2
:1030D000823009F0312C44244394833009F0412C90
:1030E00082E00E94392C02C0412C312C21E0C22EFA
:1030F00021E0D22E4CE053E05C834B83812C912C59
:1031000018861F821A8251E05983EB81FC818191DC
:10311000FC83EB83882309F4E7C021E029834F81F6
:1031200058854130510509F01982F601208131811D
:10313000EF81F885E55AFE4F90814F8158854530E3
:10314000510529F47720B1F02AE233E213C04F8110
:1031500058854430510529F451100CC0711078C1C4
:1031600009C04F8158854630510521F4511002C0E5
:10317000711082C12115310509F4B6C0923009F4ED
:1031800051C0933009F46AC1913009F0ADC07901A2
:1031900056E0859FE00CF11C1124B92C00E010E0F2
:1031A000F701E00FF11F24902220A1F1822D0E944F
:1031B0009222822D0E945A23939484E028120BC0FD
:1031C000552049F088E10E94922288E10E945A230A
:1031D00092E0992E9B0C9E81992379F02F8138855E
:1031E0002630310551F40115110539F4822D0E9464
:1031F0009222822D0E945A239394332019F031E0B9
:10320000931629F0442031F042E0941203C082E08A
:103210000E943F2C0F5F1F4F0630110509F464C058
:10322000B92CBECF590156E0859FA00CB11C1124CA
:10323000E12CF12CF501EE0DFF1D05911491011506
:10324000110509F451C0202E802F0E9429188823CF
:1032500021F0802F0E94922204C0602F812F0E94B3
:103260000E18802F0E945A2380E5281205C08394EF
:10327000982D9770892E01C09394332019F0E1E0C6
:103280009E1629F0442031F0F2E09F1203C082E044
:103290000E943F2C22E0E20EF11C36E0E316F1041E
:1032A00049F622C00F3F4FE1140709F4E2C0602F36
:1032B000812F0E940E18802F0E945A2350E505137B
:1032C000D6C08394882D8770882EE2E0EE0EF11C24
:1032D000FAE0EF16F10441F0F501EE0DFF1D059146
:1032E000149101151105F1F62F8138852F5F3F4F9D
:1032F00038872F8332E0C30ED11C4F8158854A3066
:10330000510509F002CF992019F081E0862506C009
:10331000662019F081E0872501C080E0882351F004
:103320005A81511107C08CE20E9492228CE20E94C5
:103330005A239394182D1770892D912F0E94E81706
:103340008823B1F080914302843611F41092430235
:10335000E091430281E08E0F80934302EE0FFF0B5A
:10336000EC5BFD4F90828181887F812B818365C0DA
:10337000772009F462C0F0904302FA94F7FE02C08D
:1033800083E6F82E0F2D000F110BC8018C5B9D4FAB
:103390005C01FC018181E080F82FF770CF2ED82EE0
:1033A0008E2D9D2D0E94E817882309F43EC06620CB
:1033B00069F08AE20E9492228AE20E945A23F50171
:1033C000808181508083811138C02CC029812223C3
:1033D000A1F18D2D8770B1F0D12CAC2CB12C2D2DFD
:1033E00030E02A153B0544F48FE40E9492228FE4DA
:1033F0000E945A23D394F3CFF801EC5BFD4F8181F7
:10340000887F8183EE2071F0D12C8AE20E94922283
:103410008AE20E945A23D394DE10F7CFF801EC5BC6
:10342000FD4F1082F092430208C0662031F08AE21C
:103430000E9492228AE20E945A238D810E94462C89
:10344000ECE0F3E0119233E0E631F307D9F717C06F
:103450002AEF3FE02115310509F446CF59014AE032
:10346000849FA00CB11C1124E12CF12C35CF939436
:103470002CCF91E09A8329CF2AEF35E0EBCF289625
:103480000FB6F894DEBF0FBECDBFDF91CF911F9175
:103490000F91FF90EF90DF90CF90BF90AF909F90F3
:1034A0008F907F906F905F904F903F902F900895F6
:1034B0004F925F926F927F929F92AF92BF92CF9204
:1034C000DF92EF92FF920F931F93CF93DF938C01C4
:1034D000613009F483C038F0623009F497C063307A
:1034E00009F4AEC0C5C0DC018C911196EC91B6E038
:1034F000EB9FF0011124E80FF11DEE0FFF1FEE0FFF
:10350000FF1FEE56FB4F459155916591749177FFE2
:10351000AFC0CA018F709927C12CD12C7601C394FA
:1035200004C0CC0CDD1CEE1CFF1C8A95D2F7F4E025
:103530007695679557954795FA95D1F7E42FEF70F3
:103540009E2EAE2EB12CD501AB59BE4FF501EE0F1C
:10355000FF1FEB5EFE4FC081D181F8018281260101
:1035600037010C9004C0440C551C661C771C0A944F
:10357000D2F78823C9F0F2E09F1203C081EE0E94C7
:10358000922288819981AA81BB8184299529A629C3
:10359000B72988839983AA83BB83F501E45FFC4F35
:1035A00080818C29808364C040945094609470948E
:1035B00088819981AA81BB8184219521A621B72187
:1035C00088839983AA83BB830E94F21781110E948A
:1035D000351882E098124CC081EE48C0DC0111968B
:1035E0008C91811102C081EE01C085EEF8019281BB
:1035F000992331F00E94922282E00E94A92A38C0C9
:103600000E945A2382E00E94C42A32C0DC016D91DC
:103610007C9180E00E94E31C62E170E00E942F3503
:10362000FC01EE0FFF1FE95CFE4F60818181F80114
:103630009281992319F00E940E181AC0862F16C085
:10364000DC0112968C911297882391F06D917C91F8
:1036500080E00E94E31CC82F8FE20E9492228FE23A
:103660000E945A238C2F0E9492228C2F0E945A2350
:1036700080E090E0DF91CF911F910F91FF90EF904C
:10368000DF90CF90BF90AF909F907F906F905F90B2
:103690004F900895089560919103709192038091E5
:1036A0009303909194030E94B42C25982D9826980A
:1036B0002E9827982F98813029F0843029F4269A63
:1036C0002E9A02C0259A2D9A0E94F217811102C0EB
:1036D000279A2F9A089581E0089581E008950C9427
:1036E0006D1B0E9449262FEF84E39CE0215080400F
:1036F0009040E1F700C000000C940F2E0F931F9331
:10370000CF93DF938C01FC01C081D181CE010E9457
:10371000352BBE010E94E31CEC01B8010E946F1B17
:10372000882309F433C1B801CE010E94061F882303
:1037300009F42CC1B801CE010E940F20882309F49E
:1037400025C1C531FCE5DF0708F0A3C0C2308CE518
:10375000D80708F478C0F8018281882309F47FC073
:103760000E94212D811102C00E94072D0E94342D3C
:1037700090E09093E9038093E803FE01E350FC4559
:10378000E231F10520F4EA5AFF4F0C944335809161
:10379000E803816003C08091E80382608093E803BE
:1037A0004BC08091E8038460F9CF8091E80313C097
:1037B0008091E8038061F2CF8091E8038062EECFD0
:1037C0008091E8038064EACF8091E8038068E6CFC7
:1037D0008091E80384608860E1CF8091E8038E7F68
:1037E000DDCF8091E8038D7FD9CF8091E8038B7F77
:1037F000D5CF8091E80313C08091E8038F7ECECFB0
:103800008091E8038F7DCACF8091E8038F7BC6CF7C
:103810008091E8038F77C2CF8091E8038B7F877F09
:10382000BDCF9091E80397FB882780F921E082279C
:1038300080FB97F99093E8038091E8030E94382D6C
:103840000E944926A3C0C115ECE5DE0779F0C1301E
:10385000DC45A1F081E08093220380932303C8011B
:10386000DF91CF911F910F910C946B1BF801828116
:10387000882309F48BC00E94711B88C0F8018281E3
:10388000882309F483C08091BE0381608093BE03C6
:103890007DC0C73C8CE5D80781F5F801828188237B
:1038A00061F0109223030E94B42D90932103809322
:1038B000200380E20E94A92369C00E94362C81FF68
:1038C00005C081E08093220380932303809123032A
:1038D00081110FC080912003909121030E94C02D7F
:1038E000883C910530F487E20E94922287E20E9490
:1038F0005A2380E20E94B02349C0C83CECE5DE07B1
:1039000080F5C63CDC4509F0A5CFF801828188230B
:1039100051F0109222030E94B42D90931F038093C4
:103920001E0382E0C7CF0E94362C85FF05C081E0D0
:1039300080932203809323038091220381110FC07F
:1039400080911E0390911F030E94C02D883C910519
:1039500030F486E20E94922286E20E945A2382E09C
:10396000C9CFCA3C8CE5D80731F4F801828188239D
:1039700069F080E009C0CB3CDC4509F06BCFF80171
:103980008281882319F082E00E947B3080E0DF9101
:10399000CF911F910F9108950C94AA1F0C94BA1601
:1039A000282F882339F090E02A3010F44D9608959E
:1039B0000697089587E290E0089508950C94DD1C21
:1039C0000C94DE1C089596E0799FF001112494E593
:1039D000899FE00DF11D1124E60FF11DEE0FFF1F71
:1039E000E65BFE4F859194910895880F991F865B41
:1039F0009E4FFC018591949108950E94E31C0E94C2
:103A0000891E811520E49207B0F5811540E39407E3
:103A100008F0DBC0803E9105D8F4803C910508F0A9
:103A200069C0883A910578F4853A910508F065C037
:103A30008130910509F46CC108F423C184309105EB
:103A400008F066C11EC18D3B910508F461C019C123
:103A50008F3F910509F048F4803F910508F0AFC011
:103A6000883E910508F454C10CC1811520E29207EB
:103A700008F0A7C00895811544E59407D8F481158E
:103A800023E5920708F0DCC0811541E5940740F476
:103A9000811520E5920708F0A2C09F70906A0895F2
:103AA000811542E5940708F0B6C0982F8827816FEA
:103AB000906A0895811526E5920750F4811545E531
:103AC000940708F0D2C0982F8827846F906A0895D1
:103AD000811528E5920708F4D4C0811549E59407BB
:103AE00008F4C8C09C0130562115304208F0C9C006
:103AF0009F71C5C0805C910965C0853A910509F444
:103B0000C3C0863A910509F4C2C083E890E40895E1
:103B1000883A910509F4BEC0893A910509F4BDC0FF
:103B20008A3A910509F4BCC08B3A910509F4BBC0EF
:103B30008C3A910509F4BAC08B3B910509F4B9C0E0
:103B40008C3B910509F4B8C08D3A910509F4B7C0D2
:103B5000803B910509F4B6C08E3A910509F4B5C0D1
:103B60008F3A910509F4B4C0813B910509F4B3C0C3
:103B7000823B910509F4B2C0833B910509F4B1C0C1
:103B8000843B910509F4B0C0853B910509F4AFC0B1
:103B9000863B910509F4AEC0873B910509F4ADC0A1
:103BA000883B910509F4ACC0893B910509F4ABC091
:103BB0008A3B910509F0AAC08AE296E408959065CF
:103BC00008959F700E94F51C08959C01332793FF70
:103BD00003C0C901986C0895C901906C0895482FDD
:103BE000437021E030E002C0220F331F4A95E2F714
:103BF0003C68AC0174E0569547957A95E1F74370BF
:103C0000342B8F708695869540E2849FC0011124E5
:103C1000822B932B0895282F2695269540E2249FEA
:103C200090011124AC014370552781E090E002C05F
:103C3000880F991F4A95E2F7822B932B9C68089571
:103C4000282F2695269540E2249F90011124AC014F
:103C50004370552781E090E002C0880F991F4A9574
:103C6000E2F7822B932B9A6808958F719927982FEA
:103C7000882705C0982F8827806F906A08959062E2
:103C8000089580E090E0089581E890E4089582E846
:103C900090E4089582EE94E4089589EE94E4089502
:103CA0008AEE94E4089585EB94E4089586EB94E419
:103CB000089583EB94E4089584EB94E4089587EBEE
:103CC00094E408958CEC94E408958DEC94E40895C4
:103CD00083E895E408958AE895E4089582E995E4F7
:103CE000089584E995E4089581E296E4089583E2D5
:103CF00096E4089584E296E4089585E296E40895B2
:103D000086E296E4089587E296E4089580E094E4DC
:103D100008958238910549F1B0F48133910509F491
:103D200059C048F48932910509F44FC08A3291058F
:103D300009F455C008958533910509F441C08933CC
:103D4000910599F00895833E910531F138F4803E54
:103D5000910591F0823E9105A9F00895863E910566
:103D600001F1873E910539F108952091E80320FD86
:103D70003BC021FD39C008958091E80380FF34C025
:103D800089E341C08091E80382FF32C08091E8035B
:103D900084FF2CC080E037C08091E80382FD28C0FA
:103DA000F5CF8091E80383FF25C08091E80384FD6F
:103DB000F1CF87EE28C08091E80383FD1BC0F5CFCB
:103DC0008091E80385FF18C019C08091E80385FF42
:103DD00015C012C08091E80386FF12C013C0809105
:103DE000E80386FF0FC00CC080EE0DC083EE0BC051
:103DF00082EE09C086EE07C085E305C089E203C0F4
:103E000081E301C08AE290E008950895CF93DF93A3
:103E1000EC01FB018281811102C081E040C08091F0
:103E20003103811125C0C531DC45B9F70E94051F5A
:103E300081E0809331030E94B42D909330038093EE
:103E40002F03109224031092260310922503109240
:103E500028031092270310922A031092290310922C
:103E60002C0310922B0310922E0310922D0316C0D8
:103E700080912F03909130030E94C02D883C9105C2
:103E800060F680912403E82FF0E0EE0FFF1FEB5D5A
:103E9000FC4FD183C0838F5F8093240380E0DF9148
:103EA000CF91089556985E9825982D9826982E982B
:103EB00027982F988FEF90E0909389008093880047
:103EC00090938B0080938A0090938D0080938C0058
:103ED000259A2D9A2FEF80E792E021508040904064
:103EE000E1F700C00000269A2E9A2FEF80E792E0BB
:103EF000215080409040E1F700C00000279A2F9A9F
:103F00002FEF80E792E0215080409040E1F700C021
:103F1000000025982D982FEF80E792E021508040F7
:103F20009040E1F700C0000026982E982FEF80E720
:103F300092E0215080409040E1F700C000002798B7
:103F40002F9856985E9825982D9826982E98279801
:103F50002F98089589EA8093800089E080938100FA
:103F600024982C983F988AB18F7C8AB96E98479A8A
:103F70008BB180638BB9769A0E94521F0C944A1BB6
:103F800080E2809329018091320381110EC00E944A
:103F9000401681E0809332032FEF83ED90E32150B0
:103FA00080409040E1F700C0000080E40E94461687
:103FB0008093290181112EC00E94701680932901DF
:103FC000811128C00E94701680932901811122C09E
:103FD0008FE30E9470168093290181111BC00E94FB
:103FE000681680E40E94461680932901811112C050
:103FF0008CE00E9470168093290181110BC00E94F1
:10400000701680932901811105C08FE30E947016FC
:10401000809329010E946816809129010895CF9309
:10402000DF93EC01C13080E8D807C8F0FB01828142
:104030008823A9F080913303811109C08CE090E0BE
:104040000E9449350E94332081E0809333030E940F
:104050003A20CE019F770E94F8200E94B02081E094
:10406000DF91CF91089580933403682F8CE090E026
:104070000C945735E0912A01F0912B0180818093B7
:10408000E30381FF03C081EE0E945A238091E30382
:1040900085FF03C085EE0E945A238091E30380FFD1
:1040A00003C080EE0E945A238091E30384FF03C083
:1040B00084EE0E945A238091E30382FF03C082EEC4
:1040C0000E945A238091E30386FF03C086EE0E947C
:1040D0005A238091E30383FF03C083EE0E945A2397
:1040E0008091E30387FF03C087EE0E945A238091EB
:1040F00034038130A1F078F0823011F1843049F539
:1041000086EE0E94922286EE0E945A2388E10E9447
:10411000922288E11CC082EE0E9492221AC080EE98
:104120000E94922281EE0E94922288E10E949222B5
:1041300088E10E945A2381EE0E945A2380EE07C034
:1041400082EE0E94922287E50E94922287E50E94D9
:104150005A238FE39CE90197F1F700C0000008950E
:1041600080913403813029F010F0823041F482EEE6
:1041700004C08CE20E9492228CE20E945A23809119
:10418000E30381FF03C081EE0E9492228091E3034A
:1041900085FF03C085EE0E9492228091E30380FF99
:1041A00003C080EE0E9492228091E30384FF03C04B
:1041B00084EE0E9492228091E30382FF03C082EE8C
:1041C0000E9492228091E30386FF03C086EE0E9444
:1041D00092228091E30383FF03C083EE0E94922228
:1041E0008091E30387FF03C087EE0C949222089529
:1041F000FF920F931F93CF93DF938C01CCE0D0E01D
:10420000C8010C2E02C0969587950A94E2F7282FD4
:104210002F70F22E822F0E94D01C0E9492228F2D8E
:104220000E94D01C0E945A232497CC3F8FEFD807BE
:1042300039F7DF91CF911F910F91FF9008959093DF
:104240003A03809339030895E0913903F0913A03DA
:10425000309721F00190F081E02D099480E00895DD
:10426000E0913903F0913A03309721F00280F38115
:10427000E02D099408952091370330913803821777
:10428000930771F09093380380933703E0913903DB
:10429000F0913A03309721F00680F781E02D0994E0
:1042A000089520913503309136038217930771F0FA
:1042B0009093360380933503E0913903F0913A03EC
:1042C000309721F00084F185E02D09940895089538
:1042D0000C9467210E94AB2D0E94BC160E94322EC6
:1042E000E8EEF3E08081806880830895CF92DF92CA
:1042F000EF92FF920F931F93CF93DF93CDB7DEB76B
:104300002B970FB6F894DEBF0FBECDBF0E94E31609
:104310003CE3E32E33E0F32E00E010E0C02E802FCC
:104320000E94E117F701D1907F01D826B1F40F5F09
:104330001F4F0E30110591F78FEF89838A831B82FF
:104340000E94B42D8160782F9D838C8349815A818E
:104350006B818D810E94532241C09091BE0391FFD9
:1043600004C08B870E94E7178B8520E030E04D2D3D
:1043700050E0922FBA01022E02C0759567950A94FB
:10438000E2F760FF25C02E83CF82EE24E394F12C68
:1043900002C0EE0CFF1C9A95E2F790E08E219F215F
:1043A00021E0892B09F420E028870E94B42D816048
:1043B000782F9A8789874E815F8168858A850E94D8
:1043C0005322F801E45CFC4F80818E25808306C077
:1043D0002F5F3F4F2630310561F6A9CF10913B0387
:1043E0000E9424211817A1F00E94242180933B03EE
:1043F0002B960FB6F894DEBF0FBECDBFDF91CF91E5
:104400001F910F91FF90EF90DF90CF900C94E01CE4
:104410002B960FB6F894DEBF0FBECDBFDF91CF91C4
:104420001F910F91FF90EF90DF90CF900895DC01E6
:1044300011964C9111975C91852F90E021E030E02E
:1044400001C0220F5A95EAF712966C91129750E02C
:10445000662319F06091580305C0FA01E65BFC4F32
:10446000608162236623B9F036E0349FF001359F06
:10447000F00D1124E80FF91FEE0FFF1FE159FE4F59
:10448000808191818D939C93FA01E65BFC4F808142
:10449000822B80830895FA01E65BFC4F2095808192
:1044A000282320830895CF93DF93CDB7DEB72B97D2
:1044B0000FB6F894DEBF0FBECDBF4F835887698714
:1044C0007A878B878A859B85892B31F05F3F11F036
:1044D00080E003C04F3FE1F781E0811104C0CE01CD
:1044E00007960E941722DE01119686E0FD011192C7
:1044F0008A95E9F785E0FE01379601900D928A953D
:10450000E1F749815A816B817C818D819E810E9476
:1045100013292B960FB6F894DEBF0FBECDBFDF91E7
:10452000CF910895882309F4C4C0823859F40E94B9
:10453000242181FDBEC089E30E94B52B0E94852CF9
:1045400089E30CC0833871F40E94242180FDB1C03E
:1045500083E50E94B52B0E94852C83E50E94F52BF4
:104560000C94852C843859F40E94242182FDA1C02A
:1045700087E40E94B52B0E94852C87E4EFCF9CEF47
:10458000980F913A18F40E94B52BEACF90E2980F59
:10459000983050F4877091E001C0990F8A95EAF73E
:1045A000892F0E94392CDCCF9BE5980F933070F453
:1045B000853A29F0863A31F482E890E005C081E836
:1045C00090E002C083E890E00C943B2198E5980FBE
:1045D000953108F06EC0883A61F1893A69F18A3AFA
:1045E00071F18B3A79F18C3A81F18B3B89F18C3BFB
:1045F00091F18D3A99F1803BA1F18E3AA9F18F3A70
:10460000B1F1813BB9F1823BC1F1833BC9F1843BFC
:10461000D1F1853BD9F1863BE1F1873BE9F1883B5C
:10462000F1F1893BF9F18A3B09F03FC08AE292E05F
:104630003EC082EE90E03BC089EE90E038C08AEE4A
:1046400090E035C085EB90E032C086EB90E02FC063
:1046500083EB90E02CC084EB90E029C087EB90E0E6
:1046600026C08CEC90E023C08DEC90E020C083E865
:1046700091E01DC08AE891E01AC082E991E017C07C
:1046800084E991E014C081E292E011C083E292E0FB
:104690000EC084E292E00BC085E292E008C086E2A0
:1046A00092E005C087E292E002C080E090E00C94C6
:1046B00051210895882309F44BC0823859F40E948F
:1046C000242181FF45C089E30E94B52B0E94852CDF
:1046D00089E30CC0833871F40E94242180FF38C024
:1046E00083E50E94B52B0E94852C83E50E94F52B63
:1046F0000C94852C843859F40E94242182FF28C010
:1047000087E40E94B52B0E94852C87E4EFCF9CEFB5
:10471000980F913A58F390E2980F983050F48770C0
:1047200091E001C0990F8A95EAF7892F0E943F2CEA
:10473000DFCF9BE5980F933020F480E090E00C945D
:104740003B21885A853120F480E090E00C9451217F
:104750000895882321F00E94392C0C94852C08950B
:10476000882321F00E943F2C0C94852C08958F9271
:104770009F92BF92CF92DF92EF92FF920F931F937F
:10478000CF93DF9300D0CDB7DEB74C01472FFC01AC
:10479000E580E2949FE0E922F280FF2031F0798306
:1047A0006A830E94592C6A81498149836A830E94E5
:1047B000AE2B49816A81882389F0FF2079F080E25D
:1047C000860F883058F082E00E94972B0E94AE2B13
:1047D000BB24B394B82649816A8101C0B12CE42F6F
:1047E000E295EF70F0E0E859FF4F0C944335842FC9
:1047F000807F142F1F70882311F01295107FFF20E7
:10480000C1F0112309F48DC180E2860F883010F0C9
:10481000611105C0812F6A830E94392C04C0812F49
:104820006A830E944C2C6A816A830E94852C6A816B
:1048300078C1862F6A830E945A236A81112309F462
:10484000BEC180E2860F883010F0611104C0812F54
:104850000E943F2C03C0812F0E94522C0E94852C65
:10486000AEC1242F207F842F8F70203211F08295CB
:10487000807F662319F06130B9F020C0FF2049F035
:10488000EE2009F404C1F1E0EF1201C10E946C2C8A
:1048900096C1EE2021F091E0E91609F490C18983D8
:1048A0000E946F2C8981F9C0FF2029F0E1E0EE150C
:1048B00008F485C1ECC0E11082C1EFC0FF2021F0F7
:1048C000EE2009F4E4C02DC1EE2009F4E6C02FC1AA
:1048D000242F26952695237030E02115310521F0EF
:1048E0002130310561F06BC1FF2021F0862F942F1C
:1048F000937002C080E090E00E943B2160C1FF20E5
:1049000021F0862F942F937002C080E090E00E94E7
:10491000512155C1842F837009F04EC0F1104FC151
:10492000262F229526952770220F220F862F8F7013
:10493000C82ED12CE12CF12C022E04C0CC0CDD1C95
:10494000EE1CFF1C0A94D2F764FF10C06FE070E009
:1049500080E090E004C0660F771F881F991F2A959A
:10496000D2F7609570958095909503C060E070E0F7
:10497000CB01242F26952695237030E02230310577
:1049800069F02330310589F06C297D298E299F2912
:104990002130310571F00E94642A11C16C297D29F2
:1049A0008E299F290E94762A0AC10E94642AC70183
:1049B000B6010E94522A03C1FF2019F0842F817092
:1049C00001C08695882309F4FAC0262F22952695E2
:1049D0002770220F220F862F8F70C82ED12CE12C2A
:1049E000F12C022E04C0CC0CDD1CEE1CFF1C0A9422
:1049F000D2F764FF10C06FE070E080E090E004C088
:104A0000660F771F881F991F2A95D2F760957095BA
:104A10008095909503C060E070E0CB01242F26952F
:104A20002695237030E02230310569F023303105BE
:104A300089F06C297D298E299F292130310571F05B
:104A40000E94102BBCC06C297D298E299F290E94B1
:104A5000222BB5C00E94102BC701B6010E94FE2A6E
:104A6000AEC0062F10E0F801E05EF109E531F10576
:104A700008F053C0E858FF4F0C944335162F1F70B1
:104A8000842F8F71FF2031F00E94A92A812F0E946C
:104A9000A92395C00E94C42A812F0E94B0238FC0F1
:104AA000FF2039F0E1108BC0842F8F710E94E32A20
:104AB00086C0F1E0FE1508F482C0F6CFFF2039F081
:104AC000842F8F710E94A92A7AC0FF20C9F3842FF6
:104AD0008F710E94C42A73C0FF2029F0842F8F7128
:104AE0000E949A2A6CC00E94952A69C0FF2051F04A
:104AF000142F1F71812F0E94A92A63E0812F0E9429
:104B00008E2B5DC081E00E94972B81E08E1508F00E
:104B100056C082E00E94972B52C0FF2031F0EE2059
:104B200079F2862F0E9492224AC0EE2081F2862FCF
:104B30000E945A2344C04F70C4010E94581A0E9418
:104B4000C0293DC0623FA9F128F4603F49F0613FB0
:104B5000E1F020C0643FA1F050F0653F69F01AC059
:104B6000FF2049F18091580321E0822702C081E0B3
:104B70008F25809358031FC0F1101DC081E0F9CF2D
:104B8000F11019C01092580316C0EE2091F0F110E8
:104B900012C0E8CFEE2069F0862F49836A83FF2098
:104BA00019F00E94922202C00E945A2349816A8110
:104BB00002C0F09258034F70C4010E94E21CBB2057
:104BC000F1F00E948A2B80FD1AC0F40112820E942B
:104BD000842B0E94A92AC4010E940D260E94842BC6
:104BE0000F900F90DF91CF911F910F91FF90EF9059
:104BF000DF90CF90BF909F908F900C94C42A0F901D
:104C00000F90DF91CF911F910F91FF90EF90DF9068
:104C1000CF90BF909F908F9008950F931F93CF9345
:104C2000DF93EC01288139818B819C81892B31F0C4
:104C30003F3F11F080E003C02F3FE1F781E0811199
:104C400013C0CE010E947E1B882371F06881798198
:104C50008A810E94802B8C010E94342B0E944F2A53
:104C6000B801CE010E94B723DF91CF911F910F9120
:104C700008950E94592C0E94692C0E94282C0E94A1
:104C8000852C80E090E00E943B2180E090E00C9435
:104C900051210E94492C0C9439260E94752BE92F32
:104CA000E295EF70F0E03297EE30F105B8F4E3579B
:104CB000FF4F0C944335803F59F018F4803E70F458
:104CC00007C0843F59F404C0803E10F0813F31F4A6
:104CD00081E0089593FB882780F9089580E0089586
:104CE000CF93DF9300D000D01F92CDB7DEB70F90E7
:104CF0000F900F900F900F90DF91CF910895CF9369
:104D0000DF9300D000D000D0CDB7DEB726960FB627
:104D1000F894DEBF0FBECDBFDF91CF9108951F93F2
:104D2000CF93DF93C091590316E080915A03C817BF
:104D300099F0D0E01C9FF0011D9FF00D1124E55A61
:104D4000FC4F4081518162817381848195810E94F1
:104D50007F262196C770E9CFDF91CF911F910895EB
:104D600040918B0350918C0360918D0370918E0361
:104D700080918F03909190030C947F26CF93809124
:104D8000900382958F7009F05FC080918D03882316
:104D900009F45AC020915903A0915A0360918B03E2
:104DA00070918C0380918E0390918F0331E06F3F5F
:104DB00009F030E0B32FC6E02A1709F445C0009788
:104DC00021F07F3F21F44B2F03C041E001C040E0C0
:104DD00030E040FD35C0C29FF001C39FF00D1124AB
:104DE000E55AFC4F418174132BC04081641328C0E5
:104DF0004281411125C0438154814817590710F45D
:104E000041505109481B590B483C5105C8F4809149
:104E100090038F7080618093900386E0829FF00101
:104E2000839FF00D1124E05AFC4F80818F708061C8
:104E300080838BE893E00E940D26CF910C948F26FF
:104E40002F5F3F4F2770B8CFCF910895CF92DF9259
:104E5000EF92FF920F931F93CF93DF93CDB7DEB7FF
:104E600062970FB6F894DEBF0FBECDBF8C0185E010
:104E7000F801DE011D9601900D928A95E1F7D801A7
:104E80004C9111965C91119712966C911297139612
:104E9000ED90FC90149770918B03E0918C0320911E
:104EA0008E0330918F032115310531F0EF3F31F43E
:104EB00081E07F3F19F403C081E001C080E0B82F9A
:104EC000B170CB2E80FD6CC1D0908D03DD2009F434
:104ED000F5C0F0919003E216F30638F0C701821B8B
:104EE000930B883C910548F09BC0209530952E0D82
:104EF0003F1D283C310508F093C08F2F807F09F0BB
:104F000052C0E51314C0741312C0D62E61110FC025
:104F1000FF70F061F09390030E94B0268BE893E05D
:104F20000E940D2680919003F80185836CC1EF28C3
:104F300031F05F3F31F481E04F3F19F403C081E06D
:104F400001C080E080FD03C081E0862701C080E0D1
:104F5000F82FF170FF2E80FF1CC080915903209123
:104F60005A0336E0821709F428C190E0389FF00117
:104F7000399FF00D1124E55AFC4F7181571306C07B
:104F80007081471303C07281671303C00196877055
:104F9000E9CFD62E662309F436C180919003816053
:104FA0008093900353C0E51308C0741306C06111C9
:104FB00004C0D8011596FC93AEC04D875E878D85E1
:104FC0009E856A8B0E944D266A89882329F1D62EF8
:104FD000662311F120919003822F82958F7090E0CB
:104FE00002970CF460C080918B0390918C0398879A
:104FF0008F831986FB86EA862C87CE01079651C0DF
:10500000E51731F14D875E878D859E856A8B0E94FD
:105010004D266A8981112EC0C8010E940D26A4C0A8
:105020008F2F807F69F77E2DF98AE88A89890E940F
:1050300070268BE893E00E940D26EBE8F3E086E013
:10504000DF011D928A95E9F70E94B026D12CDBC0C2
:105050007413D8CF6111D6CFD8011596FC93C8012F
:105060000E940D26EBE8F3E086E0DF011D928A95B1
:10507000E9F7C9C0D62E662379F220919003822FDA
:1050800082958F7090E0029774F080918B039091DD
:105090008C039A8389831B82FD82EC822E83CE014E
:1050A00001960E940D2686E0F801ABE8B3E001907E
:1050B0000D928A95E1F70E94BE266FC0E216F306B4
:1050C00028F0C701821B930B9C0104C020953095EA
:1050D0002E0D3F1D283C310508F052C0D62E662308
:1050E00009F49ACFE5132CC074132AC08091900361
:1050F00080FD1DC0982F92959F70C9F0D80115961C
:105100008C9315979F3039F09F5F9295907F8F70A9
:10511000892B15968C93C8010E940D2686E0F80114
:10512000ABE8B3E001900D928A95E1F736C086E0D6
:10513000F801ABE8B3E001900D928A95E1F763C006
:105140004D875E878D859E850E944D26882379F048
:1051500086E0F801ABE8B3E001900D928A95E1F7A3
:105160000E94BE260E94B026DD24D3944CC08091BC
:105170009003816080939003C8010E940D2643C074
:105180007E2DF98AE88A89890E947026EBE8F3E08F
:1051900086E0DF011D928A95E9F70E94B02633C0B0
:1051A000662309F439CF4D875E878D859E850E94E1
:1051B0004D26882309F430CFCBCF4D875E878D8570
:1051C0009E850E94752B292F22952F7030E022306A
:1051D00031052CF49F7041F0811106C00CC02430C1
:1051E00031052CF49F7049F4805E883020F0C801AE
:1051F0000E940D26CF2CDC2C06C0D80115969C9160
:10520000907F91F7F8CF8D2D62960FB6F894DEBFA0
:105210000FBECDBFDF91CF911F910F91FF90EF9007
:10522000DF90CF9008951F93CF93DF93CDB7DEB774
:105230002C970FB6F894DEBF0FBECDBF4F835887B3
:1052400069877A878B879C87CE0107960E942627DD
:105250008823C1F02F8138858A859B85892B31F081
:105260003F3F11F080E003C02F3FE1F781E0811163
:1052700047C04F81588569857A858B859C850E94BA
:105280007F263EC086E0FE013796DE011196019032
:105290000D928A95E1F7FF81E8854A855B85411586
:1052A000510531F0EF3F31F481E0FF3F19F403C0C5
:1052B00081E001C080E080FD23C020915A0330E0EE
:1052C000C9010196877099276091590370E086178C
:1052D0009707F1F1F983EA835D834C8396E0929F0F
:1052E000D001939FB00D1124A55ABC4FFE013196F9
:1052F00001900D929A95E1F780935A030E948F26B0
:1053000016E08091590390915A03891779F1189FFB
:10531000C0011124855A9C4F0E942627882331F111
:10532000E09159031E9FF0011124E55AFC4F408182
:10533000518162817381848195810E947F26809151
:10534000590390E001968770992780935903D9CF2C
:105350000E94492610925A0310925903EBE8F3E099
:1053600086E0DF011D928A95E9F7CACF2C960FB629
:10537000F894DEBF0FBECDBFDF91CF911F9108958E
:10538000EF92FF920F931F93CF93DF939C010097AF
:1053900009F471C0F12CEE24E394E9012196F9019E
:1053A0008491843740F4843008F056C0813081F015
:1053B000823021F160C0853709F449C0C0F19CE713
:1053C000980F903708F057C08F770E945A2346C035
:1053D00089010E5F1F4FFE01849190E2980F983073
:1053E00050F48770FE2D01C0FF0F8A95EAF78F2FCA
:1053F0000E945C2C15C00E94922214C089010E5F8D
:105400001F4FFE01849190E2980F983068F48770E6
:10541000FE2D01C0FF0F8A95EAF78F2F0E94622CA4
:105420000E94852CE8011AC00E945A23FBCF2E5FF0
:105430003F4FFE01C491CC2341F08FE99FE00197DB
:10544000F1F700C00000C150F6CFE90107C0FE012E
:10545000F490E901229602C00E9492228F2D8823A7
:1054600041F0EFE9FFE03197F1F700C00000815013
:10547000F6CF9E0192CFDF91CF911F910F91FF90B8
:10548000EF90089508950E94422A609395037093C7
:10549000960380939703909398030C94392608956C
:1054A0000C94432A0F931F93009195031091960338
:1054B0002091970330919803602B712B822B932BB3
:1054C0001F910F910C94432A0F931F930091950302
:1054D00010919603209197033091980360237123D4
:1054E000822393231F910F910C94432A0F931F93B0
:1054F00000919503109196032091970330919803A2
:1055000060277127822793271F910F910C94432ABC
:1055100008950E94882A6093910370939203809368
:105520009303909394030C94392660E070E0CB01D0
:105530000C94892A41E050E060E070E004C0440F20
:10554000551F661F771F8A95D2F7CB01BA010C94BD
:10555000892A41E050E060E070E004C0440F551F2C
:10556000661F771F8A95D2F78091910390919203DD
:10557000A0919303B0919403482B592B6A2B7B2B5A
:10558000CB01BA010C94892A41E050E060E070E060
:1055900004C0440F551F661F771F8A95D2F74095A8
:1055A0005095609570958091910390919203A09190
:1055B0009303B0919403482359236A237B23CB019F
:1055C000BA010C94892A41E050E060E070E004C028
:1055D000440F551F661F771F8A95D2F7809191035C
:1055E00090919203A0919303B09194034827592777
:1055F0006A277B27CB01BA010C94892A0F931F934A
:1056000000919103109192032091930330919403A0
:10561000602B712B822B932B1F910F910C94892A55
:105620000F931F9300919103109192032091930384
:105630003091940360237123822393231F910F9150
:105640000C94892A0F931F93009191031091920358
:105650002091930330919403602771278227932729
:105660001F910F910C94892A0895CF92DF92EF92A7
:10567000FF920F931F93CF93DF93EC01C09095039C
:10568000D0909603E0909703F09098038091910357
:1056900090919203A0919303B0919403C82AD92AC0
:1056A000EA2AFB2A0FE110E0B701A601002E04C090
:1056B00076956795579547950A94D2F740FD05C0B2
:1056C0000150110988F780E007C0BE01802F0E94B9
:1056D000FD1C0197A9F3802FDF91CF911F910F91AE
:1056E000FF90EF90DF90CF900895CF93DF93EC0180
:1056F0000E94352BBE010E94FD1CDF91CF910895C1
:10570000CB010E94752B089580919903859585950D
:1057100085950895809199038770089598E0899FF1
:1057200090011124622B609399030C94A92A409153
:1057300099038095842380939903982F977069F437
:1057400050E0282F332727FD30954217530729F0C3
:105750008595859585950C94C42A08959091990313
:10576000977081E009F480E00895909136019923C3
:10577000D9F09091E80397FF17C0982F96959695CA
:1057800096959F3188F5E0912A01F0912B01E90F60
:10579000F11D877021E030E001C0220F8A95EAF701
:1057A0008181822B8183089540912A0150912B01A0
:1057B00020E030E09FEFFA01E20FF31F62816817EB
:1057C00099F09F3F19F4611101C0922F2F5F3F4F55
:1057D0002E31310581F79F3F39F0FA01E90FF11DB4
:1057E00097FDFA9582830895089590913601992343
:1057F000E1F09091E80397FF18C0982F9695969541
:1058000096959F3120F5E0912A01F0912B01E90F47
:10581000F11D877021E030E001C0220F8A95EAF780
:105820002095818128232183089540912A01509158
:105830002B0120E030E0FA01E20FF31F9281981370
:1058400001C012822F5F3F4F2E313105A1F708951D
:1058500081E090E0E0912A01F0912B01E80FF91F1F
:105860001082019680329105A9F708958091BD03B9
:1058700008959091BD03982B9093BD030895809552
:105880009091BD0398239093BD0308958093BD0329
:1058900008951092BD0308959091BC03982B9093A6
:1058A000BC03089580959091BC0398239093BC030A
:1058B00008951092BC0308959091BB03982B909388
:1058C000BB03089580959091BB0398239093BB03ED
:1058D00008951092BB03089580939A03089510923F
:1058E0009A03089540912A0150912B0120E030E065
:1058F00080E0FA01E20FF31F918191118F5F2F5F1A
:105900003F4F2F313105A9F70895E0912A01F09119
:105910002B018091BD038083E0912A01F0912B013E
:1059200080819091BC03892B8083E0912A01F091C2
:105930002B0180819091BB03892B808390919A03E6
:10594000992361F0E0912A01F0912B018081892B4C
:1059500080830E94722C811110929A0380912A01F7
:1059600090912B010C943021CF92DF92EF92FF9215
:105970000F931F936C01EE24FF24C114D104E104A2
:10598000F10421F46B017C0180E001C080E1332748
:105990002F2D1E2D0D2D011511052105310519F095
:1059A000885F6801790197018601A4E03695279503
:1059B00017950795AA95D1F7011511052105310510
:1059C00019F08C5F6801790197018601F2E0369544
:1059D000279517950795FA95D1F70115110521051A
:1059E000310519F08E5F68017901B701A60176953E
:1059F000679557954795452B462B472B09F08F5FA9
:105A00001F910F91FF90EF90DF90CF9008956DEE72
:105A10007EEF80E090E00E94693560E082E090E0F7
:105A20000E94573560E083E090E00E94573560E0C7
:105A300084E090E00E94573560E085E090E00C94AF
:105A4000573580E090E00E94513521E08D3E9E4F19
:105A500009F020E0822F089582E090E00C9449350F
:105A600083E090E00C94493584E090E00C94493553
:105A7000682F84E090E00C9457358091EE038430D9
:105A800021F11092BF0320E488E190E00FB6F89472
:105A9000A895809360000FBE2093600080E00E9474
:105AA000E01C83B7817F846083BF83B7816083BF3D
:105AB0007894889583B78E7F83BF88E10FB6F8947A
:105AC00080936000109260000FBE08950895CF93F8
:105AD0000E94D0160E94E3160E94662DC0E08C2F13
:105AE0000E94E117811105C0CF5FCE30C1F780E081
:105AF00001C081E0CF9108950E9449260E9424218F
:105B00000C94E01C1F920F920FB60F9211248F93EA
:105B10009F93AF93BF938091BF03811113C0809176
:105B2000E4039091E503A091E603B091E703419669
:105B3000A11DB11D8093E4039093E503A093E603B8
:105B4000B093E703BF91AF919F918F910F900FBEDC
:105B50000F901F90189582E084BD93E095BD9AEF59
:105B600097BD80936E0008952FB7F8948091E40359
:105B70009091E503A091E603B091E7032FBF08954C
:105B8000CF92DF92EF92FF920F931F932FB7F8946B
:105B90004091E4035091E5036091E6037091E703BF
:105BA0002FBF6A017B01EE24FF248C0120E030E04E
:105BB000C016D106E206F30610F441505109481B05
:105BC000590BCA011F910F91FF90EF90DF90CF907A
:105BD000089578941F920F920FB60F9211248F930D
:105BE0009F93AF93BF938091E4039091E503A091BD
:105BF000E603B091E7030196A11DB11D8093E40374
:105C00009093E503A093E603B093E703BF91AF91B0
:105C10009F918F910F900FBE0F901F9018950E942B
:105C20003A32F8942FEF87EA91E621508040904075
:105C3000E1F700C0000087E090EBDC018093F70300
:105C40009093F803A093F903B093FA032CE088E152
:105C500090E00FB6F894A895809360000FBE209353
:105C60006000FFCF0E94212D811102C00E94072DEC
:105C70000E942C2D8093BE030E94342D90E09093BF
:105C8000E9038093E8030E94302D682F70E080E0E4
:105C900090E00C94502A8091E003089508950F93AA
:105CA0001F93CF93DF9300D01F92CDB7DEB78C0147
:105CB0000E948B30823011F0843021F583E089839B
:105CC0001B830A8382E08093E9008FEF9091E800C4
