:100000000C94CE120C9412130C9412130C94121321
:100010000C9412130C9412130C9412130C941213CC
:100020000C9412130C9412130C949D310C946F3297
:100030000C946A2C0C9412130C9412130C9412133B
:100040000C9412130C9412130C9412130C9412139C
:100050000C9412130C94D12C0C9412130C941213B4
:100060000C9412130C9412130C9412130C9412137C
:100070000C9412130C9412130C9412130C9412136C
:100080000C9412130C9412130C9412130C9412135C
:100090000C9412130C9412130C9412130C9412134C
:1000A0000C9412130C9412130C941213B01AB61A67
:1000B000BA1ABD1AC11AC51AC91ACD1AD21AD61A35
:1000C000DA1ADE1AE11AE51AE91AED1AF11AF61A25
:1000D000DF22DF22192319235023C7248A24C724AF
:1000E0007223C724192419248324C724C724C324B2
:1000F00026242624262426242624262426242624B0
:10010000262426242624262426242624262426249F
:10011000382446244D2454245E2443254325562563
:1001200056254C255625562556254325432552252B
:10013000562556255225D432F632E133F632E133D4
:1001400038335B33E133B033C333000000000000C9
:100150000800000000001C0000000000081C000057
:1001600000001600000000000816000000001C1629
:1001700000000000081C1600000000000000000045
:100180001500000000001100000000001511000023
:1001900000000F0000000000150F00000000160016
:1001A000000000000F0F000000000A000000000027
:1001B000150A00000000110A000000000A110000EA
:1001C00000000F0A000000000A15000000000700F0
:1001D00000000000070F0000000006000000000003
:1001E00015060000000011060000000011061500B1
:1001F000000013000000000015130000000016139B
:1002000000000000130F00000000050000000000C7
:100210001505000000000A0A00000000050815008E
:100220000000050F0000000015050F000000000091
:10023000000000000F05000000000B00000000009F
:100240001A00000000001900000000001A11000050
:1002500000001D00000000001A0F00000000160B37
:10026000000000000F19000000000A0B0000000051
:10027000150A0B000000100000000000151000001F
:1002800000001B000000000000000000000016102D
:10029000000000000F1000000000060B000000002E
:1002A00015060B00000011060B00000015190000D8
:1002B0000000130B00000000000000000000160FFB
:1002C000000000000F060B00000009000000000005
:1002D00015090000000010050000000010050815B9
:1002E00000000F0900000000090F000000001013BB
:1002F00000000000131000000000170000000000C4
:10030000151700000000111700000000151117005C
:1003100000000F1700000000170F00000000161764
:10032000000000001516170000000E00000000007D
:10033000150E00000000110E000000001117151C22
:1003400000000E0F00000000000000000000160E6C
:10035000000000000F0E0000000006170000000063
:10036000061500000000170C12110000060F000017
:10037000000013170000000000000000000011162C
:10038000170000000F1300000000060E0000000020
:100390000000000000000517000000000508151708
:1003A0000000060E0F000000060E0F1C00000000EB
:1003B00000000000000000000000170B000000001B
:1003C00015170B00000011170B0000001A170B0087
:1003D00000000F170B0000000000000000001119C2
:1003E00000000000161A081500000A0B1700000094
:1003F0001A0E00000000110A170B00001008111758
:1004000000001B170000000000000000000007179C
:100410000B00000011100811170017060B00000058
:10042000000000000000110F1C0000000000000090
:10043000000013170B000000000000000000160F62
:100440001C00000000000000000009170000000070
:100450000917081500000917081100000000000026
:100460000000000000000000000000000000101369
:1004700017000000131008111700160000000000FC
:1004800015160000000011160000000015111600DE
:1004900000000F1600000000150F160000001616D1
:1004A000000000000F0F160000000A1600000000F8
:1004B000150A16000000110A160000000A111600A5
:1004C000000000000000000000000000000007160F
:1004D0000000000000000000000006160000000000
:1004E00015061600000011060816000000000000A6
:1004F000000013160000000015131600000016136C
:1005000016000000130F081600000516000000007A
:100510001505160000000A0A160000000508151649
:100520000000050F08160000000000000000000099
:10053000000000000F05160000000B160000000070
:100540001A16000000001908160000001A11160003
:1005500000001D08160000001A0F16000000160B00
:10056000081600000F19081600000A0B16000000FC
:10057000000000000000101600000000151016001A
:1005800000001B081600000000000000000016100C
:10059000160000000F101600000007000000000009
:1005A0001507000000001107000000001A070000F6
:1005B0000000130B16000000150F070000001607BF
:1005C000000000000F0700000000070A0000000004
:1005D00000000000000010051600000010050815BE
:1005E00016000000000000000000000000001013D2
:1005F00016000000000000000000171600000000B8
:10060000151716000000111716000000000000006A
:1006100000000F1716000000170F1C00000016172F
:10062000160000001516171600000E160000000038
:10063000150E16000000110E160000001117150C03
:100640000816000000000000000000000000160E68
:10065000160000000F0E160000000617160000001E
:10066000000000000000170C12111600000000002E
:10067000000000000000000000000000000000007A
:10068000000000000F1316000000060E1600000008
:1006900000000000000005171600000005081517EF
:1006A0001600060E0F0816000000000000000000F3
:1006B00000000000000000000000170B1600000002
:1006C00015170B16000011170B1600001A170B1642
:1006D000000000000000000000000000000000001A
:1006E000000000000000000000000A0B17160000C8
:1006F0001A0E16000000110A170B16001008111729
:1007000016000000000000000000000000000717B5
:100710000B16000011100811171607160000000034
:100720001507160000001107160000001A07160032
:10073000000013170B160000150F0716000000002D
:10074000000000000F07160000000000000000007D
:100750000000000000000000000000000000000099
:100760000000000000000000000000000000101366
:1007700017160000131008111716000000000000E3
:10078000080800000000121200000000120800001B
:10079000000004040000000004080000000004122F
:1007A00000000000041C00000000181800000000F9
:1007B00018080000000018120000000008181200BD
:1007C00000001804000000000818040000001218BF
:1007D00004000000181C000000000C0C00000000C9
:1007E0000C08000000000C1200000000080C1200B1
:1007F00000000C0400000000080C04000000120CB3
:10080000040000000C1C000000000C180000000098
:10081000080C180000000C121800000008120C1838
:100820000000040C180000001C08000000001C124E
:10083000000000000812040C180000000000000076
:100840000800000000001200000000000812000074
:100850000000040000000000080400000000120472
:10086000000000001C040000000018000000000050
:1008700008180000000012180000000008121800FC
:100880000000041800000000080418000000120412
:10089000180000001C18000000000C000000000000
:1008A000080C00000000120C0000000008120C00F0
:1008B0000000040C0000000008040C0000001204FA
:1008C0000C0000001C0C00000000180C00000000D0
:1008D00008180C00000012180C0000001C0000009A
:1008E000000004180C000000081C00000000121C8E
:1008F000000000001C0000000000000000000000DC
:100900001100000000001500000000000F000000B2
:1009100000001A00000000001000000000001A157E
:10092000000000001015000000000B000000000097
:100930001C0000000000150B000000000F1C000050
:1009400000001A0B00000000101C000000001A0B31
:100950000815000000000000000006000000000074
:100960001D0000000000061500000000060F00003A
:100970000000130000000000131100000000131518
:1009800000000000130F00000000060B0000000034
:10099000061C00000000060B1500000006151C00D8
:1009A0000000130B00000000131C00000000130BDC
:1009B00015000000130B0F000000170000000000DE
:1009C00019000000000017150000000014000000CE
:1009D0000000171A000000000D00000000000000D9
:1009E000000000000D0815000000170B00000000BB
:1009F000171C00000000170B1500000017151C0045
:100A000000000E00000000000E11000000000E1596
:100A1000000000000E0F00000000070000000000B2
:100A200007081900000007150000000007080F0064
:100A30000000071A00000000070810000000070867
:100A40001500000000000000000009000000000088
:100A5000071C00000000091500000000090F00003D
:100A60000000050000000000051C00000000051546
:100A700000000000050F000000000400000000005E
:100A8000041100000000041500000000040F000025
:100A90000000041A00000000041000000000000024
:100AA00000000000040F0F000000040B0000000015
:100AB000041C0000000004151000000000000000ED
:100AC0000000041A0B0000000411070000000000E1
:100AD00000000000040F10000000040600000000E9
:100AE000041D0000000004061500000004060F00AD
:100AF00000000413000000000410100000000413A4
:100B00001500000004130F00000004060B00000095
:100B10000406060000000406061500000406060F81
:100B2000000004130B00000000000000000004138C
:100B30000B1500000000000000000417000000007A
:100B40000419000000000417150000000414000040
:100B50000000041717000000040D00000000041737
:100B600017150000040F1A00000004170B00000006
:100B700004111700000004170B0F000004111715D3
:100B80000000040E0000000004060E11000000002A
:100B9000000000000000000000000407000000004A
:100BA00004071900000004071500000004061400E3
:100BB00000000407070000000407100000000407FD
:100BC000071500000407070F0000040900000000DB
:100BD00004090900000004091500000004090F00C1
:100BE000000004050000000004051C0000000405CE
:100BF0001500000004050F000000160000000000B2
:100C0000161100000000160815000000160F000065
:100C10000000161A0000000016100000000000007E
:100C200000000000000000000000160B00000000A3
:100C3000161C00000000160B15000000160F1C000B
:100C400000000000000000000000000000000000A4
:100C50000000000000000000000016060000000078
:100C60001616000000001606150000000000000027
:100C70000000161300000000000000000000161322
:100C80001500000016130F00000016060B000000F0
:100C90000000000000000000000000000000000054
:100CA000000016130B00000016131C0000000000CB
:100CB0000000000000000000000016170000000007
:100CC0001619000000001617150000001614000089
:100CD00000001B00000000000000000000001B15C9
:100CE00000000000160815190000000000000000B8
:100CF00016171C0000000000000000001617151C4D
:100D00000000160E000000001B1C00000000000088
:100D1000000000000000000000000A0000000000C9
:100D20000A11000000000A15000000000A0F000070
:100D300000000A1A0000000000000000000000008F
:100D4000000000000000000000000A0B000000008E
:100D50000A1C00000000000000000000000000006D
:100D60000000000000000000000000000000000083
:100D70000000000000000000000004160000000059
:100D800004111100000004151500000004160F00E6
:100D90000000000000000000041610000000000029
:100DA0000000000000000000000004160B0000001E
:100DB00004161C00000000000000000000000000FD
:100DC0000000000000000000000000000000000023
:100DD00000000000000000000000041606000000F3
:100DE000041616000000041606150000040F160075
:100DF0000000041613000000041313000000041385
:100E0000131500000413130F000000000000000081
:100E100000000000000000000000000000000000D2
:100E200000000416130B00000416130B1C00000036
:100E30000000000000000000000004161700000081
:100E40000411190000000415170000000416140016
:100E50000000041B00000000000000000000000073
:100E6000000000000000000000000416170B000046
:100E7000000000000000000000000000041117083E
:100E8000150004160E000000000000000000000025
:100E900000000000000000000000040A0000000044
:100EA000040A11000000040A15000000040A0F00E3
:100EB0000000040A0A00000004070D000000040AF4
:100EC0000A150000040A0A0F0000040A0B000000C3
:100ED0000409170000000409091500000409090F9E
:100EE00000000405050000000000000000000405EB
:100EF00005150000000000000000000012001800AE
:100F000018000C0018001800180000000000000075
:100F10002B0000000000280000000000000000007E
:100F2000000000000000000000003400000000008D
:100F300000003700000000000000340050000000F6
:100F40000000300200000000000034020000000039
:100F50000000300250000000000034025000000089
:100F6000000027020000000000003702000000001F
:100F7000000027025000000000003702500000006F
:100F80000000300000000000000000000000000031
:100F9000000030005000000000002C005000000055
:100FA000000037000000000000003400370000009F
:100FB0000000330200000000000034003700DA5C5B
:100FC000000030023700000000003402370000004B
:100FD000000030023700DA5C000034023700DA5CCF
:100FE0000000270237000000000025023800000042
:100FF000000027023700DA5C000025023800DA5CC6
:101000000000300037000000000000000000000079
:10101000000030003700DA5C000000000000000033
:101020000000360000000000000034003600000020
:1010300000002E0000000000000034003600DA5CE2
:1010400000003002360000000000340236000000CC
:10105000000030023600DA5C000034023600DA5C50
:1010600000002702360000000000370236000000B2
:10107000000027023600DA5C000037023600DA5C36
:1010800000003000360000000000000000000000FA
:10109000000030003600DA5C0000000000000000B4
:1010A00000003300000000000000340033000000A6
:1010B0000000330233020000000034003300DA5C29
:1010C0000000300233000000000034023300000052
:1010D000000030023300DA5C000034023300DA5CD6
:1010E00000002702330000000000000000000000A4
:1010F000000027023300DA5C00000000000000005E
:10110000000030003300000000000000000000007C
:10111000000030003300DA5C000000000000000036
:10112000000028000000000000003400280000003B
:101130000000370028000000000000000000000050
:1011400000003002280000000000340228000000E7
:10115000000028003002DB5C0000000000000000FE
:1011600000002702280000000000370228000000CD
:10117000000028002702DB5C0000000000000000E7
:101180000000300028000000000000000000000007
:10119000000028003000DB5C0000000000000000C0
:1011A000000037002800000000003400370028004D
:1011B00000003302280000000000000000000000D2
:1011C00000003002370028000000340237002800F9
:1011D000000000000000000000000000000000000F
:1011E00000002702370028000000250238002800F0
:1011F00000000000000000000000000000000000EF
:10120000000030003700280000000000000000004F
:1012100000000000000000000000000000000000CE
:1012200000003600280000000000340036002800CE
:1012300000002E0028000000000000000000000058
:10124000000030023600280000003402360028007A
:10125000000000000000000000000000000000008E
:101260000000270236002800000037023600280060
:1012700000004D00280000000000000000000000F9
:1012800000003000360028000000000000000000D0
:10129000000000000000000000000000000000004E
:1012A0000000330028000000000034003300280054
:1012B000000033023302280000000000000000009C
:1012C0000000300233002800000034023300280000
:1012D000000000000000000000000000000000000E
:1012E000000027023300280000000000000000007A
:1012F00000000000000000000000000000000000EE
:101300000000300033002800000000000000000052
:1013100000000000000000000000000000000000CD
:101320000000270000000000000000000000000096
:1013300000001E000000000000000000000000008F
:10134000000000000000000000000000000000009D
:10135000000000000000000000000000000000008D
:1013600000001F000000000000000000000000005E
:10137000000020000000000000000000000000004D
:10138000000000000000000000000000000000005D
:10139000000000000000000000000000000000004D
:1013A000000000000000000000000000000000003D
:1013B000000000000000000000000000000000002D
:1013C000000000000000000000000000000000001D
:1013D000000000000000000000000000000000000D
:1013E00000000000000000000000000000000000FD
:1013F00000000000000000000000000000000000ED
:1014000000000000000000000000000000000000DC
:1014100000000000000000000000000000000000CC
:10142000000021000000000000000000000000009B
:10143000000022000000000000000000000000008A
:10144000000000000000000000000000000000009C
:10145000000000000000000000000000000000008C
:101460000000230000000000000000000000000059
:101470000000240000000000000000000000000048
:10148000000000000000000000000000000000005C
:10149000000000000000000000000000000000004C
:1014A000000000000000000000000000000000003C
:1014B000000000000000000000000000000000002C
:1014C000000000000000000000000000000000001C
:1014D000000000000000000000000000000000000C
:1014E00000000000000000000000000000000000FC
:1014F00000000000000000000000000000000000EC
:1015000000000000000000000000000000000000DB
:1015100000000000000000000000000000000000CB
:101520000000250000000000000000000000000096
:101530000000260000000000000000000000000085
:10154000000000000000000000000000000000009B
:10155000000000000000000000000000000000008B
:1015600000001E0027000000000000000000000036
:1015700000001E001E00000000000000000000002F
:10158000000000000000000000000000000000005B
:10159000000000000000000000000000000000004B
:1015A000000000000000000000000000000000003B
:1015B000000000000000000000000000000000002B
:1015C000000000000000000000000000000000001B
:1015D000000000000000000000000000000000000B
:1015E00000000000000000000000000000000000FB
:1015F00000000000000000000000000000000000EB
:1016000000000000000000000000000000000000DA
:1016100000000000000000000000000000000000CA
:1016200000001E001F00000000000000000000007D
:1016300000001E002000000000000000000000006C
:10164000000000000000000000000000000000009A
:10165000000000000000000000000000000000008A
:1016600000001E002100000000000000000000003B
:1016700000001E002200000000000000000000002A
:10168000000000000000000000000000000000005A
:10169000000000000000000000000000000000004A
:1016A000000000000000000000000000000000003A
:1016B000000000000000000000000000000000002A
:1016C000000000000000000000000000000000001A
:1016D000000000000000000000000000000000000A
:1016E00000000000000000000000000000000000FA
:1016F00000000000000000000000000000000000EA
:1017000000000000000000000000000000000000D9
:1017100000000000000000000000000000000000C9
:101720000000000000000000000034000000000085
:1017300000002C000000000000002B000000000052
:1017400000002F0200000000000034020000000032
:1017500000003702000000000000370237020000DE
:101760000000260200000000000036020000000019
:1017700000002D0037020000000036023602000093
:1017800000002F000000000000000000000000002A
:1017900000003802000000000000200200000000ED
:1017A00000002E02000000000000350000000000D4
:1017B00000003502000000000000370000000000BB
:1017C00000002E022E0200000000000000000000B9
:1017D0000000240200000000000024022402000097
:1017E00000003100000000000000000000000000C8
:1017F000000031003100000000001F020000000066
:1018000000000000000000000000000000000000D8
:1018100000000000000000000000000000000000C8
:1018200000002D000000000000000000000000008B
:1018300000002E0000000000000021020000000057
:1018400000003800000000000000380038000000F0
:1018500000002614000000000000380038003800A6
:1018600000002D002D00000000000000000000001E
:1018700000002D02000000000000210226020000EE
:1018800000003800250200000000000000000000F9
:10189000000038002502250200003800380038001A
:1018A00036022502000000000000000000000000D9
:1018B00000001E02000000000000370025020000AA
:1018C00000002502380000000000000000000000B9
:1018D0000000000000000000000021022F020000B4
:1018E00000002502260200000000000000000000A9
:1018F0000000310200000000000025023700250230
:1019000000002202000000000000000000000000B3
:101910000000310231020000000000000000000061
:101920000000D95C00000000000000000000000082
:1019300000004D024C00000000000000000000000C
:101940000000000000000000000000000000000097
:101950000000000000000000000000000000000087
:101960000000000000000000000000000000000077
:101970000000000000000000000000000000000067
:101980000000000000000000000000000000000057
:101990000000000000000000000000000000000047
:1019A0000000000000000000000000000000000037
:1019B0000000000000000000000000000000000027
:1019C0000000000000000000000000000000000017
:1019D0000000000000000000000000000000000007
:1019E00000000000000000000000000000000000F7
:1019F00000000000000000000000000000000000E7
:101A000000000000000000000000000000000000D6
:101A100000000000000000000000000000000000C6
:101A20000000D95CD95C000000000000000000004C
:101A300000000000000000000000000000000000A6
:101A40000000000000000000000000000000000096
:101A50000000000000000000000000000000000086
:101A600000004A024C0000000000000000000000DE
:101A700000004A004D024C00000000000000000081
:101A80000000000000000000000000000000000056
:101A90000000000000000000000000000000000046
:101AA00000002502250200000000000000000000E8
:101AB0000000000000000000000000000000000026
:101AC0000000000000000000000000000000000016
:101AD0000000000000000000000000000000000006
:101AE00000000000000000000000000000000000F6
:101AF00000000000000000000000000000000000E6
:101B000000000000000000000000000000000000D5
:101B100000000000000000000000000000000000C5
:101B2000000027000000000000000000000000008E
:101B300000001E000000000000002900000000005E
:101B400000002F022700000000000000000000003D
:101B50000000000000000000000000000000000085
:101B600000001F0000000000000000000000000056
:101B70000000200000000000000000000000000045
:101B800000002F00270000000000000000000000FF
:101B90000000000000000000000000000000000045
:101BA0000000000000000000000000000000000035
:101BB0000000000000000000000000000000000025
:101BC0000000000000000000000000000000000015
:101BD0000000000000000000000000000000000005
:101BE00000002602270000000000000000000000A6
:101BF00000000000000000000000000000000000E5
:101C000000000000000000000000000000000000D4
:101C100000000000000000000000000000000000C4
:101C20000000210000000000000000000000000093
:101C30000000220000000000000000000000000082
:101C40000000000000000000000000000000000094
:101C50000000000000000000000000000000000084
:101C60000000230000000000000000000000000051
:101C70000000240000000000000000000000000040
:101C80000000000000000000000000000000000054
:101C90000000000000000000000000000000000044
:101CA0000000000000000000000000000000000034
:101CB0000000000000000000000000000000000024
:101CC0000000000000000000000000000000000014
:101CD0000000000000000000000000000000000004
:101CE00000000000000000000000000000000000F4
:101CF00000000000000000000000000000000000E4
:101D000000000000000000000000000000000000D3
:101D100000000000000000000000000000000000C3
:101D2000000025000000000000000000000000008E
:101D3000000026000000000000000000000000007D
:101D40000000000000000000000000000000000093
:101D50000000000000000000000000000000000083
:101D600000001E002700000000000000000000002E
:101D700000001E001E000000000000000000000027
:101D80000000000000000000000000000000000053
:101D90000000000000000000000000000000000043
:101DA0000000000000000000000000000000000033
:101DB0000000000000000000000000000000000023
:101DC0000000000000000000000000000000000013
:101DD0000000000000000000000000000000000003
:101DE00000000000000000000000000000000000F3
:101DF00000000000000000000000000000000000E3
:101E000000000000000000000000000000000000D2
:101E100000000000000000000000000000000000C2
:101E200000001E001F000000000000000000000075
:101E300000001E0020000000000000000000000064
:101E40000000000000000000000000000000000092
:101E50000000000000000000000000000000000082
:101E600000001E0021000000000000000000000033
:101E700000001E0022000000000000000000000022
:101E80000000000000000000000000000000000052
:101E90000000000000000000000000000000000042
:101EA0000000000000000000000000000000000032
:101EB0000000000000000000000000000000000022
:101EC0000000000000000000000000000000000012
:101ED0000000000000000000000000000000000002
:101EE00000000000000000000000000000000000F2
:101EF00000000000000000000000000000000000E2
:101F000000000000000000000000000000000000D1
:101F100000000000000000000000000000000000C1
:101F2000000000000000000008001500000008008C
:101F3000150000000C0011000A0008001500000048
:101F40000C0011000A000C0011000A0034001000FF
:101F500000003400160000003400070000003400C8
:101F60001900080034001500080034000F000F00AD
:101F70000000000000001100340017000000000005
:101F8000000007000000000000000000000000004A
:101F90000000000000000000000000000000000041
:101FA00000000000000011003400170000000000D5
:101FB000000007000000000000000000000000001A
:101FC0000000000000000000000000000000000011
:101FD0000000000000000000000000000000000001
:101FE00000000000CE5CCE5CD05CCE5CD05CD05CEF
:101FF000D15CCE5CCD5CCF5C0000D15C0000000009
:102000000000D45C000000000000000000000000A0
:102010000000D05C00000000000000000000000094
:1020200000000000000000000000000000000000B0
:1020300000000000000000000000000000000000A0
:102040000000D55C0000000000000000000000005F
:102050000000000000000000000000000000000080
:102060000000240221022B00D65CE00000002F00BB
:10207000140004001D00240200002F021A001500A5
:102080001B00E2002A003002090016000600520080
:1020900028002602130017001900510046002E00E8
:1020A0000A000700050000000351E300490000009A
:1020B00029000000035301532A00000028000000FB
:1020C000035325020D000B000E00000003512702F0
:1020D0000F0011001000500000002E021800080030
:1020E00036004F002C0030001C000C00370031007F
:1020F0004C001E023300120034001F0200002002B8
:1021000038002D00D65CE40000003A00E200E00058
:10211000CC5CCC5C00003B002B00CC5CCC5CCC5C91
:10212000CC5C3C00CC5CCC5CCC5CCC5CCC5C3D0046
:10213000CC5CCC5CCC5C0100CC5C3E00CC5CCC5C70
:10214000CC5C0100CC5C3F00CC5CCC5CCC5C000087
:10215000CC5CE300CC5C0000CC5C0000CC5C0100FB
:10216000CC5C0000CC5C0000CC5C4000CC5CCC5C67
:10217000CC5C0000CC5C4100CC5CCC5CCC5C010055
:10218000CC5C4200CC5CCC5CCC5C0100CC5C430001
:102190002A00CC5CCC5CCC5CCC5C44004C00CC5CBD
:1021A000CC5CCC5CCC5C4500E600E400CC5CCC5C58
:1021B0000000010035000100010001000000D75CB3
:1021C00001000100010022000100D75C01000100B4
:1021D000010001000100D75C0100010001000100C5
:1021E0000100D75C01000100010001000100D75C83
:1021F00001000100010000000100220001000000B8
:1022000001000000010001000100000001000000C9
:102210000100D75C01000100010000000100D75C53
:1022200001000100010001000100D75C0100010074
:10223000010001000100D75C010001000100010064
:102240000100D75C010001000100D75C0100D75CF0
:10225000010001000100010000003A00010001003E
:10226000E100010000003B0001000100010001004D
:1022700001003C00010001000100010001003D00DF
:102280000100010001004B0001003E0001000100BF
:1022900001004E0001003F000100010001000000AC
:1022A0000100005C010000000100000001000000CE
:1022B00001000000010000000100400001000100D9
:1022C00001000000010041000100010001004A007E
:1022D000010042000100010001004D000100430027
:1022E00001000100010001000100440001000100A3
:1022F000010001000100450001000100E5000100AE
:1023000000000000000000000000000000001500B8
:1023100000801400008000000000000000000000A9
:102320000000210000802200008013000080420095
:102330000080000000000000000020000080360047
:102340000080370000804000008000000000120084
:102350000080340000803500008000000000010093
:102360000080000000001100008032000080330077
:10237000008000000000410000800000000010000C
:10238000008030000080310000800000000000006C
:1023900000800000000081000080000000000000BC
:1023A000008000000000000000800000000002002B
:1023B000008000000000020000800000000000001B
:1023C000008000000000700000805000008051007C
:1023D000008000000000000000800000000071008C
:1023E0000080520000805300008000000000420086
:1023F0000080000000007200008054000080550042
:1024000000800000000001000080000000000000CB
:1024100000007300008056000080570000804400D8
:1024200000800000000000000000740000806000D8
:102430000080610000804300008000000000000078
:1024400000000000000062000080620000800000C8
:10245000000016034500720067006F0044006F0023
:102460007800200045005A00000016034500720065
:1024700067006F0044006F007800200045005A009C
:1024800000000403090409025400030100A0FA0932
:102490000400000103010100092111010001224093
:1024A000000705810308000A090401000103000078
:1024B00000092111010001223600070582030800EE
:1024C0000A090402000103000000092111010001B2
:1024D00022390007058303200001120110010000CA
:1024E0000008EDFE071301000102000105010906C5
:1024F000A101050719E029E71500250195087501D7
:1025000081020508190129059505750191029501BA
:10251000750391010507190029F71500250195F8A4
:1025200075018102C005010980A101850216010023
:102530002603001A81002A8300751095018100C0CE
:10254000050C0901A1018503160100269C021A0150
:10255000002A9C02751095018100C005010906A1A1
:1025600001050719E029E715002501950875018186
:102570000295017508810105081901290595057560
:102580000191029501750391010507190029FF15B5
:102590000026FF00950675088100C00011241FBEAB
:1025A000CFEFDAE0DEBFCDBF04B603FE24C08091DA
:1025B000120990911309A0911409B091150987305F
:1025C000904BA740B04BB9F4109212091092130926
:1025D000109214091092150914BE84B7877F84BF26
:1025E00088E10FB6F89480936000109260000FBEEF
:1025F000E0E0FFE3099512E0A0E0B1E0E2EDF8E6EB
:1026000002C005900D92A832B107D9F719E0A8E2EF
:10261000B2E001C01D92A231B107E1F70E94D12EB4
:102620000C9467340C9400001092B9008AE08093F7
:10263000B800089594EA9093BC009091BC0097FF75
:10264000FCCF9091B900987F983021F0903111F033
:1026500081E008958093BB0084E88093BC00809162
:10266000BC0087FFFCCF8091B900887F883111F0D2
:10267000803471F780E0089584E98093BC008091F4
:10268000BC0084FDFCCF08958093BB0084E8809358
:10269000BC008091BC0087FFFCCF9091B900987F6F
:1026A00081E0983209F480E0089584E88093BC00CA
:1026B0008091BC0087FFFCCF8091BB00089580B360
:1026C0008C7080BB81B3836F81BB08958091290199
:1026D000811115C080E40E941A1380932901811191
:1026E0000CC082E10E94441380932901811105C02E
:1026F0008FEF0E944413809329010E943C1384B100
:10270000807F84B985B1807F85B98AB1837F8AB99A
:102710008BB1837F8BB93E984698089508950C94A9
:10272000321A0E94A81E809329010E9466130E94FB
:102730005F13E7E3F2E0A9E2B2E011921D9282E0BA
:10274000E534F807D1F70C94B11B0E94A81E8093C2
:1027500029010E9466130E945F13E7E3F2E0A9E2F9
:10276000B2E011921D9282E0E534F807D1F70895A6
:102770008F929F92BF92CF92DF92EF92FF920F9330
:102780001F93CF93DF931F92CDB7DEB780912901BE
:10279000882379F0809128028F5F8093280281112D
:1027A00008C00E94A81E80932901811102C00E94C6
:1027B0003A1E09E212E0812C912CEE24E394F12CD4
:1027C000DD24D39495E0C92E282D273030F5809153
:1027D0002901811142C080E489820E941A138093EA
:1027E00029012981811114C082E10E944413809340
:1027F0002901298181110CC0C701082C01C0880F53
:102800000A94EAF780950E94441380932901298154
:1028100029830E943C13298120C02A30A1F028F48A
:10282000283059F0293061F005C02C3089F070F063
:102830002D3089F0209A289810C0219A29980DC02F
:10284000229A2A980AC0239A2B9807C0529A01C04C
:10285000539A5B9802C03E9A469830EA3A95F1F74F
:10286000273018F580912901811144C080E40E942D
:102870001A1380932901882311F0B12C12C083E12F
:102880000E944413809329018111F7CF81E40E94B3
:102890001A13809329018111F0CF0E945513B82E8D
:1028A000B0940E943C138B2D26C08FB181708D2572
:1028B000799B02C090E001C092E0892B7C9B02C012
:1028C00090E001C094E0892B7D9B02C090E001C0A4
:1028D00098E0892B7E9B02C090E001C090E1892B9B
:1028E0009FB19095991F9927991F9295990F907E66
:1028F000892B01C080E0F8019081981719F080833E
:10290000C09200010E946613FFEF8F1A9F0A0F5FAB
:102910001F4F3EE08316910409F056CF80910001CD
:102920008823A1F0815080930001882329F085E05D
:102930008A95F1F700000AC0A7E3B2E0E9E2F2E00D
:1029400081918D9332E0E733F307D1F70E94B31BF7
:1029500081E00F90DF91CF911F910F91FF90EF9049
:10296000DF90CF90BF909F908F900895E82FF0E078
:10297000E95CFD4F808108950895FC0191819F706D
:1029800081E009F480E00895262F30E0FC01708199
:10299000A72FA770EA2FF0E0E630F1059CF566233B
:1029A00089F1EE0FFF1F3196E80FF91F40814F703C
:1029B000E1F46F709081907F962B292F22952F70D4
:1029C0003181832F83708295807F822B8F5F282FA8
:1029D0002F738295807F9F70982B908322952F7004
:1029E000832F8C7F822B8183089550E042175307F9
:1029F00001F351E05A0F5770472F487F452BFC01D8
:102A00004083C4CF0895CF936D3481F018F46832B9
:102A100039F004C0603531F0623531F0C1E007C0F3
:102A2000C4E005C0C2E003C0C3E001C0C0E06C2F39
:102A30000E94C4148C2FCF91089520E030E050E024
:102A4000F901EE0FFF1FE80FF91FDF0111967181E9
:102A5000472F4F7046130AC072957F7011964C91A4
:102A600043704295407F472B540F02C0442329F006
:102A70002F5F3F4F2630310519F7852F089580913C
:102A8000670790916807A0916907B0916A07892B41
:102A90008A2B8B2B69F481E0409163075091640786
:102AA0006091650770916607452B462B472B09F00F
:102AB00080E0817008950F931F93CF93DF931F924F
:102AC000CDB7DEB7182F69830E941E2B082F812FE8
:102AD0000E942E2B6981862F0E947A21802F0F90D1
:102AE000DF91CF911F910F910C942E2B10926B07B9
:102AF000ECE6F7E0108212821182339688E0EC3225
:102B0000F807C1F7089590916B07292F30E0F9017C
:102B1000EE0FFF1FE20FF31FE459F84F808372831B
:102B200061839F5F90936B0708952F923F924F921E
:102B30005F926F927F928F929F92AF92BF92CF924D
:102B4000DF92EF92FF920F931F93CF93DF93CDB756
:102B5000DEB762970FB6F894DEBF0FBECDBF0E94FE
:102B600076150E941E2B8E8782E10E94272B809172
:102B7000F108887F8093F10880E090E0FC01EE0F7F
:102B8000FF1FEE50F74F108221812C7F2183019689
:102B90008630910599F780915A07282F2170622E6F
:102BA000382F32703F8782FB882480F890905E0730
:102BB00080915C0782FF05C080915B07877F8093CF
:102BC0005B0797E1492E91E0592E2AE537E03D87D2
:102BD0002C8700E010E031E03B87E12CF12CAC8544
:102BE000BD858D91BD87AC87882309F40CC121E098
:102BF0002B870115110509F01B86D201ED91FC917F
:102C0000D801A95CBE4F9C910430110529F46620BF
:102C100019F1EAE7F7E020C003301105B1F4911093
:102C200005C0662019F094E0E2E2F7E1B2E1EB16AC
:102C3000F10421F028E1E216F10471F4282F207448
:102C4000220F8F77822B806407C00530110521F495
:102C5000911002C0611012C3309709F4D4C09230B1
:102C600009F46DC018F4913041F0CDC0933009F4EF
:102C7000AEC0943009F404C3C6C0E80FF11DE80FDC
:102C8000F11D85919491009709F4BDC001301105A3
:102C9000C9F5843D3CE5930789F0853D6CE59607D1
:102CA000D1F4E3EDFCE5F0931601E09315012FEC70
:102CB0003CE53093140120931301A5C082ED9CE5FF
:102CC0009093160180931501ADECBCE5B09314010F
:102CD000A093130198C09C012D5C3C452530310523
:102CE00028F490931401809313018DC09C01225D00
:102CF0003C452230310508F086C090931601809340
:102D0000150181C00230110509F07DC08C3091059C
:102D100049F480915D07806480935D078CE0E82E24
:102D2000F12C71C08231910521F08831910509F0B3
:102D300069C020915D07206820935D0763C09F01F3
:102D400066E0869F200D311D1124398B288BC12C04
:102D5000D12C170181E0281A31087E2CE889F989E5
:102D6000EC0DFD1D9491992309F44DC0033011051C
:102D700041F4943031F4ABEC2A16ACE53A0608F491
:102D8000972DA92EB12CB50182E09A8B0E94831554
:102D90009A89943139F4992029F068E170E082E051
:102DA0000E9483152F85222351F00530110539F437
:102DB000C114D10421F4B50182E00E9483153FEFD4
:102DC000C31AD30A66E0C616D10441F61CC06F01CF
:102DD00096E0899FC00CD11C1124A12CB12CF601C6
:102DE000EA0DFB1D659174916115710561F083E039
:102DF0000E948315A2E0AA0EB11CB6E0AB16B10486
:102E000071F701C07C010F5F1F4F22E0420E511C81
:102E10000930110509F0E3CE40916B07411110C054
:102E200081100CC080911301909114018E3C9C453F
:102E300008F443C082E00E94212B3FC06110F2CF12
:102E40008091150190911601823D6CE5960751F035
:102E5000833D9C4519F000E010E006C0F82C00E02E
:102E600010E003C00CE210E0F12C4423D1F02091DB
:102E70006D0730916E072833310568F4263331052C
:102E8000C8F42832310568F02A32310598F023332E
:102E9000310539F40FC02A34310561F02D34310584
:102EA00049F00115110531F0882009F4DAC14423F5
:102EB00009F4D5C1FF2009F4B5CF212C312CAAE0AB
:102EC0009A2EFE0131967F01B0E5CB2ED12C5E010A
:102ED000FBE0AF0EB11C80916B07281608F0B3C061
:102EE000822D90E08C01000F111F080F191F04594B
:102EF000184FD8018C91833099F0843079F1823069
:102F000009F087C011968C910E947A21F801818185
:102F10000E94422261E081EF98E00E94C4141CC02C
:102F2000D80111965C90119712968C919CEF950D9B
:102F30009A3120F4852D0E947A2103C0652D0E94CC
:102F40005B15852D0E944222652D81EF98E00E943D
:102F50000315813009F05DC033945BC0F701292D62
:102F600011922A95E9F7D80111960D911C911297AB
:102F70000A3DBCE51B0791F00B3DECE51E0799F0FF
:102F8000093DFCE51F07E1F420E533E03A8329839E
:102F90008AE290E09C838B83270134C0DA82C98265
:102FA000DC82CB82F9CFA2E5B0E0BA83A983EDE45D
:102FB000F0E0FC83EB8328E230E03E832D83ECCF0E
:102FC000602F812F0E945B15802F0E944222602F6C
:102FD00081EF98E00E9403158130F1F63394DCCF45
:102FE000602F812F0E945B15802F0E944222602F4C
:102FF00081EF98E00E940315813009F433944A145C
:103000005B0439F0D2010D911D912D0101151105BF
:1030100039F7B1E03B1215C0809113019091140172
:103020008E3CECE59E0721F08F3C9C4539F009C0B1
:103030002DEC3CE5309314012093130182E00E94B3
:10304000272B239448CF332081F080911301909156
:103050001401803D9C4549F48DEC9CE5909314014E
:103060008093130182E00E94272B81EF98E00E9459
:10307000BD148823C9F080914502843611F4109262
:1030800045023091450281E0830F809345022DE097
:103090003203D0011124AA5BBD4FE1EFF8E00190AB
:1030A0000D922A95E1F7D0C0662009F4CDC070904A
:1030B00045027A9477FE02C0E3E67E2E672D8DE00E
:1030C0006802800111240A5B1D4FC8010E94BD14D3
:1030D000882309F4B1C0882009F441C08AE20E9423
:1030E0007A218AE20E944222D8012C91277080E046
:1030F00090E030E0F901E81BF90BEE0FFF1FE00F45
:10310000F11FDF0111964181542F5F705130C9F4D6
:1031100042954F7011962C911197822F8370829552
:10312000807F842B815C982F9F738295807F816044
:103130008C9392959F70822F8C7F892B11968C9304
:1031400007C00196A901481B590B4F3F5F4F91F6ED
:1031500061E0C8010E941D15811176C06AC02B85EF
:10316000222309F471C0D8018C918770A82EB12C4C
:103170007501EE0CFF1CE00EF11E00E010E0BFEF49
:10318000EB1AFB0AC801880F991F4701881A990A90
:10319000C12CD12CD4018C91982F92959F701196AF
:1031A0002C9123702295207F292B30E0C216D30664
:1031B000C4F58F7090E08230910521F13CF40197C5
:1031C00061F58AE20E947A218AE225C08330910566
:1031D000F1F0049711F581EE0E947A2182E50E94B8
:1031E0007A2182E50E9442228DE40E947A218DE4B8
:1031F0000E94422281EE0E9442228CE40E947A21A7
:103200008CE409C08FE40E947A218FE404C081E538
:103210000E947A2181E50E944222EFEFCE1ADE0A57
:10322000B9CF0F5F1F4FC501801B910B019609F0AD
:10323000A9CF7092450208C0882031F08AE20E942E
:103240007A218AE20E9442228E850E942E2BEAE594
:10325000F7E0119227E0E336F207D9F72DC06110AD
:1032600029CE602F80E00E945B15802F0E944222B1
:1032700061E081EF98E00E94C4141CCEE2E2FFE01E
:103280006F0138E0839FC00CD11C1124A12CB12CFC
:10329000F601EA0DFB1D659174916115710509F444
:1032A000B2CD84E00E948315E2E0AE0EB11CF8E0DE
:1032B000AF16B10469F7A7CD62960FB6F894DEBFDA
:1032C0000FBECDBFDF91CF911F910F91FF90EF9077
:1032D000DF90CF90BF90AF909F908F907F906F9036
:1032E0005F904F903F902F900895CF92DF92EF9292
:1032F000FF920F931F93CF93DF93EB01863D2CE555
:10330000920709F474C0873D2CE5920709F485C043
:103310008C3C9C4509F09BC08881E98196E0E99F3F
:10332000F0011124E80FF11DEE0FFF1FEE0FFF1F3C
:10333000EE5FFC4D85919591A591B491B7FF65C065
:103340009C012F70332741E050E060E070E004C042
:10335000440F551F661F771F2A95D2F724E0B695B4
:10336000A795979587952A95D1F78F7090E0DC0106
:10337000A05CBE4FFC01EE0FFF1FEF5FFE4F019000
:10338000F081E02DCA816A017B010C9004C0CC0C55
:10339000DD1CEE1CFF1C0A94D2F7008111812281F2
:1033A0003381CC2379F00C291D292E293F29008354
:1033B000118322833383FC01E65AF84F8081842BEA
:1033C000808323C0B701A601409550956095709504
:1033D0004023512362237323408351836283738389
:1033E0000E943F15882389F00E94951531C089817C
:1033F000811102C081EE01C085EECA81CC2339F073
:103400000E947A2182E00E949129C0E021C00E949E
:10341000422282E00E94AC291BC06881798180E051
:103420000E94CB1B64E170E00E941734FC01EE0F98
:10343000FF1FE75BFE4F60818181CA81CC2319F0B9
:103440000E945B15E2CF862F0E94422201C0C1E09C
:103450008C2FDF91CF911F910F91FF90EF90DF9014
:10346000CF90089560919F087091A0088091A10865
:103470009091A2080E949C2B25982D9826982E9812
:1034800027982F98813029F0833029F4269A2E9A94
:1034900002C0259A2D9A0E943F15811102C0279AD9
:1034A0002F9A089581E008950C9475190E94312592
:1034B0002FEF84E39CE0215080409040E1F700C072
:1034C00000000C94F72C0F931F93CF93DF938C0184
:1034D000FC01C081D181CE010E941D2ABE010E9443
:1034E000CB1BEC01B8010E94541A882309F433C1A4
:1034F000B801CE010E94EE1D882309F42CC1B80149
:10350000CE010E94F71E882309F425C1C531FCE5D0
:10351000DF0708F0A3C0C2308CE5D80708F478C0F4
:10352000F8018281882309F47FC00E94092C81114F
:1035300002C00E94EF2B0E941C2C90E09093040983
:1035400080930309FE01E350FC45E231F10520F4CC
:10355000EA5AFF4F0C942B3480910309816003C019
:10356000809103098260809303094BC08091030915
:103570008460F9CF8091030913C0809103098061B1
:10358000F2CF809103098062EECF809103098064BD
:10359000EACF809103098068E6CF809103098460B7
:1035A0008860E1CF809103098E7FDDCF8091030990
:1035B0008D7FD9CF809103098B7FD5CF809103096F
:1035C00013C0809103098F7ECECF809103098F7D38
:1035D000CACF809103098F7BC6CF809103098F7773
:1035E000C2CF809103098B7F877FBDCF9091030964
:1035F00097FB882780F921E0822780FB97F9909339
:103600000309809103090E94202C0E943125A3C048
:10361000C115ECE5DE0779F0C130DC45A1F081E0B1
:103620008093300880933108C801DF91CF911F91BA
:103630000F910C94521AF8018281882309F48BC0EF
:103640000E94561A88C0F8018281882309F483C039
:103650008091CC0881608093CC087DC0C73C8CE50C
:10366000D80781F5F8018281882361F01092310832
:103670000E949C2C90932F0880932E0880E20E9439
:10368000912269C00E941E2B81FF05C081E08093BA
:103690003008809331088091310881110FC08091EA
:1036A0002E0890912F080E94A82C883C910530F498
:1036B00087E20E947A2187E20E94422280E20E94F1
:1036C000982249C0C83CECE5DE0780F5C63CDC45E5
:1036D00009F0A5CFF8018281882351F010923008BB
:1036E0000E949C2C90932D0880932C0882E0C7CFD9
:1036F0000E941E2B85FF05C081E0809330088093D7
:1037000031088091300881110FC080912C08909170
:103710002D080E94A82C883C910530F486E20E9476
:103720007A2186E20E94422282E0C9CFCA3C8CE51F
:10373000D80731F4F8018281882369F080E009C05C
:10374000CB3CDC4509F06BCFF8018281882319F06E
:1037500082E00E94632F80E0DF91CF911F910F9153
:1037600008950C94921E0C948F13282F882339F0FF
:1037700090E02A3010F44D9608950697089587E258
:1037800090E0089508950C94C21B0C94C31B80E034
:1037900090E00895089596E0799FF001112494E552
:1037A000899FE00DF11D1124E60FF11DEE0FFF1FA3
:1037B000EE59FF4D859194910895880F991F8E5968
:1037C0009F4DFC018591949108950E94CB1B0E940E
:1037D000711D811520E49207B0F5811540E394072F
:1037E00008F0DBC0803E9105D8F4803C910508F0DC
:1037F00069C0883A910578F4853A910508F065C06A
:103800008130910509F46CC108F423C1843091051D
:1038100008F066C11EC18D3B910508F461C019C155
:103820008F3F910509F048F4803F910508F0AFC043
:10383000883E910508F454C10CC1811520E292071D
:1038400008F0A7C00895811544E59407D8F48115C0
:1038500023E5920708F0DCC0811541E5940740F4A8
:10386000811520E5920708F0A2C09F70906A089524
:10387000811542E5940708F0B6C0982F8827816F1C
:10388000906A0895811526E5920750F4811545E563
:10389000940708F0D2C0982F8827846F906A089503
:1038A000811528E5920708F4D4C0811549E59407ED
:1038B00008F4C8C09C0130562115304208F0C9C038
:1038C0009F71C5C0805C910965C0853A910509F476
:1038D000C3C0863A910509F4C2C083E890E4089514
:1038E000883A910509F4BEC0893A910509F4BDC032
:1038F0008A3A910509F4BCC08B3A910509F4BBC022
:103900008C3A910509F4BAC08B3B910509F4B9C012
:103910008C3B910509F4B8C08D3A910509F4B7C004
:10392000803B910509F4B6C08E3A910509F4B5C003
:103930008F3A910509F4B4C0813B910509F4B3C0F5
:10394000823B910509F4B2C0833B910509F4B1C0F3
:10395000843B910509F4B0C0853B910509F4AFC0E3
:10396000863B910509F4AEC0873B910509F4ADC0D3
:10397000883B910509F4ACC0893B910509F4ABC0C3
:103980008A3B910509F0AAC08AE296E40895906501
:1039900008959F700E94DD1B08959C01332793FFBB
:1039A00003C0C901986C0895C901906C0895482F0F
:1039B000437021E030E002C0220F331F4A95E2F746
:1039C0003C68AC0174E0569547957A95E1F74370F1
:1039D000342B8F708695869540E2849FC001112418
:1039E000822B932B0895282F2695269540E2249F1D
:1039F00090011124AC014370552781E090E002C092
:103A0000880F991F4A95E2F7822B932B9C680895A3
:103A1000282F2695269540E2249F90011124AC0181
:103A20004370552781E090E002C0880F991F4A95A6
:103A3000E2F7822B932B9A6808958F719927982F1C
:103A4000882705C0982F8827806F906A0895906214
:103A5000089580E090E0089581E890E4089582E878
:103A600090E4089582EE94E4089589EE94E4089534
:103A70008AEE94E4089585EB94E4089586EB94E44B
:103A8000089583EB94E4089584EB94E4089587EB20
:103A900094E408958CEC94E408958DEC94E40895F6
:103AA00083E895E408958AE895E4089582E995E429
:103AB000089584E995E4089581E296E4089583E207
:103AC00096E4089584E296E4089585E296E40895E4
:103AD00086E296E4089587E296E4089580E094E40F
:103AE00008958238910549F1B0F48133910509F4C4
:103AF00059C048F48932910509F44FC08A329105C2
:103B000009F455C008958533910509F441C08933FE
:103B1000910599F00895833E910531F138F4803E86
:103B2000910591F0823E9105A9F00895863E910598
:103B300001F1873E910539F108952091030920FD97
:103B40003BC021FD39C008958091030980FF34C036
:103B500089E341C08091030982FF32C0809103094B
:103B600084FF2CC080E037C08091030982FD28C00B
:103B7000F5CF8091030983FF25C08091030984FD5F
:103B8000F1CF87EE28C08091030983FD1BC0F5CFDC
:103B90008091030985FF18C019C08091030985FF32
:103BA00015C012C08091030986FF12C013C0809116
:103BB000030986FF0FC00CC080EE0DC083EE0BC062
:103BC00082EE09C086EE07C085E305C089E203C026
:103BD00081E301C08AE290E008950895CF93DF93D6
:103BE000EC01FB018281811102C081E040C0809123
:103BF0003F08811125C0C531DC45B9F70E94ED1D94
:103C000081E080933F080E949C2C90933E08809313
:103C10003D08109232081092340810923308109226
:103C20003608109235081092380810923708109212
:103C30003A081092390810923C0810923B0816C0BE
:103C400080913D0890913E080E94A82C883C9105E7
:103C500060F680913208E82FF0E0EE0FFF1FED5C78
:103C6000F74FD183C0838F5F8093320880E0DF916C
:103C7000CF91089556985E9825982D9826982E985D
:103C800027982F988FEF90E0909389008093880079
:103C900090938B0080938A0090938D0080938C008A
:103CA000259A2D9A2FEF80E792E021508040904096
:103CB000E1F700C00000269A2E9A2FEF80E792E0ED
:103CC000215080409040E1F700C00000279A2F9AD1
:103CD0002FEF80E792E0215080409040E1F700C054
:103CE000000025982D982FEF80E792E0215080402A
:103CF0009040E1F700C0000026982E982FEF80E753
:103D000092E0215080409040E1F700C000002798E9
:103D10002F9856985E9825982D9826982E98279833
:103D20002F98089589EA8093800089E0809381002C
:103D300024982C983F988AB18F7C8AB96E98479ABC
:103D40008BB180638BB9769A0E943A1E0C948E13C5
:103D500080E2809329018091400881110EC00E9469
:103D6000141381E0809340082FEF83ED90E32150FE
:103D700080409040E1F700C0000080E40E941A13E8
:103D80008093290181112EC00E9444138093290140
:103D9000811128C00E94441380932901811122C0FF
:103DA0008FE30E9444138093290181111BC00E945C
:103DB0003C1380E40E941A1380932901811112C0E0
:103DC0008CE00E9444138093290181110BC00E9452
:103DD000441380932901811105C08FE30E9444138D
:103DE000809329010E943C13809129010895CF936B
:103DF000DF93EC01C13080E8D807C8F0FB01828175
:103E00008823A9F080914108811109C08CE090E0DD
:103E10000E9431340E941B1F81E0809341080E9460
:103E2000221FCE019F770E94E01F0E94981F81E011
:103E3000DF91CF91089580934208682F8CE090E045
:103E40000C943F34E0912A01F0912B018081809302
:103E5000FE0881FF03C081EE0E9442228091FE088D
:103E600085FF03C085EE0E9442228091FE0880FFFC
:103E700003C080EE0E9442228091FE0884FF03C0AE
:103E800084EE0E9442228091FE0882FF03C082EEEF
:103E90000E9442228091FE0886FF03C086EE0E94A7
:103EA00042228091FE0883FF03C083EE0E944222DB
:103EB0008091FE0887FF03C087EE0E944222809116
:103EC00042088130A1F078F0823011F1843049F558
:103ED00086EE0E947A2186EE0E94422288E10E94AC
:103EE0007A2188E11CC082EE0E947A211AC080EEFD
:103EF0000E947A2181EE0E947A2188E10E947A2133
:103F000088E10E94422281EE0E94422280EE07C098
:103F100082EE0E947A2187E50E947A2187E50E943D
:103F200042228FE39CE90197F1F700C00000089559
:103F300080914208813029F010F0823041F482EE05
:103F400004C08CE20E947A218CE20E94422280917D
:103F5000FE0881FF03C081EE0E947A218091FE0855
:103F600085FF03C085EE0E947A218091FE0880FFC4
:103F700003C080EE0E947A218091FE0884FF03C076
:103F800084EE0E947A218091FE0882FF03C082EEB7
:103F90000E947A218091FE0886FF03C086EE0E946F
:103FA0007A218091FE0883FF03C083EE0E947A216C
:103FB0008091FE0887FF03C087EE0C947A21089554
:103FC000FF920F931F93CF93DF938C01CCE0D0E04F
:103FD000C8010C2E02C0969587950A94E2F7282F07
:103FE0002F70F22E822F0E94B51B0E947A218F2DF6
:103FF0000E94B51B0E9442222497CC3F8FEFD80726
:1040000039F7DF91CF911F910F91FF900895909311
:104010004808809347080895E0914708F0914808C0
:10402000309721F00190F081E02D099480E008950F
:10403000E0914708F0914808309721F00280F38121
:10404000E02D099408952091450830914608821783
:10405000930771F09093460880934508E0914708D4
:10406000F0914808309721F00680F781E02D0994FF
:10407000089520914308309144088217930771F006
:104080009093440880934308E0914708F0914808D2
:10409000309721F00084F185E02D0994089508956A
:1040A0000C944F200E94932C0E9491130E941A2D71
:1040B000E3E0F9E08081806880830895CF92DF9209
:1040C000EF92FF920F931F93CF93DF93CDB7DEB79D
:1040D0002B970FB6F894DEBF0FBECDBF0E94B8136A
:1040E0003AE4E32E38E0F32E00E010E0C02E802FFB
:1040F0000E94B614F701D1907F01D826B1F40F5F6A
:104100001F4F0E30110591F78FEF89838A831B8231
:104110000E949C2C8160782F9D838C8349815A81D9
:104120006B818D810E943B2141C09091CC0891FF11
:1041300004C08B870E94BC148B8520E030E04D2D9D
:1041400050E0922FBA01022E02C0759567950A942D
:10415000E2F760FF25C02E83CF82EE24E394F12C9A
:1041600002C0EE0CFF1C9A95E2F790E08E219F2191
:1041700021E0892B09F420E028870E949C2C816093
:10418000782F9A8789874E815F8168858A850E940A
:104190003B21F801E65BF74F80818E25808306C0C6
:1041A0002F5F3F4F2630310561F6A9CF10914908A6
:1041B0000E940C201817A1F00E940C20809349083F
:1041C0002B960FB6F894DEBF0FBECDBFDF91CF9117
:1041D0001F910F91FF90EF90DF90CF900C94C51B33
:1041E0002B960FB6F894DEBF0FBECDBFDF91CF91F7
:1041F0001F910F91FF90EF90DF90CF900895DC0119
:1042000011964C9111975C91852F90E021E030E060
:1042100001C0220F5A95EAF712966C91129750E05E
:10422000662319F06091660805C0FA01E85AF74F55
:10423000608162236623B9F036E0349FF001359F38
:10424000F00D1124E80FF91FEE0FFF1FEF58FE4F7E
:10425000808191818D939C93FA01E85AF74F808178
:10426000822B80830895FA01E85AF74F20958081C8
:10427000282320830895CF93DF93CDB7DEB72B9704
:104280000FB6F894DEBF0FBECDBF4F835887698746
:104290007A878B878A859B85892B31F05F3F11F068
:1042A00080E003C04F3FE1F781E0811104C0CE01FF
:1042B00007960E94FF20DE01119686E0FD01119213
:1042C0008A95E9F785E0FE01379601900D928A956F
:1042D000E1F749815A816B817C818D819E810E94A9
:1042E000FB272B960FB6F894DEBF0FBECDBFDF9134
:1042F000CF910895882309F4C4C0823859F40E94EC
:104300000C2081FDBEC089E30E949D2A0E946D2B76
:1043100089E30CC0833871F40E940C2080FDB1C089
:1043200083E50E949D2A0E946D2B83E50E94DD2A71
:104330000C946D2B843859F40E940C2082FDA1C08E
:1043400087E40E949D2A0E946D2B87E4EFCF9CEFAB
:10435000980F913A18F40E949D2AEACF90E2980FA4
:10436000983050F4877091E001C0990F8A95EAF770
:10437000892F0E94212BDCCF9BE5980F933070F49E
:10438000853A29F0863A31F482E890E005C081E868
:1043900090E002C083E890E00C94232098E5980F09
:1043A000953108F06EC0883A61F1893A69F18A3A2C
:1043B00071F18B3A79F18C3A81F18B3B89F18C3B2D
:1043C00091F18D3A99F1803BA1F18E3AA9F18F3AA2
:1043D000B1F1813BB9F1823BC1F1833BC9F1843B2F
:1043E000D1F1853BD9F1863BE1F1873BE9F1883B8F
:1043F000F1F1893BF9F18A3B09F03FC08AE292E092
:104400003EC082EE90E03BC089EE90E038C08AEE7C
:1044100090E035C085EB90E032C086EB90E02FC095
:1044200083EB90E02CC084EB90E029C087EB90E018
:1044300026C08CEC90E023C08DEC90E020C083E897
:1044400091E01DC08AE891E01AC082E991E017C0AE
:1044500084E991E014C081E292E011C083E292E02D
:104460000EC084E292E00BC085E292E008C086E2D2
:1044700092E005C087E292E002C080E090E00C94F8
:1044800039200895882309F44BC0823859F40E94DA
:104490000C2081FF45C089E30E949D2A0E946D2B5C
:1044A00089E30CC0833871F40E940C2080FF38C06F
:1044B00083E50E949D2A0E946D2B83E50E94DD2AE0
:1044C0000C946D2B843859F40E940C2082FF28C074
:1044D00087E40E949D2A0E946D2B87E4EFCF9CEF1A
:1044E000980F913A58F390E2980F983050F48770F3
:1044F00091E001C0990F8A95EAF7892F0E94272B36
:10450000DFCF9BE5980F933020F480E090E00C948F
:104510002320885A853120F480E090E00C943920E3
:104520000895882321F00E94212B0C946D2B08956F
:10453000882321F00E94272B0C946D2B08958F92D5
:104540009F92BF92CF92DF92EF92FF920F931F93B1
:10455000CF93DF9300D0CDB7DEB74C01472FFC01DE
:10456000E580E2949FE0E922F280FF2031F0798338
:104570006A830E94412B6A81498149836A830E9430
:10458000962A49816A81882389F0FF2079F080E2A8
:10459000860F883058F082E00E947F2A0E94962A77
:1045A000BB24B394B82649816A8101C0B12CE42FA1
:1045B000E295EF70F0E0E859FF4F0C942B34842F14
:1045C000807F142F1F70882311F01295107FFF2019
:1045D000C1F0112309F48DC180E2860F883010F0FC
:1045E000611105C0812F6A830E94212B04C0812F95
:1045F0006A830E94342B6A816A830E946D2B6A81D0
:1046000078C1862F6A830E9442226A81112309F4AD
:10461000BEC180E2860F883010F0611104C0812F86
:104620000E94272B03C0812F0E943A2B0E946D2BE2
:10463000AEC1242F207F842F8F70203211F08295FD
:10464000807F662319F06130B9F020C0FF2049F067
:10465000EE2009F404C1F1E0EF1201C10E94542BD5
:1046600096C1EE2021F091E0E91609F490C189830A
:104670000E94572B8981F9C0FF2029F0E1E0EE1557
:1046800008F485C1ECC0E11082C1EFC0FF2021F029
:10469000EE2009F4E4C02DC1EE2009F4E6C02FC1DC
:1046A000242F26952695237030E02115310521F021
:1046B0002130310561F06BC1FF2021F0862F942F4E
:1046C000937002C080E090E00E94232060C1FF2030
:1046D00021F0862F942F937002C080E090E00E941A
:1046E000392055C1842F837009F04EC0F1104FC19D
:1046F000262F229526952770220F220F862F8F7046
:10470000C82ED12CE12CF12C022E04C0CC0CDD1CC7
:10471000EE1CFF1C0A94D2F764FF10C06FE070E03B
:1047200080E090E004C0660F771F881F991F2A95CC
:10473000D2F7609570958095909503C060E070E029
:10474000CB01242F26952695237030E022303105A9
:1047500069F02330310589F06C297D298E299F2944
:104760002130310571F00E944C2911C16C297D293D
:104770008E299F290E945E290AC10E944C29C701E7
:10478000B6010E943A2903C1FF2019F0842F8170DD
:1047900001C08695882309F4FAC0262F2295269514
:1047A0002770220F220F862F8F70C82ED12CE12C5C
:1047B000F12C022E04C0CC0CDD1CEE1CFF1C0A9454
:1047C000D2F764FF10C06FE070E080E090E004C0BA
:1047D000660F771F881F991F2A95D2F760957095ED
:1047E0008095909503C060E070E0CB01242F269562
:1047F0002695237030E02230310569F023303105F1
:1048000089F06C297D298E299F292130310571F08D
:104810000E94F829BCC06C297D298E299F290E94FD
:104820000A2AB5C00E94F829C701B6010E94E629EC
:10483000AEC0062F10E0F801E05EF109E531F105A8
:1048400008F053C0E858FF4F0C942B34162F1F70FC
:10485000842F8F71FF2031F00E949129812F0E94B7
:10486000912295C00E94AC29812F0E9498228FC06E
:10487000FF2039F0E1108BC0842F8F710E94CB296B
:1048800086C0F1E0FE1508F482C0F6CFFF2039F0B3
:10489000842F8F710E9491297AC0FF20C9F3842F41
:1048A0008F710E94AC2973C0FF2029F0842F8F7173
:1048B0000E9482296CC00E947D2969C0FF2051F0AE
:1048C000142F1F71812F0E94912963E0812F0E9474
:1048D000762A5DC081E00E947F2A81E08E1508F073
:1048E00056C082E00E947F2A52C0FF2031F0EE20A5
:1048F00079F2862F0E947A214AC0EE2081F2862F1B
:104900000E94422244C04F70C4010E94C71B0E94F3
:10491000A8283DC0623FA9F128F4603F49F0613FFB
:10492000E1F020C0643FA1F050F0653F69F01AC08B
:10493000FF2049F18091660821E0822702C081E0D2
:104940008F25809366081FC0F1101DC081E0F9CF4C
:10495000F11019C01092660816C0EE2091F0F11007
:1049600012C0E8CFEE2069F0862F49836A83FF20CA
:1049700019F00E947A2102C00E94422249816A8174
:1049800002C0F09266084F70C4010E94CA1BBB208F
:10499000F1F00E94722A80FD1AC0F40112820E9476
:1049A0006C2A0E949129C4010E94F5240E946C2A5D
:1049B0000F900F90DF91CF911F910F91FF90EF908B
:1049C000DF90CF90BF909F908F900C94AC290F9068
:1049D0000F90DF91CF911F910F91FF90EF90DF909B
:1049E000CF90BF909F908F9008950F931F93CF9378
:1049F000DF93EC01288139818B819C81892B31F0F7
:104A00003F3F11F080E003C02F3FE1F781E08111CB
:104A100013C0CE010E94631A882371F068817981E6
:104A20008A810E94682A8C010E941C2A0E943729D0
:104A3000B801CE010E949F22DF91CF911F910F916B
:104A400008950E94412B0E94512B0E94102B0E941E
:104A50006D2B80E090E00E94232080E090E00C9499
:104A600039200E94312B0C9421250E945D2AE92FC8
:104A7000E295EF70F0E03297EE30F105B8F4E357CD
:104A8000FF4F0C942B34803F59F018F4803E70F4A3
:104A900007C0843F59F404C0803E10F0813F31F4D8
:104AA00081E0089593FB882780F9089580E00895B8
:104AB000CF93DF9300D000D01F92CDB7DEB70F9019
:104AC0000F900F900F900F90DF91CF910895CF939B
:104AD000DF9300D000D000D0CDB7DEB726960FB65A
:104AE000F894DEBF0FBECDBFDF91CF9108951F9325
:104AF000CF93DF93C091670816E080916808C817CC
:104B000099F0D0E01C9FF0011D9FF00D1124E75992
:104B1000F74F4081518162817381848195810E9428
:104B200067252196C770E9CFDF91CF911F91089536
:104B30004091990850919A0860919B0870919C0847
:104B400080919D0890919E080C946725CF93809149
:104B50009E0882958F7009F05FC080919B08882322
:104B600009F45AC020916708A091680860919908DB
:104B700070919A0880919C0890919D0831E06F3F58
:104B800009F030E0B32FC6E02A1709F445C00097BA
:104B900021F07F3F21F44B2F03C041E001C040E0F2
:104BA00030E040FD35C0C29FF001C39FF00D1124DD
:104BB000E759F74F418174132BC04081641328C01B
:104BC0004281411125C0438154814817590710F48F
:104BD00041505109481B590B483C5105C8F480917C
:104BE0009E088F70806180939E0886E0829FF0010E
:104BF000839FF00D1124E259F74F80818F708061FF
:104C0000808389E998E00E94F524CF910C94772560
:104C10002F5F3F4F2770B8CFCF910895CF92DF928B
:104C2000EF92FF920F931F93CF93DF93CDB7DEB731
:104C300062970FB6F894DEBF0FBECDBF8C0185E042
:104C4000F801DE011D9601900D928A95E1F7D801D9
:104C50004C9111965C91119712966C911297139644
:104C6000ED90FC90149770919908E0919A0820912A
:104C70009C0830919D082115310531F0EF3F31F44A
:104C800081E07F3F19F403C081E001C080E0B82FCC
:104C9000B170CB2E80FD6CC1D0909B08DD2009F453
:104CA000F5C0F0919E08E216F30638F0C701821BAA
:104CB000930B883C910548F09BC0209530952E0DB4
:104CC0003F1D283C310508F093C08F2F807F09F0ED
:104CD00052C0E51314C0741312C0D62E61110FC058
:104CE000FF70F061F0939E080E94982589E998E092
:104CF0000E94F52480919E08F80185836CC1EF28FD
:104D000031F05F3F31F481E04F3F19F403C081E09F
:104D100001C080E080FD03C081E0862701C080E003
:104D2000F82FF170FF2E80FF1CC080916708209142
:104D3000680836E0821709F428C190E0389FF00136
:104D4000399FF00D1124E759F74F7181571306C0B1
:104D50007081471303C07281671303C00196877087
:104D6000E9CFD62E662309F436C180919E08816072
:104D700080939E0853C0E51308C0741306C06111E8
:104D800004C0D8011596FC93AEC04D875E878D8513
:104D90009E856A8B0E9435256A89882329F1D62E43
:104DA000662311F120919E08822F82958F7090E0EA
:104DB00002970CF460C08091990890919A089887A6
:104DC0008F831986FB86EA862C87CE01079651C011
:104DD000E51731F14D875E878D859E856A8B0E9430
:104DE00035256A8981112EC0C8010E94F524A4C00E
:104DF0008F2F807F69F77E2DF98AE88A89890E9442
:104E0000582589E998E00E94F524E9E9F8E086E070
:104E1000DF011D928A95E9F70E949825D12CDBC00D
:104E20007413D8CF6111D6CFD8011596FC93C80161
:104E30000E94F524E9E9F8E086E0DF011D928A95F9
:104E4000E9F7C9C0D62E662379F220919E08822FF9
:104E500082958F7090E0029774F0809199089091FC
:104E60009A089A8389831B82FD82EC822E83CE016D
:104E700001960E94F52486E0F801A9E9B8E00190C6
:104E80000D928A95E1F70E94A6256FC0E216F306FF
:104E900028F0C701821B930B9C0104C0209530951C
:104EA0002E0D3F1D283C310508F052C0D62E66233A
:104EB00009F49ACFE5132CC074132AC080919E0880
:104EC00080FD1DC0982F92959F70C9F0D80115964E
:104ED0008C9315979F3039F09F5F9295907F8F70DC
:104EE000892B15968C93C8010E94F52486E0F80161
:104EF000A9E9B8E001900D928A95E1F736C086E005
:104F0000F801A9E9B8E001900D928A95E1F763C034
:104F10004D875E878D859E850E943525882379F093
:104F200086E0F801A9E9B8E001900D928A95E1F7D1
:104F30000E94A6250E949825DD24D3944CC0809120
:104F40009E08816080939E08C8010E94F52443C09A
:104F50007E2DF98AE88A89890E945825E9E9F8E0D6
:104F600086E0DF011D928A95E9F70E94982533C0FB
:104F7000662309F439CF4D875E878D859E850E9413
:104F80003525882309F430CFCBCF4D875E878D85BB
:104F90009E850E945D2A292F22952F7030E02230B5
:104FA00031052CF49F7041F0811106C00CC02430F3
:104FB00031052CF49F7049F4805E883020F0C801E0
:104FC0000E94F524CF2CDC2C06C0D80115969C91AC
:104FD000907F91F7F8CF8D2D62960FB6F894DEBFD3
:104FE0000FBECDBFDF91CF911F910F91FF90EF903A
:104FF000DF90CF9008951F93CF93DF93CDB7DEB7A7
:105000002C970FB6F894DEBF0FBECDBF4F835887E5
:1050100069877A878B879C87CE0107960E940E2628
:105020008823C1F02F8138858A859B85892B31F0B3
:105030003F3F11F080E003C02F3FE1F781E0811195
:1050400047C04F81588569857A858B859C850E94EC
:1050500067253EC086E0FE013796DE01119601907D
:105060000D928A95E1F7FF81E8854A855B854115B8
:10507000510531F0EF3F31F481E0FF3F19F403C0F7
:1050800081E001C080E080FD23C02091680830E00D
:10509000C9010196877099276091670870E08617AB
:1050A0009707F1F1F983EA835D834C8396E0929F41
:1050B000D001939FB00D1124A759B74FFE0131962F
:1050C00001900D929A95E1F7809368080E947725E8
:1050D00016E08091670890916808891779F1189F08
:1050E000C00111248759974F0E940E26882331F161
:1050F000E09167081E9FF0011124E759F74F4081A6
:10510000518162817381848195810E94672580919C
:10511000670890E001968770992780936708D9CF38
:105120000E9431251092680810926708E9E9F8E0BA
:1051300086E0DF011D928A95E9F7CACF2C960FB65B
:10514000F894DEBF0FBECDBFDF91CF911F910895C0
:10515000EF92FF920F931F93CF93DF939C010097E1
:1051600009F471C0F12CEE24E394E9012196F901D0
:105170008491843740F4843008F056C0813081F047
:10518000823021F160C0853709F449C0C0F19CE745
:10519000980F903708F057C08F770E94422246C080
:1051A00089010E5F1F4FFE01849190E2980F9830A5
:1051B00050F48770FE2D01C0FF0F8A95EAF78F2FFC
:1051C0000E94442B15C00E947A2114C089010E5FF1
:1051D0001F4FFE01849190E2980F983068F4877019
:1051E000FE2D01C0FF0F8A95EAF78F2F0E944A2BF0
:1051F0000E946D2BE8011AC00E944222FBCF2E5F55
:105200003F4FFE01C491CC2341F08FE99FE001970D
:10521000F1F700C00000C150F6CFE90107C0FE0160
:10522000F490E901229602C00E947A218F2D8823F2
:1052300041F0EFE9FFE03197F1F700C00000815045
:10524000F6CF9E0192CFDF91CF911F910F91FF90EA
:10525000EF90089508950E942A296093A3087093FF
:10526000A4088093A5089093A6080C94212508957E
:105270000C942B290F931F930091A3081091A4085D
:105280002091A5083091A608602B712B822B932BBF
:105290001F910F910C942B290F931F930091A3083A
:1052A0001091A4082091A5083091A60860237123CD
:1052B000822393231F910F910C942B290F931F93FB
:1052C0000091A3081091A4082091A5083091A60888
:1052D00060277127822793271F910F910C942B2908
:1052E00008950E94702960939F087093A00880938E
:1052F000A1089093A2080C94212560E070E0CB01F6
:105300000C94712941E050E060E070E004C0440F6B
:10531000551F661F771F8A95D2F7CB01BA010C94EF
:10532000712941E050E060E070E004C0440F551F77
:10533000661F771F8A95D2F780919F089091A008E9
:10534000A091A108B091A208482B592B6A2B7B2B66
:10535000CB01BA010C94712941E050E060E070E0AB
:1053600004C0440F551F661F771F8A95D2F74095DA
:1053700050956095709580919F089091A008A0919C
:10538000A108B091A208482359236A237B23CB01AB
:10539000BA010C94712941E050E060E070E004C073
:1053A000440F551F661F771F8A95D2F780919F087B
:1053B0009091A008A091A108B091A2084827592770
:1053C0006A277B27CB01BA010C9471290F931F9395
:1053D00000919F081091A0082091A1083091A20887
:1053E000602B712B822B932B1F910F910C947129A1
:1053F0000F931F9300919F081091A0082091A1087E
:105400003091A20860237123822393231F910F916F
:105410000C9471290F931F9300919F081091A0087D
:105420002091A1083091A208602771278227932735
:105430001F910F910C9471290895CF92DF92EF92F2
:10544000FF920F931F93CF93DF93EC01C090A308BB
:10545000D090A408E090A508F090A60880919F083D
:105460009091A008A091A108B091A208C82AD92AB9
:10547000EA2AFB2A0FE110E0B701A601002E04C0C2
:1054800076956795579547950A94D2F740FD05C0E4
:105490000150110988F780E007C0BE01802F0E94EB
:1054A000E51B0197A9F3802FDF91CF911F910F91F9
:1054B000FF90EF90DF90CF900895CF93DF93EC01B2
:1054C0000E941D2ABE010E94E51BDF91CF91089525
:1054D000CB010E945D2A08958091A7088595859546
:1054E000859508958091A7088770089598E0899F11
:1054F00090011124622B6093A7080C94912940918C
:10550000A708809584238093A708982F977069F443
:1055100050E0282F332727FD30954217530729F0F5
:105520008595859585950C94AC2908959091A7084B
:10553000977081E009F480E00895909136019923F5
:10554000D9F09091030997FF17C0982F96959695DB
:1055500096959F3188F5E0912A01F0912B01E90F92
:10556000F11D877021E030E001C0220F8A95EAF733
:105570008181822B8183089540912A0150912B01D2
:1055800020E030E09FEFFA01E20FF31F628168171D
:1055900099F09F3F19F4611101C0922F2F5F3F4F87
:1055A0002E31310581F79F3F39F0FA01E90FF11DE6
:1055B00097FDFA9582830895089590913601992375
:1055C000E1F09091030997FF18C0982F9695969552
:1055D00096959F3120F5E0912A01F0912B01E90F7A
:1055E000F11D877021E030E001C0220F8A95EAF7B3
:1055F0002095818128232183089540912A0150918B
:105600002B0120E030E0FA01E20FF31F92819813A2
:1056100001C012822F5F3F4F2E313105A1F708954F
:1056200081E090E0E0912A01F0912B01E80FF91F51
:105630001082019680329105A9F708958091CB08D8
:1056400008959091CB08982B9093CB08089580955E
:105650009091CB0898239093CB0808958093CB0822
:1056600008951092CB0808959091CA08982B9093B2
:10567000CA08089580959091CA0898239093CA0803
:1056800008951092CA0808959091C908982B909394
:10569000C908089580959091C90898239093C908E6
:1056A00008951092C90808958093A808089510924B
:1056B000A808089540912A0150912B0120E030E084
:1056C00080E0FA01E20FF31F918191118F5F2F5F4C
:1056D0003F4F2F313105A9F70895E0912A01F0914C
:1056E0002B018091CB088083E0912A01F0912B015E
:1056F00080819091CA08892B8083E0912A01F091E2
:105700002B0180819091C908892B80839091A808F2
:10571000992361F0E0912A01F0912B018081892B7E
:1057200080830E945A2B81111092A80880912A012F
:1057300090912B010C941820CF92DF92EF92FF9260
:105740000F931F936C01EE24FF24C114D104E104D4
:10575000F10421F46B017C0180E001C080E133277A
:105760002F2D1E2D0D2D011511052105310519F0C7
:10577000885F6801790197018601A4E03695279535
:1057800017950795AA95D1F7011511052105310542
:1057900019F08C5F6801790197018601F2E0369576
:1057A000279517950795FA95D1F70115110521054C
:1057B000310519F08E5F68017901B701A601769570
:1057C000679557954795452B462B472B09F08F5FDB
:1057D0001F910F91FF90EF90DF90CF9008956DEEA5
:1057E0007EEF80E090E00E94513460E082E090E043
:1057F0000E943F3460E083E090E00E943F3460E02C
:1058000084E090E00E943F3460E085E090E00C94FA
:105810003F3480E090E00E94393421E08D3E9E4F7D
:1058200009F020E0822F089582E090E00C9431345A
:1058300083E090E00C94313484E090E00C943134B7
:10584000682F84E090E00C943F3480910909843003
:1058500021F11092CD0820E488E190E00FB6F89491
:10586000A895809360000FBE2093600080E00E94A6
:10587000C51B83B7817F846083BF83B7816083BF8B
:105880007894889583B78E7F83BF88E10FB6F894AC
:1058900080936000109260000FBE08950895CF932A
:1058A0000E94A5130E94B8130E944E2CC0E08C2FBA
:1058B0000E94B614811105C0CF5FCE30C1F780E0E1
:1058C00001C081E0CF9108950E9431250E940C20F3
:1058D0000C94C51B1F920F920FB60F9211248F9339
:1058E0009F93AF93BF938091CD08811113C0809196
:1058F000FF0890910009A0910109B0910209419619
:10590000A11DB11D8093FF0890930009A093010988
:10591000B0930209BF91AF919F918F910F900FBEED
:105920000F901F90189582E084BD93E095BD9AEF8B
:1059300097BD80936E0008952FB7F8948091FF086B
:1059400090910009A0910109B09102092FBF08951B
:10595000CF92DF92EF92FF920F931F932FB7F8949D
:105960004091FF085091000960910109709102096E
:105970002FBF6A017B01EE24FF248C0120E030E080
:10598000C016D106E206F30610F441505109481B37
:10599000590BCA011F910F91FF90EF90DF90CF90AC
:1059A000089578941F920F920FB60F9211248F933F
:1059B0009F93AF93BF938091FF0890910009A091AE
:1059C0000109B09102090196A11DB11D8093FF0844
:1059D00090930009A0930109B0930209BF91AF9180
:1059E0009F918F910F900FBE0F901F9018950E945E
:1059F0002231F8942FEF87EA91E6215080409040C1
:105A0000E1F700C0000087E090EBDC018093120911
:105A100090931309A0931409B09315092CE088E121
:105A200090E00FB6F894A895809360000FBE209385
:105A30006000FFCF0E94092C811102C00E94EF2B51
:105A40000E94142C8093CC080E941C2C90E0909310
:105A50000409809303090E94182C682F70E080E0ED
:105A600090E00C9438298091EE08089508950F93E2
:105A70001F93CF93DF9300D01F92CDB7DEB78C0179
:105A80000E94732F823011F0843021F583E08983E6
:105A90001B830A8382E08093E9008FEF9091E800F6
:105AA000815095FD06C095ED9A95F1F700008111A2
:105AB000F5CF8091E80085FF0DC040E050E063E045
:105AC00070E0CE0101960E94902F8091E8008E77C1
:105AD0008093E8000F900F900F90DF91CF911F916E
