:100000000C948E0F0C94D20F0C94D20F0C94D20F30
:100010000C94D20F0C94D20F0C94D20F0C94D20FDC
:100020000C94D20F0C94D20F0C94582C0C942A2DB3
:100030000C9425270C94D20F0C94D20F0C94D20F51
:100040000C94D20F0C94D20F0C94D20F0C94D20FAC
:100050000C94D20F0C948C270C94D20F0C94D20FCA
:100060000C94D20F0C94D20F0C94D20F0C94D20F8C
:100070000C94D20F0C94D20F0C94D20F0C94D20F7C
:100080000C94D20F0C94D20F0C94D20F0C94D20F6C
:100090000C94D20F0C94D20F0C94D20F0C94D20F5C
:1000A0000C94D20F0C94D20F0C94D20F6E157415C1
:1000B00078157B157F15831587158B15901594156D
:1000C00098159C159F15A315A715AB15AF15B4155D
:1000D0009A1D9A1DD41DD41D0B1E821F451F821F01
:1000E0002D1E821FD41ED41E3E1F821F821F7E1F04
:1000F000E11EE11EE11EE11EE11EE11EE11EE11E08
:10010000E11EE11EE11EE11EE11EE11EE11EE11EF7
:10011000F31E011F081F0F1F191FFE1FFE1F1120B6
:1001200011200720112011201120FE1FFE1F0D207D
:10013000112011200D208F2DB12D9C2EB12D9C2E24
:10014000F32D162E9C2E6B2E7E2E240221022B00C8
:100150000130E00000002F00140004001D00240204
:1001600000002F021A0015001B00E2002A003002D6
:10017000090016000600520028002602130017008E
:100180001900510046002E000A000700050000007B
:100190000351E3004900000029000000035301530C
:1001A0002A00000028000000035325020D000B0068
:1001B0000E000000035127020F0011001000500034
:1001C00000002E021800080036004F002C003000FE
:1001D0001C000C00370031004C001E0233001200DE
:1001E00034001F020000200238002D000130E4001E
:1001F00000000351E200E000003000300000003059
:100200002B00003000300030003000300030003073
:10021000003000300030003000300030003001008D
:10022000003000300030003000300100003000307D
:10023000003000300030000000302A0000300000A4
:1002400000300000003001000030000000300000ED
:10025000003000300030003000300000003000304E
:10026000003000300030010000300030003000303D
:10027000003001000030003000300030003000302D
:1002800000300030003000300030003000304C00D2
:10029000E600E400003000300000010035000100FD
:1002A00001000100000002300100010001002200F5
:1002B00001000230010001000100010001000230D4
:1002C00001000100010001000100023001000100F5
:1002D00001000100010002300100010001000000E6
:1002E00001002200010000000100000001000100E7
:1002F00001000000010000000100023001000100C7
:1003000001000000010002300100010001000100B5
:100310000100023001000100010001000100023073
:100320000100010001000100010002300100010094
:100330000100023001000230010001000100010053
:100340000000010001000100E100010000003A008E
:10035000010001000100010001003B00010001005B
:100360000100010001003C000100010001004B0000
:1003700001003D000100010001004E0001003E00AF
:10038000010001000100000001003F000100000029
:100390000100000001004000010000000100000019
:1003A00001004100010001000100000001004200C5
:1003B0000100010001004A000100430001000100AA
:1003C00001004D0001004400010001000100010096
:1003D000010045000100010001000100005C000077
:1003E00001000100E5000100000000000000000025
:1003F00000000000000020000080200000800000BD
:100400000000840000800000000030000080210017
:1004100000802100008052000080800000803200B7
:1004200000803100008046000080470000805000BE
:10043000008081000080330000804400008045007F
:100440000080000000001100008082000080340065
:100450000080420000804300008000000000510046
:100460000080830000803500008040000080410053
:100470000080000000001000008000000000B100BB
:10048000008000000000100000800000000010004C
:100490000080000000001200008000000000120038
:1004A0000080000000001000008093000080A50084
:1004B00000806000008061000080000000001000EB
:1004C000008092000080A400008062000080630031
:1004D0000080000000005200008091000080A30016
:1004E00000806400008065000080000000001100B2
:1004F000008090000080A2000080A10000806600C3
:10050000008067000080540000809400008000009C
:100510000000A00000807000008071000080530087
:1005200000800000000000000000000000007200D9
:100530000080720000800000000000000000000049
:1005400000000000000000000000000000000000AB
:10055000000000000000000000000000000000009B
:10056000000000000000000000000000000000008B
:10057000000000000000000000000000000000007B
:10058000000000000000000000000000000000006B
:10059000000000000000000000000000000000005B
:1005A000000000000000000000000000000000004B
:1005B000000000000000000000000000000000003B
:1005C000000000000000000000000000000000002B
:1005D000000000000000000000000000000000001B
:1005E000000000000000000000000000000000000B
:1005F00000000000000000000000000000000000FB
:1006000000000000000000000000000000000000EA
:1006100000000000000000000000000000000000DA
:1006200000000000000000000000000000000000CA
:1006300000000000000000000000000000000000BA
:1006400000000000000000000000000000000000AA
:10065000000000000000000000000000000000009A
:10066000000000000000000000000000000000008A
:10067000000000000000000000000000000000007A
:10068000000000000000000000000000000000006A
:1006900000000000340000000000000000003700EF
:1006A000000000000000000034005000FF1F0000A8
:1006B00000003002000000000000000034020000D2
:1006C00000000000000030025000FF1F000000008A
:1006D00034025000FF1F000000002702000000004D
:1006E00000000000370200000000000000002702A8
:1006F0005000FF1F0000000037025000FF1F0000E5
:1007000000003000000000000000000000000000B9
:1007100000000000000030005000FF1F000000003B
:100720002C00500000000000000037000000000016
:100730000000000034003700000000000000330219
:10074000000000000000000034003700500050009E
:10075000FF1F3002370000000000000034023700A5
:100760000000000000003002370050005000FF1F62
:100770003402370050005000FF1F270237000000EE
:1007800000000000250238000000000000002702E1
:10079000370050005000FF1F250238005000500065
:1007A000FF1F3000370000000000000000000000C4
:1007B0000000000000003000370050005000FF1F14
:1007C00000000000000000000000360000000000F3
:1007D00000000000340036000000000000002E0081
:1007E00000000000000000003400360050005000FF
:1007F000FF1F300236000000000000003402360007
:100800000000000000003002360050005000FF1FC2
:100810003402360050005000FF1F2702360000004F
:100820000000000037023600000000000000270230
:10083000360050005000FF1F3702360050005000B5
:10084000FF1F300036000000000000000000000024
:100850000000000000003000360050005000FF1F74
:100860000000000000000000000033000000000055
:1008700000000000340033000000000000003302DC
:10088000330200000000000034003300500050002C
:10089000FF1F30023300000000000000340233006C
:1008A0000000000000003002330050005000FF1F25
:1008B0003402330050005000FF1F270233000000B5
:1008C00000000000000000000000000000002702FF
:1008D000330050005000FF1F000000000000000027
:1008E00000003000330000000000000000000000A5
:1008F0000000000000003000330050005000FF1FD7
:1009000000000000000000000000000000000000E7
:10091000000000003400000000000000000036006D
:100920000000000000000000330000000000000094
:1009300000002F0200000000000000003402000050
:10094000000000000000370200000000000000006E
:1009500037023702000000000000260200000000FD
:1009600000000000360200000000000000002D0022
:100970003702FF1F000000003602360200000000B0
:1009800000002F0000000000000000000000000038
:10099000000000000000380200000000000000001D
:1009A000200200000000000000002E0200000000F5
:1009B00000000000350000000000000000003502CB
:1009C00000000000000000003700000000000000F0
:1009D00000002E022E0200000000000000000000B7
:1009E00000000000000024020000000000000000E1
:1009F000240224020000000000003100000000007A
:100A000000000000000000000000000000003100B5
:100A100031000000000000001F0200000000000084
:100A200000000000000000000000000000000000C6
:100A300000000000000000000000000000000000B6
:100A4000000000000000000000002D000000000079
:100A500000000000000000000000000000002E0068
:100A60000000000000000000210200000000000063
:100A700000003800000000000000000038003800CE
:100A8000000000000000261400000000000000002C
:100A9000380038003800000000002D002D00000054
:100AA00000000000000000000000000000002D0217
:100AB00000000000000000002102260200000000EB
:100AC00000003800250200000000000000000000C7
:100AD0000000000000003800250225020000000090
:100AE00038003800380036020000250200000000FF
:100AF00000000000000000000000000000001E02D6
:100B00000000000000000000370025020000000087
:100B10000000250238000000000000000000000076
:100B200000000000000000000000000000000000C5
:100B300021022F0200000000000025022602000012
:100B40000000000000000000000000000000310272
:100B50000000000000000000250237002502000010
:100B60000000220200000000000000000000000061
:100B7000000000000000310231020000000000000F
:100B80000000000000000000000000000000000065
:100B900007000000000034001600000007000000FD
:100BA0000000000000000000000000000000110034
:100BB00034001700000000000000080015000000CD
:100BC00000000000000034000F000F0000000000D3
:100BD00000000C0011000A000000000000000000EE
:100BE00000000000000000000000080015000000E8
:100BF00000000000000034001900080000000000A0
:100C000000000000000000000000000000000000E4
:100C1000000000000000000000000C0011000A00AD
:100C200000000000000000000000000000000000C4
:100C300000000000000000000000000000000000B4
:100C40000000000000000000000008001500000087
:100C50000000000000003400070000000000000059
:100C60000000000000000000000000000000000084
:100C70000000000000000000000000000000000074
:100C80000000000000000000000000000000000064
:100C90000000000000000000000000000000000054
:100CA000000000000000000000000C0011000A001D
:100CB00000000000000034001000000000000000F0
:100CC0000000000000000000000000000000000024
:100CD0000000000000000000000000000000000014
:100CE0000000000000000000000000000000000004
:100CF00000000000000000000000000000000000F4
:100D000000000000000000000000000000000000E3
:100D10001E0200000000290000000000290033022C
:100D2000000025020000000000000000000000009C
:100D3000000000000000000000002D020000000084
:100D400000000000000000000000000000000000A3
:100D50000000000000000000000000000000000093
:100D60000000000000000000000000000000000083
:100D70000000000000000000000000000000000073
:100D80000000000000000000000000000000000063
:100D90000000000000000000000000000000000053
:100DA0000000000000000000000000000000000043
:100DB0000000000000000000000000000000000033
:100DC0000000000000000000000000000000000023
:100DD0000000000000000000000000000000000013
:100DE0000000000000000000000000000000000003
:100DF00000000000000000000000000000000000F3
:100E000000000000000000000000000000000000E2
:100E100000000000000000000000000000000000D2
:100E200000000000000000000000000000000000C2
:100E300000000000000000000000000000000000B2
:100E400000000000000000000000000000000000A2
:100E50000000000000000000000000000000000092
:100E60000000000000000000000000000000000082
:100E70000000000000000000000000000000000072
:100E80000000000000000000000000000000000062
:100E90001E00000000001F000000000020000000F5
:100EA00000002100000000002200000000002300DC
:100EB00000000000240000000000250000000000E9
:100EC0002600000000001E00270000001E001E007B
:100ED00000001E001F0000001E00200000001E0079
:100EE000210000001E00220000002700000000007A
:100EF0001E00270000001F00270000002000270020
:100F0000000021002700000022002700000023002D
:100F10002700000024002700000025002700000013
:100F20002600270000001E00270027001E001E00CC
:100F300027001E001F0027001E00200027001E00A3
:100F4000210027001E0022002700000000000000F2
:100F50001E00000000001F00000000002000000034
:100F6000000021000000000022000000000023001B
:100F70000000000024000000000025000000000028
:100F80002600000000001E00270000001E001E00BA
:100F900000001E001F0000001E00200000001E00B8
:100FA000210000001E0022000000270000000000B9
:100FB0001E00270000001F0027000000200027005F
:100FC000000021002700000022002700000023006D
:100FD0002700000024002700000025002700000053
:100FE0002600270000001E00270027001E001E000C
:100FF00027001E001F0027001E00200027001E00E3
:10100000210027001E002200270000000000000031
:101010002B0000000000280000000000000000007D
:1010200000000000000000000800000000001C009C
:1010300000000000081C0000000016000000000076
:101040000816000000001C1600000000081C160016
:10105000000000000000000015000000000011006A
:10106000000000001511000000000F00000000004B
:10107000150F000000001600000000000F0F000018
:1010800000000A0000000000150A00000000110A1C
:10109000000000000A11000000000F0A000000001C
:1010A0000A1500000000070000000000070F000004
:1010B00000000600000000001506000000001106F8
:1010C00000000000110615000000130000000000E1
:1010D000151300000000161300000000130F00009D
:1010E00000000500000000001505000000000A0ACD
:1010F00000000000050815000000050F00000000BA
:101100000000000000000000000000000F050000CB
:1011100000000B00000000001A0000000000190091
:10112000000000001A11000000001D000000000077
:101130001A0F00000000160B000000000F1900003D
:1011400000000A0B00000000150A0B000000100050
:10115000000000001510000000001B00000000004F
:101160000000000000001610000000000F1000003A
:101170000000060B0000000015060B000000110621
:101180000B000000151900000000130B0000000008
:101190000000000000000000000000000F060B002F
:1011A0000000090000000000150900000000100503
:1011B000000000001005081500000F0900000000E5
:1011C000090F0000000010130000000013100000C1
:1011D00000001700000000001517000000001117A4
:1011E000000000001511170000000F17000000009C
:1011F000170F00000000161700000000151617005A
:1012000000000E0000000000150E00000000110E8E
:10121000000000000000000000000E0F00000000B1
:10122000000000000000160E000000000F0E00007D
:101230000000061700000000061500000000170C53
:101240001211000000000000000013170000000051
:101250000000000000001116170000000F1300002E
:101260000000060E0000000000000000000005174E
:1012700000000000050815170000060E0F00000012
:10128000000000000000000000000000000000005E
:101290000000170B0000000015170B0000001117CD
:1012A0000B0000001A170B0000000F170B000000C6
:1012B0000000000000001119000000000000000004
:1012C00000000A0B170000001A0E00000000110AAF
:1012D000170B00001008111700001B17000000007A
:1012E00000000000000007170B000000111008119B
:1012F000170017060B0000000000000000000000AF
:101300000000000000000000000013170B000000A8
:1013100000000000000000000000000000000000CD
:101320000000091700000000091708150000091740
:101330000811000000000000000000000000000094
:101340000000000000001013170000001310081127
:10135000170016000000000015160000000011160E
:10136000000000001511160000000F16000000001C
:10137000150F160000001616000000000F0F1600D3
:1013800000000A1600000000150A16000000110AED
:10139000160000000A111600000000000000000006
:1013A0000000000000000716000000000000000020
:1013B00000000616000000001506160000001106C9
:1013C00008160000000000000000131600000000D6
:1013D000151316000000161316000000130F081650
:1013E00000000516000000001505160000000A0A9E
:1013F00016000000050815160000050F081600006D
:101400000000000000000000000000000F051600B2
:1014100000000B16000000001A160000000019085A
:10142000160000001A11160000001D08160000002A
:101430001A0F16000000160B081600000F190816E8
:1014400000000A0B1600000000000000000010164B
:10145000000000001510160000001B081600000018
:101460000000000000001610160000000F1016000B
:101470000000070000000000150700000000110731
:10148000000000001A0700000000130B1600000007
:10149000150F070000001607000000000F070000EE
:1014A0000000070A00000000000000000000100516
:1014B00016000000100508151600000000000000CE
:1014C00000000000000010131600000000000000E3
:1014D0000000171600000000151716000000111775
:1014E000160000000000000000000F1716000000AA
:1014F000170F1C000000161716000000151617160F
:1015000000000E1600000000150E16000000110E5F
:1015100016000000000000000000000000000000B5
:10152000000000000000160E160000000F0E16004E
:101530000000061716000000000000000000170C55
:101540001211160000000000000000000000000062
:101550000000000000000000000000000F13160053
:101560000000060E16000000000000000000051735
:1015700016000000050815171600060E0F081600C5
:10158000000000000000000000000000000000005B
:101590000000170B1600000015170B16000011179E
:1015A0000B1600001A170B160000000000000000C8
:1015B000000000000000000000000000000000002B
:1015C00000000A0B171600001A0E16000000110A80
:1015D000170B16001008111716000000000000007D
:1015E00000000000000007170B1600001110081182
:1015F0001716071600000000150716000000110757
:10160000160000001A071600000013170B16000042
:10161000150F071600000000000000000F0716005D
:1016200000000000000000000000000000000000BA
:1016300000000000000000000000000000000000AA
:10164000000000000000101317160000131008110E
:101650001716000000000000080800000000121229
:101660000000000012080000000004040000000058
:10167000040800000000041200000000080412002A
:1016800000001818000000001808000000001812E0
:1016900000000000081812000000180400000000FC
:1016A00008180400000012180400000008121804B2
:1016B00000000C0C000000000C08000000000C12E0
:1016C00000000000080C120000000C0400000000E4
:1016D000080C04000000120C0400000008120C04A6
:1016E00000000C1800000000080C180000000C128C
:1016F0001800000008120C180000040C180000006C
:1017000008040C18000012040C1800000812040C45
:101710001800000000000000080000000000120097
:10172000000000000812000000000400000000009B
:101730000804000000001204000000000812040069
:101740000000180000000000081800000000121837
:10175000000000000812180000000418000000003B
:1017600008041800000012041800000008120418F1
:1017700000000C0000000000080C00000000120C2B
:101780000000000008120C000000040C0000000023
:1017900008040C00000012040C0000000812040CE5
:1017A0000000180C0000000008180C0000001218BF
:1017B0000C0000000812180C000004180C000000B7
:1017C0000804180C00001204180C00000812041879
:1017D0000C000000000000001100000000001500D7
:1017E000000000000F00000000001A0000000000D0
:1017F0001000000000001A15000000001015000085
:1018000000000B00000000001C0000000000150B91
:10181000000000000F1C000000001A0B0000000078
:10182000101C00000000000000000000000000008C
:1018300000000600000000001D000000000006156A
:1018400000000000060F0000000013000000000070
:10185000131100000000131500000000130F00001A
:101860000000060B00000000061C00000000060B34
:101870001500000006151C000000130B00000000FE
:10188000131C00000000130B15000000130B0F00C9
:1018900000001700000000001900000000001715EC
:1018A00000000000140000000000171A00000000F3
:1018B0000D00000000000000000000000D081500F1
:1018C0000000170B00000000171C00000000170BA1
:1018D0001500000017151C0000000E00000000009D
:1018E0000E11000000000E15000000000E0F000099
:1018F000000007000000000007081900000007159D
:101900000000000007080F000000071A0000000098
:101910000708100000000708150000000000000084
:101920000000090000000000071C0000000009156D
:1019300000000000090F000000000500000000008A
:10194000051C00000000051500000000050F000048
:101950000000040000000000041100000000041555
:1019600000000000040F00000000041A0000000046
:10197000041000000000000000000000040F0F0031
:101980000000040B00000000041C00000000000028
:1019900000000000000000000000041A0B0000001E
:1019A0000000000000000000000000000000000037
:1019B0000000040600000000041D000000000406F2
:1019C0001500000004060F000000041300000000D2
:1019D00004101000000004131500000004130F0091
:1019E000000004060B0000000406060000000406C8
:1019F000061500000406060F000004130B0000008B
:101A000000000000000004130B150000000000009F
:101A10000000041700000000041900000000041773
:101A20001500000004140000000004171700000057
:101A3000040D00000000041717150000000000004E
:101A4000000004170B000000000000000000041755
:101A50000B0F0000000000000000040E000000005A
:101A600004060E110000000000000000000000004D
:101A7000000004070000000004071900000004072C
:101A80001500000004061400000004070700000011
:101A90000407100000000407071500000407070FE3
:101AA0000000040900000000040909000000040906
:101AB0001500000004090F000000040500000000EC
:101AC00004051C00000004051500000004050F00BB
:101AD00000001600000000001611000000001608AB
:101AE00015000000160F00000000161A000000008C
:101AF00016100000000000000000000000000000C0
:101B00000000160B00000000161C00000000160B61
:101B100015000000160F1C0000000000000000006F
:101B200000000000000000000000000000000000B5
:101B30000000160600000000161600000000160641
:101B40001500000000000000000016130000000057
:101B500000000000000016131500000016130F000F
:101B6000000016060B00000000000000000000004E
:101B70000000000000000000000016130B00000031
:101B800016131C0000000000000000000000000010
:101B900000001617000000001619000000001617BC
:101BA000150000001614000000001B0000000000DB
:101BB0000000000000001B150000000016081519A9
:101BC000000000000000000016171C0000000000CC
:101BD000000000001617151C0000160E0000000083
:101BE0001B1C0000000000000000000000000000BE
:101BF00000000A00000000000A11000000000A15A1
:101C0000000000000A0F000000000A1A0000000097
:101C100000000000000000000000000000000000C4
:101C200000000A0B000000000A1C00000000000079
:101C300000000000000000000000000000000000A4
:101C40000000000000000000000000000000000094
:101C5000000004160000000004111100000004152B
:101C60001500000004160F00000000000000000036
:101C7000041610000000000000000000000000003A
:101C8000000004160B00000004161C0000000000F9
:101C90000000000000000000000000000000000044
:101CA0000000000000000000000000000000000034
:101CB00000000416060000000416160000000416BA
:101CC00006150000000000000000041613000000CC
:101CD0000413130000000413131500000413130F62
:101CE00000000000000000000000000000000000F4
:101CF000000000000000000000000416130B0000AC
:101D00000416130B1C00000000000000000000007F
:101D100000000416170000000C11190000000C153B
:101D200000000000041614000000041B0000000066
:101D300000000000000000000000000000000000A3
:101D400000000416170B00000C11170000000C1502
:101D5000150000000C111708150004160E000000F5
:101D60000000000000000000000000000000000073
:101D70000000040A00000000040A11000000040A28
:101D800015000000040A0F000000040A0A00000009
:101D900004070D000000040A0A150000040A0A0FD7
:101DA0000000040A0B0000000409170000000409E9
:101DB000091500000409090F0000040505000000D2
:101DC00000000000000004050515000000000000F0
:101DD000000016034500720067006F0044006F00AA
:101DE0007800200045005A000000160345007200EC
:101DF00067006F0044006F007800200045005A0023
:101E000000000403090409025400030100A0FA09B8
:101E10000400000103010100092111010001224019
:101E2000000705810308000A0904010001030000FE
:101E30000009211101000122360007058203080074
:101E40000A09040200010300000009211101000138
:101E50002239000705830320000112011001000050
:101E60000008EDFE0713010001020001050109064B
:101E7000A101050719E029E715002501950875015D
:101E80008102050819012905950575019102950141
:101E9000750391010507190029F71500250195F82B
:101EA00075018102C005010980A1018502160100AA
:101EB0002603001A81002A8300751095018100C055
:101EC000050C0901A1018503160100269C021A01D7
:101ED000002A9C02751095018100C005010906A128
:101EE00001050719E029E71500250195087501810D
:101EF00002950175088101050819012905950575E7
:101F00000191029501750391010507190029FF153B
:101F10000026FF00950675088100C00011241FBE31
:101F2000CFEFDAE0DEBFCDBF04B603FE24C0809160
:101F3000090490910A04A0910B04B0910C0487301D
:101F4000904BA740B04BB9F41092090410920A04C8
:101F500010920B0410920C0414BE84B7877F84BFC8
:101F600088E10FB6F89480936000109260000FBE75
:101F7000E0E0FFE3099512E0A0E0B1E0E8E4FEE56F
:101F800002C005900D92A633B107D9F714E0A6E37D
:101F9000B2E001C01D92A930B107E1F70E948C297F
:101FA0000C94222F0C9400001092B9008AE08093C8
:101FB000B800089594EA9093BC009091BC0097FFFC
:101FC000FCCF9091B900987F983021F0903111F0BA
:101FD00081E008958093BB0084E88093BC008091E9
:101FE000BC0087FFFCCF8091B900887F883111F059
:101FF000803471F780E0089584E98093BC0080917B
:10200000BC0084FDFCCF08958093BB0084E88093DE
:10201000BC008091BC0087FFFCCF9091B900987FF5
:1020200081E0983209F480E0089584E88093BC0050
:102030008091BC0087FFFCCF8091BB00089580B3E6
:102040008C7080BB81B3836F81BB08958091310117
:10205000811115C080E40E94DA0F80933101811153
:102060000CC082E10E94041080933101811105C0EF
:102070008FEF0E940410809331010E94FC0F84B105
:10208000807F84B985B1807F85B98AB1837F8AB921
:102090008BB1837F8BB93E98469808950C94EE14CB
:1020A0000E946319809331010E9426100E941F1024
:1020B000E5E4F2E0A7E3B2E011921D9282E0E3359D
:1020C000F807D1F70C946F160E94631980933101C1
:1020D0000E9426100E941F10E5E4F2E0A7E3B2E0A0
:1020E00011921D9282E0E335F807D1F708958F929F
:1020F0009F92BF92CF92DF92EF92FF920F931F9326
:10210000CF93DF931F92CDB7DEB780913101882343
:1021100079F0809136028F5F80933602811108C07A
:102120000E94631980933101811102C00E94F51849
:1021300007E312E0812C912CEE24E394F12CDD24B2
:10214000D39495E0C92E282D273030F580913101A8
:10215000811142C080E489820E94DA0F80933101AC
:102160002981811114C082E10E9404108093310101
:10217000298181110CC0C701082C01C0880F0A9465
:10218000EAF780950E940410809331012981298308
:102190000E94FC0F298120C02A30A1F028F42830A9
:1021A00059F0293061F005C02C3089F070F02D30E5
:1021B00089F0209A289810C0219A29980DC0229A57
:1021C0002A980AC0239A2B9807C0529A01C0539AA2
:1021D0005B9802C03E9A469830EA3A95F1F727306C
:1021E00018F580913101811144C080E40E94DA0F1A
:1021F00080933101882311F0B12C12C083E10E9439
:102200000410809331018111F7CF81E40E94DA0F2D
:10221000809331018111F0CF0E941510B82EB09437
:102220000E94FC0F8B2D26C08FB181708D25799B6C
:1022300002C090E001C092E0892B7C9B02C090E03C
:1022400001C094E0892B7D9B02C090E001C098E022
:10225000892B7E9B02C090E001C090E1892B9FB149
:102260009095991F9927991F9295990F907E892B88
:1022700001C080E0F8019081981719F08083C09226
:1022800000010E942610FFEF8F1A9F0A0F5F1F4F59
:102290003EE08316910409F056CF80910001882317
:1022A000A1F0815080930001882329F085E08A9570
:1022B000F1F700000AC0A5E4B2E0E7E3F2E08191A3
:1022C0008D9332E0E534F307D1F70E94711681E077
:1022D0000F90DF91CF911F910F91FF90EF90DF90C2
:1022E000CF90BF909F908F900895E82FF0E0EB5B28
:1022F000FD4F808108950895811105C0977081E098
:1023000019F480E001C081E08170089580912C0370
:1023100090912D03A0912E03B0912F03892B8A2B2E
:102320008B2B69F481E0409128035091290360913F
:102330002A0370912B03452B462B472B09F080E095
:10234000817008950F931F93CF93DF931F92CDB7A2
:10235000DEB7182F69830E94D925082F812F0E948C
:10236000E9256981862F0E94351C802F0F90DF910F
:10237000CF911F910F910C94E9252F923F924F928C
:102380005F926F927F928F929F92AF92BF92CF9205
:10239000DF92EF92FF920F931F93CF93DF93CDB70E
:1023A000DEB728970FB6F894DEBF0FBECDBF0E94F0
:1023B000D9258D8382E10E94E22580911D035090F2
:1023C0002103282F2170822E382F32703E8382FB0A
:1023D000662460F880911E03882371F0442443949E
:1023E000823009F0412C77247394833009F0712CEA
:1023F00082E00E94DC2502C0712C412C21E0C22E1B
:1024000021E0D22E2CE133E03C832B83912C312C24
:1024100018861F821A8231E03983EB81FC81819119
:10242000FC83EB83882309F4E9C021E029832F8111
:1024300038852130310509F01982EF81F885E95995
:10244000FE4F90812F8138852530310519F4811098
:102450001AC015C02F8138852430310531F4882009
:1024600071F0552009F47EC10AC02F8138852630CD
:10247000310529F4882019F0552009F487C1F601A7
:102480002081318102C022E536E12115310509F4B0
:10249000B5C0923009F451C0933009F469C191304C
:1024A00009F0ACC07901F6E08F9FE00CF11C11241B
:1024B000B32C00E010E0F701E00FF11F2490222080
:1024C000A1F1822D0E94351C822D0E94FD1C3394A7
:1024D00024E122120BC0552049F088E10E94351CEE
:1024E00088E10E94FD1C92E0392E3B0C3E81332393
:1024F00079F02F8138852630310551F40115110509
:1025000039F4822D0E94351C822D0E94FD1C3394CB
:10251000442019F031E0331629F0772031F082E0C1
:10252000381203C082E00E94E2250F5F1F4F063081
:10253000110509F463C0B32CBECF590196E0899F01
:10254000A00CB11C1124E12CF12CF501EE0DFF1DA6
:10255000059114910115110509F450C0202E8CEF3E
:10256000800F8A3120F4802F0E94351C04C0602F18
:10257000812F0E94A211802F0E94FD1CE0E52E12E7
:1025800005C09394F92DF7709F2E01C03394442019
:1025900019F021E0321629F0772031F032E03312C1
:1025A00003C082E00E94E22582E0E80EF11C96E082
:1025B000E916F10451F622C00F3FEFE11E0709F4BE
:1025C000E2C0602F812F0E94A211802F0E94FD1C6B
:1025D000F0E50F13D6C09394292D2770922E82E038
:1025E000E80EF11C9AE0E916F10441F0F501EE0D58
:1025F000FF1D0591149101151105F1F62F81388504
:102600002F5F3F4F38872F8332E0C30ED11C2F81BD
:1026100038852C30310509F000CF332019F081E0E6
:10262000862506C0662019F081E0882501C080E07B
:10263000882351F03A81311107C08CE20E94351C89
:102640008CE20E94FD1C3394192D1770832D912F5D
:102650000E947C118823B1F080915302843611F4DA
:1026600010925302E091530281E08E0F8093530247
:10267000EE0FFF0BEC5AFD4F30828181887F812B5A
:10268000818365C0882009F462C0F0905302FA94F7
:10269000F7FE02C083E6F82E0F2D000F110BC801C4
:1026A0008C5A9D4F5C01FC018181E080F82FF7700E
:1026B000CF2ED82E8E2D9D2D0E947C11882309F4BB
:1026C0003EC0662069F08AE20E94351C8AE20E94C0
:1026D000FD1CF501808181508083811138C02CC0A0
:1026E00029812223A1F18D2D8770B1F0D12CAC2C42
:1026F000B12C2D2D30E02A153B0544F48FE40E94C7
:10270000351C8FE40E94FD1CD394F3CFF801EC5AE2
:10271000FD4F8181887F8183EE2071F0D12C8AE288
:102720000E94351C8AE20E94FD1CD394DE10F7CF74
:10273000F801EC5AFD4F1082F092530208C0662057
:1027400031F08AE20E94351C8AE20E94FD1C8D81D4
:102750000E94E925ECE1F3E0119233E0E832F3075F
:10276000D9F717C02AE039E02115310509F446CF21
:1027700059019AE0899FA00CB11C1124E12CF12C85
:1027800035CF33942CCF31E03A8329CF2AE836E095
:10279000EBCF28960FB6F894DEBF0FBECDBFDF910A
:1027A000CF911F910F91FF90EF90DF90CF90BF904E
:1027B000AF909F908F907F906F905F904F903F90E1
:1027C0002F9008957F928F929F92AF92BF92CF9257
:1027D000DF92EF92FF920F931F93CF93DF93EC0161
:1027E000613009F4ACC020F0623009F4BDC0E5C02E
:1027F0004981888136E0439FA0011124480F511D73
:10280000FA01EE0FFF1FEE0FFF1FE651FC4F8591FF
:102810009591A591B4910097A105B10509F4CDC09A
:102820002A81B7FF63C0AC014F705527C12CD12C52
:102830007601C39404C0CC0CDD1CEE1CFF1C4A9531
:10284000D2F764E0B695A795979587956A95D1F7E5
:10285000382F3F70732E032F10E0D801AD58BE4FB4
:10286000F801EE0FFF1FE75EFE4FC081D1814601E8
:1028700057010C9004C0880C991CAA1CBB1C0A941C
:10288000D2F72223C9F082E0381303C081EE0E9400
:10289000351C88819981AA81BB8188299929AA2917
:1028A000BB2988839983AA83BB83F801E45EFC4F2C
:1028B00080818C29808381C080949094A094B0946E
:1028C000488159816A817B81482159216A217B2174
:1028D000488359836A837B830E94861181110E94F9
:1028E000BD1192E0791269C081EE26C0FA01EE0FA7
:1028F000FF1FEE0FFF1FE65CFA4FC590D590E590E5
:10290000F490C114D104E104F10409F44AC0CC2DBF
:10291000E0911D01F0911E0140815181628173811E
:102920004427552766277076452B462B472BA1F564
:1029300039C00E94FD1C8C2D0E94FD1C3EC0898167
:10294000811102C081EE01C085EE9A81992331F098
:102950000E94351C82E00E944C242FC00E94FD1C66
:1029600082E00E94672429C06881798180E00E940A
:10297000861664E170E00E94D22EFC01EE0FFF1F6C
:10298000E15CFE4F608181819A81992319F00E9458
:10299000A21113C0862FD0CF222359F26C2D8D2D7A
:1029A000F6CFC0E0222319F0682F892FF0CF0E94C4
:1029B000FD1CCC2311F08C2FBFCF80E090E0DF9185
:1029C000CF911F910F91FF90EF90DF90CF90BF902C
:1029D000AF909F908F907F90089508956091A3038A
:1029E0007091A4038091A5039091A6030E9457269D
:1029F00025982D9826982E9827982F98813029F081
:102A0000833029F4269A2E9A02C0259A2D9A0E9484
:102A10008611811102C0279A2F9A089581E00895A6
:102A200081E008950C9410150E94EC1F2FEF84E3B1
:102A30009CE0215080409040E1F700C000000C94E1
:102A4000B2270F931F93CF93DF938C01FC01C081BA
:102A5000D181CE010E94D824BE010E948616EC01CD
:102A6000B8010E941215882309F433C1B801CE01C0
:102A70000E94A918882309F42CC1B801CE010E9434
:102A8000B219882309F425C1C531FCE5DF0708F038
:102A9000A3C0C2308CE5D80708F478C0F801828161
:102AA000882309F47FC00E94C426811102C00E94BD
:102AB000AA260E94D72690E09093FB038093FA0306
:102AC000FE01E350FC45E231F10520F4EA5AFF4FE4
:102AD0000C94E62E8091FA03816003C08091FA0382
:102AE00082608093FA034BC08091FA038460F9CF2F
:102AF0008091FA0313C08091FA038061F2CF809134
:102B0000FA038062EECF8091FA038064EACF80916D
:102B1000FA038068E6CF8091FA0384608860E1CF91
:102B20008091FA038E7FDDCF8091FA038D7FD9CF1C
:102B30008091FA038B7FD5CF8091FA0313C08091E7
:102B4000FA038F7ECECF8091FA038F7DCACF80911A
:102B5000FA038F7BC6CF8091FA038F77C2CF809123
:102B6000FA038B7F877FBDCF9091FA0397FB88276D
:102B700080F921E0822780FB97F99093FA038091F6
:102B8000FA030E94DB260E94EC1FA3C0C115ECE5EE
:102B9000DE0779F0C130DC45A1F081E08093340399
:102BA00080933503C801DF91CF911F910F910C9451
:102BB0000E15F8018281882309F48BC00E94141538
:102BC00088C0F8018281882309F483C08091D003F2
:102BD00081608093D0037DC0C73C8CE5D80781F528
:102BE000F8018281882361F0109235030E945727F3
:102BF000909333038093320380E20E944C1D69C09E
:102C00000E94D92581FF05C081E080933403809321
:102C100035038091350381110FC08091320390916B
:102C200033030E946327883C910530F487E20E94B9
:102C3000351C87E20E94FD1C80E20E94531D49C0A2
:102C4000C83CECE5DE0780F5C63CDC4509F0A5CFC5
:102C5000F8018281882351F0109234030E94572793
:102C6000909331038093300382E0C7CF0E94D9252F
:102C700085FF05C081E08093340380933503809104
:102C8000340381110FC080913003909131030E9471
:102C90006327883C910530F486E20E94351C86E269
:102CA0000E94FD1C82E0C9CFCA3C8CE5D80731F4F4
:102CB000F8018281882369F080E009C0CB3CDC45C3
:102CC00009F06BCFF8018281882319F082E00E941D
:102CD0001E2A80E0DF91CF911F910F9108950C94EF
:102CE0004D190C944E10282F882339F090E02A308B
:102CF00010F44D9608950697089587E290E00895A0
:102D000008950C9480160C948116089596E0799F8E
:102D1000F001112494E5899FE00DF11D1124E60FC7
:102D2000F11DEE0FFF1FE65BFE4F85919491089514
:102D3000880F991F865B9E4FFC01859194910895A1
:102D40000E9486160E942C18811520E49207B0F587
:102D5000811540E3940708F0DBC0803E9105D8F46C
:102D6000803C910508F069C0883A910578F4853A6D
:102D7000910508F065C08130910509F46CC108F433
:102D800023C18430910508F066C11EC18D3B9105B9
:102D900008F461C019C18F3F910509F048F4803FE4
:102DA000910508F0AFC0883E910508F454C10CC1EC
:102DB000811520E2920708F0A7C00895811544E527
:102DC0009407D8F4811523E5920708F0DCC081153B
:102DD00041E5940740F4811520E5920708F0A2C070
:102DE0009F70906A0895811542E5940708F0B6C077
:102DF000982F8827816F906A0895811526E592079C
:102E000050F4811545E5940708F0D2C0982F882723
:102E1000846F906A0895811528E5920708F4D4C05C
:102E2000811549E5940708F4C8C09C013056211566
:102E3000304208F0C9C09F71C5C0805C910965C06F
:102E4000853A910509F4C3C0863A910509F4C2C0D8
:102E500083E890E40895883A910509F4BEC0893A60
:102E6000910509F4BDC08A3A910509F4BCC08B3ABA
:102E7000910509F4BBC08C3A910509F4BAC08B3BAB
:102E8000910509F4B9C08C3B910509F4B8C08D3A9D
:102E9000910509F4B7C0803B910509F4B6C08E3A9C
:102EA000910509F4B5C08F3A910509F4B4C0813B8E
:102EB000910509F4B3C0823B910509F4B2C0833B8C
:102EC000910509F4B1C0843B910509F4B0C0853B7C
:102ED000910509F4AFC0863B910509F4AEC0873B6C
:102EE000910509F4ADC0883B910509F4ACC0893B5C
:102EF000910509F4ABC08A3B910509F0AAC08AE2AA
:102F000096E40895906508959F700E94981608951C
:102F10009C01332793FF03C0C901986C0895C90130
:102F2000906C0895482F437021E030E002C0220FDA
:102F3000331F4A95E2F73C68AC0174E0569547951B
:102F40007A95E1F74370342B8F708695869540E231
:102F5000849FC0011124822B932B0895282F26953E
:102F6000269540E2249F90011124AC01437055271F
:102F700081E090E002C0880F991F4A95E2F7822B0A
:102F8000932B9C680895282F2695269540E2249F30
:102F900090011124AC014370552781E090E002C0FC
:102FA000880F991F4A95E2F7822B932B9A68089510
:102FB0008F719927982F882705C0982F8827806FB1
:102FC000906A08959062089580E090E0089581E805
:102FD00090E4089582E890E4089582EE94E40895E0
:102FE00089EE94E408958AEE94E4089585EB94E4E0
:102FF000089586EB94E4089583EB94E4089584EBBC
:1030000094E4089587EB94E408958CEC94E4089597
:103010008DEC94E4089583E895E408958AE895E4B6
:10302000089582E995E4089584E995E4089581E29C
:1030300096E4089583E296E4089584E296E4089580
:1030400085E296E4089586E296E4089587E296E4A0
:10305000089580E094E408958238910549F1B0F430
:103060008133910509F459C048F48932910509F476
:103070004FC08A32910509F455C0089585339105F2
:1030800009F441C08933910599F00895833E910573
:1030900031F138F4803E910591F0823E9105A9F01E
:1030A0000895863E910501F1873E910539F1089515
:1030B0002091FA0320FD3BC021FD39C00895809185
:1030C000FA0380FF34C089E341C08091FA0382FF94
:1030D00032C08091FA0384FF2CC080E037C0809119
:1030E000FA0382FD28C0F5CF8091FA0383FF25C043
:1030F0008091FA0384FDF1CF87EE28C08091FA0316
:1031000083FD1BC0F5CF8091FA0385FF18C019C05D
:103110008091FA0385FF15C012C08091FA0386FFE3
:1031200012C013C08091FA0386FF0FC00CC080EE5E
:103130000DC083EE0BC082EE09C086EE07C085E3AA
:1031400005C089E203C081E301C08AE290E00895EE
:103150000895CF93DF93EC01FB018281811102C0BE
:1031600081E040C080914303811125C0C531DC4519
:10317000B9F70E94A81881E0809343030E94572763
:1031800090934203809341031092360310923803C8
:103190001092370310923A031092390310923C03B5
:1031A00010923B0310923E0310923D031092400395
:1031B00010923F0316C080914103909142030E94F8
:1031C0006327883C910560F680913603E82FF0E094
:1031D000EE0FFF1FE95CFC4FD183C0838F5F8093AC
:1031E000360380E0DF91CF91089556985E98259838
:1031F0002D9826982E9827982F988FEF90E09093EF
:1032000089008093880090938B0080938A0090932C
:103210008D0080938C00259A2D9A2FEF80E792E005
:10322000215080409040E1F700C00000269A2E9A7D
:103230002FEF80E792E0215080409040E1F700C0FE
:103240000000279A2F9A2FEF80E792E021508040CC
:103250009040E1F700C0000025982D982FEF80E7FF
:1032600092E0215080409040E1F700C00000269895
:103270002E982FEF80E792E0215080409040E1F7B8
:1032800000C0000027982F9856985E9825982D9892
:1032900026982E9827982F98089589EA8093800081
:1032A00089E08093810024982C983F988AB18F7C84
:1032B0008AB96E98479A8BB180638BB9769A0E94CF
:1032C000F5180C94ED1480E2809331018091440351
:1032D00081110EC00E94D40F81E0809344032FEF30
:1032E00083ED90E3215080409040E1F700C0000062
:1032F00080E40E94DA0F8093310181112EC00E9478
:10330000041080933101811128C00E940410809321
:103310003101811122C08FE30E940410809331019A
:1033200081111BC00E94FC0F80E40E94DA0F809381
:103330003101811112C08CE00E9404108093310190
:1033400081110BC00E94041080933101811105C0CE
:103350008FE30E940410809331010E94FC0F809142
:1033600031010895CF93DF93EC01C13080E8D80795
:10337000C8F0FB0182818823A9F080914503811167
:1033800009C08CE090E00E94EC2E0E94D61981E0EA
:10339000809345030E94DD19CE019F770E949B1AFE
:1033A0000E94531A81E0DF91CF91089580934603E4
:1033B000682F8CE090E00C94FA2EE0913201F091AD
:1033C000330180818093F50381FF03C081EE0E9469
:1033D000FD1C8091F50385FF03C085EE0E94FD1C56
:1033E0008091F50380FF03C080EE0E94FD1C809158
:1033F000F50384FF03C084EE0E94FD1C8091F50359
:1034000082FF03C082EE0E94FD1C8091F50386FFBF
:1034100003C086EE0E94FD1C8091F50383FF03C06C
:1034200083EE0E94FD1C8091F50387FF03C087EEA9
:103430000E94FD1C809146038130A1F078F082301B
:1034400011F1843049F586EE0E94351C86EE0E940B
:10345000FD1C88E10E94351C88E11CC082EE0E94A0
:10346000351C1AC080EE0E94351C81EE0E94351C6E
:1034700088E10E94351C88E10E94FD1C81EE0E94BB
:10348000FD1C80EE07C082EE0E94351C87E50E947D
:10349000351C87E50E94FD1C8FE39CE90197F1F73D
:1034A00000C00000089580914603813029F010F09B
:1034B000823041F482EE04C08CE20E94351C8CE222
:1034C0000E94FD1C8091F50381FF03C081EE0E94E4
:1034D000351C8091F50385FF03C085EE0E94351CE5
:1034E0008091F50380FF03C080EE0E94351C80911F
:1034F000F50384FF03C084EE0E94351C8091F50320
:1035000082FF03C082EE0E94351C8091F50386FF86
:1035100003C086EE0E94351C8091F50383FF03C033
:1035200083EE0E94351C8091F50387FF03C087EE70
:103530000C94351C0895FF920F931F93CF93DF9344
:103540008C01CCE0D0E0C8010C2E02C09695879586
:103550000A94E2F7282F2F70F22E822F0E94731602
:103560000E94351C8F2D0E9473160E94FD1C24970B
:10357000CC3F8FEFD80739F7DF91CF911F910F9193
:10358000FF90089590934C0380934B030895E0912E
:103590004B03F0914C03309721F00190F081E02D26
:1035A000099480E00895E0914B03F0914C0330972B
:1035B00021F00280F381E02D0994089520914903C0
:1035C00030914A038217930771F090934A038093D6
:1035D0004903E0914B03F0914C03309721F00680B2
:1035E000F781E02D09940895209147033091480315
:1035F0008217930771F09093480380934703E091FB
:103600004B03F0914C03309721F00084F185E02DBD
:103610000994089508950C940A1B0E944E270E9455
:1036200050100E94D527EAEFF3E080818068808304
:103630000895CF92DF92EF92FF920F931F93CF9353
:10364000DF93CDB7DEB72B970FB6F894DEBF0FBE72
:10365000CDBF0E9477103EE4E32E33E0F32E00E06E
:1036600010E0C02E802F0E947511F701D1907F01CC
:10367000D826B1F40F5F1F4F0E30110591F78FEF71
:1036800089838A831B820E9457278160782F9D83BC
:103690008C8349815A816B818D810E94F61B41C0C8
:1036A0009091D00391FF04C08B870E947B118B8582
:1036B00020E030E04D2D50E0922FBA01022E02C0E2
:1036C000759567950A94E2F760FF25C02E83CF8237
:1036D000EE24E394F12C02C0EE0CFF1C9A95E2F765
:1036E00090E08E219F2121E0892B09F420E028879A
:1036F0000E9457278160782F9A8789874E815F8142
:1037000068858A850E94F61BF801E25BFC4F808188
:103710008E25808306C02F5F3F4F2630310561F62E
:10372000A9CF10914D030E94C71A1817A1F00E944B
:10373000C71A80934D032B960FB6F894DEBF0FBEC9
:10374000CDBFDF91CF911F910F91FF90EF90DF9050
:10375000CF900C9483162B960FB6F894DEBF0FBE55
:10376000CDBFDF91CF911F910F91FF90EF90DF9030
:10377000CF900895DC0111964C9111975C91852FA3
:1037800090E021E030E001C0220F5A95EAF712964E
:103790006C91129750E0662319F060916A0305C09E
:1037A000FA01E45AFC4F608162236623B9F036E0E7
:1037B000349FF001359FF00D1124E80FF91FEE0F33
:1037C000FF1FE158FE4F808191818D939C93FA01F8
:1037D000E45AFC4F8081822B80830895FA01E45AD9
:1037E000FC4F20958081282320830895CF93DF9379
:1037F000CDB7DEB72B970FB6F894DEBF0FBECDBFA7
:103800004F83588769877A878B878A859B85892B21
:1038100031F05F3F11F080E003C04F3FE1F781E0FE
:10382000811104C0CE0107960E94BA1BDE011196D9
:1038300086E0FD0111928A95E9F785E0FE01379651
:1038400001900D928A95E1F749815A816B817C81C3
:103850008D819E810E94B6222B960FB6F894DEBF12
:103860000FBECDBFDF91CF910895882309F4C4C066
:10387000823859F40E94C71A81FDBEC089E30E94B4
:1038800058250E94282689E30CC0833871F40E94D1
:10389000C71A80FDB1C083E50E9458250E942826E2
:1038A00083E50E9498250C942826843859F40E94B8
:1038B000C71A82FDA1C087E40E9458250E942826CD
:1038C00087E4EFCF9CEF980F913A18F40E945825A7
:1038D000EACF90E2980F983050F4877091E001C0E1
:1038E000990F8A95EAF7892F0E94DC25DCCF9BE5AA
:1038F000980F933070F4853A29F0863A31F482E8D3
:1039000090E005C081E890E002C083E890E00C946C
:10391000DE1A98E5980F953108F06EC0883A61F18B
:10392000893A69F18A3A71F18B3A79F18C3A81F1ED
:103930008B3B89F18C3B91F18D3A99F1803BA1F160
:103940008E3AA9F18F3AB1F1813BB9F1823BC1F1D5
:10395000833BC9F1843BD1F1853BD9F1863BE1F151
:10396000873BE9F1883BF1F1893BF9F18A3B09F0AA
:103970003FC08AE292E03EC082EE90E03BC089EE1A
:1039800090E038C08AEE90E035C085EB90E032C020
:1039900086EB90E02FC083EB90E02CC084EB90E0AE
:1039A00029C087EB90E026C08CEC90E023C08DEC22
:1039B00090E020C083E891E01DC08AE891E01AC041
:1039C00082E991E017C084E991E014C081E292E0BD
:1039D00011C083E292E00EC084E292E00BC085E267
:1039E00092E008C086E292E005C087E292E002C061
:1039F00080E090E00C94F41A0895882309F44BC0F9
:103A0000823859F40E94C71A81FF45C089E30E9499
:103A100058250E94282689E30CC0833871F40E943F
:103A2000C71A80FF38C083E50E9458250E942826C7
:103A300083E50E9498250C942826843859F40E9426
:103A4000C71A82FF28C087E40E9458250E942826B2
:103A500087E4EFCF9CEF980F913A58F390E2980FDC
:103A6000983050F4877091E001C0990F8A95EAF779
:103A7000892F0E94E225DFCF9BE5980F933020F439
:103A800080E090E00C94DE1A885A853120F480E0C2
:103A900090E00C94F41A0895882321F00E94DC250C
:103AA0000C9428260895882321F00E94E2250C9486
:103AB000282608958F929F92BF92CF92DF92EF9225
:103AC000FF920F931F93CF93DF9300D0CDB7DEB754
:103AD0004C01472FFC01E580E2949FE0E922F2804F
:103AE000FF2031F079836A830E94FC256A81498135
:103AF00049836A830E94512549816A81882389F01C
:103B0000FF2079F080E2860F883058F082E00E9432
:103B10003A250E945125BB24B394B82649816A8175
:103B200001C0B12CE42FE295EF70F0E0E859FF4FAF
:103B30000C94E62E842F807F142F1F70882311F0A1
:103B40001295107FFF20C1F0112309F48DC180E28E
:103B5000860F883010F0611105C0812F6A830E94A2
:103B6000DC2504C0812F6A830E94EF256A816A8365
:103B70000E9428266A8178C1862F6A830E94FD1CD4
:103B80006A81112309F4BEC180E2860F883010F0EB
:103B9000611104C0812F0E94E22503C0812F0E9481
:103BA000F5250E942826AEC1242F207F842F8F70F8
:103BB000203211F08295807F662319F06130B9F0D0
:103BC00020C0FF2049F0EE2009F404C1F1E0EF121B
:103BD00001C10E940F2696C1EE2021F091E0E91666
:103BE00009F490C189830E9412268981F9C0FF20BF
:103BF00029F0E1E0EE1508F485C1ECC0E11082C1C6
:103C0000EFC0FF2021F0EE2009F4E4C02DC1EE202A
:103C100009F4E6C02FC1242F26952695237030E0A5
:103C20002115310521F02130310561F06BC1FF20F4
:103C300021F0862F942F937002C080E090E00E94C4
:103C4000DE1A60C1FF2021F0862F942F937002C0EE
:103C500080E090E00E94F41A55C1842F837009F02F
:103C60004EC0F1104FC1262F229526952770220FA6
:103C7000220F862F8F70C82ED12CE12CF12C022E12
:103C800004C0CC0CDD1CEE1CFF1C0A94D2F764FFB0
:103C900010C06FE070E080E090E004C0660F771F16
:103CA000881F991F2A95D2F76095709580959095F9
:103CB00003C060E070E0CB01242F26952695237089
:103CC00030E02230310569F02330310589F06C296C
:103CD0007D298E299F292130310571F00E9407240A
:103CE00011C16C297D298E299F290E9419240AC19E
:103CF0000E940724C701B6010E94F52303C1FF20DB
:103D000019F0842F817001C08695882309F4FAC0C8
:103D1000262F229526952770220F220F862F8F702F
:103D2000C82ED12CE12CF12C022E04C0CC0CDD1CB1
:103D3000EE1CFF1C0A94D2F764FF10C06FE070E025
:103D400080E090E004C0660F771F881F991F2A95B6
:103D5000D2F7609570958095909503C060E070E013
:103D6000CB01242F26952695237030E02230310593
:103D700069F02330310589F06C297D298E299F292E
:103D80002130310571F00E94B324BCC06C297D291B
:103D90008E299F290E94C524B5C00E94B324C70163
:103DA000B6010E94A124AEC0062F10E0F801E05E2B
:103DB000F109E531F10508F053C0E858FF4F0C94C4
:103DC000E62E162F1F70842F8F71FF2031F00E9476
:103DD0004C24812F0E944C1D95C00E946724812F86
:103DE0000E94531D8FC0FF2039F0E1108BC0842F3B
:103DF0008F710E94862486C0F1E0FE1508F482C00F
:103E0000F6CFFF2039F0842F8F710E944C247AC0A6
:103E1000FF20C9F3842F8F710E94672473C0FF2095
:103E200029F0842F8F710E943D246CC00E94382499
:103E300069C0FF2051F0142F1F71812F0E944C2464
:103E400063E0812F0E9431255DC081E00E943A2508
:103E500081E08E1508F056C082E00E943A2552C0DB
:103E6000FF2031F0EE2079F2862F0E94351C4AC0E7
:103E7000EE2081F2862F0E94FD1C44C04F70C401C9
:103E80000E94E2130E9463233DC0623FA9F128F41F
:103E9000603F49F0613FE1F020C0643FA1F050F085
:103EA000653F69F01AC0FF2049F180916A0321E063
:103EB000822702C081E08F2580936A031FC0F11022
:103EC0001DC081E0F9CFF11019C010926A0316C02D
:103ED000EE2091F0F11012C0E8CFEE2069F0862FAD
:103EE00049836A83FF2019F00E94351C02C00E949A
:103EF000FD1C49816A8102C0F0926A034F70C401BF
:103F00000E948516BB20F1F00E942D2580FD1AC06D
:103F1000F40112820E9427250E944C24C4010E94B1
:103F2000B01F0E9427250F900F90DF91CF911F9116
:103F30000F91FF90EF90DF90CF90BF909F908F9068
:103F40000C9467240F900F90DF91CF911F910F91E8
:103F5000FF90EF90DF90CF90BF909F908F9008954B
:103F60000F931F93CF93DF93EC01288139818B81CD
:103F70009C81892B31F03F3F11F080E003C02F3F3F
:103F8000E1F781E0811113C0CE010E942115882341
:103F900071F0688179818A810E9423258C010E94B9
:103FA000D7240E94F223B801CE010E945A1DDF914E
:103FB000CF911F910F9108950E94FC250E940C261D
:103FC0000E94CB250E94282680E090E00E94DE1A05
:103FD00080E090E00C94F41A0E94EC250C94DC1F15
:103FE0000E941825E92FE295EF70F0E03297EE304D
:103FF000F105B8F4E357FF4F0C94E62E803F59F0DB
:1040000018F4803E70F407C0843F59F404C0803E29
:1040100010F0813F31F481E0089593FB882780F907
:10402000089580E00895CF93DF9300D000D01F92D1
:10403000CDB7DEB70F900F900F900F900F90DF91DC
:10404000CF910895CF93DF9300D000D000D0CDB7AB
:10405000DEB726960FB6F894DEBF0FBECDBFDF9158
:10406000CF9108951F93CF93DF93C0916B0316E018
:1040700080916C03C81799F0D0E01C9FF0011D9F40
:10408000F00D1124E359FC4F40815181628173810D
:10409000848195810E9422202196C770E9CFDF910B
:1040A000CF911F91089540919D0350919E0360917F
:1040B0009F037091A0038091A1039091A2030C949F
:1040C0002220CF938091A20382958F7009F05FC068
:1040D00080919F03882309F45AC020916B03A0911B
:1040E0006C0360919D0370919E038091A003909159
:1040F000A10331E06F3F09F030E0B32FC6E02A178B
:1041000009F445C0009721F07F3F21F44B2F03C0F5
:1041100041E001C040E030E040FD35C0C29FF00109
:10412000C39FF00D1124E359FC4F418174132BC040
:104130004081641328C04281411125C043815481CC
:104140004817590710F441505109481B590B483C76
:104150005105C8F48091A2038F7080618093A203FF
:1041600086E0829FF001839FF00D1124EE58FC4FF2
:1041700080818F70806180838DE993E00E94B01F01
:10418000CF910C9432202F5F3F4F2770B8CFCF9143
:104190000895CF92DF92EF92FF920F931F93CF93E8
:1041A000DF93CDB7DEB762970FB6F894DEBF0FBED0
:1041B000CDBF8C0185E0F801DE011D9601900D92C6
:1041C0008A95E1F7D8014C9111965C91119712965E
:1041D0006C9112971396ED90FC90149770919D033B
:1041E000E0919E032091A0033091A1032115310598
:1041F00031F0EF3F31F481E07F3F19F403C081E0FB
:1042000001C080E0B82FB170CB2E80FD6CC1D09082
:104210009F03DD2009F4F5C0F091A203E216F30636
:1042200038F0C701821B930B883C910548F09BC076
:10423000209530952E0D3F1D283C310508F093C088
:104240008F2F807F09F052C0E51314C0741312C081
:10425000D62E61110FC0FF70F061F093A2030E948F
:1042600053208DE993E00E94B01F8091A203F801D2
:1042700085836CC1EF2831F05F3F31F481E04F3F1F
:1042800019F403C081E001C080E080FD03C081E03B
:10429000862701C080E0F82FF170FF2E80FF1CC040
:1042A00080916B0320916C0336E0821709F428C1DA
:1042B00090E0389FF001399FF00D1124E359FC4F35
:1042C0007181571306C07081471303C07281671351
:1042D00003C001968770E9CFD62E662309F436C154
:1042E0008091A20381608093A20353C0E51308C0AC
:1042F000741306C0611104C0D8011596FC93AEC0BA
:104300004D875E878D859E856A8B0E94F01F6A8926
:10431000882329F1D62E662311F12091A203822F42
:1043200082958F7090E002970CF460C080919D039D
:1043300090919E0398878F831986FB86EA862C8747
:10434000CE01079651C0E51731F14D875E878D8507
:104350009E856A8B0E94F01F6A8981112EC0C80158
:104360000E94B01FA4C08F2F807F69F77E2DF98A2D
:10437000E88A89890E9413208DE993E00E94B01F8A
:10438000EDE9F3E086E0DF011D928A95E9F70E94EE
:104390005320D12CDBC07413D8CF6111D6CFD801F4
:1043A0001596FC93C8010E94B01FEDE9F3E086E08A
:1043B000DF011D928A95E9F7C9C0D62E662379F2EE
:1043C0002091A203822F82958F7090E0029774F063
:1043D00080919D0390919E039A8389831B82FD8225
:1043E000EC822E83CE0101960E94B01F86E0F80178
:1043F000ADE9B3E001900D928A95E1F70E9461204A
:104400006FC0E216F30628F0C701821B930B9C01D4
:1044100004C0209530952E0D3F1D283C310508F035
:1044200052C0D62E662309F49ACFE5132CC074131C
:104430002AC08091A20380FD1DC0982F92959F7085
:10444000C9F0D80115968C9315979F3039F09F5F6E
:104450009295907F8F70892B15968C93C8010E943E
:10446000B01F86E0F801ADE9B3E001900D928A95A6
:10447000E1F736C086E0F801ADE9B3E001900D92B6
:104480008A95E1F763C04D875E878D859E850E9482
:10449000F01F882379F086E0F801ADE9B3E00190E0
:1044A0000D928A95E1F70E9461200E945320DD243D
:1044B000D3944CC08091A20381608093A203C80171
:1044C0000E94B01F43C07E2DF98AE88A89890E9424
:1044D0001320EDE9F3E086E0DF011D928A95E9F70C
:1044E0000E94532033C0662309F439CF4D875E877D
:1044F0008D859E850E94F01F882309F430CFCBCF95
:104500004D875E878D859E850E941825292F2295CF
:104510002F7030E0223031052CF49F7041F0811172
:1045200006C00CC0243031052CF49F7049F4805E25
:10453000883020F0C8010E94B01FCF2CDC2C06C0B0
:10454000D80115969C91907F91F7F8CF8D2D6296AA
:104550000FB6F894DEBF0FBECDBFDF91CF911F9194
:104560000F91FF90EF90DF90CF9008951F93CF931E
:10457000DF93CDB7DEB72C970FB6F894DEBF0FBE32
:10458000CDBF4F83588769877A878B879C87CE01F9
:1045900007960E94C9208823C1F02F8138858A851B
:1045A0009B85892B31F03F3F11F080E003C02F3F06
:1045B000E1F781E0811147C04F81588569857A858F
:1045C0008B859C850E9422203EC086E0FE013796A6
:1045D000DE01119601900D928A95E1F7FF81E88541
:1045E0004A855B854115510531F0EF3F31F481E09B
:1045F000FF3F19F403C081E001C080E080FD23C0CB
:1046000020916C0330E0C901019687709927609171
:104610006B0370E086179707F1F1F983EA835D83F6
:104620004C8396E0929FD001939FB00D1124A35923
:10463000BC4FFE01319601900D929A95E1F780935F
:104640006C030E94322016E080916B0390916C0302
:10465000891779F1189FC001112483599C4F0E943A
:10466000C920882331F1E0916B031E9FF0011124D2
:10467000E359FC4F4081518162817381848195812E
:104680000E94222080916B0390E001968770992709
:1046900080936B03D9CF0E94EC1F10926C03109291
:1046A0006B03EDE9F3E086E0DF011D928A95E9F7FF
:1046B000CACF2C960FB6F894DEBF0FBECDBFDF91E8
:1046C000CF911F910895EF92FF920F931F93CF9375
:1046D000DF939C01009709F471C0F12CEE24E39460
:1046E000E9012196F9018491843740F4843008F07F
:1046F00056C0813081F0823021F160C0853709F4E5
:1047000049C0C0F19CE7980F903708F057C08F77E9
:104710000E94FD1C46C089010E5F1F4FFE0184915F
:1047200090E2980F983050F48770FE2D01C0FF0F73
:104730008A95EAF78F2F0E94FF2515C00E94351C2D
:1047400014C089010E5F1F4FFE01849190E2980F03
:10475000983068F48770FE2D01C0FF0F8A95EAF744
:104760008F2F0E9405260E942826E8011AC00E9469
:10477000FD1CFBCF2E5F3F4FFE01C491CC2341F0C7
:104780008FE99FE00197F1F700C00000C150F6CF1C
:10479000E90107C0FE01F490E901229602C00E94DF
:1047A000351C8F2D882341F0EFE9FFE03197F1F7B9
:1047B00000C000008150F6CF9E0192CFDF91CF91D3
:1047C0001F910F91FF90EF90089508950E94E523A7
:1047D0006093A7037093A8038093A9039093AA03FF
:1047E0000C94DC1F08950C94E6230F931F93009103
:1047F000A7031091A8032091A9033091AA03602B6D
:10480000712B822B932B1F910F910C94E6230F9306
:104810001F930091A7031091A8032091A903309141
:10482000AA0360237123822393231F910F910C9479
:10483000E6230F931F930091A7031091A8032091E3
:10484000A9033091AA0360277127822793271F911C
:104850000F910C94E62308950E942B246093A303E8
:104860007093A4038093A5039093A6030C94DC1F7C
:1048700060E070E0CB010C942C2441E050E060E05B
:1048800070E004C0440F551F661F771F8A95D2F74A
:10489000CB01BA010C942C2441E050E060E070E0C0
:1048A00004C0440F551F661F771F8A95D2F7809169
:1048B000A3039091A403A091A503B091A603482B54
:1048C000592B6A2B7B2BCB01BA010C942C2441E091
:1048D00050E060E070E004C0440F551F661F771F72
:1048E0008A95D2F740955095609570958091A30375
:1048F0009091A403A091A503B091A6034823592346
:104900006A237B23CB01BA010C942C2441E050E0B4
:1049100060E070E004C0440F551F661F771F8A9542
:10492000D2F78091A3039091A403A091A503B09125
:10493000A603482759276A277B27CB01BA010C9485
:104940002C240F931F930091A3031091A403209193
:10495000A5033091A603602B712B822B932B1F9103
:104960000F910C942C240F931F930091A30310918B
:10497000A4032091A5033091A60360237123822311
:1049800093231F910F910C942C240F931F9300914C
:10499000A3031091A4032091A5033091A6036027DF
:1049A0007127822793271F910F910C942C2408952F
:1049B000CF92DF92EF92FF920F931F93CF93DF93EB
:1049C000EC01C090A703D090A803E090A903F09059
:1049D000AA038091A3039091A403A091A503B09191
:1049E000A603C82AD92AEA2AFB2A0FE110E0B70158
:1049F000A601002E04C076956795579547950A94B1
:104A0000D2F740FD05C00150110988F780E007C0CA
:104A1000BE01802F0E94A0160197A9F3802FDF917D
:104A2000CF911F910F91FF90EF90DF90CF9008955D
:104A3000CF93DF93EC010E94D824BE010E94A01600
:104A4000DF91CF910895CB010E94182508958091A0
:104A5000AB0385958595859508958091AB03877007
:104A6000089598E0899F90011124622B6093AB0315
:104A70000C944C244091AB03809584238093AB032A
:104A8000982F977069F450E0282F332727FD309531
:104A90004217530729F08595859585950C946724D1
:104AA00008959091AB03977081E009F480E0089538
:104AB00090913E019923D9F09091FA0397FF17C086
:104AC000982F9695969596959F3188F5E0913201AD
:104AD000F0913301E90FF11D877021E030E001C052
:104AE000220F8A95EAF78181822B81830895409174
:104AF00032015091330120E030E09FEFFA01E20FE4
:104B0000F31F6281681799F09F3F19F4611101C08A
:104B1000922F2F5F3F4F2E31310581F79F3F39F0A4
:104B2000FA01E90FF11D97FDFA9582830895089522
:104B300090913E019923E1F09091FA0397FF18C0FC
:104B4000982F9695969596959F3120F5E091320194
:104B5000F0913301E90FF11D877021E030E001C0D1
:104B6000220F8A95EAF720958181282321830895D1
:104B7000409132015091330120E030E0FA01E20F20
:104B8000F31F9281981301C012822F5F3F4F2E3185
:104B90003105A1F7089581E090E0E0913201F091B4
:104BA0003301E80FF91F1082019680329105A9F7B1
:104BB00008958091CF0308959091CF03982B9093FF
:104BC000CF03089580959091CF0398239093CF03BE
:104BD00008958093CF0308951092CF030895909184
:104BE000CE03982B9093CE03089580959091CE0399
:104BF00098239093CE0308951092CE030895909138
:104C0000CD03982B9093CD03089580959091CD037B
:104C100098239093CD0308951092CD030895809327
:104C2000AC0308951092AC03089540913201509165
:104C3000330120E030E080E0FA01E20FF31F9181C0
:104C400091118F5F2F5F3F4F2F313105A9F70895E5
:104C5000E0913201F09133018091CF038083E091A4
:104C60003201F091330180819091CE03892B8083B2
:104C7000E0913201F091330180819091CD03892B35
:104C800080839091AC03992361F0E0913201F0911F
:104C900033018081892B80830E9415268111109217
:104CA000AC0380913201909133010C94D31ACF92CE
:104CB000DF92EF92FF920F931F936C01EE24FF247B
:104CC000C114D104E104F10421F46B017C0180E002
:104CD00001C080E133272F2D1E2D0D2D011511054B
:104CE0002105310519F0885F680179019701860176
:104CF000A4E03695279517950795AA95D1F7011544
:104D000011052105310519F08C5F680179019701C2
:104D10008601F2E03695279517950795FA95D1F714
:104D2000011511052105310519F08E5F6801790122
:104D3000B701A6017695679557954795452B462B64
:104D4000472B09F08F5F1F910F91FF90EF90DF903D
:104D5000CF9008956DEE7EEF80E090E00E940C2FE2
:104D600060E082E090E00E94FA2E60E083E090E054
:104D70000E94FA2E60E084E090E00E94FA2E60E04B
:104D800085E090E00C94FA2E80E090E00E94F42EF2
:104D900021E08D3E9E4F09F020E0822F089582E0B1
:104DA00090E00C94EC2E83E090E00C94EC2E84E0E8
:104DB00090E00C94EC2E682F84E090E00C94FA2E96
:104DC00080910004843021F11092D10320E488E125
:104DD00090E00FB6F894A895809360000FBE2093E2
:104DE000600080E00E94831683B7817F846083BF68
:104DF00083B7816083BF7894889583B78E7F83BFA4
:104E000088E10FB6F89480936000109260000FBEA6
:104E100008950895CF930E9464100E9477100E9415
:104E20000927C0E08C2F0E947511811105C0CF5F4A
:104E3000CE30C1F780E001C081E0CF9108950E949B
:104E4000EC1F0E94C71A0C9483161F920F920FB684
:104E50000F9211248F939F93AF93BF938091D103AF
:104E6000811113C08091F6039091F703A091F8038C
:104E7000B091F9034196A11DB11D8093F603909363
:104E8000F703A093F803B093F903BF91AF919F91FB
:104E90008F910F900FBE0F901F90189582E084BDE8
:104EA00093E095BD9AEF97BD80936E0008952FB75C
:104EB000F8948091F6039091F703A091F803B091D4
:104EC000F9032FBF0895CF92DF92EF92FF920F93D5
:104ED0001F932FB7F8944091F6035091F703609118
:104EE000F8037091F9032FBF6A017B01EE24FF24C0
:104EF0008C0120E030E0C016D106E206F30610F483
:104F000041505109481B590BCA011F910F91FF9045
:104F1000EF90DF90CF90089578941F920F920FB684
:104F20000F9211248F939F93AF93BF938091F603B9
:104F30009091F703A091F803B091F9030196A11D98
:104F4000B11D8093F6039093F703A093F803B093F9
:104F5000F903BF91AF919F918F910F900FBE0F906A
:104F60001F9018950E94DD2BF8942FEF87EA91E6A9
:104F7000215080409040E1F700C0000087E090EBB6
:104F8000DC018093090490930A04A0930B04B0936E
:104F90000C042CE088E190E00FB6F894A89580937B
:104FA00060000FBE20936000FFCF0E94C4268111D5
:104FB00002C00E94AA260E94CF268093D0030E949E
:104FC000D72690E09093FB038093FA030E94D326A8
:104FD000682F70E080E090E00C94F3238091F2035E
:104FE000089508950F931F93CF93DF9300D01F92DE
:104FF000CDB7DEB78C010E942E2A823011F08430AA
:1050000021F583E089831B830A8382E08093E90092
:105010008FEF9091E800815095FD06C095ED9A952F
:10502000F1F700008111F5CF8091E80085FF0DC0F8
:1050300040E050E063E070E0CE0101960E944B2A10
:105040008091E8008E778093E8000F900F900F908A
:10505000DF91CF911F910F910895CF93DF9300D0EF
:105060001F92CDB7DEB720910004243029F522E04D
:105070002983805891099B838A832093E9008FEFCD
:105080009091E800815095FD06C095ED9A95F1F755
:1050900000008111F5CF8091E80085FF0DC040E050
:1050A00050E063E070E0CE0101960E944B2A8091AF
:1050B000E8008E778093E8000F900F900F90DF91BB
:1050C000CF910895CF93DF93EC010E942E2A823076
:1050D00019F0843009F047C080913E018823E1F047
:1050E0008091FA0387FF18C083E08093E9008FEF77
:1050F0009091E800815095FD06C095E19A95F1F7F1
:1051000000008111F5CF8091E80085FF2CC040E0C0
:1051100050E060E270E017C081E08093E9008FEF1B
:105120009091E800815095FD06C095ED9A95F1F7B4
:1051300000008111F5CF8091E80085FF14C040E0A8
:1051400050E068E070E0CE010E944B2A8091E800B8
:105150008E778093E80080E2FE01A2EDB3E001903B
:105160000D928A95E1F7DF91CF9108958091FF0329
:10517000811109C00E94DD2B0E943A2C8091E2002F
:1051800084608093E20008951092FF0308950895CB
:1051900008950C941F2742E061EC81E00E94572B98
:1051A00042E061EC82E00E94572B42E261EC83E036
:1051B0000C94572B80910204833009F455C030F4CD
:1051C000813071F0823009F48EC008958A3009F47C
:1051D0007AC08B3009F460C0893009F09CC020C0CF
:1051E00080910104813A09F096C08091E800877FA0
:1051F0008093E8008091050490910604892B21F0AA
:1052000060E080E090E003C060E282ED93E070E057
:105210000E94942A8091E8008B778093E80008959B
:1052200080910104813209F076C08091050490914B
:105230000604009719F0029709F06DC08091E8000C
:10524000877F8093E8008091E80082FD05C080910F
:1052500000048111F8CF5FC08091F1008093F203C8
:105260008091E8008B7753C080910104813A09F066
:1052700052C08091050490910604892B09F04BC01F
:105280008091E800877F8093E8008091E80080FFAC
:10529000FCCF80913E0136C0809101048132D9F566
:1052A0008091050490910604892BA9F58091E8006E
:1052B000877F8093E8000E948C2B80910304809369
:1052C0003E010C94EC1F80910104813221F5809104
:1052D000E800877F8093E8000E948C2B8091040473
:1052E0008093F303089580910104813AA1F48091A1
:1052F000E800877F8093E8008091E80080FFFCCF82
:105300008091F3038093F1008091E8008E77809381
:10531000E8000C948C2B089584B7877F84BF88E1C4
:105320000FB6F89480936000109260000FBE80E882
:1053300080936100109261000E940B1B0E94DD2B84
:105340000E943A2C8091E20084608093E20078947D
:105350000E94B52E0E940D1B84E391E00E94C21AA8
:1053600080910004853069F40E94E0268091FE035C
:105370008823B1F30E940A27882391F30E94352ADB
:10538000EFCF0E94191BECCF292F33272330310593
:10539000A9F06CF42130310509F442C02230310506
:1053A00009F043C084E590E026E03EE142C02132AE
:1053B0003105C9F02232310519F137C09927813002
:1053C000910541F08230910541F0892B71F5E2E0C1
:1053D000FEE105C0EAEEFDE102C0E2EDFDE18491EF
:1053E00090E09F0126C0633000F5E62FF0E0EE0F5D
:1053F000FF1FE05DFD4F2081318189E090E019C001
:10540000633098F4E62FF0E0DF01AA0FBB1FA65D22
:10541000BD4F2D913C91E95DFD4F808190E009C029
:1054200082E190E02AE53EE104C080E090E020E0E7
:1054300030E0FA013183208308950895CF93C82F77
:105440000E941D2AC093F403CF9108958091000417
:10545000843011F482E0089581E008958091F4038E
:10546000811102C00C94262A089580E189BD82E151
:1054700089BD09B400FEFDCF8091D8008F7D809357
:10548000D8008091E00082608093E0008091E0008D
:1054900081FDFCCF0895CF92DF92EF92FF920F93A0
:1054A0001F93CF93DF937C018B01EA010E94AD2B08
:1054B000811131C0209731F088819981081B190B27
:1054C000E80EF91EC12CD12C0115110519F180919E
:1054D000E80085FD14C08091E8008E778093E80095
:1054E000209741F0888199818C0D9D1D9983888337
:1054F00085E011C00E94AD2B882331F30CC0F70169
:1055000081917F018093F10001501109FFEFCF1AC3
:10551000DF0ADACF80E0DF91CF911F910F91FF90EA
:10552000EF90DF90CF900895209107043091080408
:105530002617370748F06115710539F42091E80006
:105540002E772093E80001C0B901FC0120E061152D
:105550007105B9F180910004882309F440C08530B9
:1055600009F43FC08091E80083FD3DC08091E800D0
:1055700082FF06C08091E80082FF26C080E0089587
:105580008091E80080FFE3CF2091F3008091F2004A
:1055900090E0922B6115710551F08830910538F437
:1055A00021912093F100615071090196F3CF21E020
:1055B000089709F020E08091E8008E778093E8005A
:1055C000C6CF2111C7CFD6CF80910004882339F0F0
:1055D000853039F08091E80083FFCCCF04C082E0B1
:1055E000089583E0089581E00895209107043091A3
:1055F00008042617370748F06115710539F4209122
:10560000E8002E772093E80001C0B901FC0120E0FA
:1056100061157105C1F180910004882309F441C02E
:10562000853009F440C08091E80083FD3EC0809140
:10563000E80082FF06C08091E80082FF27C080E07A
:1056400008958091E80080FFE3CF2091F3008091DE
:10565000F20090E0922B6115710559F088309105A8
:1056600040F424912093F100319661507109019624
:10567000F2CF21E0089709F020E08091E8008E77D2
:105680008093E800C5CF2111C6CFD5CF809100040B
:10569000882339F0853039F08091E80083FFCBCF43
:1056A00004C082E0089583E0089581E00895982F72
:1056B000973058F59093E900981739F07091EC0005
:1056C0002091ED005091F00003C0242F762F50E080
:1056D00021FF19C03091EB003E7F3093EB003091F9
:1056E000ED003D7F3093ED003091EB003160309361
:1056F000EB007093EC002093ED005093F0002091AC
:10570000EE0027FF07C09F5FD3CF8F708093E90023
:1057100081E0089580E008958091010487FD05C02F
:105720008091E80080FF0EC012C08091E80082FDE9
:1057300005C0809100048111F8CF08958091E800A0
:105740008B7708C0809100048111EACF0895809181
:10575000E8008E778093E80008958091E4009091AE
:10576000E50045E62091EC0020FF21C02091E800F3
:1057700020FD21C020910004222389F0253089F0EA
:105780002091EB0025FD0FC02091E4003091E50051
:105790002817390739F3415041F0C901E3CF82E0BE
:1057A000089583E0089581E0089584E008952091AC
:1057B000E80022FFDFCF80E008950E944B2C0E947A
:1057C000532CE0EEF0E0808181608083E8EDF0E032
:1057D00080818F77808319BCA7EDB0E08C918E7F9C
:1057E0008C9380818F7E80831092FF0308950F93A6
:1057F0001F93CF93DF930E944B2C0E94532CC8ED34
:10580000D0E088818F7788838881806888838881C9
:105810008F7D888319BC109200041092FC031092B3
:10582000FE031092FD0300EE10E0F80180818B7FF3
:10583000808388818160888342E060E080E00E940C
:10584000572BE1EEF0E080818E7F8083E2EEF0E086
:10585000808181608083808188608083F80180817D
:105860008E7F8083888180618883DF91CF911F91B3
:105870000F910895E8EDF0E080818F7E8083E7ED61
:10588000F0E080818160808384E082BF81E080934A
:10589000FF030C94F72BE8EDF0E080818E7F80838E
:1058A0001092E20008951092DA001092E10008953B
:1058B0001F920F920FB60F9211242F933F934F9385
:1058C0005F936F937F938F939F93AF93BF93EF9368
:1058D000FF938091E10082FF0BC08091E20082FF84
:1058E00007C08091E1008B7F8093E1000E94B42E7D
:1058F0008091DA0080FF1FC08091D80080FF1BC01C
:105900008091DA008E7F8093DA008091D90080FF49
:105910000DC080E189BD82E189BD09B400FEFDCFE3
:1059200081E0809300040E94B62805C019BC109243
:1059300000040E94C4288091E10080FF19C080917A
:10594000E20080FF15C08091E2008E7F8093E2002C
:105950008091E20080618093E2008091D8008062B3
:105960008093D80019BC85E0809300040E94C82869
:105970008091E10084FF30C08091E20084FF2CC060
:1059800080E189BD82E189BD09B400FEFDCF80912F
:10599000D8008F7D8093D8008091E1008F7E809326
:1059A000E1008091E2008F7E8093E2008091E2002E
:1059B00081608093E2008091FC03882311F084E0F1
:1059C00007C08091E30087FF02C083E001C081E04F
:1059D000809300040E94C9288091E10083FF29C0C0
:1059E0008091E20083FF25C08091E100877F809352
:1059F000E10082E0809300041092FC038091E100BA
:105A00008E7F8093E1008091E2008E7F8093E200A0
:105A10008091E20080618093E20042E060E080E0FB
:105A20000E94572B8091F00088608093F0000E94C4
:105A3000C728FF91EF91BF91AF919F918F917F9177
:105A40006F915F914F913F912F910F900FBE0F90EB
:105A50001F9018951F920F920FB60F9211242F933B
:105A60003F934F935F936F937F938F939F93AF93E6
:105A7000BF93CF93EF93FF93C091E900CF708091D4
:105A8000EC001092E9008091F000877F8093F00095
:105A900078940E94662D1092E9008091F000886051
:105AA0008093F000C093E900FF91EF91CF91BF91F7
:105AB000AF919F918F917F916F915F914F913F91A6
:105AC0002F910F900FBE0F901F9018951F93CF939B
:105AD000DF93CDB7DEB7AA970FB6F894DEBF0FBE3F
