:100000000C9454130C9498130C9498130C94981308
:100010000C9498130C9498130C9498130C949813B4
:100020000C9498130C9498130C9406310C94D831BA
:100030000C94D32B0C9498130C9498130C94981341
:100040000C9498130C9498130C9498130C94981384
:100050000C9498130C943A2C0C9498130C949813B9
:100060000C9498130C9498130C9498130C94981364
:100070000C9498130C9498130C9498130C94981354
:100080000C9498130C9498130C9498130C94981344
:100090000C9498130C9498130C9498130C94981334
:1000A0000C9498130C9498130C949813191A1F1A03
:1000B000231A261A2A1A2E1A321A361A3B1A3F1AED
:1000C000431A471A4A1A4E1A521A561A5A1A5F1ADD
:1000D0004822482282228222B9223024F32330246B
:1000E000DB22302482238223EC23302430242C246E
:1000F0008F238F238F238F238F238F238F238F2370
:100100008F238F238F238F238F238F238F238F235F
:10011000A123AF23B623BD23C723AC24AC24BF2423
:10012000BF24B524BF24BF24BF24AC24AC24BB24EB
:10013000BF24BF24BB243D325F324A335F324A338F
:10014000A132C4324A3319332C330000F0A22E00FE
:100150004C002A00E100354200001E00140004009B
:100160001D6134004D001F001A0016001B00E10441
:100170002A00200008000700060050002C00210083
:100180001500090019004F004A00220017000A005C
:10019000050000006564000002530000006F0000CD
:1001A000E30001530253000000670000E200230057
:1001B0001C000B00110000002961240018000D0034
:1001C000100052004B0025000C000E0036005100BC
:1001D0002800260012000F0037002F002B002700F8
:1001E00013003300386130004E002D0031003468B8
:1001F000E500C10000003A00E200E000CC5CCC5C0D
:1002000000003B002B00CC5CCC5CCC5CCC5C3C00AC
:10021000CC5CCC5CCC5CCC5CCC5C3D00CC5CCC5C89
:10022000CC5C0100CC5C3E00CC5CCC5CCC5C0100C6
:10023000CC5C3F00CC5CCC5CCC5C0000CC5C2A008D
:10024000CC5C0000CC5C0000CC5C0100CC5C00000D
:10025000CC5C0000CC5C4000CC5CCC5CCC5C000096
:10026000CC5C4100CC5CCC5CCC5C0100CC5C420042
:10027000CC5CCC5CCC5C0100CC5C4300CC5CCC5C4A
:10028000CC5CCC5CCC5C44004C00CC5CCC5CCC5CEE
:10029000CC5C4500E600E400CC5CCC5C00003A009D
:1002A00001000100E100010000003B00010001002D
:1002B0000100010001003C000100010001000100FB
:1002C00001003D000100010001004B0001003E0063
:1002D0000100010001004E0001003F00010001008B
:1002E000010000000100005C0100000001000000AE
:1002F00001000000010000000100000001004000BA
:1003000001000100010000000100410001000100A6
:1003100001004A00010042000100010001004D00FF
:100320000100430001000100010001000100440040
:100330000100010001000100010045000100010071
:10034000E5000100000000000000000000000000C7
:10035000000020000080200000800000000000005D
:10036000000000000000300000802100008021001B
:100370000080520000800000000032000080310048
:100380000080460000804700008050000080000090
:100390000000330000804400008045000080000021
:1003A00000001100008000000000340000804200C6
:1003B0000080430000800000000051000080000029
:1003C00000003500008040000080410000800000F7
:1003D000000010000080000000009100008000007C
:1003E00000001000008000000000100000800000ED
:1003F00000001200008000000000120000800000D9
:1004000000001000008000000000850000806000F7
:1004100000806100008000000000100000800000EB
:100420000000840000806200008063000080000003
:100430000000520000800000000083000080640083
:1004400000806500008000000000110000800000B6
:10045000000082000080810000806600008067004C
:1004600000805400008000000000000000008000B8
:100470000080700000807100008053000080000048
:100480000000000000000000000072000080720008
:100490000080000000000000000000002B000000B1
:1004A0000000280000000000000000000000000024
:1004B00000000000000034000000000000003700D1
:1004C0000000000000003400500000000000300276
:1004D00000000000000034020000000000003002B4
:1004E000500000000000340250000000000027020D
:1004F000000000000000370200000000000027029A
:1005000050000000000037025000000000003000E2
:1005100000000000000000000000000000003000AB
:100520005000000000002C005000000000003700C8
:10053000000000000000340037000000000033021B
:1005400000000000000034003700D15C00003002E1
:1005500037000000000034023700000000003002C5
:100560003700D15C000034023700D15C0000270264
:1005700037000000000025023800000000002702BC
:100580003700D15C000025023800D15C000030004B
:1005900037000000000000000000000000003000F4
:1005A0003700D15C000000000000000000003600B1
:1005B00000000000000034003600000000002E00A3
:1005C00000000000000034003600D15C0000300262
:1005D0003600000000003402360000000000300247
:1005E0003600D15C000034023600D15C00002702E6
:1005F000360000000000370236000000000027022D
:100600003600D15C000037023600D15C00003000BB
:100610003600000000000000000000000000300074
:100620003600D15C00000000000000000000330034
:10063000000000000000340033000000000033021E
:1006400033020000000034003300D15C00003002AF
:1006500033000000000034023300000000003002CC
:100660003300D15C000034023300D15C000027026B
:10067000330000000000000000000000000027021E
:100680003300D15C000000000000000000003000DA
:1006900033000000000000000000000000003000F7
:1006A0003300D15C000000000000000000002800C2
:1006B00000000000000034002800000000003700A7
:1006C00028000000000000000000000000003002D0
:1006D000280000000000340228000000000028006C
:1006E0003002D25C00000000000000000000270281
:1006F0002800000000003702280000000000280049
:100700002702D25C00000000000000000000300062
:100710002800000000000000000000000000280089
:100720003000D25C00000000000000000000370034
:1007300028000000000034003700280000003302C9
:10074000280000000000000000000000000030024F
:1007500037002800000034023700280000000000A5
:100760000000000000000000000000000000270260
:100770003700280000002502380028000000000093
:100780000000000000000000000000000000300039
:1007900037002800000000000000000000000000FA
:1007A0000000000000000000000000000000360013
:1007B00028000000000034003600280000002E0051
:1007C00028000000000000000000000000003002CF
:1007D0003600280000003402360028000000000027
:1007E00000000000000000000000000000002702E0
:1007F00036002800000037023600280000004D00B7
:100800002800000000000000000000000000300090
:10081000360028000000000000000000000000007A
:100820000000000000000000000000000000330095
:1008300028000000000034003300280000003302CC
:100840003302280000000000000000000000300219
:1008500033002800000034023300280000000000AC
:10086000000000000000000000000000000027025F
:10087000330028000000000000000000000000001D
:100880000000000000000000000000000000300038
:1008900033002800000000000000000000000000FD
:1008A0000000000000000000000000000000270021
:1008B00000000000000000000000000000001E001A
:1008C0000000000000000000000000000000000028
:1008D0000000000000000000000000000000000018
:1008E00000000000000000000000000000001F00E9
:1008F00000000000000000000000000000002000D8
:1009000000000000000000000000000000000000E7
:1009100000000000000000000000000000000000D7
:1009200000000000000000000000000000000000C7
:1009300000000000000000000000000000000000B7
:1009400000000000000000000000000000000000A7
:100950000000000000000000000000000000000097
:100960000000000000000000000000000000000087
:100970000000000000000000000000000000000077
:100980000000000000000000000000000000000067
:100990000000000000000000000000000000000057
:1009A0000000000000000000000000000000210026
:1009B0000000000000000000000000000000220015
:1009C0000000000000000000000000000000000027
:1009D0000000000000000000000000000000000017
:1009E00000000000000000000000000000002300E4
:1009F00000000000000000000000000000002400D3
:100A000000000000000000000000000000000000E6
:100A100000000000000000000000000000000000D6
:100A200000000000000000000000000000000000C6
:100A300000000000000000000000000000000000B6
:100A400000000000000000000000000000000000A6
:100A50000000000000000000000000000000000096
:100A60000000000000000000000000000000000086
:100A70000000000000000000000000000000000076
:100A80000000000000000000000000000000000066
:100A90000000000000000000000000000000000056
:100AA0000000000000000000000000000000250021
:100AB0000000000000000000000000000000260010
:100AC0000000000000000000000000000000000026
:100AD0000000000000000000000000000000000016
:100AE00000000000000000000000000000001E00E8
:100AF00027000000000000000000000000001E00B1
:100B00001E000000000000000000000000000000C7
:100B100000000000000000000000000000000000D5
:100B200000000000000000000000000000000000C5
:100B300000000000000000000000000000000000B5
:100B400000000000000000000000000000000000A5
:100B50000000000000000000000000000000000095
:100B60000000000000000000000000000000000085
:100B70000000000000000000000000000000000075
:100B80000000000000000000000000000000000065
:100B90000000000000000000000000000000000055
:100BA00000000000000000000000000000001E0027
:100BB0001F000000000000000000000000001E00F8
:100BC0002000000000000000000000000000000005
:100BD0000000000000000000000000000000000015
:100BE00000000000000000000000000000001E00E7
:100BF00021000000000000000000000000001E00B6
:100C000022000000000000000000000000000000C2
:100C100000000000000000000000000000000000D4
:100C200000000000000000000000000000000000C4
:100C300000000000000000000000000000000000B4
:100C400000000000000000000000000000000000A4
:100C50000000000000000000000000000000000094
:100C60000000000000000000000000000000000084
:100C70000000000000000000000000000000000074
:100C80000000000000000000000000000000000064
:100C90000000000000000000000000000000000054
:100CA0000000000000000000000000000000000044
:100CB00000000000000034000000000000003600CA
:100CC00000000000000033000000000000002F02C0
:100CD00000000000000034020000000000003702A5
:100CE000000000000000370237020000000026026A
:100CF00000000000000036020000000000002D008F
:100D000037020000000036023602000000002F000B
:100D10000000000000000000000000000000380299
:100D200000000000000020020000000000002E0271
:100D30000000000000003500000000000000350247
:100D400000000000000037000000000000002E023C
:100D50002E0200000000000000000000000024023D
:100D60000000000000002402240200000000310006
:100D70000000000000000000000000000000310042
:100D80003100000000001F02000000000000000011
:100D90000000000000000000000000000000000053
:100DA00000000000000000000000000000002D0016
:100DB00000000000000000000000000000002E0005
:100DC00000000000000021020000000000003800C8
:100DD0000000000000003800380000000000261469
:100DE00000000000000038003800380000002D002E
:100DF0002D000000000000000000000000002D0297
:100E0000000000000000210226020000000038005F
:100E10002502000000000000000000000000380073
:100E2000250225020000380038003800360225026D
:100E300000000000000000000000000000001E0292
:100E4000000000000000370025020000000025021D
:100E5000380000000000000000000000000000005A
:100E600000000000000021022F0200000000250207
:100E70002602000000000000000000000000310217
:100E800000000000000025023700250200002202B9
:100E9000000000000000000000000000000031021F
:100EA0003102000000000000000000000000D05CE3
:100EB00000000000000000000000000000004D02E3
:100EC0004C000000000000000000000000000000D6
:100ED0000000000000000000000000000000000012
:100EE0000000000000000000000000000000000002
:100EF00000000000000000000000000000000000F2
:100F000000000000000000000000000000000000E1
:100F100000000000000000000000000000000000D1
:100F200000000000000000000000000000000000C1
:100F300000000000000000000000000000000000B1
:100F400000000000000000000000000000000000A1
:100F50000000000000000000000000000000000091
:100F60000000000000000000000000000000000081
:100F70000000000000000000000000000000000071
:100F80000000000000000000000000000000000061
:100F90000000000000000000000000000000000051
:100FA0000000000000000000000000000000D05C15
:100FB000D05C000000000000000000000000000005
:100FC0000000000000000000000000000000000021
:100FD0000000000000000000000000000000000011
:100FE00000000000000000000000000000004A02B5
:100FF0004C000000000000000000000000004A005B
:101000004D024C0000000000000000000000000045
:1010100000000000000000000000000000000000D0
:101020000000000000000000000000000000250299
:101030002502000000000000000000000000000089
:1010400000000000000000000000000000000000A0
:101050000000000000000000000000000000000090
:101060000000000000000000000000000000000080
:101070000000000000000000000000000000000070
:101080000000000000000000000000000000000060
:101090000000000000000000000000000000000050
:1010A0000000000000000000000000000000270019
:1010B00000000000000000000000000000001E0012
:1010C00000000000000000000000000000002F02EF
:1010D00027000000000000000000000000000000E9
:1010E00000000000000000000000000000001F00E1
:1010F00000000000000000000000000000002000D0
:1011000000000000000000000000000000002F00B0
:1011100027000000000000000000000000000000A8
:1011200000000000000000000000000000000000BF
:1011300000000000000000000000000000000000AF
:10114000000000000000000000000000000000009F
:10115000000000000000000000000000000000008F
:101160000000000000000000000000000000260257
:101170002700000000000000000000000000000048
:10118000000000000000000000000000000000005F
:10119000000000000000000000000000000000004F
:1011A000000000000000000000000000000021001E
:1011B000000000000000000000000000000022000D
:1011C000000000000000000000000000000000001F
:1011D000000000000000000000000000000000000F
:1011E00000000000000000000000000000002300DC
:1011F00000000000000000000000000000002400CB
:1012000000000000000000000000000000000000DE
:1012100000000000000000000000000000000000CE
:1012200000000000000000000000000000000000BE
:1012300000000000000000000000000000000000AE
:10124000000000000000000000000000000000009E
:10125000000000000000000000000000000000008E
:10126000000000000000000000000000000000007E
:10127000000000000000000000000000000000006E
:10128000000000000000000000000000000000005E
:10129000000000000000000000000000000000004E
:1012A0000000000000000000000000000000250019
:1012B0000000000000000000000000000000260008
:1012C000000000000000000000000000000000001E
:1012D000000000000000000000000000000000000E
:1012E00000000000000000000000000000001E00E0
:1012F00027000000000000000000000000001E00A9
:101300001E000000000000000000000000000000BF
:1013100000000000000000000000000000000000CD
:1013200000000000000000000000000000000000BD
:1013300000000000000000000000000000000000AD
:10134000000000000000000000000000000000009D
:10135000000000000000000000000000000000008D
:10136000000000000000000000000000000000007D
:10137000000000000000000000000000000000006D
:10138000000000000000000000000000000000005D
:10139000000000000000000000000000000000004D
:1013A00000000000000000000000000000001E001F
:1013B0001F000000000000000000000000001E00F0
:1013C00020000000000000000000000000000000FD
:1013D000000000000000000000000000000000000D
:1013E00000000000000000000000000000001E00DF
:1013F00021000000000000000000000000001E00AE
:1014000022000000000000000000000000000000BA
:1014100000000000000000000000000000000000CC
:1014200000000000000000000000000000000000BC
:1014300000000000000000000000000000000000AC
:10144000000000000000000000000000000000009C
:10145000000000000000000000000000000000008C
:10146000000000000000000000000000000000007C
:10147000000000000000000000000000000000006C
:10148000000000000000000000000000000000005C
:10149000000000000000000000000000000000004C
:1014A000000000000000000000000000000000003C
:1014B00000000000070000000000340016000000DB
:1014C0000700000000000000000000000000000015
:1014D00000001100340017000000000000000800A8
:1014E0001500000000000000000034000F000F0095
:1014F0000000000000000C0011000A0000000000C5
:1015000000000000000000000000000000000800D3
:101510001500000000000000000034001900080061
:1015200000000000000000000000000000000000BB
:1015300000000000000000000000000000000C009F
:1015400011000A0000000000000000000000000080
:10155000000000000000000000000000000000008B
:101560000000000000000000000000000000080073
:10157000150000000000000000003400070000001B
:10158000000000000000000000000000000000005B
:10159000000000000000000000000000000000004B
:1015A000000000000000000000000000000000003B
:1015B000000000000000000000000000000000002B
:1015C00000000000000000000000000000000C000F
:1015D00011000A00000000000000340010000000AC
:1015E00000000000000000000000000000000000FB
:1015F00000000000000000000000000000000000EB
:1016000000000000000000000000000000000000DA
:1016100000000000000000000000000000000000CA
:1016200000000000000000000000000000000000BA
:10163000000000001E020000000029000000000061
:101640002900330200002502000000000000000015
:1016500000000000000000000000000000002D025B
:10166000000000000000000000000000000000007A
:10167000000000000000000000000000000000006A
:10168000000000000000000000000000000000005A
:10169000000000000000000000000000000000004A
:1016A000000000000000000000000000000000003A
:1016B000000000000000000000000000000000002A
:1016C000000000000000000000000000000000001A
:1016D000000000000000000000000000000000000A
:1016E00000000000000000000000000000000000FA
:1016F00000000000000000000000000000000000EA
:1017000000000000000000000000000000000000D9
:1017100000000000000000000000000000000000C9
:1017200000000000000000000000000000000000B9
:1017300000000000000000000000000000000000A9
:101740000000000000000000000000000000000099
:101750000000000000000000000000000000000089
:101760000000000000000000000000000000000079
:101770000000000000000000000000000000000069
:101780000000000000000000000000000000000059
:101790000000000000000000000000000000000049
:1017A0000000000000000000000000000000000039
:1017B000000000000800000000001C000000000005
:1017C000081C0000000016000000000008160000C1
:1017D00000001C1600000000081C1600000000009D
:1017E00000000000150000000000110000000000D3
:1017F0001511000000000F0000000000150F000090
:1018000000001600000000000F0F000000000A009A
:1018100000000000150A00000000110A000000008E
:101820000A11000000000F0A000000000A15000065
:101830000000070000000000070F00000000060085
:101840000000000015060000000011060000000066
:101850001106150000001300000000001513000021
:101860000000161300000000130F00000000050028
:10187000000000001505000000000A0A000000003A
:10188000050815000000050F000000000000000022
:1018900000000000000000000F05000000000B0029
:1018A000000000001A000000000019000000000005
:1018B0001A11000000001D00000000001A0F0000B7
:1018C0000000160B000000000F19000000000A0BBA
:1018D00000000000150A0B000000100000000000CE
:1018E0001510000000001B000000000000000000B8
:1018F00000001610000000000F1000000000060B92
:101900000000000015060B00000011060B0000008F
:10191000151900000000130B00000000000000007B
:1019200000000000000000000F060B00000009008E
:101930000000000015090000000010050000000074
:101940001005081500000F0900000000090F000035
:10195000000010130000000013100000000017002A
:101960000000000015170000000011170000000023
:101970001511170000000F1700000000170F0000DE
:1019800000001617000000001516170000000E00DA
:1019900000000000150E00000000110E0000000005
:1019A0000000000000000E0F00000000000000001A
:1019B0000000160E000000000F0E000000000617C9
:1019C00000000000061500000000170C12110000B6
:1019D00000000000000013170000000000000000DD
:1019E00000001116170000000F1300000000060E83
:1019F00000000000000000000000051700000000CB
:101A0000050815170000060E0F000000000000007A
:101A10000000000000000000000000000000170BA4
:101A20000000000015170B00000011170B0000004C
:101A30001A170B0000000F170B0000000000000039
:101A400000001119000000000000000000000A0B57
:101A5000170000001A0E00000000110A170B00000A
:101A60001008111700001B17000000000000000004
:101A7000000007170B0000001110081117001706CF
:101A80000B0000000000000000000000000000004B
:101A900000000000000013170B0000000000000011
:101AA0000000000000000000000000000000091716
:101AB00000000000091708150000091708110000B0
:101AC0000000000000000000000000000000000016
:101AD0000000101317000000131008111700160063
:101AE00000000000151600000000111600000000A4
:101AF0001511160000000F1600000000150F16004B
:101B000000001616000000000F0F160000000A1655
:101B100000000000150A16000000110A160000005F
:101B20000A11160000000000000000000000000084
:101B3000000007160000000000000000000006166C
:101B4000000000001506160000001106081600002F
:101B5000000000000000131600000000151316001E
:101B60000000161316000000130F081600000516DB
:101B7000000000001505160000000A0A160000000B
:101B8000050815160000050F0816000000000000EB
:101B900000000000000000000F05160000000B16FA
:101BA000000000001A1600000000190816000000CE
:101BB0001A11160000001D08160000001A0F16006A
:101BC0000000160B081600000F19081600000A0B7B
:101BD00016000000000000000000101600000000C9
:101BE0001510160000001B08160000000000000081
:101BF00000001610160000000F101600000007006D
:101C000000000000150700000000110700000000A0
:101C10001A0700000000130B16000000150F070044
:101C200000001607000000000F0700000000070A70
:101C30000000000000000000000010051600000079
:101C4000100508151600000000000000000000004C
:101C5000000010131600000000000000000017161E
:101C600000000000151716000000111716000000F4
:101C70000000000000000F1716000000170F1C00E6
:101C800000001617160000001516171600000E1695
:101C900000000000150E16000000110E16000000D6
:101CA0000000000000000000000000000000000034
:101CB0000000160E160000000F0E1600000006179A
:101CC00016000000000000000000170C12111600A2
:101CD0000000000000000000000000000000000004
:101CE00000000000000000000F1316000000060EA8
:101CF000160000000000000000000517160000009C
:101D0000050815171600060E0F0816000000000043
:101D10000000000000000000000000000000170BA1
:101D20001600000015170B16000011170B16000007
:101D30001A170B1600000000000000000000000051
:101D400000000000000000000000000000000A0B7E
:101D5000171600001A0E16000000110A170B1600C5
:101D6000100811171600000000000000000000001D
:101D7000000007170B1600001110081117160716A0
:101D800000000000150716000000110716000000F3
:101D90001A071600000013170B160000150F071680
:101DA00000000000000000000F0716000000000007
:101DB0000000000000000000000000000000000023
:101DC0000000000000000000000000000000000013
:101DD000000010131716000013100811171600004A
:101DE00000000000080800000000121200000000BF
:101DF00012080000000004040000000004080000B5
:101E0000000004120000000008041200000018186E
:101E10000000000018080000000018120000000078
:101E20000818120000001804000000000818040040
:101E300000001218040000000812180400000C0C26
:101E4000000000000C08000000000C120000000060
:101E5000080C120000000C0400000000080C040034
:101E60000000120C0400000008120C0400000C1802
:101E700000000000080C180000000C121800000000
:101E800008120C180000040C1800000008040C18BC
:101E9000000012040C1800000812040C18000000C6
:101EA0000000000008000000000012000000000018
:101EB00008120000000004000000000008040000F8
:101EC00000001204000000000812040000001800C6
:101ED00000000000081800000000121800000000B8
:101EE0000812180000000418000000000804180080
:101EF00000001204180000000812041800000C0072
:101F000000000000080C00000000120C000000009F
:101F100008120C000000040C0000000008040C0073
:101F2000000012040C0000000812040C0000180C41
:101F30000000000008180C00000012180C0000003F
:101F40000812180C000004180C0000000804180CFB
:101F500000001204180C0000081204180C00000005
:101F6000000000001100000000001500000000004B
:101F70000F00000000001A00000000001000000028
:101F800000001A15000000001015000000000B00F2
:101F9000000000001C0000000000150B0000000005
:101FA0000F1C000000001A0B00000000101C0000B5
:101FB000000000000000000000000000000006001B
:101FC000000000001D0000000000061500000000D9
:101FD000060F0000000013000000000013110000B5
:101FE0000000131500000000130F00000000060B96
:101FF00000000000061C00000000060B1500000099
:1020000006151C000000130B00000000131C00004C
:102010000000130B15000000130B0F000000170049
:10202000000000001900000000001715000000006B
:10203000140000000000171A000000000D0000004E
:1020400000000000000000000D0815000000170B44
:1020500000000000171C00000000170B1500000016
:1020600017151C0000000E00000000000E110000FB
:1020700000000E15000000000E0F00000000070019
:10208000000000000708190000000715000000000C
:1020900007080F000000071A0000000007081000E2
:1020A0000000070815000000000000000000090003
:1020B00000000000071C00000000091500000000DF
:1020C000090F00000000050000000000051C0000D2
:1020D0000000051500000000050F000000000400CE
:1020E00000000000041100000000041500000000C2
:1020F000040F00000000041A00000000041000009B
:102100000000000000000000040F0F000000040B9E
:1021100000000000041C000000000000000000009F
:10212000000000000000041A0B0000000000000086
:102130000000000000000000000000000000040695
:1021400000000000041D000000000406150000004F
:1021500004060F000000041300000000041010002B
:10216000000004131500000004130F000000040613
:102170000B0000000406060000000406061500001F
:102180000406060F000004130B000000000000000E
:10219000000004130B1500000000000000000417ED
:1021A00000000000041900000000041715000000E2
:1021B000041400000000041717000000040D0000C4
:1021C00000000417171500000000000000000417AD
:1021D0000B00000000000000000004170B0F0000BF
:1021E000000000000000040E0000000004060E11B4
:1021F00000000000000000000000000000000407D4
:10220000000000000407190000000407150000008A
:102210000406140000000407070000000407100073
:1022200000000407071500000407070F0000040959
:102230000000000004090900000004091500000066
:1022400004090F00000004050000000004051C0044
:10225000000004051500000004050F000000160032
:102260000000000016110000000016081500000014
:10227000160F00000000161A0000000016100000E3
:102280000000000000000000000000000000160B2D
:1022900000000000161C00000000160B15000000D6
:1022A000160F1C00000000000000000000000000ED
:1022B0000000000000000000000000000000160602
:1022C00000000000161600000000160615000000B1
:1022D00000000000000016130000000000000000D5
:1022E000000016131500000016130F00000016065C
:1022F0000B000000000000000000000000000000D3
:1023000000000000000016130B00000016131C0054
:102310000000000000000000000000000000161790
:10232000000000001619000000001617150000003C
:102330001614000000001B00000000000000000058
:1023400000001B1500000000160815190000000011
:102350000000000016171C00000000000000000034
:102360001617151C0000160E000000001B1C0000B4
:1023700000000000000000000000000000000A0053
:10238000000000000A11000000000A150000000013
:102390000A0F000000000A1A000000000000000000
:1023A00000000000000000000000000000000A0B18
:1023B000000000000A1C00000000000000000000F7
:1023C000000000000000000000000000000000000D
:1023D00000000000000000000000000000000416E3
:1023E0000000000004111100000004151500000099
:1023F00004160F000000000000000000041610008A
:1024000000000000000000000000000000000416B2
:102410000B00000004161C0000000000000000007B
:1024200000000000000000000000000000000000AC
:102430000000000000000000000000000000041682
:102440000600000004161600000004160615000021
:102450000000000000000416130000000413130025
:1024600000000413131500000413130F00000000F4
:10247000000000000000000000000000000000005C
:102480000000000000000416130B00000416130BDC
:102490001C00000000000000000000000000041606
:1024A000170000000C11190000000C1500000000BE
:1024B000041614000000041B0000000000000000CF
:1024C00000000000000000000000000000000416F2
:1024D000170B00000C11170000000C151500000070
:1024E0000C111708150004160E0000000000000073
:1024F0000000000000000000000000000000040ACE
:1025000000000000040A11000000040A1500000089
:10251000040A0F000000040A0A00000004070D006E
:102520000000040A0A150000040A0A0F0000040A49
:102530000B00000004091700000004090915000041
:102540000409090F00000405050000000000000058
:10255000000004050515000000000000000016033F
:102560004500720067006F0044006F007800200093
:1025700045005A00000016034500720067006F0016
:1025800044006F007800200045005A00000004035A
:10259000090409025400030100A0FA090400000123
:1025A00003010100092111010001224000070581FA
:1025B0000308000A090401000103000000092111B9
:1025C0000100012236000705820308000A090402FF
:1025D0000001030000000921110100012239000758
:1025E0000583032000011201100100000008EDFE28
:1025F000071301000102000105010906A1010507F9
:1026000019E029E7150025019508750181020508E3
:10261000190129059505750191029501750391012F
:102620000507190029F71500250195F875018102A4
:10263000C005010980A10185021601002603001AC8
:1026400081002A8300751095018100C0050C0901E5
:10265000A1018503160100269C021A01002A9C0292
:10266000751095018100C005010906A10105071932
:10267000E029E7150025019508750181029501758E
:102680000881010508190129059505750191029533
:1026900001750391010507190029FF150026FF00A8
:1026A000950675088100C00011241FBECFEFDAE047
:1026B000DEBFCDBF04B603FE24C08091ED0890912B
:1026C000EE08A091EF08B091F0088730904BA7403A
:1026D000B04BB9F41092ED081092EE081092EF088A
:1026E0001092F00814BE84B7877F84BF88E10FB6CC
:1026F000F89480936000109260000FBEE0E0FFE36A
:10270000099512E0A0E0B1E0ECE7F7E602C0059021
:102710000D92A230B107D9F718E0A2E0B2E001C0F3
:102720001D92AD3EB107E1F70E943A2E0C94BC33E6
:102730000C9400001092B9008AE08093B8000895CC
:1027400094EA9093BC009091BC0097FFFCCF9091CD
:10275000B900987F983021F0903111F081E0089510
:102760008093BB0084E88093BC008091BC0087FF0D
:10277000FCCF8091B900887F883111F0803471F7E7
:1027800080E0089584E98093BC008091BC0084FDC2
:10279000FCCF08958093BB0084E88093BC008091B7
:1027A000BC0087FFFCCF9091B900987F81E0983200
:1027B00009F480E0089584E88093BC008091BC0017
:1027C00087FFFCCF8091BB00089580B38C7080BBE5
:1027D00081B3836F81BB089580912901811115C058
:1027E00080E40E94A0138093290181110CC082E132
:1027F0000E94CA1380932901811105C08FEF0E94A6
:10280000CA13809329010E94C21384B1807F84B9C6
:1028100085B1807F85B98AB1837F8AB98BB1837F87
:102820008BB93E984698089508950C949B190E9480
:10283000111E809329010E94EC130E94E513E1E12F
:10284000F2E0A3E0B2E011921D9282E0EF31F807CE
:10285000D1F70C941A1B0E94111E809329010E942B
:10286000EC130E94E513E1E1F2E0A3E0B2E0119283
:102870001D9282E0EF31F807D1F708958F929F9271
:10288000BF92CF92DF92EF92FF920F931F93CF935D
:10289000DF931F92CDB7DEB780912901882379F0AD
:1028A000809102028F5F80930202811108C00E9412
:1028B000111E80932901811102C00E94A31D03E013
:1028C00012E0812C912CEE24E394F12CDD24D3949E
:1028D00095E0C92E282D273030F5809129018111EE
:1028E00042C080E489820E94A0138093290129813B
:1028F000811114C082E10E94CA13809329012981A9
:1029000081110CC0C701082C01C0880F0A94EAF796
:1029100080950E94CA1380932901298129830E94EE
:10292000C213298120C02A30A1F028F4283059F0A0
:10293000293061F005C02C3089F070F02D3089F01D
:10294000209A289810C0219A29980DC0229A2A9876
:102950000AC0239A2B9807C0529A01C0539A5B98D9
:1029600002C03E9A469830EA3A95F1F7273018F5BA
:1029700080912901811144C080E40E94A0138093BA
:102980002901882311F0B12C12C083E10E94CA13DF
:10299000809329018111F7CF81E40E94A0138093D5
:1029A00029018111F0CF0E94DB13B82EB0940E9450
:1029B000C2138B2D26C08FB181708D25799B02C0EB
:1029C00090E001C092E0892B7C9B02C090E001C0A6
:1029D00094E0892B7D9B02C090E001C098E0892B98
:1029E0007E9B02C090E001C090E1892B9FB1909541
:1029F000991F9927991F9295990F907E892B01C055
:102A000080E0F8019081981719F08083C09200014E
:102A10000E94EC13FFEF8F1A9F0A0F5F1F4F3EE0DB
:102A20008316910409F056CF809100018823A1F00C
:102A3000815080930001882329F085E08A95F1F781
:102A400000000AC0A1E1B2E0E3E0F2E081918D93E1
:102A500032E0E131F307D1F70E941C1B81E00F90B7
:102A6000DF91CF911F910F91FF90EF90DF90CF906A
:102A7000BF909F908F900895E82FF0E0EF5EFD4F9C
:102A800080810895089510924607E7E4F7E01082E8
:102A900012821182339688E0E730F807C1F7089573
:102AA00090914607292F30E0F901EE0FFF1FE20F4A
:102AB000F31FE95BF84F8083728361839F5F90937C
:102AC00046070895262F30E0FC017081A72FA770DC
:102AD000EA2FF0E0E630F1059CF5662389F1EE0F70
:102AE000FF1F3196E80FF91F40814F70E1F46F70BE
:102AF0009081907F962B292F22952F703181832FE3
:102B000083708295807F822B8F5F282F2F73829511
:102B1000807F9F70982B908322952F70832F8C7FBE
:102B2000822B8183089550E04217530701F351E04F
:102B30005A0F5770472F487F452BFC014083C4CF65
:102B40000895CF936D3481F018F4683239F004C0E1
:102B5000603531F0623531F0C1E007C0C4E005C036
:102B6000C2E003C0C3E001C0C0E06C2F0E94621548
:102B70008C2FCF91089520E030E050E0F901EE0F66
:102B8000FF1FE80FF91FDF0111967181472F4F706A
:102B900046130AC072957F7011964C91437042950E
:102BA000407F472B540F02C0442329F02F5F3F4F33
:102BB0002630310519F7852F0895809142079091AD
:102BC0004307A0914407B0914507892B8A2B8B2B93
:102BD00069F481E040913E0750913F0760914007C2
:102BE00070914107452B462B472B09F080E08170FF
:102BF00008950F931F93CF93DF931F92CDB7DEB746
:102C0000182F69830E94872A082F812F0E94972AF4
:102C10006981862F0E94E320802F0F90DF91CF9152
:102C20001F910F910C94972A2F923F924F925F928F
:102C30006F927F928F929F92AF92BF92CF92DF92CC
:102C4000EF92FF920F931F93CF93DF93CDB7DEB731
:102C50002E970FB6F894DEBF0FBECDBF0E9443156E
:102C60000E94872A8C8782E10E94902A8091CC085A
:102C7000887F8093CC0880E090E0FC01EE0FFF1F7E
:102C8000E353F74F108221812C7F218301968630F8
:102C9000910599F78091350740903907282F2170C9
:102CA000722E982F92709D8782FB662460F8809127
:102CB0003607882349F055245394823009F0512C6B
:102CC00082E00E948A2A01C0512C51E0C52E51E0B9
:102CD000D52E64E3262E67E0362E00E010E021E0DA
:102CE0002B87F10181911F01882309F492C021E013
:102CF0002B870130110509F01B86F60120813181F7
:102D0000F801E95CFE4F90810530110529F4772028
:102D100091F02EED3DE10FC00430110529F4411072
:102D20000AC071103BC207C00630110521F44110E2
:102D300002C0711042C22115310509F46AC09230F7
:102D4000D9F1933009F430C2913009F062C04901E1
:102D5000F6E08F9F800C911C1124E12CF12CF401E2
:102D6000EE0DFF1D9491992309F453C0A92EB12CA7
:102D7000B50181E09E870E9450159E85943139F4FB
:102D8000442029F068E170E081E00E9450152D8513
:102D9000222351F00630110539F4E114F10421F435
:102DA000B50181E00E9450156FEFE61AF60A86E041
:102DB000E816F104A1F62DC0490196E0899F800C28
:102DC000911C1124E12CF12CF401EE0DFF1D6591F5
:102DD000749161157105E9F082E00E945015E2E0FE
:102DE000EE0EF11CF6E0EF16F10471F712C083E06D
:102DF0000E94501522E0E20EF11C68E0E616F10494
:102E000041F0F401EE0DFF1D65917491611571059E
:102E100071F70F5F1F4F82E0C80ED11C0A301105F9
:102E200009F05FCF80914607882319F0611010C028
:102E300004C0662069F071100BC08CE20E94E32090
:102E40008CE20E94AB2161E08CEC98E00E9462155C
:102E5000312C412C3AE0232EFE0131967F0140E5D2
:102E6000C42ED12C5E01FBE0AF0EB11C8091460751
:102E7000381608F09DC0832D90E08C01000F111FC3
:102E8000080F191F095B184FF8018081823091F0FB
:102E9000833059F1813009F081C081810E94E320A3
:102EA000F80181810E94AB2161E08CEC98E00E94E6
:102EB000621519C0F801918082819CEF990D9A31B9
:102EC00020F4892D0E94E32003C0692D0E94F9158A
:102ED000892D0E94AB21692D8CEC98E00E94A115F0
:102EE000813009F05BC0439459C0F701222D119243
:102EF0002A95E9F7F80101811281013DFCE51F07E0
:102F000091F0023D2CE5120799F0003D6CE51607A3
:102F1000E1F480E593E09A838983EAE2F0E0FC83C0
:102F2000EB83470134C0DA82C982DC82CB82F9CFDD
:102F300082E590E09A838983EDE4F0E0FC83EB8303
:102F400088E290E09E838D83ECCF602F812F0E94DA
:102F5000F915802F0E94AB21602F8CEC98E00E9425
:102F6000A1158130F1F64394DCCF602F812F0E94B0
:102F7000F915802F0E94AB21602F8CEC98E00E9405
:102F8000A115813009F443948A149B0439F0F401AB
:102F9000019111914F010115110539F7552031F0BB
:102FA000F1E04F1203C082E00E94902A33945ECF7A
:102FB0008091CD088F70C9F080911F02843611F482
:102FC00010921F0230911F0281E0830F80931F0235
:102FD0002DE03203D0011124A05EBD4FECECF8E0EF
:102FE00001900D922A95E1F7CEC0772009F4CBC06D
:102FF00070901F027A9477FE02C0B3E67B2E272DD5
:103000006DE0260280011124005E1D4FF8018181D0
:103010008F7009F4B0C0662009F441C08AE20E94B2
:10302000E3208AE20E94AB21F8012081277080E032
:1030300090E030E0F901E81BF90BEE0FFF1FE00F05
:10304000F11FDF0111964181542F5F705130C9F497
:1030500042954F7011962C911197822F8370829513
:10306000807F842B815C982F9F738295807F816005
:103070008C9392959F70822F8C7F892B11968C93C5
:1030800007C00196A901481B590B4F3F5F4F91F6AE
:1030900061E0C8010E94BB15811175C069C02B8514
:1030A000222309F470C0F80180818770A82EB12C0A
:1030B0007501EE0CFF1CE00EF11E00E010E0FFEFCA
:1030C000EF1AFF0AC801880F991F4701881A990A49
:1030D000C12CD12CF4018081982F92959F70218171
:1030E00023702295207F292B30E0C216D306C4F529
:1030F0008F7090E08230910521F13CF4019761F5E9
:103100008AE20E94E3208AE225C083309105F1F033
:10311000049711F581EE0E94E32082E50E94E320EE
:1031200082E50E94AB218DE40E94E3208DE40E94A1
:10313000AB2181EE0E94AB218CE40E94E3208CE461
:1031400009C08FE40E94E3208FE404C081E50E945F
:10315000E32081E50E94AB212FEFC21AD20ABACF39
:103160000F5F1F4FC501801B910B019609F0AACF7D
:1031700070921F0208C0662031F08AE20E94E320AC
:103180008AE20E94AB218C850E94972AE4E3F7E053
:10319000119227E0EE33F207D9F712C02EEA3CE095
:1031A0002115310509F435CE490168E0869F800C70
:1031B000911C1124E12CF12C24CE2EEA34E0F0CF26
:1031C0002E960FB6F894DEBF0FBECDBFDF91CF9124
:1031D0001F910F91FF90EF90DF90CF90BF90AF9035
:1031E0009F908F907F906F905F904F903F902F9027
:1031F00008956F927F928F929F92AF92BF92CF92DB
:10320000DF92EF92FF920F931F93CF93DF938C3C4B
:103210009C4509F07EC0DB018C911196EC91B6E0E3
:10322000EB9FF0011124E80FF11DEE0FFF1FEE0FD1
:10323000FF1FEA5BFC4F85919591A591B491B7FF73
:103240004AC09C012F703327C12CD12C7601C39426
:1032500004C0CC0CDD1CEE1CFF1C2A95D2F7F4E058
:10326000B695A79597958795FA95D1F7E82FEF70C2
:103270007E2E0E2F10E0D801AF5BBE4FF801EE0F8F
:10328000FF1FEB5EFE4FC081D181FB0162804601D2
:1032900057010C9004C0880C991CAA1CBB1C0A94F2
:1032A000D2F76620D1F0F2E07F1203C081EE0E94D7
:1032B000E32088819981AA81BB8188299929AA293B
:1032C000BB2988839983AA83BB83F801EC5CF84F00
:1032D00080818C298083612C1EC080949094A0945E
:1032E000B094488159816A817B81482159216A21A2
:1032F0007B21488359836A837B830E94DD1581117A
:103300000E94141622E07212E6CF81EE0E94AB21D9
:1033100002C066246394862DDF91CF911F910F9197
:10332000FF90EF90DF90CF90BF90AF909F908F90E5
:103330007F906F90089560917A0870917B088091DA
:103340007C0890917D080E94052B25982D98269841
:103350002E9827982F98813029F0823029F4269AC8
:103360002E9A02C0259A2D9A0E94DD15811102C065
:10337000279A2F9A089581E008950C94F9180E94D5
:103380009A242FEF84E39CE0215080409040E1F7A5
:1033900000C000000C94602C0F931F93CF93DF9319
:1033A0008C01FC01C081D181CE010E948629BE0121
:1033B0000E94341BEC01B8010E94BD19882309F456
:1033C00033C1B801CE010E94571D882309F42CC1D6
:1033D000B801CE010E94601E882309F425C1C531C1
:1033E000FCE5DF0708F0A3C0C2308CE5D80708F47D
:1033F00078C0F8018281882309F47FC00E94722B73
:10340000811102C00E94582B0E94852B90E090935E
:10341000DF088093DE08FE01E350FC45E231F10550
:1034200020F4EA5AFF4F0C9480338091DE088160CB
:1034300003C08091DE0882608093DE084BC08091DB
:10344000DE088460F9CF8091DE0813C08091DE0829
:103450008061F2CF8091DE088062EECF8091DE083D
:103460008064EACF8091DE088068E6CF8091DE0834
:1034700084608860E1CF8091DE088E7FDDCF80910F
:10348000DE088D7FD9CF8091DE088B7FD5CF8091EC
:10349000DE0813C08091DE088F7ECECF8091DE08DB
:1034A0008F7DCACF8091DE088F7BC6CF8091DE08EA
:1034B0008F77C2CF8091DE088B7F877FBDCF9091C1
:1034C000DE0897FB882780F921E0822780FB97F9A7
:1034D0009093DE088091DE080E94892B0E949A2436
:1034E000A3C0C115ECE5DE0779F0C130DC45A1F0E1
:1034F00081E080930B0880930C08C801DF91CF9185
:103500001F910F910C94BB19F8018281882309F453
:103510008BC00E94BF1988C0F8018281882309F4FA
:1035200083C08091A70881608093A7087DC0C73CB5
:103530008CE5D80781F5F8018281882361F010922B
:103540000C080E94052C90930A088093090880E2D9
:103550000E94FA2169C00E94872A81FF05C081E08C
:1035600080930B0880930C0880910C0881110FC088
:103570008091090890910A080E94112C883C9105BD
:1035800030F487E20E94E32087E20E94AB2180E2D0
:103590000E94012249C0C83CECE5DE0780F5C63C2C
:1035A000DC4509F0A5CFF8018281882351F0109203
:1035B0000B080E94052C909308088093070882E06E
:1035C000C7CF0E94872A85FF05C081E080930B0842
:1035D00080930C0880910B0881110FC0809107081F
:1035E000909108080E94112C883C910530F486E2E5
:1035F0000E94E32086E20E94AB2182E0C9CFCA3C50
:103600008CE5D80731F4F8018281882369F080E0E5
:1036100009C0CB3CDC4509F06BCFF80182818823DF
:1036200019F082E00E94CC2E80E0DF91CF911F91B3
:103630000F9108950C94FB1D0C941514282F8823CA
:1036400039F090E02A3010F44D96089506970895C9
:1036500087E290E0089508950C942B1B0C942C1B8A
:1036600080E090E00895089596E0799FF00111249C
:1036700094E5899FE00DF11D1124E60FF11DEE0F79
:10368000FF1FE25BFE4F859194910895880F991F6B
:10369000865B9E4FFC018591949108950E94341B96
:1036A0000E94DA1C811520E49207B0F5811540E3F1
:1036B000940708F0DBC0803E9105D8F4803C91056A
:1036C00008F069C0883A910578F4853A910508F0C8
:1036D00065C08130910509F46CC108F423C18430C0
:1036E000910508F066C11EC18D3B910508F461C0CB
:1036F00019C18F3F910509F048F4803F910508F00A
:10370000AFC0883E910508F454C10CC1811520E278
:10371000920708F0A7C00895811544E59407D8F4EE
:10372000811523E5920708F0DCC0811541E5940777
:1037300040F4811520E5920708F0A2C09F70906ABE
:103740000895811542E5940708F0B6C0982F8827A0
:10375000816F906A0895811526E5920750F48115CE
:1037600045E5940708F0D2C0982F8827846F906AA7
:103770000895811528E5920708F4D4C0811549E51C
:10378000940708F4C8C09C0130562115304208F057
:10379000C9C09F71C5C0805C910965C0853A91051B
:1037A00009F4C3C0863A910509F4C2C083E890E4E5
:1037B0000895883A910509F4BEC0893A910509F443
:1037C000BDC08A3A910509F4BCC08B3A910509F451
:1037D000BBC08C3A910509F4BAC08B3B910509F442
:1037E000B9C08C3B910509F4B8C08D3A910509F434
:1037F000B7C0803B910509F4B6C08E3A910509F433
:10380000B5C08F3A910509F4B4C0813B910509F424
:10381000B3C0823B910509F4B2C0833B910509F422
:10382000B1C0843B910509F4B0C0853B910509F412
:10383000AFC0863B910509F4AEC0873B910509F402
:10384000ADC0883B910509F4ACC0893B910509F4F2
:10385000ABC08A3B910509F0AAC08AE296E40895BC
:10386000906508959F700E94461B08959C01332720
:1038700093FF03C0C901986C0895C901906C089525
:10388000482F437021E030E002C0220F331F4A95D9
:10389000E2F73C68AC0174E0569547957A95E1F7FC
:1038A0004370342B8F708695869540E2849FC001CB
:1038B0001124822B932B0895282F2695269540E2DC
:1038C000249F90011124AC014370552781E090E0C2
:1038D00002C0880F991F4A95E2F7822B932B9C68B0
:1038E0000895282F2695269540E2249F90011124C3
:1038F000AC014370552781E090E002C0880F991F0A
:103900004A95E2F7822B932B9A6808958F71992735
:10391000982F882705C0982F8827806F906A089570
:103920009062089580E090E0089581E890E4089521
:1039300082E890E4089582EE94E4089589EE94E498
:1039400008958AEE94E4089585EB94E4089586EB57
:1039500094E4089583EB94E4089584EB94E408954B
:1039600087EB94E408958CEC94E408958DEC94E452
:10397000089583E895E408958AE895E4089582E936
:1039800095E4089584E995E4089581E296E4089524
:1039900083E296E4089584E296E4089585E296E44D
:1039A000089586E296E4089587E296E4089580E01B
:1039B00094E408958238910549F1B0F4813391057A
:1039C00009F459C048F48932910509F44FC08A328C
:1039D000910509F455C008958533910509F441C056
:1039E0008933910599F00895833E910531F138F4BA
:1039F000803E910591F0823E9105A9F00895863EA2
:103A0000910501F1873E910539F108952091DE0875
:103A100020FD3BC021FD39C008958091DE0880FF64
:103A200034C089E341C08091DE0882FF32C08091BA
:103A3000DE0884FF2CC080E037C08091DE0882FD64
:103A400028C0F5CF8091DE0883FF25C08091DE0875
:103A500084FDF1CF87EE28C08091DE0883FD1BC076
:103A6000F5CF8091DE0885FF18C019C08091DE086F
:103A700085FF15C012C08091DE0886FF12C013C0FA
:103A80008091DE0886FF0FC00CC080EE0DC083EE73
:103A90000BC082EE09C086EE07C085E305C089E24F
:103AA00003C081E301C08AE290E008950895CF93B6
:103AB000DF93EC01FB018281811102C081E040C0F3
:103AC00080911A08811125C0C531DC45B9F70E94E3
:103AD000561D81E080931A080E94052C90931908C6
:103AE0008093180810920D0810920F0810920E087B
:103AF00010921108109210081092130810921208D8
:103B000010921508109214081092170810921608B7
:103B100016C080911808909119080E94112C883CB9
:103B2000910560F680910D08E82FF0E0EE0FFF1F81
:103B3000E25FF74FD183C0838F5F80930D0880E0F1
:103B4000DF91CF91089556985E9825982D982698E4
:103B50002E9827982F988FEF90E09093890080936C
:103B6000880090938B0080938A0090938D008093BF
:103B70008C00259A2D9A2FEF80E792E0215080400B
:103B80009040E1F700C00000269A2E9A2FEF80E7C0
:103B900092E0215080409040E1F700C00000279A59
:103BA0002F9A2FEF80E792E0215080409040E1F77C
:103BB00000C0000025982D982FEF80E792E021505B
:103BC00080409040E1F700C0000026982E982FEF2B
:103BD00080E792E0215080409040E1F700C0000073
:103BE00027982F9856985E9825982D9826982E9865
:103BF00027982F98089589EA8093800089E0809320
:103C0000810024982C983F988AB18F7C8AB96E984D
:103C1000479A8BB180638BB9769A0E94A31D0C944E
:103C2000141480E28093290180911B0881110EC039
:103C30000E949A1381E080931B082FEF83ED90E39D
:103C4000215080409040E1F700C0000080E40E94D5
:103C5000A0138093290181112EC00E94CA13809362
:103C60002901811128C00E94CA1380932901811162
:103C700022C08FE30E94CA138093290181111BC0C7
:103C80000E94C21380E40E94A01380932901811135
:103C900012C08CE00E94CA138093290181110BC0CD
:103CA0000E94CA1380932901811105C08FE30E94ED
:103CB000CA13809329010E94C2138091290108959B
:103CC000CF93DF93EC01C13080E8D807C8F0FB0147
:103CD00082818823A9F080911C08811109C08CE0A1
:103CE00090E00E9486330E94841E81E080931C082D
:103CF0000E948B1ECE019F770E94491F0E94011FC8
:103D000081E0DF91CF91089580931D08682F8CE0AA
:103D100090E00C949433E0912A01F0912B01808182
:103D20008093D90881FF03C081EE0E94AB2180916E
:103D3000D90885FF03C085EE0E94AB218091D90888
:103D400080FF03C080EE0E94AB218091D90884FFE0
:103D500003C084EE0E94AB218091D90882FF03C08A
:103D600082EE0E94AB218091D90886FF03C086EEC7
:103D70000E94AB218091D90883FF03C083EE0E948B
:103D8000AB218091D90887FF03C087EE0E94AB2149
:103D900080911D088130A1F078F0823011F18430DB
:103DA00049F586EE0E94E32086EE0E94AB2188E171
:103DB0000E94E32088E11CC082EE0E94E3201AC02A
:103DC00080EE0E94E32081EE0E94E32088E10E94C1
:103DD000E32088E10E94AB2181EE0E94AB2180EEBE
:103DE00007C082EE0E94E32087E50E94E32087E57A
:103DF0000E94AB218FE39CE90197F1F700C000001E
:103E0000089580911D08813029F010F0823041F42E
:103E100082EE04C08CE20E94E3208CE20E94AB217F
:103E20008091D90881FF03C081EE0E94E320809138
:103E3000D90885FF03C085EE0E94E3208091D90850
:103E400080FF03C080EE0E94E3208091D90884FFA8
:103E500003C084EE0E94E3208091D90882FF03C052
:103E600082EE0E94E3208091D90886FF03C086EE8F
:103E70000E94E3208091D90883FF03C083EE0E9453
:103E8000E3208091D90887FF03C087EE0C94E320DC
:103E90000895FF920F931F93CF93DF938C01CCE093
:103EA000D0E0C8010C2E02C0969587950A94E2F7DF
:103EB000282F2F70F22E822F0E941E1B0E94E320BB
:103EC0008F2D0E941E1B0E94AB212497CC3F8FEFA9
:103ED000D80739F7DF91CF911F910F91FF90089587
:103EE00090932308809322080895E0912208F0918E
:103EF0002308309721F00190F081E02D099480E0B3
:103F00000895E0912208F0912308309721F0028073
:103F1000F381E02D09940895209120083091210823
:103F20008217930771F09093210880932008E09105
:103F30002208F0912308309721F00680F781E02DC8
:103F40000994089520911E0830911F088217930745
:103F500071F090931F0880931E08E0912208F09161
:103F60002308309721F00084F185E02D099408950D
:103F700008950C94B81F0E94FC2B0E9417140E94F5
:103F8000832CEEEDF8E08081806880830895CF92E5
:103F9000DF92EF92FF920F931F93CF93DF93CDB7F2
:103FA000DEB72B970FB6F894DEBF0FBECDBF0E94D1
:103FB0003E1435E2E32E38E0F32E00E010E0C02E90
:103FC000802F0E943C15F701D1907F01D826B1F4D3
:103FD0000F5F1F4F0E30110591F78FEF89838A8392
:103FE0001B820E94052C8160782F9D838C834981E0
:103FF0005A816B818D810E94A42041C09091A708B5
:1040000091FF04C08B870E9442158B8520E030E031
:104010004D2D50E0922FBA01022E02C07595679582
:104020000A94E2F760FF25C02E83CF82EE24E3944A
:10403000F12C02C0EE0CFF1C9A95E2F790E08E2165
:104040009F2121E0892B09F420E028870E94052C7C
:104050008160782F9A8789874E815F8168858A85FC
:104060000E94A420F801EB5DF74F80818E258083AC
:1040700006C02F5F3F4F2630310561F6A9CF109162
:1040800024080E94751F1817A1F00E94751F8093C5
:1040900024082B960FB6F894DEBF0FBECDBFDF917C
:1040A000CF911F910F91FF90EF90DF90CF900C94E4
:1040B0002E1B2B960FB6F894DEBF0FBECDBFDF913F
:1040C000CF911F910F91FF90EF90DF90CF900895C7
:1040D000DC0111964C9111975C91852F90E021E0C5
:1040E00030E001C0220F5A95EAF712966C911297B0
:1040F00050E0662319F06091410805C0FA01ED5CBB
:10410000F74F608162236623B9F036E0349FF001F7
:10411000359FF00D1124E80FF91FEE0FFF1FE55B2F
:10412000FE4F808191818D939C93FA01ED5CF74F56
:104130008081822B80830895FA01ED5CF74F2095F2
:104140008081282320830895CF93DF93CDB7DEB7F6
:104150002B970FB6F894DEBF0FBECDBF4F835887A5
:1041600069877A878B878A859B85892B31F05F3FAA
:1041700011F080E003C04F3FE1F781E0811104C0FE
:10418000CE0107960E946820DE01119686E0FD01AF
:1041900011928A95E9F785E0FE01379601900D921C
:1041A0008A95E1F749815A816B817C818D819E815D
:1041B0000E9464272B960FB6F894DEBF0FBECDBFCA
:1041C000DF91CF910895882309F4C4C0823859F44F
:1041D0000E94751F81FDBEC089E30E94062A0E94CD
:1041E000D62A89E30CC0833871F40E94751F80FDC4
:1041F000B1C083E50E94062A0E94D62A83E50E9468
:10420000462A0C94D62A843859F40E94751F82FDE0
:10421000A1C087E40E94062A0E94D62A87E4EFCF35
:104220009CEF980F913A18F40E94062AEACF90E288
:10423000980F983050F4877091E001C0990F8A95DB
:10424000EAF7892F0E948A2ADCCF9BE5980F9330EA
:1042500070F4853A29F0863A31F482E890E005C09E
:1042600081E890E002C083E890E00C948C1F98E510
:10427000980F953108F06EC0883A61F1893A69F17A
:104280008A3A71F18B3A79F18C3A81F18B3B89F161
:104290008C3B91F18D3A99F1803BA1F18E3AA9F1D5
:1042A0008F3AB1F1813BB9F1823BC1F1833BC9F156
:1042B000843BD1F1853BD9F1863BE1F1873BE9F1C4
:1042C000883BF1F1893BF9F18A3B09F03FC08AE272
:1042D00092E03EC082EE90E03BC089EE90E038C0B4
:1042E0008AEE90E035C085EB90E032C086EB90E03E
:1042F0002FC083EB90E02CC084EB90E029C087EBCB
:1043000090E026C08CEC90E023C08DEC90E020C0C3
:1043100083E891E01DC08AE891E01AC082E991E04B
:1043200017C084E991E014C081E292E011C083E2F9
:1043300092E00EC084E292E00BC085E292E008C0F9
:1043400086E292E005C087E292E002C080E090E061
:104350000C94A21F0895882309F44BC0823859F4A5
:104360000E94751F81FF45C089E30E94062A0E94B2
:10437000D62A89E30CC0833871F40E94751F80FF30
:1043800038C083E50E94062A0E94D62A83E50E944F
:10439000462A0C94D62A843859F40E94751F82FF4D
:1043A00028C087E40E94062A0E94D62A87E4EFCF1D
:1043B0009CEF980F913A58F390E2980F983050F490
:1043C000877091E001C0990F8A95EAF7892F0E94C2
:1043D000902ADFCF9BE5980F933020F480E090E0A7
:1043E0000C948C1F885A853120F480E090E00C9466
:1043F000A21F0895882321F00E948A2A0C94D62AAD
:104400000895882321F00E94902A0C94D62A0895BA
:104410008F929F92BF92CF92DF92EF92FF920F9373
:104420001F93CF93DF9300D0CDB7DEB74C01472F5A
:10443000FC01E580E2949FE0E922F280FF2031F068
:1044400079836A830E94AA2A6A81498149836A839F
:104450000E94FF2949816A81882389F0FF2079F031
:1044600080E2860F883058F082E00E94E8290E949E
:10447000FF29BB24B394B82649816A8101C0B12CBD
:10448000E42FE295EF70F0E0E859FF4F0C94803391
:10449000842F807F142F1F70882311F01295107FB6
:1044A000FF20C1F0112309F48DC180E2860F88300E
:1044B00010F0611105C0812F6A830E948A2A04C00E
:1044C000812F6A830E949D2A6A816A830E94D62A6C
:1044D0006A8178C1862F6A830E94AB216A81112389
:1044E00009F4BEC180E2860F883010F0611104C06B
:1044F000812F0E94902A03C0812F0E94A32A0E942C
:10450000D62AAEC1242F207F842F8F70203211F045
:104510008295807F662319F06130B9F020C0FF20BA
:1045200049F0EE2009F404C1F1E0EF1201C10E944C
:10453000BD2A96C1EE2021F091E0E91609F490C160
:1045400089830E94C02A8981F9C0FF2029F0E1E017
:10455000EE1508F485C1ECC0E11082C1EFC0FF2068
:1045600021F0EE2009F4E4C02DC1EE2009F4E6C0EC
:104570002FC1242F26952695237030E02115310573
:1045800021F02130310561F06BC1FF2021F0862F31
:10459000942F937002C080E090E00E948C1F60C155
:1045A000FF2021F0862F942F937002C080E090E0CE
:1045B0000E94A21F55C1842F837009F04EC0F110D4
:1045C0004FC1262F229526952770220F220F862F66
:1045D0008F70C82ED12CE12CF12C022E04C0CC0CF3
:1045E000DD1CEE1CFF1C0A94D2F764FF10C06FE0C4
:1045F00070E080E090E004C0660F771F881F991F6D
:104600002A95D2F7609570958095909503C060E0EB
:1046100070E0CB01242F26952695237030E02230C0
:10462000310569F02330310589F06C297D298E2907
:104630009F292130310571F00E94B52811C16C29E4
:104640007D298E299F290E94C7280AC10E94B5286A
:10465000C701B6010E94A32803C1FF2019F0842FCF
:10466000817001C08695882309F4FAC0262F22950F
:1046700026952770220F220F862F8F70C82ED12CDF
:10468000E12CF12C022E04C0CC0CDD1CEE1CFF1C16
:104690000A94D2F764FF10C06FE070E080E090E011
:1046A00004C0660F771F881F991F2A95D2F760955F
:1046B00070958095909503C060E070E0CB01242F49
:1046C00026952695237030E02230310569F023309D
:1046D000310589F06C297D298E299F2921303105EA
:1046E00071F00E946129BCC06C297D298E299F2907
:1046F0000E947329B5C00E946129C701B6010E94BA
:104700004F29AEC0062F10E0F801E05EF109E53157
:10471000F10508F053C0E858FF4F0C948033162F72
:104720001F70842F8F71FF2031F00E94FA28812F93
:104730000E94FA2195C00E941529812F0E94012212
:104740008FC0FF2039F0E1108BC0842F8F710E9441
:10475000342986C0F1E0FE1508F482C0F6CFFF20B0
:1047600039F0842F8F710E94FA287AC0FF20C9F394
:10477000842F8F710E94152973C0FF2029F0842F88
:104780008F710E94EB286CC00E94E62869C0FF2050
:1047900051F0142F1F71812F0E94FA2863E0812F9E
:1047A0000E94DF295DC081E00E94E82981E08E152A
:1047B00008F056C082E00E94E82952C0FF2031F084
:1047C000EE2079F2862F0E94E3204AC0EE2081F28B
:1047D000862F0E94AB2144C04F70C4010E94301B41
:1047E0000E9411283DC0623FA9F128F4603F49F0C2
:1047F000613FE1F020C0643FA1F050F0653F69F0F7
:104800001AC0FF2049F18091410821E0822702C0AF
:1048100081E08F25809341081FC0F1101DC081E009
:10482000F9CFF11019C01092410816C0EE2091F096
:10483000F11012C0E8CFEE2069F0862F49836A8319
:10484000FF2019F00E94E32002C00E94AB214981A1
:104850006A8102C0F09241084F70C4010E94331B6C
:10486000BB20F1F00E94DB2980FD1AC0F401128206
:104870000E94D5290E94FA28C4010E945E240E9449
:10488000D5290F900F90DF91CF911F910F91FF903D
:10489000EF90DF90CF90BF909F908F900C94152950
:1048A0000F900F90DF91CF911F910F91FF90EF909C
:1048B000DF90CF90BF909F908F9008950F931F939C
:1048C000CF93DF93EC01288139818B819C81892BE7
:1048D00031F03F3F11F080E003C02F3FE1F781E06E
:1048E000811113C0CE010E94CC19882371F0688118
:1048F00079818A810E94D1298C010E9485290E9498
:10490000A028B801CE010E940822DF91CF911F910B
:104910000F9108950E94AA2A0E94BA2A0E94792A19
:104920000E94D62A80E090E00E948C1F80E090E0F8
:104930000C94A21F0E949A2A0C948A240E94C629D1
:10494000E92FE295EF70F0E03297EE30F105B8F420
:10495000E357FF4F0C948033803F59F018F4803EAA
:1049600070F407C0843F59F404C0803E10F0813FCA
:1049700031F481E0089593FB882780F9089580E061
:104980000895CF93DF9300D000D01F92CDB7DEB74C
:104990000F900F900F900F900F90DF91CF9108958F
:1049A000CF93DF9300D000D000D0CDB7DEB72696EE
:1049B0000FB6F894DEBF0FBECDBFDF91CF91089543
:1049C0001F93CF93DF93C091420816E08091430874
:1049D000C81799F0D0E01C9FF0011D9FF00D112425
:1049E000EC5BF74F408151816281738184819581B5
:1049F0000E94D0242196C770E9CFDF91CF911F91FB
:104A000008954091740850917508609176087091EE
:104A1000770880917808909179080C94D024CF93EE
:104A20008091790882958F7009F05FC08091760837
:104A3000882309F45AC020914208A091430860914C
:104A4000740870917508809177089091780831E02A
:104A50006F3F09F030E0B32FC6E02A1709F445C0D4
:104A6000009721F07F3F21F44B2F03C041E001C0AC
:104A700040E030E040FD35C0C29FF001C39FF00D23
:104A80001124EC5BF74F418174132BC040816413F8
:104A900028C04281411125C04381548148175907DC
:104AA00010F441505109481B590B483C5105C8F4BA
:104AB000809179088F7080618093790886E0829F69
:104AC000F001839FF00D1124E75BF74F80818F7019
:104AD0008061808384E798E00E945E24CF910C94EB
:104AE000E0242F5F3F4F2770B8CFCF910895CF922A
:104AF000DF92EF92FF920F931F93CF93DF93CDB787
:104B0000DEB762970FB6F894DEBF0FBECDBF8C0143
:104B100085E0F801DE011D9601900D928A95E1F77E
:104B2000D8014C9111965C91119712966C91129745
:104B30001396ED90FC90149770917408E0917508AD
:104B400020917708309178082115310531F0EF3F39
:104B500031F481E07F3F19F403C081E001C080E0BF
:104B6000B82FB170CB2E80FD6CC1D0907608DD20BF
:104B700009F4F5C0F0917908E216F30638F0C701A0
:104B8000821B930B883C910548F09BC02095309583
:104B90002E0D3F1D283C310508F093C08F2F807FDC
:104BA00009F052C0E51314C0741312C0D62E61115F
:104BB0000FC0FF70F061F09379080E94012584E72F
:104BC00098E00E945E2480917908F80185836CC189
:104BD000EF2831F05F3F31F481E04F3F19F403C01B
:104BE00081E001C080E080FD03C081E0862701C034
:104BF00080E0F82FF170FF2E80FF1CC080914208EA
:104C00002091430836E0821709F428C190E0389FCC
:104C1000F001399FF00D1124EC5BF74F71815713B0
:104C200006C07081471303C07281671303C00196E9
:104C30008770E9CFD62E662309F436C180917908B2
:104C400081608093790853C0E51308C0741306C0CF
:104C5000611104C0D8011596FC93AEC04D875E87E4
:104C60008D859E856A8B0E949E246A89882329F1FE
:104C7000D62E662311F120917908822F82958F70AC
:104C800090E002970CF460C08091740890917508D0
:104C900098878F831986FB86EA862C87CE01079634
:104CA00051C0E51731F14D875E878D859E856A8BF2
:104CB0000E949E246A8981112EC0C8010E945E2430
:104CC000A4C08F2F807F69F77E2DF98AE88A8989B1
:104CD0000E94C12484E798E00E945E24E4E7F8E0A3
:104CE00086E0DF011D928A95E9F70E940125D12C0B
:104CF000DBC07413D8CF6111D6CFD8011596FC93C1
:104D0000C8010E945E24E4E7F8E086E0DF011D921E
:104D10008A95E9F7C9C0D62E662379F220917908E1
:104D2000822F82958F7090E0029774F080917408C2
:104D3000909175089A8389831B82FD82EC822E8371
:104D4000CE0101960E945E2486E0F801A4E7B8E057
:104D500001900D928A95E1F70E940F256FC0E2162F
:104D6000F30628F0C701821B930B9C0104C0209519
:104D700030952E0D3F1D283C310508F052C0D62E2F
:104D8000662309F49ACFE5132CC074132AC08091CE
:104D9000790880FD1DC0982F92959F70C9F0D801A9
:104DA00015968C9315979F3039F09F5F9295907F61
:104DB0008F70892B15968C93C8010E945E2486E023
:104DC000F801A4E7B8E001900D928A95E1F736C0AA
:104DD00086E0F801A4E7B8E001900D928A95E1F72A
:104DE00063C04D875E878D859E850E949E248823A3
:104DF00079F086E0F801A4E7B8E001900D928A9579
:104E0000E1F70E940F250E940125DD24D3944CC0B8
:104E100080917908816080937908C8010E945E249E
:104E200043C07E2DF98AE88A89890E94C124E4E77B
:104E3000F8E086E0DF011D928A95E9F70E940125DE
:104E400033C0662309F439CF4D875E878D859E85F3
:104E50000E949E24882309F430CFCBCF4D875E87F4
:104E60008D859E850E94C629292F22952F7030E0BE
:104E7000223031052CF49F7041F0811106C00CC026
:104E8000243031052CF49F7049F4805E883020F086
:104E9000C8010E945E24CF2CDC2C06C0D8011596D8
:104EA0009C91907F91F7F8CF8D2D62960FB6F89474
:104EB000DEBF0FBECDBFDF91CF911F910F91FF904D
:104EC000EF90DF90CF9008951F93CF93DF93CDB7EE
:104ED000DEB72C970FB6F894DEBF0FBECDBF4F8361
:104EE000588769877A878B879C87CE0107960E94AF
:104EF00077258823C1F02F8138858A859B85892B6A
:104F000031F03F3F11F080E003C02F3FE1F781E037
:104F1000811147C04F81588569857A858B859C852D
:104F20000E94D0243EC086E0FE013796DE01119635
:104F300001900D928A95E1F7FF81E8854A855B85AE
:104F40004115510531F0EF3F31F481E0FF3F19F495
:104F500003C081E001C080E080FD23C020914308B0
:104F600030E0C9010196877099276091420870E08E
:104F700086179707F1F1F983EA835D834C8396E006
:104F8000929FD001939FB00D1124AC5BB74FFE01EF
:104F9000319601900D929A95E1F7809343080E9413
:104FA000E02416E08091420890914308891779F136
:104FB000189FC00111248C5B974F0E94772588238E
:104FC00031F1E09142081E9FF0011124EC5BF74F94
:104FD0004081518162817381848195810E94D024B6
:104FE0008091420890E0019687709927809342084B
:104FF000D9CF0E949A241092430810924208E4E705
:10500000F8E086E0DF011D928A95E9F7CACF2C9679
:105010000FB6F894DEBF0FBECDBFDF91CF911F91C9
:105020000895EF92FF920F931F93CF93DF939C010C
:10503000009709F471C0F12CEE24E394E901219664
:10504000F9018491843740F4843008F056C08130EF
:1050500081F0823021F160C0853709F449C0C0F188
:105060009CE7980F903708F057C08F770E94AB21CC
:1050700046C089010E5F1F4FFE01849190E2980F98
:10508000983050F48770FE2D01C0FF0F8A95EAF723
:105090008F2F0E94AD2A15C00E94E32014C0890101
:1050A0000E5F1F4FFE01849190E2980F983068F4D4
:1050B0008770FE2D01C0FF0F8A95EAF78F2F0E949F
:1050C000B32A0E94D62AE8011AC00E94AB21FBCF66
:1050D0002E5F3F4FFE01C491CC2341F08FE99FE04A
:1050E0000197F1F700C00000C150F6CFE90107C0F9
:1050F000FE01F490E901229602C00E94E3208F2D68
:10510000882341F0EFE9FFE03197F1F700C000009C
:105110008150F6CF9E0192CFDF91CF911F910F91D9
:10512000FF90EF90089508950E94932860937E0861
:1051300070937F0880938008909381080C948A2450
:1051400008950C9494280F931F9300917E0810915A
:105150007F082091800830918108602B712B822B71
:10516000932B1F910F910C9494280F931F930091F0
:105170007E0810917F08209180083091810860237B
:105180007123822393231F910F910C9494280F93E2
:105190001F9300917E0810917F0820918008309124
:1051A000810860277127822793271F910F910C9404
:1051B000942808950E94D92860937A0870937B08F8
:1051C00080937C0890937D080C948A2460E070E0C2
:1051D000CB010C94DA2841E050E060E070E004C0BC
:1051E000440F551F661F771F8A95D2F7CB01BA016E
:1051F0000C94DA2841E050E060E070E004C0440F15
:10520000551F661F771F8A95D2F780917A08909173
:105210007B08A0917C08B0917D08482B592B6A2B04
:105220007B2BCB01BA010C94DA2841E050E060E01E
:1052300070E004C0440F551F661F771F8A95D2F790
:10524000409550956095709580917A0890917B0873
:10525000A0917C08B0917D08482359236A237B23C1
:10526000CB01BA010C94DA2841E050E060E070E034
:1052700004C0440F551F661F771F8A95D2F780918F
:105280007A0890917B08A0917C08B0917D0848270E
:1052900059276A277B27CB01BA010C94DA280F9390
:1052A0001F9300917A0810917B0820917C0830911F
:1052B0007D08602B712B822B932B1F910F910C94E7
:1052C000DA280F931F9300917A0810917B082091A0
:1052D0007C0830917D0860237123822393231F91E2
:1052E0000F910C94DA280F931F9300917A08109174
:1052F0007B0820917C0830917D08602771278227E8
:1053000093271F910F910C94DA280895CF92DF9282
:10531000EF92FF920F931F93CF93DF93EC01C09016
:105320007E08D0907F08E0908008F09081088091FE
:105330007A0890917B08A0917C08B0917D08C82ADA
:10534000D92AEA2AFB2A0FE110E0B701A601002EB4
:1053500004C076956795579547950A94D2F740FD16
:1053600005C00150110988F780E007C0BE01802FF9
:105370000E944E1B0197A9F3802FDF91CF911F91BF
:105380000F91FF90EF90DF90CF900895CF93DF9330
:10539000EC010E948629BE010E944E1BDF91CF9135
:1053A0000895CB010E94C6290895809182088595B1
:1053B000859585950895809182088770089598E075
:1053C000899F90011124622B609382080C94FA2823
:1053D000409182088095842380938208982F97704B
:1053E00069F450E0282F332727FD309542175307E3
:1053F00029F08595859585950C94152908959091AA
:105400008208977081E009F480E008959091360158
:105410009923D9F09091DE0897FF17C0982F9695A1
:10542000969596959F3188F5E0912A01F0912B0190
:10543000E90FF11D877021E030E001C0220F8A954D
:10544000EAF78181822B8183089540912A0150914E
:105450002B0120E030E09FEFFA01E20FF31F6281A1
:10546000681799F09F3F19F4611101C0922F2F5FC7
:105470003F4F2E31310581F79F3F39F0FA01E90F97
:10548000F11D97FDFA958283089508959091360154
:105490009923E1F09091DE0897FF18C0982F969518
:1054A000969596959F3120F5E0912A01F0912B0178
:1054B000E90FF11D877021E030E001C0220F8A95CD
:1054C000EAF72095818128232183089540912A01BC
:1054D00050912B0120E030E0FA01E20FF31F92819E
:1054E000981301C012822F5F3F4F2E313105A1F773
:1054F000089581E090E0E0912A01F0912B01E80FFE
:10550000F91F1082019680329105A9F708958091C4
:10551000A60808959091A608982B9093A608089540
:1055200080959091A60898239093A608089580935B
:10553000A60808951092A60808959091A508982BA2
:105540009093A508089580959091A508982390932D
:10555000A50808951092A50808959091A408982B85
:105560009093A408089580959091A408982390930F
:10557000A40808951092A4080895809383080895BC
:1055800010928308089540912A0150912B0120E048
:1055900030E080E0FA01E20FF31F918191118F5FFB
:1055A0002F5F3F4F2F313105A9F70895E0912A0170
:1055B000F0912B018091A6088083E0912A01F0915F
:1055C0002B0180819091A508892B8083E0912A018D
:1055D000F0912B0180819091A408892B8083909178
:1055E0008308992361F0E0912A01F0912B018081D9
:1055F000892B80830E94C32A811110928308809195
:105600002A0190912B010C94811FCF92DF92EF928F
:10561000FF920F931F936C01EE24FF24C114D10459
:10562000E104F10421F46B017C0180E001C080E120
:1056300033272F2D1E2D0D2D0115110521053105A7
:1056400019F0885F6801790197018601A4E0369519
:10565000279517950795AA95D1F7011511052105ED
:10566000310519F08C5F6801790197018601F2E03C
:105670003695279517950795FA95D1F701151105D8
:105680002105310519F08E5F68017901B701A60186
:105690007695679557954795452B462B472B09F0EF
:1056A0008F5F1F910F91FF90EF90DF90CF90089543
:1056B0006DEE7EEF80E090E00E94A63360E082E035
:1056C00090E00E94943360E083E090E00E94943385
:1056D00060E084E090E00E94943360E085E090E038
:1056E0000C94943380E090E00E948E3321E08D3E54
:1056F0009E4F09F020E0822F089582E090E00C9404
:10570000863383E090E00C94863384E090E00C9440
:105710008633682F84E090E00C9494338091E40801
:10572000843021F11092A80820E488E190E00FB6BF
:10573000F894A895809360000FBE2093600080E0ED
:105740000E942E1B83B7817F846083BF83B78160F3
:1057500083BF7894889583B78E7F83BF88E10FB627
:10576000F89480936000109260000FBE0895089531
:10577000CF930E942B140E943E140E94B72BC0E0CE
:105780008C2F0E943C15811105C0CF5FCE30C1F730
:1057900080E001C081E0CF9108950E949A240E9488
:1057A000751F0C942E1B1F920F920FB60F9211248F
:1057B0008F939F93AF93BF938091A808811113C0DB
:1057C0008091DA089091DB08A091DC08B091DD08A7
:1057D0004196A11DB11D8093DA089093DB08A09338
:1057E000DC08B093DD08BF91AF919F918F910F902E
:1057F0000FBE0F901F90189582E084BD93E095BD79
:105800009AEF97BD80936E0008952FB7F89480911A
:10581000DA089091DB08A091DC08B091DD082FBF79
:105820000895CF92DF92EF92FF920F931F932FB7BD
:10583000F8944091DA085091DB086091DC0870918F
:10584000DD082FBF6A017B01EE24FF248C0120E0DC
:1058500030E0C016D106E206F30610F441505109BB
:10586000481B590BCA011F910F91FF90EF90DF90D9
:10587000CF90089578941F920F920FB60F92112433
:105880008F939F93AF93BF938091DA089091DB0839
:10589000A091DC08B091DD080196A11DB11D809397
:1058A000DA089093DB08A093DC08B093DD08BF9181
:1058B000AF919F918F910F900FBE0F901F901895F1
:1058C0000E948B30F8942FEF87EA91E621508040B8
:1058D0009040E1F700C0000087E090EBDC0180938E
:1058E000ED089093EE08A093EF08B093F0082CE039
:1058F00088E190E00FB6F894A895809360000FBE01
:1059000020936000FFCF0E94722B811102C00E9481
:10591000582B0E947D2B8093A7080E94852B90E036
:105920009093DF088093DE080E94812B682F70E03F
:1059300080E090E00C94A1288091C9080895089512
:105940000F931F93CF93DF9300D01F92CDB7DEB795
:105950008C010E94DC2E823011F0843021F583E02E
:1059600089831B830A8382E08093E9008FEF909103
:10597000E800815095FD06C095ED9A95F1F700007D
:105980008111F5CF8091E80085FF0DC040E050E027
:1059900063E070E0CE0101960E94F92E8091E8004C
:1059A0008E778093E8000F900F900F90DF91CF914A
:1059B0001F910F910895CF93DF9300D01F92CDB721
:1059C000DEB72091E408243029F522E029838058AD
:1059D00091099B838A832093E9008FEF9091E800DF
:1059E000815095FD06C095ED9A95F1F70000811163
:1059F000F5CF8091E80085FF0DC040E050E063E006
:105A000070E0CE0101960E94F92E8091E8008E7719
:105A10008093E8000F900F900F90DF91CF91089541
:105A2000CF93DF93EC010E94DC2E823019F084309A
:105A300009F047C0809136018823E1F08091DE08AB
:105A400087FF18C083E08093E9008FEF9091E80012
:105A5000815095FD06C095E19A95F1F700008111FE
:105A6000F5CF8091E80085FF2CC040E050E060E277
:105A700070E017C081E08093E9008FEF9091E8001B
:105A8000815095FD06C095ED9A95F1F700008111C2
:105A9000F5CF8091E80085FF14C040E050E068E059
:105AA00070E0CE010E94F92E8091E8008E778093FD
:105AB000E80080E2FE01A9EAB8E001900D928A9523
:105AC000E1F7DF91CF9108958091E308811109C03A
:105AD0000E948B300E94E8308091E20084608093C5
